{
	"Nik_MD_project3.sol": {
		"StringRecord": {
			"abi": [
				{
					"inputs": [
						{
							"internalType": "uint256",
							"name": "_timeOfCreation",
							"type": "uint256"
						},
						{
							"internalType": "string",
							"name": "_record",
							"type": "string"
						}
					],
					"stateMutability": "payable",
					"type": "constructor"
				},
				{
					"inputs": [],
					"name": "getRecordType",
					"outputs": [
						{
							"internalType": "string",
							"name": "typeContr",
							"type": "string"
						}
					],
					"stateMutability": "pure",
					"type": "function"
				},
				{
					"inputs": [],
					"name": "record",
					"outputs": [
						{
							"internalType": "string",
							"name": "",
							"type": "string"
						}
					],
					"stateMutability": "view",
					"type": "function"
				},
				{
					"inputs": [
						{
							"internalType": "string",
							"name": "_record",
							"type": "string"
						}
					],
					"name": "setRecord",
					"outputs": [],
					"stateMutability": "nonpayable",
					"type": "function"
				},
				{
					"inputs": [],
					"name": "timeOfCreation",
					"outputs": [
						{
							"internalType": "uint256",
							"name": "",
							"type": "uint256"
						}
					],
					"stateMutability": "view",
					"type": "function"
				}
			],
			"devdoc": {
				"kind": "dev",
				"methods": {},
				"version": 1
			},
			"evm": {
				"assembly": "    /* \"Nik_MD_project3.sol\":64:527  contract StringRecord {... */\n  mstore(0x40, 0x80)\n    /* \"Nik_MD_project3.sol\":155:298  constructor(uint _timeOfCreation, string memory _record) payable {... */\n  mload(0x40)\n  sub(codesize, bytecodeSize)\n  dup1\n  bytecodeSize\n  dup4\n  codecopy\n  dup2\n  dup2\n  add\n  0x40\n  mstore\n  dup2\n  add\n  swap1\n  tag_1\n  swap2\n  swap1\n  tag_2\n  jump\t// in\ntag_1:\n    /* \"Nik_MD_project3.sol\":248:263  _timeOfCreation */\n  dup2\n    /* \"Nik_MD_project3.sol\":231:245  timeOfCreation */\n  0x00\n    /* \"Nik_MD_project3.sol\":231:263  timeOfCreation = _timeOfCreation */\n  dup2\n  swap1\n  sstore\n  pop\n    /* \"Nik_MD_project3.sol\":283:290  _record */\n  dup1\n    /* \"Nik_MD_project3.sol\":274:280  record */\n  0x01\n    /* \"Nik_MD_project3.sol\":274:290  record = _record */\n  swap1\n  dup2\n  tag_5\n  swap2\n  swap1\n  tag_6\n  jump\t// in\ntag_5:\n  pop\n    /* \"Nik_MD_project3.sol\":155:298  constructor(uint _timeOfCreation, string memory _record) payable {... */\n  pop\n  pop\n    /* \"Nik_MD_project3.sol\":64:527  contract StringRecord {... */\n  jump(tag_7)\n    /* \"#utility.yul\":7:82   */\ntag_8:\n    /* \"#utility.yul\":40:46   */\n  0x00\n    /* \"#utility.yul\":73:75   */\n  0x40\n    /* \"#utility.yul\":67:76   */\n  mload\n    /* \"#utility.yul\":57:76   */\n  swap1\n  pop\n    /* \"#utility.yul\":7:82   */\n  swap1\n  jump\t// out\n    /* \"#utility.yul\":88:205   */\ntag_9:\n    /* \"#utility.yul\":197:198   */\n  0x00\n    /* \"#utility.yul\":194:195   */\n  dup1\n    /* \"#utility.yul\":187:199   */\n  revert\n    /* \"#utility.yul\":211:328   */\ntag_10:\n    /* \"#utility.yul\":320:321   */\n  0x00\n    /* \"#utility.yul\":317:318   */\n  dup1\n    /* \"#utility.yul\":310:322   */\n  revert\n    /* \"#utility.yul\":334:411   */\ntag_11:\n    /* \"#utility.yul\":371:378   */\n  0x00\n    /* \"#utility.yul\":400:405   */\n  dup2\n    /* \"#utility.yul\":389:405   */\n  swap1\n  pop\n    /* \"#utility.yul\":334:411   */\n  swap2\n  swap1\n  pop\n  jump\t// out\n    /* \"#utility.yul\":417:539   */\ntag_12:\n    /* \"#utility.yul\":490:514   */\n  tag_48\n    /* \"#utility.yul\":508:513   */\n  dup2\n    /* \"#utility.yul\":490:514   */\n  tag_11\n  jump\t// in\ntag_48:\n    /* \"#utility.yul\":483:488   */\n  dup2\n    /* \"#utility.yul\":480:515   */\n  eq\n    /* \"#utility.yul\":470:533   */\n  tag_49\n  jumpi\n    /* \"#utility.yul\":529:530   */\n  0x00\n    /* \"#utility.yul\":526:527   */\n  dup1\n    /* \"#utility.yul\":519:531   */\n  revert\n    /* \"#utility.yul\":470:533   */\ntag_49:\n    /* \"#utility.yul\":417:539   */\n  pop\n  jump\t// out\n    /* \"#utility.yul\":545:688   */\ntag_13:\n    /* \"#utility.yul\":602:607   */\n  0x00\n    /* \"#utility.yul\":633:639   */\n  dup2\n    /* \"#utility.yul\":627:640   */\n  mload\n    /* \"#utility.yul\":618:640   */\n  swap1\n  pop\n    /* \"#utility.yul\":649:682   */\n  tag_51\n    /* \"#utility.yul\":676:681   */\n  dup2\n    /* \"#utility.yul\":649:682   */\n  tag_12\n  jump\t// in\ntag_51:\n    /* \"#utility.yul\":545:688   */\n  swap3\n  swap2\n  pop\n  pop\n  jump\t// out\n    /* \"#utility.yul\":694:811   */\ntag_14:\n    /* \"#utility.yul\":803:804   */\n  0x00\n    /* \"#utility.yul\":800:801   */\n  dup1\n    /* \"#utility.yul\":793:805   */\n  revert\n    /* \"#utility.yul\":817:934   */\ntag_15:\n    /* \"#utility.yul\":926:927   */\n  0x00\n    /* \"#utility.yul\":923:924   */\n  dup1\n    /* \"#utility.yul\":916:928   */\n  revert\n    /* \"#utility.yul\":940:1042   */\ntag_16:\n    /* \"#utility.yul\":981:987   */\n  0x00\n    /* \"#utility.yul\":1032:1034   */\n  0x1f\n    /* \"#utility.yul\":1028:1035   */\n  not\n    /* \"#utility.yul\":1023:1025   */\n  0x1f\n    /* \"#utility.yul\":1016:1021   */\n  dup4\n    /* \"#utility.yul\":1012:1026   */\n  add\n    /* \"#utility.yul\":1008:1036   */\n  and\n    /* \"#utility.yul\":998:1036   */\n  swap1\n  pop\n    /* \"#utility.yul\":940:1042   */\n  swap2\n  swap1\n  pop\n  jump\t// out\n    /* \"#utility.yul\":1048:1228   */\ntag_17:\n    /* \"#utility.yul\":1096:1173   */\n  0x4e487b7100000000000000000000000000000000000000000000000000000000\n    /* \"#utility.yul\":1093:1094   */\n  0x00\n    /* \"#utility.yul\":1086:1174   */\n  mstore\n    /* \"#utility.yul\":1193:1197   */\n  0x41\n    /* \"#utility.yul\":1190:1191   */\n  0x04\n    /* \"#utility.yul\":1183:1198   */\n  mstore\n    /* \"#utility.yul\":1217:1221   */\n  0x24\n    /* \"#utility.yul\":1214:1215   */\n  0x00\n    /* \"#utility.yul\":1207:1222   */\n  revert\n    /* \"#utility.yul\":1234:1515   */\ntag_18:\n    /* \"#utility.yul\":1317:1344   */\n  tag_57\n    /* \"#utility.yul\":1339:1343   */\n  dup3\n    /* \"#utility.yul\":1317:1344   */\n  tag_16\n  jump\t// in\ntag_57:\n    /* \"#utility.yul\":1309:1315   */\n  dup2\n    /* \"#utility.yul\":1305:1345   */\n  add\n    /* \"#utility.yul\":1447:1453   */\n  dup2\n    /* \"#utility.yul\":1435:1445   */\n  dup2\n    /* \"#utility.yul\":1432:1454   */\n  lt\n    /* \"#utility.yul\":1411:1429   */\n  0xffffffffffffffff\n    /* \"#utility.yul\":1399:1409   */\n  dup3\n    /* \"#utility.yul\":1396:1430   */\n  gt\n    /* \"#utility.yul\":1393:1455   */\n  or\n    /* \"#utility.yul\":1390:1478   */\n  iszero\n  tag_58\n  jumpi\n    /* \"#utility.yul\":1458:1476   */\n  tag_59\n  tag_17\n  jump\t// in\ntag_59:\n    /* \"#utility.yul\":1390:1478   */\ntag_58:\n    /* \"#utility.yul\":1498:1508   */\n  dup1\n    /* \"#utility.yul\":1494:1496   */\n  0x40\n    /* \"#utility.yul\":1487:1509   */\n  mstore\n    /* \"#utility.yul\":1277:1515   */\n  pop\n    /* \"#utility.yul\":1234:1515   */\n  pop\n  pop\n  jump\t// out\n    /* \"#utility.yul\":1521:1650   */\ntag_19:\n    /* \"#utility.yul\":1555:1561   */\n  0x00\n    /* \"#utility.yul\":1582:1602   */\n  tag_61\n  tag_8\n  jump\t// in\ntag_61:\n    /* \"#utility.yul\":1572:1602   */\n  swap1\n  pop\n    /* \"#utility.yul\":1611:1644   */\n  tag_62\n    /* \"#utility.yul\":1639:1643   */\n  dup3\n    /* \"#utility.yul\":1631:1637   */\n  dup3\n    /* \"#utility.yul\":1611:1644   */\n  tag_18\n  jump\t// in\ntag_62:\n    /* \"#utility.yul\":1521:1650   */\n  swap2\n  swap1\n  pop\n  jump\t// out\n    /* \"#utility.yul\":1656:1964   */\ntag_20:\n    /* \"#utility.yul\":1718:1722   */\n  0x00\n    /* \"#utility.yul\":1808:1826   */\n  0xffffffffffffffff\n    /* \"#utility.yul\":1800:1806   */\n  dup3\n    /* \"#utility.yul\":1797:1827   */\n  gt\n    /* \"#utility.yul\":1794:1850   */\n  iszero\n  tag_64\n  jumpi\n    /* \"#utility.yul\":1830:1848   */\n  tag_65\n  tag_17\n  jump\t// in\ntag_65:\n    /* \"#utility.yul\":1794:1850   */\ntag_64:\n    /* \"#utility.yul\":1868:1897   */\n  tag_66\n    /* \"#utility.yul\":1890:1896   */\n  dup3\n    /* \"#utility.yul\":1868:1897   */\n  tag_16\n  jump\t// in\ntag_66:\n    /* \"#utility.yul\":1860:1897   */\n  swap1\n  pop\n    /* \"#utility.yul\":1952:1956   */\n  0x20\n    /* \"#utility.yul\":1946:1950   */\n  dup2\n    /* \"#utility.yul\":1942:1957   */\n  add\n    /* \"#utility.yul\":1934:1957   */\n  swap1\n  pop\n    /* \"#utility.yul\":1656:1964   */\n  swap2\n  swap1\n  pop\n  jump\t// out\n    /* \"#utility.yul\":1970:2216   */\ntag_21:\n    /* \"#utility.yul\":2051:2052   */\n  0x00\n    /* \"#utility.yul\":2061:2174   */\ntag_68:\n    /* \"#utility.yul\":2075:2081   */\n  dup4\n    /* \"#utility.yul\":2072:2073   */\n  dup2\n    /* \"#utility.yul\":2069:2082   */\n  lt\n    /* \"#utility.yul\":2061:2174   */\n  iszero\n  tag_70\n  jumpi\n    /* \"#utility.yul\":2160:2161   */\n  dup1\n    /* \"#utility.yul\":2155:2158   */\n  dup3\n    /* \"#utility.yul\":2151:2162   */\n  add\n    /* \"#utility.yul\":2145:2163   */\n  mload\n    /* \"#utility.yul\":2141:2142   */\n  dup2\n    /* \"#utility.yul\":2136:2139   */\n  dup5\n    /* \"#utility.yul\":2132:2143   */\n  add\n    /* \"#utility.yul\":2125:2164   */\n  mstore\n    /* \"#utility.yul\":2097:2099   */\n  0x20\n    /* \"#utility.yul\":2094:2095   */\n  dup2\n    /* \"#utility.yul\":2090:2100   */\n  add\n    /* \"#utility.yul\":2085:2100   */\n  swap1\n  pop\n    /* \"#utility.yul\":2061:2174   */\n  jump(tag_68)\ntag_70:\n    /* \"#utility.yul\":2208:2209   */\n  0x00\n    /* \"#utility.yul\":2199:2205   */\n  dup5\n    /* \"#utility.yul\":2194:2197   */\n  dup5\n    /* \"#utility.yul\":2190:2206   */\n  add\n    /* \"#utility.yul\":2183:2210   */\n  mstore\n    /* \"#utility.yul\":2032:2216   */\n  pop\n    /* \"#utility.yul\":1970:2216   */\n  pop\n  pop\n  pop\n  jump\t// out\n    /* \"#utility.yul\":2222:2656   */\ntag_22:\n    /* \"#utility.yul\":2311:2316   */\n  0x00\n    /* \"#utility.yul\":2336:2402   */\n  tag_72\n    /* \"#utility.yul\":2352:2401   */\n  tag_73\n    /* \"#utility.yul\":2394:2400   */\n  dup5\n    /* \"#utility.yul\":2352:2401   */\n  tag_20\n  jump\t// in\ntag_73:\n    /* \"#utility.yul\":2336:2402   */\n  tag_19\n  jump\t// in\ntag_72:\n    /* \"#utility.yul\":2327:2402   */\n  swap1\n  pop\n    /* \"#utility.yul\":2425:2431   */\n  dup3\n    /* \"#utility.yul\":2418:2423   */\n  dup2\n    /* \"#utility.yul\":2411:2432   */\n  mstore\n    /* \"#utility.yul\":2463:2467   */\n  0x20\n    /* \"#utility.yul\":2456:2461   */\n  dup2\n    /* \"#utility.yul\":2452:2468   */\n  add\n    /* \"#utility.yul\":2501:2504   */\n  dup5\n    /* \"#utility.yul\":2492:2498   */\n  dup5\n    /* \"#utility.yul\":2487:2490   */\n  dup5\n    /* \"#utility.yul\":2483:2499   */\n  add\n    /* \"#utility.yul\":2480:2505   */\n  gt\n    /* \"#utility.yul\":2477:2589   */\n  iszero\n  tag_74\n  jumpi\n    /* \"#utility.yul\":2508:2587   */\n  tag_75\n  tag_15\n  jump\t// in\ntag_75:\n    /* \"#utility.yul\":2477:2589   */\ntag_74:\n    /* \"#utility.yul\":2598:2650   */\n  tag_76\n    /* \"#utility.yul\":2643:2649   */\n  dup5\n    /* \"#utility.yul\":2638:2641   */\n  dup3\n    /* \"#utility.yul\":2633:2636   */\n  dup6\n    /* \"#utility.yul\":2598:2650   */\n  tag_21\n  jump\t// in\ntag_76:\n    /* \"#utility.yul\":2317:2656   */\n  pop\n    /* \"#utility.yul\":2222:2656   */\n  swap4\n  swap3\n  pop\n  pop\n  pop\n  jump\t// out\n    /* \"#utility.yul\":2676:3031   */\ntag_23:\n    /* \"#utility.yul\":2743:2748   */\n  0x00\n    /* \"#utility.yul\":2792:2795   */\n  dup3\n    /* \"#utility.yul\":2785:2789   */\n  0x1f\n    /* \"#utility.yul\":2777:2783   */\n  dup4\n    /* \"#utility.yul\":2773:2790   */\n  add\n    /* \"#utility.yul\":2769:2796   */\n  slt\n    /* \"#utility.yul\":2759:2881   */\n  tag_78\n  jumpi\n    /* \"#utility.yul\":2800:2879   */\n  tag_79\n  tag_14\n  jump\t// in\ntag_79:\n    /* \"#utility.yul\":2759:2881   */\ntag_78:\n    /* \"#utility.yul\":2910:2916   */\n  dup2\n    /* \"#utility.yul\":2904:2917   */\n  mload\n    /* \"#utility.yul\":2935:3025   */\n  tag_80\n    /* \"#utility.yul\":3021:3024   */\n  dup5\n    /* \"#utility.yul\":3013:3019   */\n  dup3\n    /* \"#utility.yul\":3006:3010   */\n  0x20\n    /* \"#utility.yul\":2998:3004   */\n  dup7\n    /* \"#utility.yul\":2994:3011   */\n  add\n    /* \"#utility.yul\":2935:3025   */\n  tag_22\n  jump\t// in\ntag_80:\n    /* \"#utility.yul\":2926:3025   */\n  swap2\n  pop\n    /* \"#utility.yul\":2749:3031   */\n  pop\n    /* \"#utility.yul\":2676:3031   */\n  swap3\n  swap2\n  pop\n  pop\n  jump\t// out\n    /* \"#utility.yul\":3037:3717   */\ntag_2:\n    /* \"#utility.yul\":3126:3132   */\n  0x00\n    /* \"#utility.yul\":3134:3140   */\n  dup1\n    /* \"#utility.yul\":3183:3185   */\n  0x40\n    /* \"#utility.yul\":3171:3180   */\n  dup4\n    /* \"#utility.yul\":3162:3169   */\n  dup6\n    /* \"#utility.yul\":3158:3181   */\n  sub\n    /* \"#utility.yul\":3154:3186   */\n  slt\n    /* \"#utility.yul\":3151:3270   */\n  iszero\n  tag_82\n  jumpi\n    /* \"#utility.yul\":3189:3268   */\n  tag_83\n  tag_9\n  jump\t// in\ntag_83:\n    /* \"#utility.yul\":3151:3270   */\ntag_82:\n    /* \"#utility.yul\":3309:3310   */\n  0x00\n    /* \"#utility.yul\":3334:3398   */\n  tag_84\n    /* \"#utility.yul\":3390:3397   */\n  dup6\n    /* \"#utility.yul\":3381:3387   */\n  dup3\n    /* \"#utility.yul\":3370:3379   */\n  dup7\n    /* \"#utility.yul\":3366:3388   */\n  add\n    /* \"#utility.yul\":3334:3398   */\n  tag_13\n  jump\t// in\ntag_84:\n    /* \"#utility.yul\":3324:3398   */\n  swap3\n  pop\n    /* \"#utility.yul\":3280:3408   */\n  pop\n    /* \"#utility.yul\":3468:3470   */\n  0x20\n    /* \"#utility.yul\":3457:3466   */\n  dup4\n    /* \"#utility.yul\":3453:3471   */\n  add\n    /* \"#utility.yul\":3447:3472   */\n  mload\n    /* \"#utility.yul\":3499:3517   */\n  0xffffffffffffffff\n    /* \"#utility.yul\":3491:3497   */\n  dup2\n    /* \"#utility.yul\":3488:3518   */\n  gt\n    /* \"#utility.yul\":3485:3602   */\n  iszero\n  tag_85\n  jumpi\n    /* \"#utility.yul\":3521:3600   */\n  tag_86\n  tag_10\n  jump\t// in\ntag_86:\n    /* \"#utility.yul\":3485:3602   */\ntag_85:\n    /* \"#utility.yul\":3626:3700   */\n  tag_87\n    /* \"#utility.yul\":3692:3699   */\n  dup6\n    /* \"#utility.yul\":3683:3689   */\n  dup3\n    /* \"#utility.yul\":3672:3681   */\n  dup7\n    /* \"#utility.yul\":3668:3690   */\n  add\n    /* \"#utility.yul\":3626:3700   */\n  tag_23\n  jump\t// in\ntag_87:\n    /* \"#utility.yul\":3616:3700   */\n  swap2\n  pop\n    /* \"#utility.yul\":3418:3710   */\n  pop\n    /* \"#utility.yul\":3037:3717   */\n  swap3\n  pop\n  swap3\n  swap1\n  pop\n  jump\t// out\n    /* \"#utility.yul\":3723:3822   */\ntag_24:\n    /* \"#utility.yul\":3775:3781   */\n  0x00\n    /* \"#utility.yul\":3809:3814   */\n  dup2\n    /* \"#utility.yul\":3803:3815   */\n  mload\n    /* \"#utility.yul\":3793:3815   */\n  swap1\n  pop\n    /* \"#utility.yul\":3723:3822   */\n  swap2\n  swap1\n  pop\n  jump\t// out\n    /* \"#utility.yul\":3828:4008   */\ntag_25:\n    /* \"#utility.yul\":3876:3953   */\n  0x4e487b7100000000000000000000000000000000000000000000000000000000\n    /* \"#utility.yul\":3873:3874   */\n  0x00\n    /* \"#utility.yul\":3866:3954   */\n  mstore\n    /* \"#utility.yul\":3973:3977   */\n  0x22\n    /* \"#utility.yul\":3970:3971   */\n  0x04\n    /* \"#utility.yul\":3963:3978   */\n  mstore\n    /* \"#utility.yul\":3997:4001   */\n  0x24\n    /* \"#utility.yul\":3994:3995   */\n  0x00\n    /* \"#utility.yul\":3987:4002   */\n  revert\n    /* \"#utility.yul\":4014:4334   */\ntag_26:\n    /* \"#utility.yul\":4058:4064   */\n  0x00\n    /* \"#utility.yul\":4095:4096   */\n  0x02\n    /* \"#utility.yul\":4089:4093   */\n  dup3\n    /* \"#utility.yul\":4085:4097   */\n  div\n    /* \"#utility.yul\":4075:4097   */\n  swap1\n  pop\n    /* \"#utility.yul\":4142:4143   */\n  0x01\n    /* \"#utility.yul\":4136:4140   */\n  dup3\n    /* \"#utility.yul\":4132:4144   */\n  and\n    /* \"#utility.yul\":4163:4181   */\n  dup1\n    /* \"#utility.yul\":4153:4234   */\n  tag_91\n  jumpi\n    /* \"#utility.yul\":4219:4223   */\n  0x7f\n    /* \"#utility.yul\":4211:4217   */\n  dup3\n    /* \"#utility.yul\":4207:4224   */\n  and\n    /* \"#utility.yul\":4197:4224   */\n  swap2\n  pop\n    /* \"#utility.yul\":4153:4234   */\ntag_91:\n    /* \"#utility.yul\":4281:4283   */\n  0x20\n    /* \"#utility.yul\":4273:4279   */\n  dup3\n    /* \"#utility.yul\":4270:4284   */\n  lt\n    /* \"#utility.yul\":4250:4268   */\n  dup2\n    /* \"#utility.yul\":4247:4285   */\n  sub\n    /* \"#utility.yul\":4244:4328   */\n  tag_92\n  jumpi\n    /* \"#utility.yul\":4300:4318   */\n  tag_93\n  tag_25\n  jump\t// in\ntag_93:\n    /* \"#utility.yul\":4244:4328   */\ntag_92:\n    /* \"#utility.yul\":4065:4334   */\n  pop\n    /* \"#utility.yul\":4014:4334   */\n  swap2\n  swap1\n  pop\n  jump\t// out\n    /* \"#utility.yul\":4340:4481   */\ntag_27:\n    /* \"#utility.yul\":4389:4393   */\n  0x00\n    /* \"#utility.yul\":4412:4415   */\n  dup2\n    /* \"#utility.yul\":4404:4415   */\n  swap1\n  pop\n    /* \"#utility.yul\":4435:4438   */\n  dup2\n    /* \"#utility.yul\":4432:4433   */\n  0x00\n    /* \"#utility.yul\":4425:4439   */\n  mstore\n    /* \"#utility.yul\":4469:4473   */\n  0x20\n    /* \"#utility.yul\":4466:4467   */\n  0x00\n    /* \"#utility.yul\":4456:4474   */\n  keccak256\n    /* \"#utility.yul\":4448:4474   */\n  swap1\n  pop\n    /* \"#utility.yul\":4340:4481   */\n  swap2\n  swap1\n  pop\n  jump\t// out\n    /* \"#utility.yul\":4487:4580   */\ntag_28:\n    /* \"#utility.yul\":4524:4530   */\n  0x00\n    /* \"#utility.yul\":4571:4573   */\n  0x20\n    /* \"#utility.yul\":4566:4568   */\n  0x1f\n    /* \"#utility.yul\":4559:4564   */\n  dup4\n    /* \"#utility.yul\":4555:4569   */\n  add\n    /* \"#utility.yul\":4551:4574   */\n  div\n    /* \"#utility.yul\":4541:4574   */\n  swap1\n  pop\n    /* \"#utility.yul\":4487:4580   */\n  swap2\n  swap1\n  pop\n  jump\t// out\n    /* \"#utility.yul\":4586:4693   */\ntag_29:\n    /* \"#utility.yul\":4630:4638   */\n  0x00\n    /* \"#utility.yul\":4680:4685   */\n  dup3\n    /* \"#utility.yul\":4674:4678   */\n  dup3\n    /* \"#utility.yul\":4670:4686   */\n  shl\n    /* \"#utility.yul\":4649:4686   */\n  swap1\n  pop\n    /* \"#utility.yul\":4586:4693   */\n  swap3\n  swap2\n  pop\n  pop\n  jump\t// out\n    /* \"#utility.yul\":4699:5092   */\ntag_30:\n    /* \"#utility.yul\":4768:4774   */\n  0x00\n    /* \"#utility.yul\":4818:4819   */\n  0x08\n    /* \"#utility.yul\":4806:4816   */\n  dup4\n    /* \"#utility.yul\":4802:4820   */\n  mul\n    /* \"#utility.yul\":4841:4938   */\n  tag_98\n    /* \"#utility.yul\":4871:4937   */\n  0xffffffffffffffffffffffffffffffffffffffffffffffffffffffffffffffff\n    /* \"#utility.yul\":4860:4869   */\n  dup3\n    /* \"#utility.yul\":4841:4938   */\n  tag_29\n  jump\t// in\ntag_98:\n    /* \"#utility.yul\":4959:4998   */\n  tag_99\n    /* \"#utility.yul\":4989:4997   */\n  dup7\n    /* \"#utility.yul\":4978:4987   */\n  dup4\n    /* \"#utility.yul\":4959:4998   */\n  tag_29\n  jump\t// in\ntag_99:\n    /* \"#utility.yul\":4947:4998   */\n  swap6\n  pop\n    /* \"#utility.yul\":5031:5035   */\n  dup1\n    /* \"#utility.yul\":5027:5036   */\n  not\n    /* \"#utility.yul\":5020:5025   */\n  dup5\n    /* \"#utility.yul\":5016:5037   */\n  and\n    /* \"#utility.yul\":5007:5037   */\n  swap4\n  pop\n    /* \"#utility.yul\":5080:5084   */\n  dup1\n    /* \"#utility.yul\":5070:5078   */\n  dup7\n    /* \"#utility.yul\":5066:5085   */\n  and\n    /* \"#utility.yul\":5059:5064   */\n  dup5\n    /* \"#utility.yul\":5056:5086   */\n  or\n    /* \"#utility.yul\":5046:5086   */\n  swap3\n  pop\n    /* \"#utility.yul\":4775:5092   */\n  pop\n  pop\n    /* \"#utility.yul\":4699:5092   */\n  swap4\n  swap3\n  pop\n  pop\n  pop\n  jump\t// out\n    /* \"#utility.yul\":5098:5158   */\ntag_31:\n    /* \"#utility.yul\":5126:5129   */\n  0x00\n    /* \"#utility.yul\":5147:5152   */\n  dup2\n    /* \"#utility.yul\":5140:5152   */\n  swap1\n  pop\n    /* \"#utility.yul\":5098:5158   */\n  swap2\n  swap1\n  pop\n  jump\t// out\n    /* \"#utility.yul\":5164:5306   */\ntag_32:\n    /* \"#utility.yul\":5214:5223   */\n  0x00\n    /* \"#utility.yul\":5247:5300   */\n  tag_102\n    /* \"#utility.yul\":5265:5299   */\n  tag_103\n    /* \"#utility.yul\":5274:5298   */\n  tag_104\n    /* \"#utility.yul\":5292:5297   */\n  dup5\n    /* \"#utility.yul\":5274:5298   */\n  tag_11\n  jump\t// in\ntag_104:\n    /* \"#utility.yul\":5265:5299   */\n  tag_31\n  jump\t// in\ntag_103:\n    /* \"#utility.yul\":5247:5300   */\n  tag_11\n  jump\t// in\ntag_102:\n    /* \"#utility.yul\":5234:5300   */\n  swap1\n  pop\n    /* \"#utility.yul\":5164:5306   */\n  swap2\n  swap1\n  pop\n  jump\t// out\n    /* \"#utility.yul\":5312:5387   */\ntag_33:\n    /* \"#utility.yul\":5355:5358   */\n  0x00\n    /* \"#utility.yul\":5376:5381   */\n  dup2\n    /* \"#utility.yul\":5369:5381   */\n  swap1\n  pop\n    /* \"#utility.yul\":5312:5387   */\n  swap2\n  swap1\n  pop\n  jump\t// out\n    /* \"#utility.yul\":5393:5662   */\ntag_34:\n    /* \"#utility.yul\":5503:5542   */\n  tag_107\n    /* \"#utility.yul\":5534:5541   */\n  dup4\n    /* \"#utility.yul\":5503:5542   */\n  tag_32\n  jump\t// in\ntag_107:\n    /* \"#utility.yul\":5564:5655   */\n  tag_108\n    /* \"#utility.yul\":5613:5654   */\n  tag_109\n    /* \"#utility.yul\":5637:5653   */\n  dup3\n    /* \"#utility.yul\":5613:5654   */\n  tag_33\n  jump\t// in\ntag_109:\n    /* \"#utility.yul\":5605:5611   */\n  dup5\n    /* \"#utility.yul\":5598:5602   */\n  dup5\n    /* \"#utility.yul\":5592:5603   */\n  sload\n    /* \"#utility.yul\":5564:5655   */\n  tag_30\n  jump\t// in\ntag_108:\n    /* \"#utility.yul\":5558:5562   */\n  dup3\n    /* \"#utility.yul\":5551:5656   */\n  sstore\n    /* \"#utility.yul\":5469:5662   */\n  pop\n    /* \"#utility.yul\":5393:5662   */\n  pop\n  pop\n  pop\n  jump\t// out\n    /* \"#utility.yul\":5668:5741   */\ntag_35:\n    /* \"#utility.yul\":5713:5716   */\n  0x00\n    /* \"#utility.yul\":5668:5741   */\n  swap1\n  jump\t// out\n    /* \"#utility.yul\":5747:5936   */\ntag_36:\n    /* \"#utility.yul\":5824:5856   */\n  tag_112\n  tag_35\n  jump\t// in\ntag_112:\n    /* \"#utility.yul\":5865:5930   */\n  tag_113\n    /* \"#utility.yul\":5923:5929   */\n  dup2\n    /* \"#utility.yul\":5915:5921   */\n  dup5\n    /* \"#utility.yul\":5909:5913   */\n  dup5\n    /* \"#utility.yul\":5865:5930   */\n  tag_34\n  jump\t// in\ntag_113:\n    /* \"#utility.yul\":5800:5936   */\n  pop\n    /* \"#utility.yul\":5747:5936   */\n  pop\n  pop\n  jump\t// out\n    /* \"#utility.yul\":5942:6128   */\ntag_37:\n    /* \"#utility.yul\":6002:6122   */\ntag_115:\n    /* \"#utility.yul\":6019:6022   */\n  dup2\n    /* \"#utility.yul\":6012:6017   */\n  dup2\n    /* \"#utility.yul\":6009:6023   */\n  lt\n    /* \"#utility.yul\":6002:6122   */\n  iszero\n  tag_117\n  jumpi\n    /* \"#utility.yul\":6073:6112   */\n  tag_118\n    /* \"#utility.yul\":6110:6111   */\n  0x00\n    /* \"#utility.yul\":6103:6108   */\n  dup3\n    /* \"#utility.yul\":6073:6112   */\n  tag_36\n  jump\t// in\ntag_118:\n    /* \"#utility.yul\":6046:6047   */\n  0x01\n    /* \"#utility.yul\":6039:6044   */\n  dup2\n    /* \"#utility.yul\":6035:6048   */\n  add\n    /* \"#utility.yul\":6026:6048   */\n  swap1\n  pop\n    /* \"#utility.yul\":6002:6122   */\n  jump(tag_115)\ntag_117:\n    /* \"#utility.yul\":5942:6128   */\n  pop\n  pop\n  jump\t// out\n    /* \"#utility.yul\":6134:6677   */\ntag_38:\n    /* \"#utility.yul\":6235:6237   */\n  0x1f\n    /* \"#utility.yul\":6230:6233   */\n  dup3\n    /* \"#utility.yul\":6227:6238   */\n  gt\n    /* \"#utility.yul\":6224:6670   */\n  iszero\n  tag_120\n  jumpi\n    /* \"#utility.yul\":6269:6307   */\n  tag_121\n    /* \"#utility.yul\":6301:6306   */\n  dup2\n    /* \"#utility.yul\":6269:6307   */\n  tag_27\n  jump\t// in\ntag_121:\n    /* \"#utility.yul\":6353:6382   */\n  tag_122\n    /* \"#utility.yul\":6371:6381   */\n  dup5\n    /* \"#utility.yul\":6353:6382   */\n  tag_28\n  jump\t// in\ntag_122:\n    /* \"#utility.yul\":6343:6351   */\n  dup2\n    /* \"#utility.yul\":6339:6383   */\n  add\n    /* \"#utility.yul\":6536:6538   */\n  0x20\n    /* \"#utility.yul\":6524:6534   */\n  dup6\n    /* \"#utility.yul\":6521:6539   */\n  lt\n    /* \"#utility.yul\":6518:6567   */\n  iszero\n  tag_123\n  jumpi\n    /* \"#utility.yul\":6557:6565   */\n  dup2\n    /* \"#utility.yul\":6542:6565   */\n  swap1\n  pop\n    /* \"#utility.yul\":6518:6567   */\ntag_123:\n    /* \"#utility.yul\":6580:6660   */\n  tag_124\n    /* \"#utility.yul\":6636:6658   */\n  tag_125\n    /* \"#utility.yul\":6654:6657   */\n  dup6\n    /* \"#utility.yul\":6636:6658   */\n  tag_28\n  jump\t// in\ntag_125:\n    /* \"#utility.yul\":6626:6634   */\n  dup4\n    /* \"#utility.yul\":6622:6659   */\n  add\n    /* \"#utility.yul\":6609:6620   */\n  dup3\n    /* \"#utility.yul\":6580:6660   */\n  tag_37\n  jump\t// in\ntag_124:\n    /* \"#utility.yul\":6239:6670   */\n  pop\n  pop\n    /* \"#utility.yul\":6224:6670   */\ntag_120:\n    /* \"#utility.yul\":6134:6677   */\n  pop\n  pop\n  pop\n  jump\t// out\n    /* \"#utility.yul\":6683:6800   */\ntag_39:\n    /* \"#utility.yul\":6737:6745   */\n  0x00\n    /* \"#utility.yul\":6787:6792   */\n  dup3\n    /* \"#utility.yul\":6781:6785   */\n  dup3\n    /* \"#utility.yul\":6777:6793   */\n  shr\n    /* \"#utility.yul\":6756:6793   */\n  swap1\n  pop\n    /* \"#utility.yul\":6683:6800   */\n  swap3\n  swap2\n  pop\n  pop\n  jump\t// out\n    /* \"#utility.yul\":6806:6975   */\ntag_40:\n    /* \"#utility.yul\":6850:6856   */\n  0x00\n    /* \"#utility.yul\":6883:6934   */\n  tag_128\n    /* \"#utility.yul\":6931:6932   */\n  0x00\n    /* \"#utility.yul\":6927:6933   */\n  not\n    /* \"#utility.yul\":6919:6924   */\n  dup5\n    /* \"#utility.yul\":6916:6917   */\n  0x08\n    /* \"#utility.yul\":6912:6925   */\n  mul\n    /* \"#utility.yul\":6883:6934   */\n  tag_39\n  jump\t// in\ntag_128:\n    /* \"#utility.yul\":6879:6935   */\n  not\n    /* \"#utility.yul\":6964:6968   */\n  dup1\n    /* \"#utility.yul\":6958:6962   */\n  dup4\n    /* \"#utility.yul\":6954:6969   */\n  and\n    /* \"#utility.yul\":6944:6969   */\n  swap2\n  pop\n    /* \"#utility.yul\":6857:6975   */\n  pop\n    /* \"#utility.yul\":6806:6975   */\n  swap3\n  swap2\n  pop\n  pop\n  jump\t// out\n    /* \"#utility.yul\":6980:7275   */\ntag_41:\n    /* \"#utility.yul\":7056:7060   */\n  0x00\n    /* \"#utility.yul\":7202:7231   */\n  tag_130\n    /* \"#utility.yul\":7227:7230   */\n  dup4\n    /* \"#utility.yul\":7221:7225   */\n  dup4\n    /* \"#utility.yul\":7202:7231   */\n  tag_40\n  jump\t// in\ntag_130:\n    /* \"#utility.yul\":7194:7231   */\n  swap2\n  pop\n    /* \"#utility.yul\":7264:7267   */\n  dup3\n    /* \"#utility.yul\":7261:7262   */\n  0x02\n    /* \"#utility.yul\":7257:7268   */\n  mul\n    /* \"#utility.yul\":7251:7255   */\n  dup3\n    /* \"#utility.yul\":7248:7269   */\n  or\n    /* \"#utility.yul\":7240:7269   */\n  swap1\n  pop\n    /* \"#utility.yul\":6980:7275   */\n  swap3\n  swap2\n  pop\n  pop\n  jump\t// out\n    /* \"#utility.yul\":7280:8675   */\ntag_6:\n    /* \"#utility.yul\":7397:7434   */\n  tag_132\n    /* \"#utility.yul\":7430:7433   */\n  dup3\n    /* \"#utility.yul\":7397:7434   */\n  tag_24\n  jump\t// in\ntag_132:\n    /* \"#utility.yul\":7499:7517   */\n  0xffffffffffffffff\n    /* \"#utility.yul\":7491:7497   */\n  dup2\n    /* \"#utility.yul\":7488:7518   */\n  gt\n    /* \"#utility.yul\":7485:7541   */\n  iszero\n  tag_133\n  jumpi\n    /* \"#utility.yul\":7521:7539   */\n  tag_134\n  tag_17\n  jump\t// in\ntag_134:\n    /* \"#utility.yul\":7485:7541   */\ntag_133:\n    /* \"#utility.yul\":7565:7603   */\n  tag_135\n    /* \"#utility.yul\":7597:7601   */\n  dup3\n    /* \"#utility.yul\":7591:7602   */\n  sload\n    /* \"#utility.yul\":7565:7603   */\n  tag_26\n  jump\t// in\ntag_135:\n    /* \"#utility.yul\":7650:7717   */\n  tag_136\n    /* \"#utility.yul\":7710:7716   */\n  dup3\n    /* \"#utility.yul\":7702:7708   */\n  dup3\n    /* \"#utility.yul\":7696:7700   */\n  dup6\n    /* \"#utility.yul\":7650:7717   */\n  tag_38\n  jump\t// in\ntag_136:\n    /* \"#utility.yul\":7744:7745   */\n  0x00\n    /* \"#utility.yul\":7768:7772   */\n  0x20\n    /* \"#utility.yul\":7755:7772   */\n  swap1\n  pop\n    /* \"#utility.yul\":7800:7802   */\n  0x1f\n    /* \"#utility.yul\":7792:7798   */\n  dup4\n    /* \"#utility.yul\":7789:7803   */\n  gt\n    /* \"#utility.yul\":7817:7818   */\n  0x01\n    /* \"#utility.yul\":7812:8430   */\n  dup2\n  eq\n  tag_138\n  jumpi\n    /* \"#utility.yul\":8474:8475   */\n  0x00\n    /* \"#utility.yul\":8491:8497   */\n  dup5\n    /* \"#utility.yul\":8488:8565   */\n  iszero\n  tag_139\n  jumpi\n    /* \"#utility.yul\":8540:8549   */\n  dup3\n    /* \"#utility.yul\":8535:8538   */\n  dup8\n    /* \"#utility.yul\":8531:8550   */\n  add\n    /* \"#utility.yul\":8525:8551   */\n  mload\n    /* \"#utility.yul\":8516:8551   */\n  swap1\n  pop\n    /* \"#utility.yul\":8488:8565   */\ntag_139:\n    /* \"#utility.yul\":8591:8658   */\n  tag_140\n    /* \"#utility.yul\":8651:8657   */\n  dup6\n    /* \"#utility.yul\":8644:8649   */\n  dup3\n    /* \"#utility.yul\":8591:8658   */\n  tag_41\n  jump\t// in\ntag_140:\n    /* \"#utility.yul\":8585:8589   */\n  dup7\n    /* \"#utility.yul\":8578:8659   */\n  sstore\n    /* \"#utility.yul\":8447:8669   */\n  pop\n    /* \"#utility.yul\":7782:8669   */\n  jump(tag_137)\n    /* \"#utility.yul\":7812:8430   */\ntag_138:\n    /* \"#utility.yul\":7864:7868   */\n  0x1f\n    /* \"#utility.yul\":7860:7869   */\n  not\n    /* \"#utility.yul\":7852:7858   */\n  dup5\n    /* \"#utility.yul\":7848:7870   */\n  and\n    /* \"#utility.yul\":7898:7935   */\n  tag_141\n    /* \"#utility.yul\":7930:7934   */\n  dup7\n    /* \"#utility.yul\":7898:7935   */\n  tag_27\n  jump\t// in\ntag_141:\n    /* \"#utility.yul\":7957:7958   */\n  0x00\n    /* \"#utility.yul\":7971:8179   */\ntag_142:\n    /* \"#utility.yul\":7985:7992   */\n  dup3\n    /* \"#utility.yul\":7982:7983   */\n  dup2\n    /* \"#utility.yul\":7979:7993   */\n  lt\n    /* \"#utility.yul\":7971:8179   */\n  iszero\n  tag_144\n  jumpi\n    /* \"#utility.yul\":8064:8073   */\n  dup5\n    /* \"#utility.yul\":8059:8062   */\n  dup10\n    /* \"#utility.yul\":8055:8074   */\n  add\n    /* \"#utility.yul\":8049:8075   */\n  mload\n    /* \"#utility.yul\":8041:8047   */\n  dup3\n    /* \"#utility.yul\":8034:8076   */\n  sstore\n    /* \"#utility.yul\":8115:8116   */\n  0x01\n    /* \"#utility.yul\":8107:8113   */\n  dup3\n    /* \"#utility.yul\":8103:8117   */\n  add\n    /* \"#utility.yul\":8093:8117   */\n  swap2\n  pop\n    /* \"#utility.yul\":8162:8164   */\n  0x20\n    /* \"#utility.yul\":8151:8160   */\n  dup6\n    /* \"#utility.yul\":8147:8165   */\n  add\n    /* \"#utility.yul\":8134:8165   */\n  swap5\n  pop\n    /* \"#utility.yul\":8008:8012   */\n  0x20\n    /* \"#utility.yul\":8005:8006   */\n  dup2\n    /* \"#utility.yul\":8001:8013   */\n  add\n    /* \"#utility.yul\":7996:8013   */\n  swap1\n  pop\n    /* \"#utility.yul\":7971:8179   */\n  jump(tag_142)\ntag_144:\n    /* \"#utility.yul\":8207:8213   */\n  dup7\n    /* \"#utility.yul\":8198:8205   */\n  dup4\n    /* \"#utility.yul\":8195:8214   */\n  lt\n    /* \"#utility.yul\":8192:8371   */\n  iszero\n  tag_145\n  jumpi\n    /* \"#utility.yul\":8265:8274   */\n  dup5\n    /* \"#utility.yul\":8260:8263   */\n  dup10\n    /* \"#utility.yul\":8256:8275   */\n  add\n    /* \"#utility.yul\":8250:8276   */\n  mload\n    /* \"#utility.yul\":8308:8356   */\n  tag_146\n    /* \"#utility.yul\":8350:8354   */\n  0x1f\n    /* \"#utility.yul\":8342:8348   */\n  dup10\n    /* \"#utility.yul\":8338:8355   */\n  and\n    /* \"#utility.yul\":8327:8336   */\n  dup3\n    /* \"#utility.yul\":8308:8356   */\n  tag_40\n  jump\t// in\ntag_146:\n    /* \"#utility.yul\":8300:8306   */\n  dup4\n    /* \"#utility.yul\":8293:8357   */\n  sstore\n    /* \"#utility.yul\":8215:8371   */\n  pop\n    /* \"#utility.yul\":8192:8371   */\ntag_145:\n    /* \"#utility.yul\":8417:8418   */\n  0x01\n    /* \"#utility.yul\":8413:8414   */\n  0x02\n    /* \"#utility.yul\":8405:8411   */\n  dup9\n    /* \"#utility.yul\":8401:8415   */\n  mul\n    /* \"#utility.yul\":8397:8419   */\n  add\n    /* \"#utility.yul\":8391:8395   */\n  dup9\n    /* \"#utility.yul\":8384:8420   */\n  sstore\n    /* \"#utility.yul\":7819:8430   */\n  pop\n  pop\n  pop\n    /* \"#utility.yul\":7782:8669   */\ntag_137:\n  pop\n    /* \"#utility.yul\":7372:8675   */\n  pop\n  pop\n  pop\n    /* \"#utility.yul\":7280:8675   */\n  pop\n  pop\n  jump\t// out\n    /* \"Nik_MD_project3.sol\":64:527  contract StringRecord {... */\ntag_7:\n  dataSize(sub_0)\n  dup1\n  dataOffset(sub_0)\n  0x00\n  codecopy\n  0x00\n  return\nstop\n\nsub_0: assembly {\n        /* \"Nik_MD_project3.sol\":64:527  contract StringRecord {... */\n      mstore(0x40, 0x80)\n      callvalue\n      dup1\n      iszero\n      tag_1\n      jumpi\n      0x00\n      dup1\n      revert\n    tag_1:\n      pop\n      jumpi(tag_2, lt(calldatasize, 0x04))\n      shr(0xe0, calldataload(0x00))\n      dup1\n      0x0781f5c9\n      eq\n      tag_3\n      jumpi\n      dup1\n      0x1dcd69ec\n      eq\n      tag_4\n      jumpi\n      dup1\n      0x266cf109\n      eq\n      tag_5\n      jumpi\n      dup1\n      0x3e0a0099\n      eq\n      tag_6\n      jumpi\n    tag_2:\n      0x00\n      dup1\n      revert\n        /* \"Nik_MD_project3.sol\":306:431  function getRecordType () public pure virtual returns(string memory typeContr) {... */\n    tag_3:\n      tag_7\n      tag_8\n      jump\t// in\n    tag_7:\n      mload(0x40)\n      tag_9\n      swap2\n      swap1\n      tag_10\n      jump\t// in\n    tag_9:\n      mload(0x40)\n      dup1\n      swap2\n      sub\n      swap1\n      return\n        /* \"Nik_MD_project3.sol\":93:119  uint public timeOfCreation */\n    tag_4:\n      tag_11\n      tag_12\n      jump\t// in\n    tag_11:\n      mload(0x40)\n      tag_13\n      swap2\n      swap1\n      tag_14\n      jump\t// in\n    tag_13:\n      mload(0x40)\n      dup1\n      swap2\n      sub\n      swap1\n      return\n        /* \"Nik_MD_project3.sol\":126:146  string public record */\n    tag_5:\n      tag_15\n      tag_16\n      jump\t// in\n    tag_15:\n      mload(0x40)\n      tag_17\n      swap2\n      swap1\n      tag_10\n      jump\t// in\n    tag_17:\n      mload(0x40)\n      dup1\n      swap2\n      sub\n      swap1\n      return\n        /* \"Nik_MD_project3.sol\":439:524  function setRecord(string memory _record) public  {... */\n    tag_6:\n      tag_18\n      0x04\n      dup1\n      calldatasize\n      sub\n      dup2\n      add\n      swap1\n      tag_19\n      swap2\n      swap1\n      tag_20\n      jump\t// in\n    tag_19:\n      tag_21\n      jump\t// in\n    tag_18:\n      stop\n        /* \"Nik_MD_project3.sol\":306:431  function getRecordType () public pure virtual returns(string memory typeContr) {... */\n    tag_8:\n        /* \"Nik_MD_project3.sol\":360:383  string memory typeContr */\n      0x60\n        /* \"Nik_MD_project3.sol\":403:423  typeContr = \"string\" */\n      mload(0x40)\n      dup1\n      0x40\n      add\n      0x40\n      mstore\n      dup1\n      0x06\n      dup2\n      mstore\n      0x20\n      add\n      0x737472696e670000000000000000000000000000000000000000000000000000\n      dup2\n      mstore\n      pop\n      swap1\n      pop\n        /* \"Nik_MD_project3.sol\":306:431  function getRecordType () public pure virtual returns(string memory typeContr) {... */\n      swap1\n      jump\t// out\n        /* \"Nik_MD_project3.sol\":93:119  uint public timeOfCreation */\n    tag_12:\n      sload(0x00)\n      dup2\n      jump\t// out\n        /* \"Nik_MD_project3.sol\":126:146  string public record */\n    tag_16:\n      0x01\n      dup1\n      sload\n      tag_23\n      swap1\n      tag_24\n      jump\t// in\n    tag_23:\n      dup1\n      0x1f\n      add\n      0x20\n      dup1\n      swap2\n      div\n      mul\n      0x20\n      add\n      mload(0x40)\n      swap1\n      dup2\n      add\n      0x40\n      mstore\n      dup1\n      swap3\n      swap2\n      swap1\n      dup2\n      dup2\n      mstore\n      0x20\n      add\n      dup3\n      dup1\n      sload\n      tag_25\n      swap1\n      tag_24\n      jump\t// in\n    tag_25:\n      dup1\n      iszero\n      tag_26\n      jumpi\n      dup1\n      0x1f\n      lt\n      tag_27\n      jumpi\n      0x0100\n      dup1\n      dup4\n      sload\n      div\n      mul\n      dup4\n      mstore\n      swap2\n      0x20\n      add\n      swap2\n      jump(tag_26)\n    tag_27:\n      dup3\n      add\n      swap2\n      swap1\n      0x00\n      mstore\n      keccak256(0x00, 0x20)\n      swap1\n    tag_28:\n      dup2\n      sload\n      dup2\n      mstore\n      swap1\n      0x01\n      add\n      swap1\n      0x20\n      add\n      dup1\n      dup4\n      gt\n      tag_28\n      jumpi\n      dup3\n      swap1\n      sub\n      0x1f\n      and\n      dup3\n      add\n      swap2\n    tag_26:\n      pop\n      pop\n      pop\n      pop\n      pop\n      dup2\n      jump\t// out\n        /* \"Nik_MD_project3.sol\":439:524  function setRecord(string memory _record) public  {... */\n    tag_21:\n        /* \"Nik_MD_project3.sol\":509:516  _record */\n      dup1\n        /* \"Nik_MD_project3.sol\":500:506  record */\n      0x01\n        /* \"Nik_MD_project3.sol\":500:516  record = _record */\n      swap1\n      dup2\n      tag_30\n      swap2\n      swap1\n      tag_31\n      jump\t// in\n    tag_30:\n      pop\n        /* \"Nik_MD_project3.sol\":439:524  function setRecord(string memory _record) public  {... */\n      pop\n      jump\t// out\n        /* \"#utility.yul\":7:106   */\n    tag_32:\n        /* \"#utility.yul\":59:65   */\n      0x00\n        /* \"#utility.yul\":93:98   */\n      dup2\n        /* \"#utility.yul\":87:99   */\n      mload\n        /* \"#utility.yul\":77:99   */\n      swap1\n      pop\n        /* \"#utility.yul\":7:106   */\n      swap2\n      swap1\n      pop\n      jump\t// out\n        /* \"#utility.yul\":112:281   */\n    tag_33:\n        /* \"#utility.yul\":196:207   */\n      0x00\n        /* \"#utility.yul\":230:236   */\n      dup3\n        /* \"#utility.yul\":225:228   */\n      dup3\n        /* \"#utility.yul\":218:237   */\n      mstore\n        /* \"#utility.yul\":270:274   */\n      0x20\n        /* \"#utility.yul\":265:268   */\n      dup3\n        /* \"#utility.yul\":261:275   */\n      add\n        /* \"#utility.yul\":246:275   */\n      swap1\n      pop\n        /* \"#utility.yul\":112:281   */\n      swap3\n      swap2\n      pop\n      pop\n      jump\t// out\n        /* \"#utility.yul\":287:533   */\n    tag_34:\n        /* \"#utility.yul\":368:369   */\n      0x00\n        /* \"#utility.yul\":378:491   */\n    tag_71:\n        /* \"#utility.yul\":392:398   */\n      dup4\n        /* \"#utility.yul\":389:390   */\n      dup2\n        /* \"#utility.yul\":386:399   */\n      lt\n        /* \"#utility.yul\":378:491   */\n      iszero\n      tag_73\n      jumpi\n        /* \"#utility.yul\":477:478   */\n      dup1\n        /* \"#utility.yul\":472:475   */\n      dup3\n        /* \"#utility.yul\":468:479   */\n      add\n        /* \"#utility.yul\":462:480   */\n      mload\n        /* \"#utility.yul\":458:459   */\n      dup2\n        /* \"#utility.yul\":453:456   */\n      dup5\n        /* \"#utility.yul\":449:460   */\n      add\n        /* \"#utility.yul\":442:481   */\n      mstore\n        /* \"#utility.yul\":414:416   */\n      0x20\n        /* \"#utility.yul\":411:412   */\n      dup2\n        /* \"#utility.yul\":407:417   */\n      add\n        /* \"#utility.yul\":402:417   */\n      swap1\n      pop\n        /* \"#utility.yul\":378:491   */\n      jump(tag_71)\n    tag_73:\n        /* \"#utility.yul\":525:526   */\n      0x00\n        /* \"#utility.yul\":516:522   */\n      dup5\n        /* \"#utility.yul\":511:514   */\n      dup5\n        /* \"#utility.yul\":507:523   */\n      add\n        /* \"#utility.yul\":500:527   */\n      mstore\n        /* \"#utility.yul\":349:533   */\n      pop\n        /* \"#utility.yul\":287:533   */\n      pop\n      pop\n      pop\n      jump\t// out\n        /* \"#utility.yul\":539:641   */\n    tag_35:\n        /* \"#utility.yul\":580:586   */\n      0x00\n        /* \"#utility.yul\":631:633   */\n      0x1f\n        /* \"#utility.yul\":627:634   */\n      not\n        /* \"#utility.yul\":622:624   */\n      0x1f\n        /* \"#utility.yul\":615:620   */\n      dup4\n        /* \"#utility.yul\":611:625   */\n      add\n        /* \"#utility.yul\":607:635   */\n      and\n        /* \"#utility.yul\":597:635   */\n      swap1\n      pop\n        /* \"#utility.yul\":539:641   */\n      swap2\n      swap1\n      pop\n      jump\t// out\n        /* \"#utility.yul\":647:1024   */\n    tag_36:\n        /* \"#utility.yul\":735:738   */\n      0x00\n        /* \"#utility.yul\":763:802   */\n      tag_76\n        /* \"#utility.yul\":796:801   */\n      dup3\n        /* \"#utility.yul\":763:802   */\n      tag_32\n      jump\t// in\n    tag_76:\n        /* \"#utility.yul\":818:889   */\n      tag_77\n        /* \"#utility.yul\":882:888   */\n      dup2\n        /* \"#utility.yul\":877:880   */\n      dup6\n        /* \"#utility.yul\":818:889   */\n      tag_33\n      jump\t// in\n    tag_77:\n        /* \"#utility.yul\":811:889   */\n      swap4\n      pop\n        /* \"#utility.yul\":898:963   */\n      tag_78\n        /* \"#utility.yul\":956:962   */\n      dup2\n        /* \"#utility.yul\":951:954   */\n      dup6\n        /* \"#utility.yul\":944:948   */\n      0x20\n        /* \"#utility.yul\":937:942   */\n      dup7\n        /* \"#utility.yul\":933:949   */\n      add\n        /* \"#utility.yul\":898:963   */\n      tag_34\n      jump\t// in\n    tag_78:\n        /* \"#utility.yul\":988:1017   */\n      tag_79\n        /* \"#utility.yul\":1010:1016   */\n      dup2\n        /* \"#utility.yul\":988:1017   */\n      tag_35\n      jump\t// in\n    tag_79:\n        /* \"#utility.yul\":983:986   */\n      dup5\n        /* \"#utility.yul\":979:1018   */\n      add\n        /* \"#utility.yul\":972:1018   */\n      swap2\n      pop\n        /* \"#utility.yul\":739:1024   */\n      pop\n        /* \"#utility.yul\":647:1024   */\n      swap3\n      swap2\n      pop\n      pop\n      jump\t// out\n        /* \"#utility.yul\":1030:1343   */\n    tag_10:\n        /* \"#utility.yul\":1143:1147   */\n      0x00\n        /* \"#utility.yul\":1181:1183   */\n      0x20\n        /* \"#utility.yul\":1170:1179   */\n      dup3\n        /* \"#utility.yul\":1166:1184   */\n      add\n        /* \"#utility.yul\":1158:1184   */\n      swap1\n      pop\n        /* \"#utility.yul\":1230:1239   */\n      dup2\n        /* \"#utility.yul\":1224:1228   */\n      dup2\n        /* \"#utility.yul\":1220:1240   */\n      sub\n        /* \"#utility.yul\":1216:1217   */\n      0x00\n        /* \"#utility.yul\":1205:1214   */\n      dup4\n        /* \"#utility.yul\":1201:1218   */\n      add\n        /* \"#utility.yul\":1194:1241   */\n      mstore\n        /* \"#utility.yul\":1258:1336   */\n      tag_81\n        /* \"#utility.yul\":1331:1335   */\n      dup2\n        /* \"#utility.yul\":1322:1328   */\n      dup5\n        /* \"#utility.yul\":1258:1336   */\n      tag_36\n      jump\t// in\n    tag_81:\n        /* \"#utility.yul\":1250:1336   */\n      swap1\n      pop\n        /* \"#utility.yul\":1030:1343   */\n      swap3\n      swap2\n      pop\n      pop\n      jump\t// out\n        /* \"#utility.yul\":1349:1426   */\n    tag_37:\n        /* \"#utility.yul\":1386:1393   */\n      0x00\n        /* \"#utility.yul\":1415:1420   */\n      dup2\n        /* \"#utility.yul\":1404:1420   */\n      swap1\n      pop\n        /* \"#utility.yul\":1349:1426   */\n      swap2\n      swap1\n      pop\n      jump\t// out\n        /* \"#utility.yul\":1432:1550   */\n    tag_38:\n        /* \"#utility.yul\":1519:1543   */\n      tag_84\n        /* \"#utility.yul\":1537:1542   */\n      dup2\n        /* \"#utility.yul\":1519:1543   */\n      tag_37\n      jump\t// in\n    tag_84:\n        /* \"#utility.yul\":1514:1517   */\n      dup3\n        /* \"#utility.yul\":1507:1544   */\n      mstore\n        /* \"#utility.yul\":1432:1550   */\n      pop\n      pop\n      jump\t// out\n        /* \"#utility.yul\":1556:1778   */\n    tag_14:\n        /* \"#utility.yul\":1649:1653   */\n      0x00\n        /* \"#utility.yul\":1687:1689   */\n      0x20\n        /* \"#utility.yul\":1676:1685   */\n      dup3\n        /* \"#utility.yul\":1672:1690   */\n      add\n        /* \"#utility.yul\":1664:1690   */\n      swap1\n      pop\n        /* \"#utility.yul\":1700:1771   */\n      tag_86\n        /* \"#utility.yul\":1768:1769   */\n      0x00\n        /* \"#utility.yul\":1757:1766   */\n      dup4\n        /* \"#utility.yul\":1753:1770   */\n      add\n        /* \"#utility.yul\":1744:1750   */\n      dup5\n        /* \"#utility.yul\":1700:1771   */\n      tag_38\n      jump\t// in\n    tag_86:\n        /* \"#utility.yul\":1556:1778   */\n      swap3\n      swap2\n      pop\n      pop\n      jump\t// out\n        /* \"#utility.yul\":1784:1859   */\n    tag_39:\n        /* \"#utility.yul\":1817:1823   */\n      0x00\n        /* \"#utility.yul\":1850:1852   */\n      0x40\n        /* \"#utility.yul\":1844:1853   */\n      mload\n        /* \"#utility.yul\":1834:1853   */\n      swap1\n      pop\n        /* \"#utility.yul\":1784:1859   */\n      swap1\n      jump\t// out\n        /* \"#utility.yul\":1865:1982   */\n    tag_40:\n        /* \"#utility.yul\":1974:1975   */\n      0x00\n        /* \"#utility.yul\":1971:1972   */\n      dup1\n        /* \"#utility.yul\":1964:1976   */\n      revert\n        /* \"#utility.yul\":1988:2105   */\n    tag_41:\n        /* \"#utility.yul\":2097:2098   */\n      0x00\n        /* \"#utility.yul\":2094:2095   */\n      dup1\n        /* \"#utility.yul\":2087:2099   */\n      revert\n        /* \"#utility.yul\":2111:2228   */\n    tag_42:\n        /* \"#utility.yul\":2220:2221   */\n      0x00\n        /* \"#utility.yul\":2217:2218   */\n      dup1\n        /* \"#utility.yul\":2210:2222   */\n      revert\n        /* \"#utility.yul\":2234:2351   */\n    tag_43:\n        /* \"#utility.yul\":2343:2344   */\n      0x00\n        /* \"#utility.yul\":2340:2341   */\n      dup1\n        /* \"#utility.yul\":2333:2345   */\n      revert\n        /* \"#utility.yul\":2357:2537   */\n    tag_44:\n        /* \"#utility.yul\":2405:2482   */\n      0x4e487b7100000000000000000000000000000000000000000000000000000000\n        /* \"#utility.yul\":2402:2403   */\n      0x00\n        /* \"#utility.yul\":2395:2483   */\n      mstore\n        /* \"#utility.yul\":2502:2506   */\n      0x41\n        /* \"#utility.yul\":2499:2500   */\n      0x04\n        /* \"#utility.yul\":2492:2507   */\n      mstore\n        /* \"#utility.yul\":2526:2530   */\n      0x24\n        /* \"#utility.yul\":2523:2524   */\n      0x00\n        /* \"#utility.yul\":2516:2531   */\n      revert\n        /* \"#utility.yul\":2543:2824   */\n    tag_45:\n        /* \"#utility.yul\":2626:2653   */\n      tag_94\n        /* \"#utility.yul\":2648:2652   */\n      dup3\n        /* \"#utility.yul\":2626:2653   */\n      tag_35\n      jump\t// in\n    tag_94:\n        /* \"#utility.yul\":2618:2624   */\n      dup2\n        /* \"#utility.yul\":2614:2654   */\n      add\n        /* \"#utility.yul\":2756:2762   */\n      dup2\n        /* \"#utility.yul\":2744:2754   */\n      dup2\n        /* \"#utility.yul\":2741:2763   */\n      lt\n        /* \"#utility.yul\":2720:2738   */\n      0xffffffffffffffff\n        /* \"#utility.yul\":2708:2718   */\n      dup3\n        /* \"#utility.yul\":2705:2739   */\n      gt\n        /* \"#utility.yul\":2702:2764   */\n      or\n        /* \"#utility.yul\":2699:2787   */\n      iszero\n      tag_95\n      jumpi\n        /* \"#utility.yul\":2767:2785   */\n      tag_96\n      tag_44\n      jump\t// in\n    tag_96:\n        /* \"#utility.yul\":2699:2787   */\n    tag_95:\n        /* \"#utility.yul\":2807:2817   */\n      dup1\n        /* \"#utility.yul\":2803:2805   */\n      0x40\n        /* \"#utility.yul\":2796:2818   */\n      mstore\n        /* \"#utility.yul\":2586:2824   */\n      pop\n        /* \"#utility.yul\":2543:2824   */\n      pop\n      pop\n      jump\t// out\n        /* \"#utility.yul\":2830:2959   */\n    tag_46:\n        /* \"#utility.yul\":2864:2870   */\n      0x00\n        /* \"#utility.yul\":2891:2911   */\n      tag_98\n      tag_39\n      jump\t// in\n    tag_98:\n        /* \"#utility.yul\":2881:2911   */\n      swap1\n      pop\n        /* \"#utility.yul\":2920:2953   */\n      tag_99\n        /* \"#utility.yul\":2948:2952   */\n      dup3\n        /* \"#utility.yul\":2940:2946   */\n      dup3\n        /* \"#utility.yul\":2920:2953   */\n      tag_45\n      jump\t// in\n    tag_99:\n        /* \"#utility.yul\":2830:2959   */\n      swap2\n      swap1\n      pop\n      jump\t// out\n        /* \"#utility.yul\":2965:3273   */\n    tag_47:\n        /* \"#utility.yul\":3027:3031   */\n      0x00\n        /* \"#utility.yul\":3117:3135   */\n      0xffffffffffffffff\n        /* \"#utility.yul\":3109:3115   */\n      dup3\n        /* \"#utility.yul\":3106:3136   */\n      gt\n        /* \"#utility.yul\":3103:3159   */\n      iszero\n      tag_101\n      jumpi\n        /* \"#utility.yul\":3139:3157   */\n      tag_102\n      tag_44\n      jump\t// in\n    tag_102:\n        /* \"#utility.yul\":3103:3159   */\n    tag_101:\n        /* \"#utility.yul\":3177:3206   */\n      tag_103\n        /* \"#utility.yul\":3199:3205   */\n      dup3\n        /* \"#utility.yul\":3177:3206   */\n      tag_35\n      jump\t// in\n    tag_103:\n        /* \"#utility.yul\":3169:3206   */\n      swap1\n      pop\n        /* \"#utility.yul\":3261:3265   */\n      0x20\n        /* \"#utility.yul\":3255:3259   */\n      dup2\n        /* \"#utility.yul\":3251:3266   */\n      add\n        /* \"#utility.yul\":3243:3266   */\n      swap1\n      pop\n        /* \"#utility.yul\":2965:3273   */\n      swap2\n      swap1\n      pop\n      jump\t// out\n        /* \"#utility.yul\":3279:3425   */\n    tag_48:\n        /* \"#utility.yul\":3376:3382   */\n      dup3\n        /* \"#utility.yul\":3371:3374   */\n      dup2\n        /* \"#utility.yul\":3366:3369   */\n      dup4\n        /* \"#utility.yul\":3353:3383   */\n      calldatacopy\n        /* \"#utility.yul\":3417:3418   */\n      0x00\n        /* \"#utility.yul\":3408:3414   */\n      dup4\n        /* \"#utility.yul\":3403:3406   */\n      dup4\n        /* \"#utility.yul\":3399:3415   */\n      add\n        /* \"#utility.yul\":3392:3419   */\n      mstore\n        /* \"#utility.yul\":3279:3425   */\n      pop\n      pop\n      pop\n      jump\t// out\n        /* \"#utility.yul\":3431:3856   */\n    tag_49:\n        /* \"#utility.yul\":3509:3514   */\n      0x00\n        /* \"#utility.yul\":3534:3600   */\n      tag_106\n        /* \"#utility.yul\":3550:3599   */\n      tag_107\n        /* \"#utility.yul\":3592:3598   */\n      dup5\n        /* \"#utility.yul\":3550:3599   */\n      tag_47\n      jump\t// in\n    tag_107:\n        /* \"#utility.yul\":3534:3600   */\n      tag_46\n      jump\t// in\n    tag_106:\n        /* \"#utility.yul\":3525:3600   */\n      swap1\n      pop\n        /* \"#utility.yul\":3623:3629   */\n      dup3\n        /* \"#utility.yul\":3616:3621   */\n      dup2\n        /* \"#utility.yul\":3609:3630   */\n      mstore\n        /* \"#utility.yul\":3661:3665   */\n      0x20\n        /* \"#utility.yul\":3654:3659   */\n      dup2\n        /* \"#utility.yul\":3650:3666   */\n      add\n        /* \"#utility.yul\":3699:3702   */\n      dup5\n        /* \"#utility.yul\":3690:3696   */\n      dup5\n        /* \"#utility.yul\":3685:3688   */\n      dup5\n        /* \"#utility.yul\":3681:3697   */\n      add\n        /* \"#utility.yul\":3678:3703   */\n      gt\n        /* \"#utility.yul\":3675:3787   */\n      iszero\n      tag_108\n      jumpi\n        /* \"#utility.yul\":3706:3785   */\n      tag_109\n      tag_43\n      jump\t// in\n    tag_109:\n        /* \"#utility.yul\":3675:3787   */\n    tag_108:\n        /* \"#utility.yul\":3796:3850   */\n      tag_110\n        /* \"#utility.yul\":3843:3849   */\n      dup5\n        /* \"#utility.yul\":3838:3841   */\n      dup3\n        /* \"#utility.yul\":3833:3836   */\n      dup6\n        /* \"#utility.yul\":3796:3850   */\n      tag_48\n      jump\t// in\n    tag_110:\n        /* \"#utility.yul\":3515:3856   */\n      pop\n        /* \"#utility.yul\":3431:3856   */\n      swap4\n      swap3\n      pop\n      pop\n      pop\n      jump\t// out\n        /* \"#utility.yul\":3876:4216   */\n    tag_50:\n        /* \"#utility.yul\":3932:3937   */\n      0x00\n        /* \"#utility.yul\":3981:3984   */\n      dup3\n        /* \"#utility.yul\":3974:3978   */\n      0x1f\n        /* \"#utility.yul\":3966:3972   */\n      dup4\n        /* \"#utility.yul\":3962:3979   */\n      add\n        /* \"#utility.yul\":3958:3985   */\n      slt\n        /* \"#utility.yul\":3948:4070   */\n      tag_112\n      jumpi\n        /* \"#utility.yul\":3989:4068   */\n      tag_113\n      tag_42\n      jump\t// in\n    tag_113:\n        /* \"#utility.yul\":3948:4070   */\n    tag_112:\n        /* \"#utility.yul\":4106:4112   */\n      dup2\n        /* \"#utility.yul\":4093:4113   */\n      calldataload\n        /* \"#utility.yul\":4131:4210   */\n      tag_114\n        /* \"#utility.yul\":4206:4209   */\n      dup5\n        /* \"#utility.yul\":4198:4204   */\n      dup3\n        /* \"#utility.yul\":4191:4195   */\n      0x20\n        /* \"#utility.yul\":4183:4189   */\n      dup7\n        /* \"#utility.yul\":4179:4196   */\n      add\n        /* \"#utility.yul\":4131:4210   */\n      tag_49\n      jump\t// in\n    tag_114:\n        /* \"#utility.yul\":4122:4210   */\n      swap2\n      pop\n        /* \"#utility.yul\":3938:4216   */\n      pop\n        /* \"#utility.yul\":3876:4216   */\n      swap3\n      swap2\n      pop\n      pop\n      jump\t// out\n        /* \"#utility.yul\":4222:4731   */\n    tag_20:\n        /* \"#utility.yul\":4291:4297   */\n      0x00\n        /* \"#utility.yul\":4340:4342   */\n      0x20\n        /* \"#utility.yul\":4328:4337   */\n      dup3\n        /* \"#utility.yul\":4319:4326   */\n      dup5\n        /* \"#utility.yul\":4315:4338   */\n      sub\n        /* \"#utility.yul\":4311:4343   */\n      slt\n        /* \"#utility.yul\":4308:4427   */\n      iszero\n      tag_116\n      jumpi\n        /* \"#utility.yul\":4346:4425   */\n      tag_117\n      tag_40\n      jump\t// in\n    tag_117:\n        /* \"#utility.yul\":4308:4427   */\n    tag_116:\n        /* \"#utility.yul\":4494:4495   */\n      0x00\n        /* \"#utility.yul\":4483:4492   */\n      dup3\n        /* \"#utility.yul\":4479:4496   */\n      add\n        /* \"#utility.yul\":4466:4497   */\n      calldataload\n        /* \"#utility.yul\":4524:4542   */\n      0xffffffffffffffff\n        /* \"#utility.yul\":4516:4522   */\n      dup2\n        /* \"#utility.yul\":4513:4543   */\n      gt\n        /* \"#utility.yul\":4510:4627   */\n      iszero\n      tag_118\n      jumpi\n        /* \"#utility.yul\":4546:4625   */\n      tag_119\n      tag_41\n      jump\t// in\n    tag_119:\n        /* \"#utility.yul\":4510:4627   */\n    tag_118:\n        /* \"#utility.yul\":4651:4714   */\n      tag_120\n        /* \"#utility.yul\":4706:4713   */\n      dup5\n        /* \"#utility.yul\":4697:4703   */\n      dup3\n        /* \"#utility.yul\":4686:4695   */\n      dup6\n        /* \"#utility.yul\":4682:4704   */\n      add\n        /* \"#utility.yul\":4651:4714   */\n      tag_50\n      jump\t// in\n    tag_120:\n        /* \"#utility.yul\":4641:4714   */\n      swap2\n      pop\n        /* \"#utility.yul\":4437:4724   */\n      pop\n        /* \"#utility.yul\":4222:4731   */\n      swap3\n      swap2\n      pop\n      pop\n      jump\t// out\n        /* \"#utility.yul\":4737:4917   */\n    tag_51:\n        /* \"#utility.yul\":4785:4862   */\n      0x4e487b7100000000000000000000000000000000000000000000000000000000\n        /* \"#utility.yul\":4782:4783   */\n      0x00\n        /* \"#utility.yul\":4775:4863   */\n      mstore\n        /* \"#utility.yul\":4882:4886   */\n      0x22\n        /* \"#utility.yul\":4879:4880   */\n      0x04\n        /* \"#utility.yul\":4872:4887   */\n      mstore\n        /* \"#utility.yul\":4906:4910   */\n      0x24\n        /* \"#utility.yul\":4903:4904   */\n      0x00\n        /* \"#utility.yul\":4896:4911   */\n      revert\n        /* \"#utility.yul\":4923:5243   */\n    tag_24:\n        /* \"#utility.yul\":4967:4973   */\n      0x00\n        /* \"#utility.yul\":5004:5005   */\n      0x02\n        /* \"#utility.yul\":4998:5002   */\n      dup3\n        /* \"#utility.yul\":4994:5006   */\n      div\n        /* \"#utility.yul\":4984:5006   */\n      swap1\n      pop\n        /* \"#utility.yul\":5051:5052   */\n      0x01\n        /* \"#utility.yul\":5045:5049   */\n      dup3\n        /* \"#utility.yul\":5041:5053   */\n      and\n        /* \"#utility.yul\":5072:5090   */\n      dup1\n        /* \"#utility.yul\":5062:5143   */\n      tag_123\n      jumpi\n        /* \"#utility.yul\":5128:5132   */\n      0x7f\n        /* \"#utility.yul\":5120:5126   */\n      dup3\n        /* \"#utility.yul\":5116:5133   */\n      and\n        /* \"#utility.yul\":5106:5133   */\n      swap2\n      pop\n        /* \"#utility.yul\":5062:5143   */\n    tag_123:\n        /* \"#utility.yul\":5190:5192   */\n      0x20\n        /* \"#utility.yul\":5182:5188   */\n      dup3\n        /* \"#utility.yul\":5179:5193   */\n      lt\n        /* \"#utility.yul\":5159:5177   */\n      dup2\n        /* \"#utility.yul\":5156:5194   */\n      sub\n        /* \"#utility.yul\":5153:5237   */\n      tag_124\n      jumpi\n        /* \"#utility.yul\":5209:5227   */\n      tag_125\n      tag_51\n      jump\t// in\n    tag_125:\n        /* \"#utility.yul\":5153:5237   */\n    tag_124:\n        /* \"#utility.yul\":4974:5243   */\n      pop\n        /* \"#utility.yul\":4923:5243   */\n      swap2\n      swap1\n      pop\n      jump\t// out\n        /* \"#utility.yul\":5249:5390   */\n    tag_52:\n        /* \"#utility.yul\":5298:5302   */\n      0x00\n        /* \"#utility.yul\":5321:5324   */\n      dup2\n        /* \"#utility.yul\":5313:5324   */\n      swap1\n      pop\n        /* \"#utility.yul\":5344:5347   */\n      dup2\n        /* \"#utility.yul\":5341:5342   */\n      0x00\n        /* \"#utility.yul\":5334:5348   */\n      mstore\n        /* \"#utility.yul\":5378:5382   */\n      0x20\n        /* \"#utility.yul\":5375:5376   */\n      0x00\n        /* \"#utility.yul\":5365:5383   */\n      keccak256\n        /* \"#utility.yul\":5357:5383   */\n      swap1\n      pop\n        /* \"#utility.yul\":5249:5390   */\n      swap2\n      swap1\n      pop\n      jump\t// out\n        /* \"#utility.yul\":5396:5489   */\n    tag_53:\n        /* \"#utility.yul\":5433:5439   */\n      0x00\n        /* \"#utility.yul\":5480:5482   */\n      0x20\n        /* \"#utility.yul\":5475:5477   */\n      0x1f\n        /* \"#utility.yul\":5468:5473   */\n      dup4\n        /* \"#utility.yul\":5464:5478   */\n      add\n        /* \"#utility.yul\":5460:5483   */\n      div\n        /* \"#utility.yul\":5450:5483   */\n      swap1\n      pop\n        /* \"#utility.yul\":5396:5489   */\n      swap2\n      swap1\n      pop\n      jump\t// out\n        /* \"#utility.yul\":5495:5602   */\n    tag_54:\n        /* \"#utility.yul\":5539:5547   */\n      0x00\n        /* \"#utility.yul\":5589:5594   */\n      dup3\n        /* \"#utility.yul\":5583:5587   */\n      dup3\n        /* \"#utility.yul\":5579:5595   */\n      shl\n        /* \"#utility.yul\":5558:5595   */\n      swap1\n      pop\n        /* \"#utility.yul\":5495:5602   */\n      swap3\n      swap2\n      pop\n      pop\n      jump\t// out\n        /* \"#utility.yul\":5608:6001   */\n    tag_55:\n        /* \"#utility.yul\":5677:5683   */\n      0x00\n        /* \"#utility.yul\":5727:5728   */\n      0x08\n        /* \"#utility.yul\":5715:5725   */\n      dup4\n        /* \"#utility.yul\":5711:5729   */\n      mul\n        /* \"#utility.yul\":5750:5847   */\n      tag_130\n        /* \"#utility.yul\":5780:5846   */\n      0xffffffffffffffffffffffffffffffffffffffffffffffffffffffffffffffff\n        /* \"#utility.yul\":5769:5778   */\n      dup3\n        /* \"#utility.yul\":5750:5847   */\n      tag_54\n      jump\t// in\n    tag_130:\n        /* \"#utility.yul\":5868:5907   */\n      tag_131\n        /* \"#utility.yul\":5898:5906   */\n      dup7\n        /* \"#utility.yul\":5887:5896   */\n      dup4\n        /* \"#utility.yul\":5868:5907   */\n      tag_54\n      jump\t// in\n    tag_131:\n        /* \"#utility.yul\":5856:5907   */\n      swap6\n      pop\n        /* \"#utility.yul\":5940:5944   */\n      dup1\n        /* \"#utility.yul\":5936:5945   */\n      not\n        /* \"#utility.yul\":5929:5934   */\n      dup5\n        /* \"#utility.yul\":5925:5946   */\n      and\n        /* \"#utility.yul\":5916:5946   */\n      swap4\n      pop\n        /* \"#utility.yul\":5989:5993   */\n      dup1\n        /* \"#utility.yul\":5979:5987   */\n      dup7\n        /* \"#utility.yul\":5975:5994   */\n      and\n        /* \"#utility.yul\":5968:5973   */\n      dup5\n        /* \"#utility.yul\":5965:5995   */\n      or\n        /* \"#utility.yul\":5955:5995   */\n      swap3\n      pop\n        /* \"#utility.yul\":5684:6001   */\n      pop\n      pop\n        /* \"#utility.yul\":5608:6001   */\n      swap4\n      swap3\n      pop\n      pop\n      pop\n      jump\t// out\n        /* \"#utility.yul\":6007:6067   */\n    tag_56:\n        /* \"#utility.yul\":6035:6038   */\n      0x00\n        /* \"#utility.yul\":6056:6061   */\n      dup2\n        /* \"#utility.yul\":6049:6061   */\n      swap1\n      pop\n        /* \"#utility.yul\":6007:6067   */\n      swap2\n      swap1\n      pop\n      jump\t// out\n        /* \"#utility.yul\":6073:6215   */\n    tag_57:\n        /* \"#utility.yul\":6123:6132   */\n      0x00\n        /* \"#utility.yul\":6156:6209   */\n      tag_134\n        /* \"#utility.yul\":6174:6208   */\n      tag_135\n        /* \"#utility.yul\":6183:6207   */\n      tag_136\n        /* \"#utility.yul\":6201:6206   */\n      dup5\n        /* \"#utility.yul\":6183:6207   */\n      tag_37\n      jump\t// in\n    tag_136:\n        /* \"#utility.yul\":6174:6208   */\n      tag_56\n      jump\t// in\n    tag_135:\n        /* \"#utility.yul\":6156:6209   */\n      tag_37\n      jump\t// in\n    tag_134:\n        /* \"#utility.yul\":6143:6209   */\n      swap1\n      pop\n        /* \"#utility.yul\":6073:6215   */\n      swap2\n      swap1\n      pop\n      jump\t// out\n        /* \"#utility.yul\":6221:6296   */\n    tag_58:\n        /* \"#utility.yul\":6264:6267   */\n      0x00\n        /* \"#utility.yul\":6285:6290   */\n      dup2\n        /* \"#utility.yul\":6278:6290   */\n      swap1\n      pop\n        /* \"#utility.yul\":6221:6296   */\n      swap2\n      swap1\n      pop\n      jump\t// out\n        /* \"#utility.yul\":6302:6571   */\n    tag_59:\n        /* \"#utility.yul\":6412:6451   */\n      tag_139\n        /* \"#utility.yul\":6443:6450   */\n      dup4\n        /* \"#utility.yul\":6412:6451   */\n      tag_57\n      jump\t// in\n    tag_139:\n        /* \"#utility.yul\":6473:6564   */\n      tag_140\n        /* \"#utility.yul\":6522:6563   */\n      tag_141\n        /* \"#utility.yul\":6546:6562   */\n      dup3\n        /* \"#utility.yul\":6522:6563   */\n      tag_58\n      jump\t// in\n    tag_141:\n        /* \"#utility.yul\":6514:6520   */\n      dup5\n        /* \"#utility.yul\":6507:6511   */\n      dup5\n        /* \"#utility.yul\":6501:6512   */\n      sload\n        /* \"#utility.yul\":6473:6564   */\n      tag_55\n      jump\t// in\n    tag_140:\n        /* \"#utility.yul\":6467:6471   */\n      dup3\n        /* \"#utility.yul\":6460:6565   */\n      sstore\n        /* \"#utility.yul\":6378:6571   */\n      pop\n        /* \"#utility.yul\":6302:6571   */\n      pop\n      pop\n      pop\n      jump\t// out\n        /* \"#utility.yul\":6577:6650   */\n    tag_60:\n        /* \"#utility.yul\":6622:6625   */\n      0x00\n        /* \"#utility.yul\":6577:6650   */\n      swap1\n      jump\t// out\n        /* \"#utility.yul\":6656:6845   */\n    tag_61:\n        /* \"#utility.yul\":6733:6765   */\n      tag_144\n      tag_60\n      jump\t// in\n    tag_144:\n        /* \"#utility.yul\":6774:6839   */\n      tag_145\n        /* \"#utility.yul\":6832:6838   */\n      dup2\n        /* \"#utility.yul\":6824:6830   */\n      dup5\n        /* \"#utility.yul\":6818:6822   */\n      dup5\n        /* \"#utility.yul\":6774:6839   */\n      tag_59\n      jump\t// in\n    tag_145:\n        /* \"#utility.yul\":6709:6845   */\n      pop\n        /* \"#utility.yul\":6656:6845   */\n      pop\n      pop\n      jump\t// out\n        /* \"#utility.yul\":6851:7037   */\n    tag_62:\n        /* \"#utility.yul\":6911:7031   */\n    tag_147:\n        /* \"#utility.yul\":6928:6931   */\n      dup2\n        /* \"#utility.yul\":6921:6926   */\n      dup2\n        /* \"#utility.yul\":6918:6932   */\n      lt\n        /* \"#utility.yul\":6911:7031   */\n      iszero\n      tag_149\n      jumpi\n        /* \"#utility.yul\":6982:7021   */\n      tag_150\n        /* \"#utility.yul\":7019:7020   */\n      0x00\n        /* \"#utility.yul\":7012:7017   */\n      dup3\n        /* \"#utility.yul\":6982:7021   */\n      tag_61\n      jump\t// in\n    tag_150:\n        /* \"#utility.yul\":6955:6956   */\n      0x01\n        /* \"#utility.yul\":6948:6953   */\n      dup2\n        /* \"#utility.yul\":6944:6957   */\n      add\n        /* \"#utility.yul\":6935:6957   */\n      swap1\n      pop\n        /* \"#utility.yul\":6911:7031   */\n      jump(tag_147)\n    tag_149:\n        /* \"#utility.yul\":6851:7037   */\n      pop\n      pop\n      jump\t// out\n        /* \"#utility.yul\":7043:7586   */\n    tag_63:\n        /* \"#utility.yul\":7144:7146   */\n      0x1f\n        /* \"#utility.yul\":7139:7142   */\n      dup3\n        /* \"#utility.yul\":7136:7147   */\n      gt\n        /* \"#utility.yul\":7133:7579   */\n      iszero\n      tag_152\n      jumpi\n        /* \"#utility.yul\":7178:7216   */\n      tag_153\n        /* \"#utility.yul\":7210:7215   */\n      dup2\n        /* \"#utility.yul\":7178:7216   */\n      tag_52\n      jump\t// in\n    tag_153:\n        /* \"#utility.yul\":7262:7291   */\n      tag_154\n        /* \"#utility.yul\":7280:7290   */\n      dup5\n        /* \"#utility.yul\":7262:7291   */\n      tag_53\n      jump\t// in\n    tag_154:\n        /* \"#utility.yul\":7252:7260   */\n      dup2\n        /* \"#utility.yul\":7248:7292   */\n      add\n        /* \"#utility.yul\":7445:7447   */\n      0x20\n        /* \"#utility.yul\":7433:7443   */\n      dup6\n        /* \"#utility.yul\":7430:7448   */\n      lt\n        /* \"#utility.yul\":7427:7476   */\n      iszero\n      tag_155\n      jumpi\n        /* \"#utility.yul\":7466:7474   */\n      dup2\n        /* \"#utility.yul\":7451:7474   */\n      swap1\n      pop\n        /* \"#utility.yul\":7427:7476   */\n    tag_155:\n        /* \"#utility.yul\":7489:7569   */\n      tag_156\n        /* \"#utility.yul\":7545:7567   */\n      tag_157\n        /* \"#utility.yul\":7563:7566   */\n      dup6\n        /* \"#utility.yul\":7545:7567   */\n      tag_53\n      jump\t// in\n    tag_157:\n        /* \"#utility.yul\":7535:7543   */\n      dup4\n        /* \"#utility.yul\":7531:7568   */\n      add\n        /* \"#utility.yul\":7518:7529   */\n      dup3\n        /* \"#utility.yul\":7489:7569   */\n      tag_62\n      jump\t// in\n    tag_156:\n        /* \"#utility.yul\":7148:7579   */\n      pop\n      pop\n        /* \"#utility.yul\":7133:7579   */\n    tag_152:\n        /* \"#utility.yul\":7043:7586   */\n      pop\n      pop\n      pop\n      jump\t// out\n        /* \"#utility.yul\":7592:7709   */\n    tag_64:\n        /* \"#utility.yul\":7646:7654   */\n      0x00\n        /* \"#utility.yul\":7696:7701   */\n      dup3\n        /* \"#utility.yul\":7690:7694   */\n      dup3\n        /* \"#utility.yul\":7686:7702   */\n      shr\n        /* \"#utility.yul\":7665:7702   */\n      swap1\n      pop\n        /* \"#utility.yul\":7592:7709   */\n      swap3\n      swap2\n      pop\n      pop\n      jump\t// out\n        /* \"#utility.yul\":7715:7884   */\n    tag_65:\n        /* \"#utility.yul\":7759:7765   */\n      0x00\n        /* \"#utility.yul\":7792:7843   */\n      tag_160\n        /* \"#utility.yul\":7840:7841   */\n      0x00\n        /* \"#utility.yul\":7836:7842   */\n      not\n        /* \"#utility.yul\":7828:7833   */\n      dup5\n        /* \"#utility.yul\":7825:7826   */\n      0x08\n        /* \"#utility.yul\":7821:7834   */\n      mul\n        /* \"#utility.yul\":7792:7843   */\n      tag_64\n      jump\t// in\n    tag_160:\n        /* \"#utility.yul\":7788:7844   */\n      not\n        /* \"#utility.yul\":7873:7877   */\n      dup1\n        /* \"#utility.yul\":7867:7871   */\n      dup4\n        /* \"#utility.yul\":7863:7878   */\n      and\n        /* \"#utility.yul\":7853:7878   */\n      swap2\n      pop\n        /* \"#utility.yul\":7766:7884   */\n      pop\n        /* \"#utility.yul\":7715:7884   */\n      swap3\n      swap2\n      pop\n      pop\n      jump\t// out\n        /* \"#utility.yul\":7889:8184   */\n    tag_66:\n        /* \"#utility.yul\":7965:7969   */\n      0x00\n        /* \"#utility.yul\":8111:8140   */\n      tag_162\n        /* \"#utility.yul\":8136:8139   */\n      dup4\n        /* \"#utility.yul\":8130:8134   */\n      dup4\n        /* \"#utility.yul\":8111:8140   */\n      tag_65\n      jump\t// in\n    tag_162:\n        /* \"#utility.yul\":8103:8140   */\n      swap2\n      pop\n        /* \"#utility.yul\":8173:8176   */\n      dup3\n        /* \"#utility.yul\":8170:8171   */\n      0x02\n        /* \"#utility.yul\":8166:8177   */\n      mul\n        /* \"#utility.yul\":8160:8164   */\n      dup3\n        /* \"#utility.yul\":8157:8178   */\n      or\n        /* \"#utility.yul\":8149:8178   */\n      swap1\n      pop\n        /* \"#utility.yul\":7889:8184   */\n      swap3\n      swap2\n      pop\n      pop\n      jump\t// out\n        /* \"#utility.yul\":8189:9584   */\n    tag_31:\n        /* \"#utility.yul\":8306:8343   */\n      tag_164\n        /* \"#utility.yul\":8339:8342   */\n      dup3\n        /* \"#utility.yul\":8306:8343   */\n      tag_32\n      jump\t// in\n    tag_164:\n        /* \"#utility.yul\":8408:8426   */\n      0xffffffffffffffff\n        /* \"#utility.yul\":8400:8406   */\n      dup2\n        /* \"#utility.yul\":8397:8427   */\n      gt\n        /* \"#utility.yul\":8394:8450   */\n      iszero\n      tag_165\n      jumpi\n        /* \"#utility.yul\":8430:8448   */\n      tag_166\n      tag_44\n      jump\t// in\n    tag_166:\n        /* \"#utility.yul\":8394:8450   */\n    tag_165:\n        /* \"#utility.yul\":8474:8512   */\n      tag_167\n        /* \"#utility.yul\":8506:8510   */\n      dup3\n        /* \"#utility.yul\":8500:8511   */\n      sload\n        /* \"#utility.yul\":8474:8512   */\n      tag_24\n      jump\t// in\n    tag_167:\n        /* \"#utility.yul\":8559:8626   */\n      tag_168\n        /* \"#utility.yul\":8619:8625   */\n      dup3\n        /* \"#utility.yul\":8611:8617   */\n      dup3\n        /* \"#utility.yul\":8605:8609   */\n      dup6\n        /* \"#utility.yul\":8559:8626   */\n      tag_63\n      jump\t// in\n    tag_168:\n        /* \"#utility.yul\":8653:8654   */\n      0x00\n        /* \"#utility.yul\":8677:8681   */\n      0x20\n        /* \"#utility.yul\":8664:8681   */\n      swap1\n      pop\n        /* \"#utility.yul\":8709:8711   */\n      0x1f\n        /* \"#utility.yul\":8701:8707   */\n      dup4\n        /* \"#utility.yul\":8698:8712   */\n      gt\n        /* \"#utility.yul\":8726:8727   */\n      0x01\n        /* \"#utility.yul\":8721:9339   */\n      dup2\n      eq\n      tag_170\n      jumpi\n        /* \"#utility.yul\":9383:9384   */\n      0x00\n        /* \"#utility.yul\":9400:9406   */\n      dup5\n        /* \"#utility.yul\":9397:9474   */\n      iszero\n      tag_171\n      jumpi\n        /* \"#utility.yul\":9449:9458   */\n      dup3\n        /* \"#utility.yul\":9444:9447   */\n      dup8\n        /* \"#utility.yul\":9440:9459   */\n      add\n        /* \"#utility.yul\":9434:9460   */\n      mload\n        /* \"#utility.yul\":9425:9460   */\n      swap1\n      pop\n        /* \"#utility.yul\":9397:9474   */\n    tag_171:\n        /* \"#utility.yul\":9500:9567   */\n      tag_172\n        /* \"#utility.yul\":9560:9566   */\n      dup6\n        /* \"#utility.yul\":9553:9558   */\n      dup3\n        /* \"#utility.yul\":9500:9567   */\n      tag_66\n      jump\t// in\n    tag_172:\n        /* \"#utility.yul\":9494:9498   */\n      dup7\n        /* \"#utility.yul\":9487:9568   */\n      sstore\n        /* \"#utility.yul\":9356:9578   */\n      pop\n        /* \"#utility.yul\":8691:9578   */\n      jump(tag_169)\n        /* \"#utility.yul\":8721:9339   */\n    tag_170:\n        /* \"#utility.yul\":8773:8777   */\n      0x1f\n        /* \"#utility.yul\":8769:8778   */\n      not\n        /* \"#utility.yul\":8761:8767   */\n      dup5\n        /* \"#utility.yul\":8757:8779   */\n      and\n        /* \"#utility.yul\":8807:8844   */\n      tag_173\n        /* \"#utility.yul\":8839:8843   */\n      dup7\n        /* \"#utility.yul\":8807:8844   */\n      tag_52\n      jump\t// in\n    tag_173:\n        /* \"#utility.yul\":8866:8867   */\n      0x00\n        /* \"#utility.yul\":8880:9088   */\n    tag_174:\n        /* \"#utility.yul\":8894:8901   */\n      dup3\n        /* \"#utility.yul\":8891:8892   */\n      dup2\n        /* \"#utility.yul\":8888:8902   */\n      lt\n        /* \"#utility.yul\":8880:9088   */\n      iszero\n      tag_176\n      jumpi\n        /* \"#utility.yul\":8973:8982   */\n      dup5\n        /* \"#utility.yul\":8968:8971   */\n      dup10\n        /* \"#utility.yul\":8964:8983   */\n      add\n        /* \"#utility.yul\":8958:8984   */\n      mload\n        /* \"#utility.yul\":8950:8956   */\n      dup3\n        /* \"#utility.yul\":8943:8985   */\n      sstore\n        /* \"#utility.yul\":9024:9025   */\n      0x01\n        /* \"#utility.yul\":9016:9022   */\n      dup3\n        /* \"#utility.yul\":9012:9026   */\n      add\n        /* \"#utility.yul\":9002:9026   */\n      swap2\n      pop\n        /* \"#utility.yul\":9071:9073   */\n      0x20\n        /* \"#utility.yul\":9060:9069   */\n      dup6\n        /* \"#utility.yul\":9056:9074   */\n      add\n        /* \"#utility.yul\":9043:9074   */\n      swap5\n      pop\n        /* \"#utility.yul\":8917:8921   */\n      0x20\n        /* \"#utility.yul\":8914:8915   */\n      dup2\n        /* \"#utility.yul\":8910:8922   */\n      add\n        /* \"#utility.yul\":8905:8922   */\n      swap1\n      pop\n        /* \"#utility.yul\":8880:9088   */\n      jump(tag_174)\n    tag_176:\n        /* \"#utility.yul\":9116:9122   */\n      dup7\n        /* \"#utility.yul\":9107:9114   */\n      dup4\n        /* \"#utility.yul\":9104:9123   */\n      lt\n        /* \"#utility.yul\":9101:9280   */\n      iszero\n      tag_177\n      jumpi\n        /* \"#utility.yul\":9174:9183   */\n      dup5\n        /* \"#utility.yul\":9169:9172   */\n      dup10\n        /* \"#utility.yul\":9165:9184   */\n      add\n        /* \"#utility.yul\":9159:9185   */\n      mload\n        /* \"#utility.yul\":9217:9265   */\n      tag_178\n        /* \"#utility.yul\":9259:9263   */\n      0x1f\n        /* \"#utility.yul\":9251:9257   */\n      dup10\n        /* \"#utility.yul\":9247:9264   */\n      and\n        /* \"#utility.yul\":9236:9245   */\n      dup3\n        /* \"#utility.yul\":9217:9265   */\n      tag_65\n      jump\t// in\n    tag_178:\n        /* \"#utility.yul\":9209:9215   */\n      dup4\n        /* \"#utility.yul\":9202:9266   */\n      sstore\n        /* \"#utility.yul\":9124:9280   */\n      pop\n        /* \"#utility.yul\":9101:9280   */\n    tag_177:\n        /* \"#utility.yul\":9326:9327   */\n      0x01\n        /* \"#utility.yul\":9322:9323   */\n      0x02\n        /* \"#utility.yul\":9314:9320   */\n      dup9\n        /* \"#utility.yul\":9310:9324   */\n      mul\n        /* \"#utility.yul\":9306:9328   */\n      add\n        /* \"#utility.yul\":9300:9304   */\n      dup9\n        /* \"#utility.yul\":9293:9329   */\n      sstore\n        /* \"#utility.yul\":8728:9339   */\n      pop\n      pop\n      pop\n        /* \"#utility.yul\":8691:9578   */\n    tag_169:\n      pop\n        /* \"#utility.yul\":8281:9584   */\n      pop\n      pop\n      pop\n        /* \"#utility.yul\":8189:9584   */\n      pop\n      pop\n      jump\t// out\n\n    auxdata: 0xa264697066735822122005a072c8e34350fa88e786e1532a1748e50bdf024e15c500d470fa3ee0573f3364736f6c63430008160033\n}\n",
				"bytecode": {
					"linkReferences": {},
					"object": "608060405260405162000c8d38038062000c8d833981810160405281019062000029919062000206565b815f81905550806001908162000040919062000498565b5050506200057c565b5f604051905090565b5f80fd5b5f80fd5b5f819050919050565b6200006e816200005a565b811462000079575f80fd5b50565b5f815190506200008c8162000063565b92915050565b5f80fd5b5f80fd5b5f601f19601f8301169050919050565b7f4e487b71000000000000000000000000000000000000000000000000000000005f52604160045260245ffd5b620000e2826200009a565b810181811067ffffffffffffffff82111715620001045762000103620000aa565b5b80604052505050565b5f6200011862000049565b9050620001268282620000d7565b919050565b5f67ffffffffffffffff821115620001485762000147620000aa565b5b62000153826200009a565b9050602081019050919050565b5f5b838110156200017f57808201518184015260208101905062000162565b5f8484015250505050565b5f620001a06200019a846200012b565b6200010d565b905082815260208101848484011115620001bf57620001be62000096565b5b620001cc84828562000160565b509392505050565b5f82601f830112620001eb57620001ea62000092565b5b8151620001fd8482602086016200018a565b91505092915050565b5f80604083850312156200021f576200021e62000052565b5b5f6200022e858286016200007c565b925050602083015167ffffffffffffffff81111562000252576200025162000056565b5b6200026085828601620001d4565b9150509250929050565b5f81519050919050565b7f4e487b71000000000000000000000000000000000000000000000000000000005f52602260045260245ffd5b5f6002820490506001821680620002b957607f821691505b602082108103620002cf57620002ce62000274565b5b50919050565b5f819050815f5260205f209050919050565b5f6020601f8301049050919050565b5f82821b905092915050565b5f60088302620003337fffffffffffffffffffffffffffffffffffffffffffffffffffffffffffffffff82620002f6565b6200033f8683620002f6565b95508019841693508086168417925050509392505050565b5f819050919050565b5f620003806200037a62000374846200005a565b62000357565b6200005a565b9050919050565b5f819050919050565b6200039b8362000360565b620003b3620003aa8262000387565b84845462000302565b825550505050565b5f90565b620003c9620003bb565b620003d681848462000390565b505050565b5b81811015620003fd57620003f15f82620003bf565b600181019050620003dc565b5050565b601f8211156200044c576200041681620002d5565b6200042184620002e7565b8101602085101562000431578190505b620004496200044085620002e7565b830182620003db565b50505b505050565b5f82821c905092915050565b5f6200046e5f198460080262000451565b1980831691505092915050565b5f6200048883836200045d565b9150826002028217905092915050565b620004a3826200026a565b67ffffffffffffffff811115620004bf57620004be620000aa565b5b620004cb8254620002a1565b620004d882828562000401565b5f60209050601f8311600181146200050e575f8415620004f9578287015190505b6200050585826200047b565b86555062000574565b601f1984166200051e86620002d5565b5f5b82811015620005475784890151825560018201915060208501945060208101905062000520565b8683101562000567578489015162000563601f8916826200045d565b8355505b6001600288020188555050505b505050505050565b610703806200058a5f395ff3fe608060405234801561000f575f80fd5b506004361061004a575f3560e01c80630781f5c91461004e5780631dcd69ec1461006c578063266cf1091461008a5780633e0a0099146100a8575b5f80fd5b6100566100c4565b604051610063919061022f565b60405180910390f35b610074610101565b6040516100819190610267565b60405180910390f35b610092610106565b60405161009f919061022f565b60405180910390f35b6100c260048036038101906100bd91906103bd565b610192565b005b60606040518060400160405280600681526020017f737472696e670000000000000000000000000000000000000000000000000000815250905090565b5f5481565b6001805461011390610431565b80601f016020809104026020016040519081016040528092919081815260200182805461013f90610431565b801561018a5780601f106101615761010080835404028352916020019161018a565b820191905f5260205f20905b81548152906001019060200180831161016d57829003601f168201915b505050505081565b80600190816101a191906105fe565b5050565b5f81519050919050565b5f82825260208201905092915050565b5f5b838110156101dc5780820151818401526020810190506101c1565b5f8484015250505050565b5f601f19601f8301169050919050565b5f610201826101a5565b61020b81856101af565b935061021b8185602086016101bf565b610224816101e7565b840191505092915050565b5f6020820190508181035f83015261024781846101f7565b905092915050565b5f819050919050565b6102618161024f565b82525050565b5f60208201905061027a5f830184610258565b92915050565b5f604051905090565b5f80fd5b5f80fd5b5f80fd5b5f80fd5b7f4e487b71000000000000000000000000000000000000000000000000000000005f52604160045260245ffd5b6102cf826101e7565b810181811067ffffffffffffffff821117156102ee576102ed610299565b5b80604052505050565b5f610300610280565b905061030c82826102c6565b919050565b5f67ffffffffffffffff82111561032b5761032a610299565b5b610334826101e7565b9050602081019050919050565b828183375f83830152505050565b5f61036161035c84610311565b6102f7565b90508281526020810184848401111561037d5761037c610295565b5b610388848285610341565b509392505050565b5f82601f8301126103a4576103a3610291565b5b81356103b484826020860161034f565b91505092915050565b5f602082840312156103d2576103d1610289565b5b5f82013567ffffffffffffffff8111156103ef576103ee61028d565b5b6103fb84828501610390565b91505092915050565b7f4e487b71000000000000000000000000000000000000000000000000000000005f52602260045260245ffd5b5f600282049050600182168061044857607f821691505b60208210810361045b5761045a610404565b5b50919050565b5f819050815f5260205f209050919050565b5f6020601f8301049050919050565b5f82821b905092915050565b5f600883026104bd7fffffffffffffffffffffffffffffffffffffffffffffffffffffffffffffffff82610482565b6104c78683610482565b95508019841693508086168417925050509392505050565b5f819050919050565b5f6105026104fd6104f88461024f565b6104df565b61024f565b9050919050565b5f819050919050565b61051b836104e8565b61052f61052782610509565b84845461048e565b825550505050565b5f90565b610543610537565b61054e818484610512565b505050565b5b81811015610571576105665f8261053b565b600181019050610554565b5050565b601f8211156105b65761058781610461565b61059084610473565b8101602085101561059f578190505b6105b36105ab85610473565b830182610553565b50505b505050565b5f82821c905092915050565b5f6105d65f19846008026105bb565b1980831691505092915050565b5f6105ee83836105c7565b9150826002028217905092915050565b610607826101a5565b67ffffffffffffffff8111156106205761061f610299565b5b61062a8254610431565b610635828285610575565b5f60209050601f831160018114610666575f8415610654578287015190505b61065e85826105e3565b8655506106c5565b601f19841661067486610461565b5f5b8281101561069b57848901518255600182019150602085019450602081019050610676565b868310156106b857848901516106b4601f8916826105c7565b8355505b6001600288020188555050505b50505050505056fea264697066735822122005a072c8e34350fa88e786e1532a1748e50bdf024e15c500d470fa3ee0573f3364736f6c63430008160033",
					"opcodes": "PUSH1 0x80 PUSH1 0x40 MSTORE PUSH1 0x40 MLOAD PUSH3 0xC8D CODESIZE SUB DUP1 PUSH3 0xC8D DUP4 CODECOPY DUP2 DUP2 ADD PUSH1 0x40 MSTORE DUP2 ADD SWAP1 PUSH3 0x29 SWAP2 SWAP1 PUSH3 0x206 JUMP JUMPDEST DUP2 PUSH0 DUP2 SWAP1 SSTORE POP DUP1 PUSH1 0x1 SWAP1 DUP2 PUSH3 0x40 SWAP2 SWAP1 PUSH3 0x498 JUMP JUMPDEST POP POP POP PUSH3 0x57C JUMP JUMPDEST PUSH0 PUSH1 0x40 MLOAD SWAP1 POP SWAP1 JUMP JUMPDEST PUSH0 DUP1 REVERT JUMPDEST PUSH0 DUP1 REVERT JUMPDEST PUSH0 DUP2 SWAP1 POP SWAP2 SWAP1 POP JUMP JUMPDEST PUSH3 0x6E DUP2 PUSH3 0x5A JUMP JUMPDEST DUP2 EQ PUSH3 0x79 JUMPI PUSH0 DUP1 REVERT JUMPDEST POP JUMP JUMPDEST PUSH0 DUP2 MLOAD SWAP1 POP PUSH3 0x8C DUP2 PUSH3 0x63 JUMP JUMPDEST SWAP3 SWAP2 POP POP JUMP JUMPDEST PUSH0 DUP1 REVERT JUMPDEST PUSH0 DUP1 REVERT JUMPDEST PUSH0 PUSH1 0x1F NOT PUSH1 0x1F DUP4 ADD AND SWAP1 POP SWAP2 SWAP1 POP JUMP JUMPDEST PUSH32 0x4E487B7100000000000000000000000000000000000000000000000000000000 PUSH0 MSTORE PUSH1 0x41 PUSH1 0x4 MSTORE PUSH1 0x24 PUSH0 REVERT JUMPDEST PUSH3 0xE2 DUP3 PUSH3 0x9A JUMP JUMPDEST DUP2 ADD DUP2 DUP2 LT PUSH8 0xFFFFFFFFFFFFFFFF DUP3 GT OR ISZERO PUSH3 0x104 JUMPI PUSH3 0x103 PUSH3 0xAA JUMP JUMPDEST JUMPDEST DUP1 PUSH1 0x40 MSTORE POP POP POP JUMP JUMPDEST PUSH0 PUSH3 0x118 PUSH3 0x49 JUMP JUMPDEST SWAP1 POP PUSH3 0x126 DUP3 DUP3 PUSH3 0xD7 JUMP JUMPDEST SWAP2 SWAP1 POP JUMP JUMPDEST PUSH0 PUSH8 0xFFFFFFFFFFFFFFFF DUP3 GT ISZERO PUSH3 0x148 JUMPI PUSH3 0x147 PUSH3 0xAA JUMP JUMPDEST JUMPDEST PUSH3 0x153 DUP3 PUSH3 0x9A JUMP JUMPDEST SWAP1 POP PUSH1 0x20 DUP2 ADD SWAP1 POP SWAP2 SWAP1 POP JUMP JUMPDEST PUSH0 JUMPDEST DUP4 DUP2 LT ISZERO PUSH3 0x17F JUMPI DUP1 DUP3 ADD MLOAD DUP2 DUP5 ADD MSTORE PUSH1 0x20 DUP2 ADD SWAP1 POP PUSH3 0x162 JUMP JUMPDEST PUSH0 DUP5 DUP5 ADD MSTORE POP POP POP POP JUMP JUMPDEST PUSH0 PUSH3 0x1A0 PUSH3 0x19A DUP5 PUSH3 0x12B JUMP JUMPDEST PUSH3 0x10D JUMP JUMPDEST SWAP1 POP DUP3 DUP2 MSTORE PUSH1 0x20 DUP2 ADD DUP5 DUP5 DUP5 ADD GT ISZERO PUSH3 0x1BF JUMPI PUSH3 0x1BE PUSH3 0x96 JUMP JUMPDEST JUMPDEST PUSH3 0x1CC DUP5 DUP3 DUP6 PUSH3 0x160 JUMP JUMPDEST POP SWAP4 SWAP3 POP POP POP JUMP JUMPDEST PUSH0 DUP3 PUSH1 0x1F DUP4 ADD SLT PUSH3 0x1EB JUMPI PUSH3 0x1EA PUSH3 0x92 JUMP JUMPDEST JUMPDEST DUP2 MLOAD PUSH3 0x1FD DUP5 DUP3 PUSH1 0x20 DUP7 ADD PUSH3 0x18A JUMP JUMPDEST SWAP2 POP POP SWAP3 SWAP2 POP POP JUMP JUMPDEST PUSH0 DUP1 PUSH1 0x40 DUP4 DUP6 SUB SLT ISZERO PUSH3 0x21F JUMPI PUSH3 0x21E PUSH3 0x52 JUMP JUMPDEST JUMPDEST PUSH0 PUSH3 0x22E DUP6 DUP3 DUP7 ADD PUSH3 0x7C JUMP JUMPDEST SWAP3 POP POP PUSH1 0x20 DUP4 ADD MLOAD PUSH8 0xFFFFFFFFFFFFFFFF DUP2 GT ISZERO PUSH3 0x252 JUMPI PUSH3 0x251 PUSH3 0x56 JUMP JUMPDEST JUMPDEST PUSH3 0x260 DUP6 DUP3 DUP7 ADD PUSH3 0x1D4 JUMP JUMPDEST SWAP2 POP POP SWAP3 POP SWAP3 SWAP1 POP JUMP JUMPDEST PUSH0 DUP2 MLOAD SWAP1 POP SWAP2 SWAP1 POP JUMP JUMPDEST PUSH32 0x4E487B7100000000000000000000000000000000000000000000000000000000 PUSH0 MSTORE PUSH1 0x22 PUSH1 0x4 MSTORE PUSH1 0x24 PUSH0 REVERT JUMPDEST PUSH0 PUSH1 0x2 DUP3 DIV SWAP1 POP PUSH1 0x1 DUP3 AND DUP1 PUSH3 0x2B9 JUMPI PUSH1 0x7F DUP3 AND SWAP2 POP JUMPDEST PUSH1 0x20 DUP3 LT DUP2 SUB PUSH3 0x2CF JUMPI PUSH3 0x2CE PUSH3 0x274 JUMP JUMPDEST JUMPDEST POP SWAP2 SWAP1 POP JUMP JUMPDEST PUSH0 DUP2 SWAP1 POP DUP2 PUSH0 MSTORE PUSH1 0x20 PUSH0 KECCAK256 SWAP1 POP SWAP2 SWAP1 POP JUMP JUMPDEST PUSH0 PUSH1 0x20 PUSH1 0x1F DUP4 ADD DIV SWAP1 POP SWAP2 SWAP1 POP JUMP JUMPDEST PUSH0 DUP3 DUP3 SHL SWAP1 POP SWAP3 SWAP2 POP POP JUMP JUMPDEST PUSH0 PUSH1 0x8 DUP4 MUL PUSH3 0x333 PUSH32 0xFFFFFFFFFFFFFFFFFFFFFFFFFFFFFFFFFFFFFFFFFFFFFFFFFFFFFFFFFFFFFFFF DUP3 PUSH3 0x2F6 JUMP JUMPDEST PUSH3 0x33F DUP7 DUP4 PUSH3 0x2F6 JUMP JUMPDEST SWAP6 POP DUP1 NOT DUP5 AND SWAP4 POP DUP1 DUP7 AND DUP5 OR SWAP3 POP POP POP SWAP4 SWAP3 POP POP POP JUMP JUMPDEST PUSH0 DUP2 SWAP1 POP SWAP2 SWAP1 POP JUMP JUMPDEST PUSH0 PUSH3 0x380 PUSH3 0x37A PUSH3 0x374 DUP5 PUSH3 0x5A JUMP JUMPDEST PUSH3 0x357 JUMP JUMPDEST PUSH3 0x5A JUMP JUMPDEST SWAP1 POP SWAP2 SWAP1 POP JUMP JUMPDEST PUSH0 DUP2 SWAP1 POP SWAP2 SWAP1 POP JUMP JUMPDEST PUSH3 0x39B DUP4 PUSH3 0x360 JUMP JUMPDEST PUSH3 0x3B3 PUSH3 0x3AA DUP3 PUSH3 0x387 JUMP JUMPDEST DUP5 DUP5 SLOAD PUSH3 0x302 JUMP JUMPDEST DUP3 SSTORE POP POP POP POP JUMP JUMPDEST PUSH0 SWAP1 JUMP JUMPDEST PUSH3 0x3C9 PUSH3 0x3BB JUMP JUMPDEST PUSH3 0x3D6 DUP2 DUP5 DUP5 PUSH3 0x390 JUMP JUMPDEST POP POP POP JUMP JUMPDEST JUMPDEST DUP2 DUP2 LT ISZERO PUSH3 0x3FD JUMPI PUSH3 0x3F1 PUSH0 DUP3 PUSH3 0x3BF JUMP JUMPDEST PUSH1 0x1 DUP2 ADD SWAP1 POP PUSH3 0x3DC JUMP JUMPDEST POP POP JUMP JUMPDEST PUSH1 0x1F DUP3 GT ISZERO PUSH3 0x44C JUMPI PUSH3 0x416 DUP2 PUSH3 0x2D5 JUMP JUMPDEST PUSH3 0x421 DUP5 PUSH3 0x2E7 JUMP JUMPDEST DUP2 ADD PUSH1 0x20 DUP6 LT ISZERO PUSH3 0x431 JUMPI DUP2 SWAP1 POP JUMPDEST PUSH3 0x449 PUSH3 0x440 DUP6 PUSH3 0x2E7 JUMP JUMPDEST DUP4 ADD DUP3 PUSH3 0x3DB JUMP JUMPDEST POP POP JUMPDEST POP POP POP JUMP JUMPDEST PUSH0 DUP3 DUP3 SHR SWAP1 POP SWAP3 SWAP2 POP POP JUMP JUMPDEST PUSH0 PUSH3 0x46E PUSH0 NOT DUP5 PUSH1 0x8 MUL PUSH3 0x451 JUMP JUMPDEST NOT DUP1 DUP4 AND SWAP2 POP POP SWAP3 SWAP2 POP POP JUMP JUMPDEST PUSH0 PUSH3 0x488 DUP4 DUP4 PUSH3 0x45D JUMP JUMPDEST SWAP2 POP DUP3 PUSH1 0x2 MUL DUP3 OR SWAP1 POP SWAP3 SWAP2 POP POP JUMP JUMPDEST PUSH3 0x4A3 DUP3 PUSH3 0x26A JUMP JUMPDEST PUSH8 0xFFFFFFFFFFFFFFFF DUP2 GT ISZERO PUSH3 0x4BF JUMPI PUSH3 0x4BE PUSH3 0xAA JUMP JUMPDEST JUMPDEST PUSH3 0x4CB DUP3 SLOAD PUSH3 0x2A1 JUMP JUMPDEST PUSH3 0x4D8 DUP3 DUP3 DUP6 PUSH3 0x401 JUMP JUMPDEST PUSH0 PUSH1 0x20 SWAP1 POP PUSH1 0x1F DUP4 GT PUSH1 0x1 DUP2 EQ PUSH3 0x50E JUMPI PUSH0 DUP5 ISZERO PUSH3 0x4F9 JUMPI DUP3 DUP8 ADD MLOAD SWAP1 POP JUMPDEST PUSH3 0x505 DUP6 DUP3 PUSH3 0x47B JUMP JUMPDEST DUP7 SSTORE POP PUSH3 0x574 JUMP JUMPDEST PUSH1 0x1F NOT DUP5 AND PUSH3 0x51E DUP7 PUSH3 0x2D5 JUMP JUMPDEST PUSH0 JUMPDEST DUP3 DUP2 LT ISZERO PUSH3 0x547 JUMPI DUP5 DUP10 ADD MLOAD DUP3 SSTORE PUSH1 0x1 DUP3 ADD SWAP2 POP PUSH1 0x20 DUP6 ADD SWAP5 POP PUSH1 0x20 DUP2 ADD SWAP1 POP PUSH3 0x520 JUMP JUMPDEST DUP7 DUP4 LT ISZERO PUSH3 0x567 JUMPI DUP5 DUP10 ADD MLOAD PUSH3 0x563 PUSH1 0x1F DUP10 AND DUP3 PUSH3 0x45D JUMP JUMPDEST DUP4 SSTORE POP JUMPDEST PUSH1 0x1 PUSH1 0x2 DUP9 MUL ADD DUP9 SSTORE POP POP POP JUMPDEST POP POP POP POP POP POP JUMP JUMPDEST PUSH2 0x703 DUP1 PUSH3 0x58A PUSH0 CODECOPY PUSH0 RETURN INVALID PUSH1 0x80 PUSH1 0x40 MSTORE CALLVALUE DUP1 ISZERO PUSH2 0xF JUMPI PUSH0 DUP1 REVERT JUMPDEST POP PUSH1 0x4 CALLDATASIZE LT PUSH2 0x4A JUMPI PUSH0 CALLDATALOAD PUSH1 0xE0 SHR DUP1 PUSH4 0x781F5C9 EQ PUSH2 0x4E JUMPI DUP1 PUSH4 0x1DCD69EC EQ PUSH2 0x6C JUMPI DUP1 PUSH4 0x266CF109 EQ PUSH2 0x8A JUMPI DUP1 PUSH4 0x3E0A0099 EQ PUSH2 0xA8 JUMPI JUMPDEST PUSH0 DUP1 REVERT JUMPDEST PUSH2 0x56 PUSH2 0xC4 JUMP JUMPDEST PUSH1 0x40 MLOAD PUSH2 0x63 SWAP2 SWAP1 PUSH2 0x22F JUMP JUMPDEST PUSH1 0x40 MLOAD DUP1 SWAP2 SUB SWAP1 RETURN JUMPDEST PUSH2 0x74 PUSH2 0x101 JUMP JUMPDEST PUSH1 0x40 MLOAD PUSH2 0x81 SWAP2 SWAP1 PUSH2 0x267 JUMP JUMPDEST PUSH1 0x40 MLOAD DUP1 SWAP2 SUB SWAP1 RETURN JUMPDEST PUSH2 0x92 PUSH2 0x106 JUMP JUMPDEST PUSH1 0x40 MLOAD PUSH2 0x9F SWAP2 SWAP1 PUSH2 0x22F JUMP JUMPDEST PUSH1 0x40 MLOAD DUP1 SWAP2 SUB SWAP1 RETURN JUMPDEST PUSH2 0xC2 PUSH1 0x4 DUP1 CALLDATASIZE SUB DUP2 ADD SWAP1 PUSH2 0xBD SWAP2 SWAP1 PUSH2 0x3BD JUMP JUMPDEST PUSH2 0x192 JUMP JUMPDEST STOP JUMPDEST PUSH1 0x60 PUSH1 0x40 MLOAD DUP1 PUSH1 0x40 ADD PUSH1 0x40 MSTORE DUP1 PUSH1 0x6 DUP2 MSTORE PUSH1 0x20 ADD PUSH32 0x737472696E670000000000000000000000000000000000000000000000000000 DUP2 MSTORE POP SWAP1 POP SWAP1 JUMP JUMPDEST PUSH0 SLOAD DUP2 JUMP JUMPDEST PUSH1 0x1 DUP1 SLOAD PUSH2 0x113 SWAP1 PUSH2 0x431 JUMP JUMPDEST DUP1 PUSH1 0x1F ADD PUSH1 0x20 DUP1 SWAP2 DIV MUL PUSH1 0x20 ADD PUSH1 0x40 MLOAD SWAP1 DUP2 ADD PUSH1 0x40 MSTORE DUP1 SWAP3 SWAP2 SWAP1 DUP2 DUP2 MSTORE PUSH1 0x20 ADD DUP3 DUP1 SLOAD PUSH2 0x13F SWAP1 PUSH2 0x431 JUMP JUMPDEST DUP1 ISZERO PUSH2 0x18A JUMPI DUP1 PUSH1 0x1F LT PUSH2 0x161 JUMPI PUSH2 0x100 DUP1 DUP4 SLOAD DIV MUL DUP4 MSTORE SWAP2 PUSH1 0x20 ADD SWAP2 PUSH2 0x18A JUMP JUMPDEST DUP3 ADD SWAP2 SWAP1 PUSH0 MSTORE PUSH1 0x20 PUSH0 KECCAK256 SWAP1 JUMPDEST DUP2 SLOAD DUP2 MSTORE SWAP1 PUSH1 0x1 ADD SWAP1 PUSH1 0x20 ADD DUP1 DUP4 GT PUSH2 0x16D JUMPI DUP3 SWAP1 SUB PUSH1 0x1F AND DUP3 ADD SWAP2 JUMPDEST POP POP POP POP POP DUP2 JUMP JUMPDEST DUP1 PUSH1 0x1 SWAP1 DUP2 PUSH2 0x1A1 SWAP2 SWAP1 PUSH2 0x5FE JUMP JUMPDEST POP POP JUMP JUMPDEST PUSH0 DUP2 MLOAD SWAP1 POP SWAP2 SWAP1 POP JUMP JUMPDEST PUSH0 DUP3 DUP3 MSTORE PUSH1 0x20 DUP3 ADD SWAP1 POP SWAP3 SWAP2 POP POP JUMP JUMPDEST PUSH0 JUMPDEST DUP4 DUP2 LT ISZERO PUSH2 0x1DC JUMPI DUP1 DUP3 ADD MLOAD DUP2 DUP5 ADD MSTORE PUSH1 0x20 DUP2 ADD SWAP1 POP PUSH2 0x1C1 JUMP JUMPDEST PUSH0 DUP5 DUP5 ADD MSTORE POP POP POP POP JUMP JUMPDEST PUSH0 PUSH1 0x1F NOT PUSH1 0x1F DUP4 ADD AND SWAP1 POP SWAP2 SWAP1 POP JUMP JUMPDEST PUSH0 PUSH2 0x201 DUP3 PUSH2 0x1A5 JUMP JUMPDEST PUSH2 0x20B DUP2 DUP6 PUSH2 0x1AF JUMP JUMPDEST SWAP4 POP PUSH2 0x21B DUP2 DUP6 PUSH1 0x20 DUP7 ADD PUSH2 0x1BF JUMP JUMPDEST PUSH2 0x224 DUP2 PUSH2 0x1E7 JUMP JUMPDEST DUP5 ADD SWAP2 POP POP SWAP3 SWAP2 POP POP JUMP JUMPDEST PUSH0 PUSH1 0x20 DUP3 ADD SWAP1 POP DUP2 DUP2 SUB PUSH0 DUP4 ADD MSTORE PUSH2 0x247 DUP2 DUP5 PUSH2 0x1F7 JUMP JUMPDEST SWAP1 POP SWAP3 SWAP2 POP POP JUMP JUMPDEST PUSH0 DUP2 SWAP1 POP SWAP2 SWAP1 POP JUMP JUMPDEST PUSH2 0x261 DUP2 PUSH2 0x24F JUMP JUMPDEST DUP3 MSTORE POP POP JUMP JUMPDEST PUSH0 PUSH1 0x20 DUP3 ADD SWAP1 POP PUSH2 0x27A PUSH0 DUP4 ADD DUP5 PUSH2 0x258 JUMP JUMPDEST SWAP3 SWAP2 POP POP JUMP JUMPDEST PUSH0 PUSH1 0x40 MLOAD SWAP1 POP SWAP1 JUMP JUMPDEST PUSH0 DUP1 REVERT JUMPDEST PUSH0 DUP1 REVERT JUMPDEST PUSH0 DUP1 REVERT JUMPDEST PUSH0 DUP1 REVERT JUMPDEST PUSH32 0x4E487B7100000000000000000000000000000000000000000000000000000000 PUSH0 MSTORE PUSH1 0x41 PUSH1 0x4 MSTORE PUSH1 0x24 PUSH0 REVERT JUMPDEST PUSH2 0x2CF DUP3 PUSH2 0x1E7 JUMP JUMPDEST DUP2 ADD DUP2 DUP2 LT PUSH8 0xFFFFFFFFFFFFFFFF DUP3 GT OR ISZERO PUSH2 0x2EE JUMPI PUSH2 0x2ED PUSH2 0x299 JUMP JUMPDEST JUMPDEST DUP1 PUSH1 0x40 MSTORE POP POP POP JUMP JUMPDEST PUSH0 PUSH2 0x300 PUSH2 0x280 JUMP JUMPDEST SWAP1 POP PUSH2 0x30C DUP3 DUP3 PUSH2 0x2C6 JUMP JUMPDEST SWAP2 SWAP1 POP JUMP JUMPDEST PUSH0 PUSH8 0xFFFFFFFFFFFFFFFF DUP3 GT ISZERO PUSH2 0x32B JUMPI PUSH2 0x32A PUSH2 0x299 JUMP JUMPDEST JUMPDEST PUSH2 0x334 DUP3 PUSH2 0x1E7 JUMP JUMPDEST SWAP1 POP PUSH1 0x20 DUP2 ADD SWAP1 POP SWAP2 SWAP1 POP JUMP JUMPDEST DUP3 DUP2 DUP4 CALLDATACOPY PUSH0 DUP4 DUP4 ADD MSTORE POP POP POP JUMP JUMPDEST PUSH0 PUSH2 0x361 PUSH2 0x35C DUP5 PUSH2 0x311 JUMP JUMPDEST PUSH2 0x2F7 JUMP JUMPDEST SWAP1 POP DUP3 DUP2 MSTORE PUSH1 0x20 DUP2 ADD DUP5 DUP5 DUP5 ADD GT ISZERO PUSH2 0x37D JUMPI PUSH2 0x37C PUSH2 0x295 JUMP JUMPDEST JUMPDEST PUSH2 0x388 DUP5 DUP3 DUP6 PUSH2 0x341 JUMP JUMPDEST POP SWAP4 SWAP3 POP POP POP JUMP JUMPDEST PUSH0 DUP3 PUSH1 0x1F DUP4 ADD SLT PUSH2 0x3A4 JUMPI PUSH2 0x3A3 PUSH2 0x291 JUMP JUMPDEST JUMPDEST DUP2 CALLDATALOAD PUSH2 0x3B4 DUP5 DUP3 PUSH1 0x20 DUP7 ADD PUSH2 0x34F JUMP JUMPDEST SWAP2 POP POP SWAP3 SWAP2 POP POP JUMP JUMPDEST PUSH0 PUSH1 0x20 DUP3 DUP5 SUB SLT ISZERO PUSH2 0x3D2 JUMPI PUSH2 0x3D1 PUSH2 0x289 JUMP JUMPDEST JUMPDEST PUSH0 DUP3 ADD CALLDATALOAD PUSH8 0xFFFFFFFFFFFFFFFF DUP2 GT ISZERO PUSH2 0x3EF JUMPI PUSH2 0x3EE PUSH2 0x28D JUMP JUMPDEST JUMPDEST PUSH2 0x3FB DUP5 DUP3 DUP6 ADD PUSH2 0x390 JUMP JUMPDEST SWAP2 POP POP SWAP3 SWAP2 POP POP JUMP JUMPDEST PUSH32 0x4E487B7100000000000000000000000000000000000000000000000000000000 PUSH0 MSTORE PUSH1 0x22 PUSH1 0x4 MSTORE PUSH1 0x24 PUSH0 REVERT JUMPDEST PUSH0 PUSH1 0x2 DUP3 DIV SWAP1 POP PUSH1 0x1 DUP3 AND DUP1 PUSH2 0x448 JUMPI PUSH1 0x7F DUP3 AND SWAP2 POP JUMPDEST PUSH1 0x20 DUP3 LT DUP2 SUB PUSH2 0x45B JUMPI PUSH2 0x45A PUSH2 0x404 JUMP JUMPDEST JUMPDEST POP SWAP2 SWAP1 POP JUMP JUMPDEST PUSH0 DUP2 SWAP1 POP DUP2 PUSH0 MSTORE PUSH1 0x20 PUSH0 KECCAK256 SWAP1 POP SWAP2 SWAP1 POP JUMP JUMPDEST PUSH0 PUSH1 0x20 PUSH1 0x1F DUP4 ADD DIV SWAP1 POP SWAP2 SWAP1 POP JUMP JUMPDEST PUSH0 DUP3 DUP3 SHL SWAP1 POP SWAP3 SWAP2 POP POP JUMP JUMPDEST PUSH0 PUSH1 0x8 DUP4 MUL PUSH2 0x4BD PUSH32 0xFFFFFFFFFFFFFFFFFFFFFFFFFFFFFFFFFFFFFFFFFFFFFFFFFFFFFFFFFFFFFFFF DUP3 PUSH2 0x482 JUMP JUMPDEST PUSH2 0x4C7 DUP7 DUP4 PUSH2 0x482 JUMP JUMPDEST SWAP6 POP DUP1 NOT DUP5 AND SWAP4 POP DUP1 DUP7 AND DUP5 OR SWAP3 POP POP POP SWAP4 SWAP3 POP POP POP JUMP JUMPDEST PUSH0 DUP2 SWAP1 POP SWAP2 SWAP1 POP JUMP JUMPDEST PUSH0 PUSH2 0x502 PUSH2 0x4FD PUSH2 0x4F8 DUP5 PUSH2 0x24F JUMP JUMPDEST PUSH2 0x4DF JUMP JUMPDEST PUSH2 0x24F JUMP JUMPDEST SWAP1 POP SWAP2 SWAP1 POP JUMP JUMPDEST PUSH0 DUP2 SWAP1 POP SWAP2 SWAP1 POP JUMP JUMPDEST PUSH2 0x51B DUP4 PUSH2 0x4E8 JUMP JUMPDEST PUSH2 0x52F PUSH2 0x527 DUP3 PUSH2 0x509 JUMP JUMPDEST DUP5 DUP5 SLOAD PUSH2 0x48E JUMP JUMPDEST DUP3 SSTORE POP POP POP POP JUMP JUMPDEST PUSH0 SWAP1 JUMP JUMPDEST PUSH2 0x543 PUSH2 0x537 JUMP JUMPDEST PUSH2 0x54E DUP2 DUP5 DUP5 PUSH2 0x512 JUMP JUMPDEST POP POP POP JUMP JUMPDEST JUMPDEST DUP2 DUP2 LT ISZERO PUSH2 0x571 JUMPI PUSH2 0x566 PUSH0 DUP3 PUSH2 0x53B JUMP JUMPDEST PUSH1 0x1 DUP2 ADD SWAP1 POP PUSH2 0x554 JUMP JUMPDEST POP POP JUMP JUMPDEST PUSH1 0x1F DUP3 GT ISZERO PUSH2 0x5B6 JUMPI PUSH2 0x587 DUP2 PUSH2 0x461 JUMP JUMPDEST PUSH2 0x590 DUP5 PUSH2 0x473 JUMP JUMPDEST DUP2 ADD PUSH1 0x20 DUP6 LT ISZERO PUSH2 0x59F JUMPI DUP2 SWAP1 POP JUMPDEST PUSH2 0x5B3 PUSH2 0x5AB DUP6 PUSH2 0x473 JUMP JUMPDEST DUP4 ADD DUP3 PUSH2 0x553 JUMP JUMPDEST POP POP JUMPDEST POP POP POP JUMP JUMPDEST PUSH0 DUP3 DUP3 SHR SWAP1 POP SWAP3 SWAP2 POP POP JUMP JUMPDEST PUSH0 PUSH2 0x5D6 PUSH0 NOT DUP5 PUSH1 0x8 MUL PUSH2 0x5BB JUMP JUMPDEST NOT DUP1 DUP4 AND SWAP2 POP POP SWAP3 SWAP2 POP POP JUMP JUMPDEST PUSH0 PUSH2 0x5EE DUP4 DUP4 PUSH2 0x5C7 JUMP JUMPDEST SWAP2 POP DUP3 PUSH1 0x2 MUL DUP3 OR SWAP1 POP SWAP3 SWAP2 POP POP JUMP JUMPDEST PUSH2 0x607 DUP3 PUSH2 0x1A5 JUMP JUMPDEST PUSH8 0xFFFFFFFFFFFFFFFF DUP2 GT ISZERO PUSH2 0x620 JUMPI PUSH2 0x61F PUSH2 0x299 JUMP JUMPDEST JUMPDEST PUSH2 0x62A DUP3 SLOAD PUSH2 0x431 JUMP JUMPDEST PUSH2 0x635 DUP3 DUP3 DUP6 PUSH2 0x575 JUMP JUMPDEST PUSH0 PUSH1 0x20 SWAP1 POP PUSH1 0x1F DUP4 GT PUSH1 0x1 DUP2 EQ PUSH2 0x666 JUMPI PUSH0 DUP5 ISZERO PUSH2 0x654 JUMPI DUP3 DUP8 ADD MLOAD SWAP1 POP JUMPDEST PUSH2 0x65E DUP6 DUP3 PUSH2 0x5E3 JUMP JUMPDEST DUP7 SSTORE POP PUSH2 0x6C5 JUMP JUMPDEST PUSH1 0x1F NOT DUP5 AND PUSH2 0x674 DUP7 PUSH2 0x461 JUMP JUMPDEST PUSH0 JUMPDEST DUP3 DUP2 LT ISZERO PUSH2 0x69B JUMPI DUP5 DUP10 ADD MLOAD DUP3 SSTORE PUSH1 0x1 DUP3 ADD SWAP2 POP PUSH1 0x20 DUP6 ADD SWAP5 POP PUSH1 0x20 DUP2 ADD SWAP1 POP PUSH2 0x676 JUMP JUMPDEST DUP7 DUP4 LT ISZERO PUSH2 0x6B8 JUMPI DUP5 DUP10 ADD MLOAD PUSH2 0x6B4 PUSH1 0x1F DUP10 AND DUP3 PUSH2 0x5C7 JUMP JUMPDEST DUP4 SSTORE POP JUMPDEST PUSH1 0x1 PUSH1 0x2 DUP9 MUL ADD DUP9 SSTORE POP POP POP JUMPDEST POP POP POP POP POP POP JUMP INVALID LOG2 PUSH5 0x6970667358 0x22 SLT KECCAK256 SDIV LOG0 PUSH19 0xC8E34350FA88E786E1532A1748E50BDF024E15 0xC5 STOP 0xD4 PUSH17 0xFA3EE0573F3364736F6C63430008160033 "
				},
				"gasEstimates": {
					"creation": {
						"codeDepositCost": "359000",
						"executionCost": "infinite",
						"totalCost": "infinite"
					},
					"external": {
						"getRecordType()": "infinite",
						"record()": "infinite",
						"setRecord(string)": "infinite",
						"timeOfCreation()": "2424"
					}
				},
				"methodIdentifiers": {
					"getRecordType()": "0781f5c9",
					"record()": "266cf109",
					"setRecord(string)": "3e0a0099",
					"timeOfCreation()": "1dcd69ec"
				}
			},
			"storageLayout": {
				"storage": [
					{
						"astId": 3,
						"contract": "Nik_MD_project3.sol:StringRecord",
						"label": "timeOfCreation",
						"offset": 0,
						"slot": "0",
						"type": "t_uint256"
					},
					{
						"astId": 5,
						"contract": "Nik_MD_project3.sol:StringRecord",
						"label": "record",
						"offset": 0,
						"slot": "1",
						"type": "t_string_storage"
					}
				],
				"types": {
					"t_string_storage": {
						"encoding": "bytes",
						"label": "string",
						"numberOfBytes": "32"
					},
					"t_uint256": {
						"encoding": "inplace",
						"label": "uint256",
						"numberOfBytes": "32"
					}
				}
			},
			"userdoc": {
				"kind": "user",
				"methods": {},
				"version": 1
			}
		}
	}
}