{
	"Nik_MD_project3.sol": {
		"RecordFactory": {
			"abi": [
				{
					"inputs": [
						{
							"internalType": "string",
							"name": "_record",
							"type": "string"
						},
						{
							"internalType": "address",
							"name": "_record1",
							"type": "address"
						},
						{
							"internalType": "uint256",
							"name": "_timeOfCreation",
							"type": "uint256"
						},
						{
							"internalType": "uint256",
							"name": "_timeOfCreation1",
							"type": "uint256"
						}
					],
					"stateMutability": "nonpayable",
					"type": "constructor"
				},
				{
					"inputs": [
						{
							"internalType": "address",
							"name": "_record1",
							"type": "address"
						}
					],
					"name": "addRecord",
					"outputs": [],
					"stateMutability": "nonpayable",
					"type": "function"
				},
				{
					"inputs": [
						{
							"internalType": "string",
							"name": "_record",
							"type": "string"
						}
					],
					"name": "addRecord",
					"outputs": [],
					"stateMutability": "nonpayable",
					"type": "function"
				},
				{
					"inputs": [],
					"name": "getRecordType",
					"outputs": [
						{
							"internalType": "string",
							"name": "typeContr",
							"type": "string"
						}
					],
					"stateMutability": "pure",
					"type": "function"
				},
				{
					"inputs": [],
					"name": "getRecordType1",
					"outputs": [
						{
							"internalType": "string",
							"name": "typeContr",
							"type": "string"
						}
					],
					"stateMutability": "pure",
					"type": "function"
				},
				{
					"inputs": [],
					"name": "i",
					"outputs": [
						{
							"internalType": "uint256",
							"name": "",
							"type": "uint256"
						}
					],
					"stateMutability": "view",
					"type": "function"
				},
				{
					"inputs": [],
					"name": "record",
					"outputs": [
						{
							"internalType": "string",
							"name": "",
							"type": "string"
						}
					],
					"stateMutability": "view",
					"type": "function"
				},
				{
					"inputs": [],
					"name": "record1",
					"outputs": [
						{
							"internalType": "address",
							"name": "",
							"type": "address"
						}
					],
					"stateMutability": "view",
					"type": "function"
				},
				{
					"inputs": [
						{
							"internalType": "uint256",
							"name": "",
							"type": "uint256"
						}
					],
					"name": "records",
					"outputs": [
						{
							"internalType": "string",
							"name": "",
							"type": "string"
						}
					],
					"stateMutability": "view",
					"type": "function"
				},
				{
					"inputs": [
						{
							"internalType": "string",
							"name": "_record",
							"type": "string"
						}
					],
					"name": "setRecord",
					"outputs": [],
					"stateMutability": "nonpayable",
					"type": "function"
				},
				{
					"inputs": [
						{
							"internalType": "address",
							"name": "_record",
							"type": "address"
						}
					],
					"name": "setRecord",
					"outputs": [],
					"stateMutability": "nonpayable",
					"type": "function"
				},
				{
					"inputs": [],
					"name": "timeOfCreation",
					"outputs": [
						{
							"internalType": "uint256",
							"name": "",
							"type": "uint256"
						}
					],
					"stateMutability": "view",
					"type": "function"
				},
				{
					"inputs": [],
					"name": "timeOfCreation1",
					"outputs": [
						{
							"internalType": "uint256",
							"name": "",
							"type": "uint256"
						}
					],
					"stateMutability": "view",
					"type": "function"
				}
			],
			"devdoc": {
				"kind": "dev",
				"methods": {},
				"version": 1
			},
			"evm": {
				"assembly": "    /* \"Nik_MD_project3.sol\":999:2119  contract RecordFactory is StringRecord, AddressRecord  {... */\n  mstore(0x40, 0x80)\n    /* \"Nik_MD_project3.sol\":1060:1246  constructor(string memory _record, address _record1, uint _timeOfCreation, uint _timeOfCreation1)... */\n  callvalue\n  dup1\n  iszero\n  tag_1\n  jumpi\n  0x00\n  dup1\n  revert\ntag_1:\n  pop\n  mload(0x40)\n  sub(codesize, bytecodeSize)\n  dup1\n  bytecodeSize\n  dup4\n  codecopy\n  dup2\n  dup2\n  add\n  0x40\n  mstore\n  dup2\n  add\n  swap1\n  tag_2\n  swap2\n  swap1\n  tag_3\n  jump\t// in\ntag_2:\n    /* \"Nik_MD_project3.sol\":1216:1232  _timeOfCreation1 */\n  dup1\n    /* \"Nik_MD_project3.sol\":1234:1242  _record1 */\n  dup4\n    /* \"Nik_MD_project3.sol\":1175:1190  _timeOfCreation */\n  dup4\n    /* \"Nik_MD_project3.sol\":1192:1199  _record */\n  dup7\n    /* \"Nik_MD_project3.sol\":248:263  _timeOfCreation */\n  dup2\n    /* \"Nik_MD_project3.sol\":231:245  timeOfCreation */\n  0x00\n    /* \"Nik_MD_project3.sol\":231:263  timeOfCreation = _timeOfCreation */\n  dup2\n  swap1\n  sstore\n  pop\n    /* \"Nik_MD_project3.sol\":283:290  _record */\n  dup1\n    /* \"Nik_MD_project3.sol\":274:280  record */\n  0x01\n    /* \"Nik_MD_project3.sol\":274:290  record = _record */\n  swap1\n  dup2\n  tag_8\n  swap2\n  swap1\n  tag_9\n  jump\t// in\ntag_8:\n  pop\n    /* \"Nik_MD_project3.sol\":155:298  constructor(uint _timeOfCreation, string memory _record) payable {... */\n  pop\n  pop\n    /* \"Nik_MD_project3.sol\":715:731  _timeOfCreation1 */\n  dup2\n    /* \"Nik_MD_project3.sol\":697:712  timeOfCreation1 */\n  0x02\n    /* \"Nik_MD_project3.sol\":697:731  timeOfCreation1 = _timeOfCreation1 */\n  dup2\n  swap1\n  sstore\n  pop\n    /* \"Nik_MD_project3.sol\":752:759  _record */\n  dup1\n    /* \"Nik_MD_project3.sol\":742:749  record1 */\n  0x03\n  0x00\n    /* \"Nik_MD_project3.sol\":742:759  record1 = _record */\n  0x0100\n  exp\n  dup2\n  sload\n  dup2\n  0xffffffffffffffffffffffffffffffffffffffff\n  mul\n  not\n  and\n  swap1\n  dup4\n  0xffffffffffffffffffffffffffffffffffffffff\n  and\n  mul\n  or\n  swap1\n  sstore\n  pop\n    /* \"Nik_MD_project3.sol\":626:767  constructor(uint _timeOfCreation1, address _record) payable {... */\n  pop\n  pop\n    /* \"Nik_MD_project3.sol\":1060:1246  constructor(string memory _record, address _record1, uint _timeOfCreation, uint _timeOfCreation1)... */\n  pop\n  pop\n  pop\n  pop\n    /* \"Nik_MD_project3.sol\":999:2119  contract RecordFactory is StringRecord, AddressRecord  {... */\n  jump(tag_12)\n    /* \"#utility.yul\":7:82   */\ntag_13:\n    /* \"#utility.yul\":40:46   */\n  0x00\n    /* \"#utility.yul\":73:75   */\n  0x40\n    /* \"#utility.yul\":67:76   */\n  mload\n    /* \"#utility.yul\":57:76   */\n  swap1\n  pop\n    /* \"#utility.yul\":7:82   */\n  swap1\n  jump\t// out\n    /* \"#utility.yul\":88:205   */\ntag_14:\n    /* \"#utility.yul\":197:198   */\n  0x00\n    /* \"#utility.yul\":194:195   */\n  dup1\n    /* \"#utility.yul\":187:199   */\n  revert\n    /* \"#utility.yul\":211:328   */\ntag_15:\n    /* \"#utility.yul\":320:321   */\n  0x00\n    /* \"#utility.yul\":317:318   */\n  dup1\n    /* \"#utility.yul\":310:322   */\n  revert\n    /* \"#utility.yul\":334:451   */\ntag_16:\n    /* \"#utility.yul\":443:444   */\n  0x00\n    /* \"#utility.yul\":440:441   */\n  dup1\n    /* \"#utility.yul\":433:445   */\n  revert\n    /* \"#utility.yul\":457:574   */\ntag_17:\n    /* \"#utility.yul\":566:567   */\n  0x00\n    /* \"#utility.yul\":563:564   */\n  dup1\n    /* \"#utility.yul\":556:568   */\n  revert\n    /* \"#utility.yul\":580:682   */\ntag_18:\n    /* \"#utility.yul\":621:627   */\n  0x00\n    /* \"#utility.yul\":672:674   */\n  0x1f\n    /* \"#utility.yul\":668:675   */\n  not\n    /* \"#utility.yul\":663:665   */\n  0x1f\n    /* \"#utility.yul\":656:661   */\n  dup4\n    /* \"#utility.yul\":652:666   */\n  add\n    /* \"#utility.yul\":648:676   */\n  and\n    /* \"#utility.yul\":638:676   */\n  swap1\n  pop\n    /* \"#utility.yul\":580:682   */\n  swap2\n  swap1\n  pop\n  jump\t// out\n    /* \"#utility.yul\":688:868   */\ntag_19:\n    /* \"#utility.yul\":736:813   */\n  0x4e487b7100000000000000000000000000000000000000000000000000000000\n    /* \"#utility.yul\":733:734   */\n  0x00\n    /* \"#utility.yul\":726:814   */\n  mstore\n    /* \"#utility.yul\":833:837   */\n  0x41\n    /* \"#utility.yul\":830:831   */\n  0x04\n    /* \"#utility.yul\":823:838   */\n  mstore\n    /* \"#utility.yul\":857:861   */\n  0x24\n    /* \"#utility.yul\":854:855   */\n  0x00\n    /* \"#utility.yul\":847:862   */\n  revert\n    /* \"#utility.yul\":874:1155   */\ntag_20:\n    /* \"#utility.yul\":957:984   */\n  tag_60\n    /* \"#utility.yul\":979:983   */\n  dup3\n    /* \"#utility.yul\":957:984   */\n  tag_18\n  jump\t// in\ntag_60:\n    /* \"#utility.yul\":949:955   */\n  dup2\n    /* \"#utility.yul\":945:985   */\n  add\n    /* \"#utility.yul\":1087:1093   */\n  dup2\n    /* \"#utility.yul\":1075:1085   */\n  dup2\n    /* \"#utility.yul\":1072:1094   */\n  lt\n    /* \"#utility.yul\":1051:1069   */\n  0xffffffffffffffff\n    /* \"#utility.yul\":1039:1049   */\n  dup3\n    /* \"#utility.yul\":1036:1070   */\n  gt\n    /* \"#utility.yul\":1033:1095   */\n  or\n    /* \"#utility.yul\":1030:1118   */\n  iszero\n  tag_61\n  jumpi\n    /* \"#utility.yul\":1098:1116   */\n  tag_62\n  tag_19\n  jump\t// in\ntag_62:\n    /* \"#utility.yul\":1030:1118   */\ntag_61:\n    /* \"#utility.yul\":1138:1148   */\n  dup1\n    /* \"#utility.yul\":1134:1136   */\n  0x40\n    /* \"#utility.yul\":1127:1149   */\n  mstore\n    /* \"#utility.yul\":917:1155   */\n  pop\n    /* \"#utility.yul\":874:1155   */\n  pop\n  pop\n  jump\t// out\n    /* \"#utility.yul\":1161:1290   */\ntag_21:\n    /* \"#utility.yul\":1195:1201   */\n  0x00\n    /* \"#utility.yul\":1222:1242   */\n  tag_64\n  tag_13\n  jump\t// in\ntag_64:\n    /* \"#utility.yul\":1212:1242   */\n  swap1\n  pop\n    /* \"#utility.yul\":1251:1284   */\n  tag_65\n    /* \"#utility.yul\":1279:1283   */\n  dup3\n    /* \"#utility.yul\":1271:1277   */\n  dup3\n    /* \"#utility.yul\":1251:1284   */\n  tag_20\n  jump\t// in\ntag_65:\n    /* \"#utility.yul\":1161:1290   */\n  swap2\n  swap1\n  pop\n  jump\t// out\n    /* \"#utility.yul\":1296:1604   */\ntag_22:\n    /* \"#utility.yul\":1358:1362   */\n  0x00\n    /* \"#utility.yul\":1448:1466   */\n  0xffffffffffffffff\n    /* \"#utility.yul\":1440:1446   */\n  dup3\n    /* \"#utility.yul\":1437:1467   */\n  gt\n    /* \"#utility.yul\":1434:1490   */\n  iszero\n  tag_67\n  jumpi\n    /* \"#utility.yul\":1470:1488   */\n  tag_68\n  tag_19\n  jump\t// in\ntag_68:\n    /* \"#utility.yul\":1434:1490   */\ntag_67:\n    /* \"#utility.yul\":1508:1537   */\n  tag_69\n    /* \"#utility.yul\":1530:1536   */\n  dup3\n    /* \"#utility.yul\":1508:1537   */\n  tag_18\n  jump\t// in\ntag_69:\n    /* \"#utility.yul\":1500:1537   */\n  swap1\n  pop\n    /* \"#utility.yul\":1592:1596   */\n  0x20\n    /* \"#utility.yul\":1586:1590   */\n  dup2\n    /* \"#utility.yul\":1582:1597   */\n  add\n    /* \"#utility.yul\":1574:1597   */\n  swap1\n  pop\n    /* \"#utility.yul\":1296:1604   */\n  swap2\n  swap1\n  pop\n  jump\t// out\n    /* \"#utility.yul\":1610:1856   */\ntag_23:\n    /* \"#utility.yul\":1691:1692   */\n  0x00\n    /* \"#utility.yul\":1701:1814   */\ntag_71:\n    /* \"#utility.yul\":1715:1721   */\n  dup4\n    /* \"#utility.yul\":1712:1713   */\n  dup2\n    /* \"#utility.yul\":1709:1722   */\n  lt\n    /* \"#utility.yul\":1701:1814   */\n  iszero\n  tag_73\n  jumpi\n    /* \"#utility.yul\":1800:1801   */\n  dup1\n    /* \"#utility.yul\":1795:1798   */\n  dup3\n    /* \"#utility.yul\":1791:1802   */\n  add\n    /* \"#utility.yul\":1785:1803   */\n  mload\n    /* \"#utility.yul\":1781:1782   */\n  dup2\n    /* \"#utility.yul\":1776:1779   */\n  dup5\n    /* \"#utility.yul\":1772:1783   */\n  add\n    /* \"#utility.yul\":1765:1804   */\n  mstore\n    /* \"#utility.yul\":1737:1739   */\n  0x20\n    /* \"#utility.yul\":1734:1735   */\n  dup2\n    /* \"#utility.yul\":1730:1740   */\n  add\n    /* \"#utility.yul\":1725:1740   */\n  swap1\n  pop\n    /* \"#utility.yul\":1701:1814   */\n  jump(tag_71)\ntag_73:\n    /* \"#utility.yul\":1848:1849   */\n  0x00\n    /* \"#utility.yul\":1839:1845   */\n  dup5\n    /* \"#utility.yul\":1834:1837   */\n  dup5\n    /* \"#utility.yul\":1830:1846   */\n  add\n    /* \"#utility.yul\":1823:1850   */\n  mstore\n    /* \"#utility.yul\":1672:1856   */\n  pop\n    /* \"#utility.yul\":1610:1856   */\n  pop\n  pop\n  pop\n  jump\t// out\n    /* \"#utility.yul\":1862:2296   */\ntag_24:\n    /* \"#utility.yul\":1951:1956   */\n  0x00\n    /* \"#utility.yul\":1976:2042   */\n  tag_75\n    /* \"#utility.yul\":1992:2041   */\n  tag_76\n    /* \"#utility.yul\":2034:2040   */\n  dup5\n    /* \"#utility.yul\":1992:2041   */\n  tag_22\n  jump\t// in\ntag_76:\n    /* \"#utility.yul\":1976:2042   */\n  tag_21\n  jump\t// in\ntag_75:\n    /* \"#utility.yul\":1967:2042   */\n  swap1\n  pop\n    /* \"#utility.yul\":2065:2071   */\n  dup3\n    /* \"#utility.yul\":2058:2063   */\n  dup2\n    /* \"#utility.yul\":2051:2072   */\n  mstore\n    /* \"#utility.yul\":2103:2107   */\n  0x20\n    /* \"#utility.yul\":2096:2101   */\n  dup2\n    /* \"#utility.yul\":2092:2108   */\n  add\n    /* \"#utility.yul\":2141:2144   */\n  dup5\n    /* \"#utility.yul\":2132:2138   */\n  dup5\n    /* \"#utility.yul\":2127:2130   */\n  dup5\n    /* \"#utility.yul\":2123:2139   */\n  add\n    /* \"#utility.yul\":2120:2145   */\n  gt\n    /* \"#utility.yul\":2117:2229   */\n  iszero\n  tag_77\n  jumpi\n    /* \"#utility.yul\":2148:2227   */\n  tag_78\n  tag_17\n  jump\t// in\ntag_78:\n    /* \"#utility.yul\":2117:2229   */\ntag_77:\n    /* \"#utility.yul\":2238:2290   */\n  tag_79\n    /* \"#utility.yul\":2283:2289   */\n  dup5\n    /* \"#utility.yul\":2278:2281   */\n  dup3\n    /* \"#utility.yul\":2273:2276   */\n  dup6\n    /* \"#utility.yul\":2238:2290   */\n  tag_23\n  jump\t// in\ntag_79:\n    /* \"#utility.yul\":1957:2296   */\n  pop\n    /* \"#utility.yul\":1862:2296   */\n  swap4\n  swap3\n  pop\n  pop\n  pop\n  jump\t// out\n    /* \"#utility.yul\":2316:2671   */\ntag_25:\n    /* \"#utility.yul\":2383:2388   */\n  0x00\n    /* \"#utility.yul\":2432:2435   */\n  dup3\n    /* \"#utility.yul\":2425:2429   */\n  0x1f\n    /* \"#utility.yul\":2417:2423   */\n  dup4\n    /* \"#utility.yul\":2413:2430   */\n  add\n    /* \"#utility.yul\":2409:2436   */\n  slt\n    /* \"#utility.yul\":2399:2521   */\n  tag_81\n  jumpi\n    /* \"#utility.yul\":2440:2519   */\n  tag_82\n  tag_16\n  jump\t// in\ntag_82:\n    /* \"#utility.yul\":2399:2521   */\ntag_81:\n    /* \"#utility.yul\":2550:2556   */\n  dup2\n    /* \"#utility.yul\":2544:2557   */\n  mload\n    /* \"#utility.yul\":2575:2665   */\n  tag_83\n    /* \"#utility.yul\":2661:2664   */\n  dup5\n    /* \"#utility.yul\":2653:2659   */\n  dup3\n    /* \"#utility.yul\":2646:2650   */\n  0x20\n    /* \"#utility.yul\":2638:2644   */\n  dup7\n    /* \"#utility.yul\":2634:2651   */\n  add\n    /* \"#utility.yul\":2575:2665   */\n  tag_24\n  jump\t// in\ntag_83:\n    /* \"#utility.yul\":2566:2665   */\n  swap2\n  pop\n    /* \"#utility.yul\":2389:2671   */\n  pop\n    /* \"#utility.yul\":2316:2671   */\n  swap3\n  swap2\n  pop\n  pop\n  jump\t// out\n    /* \"#utility.yul\":2677:2803   */\ntag_26:\n    /* \"#utility.yul\":2714:2721   */\n  0x00\n    /* \"#utility.yul\":2754:2796   */\n  0xffffffffffffffffffffffffffffffffffffffff\n    /* \"#utility.yul\":2747:2752   */\n  dup3\n    /* \"#utility.yul\":2743:2797   */\n  and\n    /* \"#utility.yul\":2732:2797   */\n  swap1\n  pop\n    /* \"#utility.yul\":2677:2803   */\n  swap2\n  swap1\n  pop\n  jump\t// out\n    /* \"#utility.yul\":2809:2905   */\ntag_27:\n    /* \"#utility.yul\":2846:2853   */\n  0x00\n    /* \"#utility.yul\":2875:2899   */\n  tag_86\n    /* \"#utility.yul\":2893:2898   */\n  dup3\n    /* \"#utility.yul\":2875:2899   */\n  tag_26\n  jump\t// in\ntag_86:\n    /* \"#utility.yul\":2864:2899   */\n  swap1\n  pop\n    /* \"#utility.yul\":2809:2905   */\n  swap2\n  swap1\n  pop\n  jump\t// out\n    /* \"#utility.yul\":2911:3033   */\ntag_28:\n    /* \"#utility.yul\":2984:3008   */\n  tag_88\n    /* \"#utility.yul\":3002:3007   */\n  dup2\n    /* \"#utility.yul\":2984:3008   */\n  tag_27\n  jump\t// in\ntag_88:\n    /* \"#utility.yul\":2977:2982   */\n  dup2\n    /* \"#utility.yul\":2974:3009   */\n  eq\n    /* \"#utility.yul\":2964:3027   */\n  tag_89\n  jumpi\n    /* \"#utility.yul\":3023:3024   */\n  0x00\n    /* \"#utility.yul\":3020:3021   */\n  dup1\n    /* \"#utility.yul\":3013:3025   */\n  revert\n    /* \"#utility.yul\":2964:3027   */\ntag_89:\n    /* \"#utility.yul\":2911:3033   */\n  pop\n  jump\t// out\n    /* \"#utility.yul\":3039:3182   */\ntag_29:\n    /* \"#utility.yul\":3096:3101   */\n  0x00\n    /* \"#utility.yul\":3127:3133   */\n  dup2\n    /* \"#utility.yul\":3121:3134   */\n  mload\n    /* \"#utility.yul\":3112:3134   */\n  swap1\n  pop\n    /* \"#utility.yul\":3143:3176   */\n  tag_91\n    /* \"#utility.yul\":3170:3175   */\n  dup2\n    /* \"#utility.yul\":3143:3176   */\n  tag_28\n  jump\t// in\ntag_91:\n    /* \"#utility.yul\":3039:3182   */\n  swap3\n  swap2\n  pop\n  pop\n  jump\t// out\n    /* \"#utility.yul\":3188:3265   */\ntag_30:\n    /* \"#utility.yul\":3225:3232   */\n  0x00\n    /* \"#utility.yul\":3254:3259   */\n  dup2\n    /* \"#utility.yul\":3243:3259   */\n  swap1\n  pop\n    /* \"#utility.yul\":3188:3265   */\n  swap2\n  swap1\n  pop\n  jump\t// out\n    /* \"#utility.yul\":3271:3393   */\ntag_31:\n    /* \"#utility.yul\":3344:3368   */\n  tag_94\n    /* \"#utility.yul\":3362:3367   */\n  dup2\n    /* \"#utility.yul\":3344:3368   */\n  tag_30\n  jump\t// in\ntag_94:\n    /* \"#utility.yul\":3337:3342   */\n  dup2\n    /* \"#utility.yul\":3334:3369   */\n  eq\n    /* \"#utility.yul\":3324:3387   */\n  tag_95\n  jumpi\n    /* \"#utility.yul\":3383:3384   */\n  0x00\n    /* \"#utility.yul\":3380:3381   */\n  dup1\n    /* \"#utility.yul\":3373:3385   */\n  revert\n    /* \"#utility.yul\":3324:3387   */\ntag_95:\n    /* \"#utility.yul\":3271:3393   */\n  pop\n  jump\t// out\n    /* \"#utility.yul\":3399:3542   */\ntag_32:\n    /* \"#utility.yul\":3456:3461   */\n  0x00\n    /* \"#utility.yul\":3487:3493   */\n  dup2\n    /* \"#utility.yul\":3481:3494   */\n  mload\n    /* \"#utility.yul\":3472:3494   */\n  swap1\n  pop\n    /* \"#utility.yul\":3503:3536   */\n  tag_97\n    /* \"#utility.yul\":3530:3535   */\n  dup2\n    /* \"#utility.yul\":3503:3536   */\n  tag_31\n  jump\t// in\ntag_97:\n    /* \"#utility.yul\":3399:3542   */\n  swap3\n  swap2\n  pop\n  pop\n  jump\t// out\n    /* \"#utility.yul\":3548:4541   */\ntag_3:\n    /* \"#utility.yul\":3655:3661   */\n  0x00\n    /* \"#utility.yul\":3663:3669   */\n  dup1\n    /* \"#utility.yul\":3671:3677   */\n  0x00\n    /* \"#utility.yul\":3679:3685   */\n  dup1\n    /* \"#utility.yul\":3728:3731   */\n  0x80\n    /* \"#utility.yul\":3716:3725   */\n  dup6\n    /* \"#utility.yul\":3707:3714   */\n  dup8\n    /* \"#utility.yul\":3703:3726   */\n  sub\n    /* \"#utility.yul\":3699:3732   */\n  slt\n    /* \"#utility.yul\":3696:3816   */\n  iszero\n  tag_99\n  jumpi\n    /* \"#utility.yul\":3735:3814   */\n  tag_100\n  tag_14\n  jump\t// in\ntag_100:\n    /* \"#utility.yul\":3696:3816   */\ntag_99:\n    /* \"#utility.yul\":3876:3877   */\n  0x00\n    /* \"#utility.yul\":3865:3874   */\n  dup6\n    /* \"#utility.yul\":3861:3878   */\n  add\n    /* \"#utility.yul\":3855:3879   */\n  mload\n    /* \"#utility.yul\":3906:3924   */\n  0xffffffffffffffff\n    /* \"#utility.yul\":3898:3904   */\n  dup2\n    /* \"#utility.yul\":3895:3925   */\n  gt\n    /* \"#utility.yul\":3892:4009   */\n  iszero\n  tag_101\n  jumpi\n    /* \"#utility.yul\":3928:4007   */\n  tag_102\n  tag_15\n  jump\t// in\ntag_102:\n    /* \"#utility.yul\":3892:4009   */\ntag_101:\n    /* \"#utility.yul\":4033:4107   */\n  tag_103\n    /* \"#utility.yul\":4099:4106   */\n  dup8\n    /* \"#utility.yul\":4090:4096   */\n  dup3\n    /* \"#utility.yul\":4079:4088   */\n  dup9\n    /* \"#utility.yul\":4075:4097   */\n  add\n    /* \"#utility.yul\":4033:4107   */\n  tag_25\n  jump\t// in\ntag_103:\n    /* \"#utility.yul\":4023:4107   */\n  swap5\n  pop\n    /* \"#utility.yul\":3826:4117   */\n  pop\n    /* \"#utility.yul\":4156:4158   */\n  0x20\n    /* \"#utility.yul\":4182:4246   */\n  tag_104\n    /* \"#utility.yul\":4238:4245   */\n  dup8\n    /* \"#utility.yul\":4229:4235   */\n  dup3\n    /* \"#utility.yul\":4218:4227   */\n  dup9\n    /* \"#utility.yul\":4214:4236   */\n  add\n    /* \"#utility.yul\":4182:4246   */\n  tag_29\n  jump\t// in\ntag_104:\n    /* \"#utility.yul\":4172:4246   */\n  swap4\n  pop\n    /* \"#utility.yul\":4127:4256   */\n  pop\n    /* \"#utility.yul\":4295:4297   */\n  0x40\n    /* \"#utility.yul\":4321:4385   */\n  tag_105\n    /* \"#utility.yul\":4377:4384   */\n  dup8\n    /* \"#utility.yul\":4368:4374   */\n  dup3\n    /* \"#utility.yul\":4357:4366   */\n  dup9\n    /* \"#utility.yul\":4353:4375   */\n  add\n    /* \"#utility.yul\":4321:4385   */\n  tag_32\n  jump\t// in\ntag_105:\n    /* \"#utility.yul\":4311:4385   */\n  swap3\n  pop\n    /* \"#utility.yul\":4266:4395   */\n  pop\n    /* \"#utility.yul\":4434:4436   */\n  0x60\n    /* \"#utility.yul\":4460:4524   */\n  tag_106\n    /* \"#utility.yul\":4516:4523   */\n  dup8\n    /* \"#utility.yul\":4507:4513   */\n  dup3\n    /* \"#utility.yul\":4496:4505   */\n  dup9\n    /* \"#utility.yul\":4492:4514   */\n  add\n    /* \"#utility.yul\":4460:4524   */\n  tag_32\n  jump\t// in\ntag_106:\n    /* \"#utility.yul\":4450:4524   */\n  swap2\n  pop\n    /* \"#utility.yul\":4405:4534   */\n  pop\n    /* \"#utility.yul\":3548:4541   */\n  swap3\n  swap6\n  swap2\n  swap5\n  pop\n  swap3\n  pop\n  jump\t// out\n    /* \"#utility.yul\":4547:4646   */\ntag_33:\n    /* \"#utility.yul\":4599:4605   */\n  0x00\n    /* \"#utility.yul\":4633:4638   */\n  dup2\n    /* \"#utility.yul\":4627:4639   */\n  mload\n    /* \"#utility.yul\":4617:4639   */\n  swap1\n  pop\n    /* \"#utility.yul\":4547:4646   */\n  swap2\n  swap1\n  pop\n  jump\t// out\n    /* \"#utility.yul\":4652:4832   */\ntag_34:\n    /* \"#utility.yul\":4700:4777   */\n  0x4e487b7100000000000000000000000000000000000000000000000000000000\n    /* \"#utility.yul\":4697:4698   */\n  0x00\n    /* \"#utility.yul\":4690:4778   */\n  mstore\n    /* \"#utility.yul\":4797:4801   */\n  0x22\n    /* \"#utility.yul\":4794:4795   */\n  0x04\n    /* \"#utility.yul\":4787:4802   */\n  mstore\n    /* \"#utility.yul\":4821:4825   */\n  0x24\n    /* \"#utility.yul\":4818:4819   */\n  0x00\n    /* \"#utility.yul\":4811:4826   */\n  revert\n    /* \"#utility.yul\":4838:5158   */\ntag_35:\n    /* \"#utility.yul\":4882:4888   */\n  0x00\n    /* \"#utility.yul\":4919:4920   */\n  0x02\n    /* \"#utility.yul\":4913:4917   */\n  dup3\n    /* \"#utility.yul\":4909:4921   */\n  div\n    /* \"#utility.yul\":4899:4921   */\n  swap1\n  pop\n    /* \"#utility.yul\":4966:4967   */\n  0x01\n    /* \"#utility.yul\":4960:4964   */\n  dup3\n    /* \"#utility.yul\":4956:4968   */\n  and\n    /* \"#utility.yul\":4987:5005   */\n  dup1\n    /* \"#utility.yul\":4977:5058   */\n  tag_110\n  jumpi\n    /* \"#utility.yul\":5043:5047   */\n  0x7f\n    /* \"#utility.yul\":5035:5041   */\n  dup3\n    /* \"#utility.yul\":5031:5048   */\n  and\n    /* \"#utility.yul\":5021:5048   */\n  swap2\n  pop\n    /* \"#utility.yul\":4977:5058   */\ntag_110:\n    /* \"#utility.yul\":5105:5107   */\n  0x20\n    /* \"#utility.yul\":5097:5103   */\n  dup3\n    /* \"#utility.yul\":5094:5108   */\n  lt\n    /* \"#utility.yul\":5074:5092   */\n  dup2\n    /* \"#utility.yul\":5071:5109   */\n  sub\n    /* \"#utility.yul\":5068:5152   */\n  tag_111\n  jumpi\n    /* \"#utility.yul\":5124:5142   */\n  tag_112\n  tag_34\n  jump\t// in\ntag_112:\n    /* \"#utility.yul\":5068:5152   */\ntag_111:\n    /* \"#utility.yul\":4889:5158   */\n  pop\n    /* \"#utility.yul\":4838:5158   */\n  swap2\n  swap1\n  pop\n  jump\t// out\n    /* \"#utility.yul\":5164:5305   */\ntag_36:\n    /* \"#utility.yul\":5213:5217   */\n  0x00\n    /* \"#utility.yul\":5236:5239   */\n  dup2\n    /* \"#utility.yul\":5228:5239   */\n  swap1\n  pop\n    /* \"#utility.yul\":5259:5262   */\n  dup2\n    /* \"#utility.yul\":5256:5257   */\n  0x00\n    /* \"#utility.yul\":5249:5263   */\n  mstore\n    /* \"#utility.yul\":5293:5297   */\n  0x20\n    /* \"#utility.yul\":5290:5291   */\n  0x00\n    /* \"#utility.yul\":5280:5298   */\n  keccak256\n    /* \"#utility.yul\":5272:5298   */\n  swap1\n  pop\n    /* \"#utility.yul\":5164:5305   */\n  swap2\n  swap1\n  pop\n  jump\t// out\n    /* \"#utility.yul\":5311:5404   */\ntag_37:\n    /* \"#utility.yul\":5348:5354   */\n  0x00\n    /* \"#utility.yul\":5395:5397   */\n  0x20\n    /* \"#utility.yul\":5390:5392   */\n  0x1f\n    /* \"#utility.yul\":5383:5388   */\n  dup4\n    /* \"#utility.yul\":5379:5393   */\n  add\n    /* \"#utility.yul\":5375:5398   */\n  div\n    /* \"#utility.yul\":5365:5398   */\n  swap1\n  pop\n    /* \"#utility.yul\":5311:5404   */\n  swap2\n  swap1\n  pop\n  jump\t// out\n    /* \"#utility.yul\":5410:5517   */\ntag_38:\n    /* \"#utility.yul\":5454:5462   */\n  0x00\n    /* \"#utility.yul\":5504:5509   */\n  dup3\n    /* \"#utility.yul\":5498:5502   */\n  dup3\n    /* \"#utility.yul\":5494:5510   */\n  shl\n    /* \"#utility.yul\":5473:5510   */\n  swap1\n  pop\n    /* \"#utility.yul\":5410:5517   */\n  swap3\n  swap2\n  pop\n  pop\n  jump\t// out\n    /* \"#utility.yul\":5523:5916   */\ntag_39:\n    /* \"#utility.yul\":5592:5598   */\n  0x00\n    /* \"#utility.yul\":5642:5643   */\n  0x08\n    /* \"#utility.yul\":5630:5640   */\n  dup4\n    /* \"#utility.yul\":5626:5644   */\n  mul\n    /* \"#utility.yul\":5665:5762   */\n  tag_117\n    /* \"#utility.yul\":5695:5761   */\n  0xffffffffffffffffffffffffffffffffffffffffffffffffffffffffffffffff\n    /* \"#utility.yul\":5684:5693   */\n  dup3\n    /* \"#utility.yul\":5665:5762   */\n  tag_38\n  jump\t// in\ntag_117:\n    /* \"#utility.yul\":5783:5822   */\n  tag_118\n    /* \"#utility.yul\":5813:5821   */\n  dup7\n    /* \"#utility.yul\":5802:5811   */\n  dup4\n    /* \"#utility.yul\":5783:5822   */\n  tag_38\n  jump\t// in\ntag_118:\n    /* \"#utility.yul\":5771:5822   */\n  swap6\n  pop\n    /* \"#utility.yul\":5855:5859   */\n  dup1\n    /* \"#utility.yul\":5851:5860   */\n  not\n    /* \"#utility.yul\":5844:5849   */\n  dup5\n    /* \"#utility.yul\":5840:5861   */\n  and\n    /* \"#utility.yul\":5831:5861   */\n  swap4\n  pop\n    /* \"#utility.yul\":5904:5908   */\n  dup1\n    /* \"#utility.yul\":5894:5902   */\n  dup7\n    /* \"#utility.yul\":5890:5909   */\n  and\n    /* \"#utility.yul\":5883:5888   */\n  dup5\n    /* \"#utility.yul\":5880:5910   */\n  or\n    /* \"#utility.yul\":5870:5910   */\n  swap3\n  pop\n    /* \"#utility.yul\":5599:5916   */\n  pop\n  pop\n    /* \"#utility.yul\":5523:5916   */\n  swap4\n  swap3\n  pop\n  pop\n  pop\n  jump\t// out\n    /* \"#utility.yul\":5922:5982   */\ntag_40:\n    /* \"#utility.yul\":5950:5953   */\n  0x00\n    /* \"#utility.yul\":5971:5976   */\n  dup2\n    /* \"#utility.yul\":5964:5976   */\n  swap1\n  pop\n    /* \"#utility.yul\":5922:5982   */\n  swap2\n  swap1\n  pop\n  jump\t// out\n    /* \"#utility.yul\":5988:6130   */\ntag_41:\n    /* \"#utility.yul\":6038:6047   */\n  0x00\n    /* \"#utility.yul\":6071:6124   */\n  tag_121\n    /* \"#utility.yul\":6089:6123   */\n  tag_122\n    /* \"#utility.yul\":6098:6122   */\n  tag_123\n    /* \"#utility.yul\":6116:6121   */\n  dup5\n    /* \"#utility.yul\":6098:6122   */\n  tag_30\n  jump\t// in\ntag_123:\n    /* \"#utility.yul\":6089:6123   */\n  tag_40\n  jump\t// in\ntag_122:\n    /* \"#utility.yul\":6071:6124   */\n  tag_30\n  jump\t// in\ntag_121:\n    /* \"#utility.yul\":6058:6124   */\n  swap1\n  pop\n    /* \"#utility.yul\":5988:6130   */\n  swap2\n  swap1\n  pop\n  jump\t// out\n    /* \"#utility.yul\":6136:6211   */\ntag_42:\n    /* \"#utility.yul\":6179:6182   */\n  0x00\n    /* \"#utility.yul\":6200:6205   */\n  dup2\n    /* \"#utility.yul\":6193:6205   */\n  swap1\n  pop\n    /* \"#utility.yul\":6136:6211   */\n  swap2\n  swap1\n  pop\n  jump\t// out\n    /* \"#utility.yul\":6217:6486   */\ntag_43:\n    /* \"#utility.yul\":6327:6366   */\n  tag_126\n    /* \"#utility.yul\":6358:6365   */\n  dup4\n    /* \"#utility.yul\":6327:6366   */\n  tag_41\n  jump\t// in\ntag_126:\n    /* \"#utility.yul\":6388:6479   */\n  tag_127\n    /* \"#utility.yul\":6437:6478   */\n  tag_128\n    /* \"#utility.yul\":6461:6477   */\n  dup3\n    /* \"#utility.yul\":6437:6478   */\n  tag_42\n  jump\t// in\ntag_128:\n    /* \"#utility.yul\":6429:6435   */\n  dup5\n    /* \"#utility.yul\":6422:6426   */\n  dup5\n    /* \"#utility.yul\":6416:6427   */\n  sload\n    /* \"#utility.yul\":6388:6479   */\n  tag_39\n  jump\t// in\ntag_127:\n    /* \"#utility.yul\":6382:6386   */\n  dup3\n    /* \"#utility.yul\":6375:6480   */\n  sstore\n    /* \"#utility.yul\":6293:6486   */\n  pop\n    /* \"#utility.yul\":6217:6486   */\n  pop\n  pop\n  pop\n  jump\t// out\n    /* \"#utility.yul\":6492:6565   */\ntag_44:\n    /* \"#utility.yul\":6537:6540   */\n  0x00\n    /* \"#utility.yul\":6492:6565   */\n  swap1\n  jump\t// out\n    /* \"#utility.yul\":6571:6760   */\ntag_45:\n    /* \"#utility.yul\":6648:6680   */\n  tag_131\n  tag_44\n  jump\t// in\ntag_131:\n    /* \"#utility.yul\":6689:6754   */\n  tag_132\n    /* \"#utility.yul\":6747:6753   */\n  dup2\n    /* \"#utility.yul\":6739:6745   */\n  dup5\n    /* \"#utility.yul\":6733:6737   */\n  dup5\n    /* \"#utility.yul\":6689:6754   */\n  tag_43\n  jump\t// in\ntag_132:\n    /* \"#utility.yul\":6624:6760   */\n  pop\n    /* \"#utility.yul\":6571:6760   */\n  pop\n  pop\n  jump\t// out\n    /* \"#utility.yul\":6766:6952   */\ntag_46:\n    /* \"#utility.yul\":6826:6946   */\ntag_134:\n    /* \"#utility.yul\":6843:6846   */\n  dup2\n    /* \"#utility.yul\":6836:6841   */\n  dup2\n    /* \"#utility.yul\":6833:6847   */\n  lt\n    /* \"#utility.yul\":6826:6946   */\n  iszero\n  tag_136\n  jumpi\n    /* \"#utility.yul\":6897:6936   */\n  tag_137\n    /* \"#utility.yul\":6934:6935   */\n  0x00\n    /* \"#utility.yul\":6927:6932   */\n  dup3\n    /* \"#utility.yul\":6897:6936   */\n  tag_45\n  jump\t// in\ntag_137:\n    /* \"#utility.yul\":6870:6871   */\n  0x01\n    /* \"#utility.yul\":6863:6868   */\n  dup2\n    /* \"#utility.yul\":6859:6872   */\n  add\n    /* \"#utility.yul\":6850:6872   */\n  swap1\n  pop\n    /* \"#utility.yul\":6826:6946   */\n  jump(tag_134)\ntag_136:\n    /* \"#utility.yul\":6766:6952   */\n  pop\n  pop\n  jump\t// out\n    /* \"#utility.yul\":6958:7501   */\ntag_47:\n    /* \"#utility.yul\":7059:7061   */\n  0x1f\n    /* \"#utility.yul\":7054:7057   */\n  dup3\n    /* \"#utility.yul\":7051:7062   */\n  gt\n    /* \"#utility.yul\":7048:7494   */\n  iszero\n  tag_139\n  jumpi\n    /* \"#utility.yul\":7093:7131   */\n  tag_140\n    /* \"#utility.yul\":7125:7130   */\n  dup2\n    /* \"#utility.yul\":7093:7131   */\n  tag_36\n  jump\t// in\ntag_140:\n    /* \"#utility.yul\":7177:7206   */\n  tag_141\n    /* \"#utility.yul\":7195:7205   */\n  dup5\n    /* \"#utility.yul\":7177:7206   */\n  tag_37\n  jump\t// in\ntag_141:\n    /* \"#utility.yul\":7167:7175   */\n  dup2\n    /* \"#utility.yul\":7163:7207   */\n  add\n    /* \"#utility.yul\":7360:7362   */\n  0x20\n    /* \"#utility.yul\":7348:7358   */\n  dup6\n    /* \"#utility.yul\":7345:7363   */\n  lt\n    /* \"#utility.yul\":7342:7391   */\n  iszero\n  tag_142\n  jumpi\n    /* \"#utility.yul\":7381:7389   */\n  dup2\n    /* \"#utility.yul\":7366:7389   */\n  swap1\n  pop\n    /* \"#utility.yul\":7342:7391   */\ntag_142:\n    /* \"#utility.yul\":7404:7484   */\n  tag_143\n    /* \"#utility.yul\":7460:7482   */\n  tag_144\n    /* \"#utility.yul\":7478:7481   */\n  dup6\n    /* \"#utility.yul\":7460:7482   */\n  tag_37\n  jump\t// in\ntag_144:\n    /* \"#utility.yul\":7450:7458   */\n  dup4\n    /* \"#utility.yul\":7446:7483   */\n  add\n    /* \"#utility.yul\":7433:7444   */\n  dup3\n    /* \"#utility.yul\":7404:7484   */\n  tag_46\n  jump\t// in\ntag_143:\n    /* \"#utility.yul\":7063:7494   */\n  pop\n  pop\n    /* \"#utility.yul\":7048:7494   */\ntag_139:\n    /* \"#utility.yul\":6958:7501   */\n  pop\n  pop\n  pop\n  jump\t// out\n    /* \"#utility.yul\":7507:7624   */\ntag_48:\n    /* \"#utility.yul\":7561:7569   */\n  0x00\n    /* \"#utility.yul\":7611:7616   */\n  dup3\n    /* \"#utility.yul\":7605:7609   */\n  dup3\n    /* \"#utility.yul\":7601:7617   */\n  shr\n    /* \"#utility.yul\":7580:7617   */\n  swap1\n  pop\n    /* \"#utility.yul\":7507:7624   */\n  swap3\n  swap2\n  pop\n  pop\n  jump\t// out\n    /* \"#utility.yul\":7630:7799   */\ntag_49:\n    /* \"#utility.yul\":7674:7680   */\n  0x00\n    /* \"#utility.yul\":7707:7758   */\n  tag_147\n    /* \"#utility.yul\":7755:7756   */\n  0x00\n    /* \"#utility.yul\":7751:7757   */\n  not\n    /* \"#utility.yul\":7743:7748   */\n  dup5\n    /* \"#utility.yul\":7740:7741   */\n  0x08\n    /* \"#utility.yul\":7736:7749   */\n  mul\n    /* \"#utility.yul\":7707:7758   */\n  tag_48\n  jump\t// in\ntag_147:\n    /* \"#utility.yul\":7703:7759   */\n  not\n    /* \"#utility.yul\":7788:7792   */\n  dup1\n    /* \"#utility.yul\":7782:7786   */\n  dup4\n    /* \"#utility.yul\":7778:7793   */\n  and\n    /* \"#utility.yul\":7768:7793   */\n  swap2\n  pop\n    /* \"#utility.yul\":7681:7799   */\n  pop\n    /* \"#utility.yul\":7630:7799   */\n  swap3\n  swap2\n  pop\n  pop\n  jump\t// out\n    /* \"#utility.yul\":7804:8099   */\ntag_50:\n    /* \"#utility.yul\":7880:7884   */\n  0x00\n    /* \"#utility.yul\":8026:8055   */\n  tag_149\n    /* \"#utility.yul\":8051:8054   */\n  dup4\n    /* \"#utility.yul\":8045:8049   */\n  dup4\n    /* \"#utility.yul\":8026:8055   */\n  tag_49\n  jump\t// in\ntag_149:\n    /* \"#utility.yul\":8018:8055   */\n  swap2\n  pop\n    /* \"#utility.yul\":8088:8091   */\n  dup3\n    /* \"#utility.yul\":8085:8086   */\n  0x02\n    /* \"#utility.yul\":8081:8092   */\n  mul\n    /* \"#utility.yul\":8075:8079   */\n  dup3\n    /* \"#utility.yul\":8072:8093   */\n  or\n    /* \"#utility.yul\":8064:8093   */\n  swap1\n  pop\n    /* \"#utility.yul\":7804:8099   */\n  swap3\n  swap2\n  pop\n  pop\n  jump\t// out\n    /* \"#utility.yul\":8104:9499   */\ntag_9:\n    /* \"#utility.yul\":8221:8258   */\n  tag_151\n    /* \"#utility.yul\":8254:8257   */\n  dup3\n    /* \"#utility.yul\":8221:8258   */\n  tag_33\n  jump\t// in\ntag_151:\n    /* \"#utility.yul\":8323:8341   */\n  0xffffffffffffffff\n    /* \"#utility.yul\":8315:8321   */\n  dup2\n    /* \"#utility.yul\":8312:8342   */\n  gt\n    /* \"#utility.yul\":8309:8365   */\n  iszero\n  tag_152\n  jumpi\n    /* \"#utility.yul\":8345:8363   */\n  tag_153\n  tag_19\n  jump\t// in\ntag_153:\n    /* \"#utility.yul\":8309:8365   */\ntag_152:\n    /* \"#utility.yul\":8389:8427   */\n  tag_154\n    /* \"#utility.yul\":8421:8425   */\n  dup3\n    /* \"#utility.yul\":8415:8426   */\n  sload\n    /* \"#utility.yul\":8389:8427   */\n  tag_35\n  jump\t// in\ntag_154:\n    /* \"#utility.yul\":8474:8541   */\n  tag_155\n    /* \"#utility.yul\":8534:8540   */\n  dup3\n    /* \"#utility.yul\":8526:8532   */\n  dup3\n    /* \"#utility.yul\":8520:8524   */\n  dup6\n    /* \"#utility.yul\":8474:8541   */\n  tag_47\n  jump\t// in\ntag_155:\n    /* \"#utility.yul\":8568:8569   */\n  0x00\n    /* \"#utility.yul\":8592:8596   */\n  0x20\n    /* \"#utility.yul\":8579:8596   */\n  swap1\n  pop\n    /* \"#utility.yul\":8624:8626   */\n  0x1f\n    /* \"#utility.yul\":8616:8622   */\n  dup4\n    /* \"#utility.yul\":8613:8627   */\n  gt\n    /* \"#utility.yul\":8641:8642   */\n  0x01\n    /* \"#utility.yul\":8636:9254   */\n  dup2\n  eq\n  tag_157\n  jumpi\n    /* \"#utility.yul\":9298:9299   */\n  0x00\n    /* \"#utility.yul\":9315:9321   */\n  dup5\n    /* \"#utility.yul\":9312:9389   */\n  iszero\n  tag_158\n  jumpi\n    /* \"#utility.yul\":9364:9373   */\n  dup3\n    /* \"#utility.yul\":9359:9362   */\n  dup8\n    /* \"#utility.yul\":9355:9374   */\n  add\n    /* \"#utility.yul\":9349:9375   */\n  mload\n    /* \"#utility.yul\":9340:9375   */\n  swap1\n  pop\n    /* \"#utility.yul\":9312:9389   */\ntag_158:\n    /* \"#utility.yul\":9415:9482   */\n  tag_159\n    /* \"#utility.yul\":9475:9481   */\n  dup6\n    /* \"#utility.yul\":9468:9473   */\n  dup3\n    /* \"#utility.yul\":9415:9482   */\n  tag_50\n  jump\t// in\ntag_159:\n    /* \"#utility.yul\":9409:9413   */\n  dup7\n    /* \"#utility.yul\":9402:9483   */\n  sstore\n    /* \"#utility.yul\":9271:9493   */\n  pop\n    /* \"#utility.yul\":8606:9493   */\n  jump(tag_156)\n    /* \"#utility.yul\":8636:9254   */\ntag_157:\n    /* \"#utility.yul\":8688:8692   */\n  0x1f\n    /* \"#utility.yul\":8684:8693   */\n  not\n    /* \"#utility.yul\":8676:8682   */\n  dup5\n    /* \"#utility.yul\":8672:8694   */\n  and\n    /* \"#utility.yul\":8722:8759   */\n  tag_160\n    /* \"#utility.yul\":8754:8758   */\n  dup7\n    /* \"#utility.yul\":8722:8759   */\n  tag_36\n  jump\t// in\ntag_160:\n    /* \"#utility.yul\":8781:8782   */\n  0x00\n    /* \"#utility.yul\":8795:9003   */\ntag_161:\n    /* \"#utility.yul\":8809:8816   */\n  dup3\n    /* \"#utility.yul\":8806:8807   */\n  dup2\n    /* \"#utility.yul\":8803:8817   */\n  lt\n    /* \"#utility.yul\":8795:9003   */\n  iszero\n  tag_163\n  jumpi\n    /* \"#utility.yul\":8888:8897   */\n  dup5\n    /* \"#utility.yul\":8883:8886   */\n  dup10\n    /* \"#utility.yul\":8879:8898   */\n  add\n    /* \"#utility.yul\":8873:8899   */\n  mload\n    /* \"#utility.yul\":8865:8871   */\n  dup3\n    /* \"#utility.yul\":8858:8900   */\n  sstore\n    /* \"#utility.yul\":8939:8940   */\n  0x01\n    /* \"#utility.yul\":8931:8937   */\n  dup3\n    /* \"#utility.yul\":8927:8941   */\n  add\n    /* \"#utility.yul\":8917:8941   */\n  swap2\n  pop\n    /* \"#utility.yul\":8986:8988   */\n  0x20\n    /* \"#utility.yul\":8975:8984   */\n  dup6\n    /* \"#utility.yul\":8971:8989   */\n  add\n    /* \"#utility.yul\":8958:8989   */\n  swap5\n  pop\n    /* \"#utility.yul\":8832:8836   */\n  0x20\n    /* \"#utility.yul\":8829:8830   */\n  dup2\n    /* \"#utility.yul\":8825:8837   */\n  add\n    /* \"#utility.yul\":8820:8837   */\n  swap1\n  pop\n    /* \"#utility.yul\":8795:9003   */\n  jump(tag_161)\ntag_163:\n    /* \"#utility.yul\":9031:9037   */\n  dup7\n    /* \"#utility.yul\":9022:9029   */\n  dup4\n    /* \"#utility.yul\":9019:9038   */\n  lt\n    /* \"#utility.yul\":9016:9195   */\n  iszero\n  tag_164\n  jumpi\n    /* \"#utility.yul\":9089:9098   */\n  dup5\n    /* \"#utility.yul\":9084:9087   */\n  dup10\n    /* \"#utility.yul\":9080:9099   */\n  add\n    /* \"#utility.yul\":9074:9100   */\n  mload\n    /* \"#utility.yul\":9132:9180   */\n  tag_165\n    /* \"#utility.yul\":9174:9178   */\n  0x1f\n    /* \"#utility.yul\":9166:9172   */\n  dup10\n    /* \"#utility.yul\":9162:9179   */\n  and\n    /* \"#utility.yul\":9151:9160   */\n  dup3\n    /* \"#utility.yul\":9132:9180   */\n  tag_49\n  jump\t// in\ntag_165:\n    /* \"#utility.yul\":9124:9130   */\n  dup4\n    /* \"#utility.yul\":9117:9181   */\n  sstore\n    /* \"#utility.yul\":9039:9195   */\n  pop\n    /* \"#utility.yul\":9016:9195   */\ntag_164:\n    /* \"#utility.yul\":9241:9242   */\n  0x01\n    /* \"#utility.yul\":9237:9238   */\n  0x02\n    /* \"#utility.yul\":9229:9235   */\n  dup9\n    /* \"#utility.yul\":9225:9239   */\n  mul\n    /* \"#utility.yul\":9221:9243   */\n  add\n    /* \"#utility.yul\":9215:9219   */\n  dup9\n    /* \"#utility.yul\":9208:9244   */\n  sstore\n    /* \"#utility.yul\":8643:9254   */\n  pop\n  pop\n  pop\n    /* \"#utility.yul\":8606:9493   */\ntag_156:\n  pop\n    /* \"#utility.yul\":8196:9499   */\n  pop\n  pop\n  pop\n    /* \"#utility.yul\":8104:9499   */\n  pop\n  pop\n  jump\t// out\n    /* \"Nik_MD_project3.sol\":999:2119  contract RecordFactory is StringRecord, AddressRecord  {... */\ntag_12:\n  dataSize(sub_0)\n  dup1\n  dataOffset(sub_0)\n  0x00\n  codecopy\n  0x00\n  return\nstop\n\nsub_0: assembly {\n        /* \"Nik_MD_project3.sol\":999:2119  contract RecordFactory is StringRecord, AddressRecord  {... */\n      mstore(0x40, 0x80)\n      callvalue\n      dup1\n      iszero\n      tag_1\n      jumpi\n      0x00\n      dup1\n      revert\n    tag_1:\n      pop\n      jumpi(tag_2, lt(calldatasize, 0x04))\n      shr(0xe0, calldataload(0x00))\n      dup1\n      0x3e0a0099\n      gt\n      tag_15\n      jumpi\n      dup1\n      0x3e0a0099\n      eq\n      tag_9\n      jumpi\n      dup1\n      0x99b53463\n      eq\n      tag_10\n      jumpi\n      dup1\n      0xc37787d9\n      eq\n      tag_11\n      jumpi\n      dup1\n      0xd81aa8c4\n      eq\n      tag_12\n      jumpi\n      dup1\n      0xe5aa3d58\n      eq\n      tag_13\n      jumpi\n      dup1\n      0xf00f6df5\n      eq\n      tag_14\n      jumpi\n      jump(tag_2)\n    tag_15:\n      dup1\n      0x0781f5c9\n      eq\n      tag_3\n      jumpi\n      dup1\n      0x0d042644\n      eq\n      tag_4\n      jumpi\n      dup1\n      0x1dcd69ec\n      eq\n      tag_5\n      jumpi\n      dup1\n      0x266cf109\n      eq\n      tag_6\n      jumpi\n      dup1\n      0x34461067\n      eq\n      tag_7\n      jumpi\n      dup1\n      0x366ca434\n      eq\n      tag_8\n      jumpi\n    tag_2:\n      0x00\n      dup1\n      revert\n        /* \"Nik_MD_project3.sol\":306:431  function getRecordType () public pure virtual returns(string memory typeContr) {... */\n    tag_3:\n      tag_16\n      tag_17\n      jump\t// in\n    tag_16:\n      mload(0x40)\n      tag_18\n      swap2\n      swap1\n      tag_19\n      jump\t// in\n    tag_18:\n      mload(0x40)\n      dup1\n      swap2\n      sub\n      swap1\n      return\n        /* \"Nik_MD_project3.sol\":595:617  address public record1 */\n    tag_4:\n      tag_20\n      tag_21\n      jump\t// in\n    tag_20:\n      mload(0x40)\n      tag_22\n      swap2\n      swap1\n      tag_23\n      jump\t// in\n    tag_22:\n      mload(0x40)\n      dup1\n      swap2\n      sub\n      swap1\n      return\n        /* \"Nik_MD_project3.sol\":93:119  uint public timeOfCreation */\n    tag_5:\n      tag_24\n      tag_25\n      jump\t// in\n    tag_24:\n      mload(0x40)\n      tag_26\n      swap2\n      swap1\n      tag_27\n      jump\t// in\n    tag_26:\n      mload(0x40)\n      dup1\n      swap2\n      sub\n      swap1\n      return\n        /* \"Nik_MD_project3.sol\":126:146  string public record */\n    tag_6:\n      tag_28\n      tag_29\n      jump\t// in\n    tag_28:\n      mload(0x40)\n      tag_30\n      swap2\n      swap1\n      tag_19\n      jump\t// in\n    tag_30:\n      mload(0x40)\n      dup1\n      swap2\n      sub\n      swap1\n      return\n        /* \"Nik_MD_project3.sol\":1256:1294  mapping(uint => string) public records */\n    tag_7:\n      tag_31\n      0x04\n      dup1\n      calldatasize\n      sub\n      dup2\n      add\n      swap1\n      tag_32\n      swap2\n      swap1\n      tag_33\n      jump\t// in\n    tag_32:\n      tag_34\n      jump\t// in\n    tag_31:\n      mload(0x40)\n      tag_35\n      swap2\n      swap1\n      tag_19\n      jump\t// in\n    tag_35:\n      mload(0x40)\n      dup1\n      swap2\n      sub\n      swap1\n      return\n        /* \"Nik_MD_project3.sol\":561:588  uint public timeOfCreation1 */\n    tag_8:\n      tag_36\n      tag_37\n      jump\t// in\n    tag_36:\n      mload(0x40)\n      tag_38\n      swap2\n      swap1\n      tag_27\n      jump\t// in\n    tag_38:\n      mload(0x40)\n      dup1\n      swap2\n      sub\n      swap1\n      return\n        /* \"Nik_MD_project3.sol\":439:524  function setRecord(string memory _record) public  {... */\n    tag_9:\n      tag_39\n      0x04\n      dup1\n      calldatasize\n      sub\n      dup2\n      add\n      swap1\n      tag_40\n      swap2\n      swap1\n      tag_41\n      jump\t// in\n    tag_40:\n      tag_42\n      jump\t// in\n    tag_39:\n      stop\n        /* \"Nik_MD_project3.sol\":1475:1639  function addRecord(address _record1) public  {... */\n    tag_10:\n      tag_43\n      0x04\n      dup1\n      calldatasize\n      sub\n      dup2\n      add\n      swap1\n      tag_44\n      swap2\n      swap1\n      tag_45\n      jump\t// in\n    tag_44:\n      tag_46\n      jump\t// in\n    tag_43:\n      stop\n        /* \"Nik_MD_project3.sol\":910:992  function setRecord(address _record) public    {... */\n    tag_11:\n      tag_47\n      0x04\n      dup1\n      calldatasize\n      sub\n      dup2\n      add\n      swap1\n      tag_48\n      swap2\n      swap1\n      tag_45\n      jump\t// in\n    tag_48:\n      tag_49\n      jump\t// in\n    tag_47:\n      stop\n        /* \"Nik_MD_project3.sol\":1321:1468  function addRecord(string memory _record) public  {... */\n    tag_12:\n      tag_50\n      0x04\n      dup1\n      calldatasize\n      sub\n      dup2\n      add\n      swap1\n      tag_51\n      swap2\n      swap1\n      tag_41\n      jump\t// in\n    tag_51:\n      tag_52\n      jump\t// in\n    tag_50:\n      stop\n        /* \"Nik_MD_project3.sol\":1300:1313  uint public i */\n    tag_13:\n      tag_53\n      tag_54\n      jump\t// in\n    tag_53:\n      mload(0x40)\n      tag_55\n      swap2\n      swap1\n      tag_27\n      jump\t// in\n    tag_55:\n      mload(0x40)\n      dup1\n      swap2\n      sub\n      swap1\n      return\n        /* \"Nik_MD_project3.sol\":775:902  function getRecordType1 () public pure virtual returns(string memory typeContr) {... */\n    tag_14:\n      tag_56\n      tag_57\n      jump\t// in\n    tag_56:\n      mload(0x40)\n      tag_58\n      swap2\n      swap1\n      tag_19\n      jump\t// in\n    tag_58:\n      mload(0x40)\n      dup1\n      swap2\n      sub\n      swap1\n      return\n        /* \"Nik_MD_project3.sol\":306:431  function getRecordType () public pure virtual returns(string memory typeContr) {... */\n    tag_17:\n        /* \"Nik_MD_project3.sol\":360:383  string memory typeContr */\n      0x60\n        /* \"Nik_MD_project3.sol\":403:423  typeContr = \"string\" */\n      mload(0x40)\n      dup1\n      0x40\n      add\n      0x40\n      mstore\n      dup1\n      0x06\n      dup2\n      mstore\n      0x20\n      add\n      0x737472696e670000000000000000000000000000000000000000000000000000\n      dup2\n      mstore\n      pop\n      swap1\n      pop\n        /* \"Nik_MD_project3.sol\":306:431  function getRecordType () public pure virtual returns(string memory typeContr) {... */\n      swap1\n      jump\t// out\n        /* \"Nik_MD_project3.sol\":595:617  address public record1 */\n    tag_21:\n      0x03\n      0x00\n      swap1\n      sload\n      swap1\n      0x0100\n      exp\n      swap1\n      div\n      0xffffffffffffffffffffffffffffffffffffffff\n      and\n      dup2\n      jump\t// out\n        /* \"Nik_MD_project3.sol\":93:119  uint public timeOfCreation */\n    tag_25:\n      sload(0x00)\n      dup2\n      jump\t// out\n        /* \"Nik_MD_project3.sol\":126:146  string public record */\n    tag_29:\n      0x01\n      dup1\n      sload\n      tag_60\n      swap1\n      tag_61\n      jump\t// in\n    tag_60:\n      dup1\n      0x1f\n      add\n      0x20\n      dup1\n      swap2\n      div\n      mul\n      0x20\n      add\n      mload(0x40)\n      swap1\n      dup2\n      add\n      0x40\n      mstore\n      dup1\n      swap3\n      swap2\n      swap1\n      dup2\n      dup2\n      mstore\n      0x20\n      add\n      dup3\n      dup1\n      sload\n      tag_62\n      swap1\n      tag_61\n      jump\t// in\n    tag_62:\n      dup1\n      iszero\n      tag_63\n      jumpi\n      dup1\n      0x1f\n      lt\n      tag_64\n      jumpi\n      0x0100\n      dup1\n      dup4\n      sload\n      div\n      mul\n      dup4\n      mstore\n      swap2\n      0x20\n      add\n      swap2\n      jump(tag_63)\n    tag_64:\n      dup3\n      add\n      swap2\n      swap1\n      0x00\n      mstore\n      keccak256(0x00, 0x20)\n      swap1\n    tag_65:\n      dup2\n      sload\n      dup2\n      mstore\n      swap1\n      0x01\n      add\n      swap1\n      0x20\n      add\n      dup1\n      dup4\n      gt\n      tag_65\n      jumpi\n      dup3\n      swap1\n      sub\n      0x1f\n      and\n      dup3\n      add\n      swap2\n    tag_63:\n      pop\n      pop\n      pop\n      pop\n      pop\n      dup2\n      jump\t// out\n        /* \"Nik_MD_project3.sol\":1256:1294  mapping(uint => string) public records */\n    tag_34:\n      mstore(0x20, 0x04)\n      dup1\n      0x00\n      mstore\n      keccak256(0x00, 0x40)\n      0x00\n      swap2\n      pop\n      swap1\n      pop\n      dup1\n      sload\n      tag_66\n      swap1\n      tag_61\n      jump\t// in\n    tag_66:\n      dup1\n      0x1f\n      add\n      0x20\n      dup1\n      swap2\n      div\n      mul\n      0x20\n      add\n      mload(0x40)\n      swap1\n      dup2\n      add\n      0x40\n      mstore\n      dup1\n      swap3\n      swap2\n      swap1\n      dup2\n      dup2\n      mstore\n      0x20\n      add\n      dup3\n      dup1\n      sload\n      tag_67\n      swap1\n      tag_61\n      jump\t// in\n    tag_67:\n      dup1\n      iszero\n      tag_68\n      jumpi\n      dup1\n      0x1f\n      lt\n      tag_69\n      jumpi\n      0x0100\n      dup1\n      dup4\n      sload\n      div\n      mul\n      dup4\n      mstore\n      swap2\n      0x20\n      add\n      swap2\n      jump(tag_68)\n    tag_69:\n      dup3\n      add\n      swap2\n      swap1\n      0x00\n      mstore\n      keccak256(0x00, 0x20)\n      swap1\n    tag_70:\n      dup2\n      sload\n      dup2\n      mstore\n      swap1\n      0x01\n      add\n      swap1\n      0x20\n      add\n      dup1\n      dup4\n      gt\n      tag_70\n      jumpi\n      dup3\n      swap1\n      sub\n      0x1f\n      and\n      dup3\n      add\n      swap2\n    tag_68:\n      pop\n      pop\n      pop\n      pop\n      pop\n      dup2\n      jump\t// out\n        /* \"Nik_MD_project3.sol\":561:588  uint public timeOfCreation1 */\n    tag_37:\n      sload(0x02)\n      dup2\n      jump\t// out\n        /* \"Nik_MD_project3.sol\":439:524  function setRecord(string memory _record) public  {... */\n    tag_42:\n        /* \"Nik_MD_project3.sol\":509:516  _record */\n      dup1\n        /* \"Nik_MD_project3.sol\":500:506  record */\n      0x01\n        /* \"Nik_MD_project3.sol\":500:516  record = _record */\n      swap1\n      dup2\n      tag_72\n      swap2\n      swap1\n      tag_73\n      jump\t// in\n    tag_72:\n      pop\n        /* \"Nik_MD_project3.sol\":439:524  function setRecord(string memory _record) public  {... */\n      pop\n      jump\t// out\n        /* \"Nik_MD_project3.sol\":1475:1639  function addRecord(address _record1) public  {... */\n    tag_46:\n        /* \"Nik_MD_project3.sol\":1527:1560  AddressRecord.setRecord(_record1) */\n      tag_75\n        /* \"Nik_MD_project3.sol\":1551:1559  _record1 */\n      dup2\n        /* \"Nik_MD_project3.sol\":1527:1550  AddressRecord.setRecord */\n      tag_49\n        /* \"Nik_MD_project3.sol\":1527:1560  AddressRecord.setRecord(_record1) */\n      jump\t// in\n    tag_75:\n        /* \"Nik_MD_project3.sol\":1580:1618  addressToString(AddressRecord.record1) */\n      tag_76\n        /* \"Nik_MD_project3.sol\":1596:1617  AddressRecord.record1 */\n      0x03\n      0x00\n      swap1\n      sload\n      swap1\n      0x0100\n      exp\n      swap1\n      div\n      0xffffffffffffffffffffffffffffffffffffffff\n      and\n        /* \"Nik_MD_project3.sol\":1580:1595  addressToString */\n      tag_77\n        /* \"Nik_MD_project3.sol\":1580:1618  addressToString(AddressRecord.record1) */\n      jump\t// in\n    tag_76:\n        /* \"Nik_MD_project3.sol\":1567:1574  records */\n      0x04\n        /* \"Nik_MD_project3.sol\":1567:1577  records[i] */\n      0x00\n        /* \"Nik_MD_project3.sol\":1575:1576  i */\n      sload(0x05)\n        /* \"Nik_MD_project3.sol\":1567:1577  records[i] */\n      dup2\n      mstore\n      0x20\n      add\n      swap1\n      dup2\n      mstore\n      0x20\n      add\n      0x00\n      keccak256\n        /* \"Nik_MD_project3.sol\":1567:1618  records[i] = addressToString(AddressRecord.record1) */\n      swap1\n      dup2\n      tag_78\n      swap2\n      swap1\n      tag_73\n      jump\t// in\n    tag_78:\n      pop\n        /* \"Nik_MD_project3.sol\":1630:1631  1 */\n      0x01\n        /* \"Nik_MD_project3.sol\":1625:1626  i */\n      0x05\n      0x00\n        /* \"Nik_MD_project3.sol\":1625:1631  i += 1 */\n      dup3\n      dup3\n      sload\n      tag_79\n      swap2\n      swap1\n      tag_80\n      jump\t// in\n    tag_79:\n      swap3\n      pop\n      pop\n      dup2\n      swap1\n      sstore\n      pop\n        /* \"Nik_MD_project3.sol\":1475:1639  function addRecord(address _record1) public  {... */\n      pop\n      jump\t// out\n        /* \"Nik_MD_project3.sol\":910:992  function setRecord(address _record) public    {... */\n    tag_49:\n        /* \"Nik_MD_project3.sol\":977:984  _record */\n      dup1\n        /* \"Nik_MD_project3.sol\":967:974  record1 */\n      0x03\n      0x00\n        /* \"Nik_MD_project3.sol\":967:984  record1 = _record */\n      0x0100\n      exp\n      dup2\n      sload\n      dup2\n      0xffffffffffffffffffffffffffffffffffffffff\n      mul\n      not\n      and\n      swap1\n      dup4\n      0xffffffffffffffffffffffffffffffffffffffff\n      and\n      mul\n      or\n      swap1\n      sstore\n      pop\n        /* \"Nik_MD_project3.sol\":910:992  function setRecord(address _record) public    {... */\n      pop\n      jump\t// out\n        /* \"Nik_MD_project3.sol\":1321:1468  function addRecord(string memory _record) public  {... */\n    tag_52:\n        /* \"Nik_MD_project3.sol\":1378:1409  StringRecord.setRecord(_record) */\n      tag_83\n        /* \"Nik_MD_project3.sol\":1401:1408  _record */\n      dup2\n        /* \"Nik_MD_project3.sol\":1378:1400  StringRecord.setRecord */\n      tag_42\n        /* \"Nik_MD_project3.sol\":1378:1409  StringRecord.setRecord(_record) */\n      jump\t// in\n    tag_83:\n        /* \"Nik_MD_project3.sol\":1429:1448  StringRecord.record */\n      0x01\n        /* \"Nik_MD_project3.sol\":1416:1423  records */\n      0x04\n        /* \"Nik_MD_project3.sol\":1416:1426  records[i] */\n      0x00\n        /* \"Nik_MD_project3.sol\":1424:1425  i */\n      sload(0x05)\n        /* \"Nik_MD_project3.sol\":1416:1426  records[i] */\n      dup2\n      mstore\n      0x20\n      add\n      swap1\n      dup2\n      mstore\n      0x20\n      add\n      0x00\n      keccak256\n        /* \"Nik_MD_project3.sol\":1416:1448  records[i] = StringRecord.record */\n      swap1\n      dup2\n      tag_84\n      swap2\n      swap1\n      tag_85\n      jump\t// in\n    tag_84:\n      pop\n        /* \"Nik_MD_project3.sol\":1460:1461  1 */\n      0x01\n        /* \"Nik_MD_project3.sol\":1455:1456  i */\n      0x05\n      0x00\n        /* \"Nik_MD_project3.sol\":1455:1461  i += 1 */\n      dup3\n      dup3\n      sload\n      tag_86\n      swap2\n      swap1\n      tag_80\n      jump\t// in\n    tag_86:\n      swap3\n      pop\n      pop\n      dup2\n      swap1\n      sstore\n      pop\n        /* \"Nik_MD_project3.sol\":1321:1468  function addRecord(string memory _record) public  {... */\n      pop\n      jump\t// out\n        /* \"Nik_MD_project3.sol\":1300:1313  uint public i */\n    tag_54:\n      sload(0x05)\n      dup2\n      jump\t// out\n        /* \"Nik_MD_project3.sol\":775:902  function getRecordType1 () public pure virtual returns(string memory typeContr) {... */\n    tag_57:\n        /* \"Nik_MD_project3.sol\":830:853  string memory typeContr */\n      0x60\n        /* \"Nik_MD_project3.sol\":873:894  typeContr = \"address\" */\n      mload(0x40)\n      dup1\n      0x40\n      add\n      0x40\n      mstore\n      dup1\n      0x07\n      dup2\n      mstore\n      0x20\n      add\n      0x6164647265737300000000000000000000000000000000000000000000000000\n      dup2\n      mstore\n      pop\n      swap1\n      pop\n        /* \"Nik_MD_project3.sol\":775:902  function getRecordType1 () public pure virtual returns(string memory typeContr) {... */\n      swap1\n      jump\t// out\n        /* \"Nik_MD_project3.sol\":1647:2106  function addressToString(address _address) private pure returns (string memory) {... */\n    tag_77:\n        /* \"Nik_MD_project3.sol\":1712:1725  string memory */\n      0x60\n        /* \"Nik_MD_project3.sol\":1734:1747  bytes32 value */\n      0x00\n        /* \"Nik_MD_project3.sol\":1774:1782  _address */\n      dup3\n        /* \"Nik_MD_project3.sol\":1758:1784  uint256(uint160(_address)) */\n      0xffffffffffffffffffffffffffffffffffffffff\n      and\n        /* \"Nik_MD_project3.sol\":1750:1785  bytes32(uint256(uint160(_address))) */\n      0x00\n      shl\n        /* \"Nik_MD_project3.sol\":1734:1785  bytes32 value = bytes32(uint256(uint160(_address))) */\n      swap1\n      pop\n        /* \"Nik_MD_project3.sol\":1792:1813  bytes memory alphabet */\n      0x00\n        /* \"Nik_MD_project3.sol\":1792:1834  bytes memory alphabet = \"0123456789abcdef\" */\n      mload(0x40)\n      dup1\n      0x40\n      add\n      0x40\n      mstore\n      dup1\n      0x10\n      dup2\n      mstore\n      0x20\n      add\n      0x3031323334353637383961626364656600000000000000000000000000000000\n      dup2\n      mstore\n      pop\n      swap1\n      pop\n        /* \"Nik_MD_project3.sol\":1843:1859  bytes memory str */\n      0x00\n        /* \"Nik_MD_project3.sol\":1872:1874  42 */\n      0x2a\n        /* \"Nik_MD_project3.sol\":1862:1875  new bytes(42) */\n      0xffffffffffffffff\n      dup2\n      gt\n      iszero\n      tag_89\n      jumpi\n      tag_90\n      tag_91\n      jump\t// in\n    tag_90:\n    tag_89:\n      mload(0x40)\n      swap1\n      dup1\n      dup3\n      mstore\n      dup1\n      0x1f\n      add\n      not(0x1f)\n      and\n      0x20\n      add\n      dup3\n      add\n      0x40\n      mstore\n      dup1\n      iszero\n      tag_92\n      jumpi\n      dup2\n      0x20\n      add\n      0x01\n      dup3\n      mul\n      dup1\n      calldatasize\n      dup4\n      calldatacopy\n      dup1\n      dup3\n      add\n      swap2\n      pop\n      pop\n      swap1\n      pop\n    tag_92:\n      pop\n        /* \"Nik_MD_project3.sol\":1843:1875  bytes memory str = new bytes(42) */\n      swap1\n      pop\n        /* \"Nik_MD_project3.sol\":1882:1894  str[0] = \"0\" */\n      0x3000000000000000000000000000000000000000000000000000000000000000\n        /* \"Nik_MD_project3.sol\":1882:1885  str */\n      dup2\n        /* \"Nik_MD_project3.sol\":1886:1887  0 */\n      0x00\n        /* \"Nik_MD_project3.sol\":1882:1888  str[0] */\n      dup2\n      mload\n      dup2\n      lt\n      tag_93\n      jumpi\n      tag_94\n      tag_95\n      jump\t// in\n    tag_94:\n    tag_93:\n      0x20\n      add\n      add\n        /* \"Nik_MD_project3.sol\":1882:1894  str[0] = \"0\" */\n      swap1\n      not(0xffffffffffffffffffffffffffffffffffffffffffffffffffffffffffffff)\n      and\n      swap1\n      dup2\n      0x00\n      byte\n      swap1\n      mstore8\n      pop\n        /* \"Nik_MD_project3.sol\":1901:1913  str[1] = \"x\" */\n      0x7800000000000000000000000000000000000000000000000000000000000000\n        /* \"Nik_MD_project3.sol\":1901:1904  str */\n      dup2\n        /* \"Nik_MD_project3.sol\":1905:1906  1 */\n      0x01\n        /* \"Nik_MD_project3.sol\":1901:1907  str[1] */\n      dup2\n      mload\n      dup2\n      lt\n      tag_96\n      jumpi\n      tag_97\n      tag_95\n      jump\t// in\n    tag_97:\n    tag_96:\n      0x20\n      add\n      add\n        /* \"Nik_MD_project3.sol\":1901:1913  str[1] = \"x\" */\n      swap1\n      not(0xffffffffffffffffffffffffffffffffffffffffffffffffffffffffffffff)\n      and\n      swap1\n      dup2\n      0x00\n      byte\n      swap1\n      mstore8\n      pop\n        /* \"Nik_MD_project3.sol\":1925:1931  uint k */\n      0x00\n        /* \"Nik_MD_project3.sol\":1920:2078  for (uint k = 0; k < 20; k++) {... */\n    tag_98:\n        /* \"Nik_MD_project3.sol\":1941:1943  20 */\n      0x14\n        /* \"Nik_MD_project3.sol\":1937:1938  k */\n      dup2\n        /* \"Nik_MD_project3.sol\":1937:1943  k < 20 */\n      lt\n        /* \"Nik_MD_project3.sol\":1920:2078  for (uint k = 0; k < 20; k++) {... */\n      iszero\n      tag_99\n      jumpi\n        /* \"Nik_MD_project3.sol\":1974:1982  alphabet */\n      dup3\n        /* \"Nik_MD_project3.sol\":2006:2007  4 */\n      0x04\n        /* \"Nik_MD_project3.sol\":1989:1994  value */\n      dup6\n        /* \"Nik_MD_project3.sol\":1999:2001  12 */\n      0x0c\n        /* \"Nik_MD_project3.sol\":1995:1996  k */\n      dup5\n        /* \"Nik_MD_project3.sol\":1995:2001  k + 12 */\n      tag_101\n      swap2\n      swap1\n      tag_80\n      jump\t// in\n    tag_101:\n        /* \"Nik_MD_project3.sol\":1989:2002  value[k + 12] */\n      0x20\n      dup2\n      lt\n      tag_102\n      jumpi\n      tag_103\n      tag_95\n      jump\t// in\n    tag_103:\n    tag_102:\n      byte\n      0xf8\n      shl\n        /* \"Nik_MD_project3.sol\":1989:2007  value[k + 12] >> 4 */\n      not(0xffffffffffffffffffffffffffffffffffffffffffffffffffffffffffffff)\n      and\n      swap1\n      shr\n        /* \"Nik_MD_project3.sol\":1983:2008  uint8(value[k + 12] >> 4) */\n      0xf8\n      shr\n        /* \"Nik_MD_project3.sol\":1974:2009  alphabet[uint8(value[k + 12] >> 4)] */\n      0xff\n      and\n      dup2\n      mload\n      dup2\n      lt\n      tag_104\n      jumpi\n      tag_105\n      tag_95\n      jump\t// in\n    tag_105:\n    tag_104:\n      0x20\n      add\n      add\n      mload\n      0xf8\n      shr\n      0xf8\n      shl\n        /* \"Nik_MD_project3.sol\":1961:1964  str */\n      dup3\n        /* \"Nik_MD_project3.sol\":1969:1970  2 */\n      0x02\n        /* \"Nik_MD_project3.sol\":1967:1968  k */\n      dup4\n        /* \"Nik_MD_project3.sol\":1967:1970  k*2 */\n      tag_106\n      swap2\n      swap1\n      tag_107\n      jump\t// in\n    tag_106:\n        /* \"Nik_MD_project3.sol\":1965:1966  2 */\n      0x02\n        /* \"Nik_MD_project3.sol\":1965:1970  2+k*2 */\n      tag_108\n      swap2\n      swap1\n      tag_80\n      jump\t// in\n    tag_108:\n        /* \"Nik_MD_project3.sol\":1961:1971  str[2+k*2] */\n      dup2\n      mload\n      dup2\n      lt\n      tag_109\n      jumpi\n      tag_110\n      tag_95\n      jump\t// in\n    tag_110:\n    tag_109:\n      0x20\n      add\n      add\n        /* \"Nik_MD_project3.sol\":1961:2009  str[2+k*2] = alphabet[uint8(value[k + 12] >> 4)] */\n      swap1\n      not(0xffffffffffffffffffffffffffffffffffffffffffffffffffffffffffffff)\n      and\n      swap1\n      dup2\n      0x00\n      byte\n      swap1\n      mstore8\n      pop\n        /* \"Nik_MD_project3.sol\":2033:2041  alphabet */\n      dup3\n        /* \"Nik_MD_project3.sol\":2064:2068  0x0f */\n      0x0f\n        /* \"Nik_MD_project3.sol\":2048:2068  value[k + 12] & 0x0f */\n      0xf8\n      shl\n        /* \"Nik_MD_project3.sol\":2048:2053  value */\n      dup6\n        /* \"Nik_MD_project3.sol\":2058:2060  12 */\n      0x0c\n        /* \"Nik_MD_project3.sol\":2054:2055  k */\n      dup5\n        /* \"Nik_MD_project3.sol\":2054:2060  k + 12 */\n      tag_111\n      swap2\n      swap1\n      tag_80\n      jump\t// in\n    tag_111:\n        /* \"Nik_MD_project3.sol\":2048:2061  value[k + 12] */\n      0x20\n      dup2\n      lt\n      tag_112\n      jumpi\n      tag_113\n      tag_95\n      jump\t// in\n    tag_113:\n    tag_112:\n      byte\n      0xf8\n      shl\n        /* \"Nik_MD_project3.sol\":2048:2068  value[k + 12] & 0x0f */\n      and\n        /* \"Nik_MD_project3.sol\":2042:2069  uint8(value[k + 12] & 0x0f) */\n      0xf8\n      shr\n        /* \"Nik_MD_project3.sol\":2033:2070  alphabet[uint8(value[k + 12] & 0x0f)] */\n      0xff\n      and\n      dup2\n      mload\n      dup2\n      lt\n      tag_114\n      jumpi\n      tag_115\n      tag_95\n      jump\t// in\n    tag_115:\n    tag_114:\n      0x20\n      add\n      add\n      mload\n      0xf8\n      shr\n      0xf8\n      shl\n        /* \"Nik_MD_project3.sol\":2020:2023  str */\n      dup3\n        /* \"Nik_MD_project3.sol\":2028:2029  2 */\n      0x02\n        /* \"Nik_MD_project3.sol\":2026:2027  k */\n      dup4\n        /* \"Nik_MD_project3.sol\":2026:2029  k*2 */\n      tag_116\n      swap2\n      swap1\n      tag_107\n      jump\t// in\n    tag_116:\n        /* \"Nik_MD_project3.sol\":2024:2025  3 */\n      0x03\n        /* \"Nik_MD_project3.sol\":2024:2029  3+k*2 */\n      tag_117\n      swap2\n      swap1\n      tag_80\n      jump\t// in\n    tag_117:\n        /* \"Nik_MD_project3.sol\":2020:2030  str[3+k*2] */\n      dup2\n      mload\n      dup2\n      lt\n      tag_118\n      jumpi\n      tag_119\n      tag_95\n      jump\t// in\n    tag_119:\n    tag_118:\n      0x20\n      add\n      add\n        /* \"Nik_MD_project3.sol\":2020:2070  str[3+k*2] = alphabet[uint8(value[k + 12] & 0x0f)] */\n      swap1\n      not(0xffffffffffffffffffffffffffffffffffffffffffffffffffffffffffffff)\n      and\n      swap1\n      dup2\n      0x00\n      byte\n      swap1\n      mstore8\n      pop\n        /* \"Nik_MD_project3.sol\":1945:1948  k++ */\n      dup1\n      dup1\n      0x01\n      add\n      swap2\n      pop\n      pop\n        /* \"Nik_MD_project3.sol\":1920:2078  for (uint k = 0; k < 20; k++) {... */\n      jump(tag_98)\n    tag_99:\n      pop\n        /* \"Nik_MD_project3.sol\":2098:2101  str */\n      dup1\n        /* \"Nik_MD_project3.sol\":2084:2102  return string(str) */\n      swap4\n      pop\n      pop\n      pop\n      pop\n        /* \"Nik_MD_project3.sol\":1647:2106  function addressToString(address _address) private pure returns (string memory) {... */\n      swap2\n      swap1\n      pop\n      jump\t// out\n        /* \"#utility.yul\":7:106   */\n    tag_120:\n        /* \"#utility.yul\":59:65   */\n      0x00\n        /* \"#utility.yul\":93:98   */\n      dup2\n        /* \"#utility.yul\":87:99   */\n      mload\n        /* \"#utility.yul\":77:99   */\n      swap1\n      pop\n        /* \"#utility.yul\":7:106   */\n      swap2\n      swap1\n      pop\n      jump\t// out\n        /* \"#utility.yul\":112:281   */\n    tag_121:\n        /* \"#utility.yul\":196:207   */\n      0x00\n        /* \"#utility.yul\":230:236   */\n      dup3\n        /* \"#utility.yul\":225:228   */\n      dup3\n        /* \"#utility.yul\":218:237   */\n      mstore\n        /* \"#utility.yul\":270:274   */\n      0x20\n        /* \"#utility.yul\":265:268   */\n      dup3\n        /* \"#utility.yul\":261:275   */\n      add\n        /* \"#utility.yul\":246:275   */\n      swap1\n      pop\n        /* \"#utility.yul\":112:281   */\n      swap3\n      swap2\n      pop\n      pop\n      jump\t// out\n        /* \"#utility.yul\":287:533   */\n    tag_122:\n        /* \"#utility.yul\":368:369   */\n      0x00\n        /* \"#utility.yul\":378:491   */\n    tag_168:\n        /* \"#utility.yul\":392:398   */\n      dup4\n        /* \"#utility.yul\":389:390   */\n      dup2\n        /* \"#utility.yul\":386:399   */\n      lt\n        /* \"#utility.yul\":378:491   */\n      iszero\n      tag_170\n      jumpi\n        /* \"#utility.yul\":477:478   */\n      dup1\n        /* \"#utility.yul\":472:475   */\n      dup3\n        /* \"#utility.yul\":468:479   */\n      add\n        /* \"#utility.yul\":462:480   */\n      mload\n        /* \"#utility.yul\":458:459   */\n      dup2\n        /* \"#utility.yul\":453:456   */\n      dup5\n        /* \"#utility.yul\":449:460   */\n      add\n        /* \"#utility.yul\":442:481   */\n      mstore\n        /* \"#utility.yul\":414:416   */\n      0x20\n        /* \"#utility.yul\":411:412   */\n      dup2\n        /* \"#utility.yul\":407:417   */\n      add\n        /* \"#utility.yul\":402:417   */\n      swap1\n      pop\n        /* \"#utility.yul\":378:491   */\n      jump(tag_168)\n    tag_170:\n        /* \"#utility.yul\":525:526   */\n      0x00\n        /* \"#utility.yul\":516:522   */\n      dup5\n        /* \"#utility.yul\":511:514   */\n      dup5\n        /* \"#utility.yul\":507:523   */\n      add\n        /* \"#utility.yul\":500:527   */\n      mstore\n        /* \"#utility.yul\":349:533   */\n      pop\n        /* \"#utility.yul\":287:533   */\n      pop\n      pop\n      pop\n      jump\t// out\n        /* \"#utility.yul\":539:641   */\n    tag_123:\n        /* \"#utility.yul\":580:586   */\n      0x00\n        /* \"#utility.yul\":631:633   */\n      0x1f\n        /* \"#utility.yul\":627:634   */\n      not\n        /* \"#utility.yul\":622:624   */\n      0x1f\n        /* \"#utility.yul\":615:620   */\n      dup4\n        /* \"#utility.yul\":611:625   */\n      add\n        /* \"#utility.yul\":607:635   */\n      and\n        /* \"#utility.yul\":597:635   */\n      swap1\n      pop\n        /* \"#utility.yul\":539:641   */\n      swap2\n      swap1\n      pop\n      jump\t// out\n        /* \"#utility.yul\":647:1024   */\n    tag_124:\n        /* \"#utility.yul\":735:738   */\n      0x00\n        /* \"#utility.yul\":763:802   */\n      tag_173\n        /* \"#utility.yul\":796:801   */\n      dup3\n        /* \"#utility.yul\":763:802   */\n      tag_120\n      jump\t// in\n    tag_173:\n        /* \"#utility.yul\":818:889   */\n      tag_174\n        /* \"#utility.yul\":882:888   */\n      dup2\n        /* \"#utility.yul\":877:880   */\n      dup6\n        /* \"#utility.yul\":818:889   */\n      tag_121\n      jump\t// in\n    tag_174:\n        /* \"#utility.yul\":811:889   */\n      swap4\n      pop\n        /* \"#utility.yul\":898:963   */\n      tag_175\n        /* \"#utility.yul\":956:962   */\n      dup2\n        /* \"#utility.yul\":951:954   */\n      dup6\n        /* \"#utility.yul\":944:948   */\n      0x20\n        /* \"#utility.yul\":937:942   */\n      dup7\n        /* \"#utility.yul\":933:949   */\n      add\n        /* \"#utility.yul\":898:963   */\n      tag_122\n      jump\t// in\n    tag_175:\n        /* \"#utility.yul\":988:1017   */\n      tag_176\n        /* \"#utility.yul\":1010:1016   */\n      dup2\n        /* \"#utility.yul\":988:1017   */\n      tag_123\n      jump\t// in\n    tag_176:\n        /* \"#utility.yul\":983:986   */\n      dup5\n        /* \"#utility.yul\":979:1018   */\n      add\n        /* \"#utility.yul\":972:1018   */\n      swap2\n      pop\n        /* \"#utility.yul\":739:1024   */\n      pop\n        /* \"#utility.yul\":647:1024   */\n      swap3\n      swap2\n      pop\n      pop\n      jump\t// out\n        /* \"#utility.yul\":1030:1343   */\n    tag_19:\n        /* \"#utility.yul\":1143:1147   */\n      0x00\n        /* \"#utility.yul\":1181:1183   */\n      0x20\n        /* \"#utility.yul\":1170:1179   */\n      dup3\n        /* \"#utility.yul\":1166:1184   */\n      add\n        /* \"#utility.yul\":1158:1184   */\n      swap1\n      pop\n        /* \"#utility.yul\":1230:1239   */\n      dup2\n        /* \"#utility.yul\":1224:1228   */\n      dup2\n        /* \"#utility.yul\":1220:1240   */\n      sub\n        /* \"#utility.yul\":1216:1217   */\n      0x00\n        /* \"#utility.yul\":1205:1214   */\n      dup4\n        /* \"#utility.yul\":1201:1218   */\n      add\n        /* \"#utility.yul\":1194:1241   */\n      mstore\n        /* \"#utility.yul\":1258:1336   */\n      tag_178\n        /* \"#utility.yul\":1331:1335   */\n      dup2\n        /* \"#utility.yul\":1322:1328   */\n      dup5\n        /* \"#utility.yul\":1258:1336   */\n      tag_124\n      jump\t// in\n    tag_178:\n        /* \"#utility.yul\":1250:1336   */\n      swap1\n      pop\n        /* \"#utility.yul\":1030:1343   */\n      swap3\n      swap2\n      pop\n      pop\n      jump\t// out\n        /* \"#utility.yul\":1349:1475   */\n    tag_125:\n        /* \"#utility.yul\":1386:1393   */\n      0x00\n        /* \"#utility.yul\":1426:1468   */\n      0xffffffffffffffffffffffffffffffffffffffff\n        /* \"#utility.yul\":1419:1424   */\n      dup3\n        /* \"#utility.yul\":1415:1469   */\n      and\n        /* \"#utility.yul\":1404:1469   */\n      swap1\n      pop\n        /* \"#utility.yul\":1349:1475   */\n      swap2\n      swap1\n      pop\n      jump\t// out\n        /* \"#utility.yul\":1481:1577   */\n    tag_126:\n        /* \"#utility.yul\":1518:1525   */\n      0x00\n        /* \"#utility.yul\":1547:1571   */\n      tag_181\n        /* \"#utility.yul\":1565:1570   */\n      dup3\n        /* \"#utility.yul\":1547:1571   */\n      tag_125\n      jump\t// in\n    tag_181:\n        /* \"#utility.yul\":1536:1571   */\n      swap1\n      pop\n        /* \"#utility.yul\":1481:1577   */\n      swap2\n      swap1\n      pop\n      jump\t// out\n        /* \"#utility.yul\":1583:1701   */\n    tag_127:\n        /* \"#utility.yul\":1670:1694   */\n      tag_183\n        /* \"#utility.yul\":1688:1693   */\n      dup2\n        /* \"#utility.yul\":1670:1694   */\n      tag_126\n      jump\t// in\n    tag_183:\n        /* \"#utility.yul\":1665:1668   */\n      dup3\n        /* \"#utility.yul\":1658:1695   */\n      mstore\n        /* \"#utility.yul\":1583:1701   */\n      pop\n      pop\n      jump\t// out\n        /* \"#utility.yul\":1707:1929   */\n    tag_23:\n        /* \"#utility.yul\":1800:1804   */\n      0x00\n        /* \"#utility.yul\":1838:1840   */\n      0x20\n        /* \"#utility.yul\":1827:1836   */\n      dup3\n        /* \"#utility.yul\":1823:1841   */\n      add\n        /* \"#utility.yul\":1815:1841   */\n      swap1\n      pop\n        /* \"#utility.yul\":1851:1922   */\n      tag_185\n        /* \"#utility.yul\":1919:1920   */\n      0x00\n        /* \"#utility.yul\":1908:1917   */\n      dup4\n        /* \"#utility.yul\":1904:1921   */\n      add\n        /* \"#utility.yul\":1895:1901   */\n      dup5\n        /* \"#utility.yul\":1851:1922   */\n      tag_127\n      jump\t// in\n    tag_185:\n        /* \"#utility.yul\":1707:1929   */\n      swap3\n      swap2\n      pop\n      pop\n      jump\t// out\n        /* \"#utility.yul\":1935:2012   */\n    tag_128:\n        /* \"#utility.yul\":1972:1979   */\n      0x00\n        /* \"#utility.yul\":2001:2006   */\n      dup2\n        /* \"#utility.yul\":1990:2006   */\n      swap1\n      pop\n        /* \"#utility.yul\":1935:2012   */\n      swap2\n      swap1\n      pop\n      jump\t// out\n        /* \"#utility.yul\":2018:2136   */\n    tag_129:\n        /* \"#utility.yul\":2105:2129   */\n      tag_188\n        /* \"#utility.yul\":2123:2128   */\n      dup2\n        /* \"#utility.yul\":2105:2129   */\n      tag_128\n      jump\t// in\n    tag_188:\n        /* \"#utility.yul\":2100:2103   */\n      dup3\n        /* \"#utility.yul\":2093:2130   */\n      mstore\n        /* \"#utility.yul\":2018:2136   */\n      pop\n      pop\n      jump\t// out\n        /* \"#utility.yul\":2142:2364   */\n    tag_27:\n        /* \"#utility.yul\":2235:2239   */\n      0x00\n        /* \"#utility.yul\":2273:2275   */\n      0x20\n        /* \"#utility.yul\":2262:2271   */\n      dup3\n        /* \"#utility.yul\":2258:2276   */\n      add\n        /* \"#utility.yul\":2250:2276   */\n      swap1\n      pop\n        /* \"#utility.yul\":2286:2357   */\n      tag_190\n        /* \"#utility.yul\":2354:2355   */\n      0x00\n        /* \"#utility.yul\":2343:2352   */\n      dup4\n        /* \"#utility.yul\":2339:2356   */\n      add\n        /* \"#utility.yul\":2330:2336   */\n      dup5\n        /* \"#utility.yul\":2286:2357   */\n      tag_129\n      jump\t// in\n    tag_190:\n        /* \"#utility.yul\":2142:2364   */\n      swap3\n      swap2\n      pop\n      pop\n      jump\t// out\n        /* \"#utility.yul\":2370:2445   */\n    tag_130:\n        /* \"#utility.yul\":2403:2409   */\n      0x00\n        /* \"#utility.yul\":2436:2438   */\n      0x40\n        /* \"#utility.yul\":2430:2439   */\n      mload\n        /* \"#utility.yul\":2420:2439   */\n      swap1\n      pop\n        /* \"#utility.yul\":2370:2445   */\n      swap1\n      jump\t// out\n        /* \"#utility.yul\":2451:2568   */\n    tag_131:\n        /* \"#utility.yul\":2560:2561   */\n      0x00\n        /* \"#utility.yul\":2557:2558   */\n      dup1\n        /* \"#utility.yul\":2550:2562   */\n      revert\n        /* \"#utility.yul\":2574:2691   */\n    tag_132:\n        /* \"#utility.yul\":2683:2684   */\n      0x00\n        /* \"#utility.yul\":2680:2681   */\n      dup1\n        /* \"#utility.yul\":2673:2685   */\n      revert\n        /* \"#utility.yul\":2697:2819   */\n    tag_133:\n        /* \"#utility.yul\":2770:2794   */\n      tag_195\n        /* \"#utility.yul\":2788:2793   */\n      dup2\n        /* \"#utility.yul\":2770:2794   */\n      tag_128\n      jump\t// in\n    tag_195:\n        /* \"#utility.yul\":2763:2768   */\n      dup2\n        /* \"#utility.yul\":2760:2795   */\n      eq\n        /* \"#utility.yul\":2750:2813   */\n      tag_196\n      jumpi\n        /* \"#utility.yul\":2809:2810   */\n      0x00\n        /* \"#utility.yul\":2806:2807   */\n      dup1\n        /* \"#utility.yul\":2799:2811   */\n      revert\n        /* \"#utility.yul\":2750:2813   */\n    tag_196:\n        /* \"#utility.yul\":2697:2819   */\n      pop\n      jump\t// out\n        /* \"#utility.yul\":2825:2964   */\n    tag_134:\n        /* \"#utility.yul\":2871:2876   */\n      0x00\n        /* \"#utility.yul\":2909:2915   */\n      dup2\n        /* \"#utility.yul\":2896:2916   */\n      calldataload\n        /* \"#utility.yul\":2887:2916   */\n      swap1\n      pop\n        /* \"#utility.yul\":2925:2958   */\n      tag_198\n        /* \"#utility.yul\":2952:2957   */\n      dup2\n        /* \"#utility.yul\":2925:2958   */\n      tag_133\n      jump\t// in\n    tag_198:\n        /* \"#utility.yul\":2825:2964   */\n      swap3\n      swap2\n      pop\n      pop\n      jump\t// out\n        /* \"#utility.yul\":2970:3299   */\n    tag_33:\n        /* \"#utility.yul\":3029:3035   */\n      0x00\n        /* \"#utility.yul\":3078:3080   */\n      0x20\n        /* \"#utility.yul\":3066:3075   */\n      dup3\n        /* \"#utility.yul\":3057:3064   */\n      dup5\n        /* \"#utility.yul\":3053:3076   */\n      sub\n        /* \"#utility.yul\":3049:3081   */\n      slt\n        /* \"#utility.yul\":3046:3165   */\n      iszero\n      tag_200\n      jumpi\n        /* \"#utility.yul\":3084:3163   */\n      tag_201\n      tag_131\n      jump\t// in\n    tag_201:\n        /* \"#utility.yul\":3046:3165   */\n    tag_200:\n        /* \"#utility.yul\":3204:3205   */\n      0x00\n        /* \"#utility.yul\":3229:3282   */\n      tag_202\n        /* \"#utility.yul\":3274:3281   */\n      dup5\n        /* \"#utility.yul\":3265:3271   */\n      dup3\n        /* \"#utility.yul\":3254:3263   */\n      dup6\n        /* \"#utility.yul\":3250:3272   */\n      add\n        /* \"#utility.yul\":3229:3282   */\n      tag_134\n      jump\t// in\n    tag_202:\n        /* \"#utility.yul\":3219:3282   */\n      swap2\n      pop\n        /* \"#utility.yul\":3175:3292   */\n      pop\n        /* \"#utility.yul\":2970:3299   */\n      swap3\n      swap2\n      pop\n      pop\n      jump\t// out\n        /* \"#utility.yul\":3305:3422   */\n    tag_135:\n        /* \"#utility.yul\":3414:3415   */\n      0x00\n        /* \"#utility.yul\":3411:3412   */\n      dup1\n        /* \"#utility.yul\":3404:3416   */\n      revert\n        /* \"#utility.yul\":3428:3545   */\n    tag_136:\n        /* \"#utility.yul\":3537:3538   */\n      0x00\n        /* \"#utility.yul\":3534:3535   */\n      dup1\n        /* \"#utility.yul\":3527:3539   */\n      revert\n        /* \"#utility.yul\":3551:3731   */\n    tag_91:\n        /* \"#utility.yul\":3599:3676   */\n      0x4e487b7100000000000000000000000000000000000000000000000000000000\n        /* \"#utility.yul\":3596:3597   */\n      0x00\n        /* \"#utility.yul\":3589:3677   */\n      mstore\n        /* \"#utility.yul\":3696:3700   */\n      0x41\n        /* \"#utility.yul\":3693:3694   */\n      0x04\n        /* \"#utility.yul\":3686:3701   */\n      mstore\n        /* \"#utility.yul\":3720:3724   */\n      0x24\n        /* \"#utility.yul\":3717:3718   */\n      0x00\n        /* \"#utility.yul\":3710:3725   */\n      revert\n        /* \"#utility.yul\":3737:4018   */\n    tag_137:\n        /* \"#utility.yul\":3820:3847   */\n      tag_207\n        /* \"#utility.yul\":3842:3846   */\n      dup3\n        /* \"#utility.yul\":3820:3847   */\n      tag_123\n      jump\t// in\n    tag_207:\n        /* \"#utility.yul\":3812:3818   */\n      dup2\n        /* \"#utility.yul\":3808:3848   */\n      add\n        /* \"#utility.yul\":3950:3956   */\n      dup2\n        /* \"#utility.yul\":3938:3948   */\n      dup2\n        /* \"#utility.yul\":3935:3957   */\n      lt\n        /* \"#utility.yul\":3914:3932   */\n      0xffffffffffffffff\n        /* \"#utility.yul\":3902:3912   */\n      dup3\n        /* \"#utility.yul\":3899:3933   */\n      gt\n        /* \"#utility.yul\":3896:3958   */\n      or\n        /* \"#utility.yul\":3893:3981   */\n      iszero\n      tag_208\n      jumpi\n        /* \"#utility.yul\":3961:3979   */\n      tag_209\n      tag_91\n      jump\t// in\n    tag_209:\n        /* \"#utility.yul\":3893:3981   */\n    tag_208:\n        /* \"#utility.yul\":4001:4011   */\n      dup1\n        /* \"#utility.yul\":3997:3999   */\n      0x40\n        /* \"#utility.yul\":3990:4012   */\n      mstore\n        /* \"#utility.yul\":3780:4018   */\n      pop\n        /* \"#utility.yul\":3737:4018   */\n      pop\n      pop\n      jump\t// out\n        /* \"#utility.yul\":4024:4153   */\n    tag_138:\n        /* \"#utility.yul\":4058:4064   */\n      0x00\n        /* \"#utility.yul\":4085:4105   */\n      tag_211\n      tag_130\n      jump\t// in\n    tag_211:\n        /* \"#utility.yul\":4075:4105   */\n      swap1\n      pop\n        /* \"#utility.yul\":4114:4147   */\n      tag_212\n        /* \"#utility.yul\":4142:4146   */\n      dup3\n        /* \"#utility.yul\":4134:4140   */\n      dup3\n        /* \"#utility.yul\":4114:4147   */\n      tag_137\n      jump\t// in\n    tag_212:\n        /* \"#utility.yul\":4024:4153   */\n      swap2\n      swap1\n      pop\n      jump\t// out\n        /* \"#utility.yul\":4159:4467   */\n    tag_139:\n        /* \"#utility.yul\":4221:4225   */\n      0x00\n        /* \"#utility.yul\":4311:4329   */\n      0xffffffffffffffff\n        /* \"#utility.yul\":4303:4309   */\n      dup3\n        /* \"#utility.yul\":4300:4330   */\n      gt\n        /* \"#utility.yul\":4297:4353   */\n      iszero\n      tag_214\n      jumpi\n        /* \"#utility.yul\":4333:4351   */\n      tag_215\n      tag_91\n      jump\t// in\n    tag_215:\n        /* \"#utility.yul\":4297:4353   */\n    tag_214:\n        /* \"#utility.yul\":4371:4400   */\n      tag_216\n        /* \"#utility.yul\":4393:4399   */\n      dup3\n        /* \"#utility.yul\":4371:4400   */\n      tag_123\n      jump\t// in\n    tag_216:\n        /* \"#utility.yul\":4363:4400   */\n      swap1\n      pop\n        /* \"#utility.yul\":4455:4459   */\n      0x20\n        /* \"#utility.yul\":4449:4453   */\n      dup2\n        /* \"#utility.yul\":4445:4460   */\n      add\n        /* \"#utility.yul\":4437:4460   */\n      swap1\n      pop\n        /* \"#utility.yul\":4159:4467   */\n      swap2\n      swap1\n      pop\n      jump\t// out\n        /* \"#utility.yul\":4473:4619   */\n    tag_140:\n        /* \"#utility.yul\":4570:4576   */\n      dup3\n        /* \"#utility.yul\":4565:4568   */\n      dup2\n        /* \"#utility.yul\":4560:4563   */\n      dup4\n        /* \"#utility.yul\":4547:4577   */\n      calldatacopy\n        /* \"#utility.yul\":4611:4612   */\n      0x00\n        /* \"#utility.yul\":4602:4608   */\n      dup4\n        /* \"#utility.yul\":4597:4600   */\n      dup4\n        /* \"#utility.yul\":4593:4609   */\n      add\n        /* \"#utility.yul\":4586:4613   */\n      mstore\n        /* \"#utility.yul\":4473:4619   */\n      pop\n      pop\n      pop\n      jump\t// out\n        /* \"#utility.yul\":4625:5050   */\n    tag_141:\n        /* \"#utility.yul\":4703:4708   */\n      0x00\n        /* \"#utility.yul\":4728:4794   */\n      tag_219\n        /* \"#utility.yul\":4744:4793   */\n      tag_220\n        /* \"#utility.yul\":4786:4792   */\n      dup5\n        /* \"#utility.yul\":4744:4793   */\n      tag_139\n      jump\t// in\n    tag_220:\n        /* \"#utility.yul\":4728:4794   */\n      tag_138\n      jump\t// in\n    tag_219:\n        /* \"#utility.yul\":4719:4794   */\n      swap1\n      pop\n        /* \"#utility.yul\":4817:4823   */\n      dup3\n        /* \"#utility.yul\":4810:4815   */\n      dup2\n        /* \"#utility.yul\":4803:4824   */\n      mstore\n        /* \"#utility.yul\":4855:4859   */\n      0x20\n        /* \"#utility.yul\":4848:4853   */\n      dup2\n        /* \"#utility.yul\":4844:4860   */\n      add\n        /* \"#utility.yul\":4893:4896   */\n      dup5\n        /* \"#utility.yul\":4884:4890   */\n      dup5\n        /* \"#utility.yul\":4879:4882   */\n      dup5\n        /* \"#utility.yul\":4875:4891   */\n      add\n        /* \"#utility.yul\":4872:4897   */\n      gt\n        /* \"#utility.yul\":4869:4981   */\n      iszero\n      tag_221\n      jumpi\n        /* \"#utility.yul\":4900:4979   */\n      tag_222\n      tag_136\n      jump\t// in\n    tag_222:\n        /* \"#utility.yul\":4869:4981   */\n    tag_221:\n        /* \"#utility.yul\":4990:5044   */\n      tag_223\n        /* \"#utility.yul\":5037:5043   */\n      dup5\n        /* \"#utility.yul\":5032:5035   */\n      dup3\n        /* \"#utility.yul\":5027:5030   */\n      dup6\n        /* \"#utility.yul\":4990:5044   */\n      tag_140\n      jump\t// in\n    tag_223:\n        /* \"#utility.yul\":4709:5050   */\n      pop\n        /* \"#utility.yul\":4625:5050   */\n      swap4\n      swap3\n      pop\n      pop\n      pop\n      jump\t// out\n        /* \"#utility.yul\":5070:5410   */\n    tag_142:\n        /* \"#utility.yul\":5126:5131   */\n      0x00\n        /* \"#utility.yul\":5175:5178   */\n      dup3\n        /* \"#utility.yul\":5168:5172   */\n      0x1f\n        /* \"#utility.yul\":5160:5166   */\n      dup4\n        /* \"#utility.yul\":5156:5173   */\n      add\n        /* \"#utility.yul\":5152:5179   */\n      slt\n        /* \"#utility.yul\":5142:5264   */\n      tag_225\n      jumpi\n        /* \"#utility.yul\":5183:5262   */\n      tag_226\n      tag_135\n      jump\t// in\n    tag_226:\n        /* \"#utility.yul\":5142:5264   */\n    tag_225:\n        /* \"#utility.yul\":5300:5306   */\n      dup2\n        /* \"#utility.yul\":5287:5307   */\n      calldataload\n        /* \"#utility.yul\":5325:5404   */\n      tag_227\n        /* \"#utility.yul\":5400:5403   */\n      dup5\n        /* \"#utility.yul\":5392:5398   */\n      dup3\n        /* \"#utility.yul\":5385:5389   */\n      0x20\n        /* \"#utility.yul\":5377:5383   */\n      dup7\n        /* \"#utility.yul\":5373:5390   */\n      add\n        /* \"#utility.yul\":5325:5404   */\n      tag_141\n      jump\t// in\n    tag_227:\n        /* \"#utility.yul\":5316:5404   */\n      swap2\n      pop\n        /* \"#utility.yul\":5132:5410   */\n      pop\n        /* \"#utility.yul\":5070:5410   */\n      swap3\n      swap2\n      pop\n      pop\n      jump\t// out\n        /* \"#utility.yul\":5416:5925   */\n    tag_41:\n        /* \"#utility.yul\":5485:5491   */\n      0x00\n        /* \"#utility.yul\":5534:5536   */\n      0x20\n        /* \"#utility.yul\":5522:5531   */\n      dup3\n        /* \"#utility.yul\":5513:5520   */\n      dup5\n        /* \"#utility.yul\":5509:5532   */\n      sub\n        /* \"#utility.yul\":5505:5537   */\n      slt\n        /* \"#utility.yul\":5502:5621   */\n      iszero\n      tag_229\n      jumpi\n        /* \"#utility.yul\":5540:5619   */\n      tag_230\n      tag_131\n      jump\t// in\n    tag_230:\n        /* \"#utility.yul\":5502:5621   */\n    tag_229:\n        /* \"#utility.yul\":5688:5689   */\n      0x00\n        /* \"#utility.yul\":5677:5686   */\n      dup3\n        /* \"#utility.yul\":5673:5690   */\n      add\n        /* \"#utility.yul\":5660:5691   */\n      calldataload\n        /* \"#utility.yul\":5718:5736   */\n      0xffffffffffffffff\n        /* \"#utility.yul\":5710:5716   */\n      dup2\n        /* \"#utility.yul\":5707:5737   */\n      gt\n        /* \"#utility.yul\":5704:5821   */\n      iszero\n      tag_231\n      jumpi\n        /* \"#utility.yul\":5740:5819   */\n      tag_232\n      tag_132\n      jump\t// in\n    tag_232:\n        /* \"#utility.yul\":5704:5821   */\n    tag_231:\n        /* \"#utility.yul\":5845:5908   */\n      tag_233\n        /* \"#utility.yul\":5900:5907   */\n      dup5\n        /* \"#utility.yul\":5891:5897   */\n      dup3\n        /* \"#utility.yul\":5880:5889   */\n      dup6\n        /* \"#utility.yul\":5876:5898   */\n      add\n        /* \"#utility.yul\":5845:5908   */\n      tag_142\n      jump\t// in\n    tag_233:\n        /* \"#utility.yul\":5835:5908   */\n      swap2\n      pop\n        /* \"#utility.yul\":5631:5918   */\n      pop\n        /* \"#utility.yul\":5416:5925   */\n      swap3\n      swap2\n      pop\n      pop\n      jump\t// out\n        /* \"#utility.yul\":5931:6053   */\n    tag_143:\n        /* \"#utility.yul\":6004:6028   */\n      tag_235\n        /* \"#utility.yul\":6022:6027   */\n      dup2\n        /* \"#utility.yul\":6004:6028   */\n      tag_126\n      jump\t// in\n    tag_235:\n        /* \"#utility.yul\":5997:6002   */\n      dup2\n        /* \"#utility.yul\":5994:6029   */\n      eq\n        /* \"#utility.yul\":5984:6047   */\n      tag_236\n      jumpi\n        /* \"#utility.yul\":6043:6044   */\n      0x00\n        /* \"#utility.yul\":6040:6041   */\n      dup1\n        /* \"#utility.yul\":6033:6045   */\n      revert\n        /* \"#utility.yul\":5984:6047   */\n    tag_236:\n        /* \"#utility.yul\":5931:6053   */\n      pop\n      jump\t// out\n        /* \"#utility.yul\":6059:6198   */\n    tag_144:\n        /* \"#utility.yul\":6105:6110   */\n      0x00\n        /* \"#utility.yul\":6143:6149   */\n      dup2\n        /* \"#utility.yul\":6130:6150   */\n      calldataload\n        /* \"#utility.yul\":6121:6150   */\n      swap1\n      pop\n        /* \"#utility.yul\":6159:6192   */\n      tag_238\n        /* \"#utility.yul\":6186:6191   */\n      dup2\n        /* \"#utility.yul\":6159:6192   */\n      tag_143\n      jump\t// in\n    tag_238:\n        /* \"#utility.yul\":6059:6198   */\n      swap3\n      swap2\n      pop\n      pop\n      jump\t// out\n        /* \"#utility.yul\":6204:6533   */\n    tag_45:\n        /* \"#utility.yul\":6263:6269   */\n      0x00\n        /* \"#utility.yul\":6312:6314   */\n      0x20\n        /* \"#utility.yul\":6300:6309   */\n      dup3\n        /* \"#utility.yul\":6291:6298   */\n      dup5\n        /* \"#utility.yul\":6287:6310   */\n      sub\n        /* \"#utility.yul\":6283:6315   */\n      slt\n        /* \"#utility.yul\":6280:6399   */\n      iszero\n      tag_240\n      jumpi\n        /* \"#utility.yul\":6318:6397   */\n      tag_241\n      tag_131\n      jump\t// in\n    tag_241:\n        /* \"#utility.yul\":6280:6399   */\n    tag_240:\n        /* \"#utility.yul\":6438:6439   */\n      0x00\n        /* \"#utility.yul\":6463:6516   */\n      tag_242\n        /* \"#utility.yul\":6508:6515   */\n      dup5\n        /* \"#utility.yul\":6499:6505   */\n      dup3\n        /* \"#utility.yul\":6488:6497   */\n      dup6\n        /* \"#utility.yul\":6484:6506   */\n      add\n        /* \"#utility.yul\":6463:6516   */\n      tag_144\n      jump\t// in\n    tag_242:\n        /* \"#utility.yul\":6453:6516   */\n      swap2\n      pop\n        /* \"#utility.yul\":6409:6526   */\n      pop\n        /* \"#utility.yul\":6204:6533   */\n      swap3\n      swap2\n      pop\n      pop\n      jump\t// out\n        /* \"#utility.yul\":6539:6719   */\n    tag_145:\n        /* \"#utility.yul\":6587:6664   */\n      0x4e487b7100000000000000000000000000000000000000000000000000000000\n        /* \"#utility.yul\":6584:6585   */\n      0x00\n        /* \"#utility.yul\":6577:6665   */\n      mstore\n        /* \"#utility.yul\":6684:6688   */\n      0x22\n        /* \"#utility.yul\":6681:6682   */\n      0x04\n        /* \"#utility.yul\":6674:6689   */\n      mstore\n        /* \"#utility.yul\":6708:6712   */\n      0x24\n        /* \"#utility.yul\":6705:6706   */\n      0x00\n        /* \"#utility.yul\":6698:6713   */\n      revert\n        /* \"#utility.yul\":6725:7045   */\n    tag_61:\n        /* \"#utility.yul\":6769:6775   */\n      0x00\n        /* \"#utility.yul\":6806:6807   */\n      0x02\n        /* \"#utility.yul\":6800:6804   */\n      dup3\n        /* \"#utility.yul\":6796:6808   */\n      div\n        /* \"#utility.yul\":6786:6808   */\n      swap1\n      pop\n        /* \"#utility.yul\":6853:6854   */\n      0x01\n        /* \"#utility.yul\":6847:6851   */\n      dup3\n        /* \"#utility.yul\":6843:6855   */\n      and\n        /* \"#utility.yul\":6874:6892   */\n      dup1\n        /* \"#utility.yul\":6864:6945   */\n      tag_245\n      jumpi\n        /* \"#utility.yul\":6930:6934   */\n      0x7f\n        /* \"#utility.yul\":6922:6928   */\n      dup3\n        /* \"#utility.yul\":6918:6935   */\n      and\n        /* \"#utility.yul\":6908:6935   */\n      swap2\n      pop\n        /* \"#utility.yul\":6864:6945   */\n    tag_245:\n        /* \"#utility.yul\":6992:6994   */\n      0x20\n        /* \"#utility.yul\":6984:6990   */\n      dup3\n        /* \"#utility.yul\":6981:6995   */\n      lt\n        /* \"#utility.yul\":6961:6979   */\n      dup2\n        /* \"#utility.yul\":6958:6996   */\n      sub\n        /* \"#utility.yul\":6955:7039   */\n      tag_246\n      jumpi\n        /* \"#utility.yul\":7011:7029   */\n      tag_247\n      tag_145\n      jump\t// in\n    tag_247:\n        /* \"#utility.yul\":6955:7039   */\n    tag_246:\n        /* \"#utility.yul\":6776:7045   */\n      pop\n        /* \"#utility.yul\":6725:7045   */\n      swap2\n      swap1\n      pop\n      jump\t// out\n        /* \"#utility.yul\":7051:7192   */\n    tag_146:\n        /* \"#utility.yul\":7100:7104   */\n      0x00\n        /* \"#utility.yul\":7123:7126   */\n      dup2\n        /* \"#utility.yul\":7115:7126   */\n      swap1\n      pop\n        /* \"#utility.yul\":7146:7149   */\n      dup2\n        /* \"#utility.yul\":7143:7144   */\n      0x00\n        /* \"#utility.yul\":7136:7150   */\n      mstore\n        /* \"#utility.yul\":7180:7184   */\n      0x20\n        /* \"#utility.yul\":7177:7178   */\n      0x00\n        /* \"#utility.yul\":7167:7185   */\n      keccak256\n        /* \"#utility.yul\":7159:7185   */\n      swap1\n      pop\n        /* \"#utility.yul\":7051:7192   */\n      swap2\n      swap1\n      pop\n      jump\t// out\n        /* \"#utility.yul\":7198:7291   */\n    tag_147:\n        /* \"#utility.yul\":7235:7241   */\n      0x00\n        /* \"#utility.yul\":7282:7284   */\n      0x20\n        /* \"#utility.yul\":7277:7279   */\n      0x1f\n        /* \"#utility.yul\":7270:7275   */\n      dup4\n        /* \"#utility.yul\":7266:7280   */\n      add\n        /* \"#utility.yul\":7262:7285   */\n      div\n        /* \"#utility.yul\":7252:7285   */\n      swap1\n      pop\n        /* \"#utility.yul\":7198:7291   */\n      swap2\n      swap1\n      pop\n      jump\t// out\n        /* \"#utility.yul\":7297:7404   */\n    tag_148:\n        /* \"#utility.yul\":7341:7349   */\n      0x00\n        /* \"#utility.yul\":7391:7396   */\n      dup3\n        /* \"#utility.yul\":7385:7389   */\n      dup3\n        /* \"#utility.yul\":7381:7397   */\n      shl\n        /* \"#utility.yul\":7360:7397   */\n      swap1\n      pop\n        /* \"#utility.yul\":7297:7404   */\n      swap3\n      swap2\n      pop\n      pop\n      jump\t// out\n        /* \"#utility.yul\":7410:7803   */\n    tag_149:\n        /* \"#utility.yul\":7479:7485   */\n      0x00\n        /* \"#utility.yul\":7529:7530   */\n      0x08\n        /* \"#utility.yul\":7517:7527   */\n      dup4\n        /* \"#utility.yul\":7513:7531   */\n      mul\n        /* \"#utility.yul\":7552:7649   */\n      tag_252\n        /* \"#utility.yul\":7582:7648   */\n      0xffffffffffffffffffffffffffffffffffffffffffffffffffffffffffffffff\n        /* \"#utility.yul\":7571:7580   */\n      dup3\n        /* \"#utility.yul\":7552:7649   */\n      tag_148\n      jump\t// in\n    tag_252:\n        /* \"#utility.yul\":7670:7709   */\n      tag_253\n        /* \"#utility.yul\":7700:7708   */\n      dup7\n        /* \"#utility.yul\":7689:7698   */\n      dup4\n        /* \"#utility.yul\":7670:7709   */\n      tag_148\n      jump\t// in\n    tag_253:\n        /* \"#utility.yul\":7658:7709   */\n      swap6\n      pop\n        /* \"#utility.yul\":7742:7746   */\n      dup1\n        /* \"#utility.yul\":7738:7747   */\n      not\n        /* \"#utility.yul\":7731:7736   */\n      dup5\n        /* \"#utility.yul\":7727:7748   */\n      and\n        /* \"#utility.yul\":7718:7748   */\n      swap4\n      pop\n        /* \"#utility.yul\":7791:7795   */\n      dup1\n        /* \"#utility.yul\":7781:7789   */\n      dup7\n        /* \"#utility.yul\":7777:7796   */\n      and\n        /* \"#utility.yul\":7770:7775   */\n      dup5\n        /* \"#utility.yul\":7767:7797   */\n      or\n        /* \"#utility.yul\":7757:7797   */\n      swap3\n      pop\n        /* \"#utility.yul\":7486:7803   */\n      pop\n      pop\n        /* \"#utility.yul\":7410:7803   */\n      swap4\n      swap3\n      pop\n      pop\n      pop\n      jump\t// out\n        /* \"#utility.yul\":7809:7869   */\n    tag_150:\n        /* \"#utility.yul\":7837:7840   */\n      0x00\n        /* \"#utility.yul\":7858:7863   */\n      dup2\n        /* \"#utility.yul\":7851:7863   */\n      swap1\n      pop\n        /* \"#utility.yul\":7809:7869   */\n      swap2\n      swap1\n      pop\n      jump\t// out\n        /* \"#utility.yul\":7875:8017   */\n    tag_151:\n        /* \"#utility.yul\":7925:7934   */\n      0x00\n        /* \"#utility.yul\":7958:8011   */\n      tag_256\n        /* \"#utility.yul\":7976:8010   */\n      tag_257\n        /* \"#utility.yul\":7985:8009   */\n      tag_258\n        /* \"#utility.yul\":8003:8008   */\n      dup5\n        /* \"#utility.yul\":7985:8009   */\n      tag_128\n      jump\t// in\n    tag_258:\n        /* \"#utility.yul\":7976:8010   */\n      tag_150\n      jump\t// in\n    tag_257:\n        /* \"#utility.yul\":7958:8011   */\n      tag_128\n      jump\t// in\n    tag_256:\n        /* \"#utility.yul\":7945:8011   */\n      swap1\n      pop\n        /* \"#utility.yul\":7875:8017   */\n      swap2\n      swap1\n      pop\n      jump\t// out\n        /* \"#utility.yul\":8023:8098   */\n    tag_152:\n        /* \"#utility.yul\":8066:8069   */\n      0x00\n        /* \"#utility.yul\":8087:8092   */\n      dup2\n        /* \"#utility.yul\":8080:8092   */\n      swap1\n      pop\n        /* \"#utility.yul\":8023:8098   */\n      swap2\n      swap1\n      pop\n      jump\t// out\n        /* \"#utility.yul\":8104:8373   */\n    tag_153:\n        /* \"#utility.yul\":8214:8253   */\n      tag_261\n        /* \"#utility.yul\":8245:8252   */\n      dup4\n        /* \"#utility.yul\":8214:8253   */\n      tag_151\n      jump\t// in\n    tag_261:\n        /* \"#utility.yul\":8275:8366   */\n      tag_262\n        /* \"#utility.yul\":8324:8365   */\n      tag_263\n        /* \"#utility.yul\":8348:8364   */\n      dup3\n        /* \"#utility.yul\":8324:8365   */\n      tag_152\n      jump\t// in\n    tag_263:\n        /* \"#utility.yul\":8316:8322   */\n      dup5\n        /* \"#utility.yul\":8309:8313   */\n      dup5\n        /* \"#utility.yul\":8303:8314   */\n      sload\n        /* \"#utility.yul\":8275:8366   */\n      tag_149\n      jump\t// in\n    tag_262:\n        /* \"#utility.yul\":8269:8273   */\n      dup3\n        /* \"#utility.yul\":8262:8367   */\n      sstore\n        /* \"#utility.yul\":8180:8373   */\n      pop\n        /* \"#utility.yul\":8104:8373   */\n      pop\n      pop\n      pop\n      jump\t// out\n        /* \"#utility.yul\":8379:8452   */\n    tag_154:\n        /* \"#utility.yul\":8424:8427   */\n      0x00\n        /* \"#utility.yul\":8379:8452   */\n      swap1\n      jump\t// out\n        /* \"#utility.yul\":8458:8647   */\n    tag_155:\n        /* \"#utility.yul\":8535:8567   */\n      tag_266\n      tag_154\n      jump\t// in\n    tag_266:\n        /* \"#utility.yul\":8576:8641   */\n      tag_267\n        /* \"#utility.yul\":8634:8640   */\n      dup2\n        /* \"#utility.yul\":8626:8632   */\n      dup5\n        /* \"#utility.yul\":8620:8624   */\n      dup5\n        /* \"#utility.yul\":8576:8641   */\n      tag_153\n      jump\t// in\n    tag_267:\n        /* \"#utility.yul\":8511:8647   */\n      pop\n        /* \"#utility.yul\":8458:8647   */\n      pop\n      pop\n      jump\t// out\n        /* \"#utility.yul\":8653:8839   */\n    tag_156:\n        /* \"#utility.yul\":8713:8833   */\n    tag_269:\n        /* \"#utility.yul\":8730:8733   */\n      dup2\n        /* \"#utility.yul\":8723:8728   */\n      dup2\n        /* \"#utility.yul\":8720:8734   */\n      lt\n        /* \"#utility.yul\":8713:8833   */\n      iszero\n      tag_271\n      jumpi\n        /* \"#utility.yul\":8784:8823   */\n      tag_272\n        /* \"#utility.yul\":8821:8822   */\n      0x00\n        /* \"#utility.yul\":8814:8819   */\n      dup3\n        /* \"#utility.yul\":8784:8823   */\n      tag_155\n      jump\t// in\n    tag_272:\n        /* \"#utility.yul\":8757:8758   */\n      0x01\n        /* \"#utility.yul\":8750:8755   */\n      dup2\n        /* \"#utility.yul\":8746:8759   */\n      add\n        /* \"#utility.yul\":8737:8759   */\n      swap1\n      pop\n        /* \"#utility.yul\":8713:8833   */\n      jump(tag_269)\n    tag_271:\n        /* \"#utility.yul\":8653:8839   */\n      pop\n      pop\n      jump\t// out\n        /* \"#utility.yul\":8845:9388   */\n    tag_157:\n        /* \"#utility.yul\":8946:8948   */\n      0x1f\n        /* \"#utility.yul\":8941:8944   */\n      dup3\n        /* \"#utility.yul\":8938:8949   */\n      gt\n        /* \"#utility.yul\":8935:9381   */\n      iszero\n      tag_274\n      jumpi\n        /* \"#utility.yul\":8980:9018   */\n      tag_275\n        /* \"#utility.yul\":9012:9017   */\n      dup2\n        /* \"#utility.yul\":8980:9018   */\n      tag_146\n      jump\t// in\n    tag_275:\n        /* \"#utility.yul\":9064:9093   */\n      tag_276\n        /* \"#utility.yul\":9082:9092   */\n      dup5\n        /* \"#utility.yul\":9064:9093   */\n      tag_147\n      jump\t// in\n    tag_276:\n        /* \"#utility.yul\":9054:9062   */\n      dup2\n        /* \"#utility.yul\":9050:9094   */\n      add\n        /* \"#utility.yul\":9247:9249   */\n      0x20\n        /* \"#utility.yul\":9235:9245   */\n      dup6\n        /* \"#utility.yul\":9232:9250   */\n      lt\n        /* \"#utility.yul\":9229:9278   */\n      iszero\n      tag_277\n      jumpi\n        /* \"#utility.yul\":9268:9276   */\n      dup2\n        /* \"#utility.yul\":9253:9276   */\n      swap1\n      pop\n        /* \"#utility.yul\":9229:9278   */\n    tag_277:\n        /* \"#utility.yul\":9291:9371   */\n      tag_278\n        /* \"#utility.yul\":9347:9369   */\n      tag_279\n        /* \"#utility.yul\":9365:9368   */\n      dup6\n        /* \"#utility.yul\":9347:9369   */\n      tag_147\n      jump\t// in\n    tag_279:\n        /* \"#utility.yul\":9337:9345   */\n      dup4\n        /* \"#utility.yul\":9333:9370   */\n      add\n        /* \"#utility.yul\":9320:9331   */\n      dup3\n        /* \"#utility.yul\":9291:9371   */\n      tag_156\n      jump\t// in\n    tag_278:\n        /* \"#utility.yul\":8950:9381   */\n      pop\n      pop\n        /* \"#utility.yul\":8935:9381   */\n    tag_274:\n        /* \"#utility.yul\":8845:9388   */\n      pop\n      pop\n      pop\n      jump\t// out\n        /* \"#utility.yul\":9394:9511   */\n    tag_158:\n        /* \"#utility.yul\":9448:9456   */\n      0x00\n        /* \"#utility.yul\":9498:9503   */\n      dup3\n        /* \"#utility.yul\":9492:9496   */\n      dup3\n        /* \"#utility.yul\":9488:9504   */\n      shr\n        /* \"#utility.yul\":9467:9504   */\n      swap1\n      pop\n        /* \"#utility.yul\":9394:9511   */\n      swap3\n      swap2\n      pop\n      pop\n      jump\t// out\n        /* \"#utility.yul\":9517:9686   */\n    tag_159:\n        /* \"#utility.yul\":9561:9567   */\n      0x00\n        /* \"#utility.yul\":9594:9645   */\n      tag_282\n        /* \"#utility.yul\":9642:9643   */\n      0x00\n        /* \"#utility.yul\":9638:9644   */\n      not\n        /* \"#utility.yul\":9630:9635   */\n      dup5\n        /* \"#utility.yul\":9627:9628   */\n      0x08\n        /* \"#utility.yul\":9623:9636   */\n      mul\n        /* \"#utility.yul\":9594:9645   */\n      tag_158\n      jump\t// in\n    tag_282:\n        /* \"#utility.yul\":9590:9646   */\n      not\n        /* \"#utility.yul\":9675:9679   */\n      dup1\n        /* \"#utility.yul\":9669:9673   */\n      dup4\n        /* \"#utility.yul\":9665:9680   */\n      and\n        /* \"#utility.yul\":9655:9680   */\n      swap2\n      pop\n        /* \"#utility.yul\":9568:9686   */\n      pop\n        /* \"#utility.yul\":9517:9686   */\n      swap3\n      swap2\n      pop\n      pop\n      jump\t// out\n        /* \"#utility.yul\":9691:9986   */\n    tag_160:\n        /* \"#utility.yul\":9767:9771   */\n      0x00\n        /* \"#utility.yul\":9913:9942   */\n      tag_284\n        /* \"#utility.yul\":9938:9941   */\n      dup4\n        /* \"#utility.yul\":9932:9936   */\n      dup4\n        /* \"#utility.yul\":9913:9942   */\n      tag_159\n      jump\t// in\n    tag_284:\n        /* \"#utility.yul\":9905:9942   */\n      swap2\n      pop\n        /* \"#utility.yul\":9975:9978   */\n      dup3\n        /* \"#utility.yul\":9972:9973   */\n      0x02\n        /* \"#utility.yul\":9968:9979   */\n      mul\n        /* \"#utility.yul\":9962:9966   */\n      dup3\n        /* \"#utility.yul\":9959:9980   */\n      or\n        /* \"#utility.yul\":9951:9980   */\n      swap1\n      pop\n        /* \"#utility.yul\":9691:9986   */\n      swap3\n      swap2\n      pop\n      pop\n      jump\t// out\n        /* \"#utility.yul\":9991:11386   */\n    tag_73:\n        /* \"#utility.yul\":10108:10145   */\n      tag_286\n        /* \"#utility.yul\":10141:10144   */\n      dup3\n        /* \"#utility.yul\":10108:10145   */\n      tag_120\n      jump\t// in\n    tag_286:\n        /* \"#utility.yul\":10210:10228   */\n      0xffffffffffffffff\n        /* \"#utility.yul\":10202:10208   */\n      dup2\n        /* \"#utility.yul\":10199:10229   */\n      gt\n        /* \"#utility.yul\":10196:10252   */\n      iszero\n      tag_287\n      jumpi\n        /* \"#utility.yul\":10232:10250   */\n      tag_288\n      tag_91\n      jump\t// in\n    tag_288:\n        /* \"#utility.yul\":10196:10252   */\n    tag_287:\n        /* \"#utility.yul\":10276:10314   */\n      tag_289\n        /* \"#utility.yul\":10308:10312   */\n      dup3\n        /* \"#utility.yul\":10302:10313   */\n      sload\n        /* \"#utility.yul\":10276:10314   */\n      tag_61\n      jump\t// in\n    tag_289:\n        /* \"#utility.yul\":10361:10428   */\n      tag_290\n        /* \"#utility.yul\":10421:10427   */\n      dup3\n        /* \"#utility.yul\":10413:10419   */\n      dup3\n        /* \"#utility.yul\":10407:10411   */\n      dup6\n        /* \"#utility.yul\":10361:10428   */\n      tag_157\n      jump\t// in\n    tag_290:\n        /* \"#utility.yul\":10455:10456   */\n      0x00\n        /* \"#utility.yul\":10479:10483   */\n      0x20\n        /* \"#utility.yul\":10466:10483   */\n      swap1\n      pop\n        /* \"#utility.yul\":10511:10513   */\n      0x1f\n        /* \"#utility.yul\":10503:10509   */\n      dup4\n        /* \"#utility.yul\":10500:10514   */\n      gt\n        /* \"#utility.yul\":10528:10529   */\n      0x01\n        /* \"#utility.yul\":10523:11141   */\n      dup2\n      eq\n      tag_292\n      jumpi\n        /* \"#utility.yul\":11185:11186   */\n      0x00\n        /* \"#utility.yul\":11202:11208   */\n      dup5\n        /* \"#utility.yul\":11199:11276   */\n      iszero\n      tag_293\n      jumpi\n        /* \"#utility.yul\":11251:11260   */\n      dup3\n        /* \"#utility.yul\":11246:11249   */\n      dup8\n        /* \"#utility.yul\":11242:11261   */\n      add\n        /* \"#utility.yul\":11236:11262   */\n      mload\n        /* \"#utility.yul\":11227:11262   */\n      swap1\n      pop\n        /* \"#utility.yul\":11199:11276   */\n    tag_293:\n        /* \"#utility.yul\":11302:11369   */\n      tag_294\n        /* \"#utility.yul\":11362:11368   */\n      dup6\n        /* \"#utility.yul\":11355:11360   */\n      dup3\n        /* \"#utility.yul\":11302:11369   */\n      tag_160\n      jump\t// in\n    tag_294:\n        /* \"#utility.yul\":11296:11300   */\n      dup7\n        /* \"#utility.yul\":11289:11370   */\n      sstore\n        /* \"#utility.yul\":11158:11380   */\n      pop\n        /* \"#utility.yul\":10493:11380   */\n      jump(tag_291)\n        /* \"#utility.yul\":10523:11141   */\n    tag_292:\n        /* \"#utility.yul\":10575:10579   */\n      0x1f\n        /* \"#utility.yul\":10571:10580   */\n      not\n        /* \"#utility.yul\":10563:10569   */\n      dup5\n        /* \"#utility.yul\":10559:10581   */\n      and\n        /* \"#utility.yul\":10609:10646   */\n      tag_295\n        /* \"#utility.yul\":10641:10645   */\n      dup7\n        /* \"#utility.yul\":10609:10646   */\n      tag_146\n      jump\t// in\n    tag_295:\n        /* \"#utility.yul\":10668:10669   */\n      0x00\n        /* \"#utility.yul\":10682:10890   */\n    tag_296:\n        /* \"#utility.yul\":10696:10703   */\n      dup3\n        /* \"#utility.yul\":10693:10694   */\n      dup2\n        /* \"#utility.yul\":10690:10704   */\n      lt\n        /* \"#utility.yul\":10682:10890   */\n      iszero\n      tag_298\n      jumpi\n        /* \"#utility.yul\":10775:10784   */\n      dup5\n        /* \"#utility.yul\":10770:10773   */\n      dup10\n        /* \"#utility.yul\":10766:10785   */\n      add\n        /* \"#utility.yul\":10760:10786   */\n      mload\n        /* \"#utility.yul\":10752:10758   */\n      dup3\n        /* \"#utility.yul\":10745:10787   */\n      sstore\n        /* \"#utility.yul\":10826:10827   */\n      0x01\n        /* \"#utility.yul\":10818:10824   */\n      dup3\n        /* \"#utility.yul\":10814:10828   */\n      add\n        /* \"#utility.yul\":10804:10828   */\n      swap2\n      pop\n        /* \"#utility.yul\":10873:10875   */\n      0x20\n        /* \"#utility.yul\":10862:10871   */\n      dup6\n        /* \"#utility.yul\":10858:10876   */\n      add\n        /* \"#utility.yul\":10845:10876   */\n      swap5\n      pop\n        /* \"#utility.yul\":10719:10723   */\n      0x20\n        /* \"#utility.yul\":10716:10717   */\n      dup2\n        /* \"#utility.yul\":10712:10724   */\n      add\n        /* \"#utility.yul\":10707:10724   */\n      swap1\n      pop\n        /* \"#utility.yul\":10682:10890   */\n      jump(tag_296)\n    tag_298:\n        /* \"#utility.yul\":10918:10924   */\n      dup7\n        /* \"#utility.yul\":10909:10916   */\n      dup4\n        /* \"#utility.yul\":10906:10925   */\n      lt\n        /* \"#utility.yul\":10903:11082   */\n      iszero\n      tag_299\n      jumpi\n        /* \"#utility.yul\":10976:10985   */\n      dup5\n        /* \"#utility.yul\":10971:10974   */\n      dup10\n        /* \"#utility.yul\":10967:10986   */\n      add\n        /* \"#utility.yul\":10961:10987   */\n      mload\n        /* \"#utility.yul\":11019:11067   */\n      tag_300\n        /* \"#utility.yul\":11061:11065   */\n      0x1f\n        /* \"#utility.yul\":11053:11059   */\n      dup10\n        /* \"#utility.yul\":11049:11066   */\n      and\n        /* \"#utility.yul\":11038:11047   */\n      dup3\n        /* \"#utility.yul\":11019:11067   */\n      tag_159\n      jump\t// in\n    tag_300:\n        /* \"#utility.yul\":11011:11017   */\n      dup4\n        /* \"#utility.yul\":11004:11068   */\n      sstore\n        /* \"#utility.yul\":10926:11082   */\n      pop\n        /* \"#utility.yul\":10903:11082   */\n    tag_299:\n        /* \"#utility.yul\":11128:11129   */\n      0x01\n        /* \"#utility.yul\":11124:11125   */\n      0x02\n        /* \"#utility.yul\":11116:11122   */\n      dup9\n        /* \"#utility.yul\":11112:11126   */\n      mul\n        /* \"#utility.yul\":11108:11130   */\n      add\n        /* \"#utility.yul\":11102:11106   */\n      dup9\n        /* \"#utility.yul\":11095:11131   */\n      sstore\n        /* \"#utility.yul\":10530:11141   */\n      pop\n      pop\n      pop\n        /* \"#utility.yul\":10493:11380   */\n    tag_291:\n      pop\n        /* \"#utility.yul\":10083:11386   */\n      pop\n      pop\n      pop\n        /* \"#utility.yul\":9991:11386   */\n      pop\n      pop\n      jump\t// out\n        /* \"#utility.yul\":11392:11572   */\n    tag_161:\n        /* \"#utility.yul\":11440:11517   */\n      0x4e487b7100000000000000000000000000000000000000000000000000000000\n        /* \"#utility.yul\":11437:11438   */\n      0x00\n        /* \"#utility.yul\":11430:11518   */\n      mstore\n        /* \"#utility.yul\":11537:11541   */\n      0x11\n        /* \"#utility.yul\":11534:11535   */\n      0x04\n        /* \"#utility.yul\":11527:11542   */\n      mstore\n        /* \"#utility.yul\":11561:11565   */\n      0x24\n        /* \"#utility.yul\":11558:11559   */\n      0x00\n        /* \"#utility.yul\":11551:11566   */\n      revert\n        /* \"#utility.yul\":11578:11769   */\n    tag_80:\n        /* \"#utility.yul\":11618:11621   */\n      0x00\n        /* \"#utility.yul\":11637:11657   */\n      tag_303\n        /* \"#utility.yul\":11655:11656   */\n      dup3\n        /* \"#utility.yul\":11637:11657   */\n      tag_128\n      jump\t// in\n    tag_303:\n        /* \"#utility.yul\":11632:11657   */\n      swap2\n      pop\n        /* \"#utility.yul\":11671:11691   */\n      tag_304\n        /* \"#utility.yul\":11689:11690   */\n      dup4\n        /* \"#utility.yul\":11671:11691   */\n      tag_128\n      jump\t// in\n    tag_304:\n        /* \"#utility.yul\":11666:11691   */\n      swap3\n      pop\n        /* \"#utility.yul\":11714:11715   */\n      dup3\n        /* \"#utility.yul\":11711:11712   */\n      dup3\n        /* \"#utility.yul\":11707:11716   */\n      add\n        /* \"#utility.yul\":11700:11716   */\n      swap1\n      pop\n        /* \"#utility.yul\":11735:11738   */\n      dup1\n        /* \"#utility.yul\":11732:11733   */\n      dup3\n        /* \"#utility.yul\":11729:11739   */\n      gt\n        /* \"#utility.yul\":11726:11762   */\n      iszero\n      tag_305\n      jumpi\n        /* \"#utility.yul\":11742:11760   */\n      tag_306\n      tag_161\n      jump\t// in\n    tag_306:\n        /* \"#utility.yul\":11726:11762   */\n    tag_305:\n        /* \"#utility.yul\":11578:11769   */\n      swap3\n      swap2\n      pop\n      pop\n      jump\t// out\n        /* \"#utility.yul\":11775:11928   */\n    tag_162:\n        /* \"#utility.yul\":11828:11834   */\n      0x00\n        /* \"#utility.yul\":11862:11867   */\n      dup2\n        /* \"#utility.yul\":11856:11868   */\n      sload\n        /* \"#utility.yul\":11846:11868   */\n      swap1\n      pop\n        /* \"#utility.yul\":11888:11921   */\n      tag_308\n        /* \"#utility.yul\":11914:11920   */\n      dup2\n        /* \"#utility.yul\":11888:11921   */\n      tag_61\n      jump\t// in\n    tag_308:\n        /* \"#utility.yul\":11878:11921   */\n      swap1\n      pop\n        /* \"#utility.yul\":11775:11928   */\n      swap2\n      swap1\n      pop\n      jump\t// out\n        /* \"#utility.yul\":11934:12079   */\n    tag_163:\n        /* \"#utility.yul\":11987:11991   */\n      0x00\n        /* \"#utility.yul\":12010:12013   */\n      dup2\n        /* \"#utility.yul\":12002:12013   */\n      swap1\n      pop\n        /* \"#utility.yul\":12033:12036   */\n      dup2\n        /* \"#utility.yul\":12030:12031   */\n      0x00\n        /* \"#utility.yul\":12023:12037   */\n      mstore\n        /* \"#utility.yul\":12067:12071   */\n      0x20\n        /* \"#utility.yul\":12064:12065   */\n      0x00\n        /* \"#utility.yul\":12054:12072   */\n      keccak256\n        /* \"#utility.yul\":12046:12072   */\n      swap1\n      pop\n        /* \"#utility.yul\":11934:12079   */\n      swap2\n      swap1\n      pop\n      jump\t// out\n        /* \"#utility.yul\":12085:13548   */\n    tag_85:\n        /* \"#utility.yul\":12200:12203   */\n      dup2\n        /* \"#utility.yul\":12194:12198   */\n      dup2\n        /* \"#utility.yul\":12191:12204   */\n      sub\n        /* \"#utility.yul\":12188:12214   */\n      tag_311\n      jumpi\n        /* \"#utility.yul\":12207:12212   */\n      pop\n      pop\n      jump(tag_310)\n        /* \"#utility.yul\":12188:12214   */\n    tag_311:\n        /* \"#utility.yul\":12238:12276   */\n      tag_312\n        /* \"#utility.yul\":12272:12275   */\n      dup3\n        /* \"#utility.yul\":12238:12276   */\n      tag_162\n      jump\t// in\n    tag_312:\n        /* \"#utility.yul\":12341:12359   */\n      0xffffffffffffffff\n        /* \"#utility.yul\":12333:12339   */\n      dup2\n        /* \"#utility.yul\":12330:12360   */\n      gt\n        /* \"#utility.yul\":12327:12383   */\n      iszero\n      tag_313\n      jumpi\n        /* \"#utility.yul\":12363:12381   */\n      tag_314\n      tag_91\n      jump\t// in\n    tag_314:\n        /* \"#utility.yul\":12327:12383   */\n    tag_313:\n        /* \"#utility.yul\":12407:12445   */\n      tag_315\n        /* \"#utility.yul\":12439:12443   */\n      dup3\n        /* \"#utility.yul\":12433:12444   */\n      sload\n        /* \"#utility.yul\":12407:12445   */\n      tag_61\n      jump\t// in\n    tag_315:\n        /* \"#utility.yul\":12492:12559   */\n      tag_316\n        /* \"#utility.yul\":12552:12558   */\n      dup3\n        /* \"#utility.yul\":12544:12550   */\n      dup3\n        /* \"#utility.yul\":12538:12542   */\n      dup6\n        /* \"#utility.yul\":12492:12559   */\n      tag_157\n      jump\t// in\n    tag_316:\n        /* \"#utility.yul\":12586:12587   */\n      0x00\n        /* \"#utility.yul\":12615:12617   */\n      0x1f\n        /* \"#utility.yul\":12607:12613   */\n      dup4\n        /* \"#utility.yul\":12604:12618   */\n      gt\n        /* \"#utility.yul\":12632:12633   */\n      0x01\n        /* \"#utility.yul\":12627:13303   */\n      dup2\n      eq\n      tag_318\n      jumpi\n        /* \"#utility.yul\":13347:13348   */\n      0x00\n        /* \"#utility.yul\":13364:13370   */\n      dup5\n        /* \"#utility.yul\":13361:13438   */\n      iszero\n      tag_319\n      jumpi\n        /* \"#utility.yul\":13413:13422   */\n      dup3\n        /* \"#utility.yul\":13408:13411   */\n      dup8\n        /* \"#utility.yul\":13404:13423   */\n      add\n        /* \"#utility.yul\":13398:13424   */\n      sload\n        /* \"#utility.yul\":13389:13424   */\n      swap1\n      pop\n        /* \"#utility.yul\":13361:13438   */\n    tag_319:\n        /* \"#utility.yul\":13464:13531   */\n      tag_320\n        /* \"#utility.yul\":13524:13530   */\n      dup6\n        /* \"#utility.yul\":13517:13522   */\n      dup3\n        /* \"#utility.yul\":13464:13531   */\n      tag_160\n      jump\t// in\n    tag_320:\n        /* \"#utility.yul\":13458:13462   */\n      dup7\n        /* \"#utility.yul\":13451:13532   */\n      sstore\n        /* \"#utility.yul\":13320:13542   */\n      pop\n        /* \"#utility.yul\":12597:13542   */\n      jump(tag_317)\n        /* \"#utility.yul\":12627:13303   */\n    tag_318:\n        /* \"#utility.yul\":12679:12683   */\n      0x1f\n        /* \"#utility.yul\":12675:12684   */\n      not\n        /* \"#utility.yul\":12667:12673   */\n      dup5\n        /* \"#utility.yul\":12663:12685   */\n      and\n        /* \"#utility.yul\":12705:12745   */\n      tag_321\n        /* \"#utility.yul\":12741:12744   */\n      dup8\n        /* \"#utility.yul\":12705:12745   */\n      tag_163\n      jump\t// in\n    tag_321:\n        /* \"#utility.yul\":12698:12745   */\n      swap7\n      pop\n        /* \"#utility.yul\":12772:12809   */\n      tag_322\n        /* \"#utility.yul\":12804:12808   */\n      dup7\n        /* \"#utility.yul\":12772:12809   */\n      tag_146\n      jump\t// in\n    tag_322:\n        /* \"#utility.yul\":12831:12832   */\n      0x00\n        /* \"#utility.yul\":12845:13052   */\n    tag_323:\n        /* \"#utility.yul\":12859:12866   */\n      dup3\n        /* \"#utility.yul\":12856:12857   */\n      dup2\n        /* \"#utility.yul\":12853:12867   */\n      lt\n        /* \"#utility.yul\":12845:13052   */\n      iszero\n      tag_325\n      jumpi\n        /* \"#utility.yul\":12938:12947   */\n      dup5\n        /* \"#utility.yul\":12933:12936   */\n      dup10\n        /* \"#utility.yul\":12929:12948   */\n      add\n        /* \"#utility.yul\":12923:12949   */\n      sload\n        /* \"#utility.yul\":12915:12921   */\n      dup3\n        /* \"#utility.yul\":12908:12950   */\n      sstore\n        /* \"#utility.yul\":12989:12990   */\n      0x01\n        /* \"#utility.yul\":12981:12987   */\n      dup3\n        /* \"#utility.yul\":12977:12991   */\n      add\n        /* \"#utility.yul\":12967:12991   */\n      swap2\n      pop\n        /* \"#utility.yul\":13036:13037   */\n      0x01\n        /* \"#utility.yul\":13025:13034   */\n      dup6\n        /* \"#utility.yul\":13021:13038   */\n      add\n        /* \"#utility.yul\":13008:13038   */\n      swap5\n      pop\n        /* \"#utility.yul\":12882:12886   */\n      0x20\n        /* \"#utility.yul\":12879:12880   */\n      dup2\n        /* \"#utility.yul\":12875:12887   */\n      add\n        /* \"#utility.yul\":12870:12887   */\n      swap1\n      pop\n        /* \"#utility.yul\":12845:13052   */\n      jump(tag_323)\n    tag_325:\n        /* \"#utility.yul\":13080:13086   */\n      dup7\n        /* \"#utility.yul\":13071:13078   */\n      dup4\n        /* \"#utility.yul\":13068:13087   */\n      lt\n        /* \"#utility.yul\":13065:13244   */\n      iszero\n      tag_326\n      jumpi\n        /* \"#utility.yul\":13138:13147   */\n      dup5\n        /* \"#utility.yul\":13133:13136   */\n      dup10\n        /* \"#utility.yul\":13129:13148   */\n      add\n        /* \"#utility.yul\":13123:13149   */\n      sload\n        /* \"#utility.yul\":13181:13229   */\n      tag_327\n        /* \"#utility.yul\":13223:13227   */\n      0x1f\n        /* \"#utility.yul\":13215:13221   */\n      dup10\n        /* \"#utility.yul\":13211:13228   */\n      and\n        /* \"#utility.yul\":13200:13209   */\n      dup3\n        /* \"#utility.yul\":13181:13229   */\n      tag_159\n      jump\t// in\n    tag_327:\n        /* \"#utility.yul\":13173:13179   */\n      dup4\n        /* \"#utility.yul\":13166:13230   */\n      sstore\n        /* \"#utility.yul\":13088:13244   */\n      pop\n        /* \"#utility.yul\":13065:13244   */\n    tag_326:\n        /* \"#utility.yul\":13290:13291   */\n      0x01\n        /* \"#utility.yul\":13286:13287   */\n      0x02\n        /* \"#utility.yul\":13278:13284   */\n      dup9\n        /* \"#utility.yul\":13274:13288   */\n      mul\n        /* \"#utility.yul\":13270:13292   */\n      add\n        /* \"#utility.yul\":13264:13268   */\n      dup9\n        /* \"#utility.yul\":13257:13293   */\n      sstore\n        /* \"#utility.yul\":12634:13303   */\n      pop\n      pop\n      pop\n        /* \"#utility.yul\":12597:13542   */\n    tag_317:\n      pop\n        /* \"#utility.yul\":12178:13548   */\n      pop\n      pop\n      pop\n        /* \"#utility.yul\":12085:13548   */\n      pop\n      pop\n    tag_310:\n      jump\t// out\n        /* \"#utility.yul\":13554:13734   */\n    tag_95:\n        /* \"#utility.yul\":13602:13679   */\n      0x4e487b7100000000000000000000000000000000000000000000000000000000\n        /* \"#utility.yul\":13599:13600   */\n      0x00\n        /* \"#utility.yul\":13592:13680   */\n      mstore\n        /* \"#utility.yul\":13699:13703   */\n      0x32\n        /* \"#utility.yul\":13696:13697   */\n      0x04\n        /* \"#utility.yul\":13689:13704   */\n      mstore\n        /* \"#utility.yul\":13723:13727   */\n      0x24\n        /* \"#utility.yul\":13720:13721   */\n      0x00\n        /* \"#utility.yul\":13713:13728   */\n      revert\n        /* \"#utility.yul\":13740:14150   */\n    tag_107:\n        /* \"#utility.yul\":13780:13787   */\n      0x00\n        /* \"#utility.yul\":13803:13823   */\n      tag_330\n        /* \"#utility.yul\":13821:13822   */\n      dup3\n        /* \"#utility.yul\":13803:13823   */\n      tag_128\n      jump\t// in\n    tag_330:\n        /* \"#utility.yul\":13798:13823   */\n      swap2\n      pop\n        /* \"#utility.yul\":13837:13857   */\n      tag_331\n        /* \"#utility.yul\":13855:13856   */\n      dup4\n        /* \"#utility.yul\":13837:13857   */\n      tag_128\n      jump\t// in\n    tag_331:\n        /* \"#utility.yul\":13832:13857   */\n      swap3\n      pop\n        /* \"#utility.yul\":13892:13893   */\n      dup3\n        /* \"#utility.yul\":13889:13890   */\n      dup3\n        /* \"#utility.yul\":13885:13894   */\n      mul\n        /* \"#utility.yul\":13914:13944   */\n      tag_332\n        /* \"#utility.yul\":13932:13943   */\n      dup2\n        /* \"#utility.yul\":13914:13944   */\n      tag_128\n      jump\t// in\n    tag_332:\n        /* \"#utility.yul\":13903:13944   */\n      swap2\n      pop\n        /* \"#utility.yul\":14093:14094   */\n      dup3\n        /* \"#utility.yul\":14084:14091   */\n      dup3\n        /* \"#utility.yul\":14080:14095   */\n      div\n        /* \"#utility.yul\":14077:14078   */\n      dup5\n        /* \"#utility.yul\":14074:14096   */\n      eq\n        /* \"#utility.yul\":14054:14055   */\n      dup4\n        /* \"#utility.yul\":14047:14056   */\n      iszero\n        /* \"#utility.yul\":14027:14110   */\n      or\n        /* \"#utility.yul\":14004:14143   */\n      tag_333\n      jumpi\n        /* \"#utility.yul\":14123:14141   */\n      tag_334\n      tag_161\n      jump\t// in\n    tag_334:\n        /* \"#utility.yul\":14004:14143   */\n    tag_333:\n        /* \"#utility.yul\":13788:14150   */\n      pop\n        /* \"#utility.yul\":13740:14150   */\n      swap3\n      swap2\n      pop\n      pop\n      jump\t// out\n\n    auxdata: 0xa26469706673582212205c4b7bb5f7866dd493b75df284af181cd8e09959c22cee8c6e0e512b8db4dbb664736f6c63430008160033\n}\n",
				"bytecode": {
					"linkReferences": {},
					"object": "608060405234801562000010575f80fd5b50604051620016b3380380620016b38339818101604052810190620000369190620002c5565b80838386815f81905550806001908162000051919062000581565b505050816002819055508060035f6101000a81548173ffffffffffffffffffffffffffffffffffffffff021916908373ffffffffffffffffffffffffffffffffffffffff16021790555050505050505062000665565b5f604051905090565b5f80fd5b5f80fd5b5f80fd5b5f80fd5b5f601f19601f8301169050919050565b7f4e487b71000000000000000000000000000000000000000000000000000000005f52604160045260245ffd5b6200010882620000c0565b810181811067ffffffffffffffff821117156200012a5762000129620000d0565b5b80604052505050565b5f6200013e620000a7565b90506200014c8282620000fd565b919050565b5f67ffffffffffffffff8211156200016e576200016d620000d0565b5b6200017982620000c0565b9050602081019050919050565b5f5b83811015620001a557808201518184015260208101905062000188565b5f8484015250505050565b5f620001c6620001c08462000151565b62000133565b905082815260208101848484011115620001e557620001e4620000bc565b5b620001f284828562000186565b509392505050565b5f82601f830112620002115762000210620000b8565b5b815162000223848260208601620001b0565b91505092915050565b5f73ffffffffffffffffffffffffffffffffffffffff82169050919050565b5f62000257826200022c565b9050919050565b62000269816200024b565b811462000274575f80fd5b50565b5f8151905062000287816200025e565b92915050565b5f819050919050565b620002a1816200028d565b8114620002ac575f80fd5b50565b5f81519050620002bf8162000296565b92915050565b5f805f8060808587031215620002e057620002df620000b0565b5b5f85015167ffffffffffffffff8111156200030057620002ff620000b4565b5b6200030e87828801620001fa565b9450506020620003218782880162000277565b93505060406200033487828801620002af565b92505060606200034787828801620002af565b91505092959194509250565b5f81519050919050565b7f4e487b71000000000000000000000000000000000000000000000000000000005f52602260045260245ffd5b5f6002820490506001821680620003a257607f821691505b602082108103620003b857620003b76200035d565b5b50919050565b5f819050815f5260205f209050919050565b5f6020601f8301049050919050565b5f82821b905092915050565b5f600883026200041c7fffffffffffffffffffffffffffffffffffffffffffffffffffffffffffffffff82620003df565b620004288683620003df565b95508019841693508086168417925050509392505050565b5f819050919050565b5f62000469620004636200045d846200028d565b62000440565b6200028d565b9050919050565b5f819050919050565b620004848362000449565b6200049c620004938262000470565b848454620003eb565b825550505050565b5f90565b620004b2620004a4565b620004bf81848462000479565b505050565b5b81811015620004e657620004da5f82620004a8565b600181019050620004c5565b5050565b601f8211156200053557620004ff81620003be565b6200050a84620003d0565b810160208510156200051a578190505b620005326200052985620003d0565b830182620004c4565b50505b505050565b5f82821c905092915050565b5f620005575f19846008026200053a565b1980831691505092915050565b5f62000571838362000546565b9150826002028217905092915050565b6200058c8262000353565b67ffffffffffffffff811115620005a857620005a7620000d0565b5b620005b482546200038a565b620005c1828285620004ea565b5f60209050601f831160018114620005f7575f8415620005e2578287015190505b620005ee858262000564565b8655506200065d565b601f1984166200060786620003be565b5f5b82811015620006305784890151825560018201915060208501945060208101905062000609565b868310156200065057848901516200064c601f89168262000546565b8355505b6001600288020188555050505b505050505050565b61104080620006735f395ff3fe608060405234801561000f575f80fd5b50600436106100b2575f3560e01c80633e0a00991161006f5780633e0a00991461017c57806399b5346314610198578063c37787d9146101b4578063d81aa8c4146101d0578063e5aa3d58146101ec578063f00f6df51461020a576100b2565b80630781f5c9146100b65780630d042644146100d45780631dcd69ec146100f2578063266cf10914610110578063344610671461012e578063366ca4341461015e575b5f80fd5b6100be610228565b6040516100cb9190610890565b60405180910390f35b6100dc610265565b6040516100e991906108ef565b60405180910390f35b6100fa61028a565b6040516101079190610920565b60405180910390f35b61011861028f565b6040516101259190610890565b60405180910390f35b61014860048036038101906101439190610974565b61031b565b6040516101559190610890565b60405180910390f35b6101666103b6565b6040516101739190610920565b60405180910390f35b61019660048036038101906101919190610acb565b6103bc565b005b6101b260048036038101906101ad9190610b3c565b6103cf565b005b6101ce60048036038101906101c99190610b3c565b61043e565b005b6101ea60048036038101906101e59190610acb565b610481565b005b6101f46104c8565b6040516102019190610920565b60405180910390f35b6102126104ce565b60405161021f9190610890565b60405180910390f35b60606040518060400160405280600681526020017f737472696e670000000000000000000000000000000000000000000000000000815250905090565b60035f9054906101000a900473ffffffffffffffffffffffffffffffffffffffff1681565b5f5481565b6001805461029c90610b94565b80601f01602080910402602001604051908101604052809291908181526020018280546102c890610b94565b80156103135780601f106102ea57610100808354040283529160200191610313565b820191905f5260205f20905b8154815290600101906020018083116102f657829003601f168201915b505050505081565b6004602052805f5260405f205f91509050805461033790610b94565b80601f016020809104026020016040519081016040528092919081815260200182805461036390610b94565b80156103ae5780601f10610385576101008083540402835291602001916103ae565b820191905f5260205f20905b81548152906001019060200180831161039157829003601f168201915b505050505081565b60025481565b80600190816103cb9190610d61565b5050565b6103d88161043e565b61040260035f9054906101000a900473ffffffffffffffffffffffffffffffffffffffff1661050b565b60045f60055481526020019081526020015f2090816104219190610d61565b50600160055f8282546104349190610e5d565b9250508190555050565b8060035f6101000a81548173ffffffffffffffffffffffffffffffffffffffff021916908373ffffffffffffffffffffffffffffffffffffffff16021790555050565b61048a816103bc565b600160045f60055481526020019081526020015f2090816104ab9190610eb7565b50600160055f8282546104be9190610e5d565b9250508190555050565b60055481565b60606040518060400160405280600781526020017f6164647265737300000000000000000000000000000000000000000000000000815250905090565b60605f8273ffffffffffffffffffffffffffffffffffffffff165f1b90505f6040518060400160405280601081526020017f303132333435363738396162636465660000000000000000000000000000000081525090505f602a67ffffffffffffffff81111561057e5761057d6109a7565b5b6040519080825280601f01601f1916602001820160405280156105b05781602001600182028036833780820191505090505b5090507f3000000000000000000000000000000000000000000000000000000000000000815f815181106105e7576105e6610f9c565b5b60200101907effffffffffffffffffffffffffffffffffffffffffffffffffffffffffffff191690815f1a9053507f78000000000000000000000000000000000000000000000000000000000000008160018151811061064a57610649610f9c565b5b60200101907effffffffffffffffffffffffffffffffffffffffffffffffffffffffffffff191690815f1a9053505f5b60148110156107fa5782600485600c846106949190610e5d565b602081106106a5576106a4610f9c565b5b1a60f81b7effffffffffffffffffffffffffffffffffffffffffffffffffffffffffffff1916901c60f81c60ff16815181106106e4576106e3610f9c565b5b602001015160f81c60f81b826002836106fd9190610fc9565b60026107099190610e5d565b8151811061071a57610719610f9c565b5b60200101907effffffffffffffffffffffffffffffffffffffffffffffffffffffffffffff191690815f1a90535082600f60f81b85600c8461075c9190610e5d565b6020811061076d5761076c610f9c565b5b1a60f81b1660f81c60ff168151811061078957610788610f9c565b5b602001015160f81c60f81b826002836107a29190610fc9565b60036107ae9190610e5d565b815181106107bf576107be610f9c565b5b60200101907effffffffffffffffffffffffffffffffffffffffffffffffffffffffffffff191690815f1a905350808060010191505061067a565b50809350505050919050565b5f81519050919050565b5f82825260208201905092915050565b5f5b8381101561083d578082015181840152602081019050610822565b5f8484015250505050565b5f601f19601f8301169050919050565b5f61086282610806565b61086c8185610810565b935061087c818560208601610820565b61088581610848565b840191505092915050565b5f6020820190508181035f8301526108a88184610858565b905092915050565b5f73ffffffffffffffffffffffffffffffffffffffff82169050919050565b5f6108d9826108b0565b9050919050565b6108e9816108cf565b82525050565b5f6020820190506109025f8301846108e0565b92915050565b5f819050919050565b61091a81610908565b82525050565b5f6020820190506109335f830184610911565b92915050565b5f604051905090565b5f80fd5b5f80fd5b61095381610908565b811461095d575f80fd5b50565b5f8135905061096e8161094a565b92915050565b5f6020828403121561098957610988610942565b5b5f61099684828501610960565b91505092915050565b5f80fd5b5f80fd5b7f4e487b71000000000000000000000000000000000000000000000000000000005f52604160045260245ffd5b6109dd82610848565b810181811067ffffffffffffffff821117156109fc576109fb6109a7565b5b80604052505050565b5f610a0e610939565b9050610a1a82826109d4565b919050565b5f67ffffffffffffffff821115610a3957610a386109a7565b5b610a4282610848565b9050602081019050919050565b828183375f83830152505050565b5f610a6f610a6a84610a1f565b610a05565b905082815260208101848484011115610a8b57610a8a6109a3565b5b610a96848285610a4f565b509392505050565b5f82601f830112610ab257610ab161099f565b5b8135610ac2848260208601610a5d565b91505092915050565b5f60208284031215610ae057610adf610942565b5b5f82013567ffffffffffffffff811115610afd57610afc610946565b5b610b0984828501610a9e565b91505092915050565b610b1b816108cf565b8114610b25575f80fd5b50565b5f81359050610b3681610b12565b92915050565b5f60208284031215610b5157610b50610942565b5b5f610b5e84828501610b28565b91505092915050565b7f4e487b71000000000000000000000000000000000000000000000000000000005f52602260045260245ffd5b5f6002820490506001821680610bab57607f821691505b602082108103610bbe57610bbd610b67565b5b50919050565b5f819050815f5260205f209050919050565b5f6020601f8301049050919050565b5f82821b905092915050565b5f60088302610c207fffffffffffffffffffffffffffffffffffffffffffffffffffffffffffffffff82610be5565b610c2a8683610be5565b95508019841693508086168417925050509392505050565b5f819050919050565b5f610c65610c60610c5b84610908565b610c42565b610908565b9050919050565b5f819050919050565b610c7e83610c4b565b610c92610c8a82610c6c565b848454610bf1565b825550505050565b5f90565b610ca6610c9a565b610cb1818484610c75565b505050565b5b81811015610cd457610cc95f82610c9e565b600181019050610cb7565b5050565b601f821115610d1957610cea81610bc4565b610cf384610bd6565b81016020851015610d02578190505b610d16610d0e85610bd6565b830182610cb6565b50505b505050565b5f82821c905092915050565b5f610d395f1984600802610d1e565b1980831691505092915050565b5f610d518383610d2a565b9150826002028217905092915050565b610d6a82610806565b67ffffffffffffffff811115610d8357610d826109a7565b5b610d8d8254610b94565b610d98828285610cd8565b5f60209050601f831160018114610dc9575f8415610db7578287015190505b610dc18582610d46565b865550610e28565b601f198416610dd786610bc4565b5f5b82811015610dfe57848901518255600182019150602085019450602081019050610dd9565b86831015610e1b5784890151610e17601f891682610d2a565b8355505b6001600288020188555050505b505050505050565b7f4e487b71000000000000000000000000000000000000000000000000000000005f52601160045260245ffd5b5f610e6782610908565b9150610e7283610908565b9250828201905080821115610e8a57610e89610e30565b5b92915050565b5f81549050610e9e81610b94565b9050919050565b5f819050815f5260205f209050919050565b818103610ec5575050610f9a565b610ece82610e90565b67ffffffffffffffff811115610ee757610ee66109a7565b5b610ef18254610b94565b610efc828285610cd8565b5f601f831160018114610f29575f8415610f17578287015490505b610f218582610d46565b865550610f93565b601f198416610f3787610ea5565b9650610f4286610bc4565b5f5b82811015610f6957848901548255600182019150600185019450602081019050610f44565b86831015610f865784890154610f82601f891682610d2a565b8355505b6001600288020188555050505b5050505050505b565b7f4e487b71000000000000000000000000000000000000000000000000000000005f52603260045260245ffd5b5f610fd382610908565b9150610fde83610908565b9250828202610fec81610908565b9150828204841483151761100357611002610e30565b5b509291505056fea26469706673582212205c4b7bb5f7866dd493b75df284af181cd8e09959c22cee8c6e0e512b8db4dbb664736f6c63430008160033",
					"opcodes": "PUSH1 0x80 PUSH1 0x40 MSTORE CALLVALUE DUP1 ISZERO PUSH3 0x10 JUMPI PUSH0 DUP1 REVERT JUMPDEST POP PUSH1 0x40 MLOAD PUSH3 0x16B3 CODESIZE SUB DUP1 PUSH3 0x16B3 DUP4 CODECOPY DUP2 DUP2 ADD PUSH1 0x40 MSTORE DUP2 ADD SWAP1 PUSH3 0x36 SWAP2 SWAP1 PUSH3 0x2C5 JUMP JUMPDEST DUP1 DUP4 DUP4 DUP7 DUP2 PUSH0 DUP2 SWAP1 SSTORE POP DUP1 PUSH1 0x1 SWAP1 DUP2 PUSH3 0x51 SWAP2 SWAP1 PUSH3 0x581 JUMP JUMPDEST POP POP POP DUP2 PUSH1 0x2 DUP2 SWAP1 SSTORE POP DUP1 PUSH1 0x3 PUSH0 PUSH2 0x100 EXP DUP2 SLOAD DUP2 PUSH20 0xFFFFFFFFFFFFFFFFFFFFFFFFFFFFFFFFFFFFFFFF MUL NOT AND SWAP1 DUP4 PUSH20 0xFFFFFFFFFFFFFFFFFFFFFFFFFFFFFFFFFFFFFFFF AND MUL OR SWAP1 SSTORE POP POP POP POP POP POP POP PUSH3 0x665 JUMP JUMPDEST PUSH0 PUSH1 0x40 MLOAD SWAP1 POP SWAP1 JUMP JUMPDEST PUSH0 DUP1 REVERT JUMPDEST PUSH0 DUP1 REVERT JUMPDEST PUSH0 DUP1 REVERT JUMPDEST PUSH0 DUP1 REVERT JUMPDEST PUSH0 PUSH1 0x1F NOT PUSH1 0x1F DUP4 ADD AND SWAP1 POP SWAP2 SWAP1 POP JUMP JUMPDEST PUSH32 0x4E487B7100000000000000000000000000000000000000000000000000000000 PUSH0 MSTORE PUSH1 0x41 PUSH1 0x4 MSTORE PUSH1 0x24 PUSH0 REVERT JUMPDEST PUSH3 0x108 DUP3 PUSH3 0xC0 JUMP JUMPDEST DUP2 ADD DUP2 DUP2 LT PUSH8 0xFFFFFFFFFFFFFFFF DUP3 GT OR ISZERO PUSH3 0x12A JUMPI PUSH3 0x129 PUSH3 0xD0 JUMP JUMPDEST JUMPDEST DUP1 PUSH1 0x40 MSTORE POP POP POP JUMP JUMPDEST PUSH0 PUSH3 0x13E PUSH3 0xA7 JUMP JUMPDEST SWAP1 POP PUSH3 0x14C DUP3 DUP3 PUSH3 0xFD JUMP JUMPDEST SWAP2 SWAP1 POP JUMP JUMPDEST PUSH0 PUSH8 0xFFFFFFFFFFFFFFFF DUP3 GT ISZERO PUSH3 0x16E JUMPI PUSH3 0x16D PUSH3 0xD0 JUMP JUMPDEST JUMPDEST PUSH3 0x179 DUP3 PUSH3 0xC0 JUMP JUMPDEST SWAP1 POP PUSH1 0x20 DUP2 ADD SWAP1 POP SWAP2 SWAP1 POP JUMP JUMPDEST PUSH0 JUMPDEST DUP4 DUP2 LT ISZERO PUSH3 0x1A5 JUMPI DUP1 DUP3 ADD MLOAD DUP2 DUP5 ADD MSTORE PUSH1 0x20 DUP2 ADD SWAP1 POP PUSH3 0x188 JUMP JUMPDEST PUSH0 DUP5 DUP5 ADD MSTORE POP POP POP POP JUMP JUMPDEST PUSH0 PUSH3 0x1C6 PUSH3 0x1C0 DUP5 PUSH3 0x151 JUMP JUMPDEST PUSH3 0x133 JUMP JUMPDEST SWAP1 POP DUP3 DUP2 MSTORE PUSH1 0x20 DUP2 ADD DUP5 DUP5 DUP5 ADD GT ISZERO PUSH3 0x1E5 JUMPI PUSH3 0x1E4 PUSH3 0xBC JUMP JUMPDEST JUMPDEST PUSH3 0x1F2 DUP5 DUP3 DUP6 PUSH3 0x186 JUMP JUMPDEST POP SWAP4 SWAP3 POP POP POP JUMP JUMPDEST PUSH0 DUP3 PUSH1 0x1F DUP4 ADD SLT PUSH3 0x211 JUMPI PUSH3 0x210 PUSH3 0xB8 JUMP JUMPDEST JUMPDEST DUP2 MLOAD PUSH3 0x223 DUP5 DUP3 PUSH1 0x20 DUP7 ADD PUSH3 0x1B0 JUMP JUMPDEST SWAP2 POP POP SWAP3 SWAP2 POP POP JUMP JUMPDEST PUSH0 PUSH20 0xFFFFFFFFFFFFFFFFFFFFFFFFFFFFFFFFFFFFFFFF DUP3 AND SWAP1 POP SWAP2 SWAP1 POP JUMP JUMPDEST PUSH0 PUSH3 0x257 DUP3 PUSH3 0x22C JUMP JUMPDEST SWAP1 POP SWAP2 SWAP1 POP JUMP JUMPDEST PUSH3 0x269 DUP2 PUSH3 0x24B JUMP JUMPDEST DUP2 EQ PUSH3 0x274 JUMPI PUSH0 DUP1 REVERT JUMPDEST POP JUMP JUMPDEST PUSH0 DUP2 MLOAD SWAP1 POP PUSH3 0x287 DUP2 PUSH3 0x25E JUMP JUMPDEST SWAP3 SWAP2 POP POP JUMP JUMPDEST PUSH0 DUP2 SWAP1 POP SWAP2 SWAP1 POP JUMP JUMPDEST PUSH3 0x2A1 DUP2 PUSH3 0x28D JUMP JUMPDEST DUP2 EQ PUSH3 0x2AC JUMPI PUSH0 DUP1 REVERT JUMPDEST POP JUMP JUMPDEST PUSH0 DUP2 MLOAD SWAP1 POP PUSH3 0x2BF DUP2 PUSH3 0x296 JUMP JUMPDEST SWAP3 SWAP2 POP POP JUMP JUMPDEST PUSH0 DUP1 PUSH0 DUP1 PUSH1 0x80 DUP6 DUP8 SUB SLT ISZERO PUSH3 0x2E0 JUMPI PUSH3 0x2DF PUSH3 0xB0 JUMP JUMPDEST JUMPDEST PUSH0 DUP6 ADD MLOAD PUSH8 0xFFFFFFFFFFFFFFFF DUP2 GT ISZERO PUSH3 0x300 JUMPI PUSH3 0x2FF PUSH3 0xB4 JUMP JUMPDEST JUMPDEST PUSH3 0x30E DUP8 DUP3 DUP9 ADD PUSH3 0x1FA JUMP JUMPDEST SWAP5 POP POP PUSH1 0x20 PUSH3 0x321 DUP8 DUP3 DUP9 ADD PUSH3 0x277 JUMP JUMPDEST SWAP4 POP POP PUSH1 0x40 PUSH3 0x334 DUP8 DUP3 DUP9 ADD PUSH3 0x2AF JUMP JUMPDEST SWAP3 POP POP PUSH1 0x60 PUSH3 0x347 DUP8 DUP3 DUP9 ADD PUSH3 0x2AF JUMP JUMPDEST SWAP2 POP POP SWAP3 SWAP6 SWAP2 SWAP5 POP SWAP3 POP JUMP JUMPDEST PUSH0 DUP2 MLOAD SWAP1 POP SWAP2 SWAP1 POP JUMP JUMPDEST PUSH32 0x4E487B7100000000000000000000000000000000000000000000000000000000 PUSH0 MSTORE PUSH1 0x22 PUSH1 0x4 MSTORE PUSH1 0x24 PUSH0 REVERT JUMPDEST PUSH0 PUSH1 0x2 DUP3 DIV SWAP1 POP PUSH1 0x1 DUP3 AND DUP1 PUSH3 0x3A2 JUMPI PUSH1 0x7F DUP3 AND SWAP2 POP JUMPDEST PUSH1 0x20 DUP3 LT DUP2 SUB PUSH3 0x3B8 JUMPI PUSH3 0x3B7 PUSH3 0x35D JUMP JUMPDEST JUMPDEST POP SWAP2 SWAP1 POP JUMP JUMPDEST PUSH0 DUP2 SWAP1 POP DUP2 PUSH0 MSTORE PUSH1 0x20 PUSH0 KECCAK256 SWAP1 POP SWAP2 SWAP1 POP JUMP JUMPDEST PUSH0 PUSH1 0x20 PUSH1 0x1F DUP4 ADD DIV SWAP1 POP SWAP2 SWAP1 POP JUMP JUMPDEST PUSH0 DUP3 DUP3 SHL SWAP1 POP SWAP3 SWAP2 POP POP JUMP JUMPDEST PUSH0 PUSH1 0x8 DUP4 MUL PUSH3 0x41C PUSH32 0xFFFFFFFFFFFFFFFFFFFFFFFFFFFFFFFFFFFFFFFFFFFFFFFFFFFFFFFFFFFFFFFF DUP3 PUSH3 0x3DF JUMP JUMPDEST PUSH3 0x428 DUP7 DUP4 PUSH3 0x3DF JUMP JUMPDEST SWAP6 POP DUP1 NOT DUP5 AND SWAP4 POP DUP1 DUP7 AND DUP5 OR SWAP3 POP POP POP SWAP4 SWAP3 POP POP POP JUMP JUMPDEST PUSH0 DUP2 SWAP1 POP SWAP2 SWAP1 POP JUMP JUMPDEST PUSH0 PUSH3 0x469 PUSH3 0x463 PUSH3 0x45D DUP5 PUSH3 0x28D JUMP JUMPDEST PUSH3 0x440 JUMP JUMPDEST PUSH3 0x28D JUMP JUMPDEST SWAP1 POP SWAP2 SWAP1 POP JUMP JUMPDEST PUSH0 DUP2 SWAP1 POP SWAP2 SWAP1 POP JUMP JUMPDEST PUSH3 0x484 DUP4 PUSH3 0x449 JUMP JUMPDEST PUSH3 0x49C PUSH3 0x493 DUP3 PUSH3 0x470 JUMP JUMPDEST DUP5 DUP5 SLOAD PUSH3 0x3EB JUMP JUMPDEST DUP3 SSTORE POP POP POP POP JUMP JUMPDEST PUSH0 SWAP1 JUMP JUMPDEST PUSH3 0x4B2 PUSH3 0x4A4 JUMP JUMPDEST PUSH3 0x4BF DUP2 DUP5 DUP5 PUSH3 0x479 JUMP JUMPDEST POP POP POP JUMP JUMPDEST JUMPDEST DUP2 DUP2 LT ISZERO PUSH3 0x4E6 JUMPI PUSH3 0x4DA PUSH0 DUP3 PUSH3 0x4A8 JUMP JUMPDEST PUSH1 0x1 DUP2 ADD SWAP1 POP PUSH3 0x4C5 JUMP JUMPDEST POP POP JUMP JUMPDEST PUSH1 0x1F DUP3 GT ISZERO PUSH3 0x535 JUMPI PUSH3 0x4FF DUP2 PUSH3 0x3BE JUMP JUMPDEST PUSH3 0x50A DUP5 PUSH3 0x3D0 JUMP JUMPDEST DUP2 ADD PUSH1 0x20 DUP6 LT ISZERO PUSH3 0x51A JUMPI DUP2 SWAP1 POP JUMPDEST PUSH3 0x532 PUSH3 0x529 DUP6 PUSH3 0x3D0 JUMP JUMPDEST DUP4 ADD DUP3 PUSH3 0x4C4 JUMP JUMPDEST POP POP JUMPDEST POP POP POP JUMP JUMPDEST PUSH0 DUP3 DUP3 SHR SWAP1 POP SWAP3 SWAP2 POP POP JUMP JUMPDEST PUSH0 PUSH3 0x557 PUSH0 NOT DUP5 PUSH1 0x8 MUL PUSH3 0x53A JUMP JUMPDEST NOT DUP1 DUP4 AND SWAP2 POP POP SWAP3 SWAP2 POP POP JUMP JUMPDEST PUSH0 PUSH3 0x571 DUP4 DUP4 PUSH3 0x546 JUMP JUMPDEST SWAP2 POP DUP3 PUSH1 0x2 MUL DUP3 OR SWAP1 POP SWAP3 SWAP2 POP POP JUMP JUMPDEST PUSH3 0x58C DUP3 PUSH3 0x353 JUMP JUMPDEST PUSH8 0xFFFFFFFFFFFFFFFF DUP2 GT ISZERO PUSH3 0x5A8 JUMPI PUSH3 0x5A7 PUSH3 0xD0 JUMP JUMPDEST JUMPDEST PUSH3 0x5B4 DUP3 SLOAD PUSH3 0x38A JUMP JUMPDEST PUSH3 0x5C1 DUP3 DUP3 DUP6 PUSH3 0x4EA JUMP JUMPDEST PUSH0 PUSH1 0x20 SWAP1 POP PUSH1 0x1F DUP4 GT PUSH1 0x1 DUP2 EQ PUSH3 0x5F7 JUMPI PUSH0 DUP5 ISZERO PUSH3 0x5E2 JUMPI DUP3 DUP8 ADD MLOAD SWAP1 POP JUMPDEST PUSH3 0x5EE DUP6 DUP3 PUSH3 0x564 JUMP JUMPDEST DUP7 SSTORE POP PUSH3 0x65D JUMP JUMPDEST PUSH1 0x1F NOT DUP5 AND PUSH3 0x607 DUP7 PUSH3 0x3BE JUMP JUMPDEST PUSH0 JUMPDEST DUP3 DUP2 LT ISZERO PUSH3 0x630 JUMPI DUP5 DUP10 ADD MLOAD DUP3 SSTORE PUSH1 0x1 DUP3 ADD SWAP2 POP PUSH1 0x20 DUP6 ADD SWAP5 POP PUSH1 0x20 DUP2 ADD SWAP1 POP PUSH3 0x609 JUMP JUMPDEST DUP7 DUP4 LT ISZERO PUSH3 0x650 JUMPI DUP5 DUP10 ADD MLOAD PUSH3 0x64C PUSH1 0x1F DUP10 AND DUP3 PUSH3 0x546 JUMP JUMPDEST DUP4 SSTORE POP JUMPDEST PUSH1 0x1 PUSH1 0x2 DUP9 MUL ADD DUP9 SSTORE POP POP POP JUMPDEST POP POP POP POP POP POP JUMP JUMPDEST PUSH2 0x1040 DUP1 PUSH3 0x673 PUSH0 CODECOPY PUSH0 RETURN INVALID PUSH1 0x80 PUSH1 0x40 MSTORE CALLVALUE DUP1 ISZERO PUSH2 0xF JUMPI PUSH0 DUP1 REVERT JUMPDEST POP PUSH1 0x4 CALLDATASIZE LT PUSH2 0xB2 JUMPI PUSH0 CALLDATALOAD PUSH1 0xE0 SHR DUP1 PUSH4 0x3E0A0099 GT PUSH2 0x6F JUMPI DUP1 PUSH4 0x3E0A0099 EQ PUSH2 0x17C JUMPI DUP1 PUSH4 0x99B53463 EQ PUSH2 0x198 JUMPI DUP1 PUSH4 0xC37787D9 EQ PUSH2 0x1B4 JUMPI DUP1 PUSH4 0xD81AA8C4 EQ PUSH2 0x1D0 JUMPI DUP1 PUSH4 0xE5AA3D58 EQ PUSH2 0x1EC JUMPI DUP1 PUSH4 0xF00F6DF5 EQ PUSH2 0x20A JUMPI PUSH2 0xB2 JUMP JUMPDEST DUP1 PUSH4 0x781F5C9 EQ PUSH2 0xB6 JUMPI DUP1 PUSH4 0xD042644 EQ PUSH2 0xD4 JUMPI DUP1 PUSH4 0x1DCD69EC EQ PUSH2 0xF2 JUMPI DUP1 PUSH4 0x266CF109 EQ PUSH2 0x110 JUMPI DUP1 PUSH4 0x34461067 EQ PUSH2 0x12E JUMPI DUP1 PUSH4 0x366CA434 EQ PUSH2 0x15E JUMPI JUMPDEST PUSH0 DUP1 REVERT JUMPDEST PUSH2 0xBE PUSH2 0x228 JUMP JUMPDEST PUSH1 0x40 MLOAD PUSH2 0xCB SWAP2 SWAP1 PUSH2 0x890 JUMP JUMPDEST PUSH1 0x40 MLOAD DUP1 SWAP2 SUB SWAP1 RETURN JUMPDEST PUSH2 0xDC PUSH2 0x265 JUMP JUMPDEST PUSH1 0x40 MLOAD PUSH2 0xE9 SWAP2 SWAP1 PUSH2 0x8EF JUMP JUMPDEST PUSH1 0x40 MLOAD DUP1 SWAP2 SUB SWAP1 RETURN JUMPDEST PUSH2 0xFA PUSH2 0x28A JUMP JUMPDEST PUSH1 0x40 MLOAD PUSH2 0x107 SWAP2 SWAP1 PUSH2 0x920 JUMP JUMPDEST PUSH1 0x40 MLOAD DUP1 SWAP2 SUB SWAP1 RETURN JUMPDEST PUSH2 0x118 PUSH2 0x28F JUMP JUMPDEST PUSH1 0x40 MLOAD PUSH2 0x125 SWAP2 SWAP1 PUSH2 0x890 JUMP JUMPDEST PUSH1 0x40 MLOAD DUP1 SWAP2 SUB SWAP1 RETURN JUMPDEST PUSH2 0x148 PUSH1 0x4 DUP1 CALLDATASIZE SUB DUP2 ADD SWAP1 PUSH2 0x143 SWAP2 SWAP1 PUSH2 0x974 JUMP JUMPDEST PUSH2 0x31B JUMP JUMPDEST PUSH1 0x40 MLOAD PUSH2 0x155 SWAP2 SWAP1 PUSH2 0x890 JUMP JUMPDEST PUSH1 0x40 MLOAD DUP1 SWAP2 SUB SWAP1 RETURN JUMPDEST PUSH2 0x166 PUSH2 0x3B6 JUMP JUMPDEST PUSH1 0x40 MLOAD PUSH2 0x173 SWAP2 SWAP1 PUSH2 0x920 JUMP JUMPDEST PUSH1 0x40 MLOAD DUP1 SWAP2 SUB SWAP1 RETURN JUMPDEST PUSH2 0x196 PUSH1 0x4 DUP1 CALLDATASIZE SUB DUP2 ADD SWAP1 PUSH2 0x191 SWAP2 SWAP1 PUSH2 0xACB JUMP JUMPDEST PUSH2 0x3BC JUMP JUMPDEST STOP JUMPDEST PUSH2 0x1B2 PUSH1 0x4 DUP1 CALLDATASIZE SUB DUP2 ADD SWAP1 PUSH2 0x1AD SWAP2 SWAP1 PUSH2 0xB3C JUMP JUMPDEST PUSH2 0x3CF JUMP JUMPDEST STOP JUMPDEST PUSH2 0x1CE PUSH1 0x4 DUP1 CALLDATASIZE SUB DUP2 ADD SWAP1 PUSH2 0x1C9 SWAP2 SWAP1 PUSH2 0xB3C JUMP JUMPDEST PUSH2 0x43E JUMP JUMPDEST STOP JUMPDEST PUSH2 0x1EA PUSH1 0x4 DUP1 CALLDATASIZE SUB DUP2 ADD SWAP1 PUSH2 0x1E5 SWAP2 SWAP1 PUSH2 0xACB JUMP JUMPDEST PUSH2 0x481 JUMP JUMPDEST STOP JUMPDEST PUSH2 0x1F4 PUSH2 0x4C8 JUMP JUMPDEST PUSH1 0x40 MLOAD PUSH2 0x201 SWAP2 SWAP1 PUSH2 0x920 JUMP JUMPDEST PUSH1 0x40 MLOAD DUP1 SWAP2 SUB SWAP1 RETURN JUMPDEST PUSH2 0x212 PUSH2 0x4CE JUMP JUMPDEST PUSH1 0x40 MLOAD PUSH2 0x21F SWAP2 SWAP1 PUSH2 0x890 JUMP JUMPDEST PUSH1 0x40 MLOAD DUP1 SWAP2 SUB SWAP1 RETURN JUMPDEST PUSH1 0x60 PUSH1 0x40 MLOAD DUP1 PUSH1 0x40 ADD PUSH1 0x40 MSTORE DUP1 PUSH1 0x6 DUP2 MSTORE PUSH1 0x20 ADD PUSH32 0x737472696E670000000000000000000000000000000000000000000000000000 DUP2 MSTORE POP SWAP1 POP SWAP1 JUMP JUMPDEST PUSH1 0x3 PUSH0 SWAP1 SLOAD SWAP1 PUSH2 0x100 EXP SWAP1 DIV PUSH20 0xFFFFFFFFFFFFFFFFFFFFFFFFFFFFFFFFFFFFFFFF AND DUP2 JUMP JUMPDEST PUSH0 SLOAD DUP2 JUMP JUMPDEST PUSH1 0x1 DUP1 SLOAD PUSH2 0x29C SWAP1 PUSH2 0xB94 JUMP JUMPDEST DUP1 PUSH1 0x1F ADD PUSH1 0x20 DUP1 SWAP2 DIV MUL PUSH1 0x20 ADD PUSH1 0x40 MLOAD SWAP1 DUP2 ADD PUSH1 0x40 MSTORE DUP1 SWAP3 SWAP2 SWAP1 DUP2 DUP2 MSTORE PUSH1 0x20 ADD DUP3 DUP1 SLOAD PUSH2 0x2C8 SWAP1 PUSH2 0xB94 JUMP JUMPDEST DUP1 ISZERO PUSH2 0x313 JUMPI DUP1 PUSH1 0x1F LT PUSH2 0x2EA JUMPI PUSH2 0x100 DUP1 DUP4 SLOAD DIV MUL DUP4 MSTORE SWAP2 PUSH1 0x20 ADD SWAP2 PUSH2 0x313 JUMP JUMPDEST DUP3 ADD SWAP2 SWAP1 PUSH0 MSTORE PUSH1 0x20 PUSH0 KECCAK256 SWAP1 JUMPDEST DUP2 SLOAD DUP2 MSTORE SWAP1 PUSH1 0x1 ADD SWAP1 PUSH1 0x20 ADD DUP1 DUP4 GT PUSH2 0x2F6 JUMPI DUP3 SWAP1 SUB PUSH1 0x1F AND DUP3 ADD SWAP2 JUMPDEST POP POP POP POP POP DUP2 JUMP JUMPDEST PUSH1 0x4 PUSH1 0x20 MSTORE DUP1 PUSH0 MSTORE PUSH1 0x40 PUSH0 KECCAK256 PUSH0 SWAP2 POP SWAP1 POP DUP1 SLOAD PUSH2 0x337 SWAP1 PUSH2 0xB94 JUMP JUMPDEST DUP1 PUSH1 0x1F ADD PUSH1 0x20 DUP1 SWAP2 DIV MUL PUSH1 0x20 ADD PUSH1 0x40 MLOAD SWAP1 DUP2 ADD PUSH1 0x40 MSTORE DUP1 SWAP3 SWAP2 SWAP1 DUP2 DUP2 MSTORE PUSH1 0x20 ADD DUP3 DUP1 SLOAD PUSH2 0x363 SWAP1 PUSH2 0xB94 JUMP JUMPDEST DUP1 ISZERO PUSH2 0x3AE JUMPI DUP1 PUSH1 0x1F LT PUSH2 0x385 JUMPI PUSH2 0x100 DUP1 DUP4 SLOAD DIV MUL DUP4 MSTORE SWAP2 PUSH1 0x20 ADD SWAP2 PUSH2 0x3AE JUMP JUMPDEST DUP3 ADD SWAP2 SWAP1 PUSH0 MSTORE PUSH1 0x20 PUSH0 KECCAK256 SWAP1 JUMPDEST DUP2 SLOAD DUP2 MSTORE SWAP1 PUSH1 0x1 ADD SWAP1 PUSH1 0x20 ADD DUP1 DUP4 GT PUSH2 0x391 JUMPI DUP3 SWAP1 SUB PUSH1 0x1F AND DUP3 ADD SWAP2 JUMPDEST POP POP POP POP POP DUP2 JUMP JUMPDEST PUSH1 0x2 SLOAD DUP2 JUMP JUMPDEST DUP1 PUSH1 0x1 SWAP1 DUP2 PUSH2 0x3CB SWAP2 SWAP1 PUSH2 0xD61 JUMP JUMPDEST POP POP JUMP JUMPDEST PUSH2 0x3D8 DUP2 PUSH2 0x43E JUMP JUMPDEST PUSH2 0x402 PUSH1 0x3 PUSH0 SWAP1 SLOAD SWAP1 PUSH2 0x100 EXP SWAP1 DIV PUSH20 0xFFFFFFFFFFFFFFFFFFFFFFFFFFFFFFFFFFFFFFFF AND PUSH2 0x50B JUMP JUMPDEST PUSH1 0x4 PUSH0 PUSH1 0x5 SLOAD DUP2 MSTORE PUSH1 0x20 ADD SWAP1 DUP2 MSTORE PUSH1 0x20 ADD PUSH0 KECCAK256 SWAP1 DUP2 PUSH2 0x421 SWAP2 SWAP1 PUSH2 0xD61 JUMP JUMPDEST POP PUSH1 0x1 PUSH1 0x5 PUSH0 DUP3 DUP3 SLOAD PUSH2 0x434 SWAP2 SWAP1 PUSH2 0xE5D JUMP JUMPDEST SWAP3 POP POP DUP2 SWAP1 SSTORE POP POP JUMP JUMPDEST DUP1 PUSH1 0x3 PUSH0 PUSH2 0x100 EXP DUP2 SLOAD DUP2 PUSH20 0xFFFFFFFFFFFFFFFFFFFFFFFFFFFFFFFFFFFFFFFF MUL NOT AND SWAP1 DUP4 PUSH20 0xFFFFFFFFFFFFFFFFFFFFFFFFFFFFFFFFFFFFFFFF AND MUL OR SWAP1 SSTORE POP POP JUMP JUMPDEST PUSH2 0x48A DUP2 PUSH2 0x3BC JUMP JUMPDEST PUSH1 0x1 PUSH1 0x4 PUSH0 PUSH1 0x5 SLOAD DUP2 MSTORE PUSH1 0x20 ADD SWAP1 DUP2 MSTORE PUSH1 0x20 ADD PUSH0 KECCAK256 SWAP1 DUP2 PUSH2 0x4AB SWAP2 SWAP1 PUSH2 0xEB7 JUMP JUMPDEST POP PUSH1 0x1 PUSH1 0x5 PUSH0 DUP3 DUP3 SLOAD PUSH2 0x4BE SWAP2 SWAP1 PUSH2 0xE5D JUMP JUMPDEST SWAP3 POP POP DUP2 SWAP1 SSTORE POP POP JUMP JUMPDEST PUSH1 0x5 SLOAD DUP2 JUMP JUMPDEST PUSH1 0x60 PUSH1 0x40 MLOAD DUP1 PUSH1 0x40 ADD PUSH1 0x40 MSTORE DUP1 PUSH1 0x7 DUP2 MSTORE PUSH1 0x20 ADD PUSH32 0x6164647265737300000000000000000000000000000000000000000000000000 DUP2 MSTORE POP SWAP1 POP SWAP1 JUMP JUMPDEST PUSH1 0x60 PUSH0 DUP3 PUSH20 0xFFFFFFFFFFFFFFFFFFFFFFFFFFFFFFFFFFFFFFFF AND PUSH0 SHL SWAP1 POP PUSH0 PUSH1 0x40 MLOAD DUP1 PUSH1 0x40 ADD PUSH1 0x40 MSTORE DUP1 PUSH1 0x10 DUP2 MSTORE PUSH1 0x20 ADD PUSH32 0x3031323334353637383961626364656600000000000000000000000000000000 DUP2 MSTORE POP SWAP1 POP PUSH0 PUSH1 0x2A PUSH8 0xFFFFFFFFFFFFFFFF DUP2 GT ISZERO PUSH2 0x57E JUMPI PUSH2 0x57D PUSH2 0x9A7 JUMP JUMPDEST JUMPDEST PUSH1 0x40 MLOAD SWAP1 DUP1 DUP3 MSTORE DUP1 PUSH1 0x1F ADD PUSH1 0x1F NOT AND PUSH1 0x20 ADD DUP3 ADD PUSH1 0x40 MSTORE DUP1 ISZERO PUSH2 0x5B0 JUMPI DUP2 PUSH1 0x20 ADD PUSH1 0x1 DUP3 MUL DUP1 CALLDATASIZE DUP4 CALLDATACOPY DUP1 DUP3 ADD SWAP2 POP POP SWAP1 POP JUMPDEST POP SWAP1 POP PUSH32 0x3000000000000000000000000000000000000000000000000000000000000000 DUP2 PUSH0 DUP2 MLOAD DUP2 LT PUSH2 0x5E7 JUMPI PUSH2 0x5E6 PUSH2 0xF9C JUMP JUMPDEST JUMPDEST PUSH1 0x20 ADD ADD SWAP1 PUSH31 0xFFFFFFFFFFFFFFFFFFFFFFFFFFFFFFFFFFFFFFFFFFFFFFFFFFFFFFFFFFFFFF NOT AND SWAP1 DUP2 PUSH0 BYTE SWAP1 MSTORE8 POP PUSH32 0x7800000000000000000000000000000000000000000000000000000000000000 DUP2 PUSH1 0x1 DUP2 MLOAD DUP2 LT PUSH2 0x64A JUMPI PUSH2 0x649 PUSH2 0xF9C JUMP JUMPDEST JUMPDEST PUSH1 0x20 ADD ADD SWAP1 PUSH31 0xFFFFFFFFFFFFFFFFFFFFFFFFFFFFFFFFFFFFFFFFFFFFFFFFFFFFFFFFFFFFFF NOT AND SWAP1 DUP2 PUSH0 BYTE SWAP1 MSTORE8 POP PUSH0 JUMPDEST PUSH1 0x14 DUP2 LT ISZERO PUSH2 0x7FA JUMPI DUP3 PUSH1 0x4 DUP6 PUSH1 0xC DUP5 PUSH2 0x694 SWAP2 SWAP1 PUSH2 0xE5D JUMP JUMPDEST PUSH1 0x20 DUP2 LT PUSH2 0x6A5 JUMPI PUSH2 0x6A4 PUSH2 0xF9C JUMP JUMPDEST JUMPDEST BYTE PUSH1 0xF8 SHL PUSH31 0xFFFFFFFFFFFFFFFFFFFFFFFFFFFFFFFFFFFFFFFFFFFFFFFFFFFFFFFFFFFFFF NOT AND SWAP1 SHR PUSH1 0xF8 SHR PUSH1 0xFF AND DUP2 MLOAD DUP2 LT PUSH2 0x6E4 JUMPI PUSH2 0x6E3 PUSH2 0xF9C JUMP JUMPDEST JUMPDEST PUSH1 0x20 ADD ADD MLOAD PUSH1 0xF8 SHR PUSH1 0xF8 SHL DUP3 PUSH1 0x2 DUP4 PUSH2 0x6FD SWAP2 SWAP1 PUSH2 0xFC9 JUMP JUMPDEST PUSH1 0x2 PUSH2 0x709 SWAP2 SWAP1 PUSH2 0xE5D JUMP JUMPDEST DUP2 MLOAD DUP2 LT PUSH2 0x71A JUMPI PUSH2 0x719 PUSH2 0xF9C JUMP JUMPDEST JUMPDEST PUSH1 0x20 ADD ADD SWAP1 PUSH31 0xFFFFFFFFFFFFFFFFFFFFFFFFFFFFFFFFFFFFFFFFFFFFFFFFFFFFFFFFFFFFFF NOT AND SWAP1 DUP2 PUSH0 BYTE SWAP1 MSTORE8 POP DUP3 PUSH1 0xF PUSH1 0xF8 SHL DUP6 PUSH1 0xC DUP5 PUSH2 0x75C SWAP2 SWAP1 PUSH2 0xE5D JUMP JUMPDEST PUSH1 0x20 DUP2 LT PUSH2 0x76D JUMPI PUSH2 0x76C PUSH2 0xF9C JUMP JUMPDEST JUMPDEST BYTE PUSH1 0xF8 SHL AND PUSH1 0xF8 SHR PUSH1 0xFF AND DUP2 MLOAD DUP2 LT PUSH2 0x789 JUMPI PUSH2 0x788 PUSH2 0xF9C JUMP JUMPDEST JUMPDEST PUSH1 0x20 ADD ADD MLOAD PUSH1 0xF8 SHR PUSH1 0xF8 SHL DUP3 PUSH1 0x2 DUP4 PUSH2 0x7A2 SWAP2 SWAP1 PUSH2 0xFC9 JUMP JUMPDEST PUSH1 0x3 PUSH2 0x7AE SWAP2 SWAP1 PUSH2 0xE5D JUMP JUMPDEST DUP2 MLOAD DUP2 LT PUSH2 0x7BF JUMPI PUSH2 0x7BE PUSH2 0xF9C JUMP JUMPDEST JUMPDEST PUSH1 0x20 ADD ADD SWAP1 PUSH31 0xFFFFFFFFFFFFFFFFFFFFFFFFFFFFFFFFFFFFFFFFFFFFFFFFFFFFFFFFFFFFFF NOT AND SWAP1 DUP2 PUSH0 BYTE SWAP1 MSTORE8 POP DUP1 DUP1 PUSH1 0x1 ADD SWAP2 POP POP PUSH2 0x67A JUMP JUMPDEST POP DUP1 SWAP4 POP POP POP POP SWAP2 SWAP1 POP JUMP JUMPDEST PUSH0 DUP2 MLOAD SWAP1 POP SWAP2 SWAP1 POP JUMP JUMPDEST PUSH0 DUP3 DUP3 MSTORE PUSH1 0x20 DUP3 ADD SWAP1 POP SWAP3 SWAP2 POP POP JUMP JUMPDEST PUSH0 JUMPDEST DUP4 DUP2 LT ISZERO PUSH2 0x83D JUMPI DUP1 DUP3 ADD MLOAD DUP2 DUP5 ADD MSTORE PUSH1 0x20 DUP2 ADD SWAP1 POP PUSH2 0x822 JUMP JUMPDEST PUSH0 DUP5 DUP5 ADD MSTORE POP POP POP POP JUMP JUMPDEST PUSH0 PUSH1 0x1F NOT PUSH1 0x1F DUP4 ADD AND SWAP1 POP SWAP2 SWAP1 POP JUMP JUMPDEST PUSH0 PUSH2 0x862 DUP3 PUSH2 0x806 JUMP JUMPDEST PUSH2 0x86C DUP2 DUP6 PUSH2 0x810 JUMP JUMPDEST SWAP4 POP PUSH2 0x87C DUP2 DUP6 PUSH1 0x20 DUP7 ADD PUSH2 0x820 JUMP JUMPDEST PUSH2 0x885 DUP2 PUSH2 0x848 JUMP JUMPDEST DUP5 ADD SWAP2 POP POP SWAP3 SWAP2 POP POP JUMP JUMPDEST PUSH0 PUSH1 0x20 DUP3 ADD SWAP1 POP DUP2 DUP2 SUB PUSH0 DUP4 ADD MSTORE PUSH2 0x8A8 DUP2 DUP5 PUSH2 0x858 JUMP JUMPDEST SWAP1 POP SWAP3 SWAP2 POP POP JUMP JUMPDEST PUSH0 PUSH20 0xFFFFFFFFFFFFFFFFFFFFFFFFFFFFFFFFFFFFFFFF DUP3 AND SWAP1 POP SWAP2 SWAP1 POP JUMP JUMPDEST PUSH0 PUSH2 0x8D9 DUP3 PUSH2 0x8B0 JUMP JUMPDEST SWAP1 POP SWAP2 SWAP1 POP JUMP JUMPDEST PUSH2 0x8E9 DUP2 PUSH2 0x8CF JUMP JUMPDEST DUP3 MSTORE POP POP JUMP JUMPDEST PUSH0 PUSH1 0x20 DUP3 ADD SWAP1 POP PUSH2 0x902 PUSH0 DUP4 ADD DUP5 PUSH2 0x8E0 JUMP JUMPDEST SWAP3 SWAP2 POP POP JUMP JUMPDEST PUSH0 DUP2 SWAP1 POP SWAP2 SWAP1 POP JUMP JUMPDEST PUSH2 0x91A DUP2 PUSH2 0x908 JUMP JUMPDEST DUP3 MSTORE POP POP JUMP JUMPDEST PUSH0 PUSH1 0x20 DUP3 ADD SWAP1 POP PUSH2 0x933 PUSH0 DUP4 ADD DUP5 PUSH2 0x911 JUMP JUMPDEST SWAP3 SWAP2 POP POP JUMP JUMPDEST PUSH0 PUSH1 0x40 MLOAD SWAP1 POP SWAP1 JUMP JUMPDEST PUSH0 DUP1 REVERT JUMPDEST PUSH0 DUP1 REVERT JUMPDEST PUSH2 0x953 DUP2 PUSH2 0x908 JUMP JUMPDEST DUP2 EQ PUSH2 0x95D JUMPI PUSH0 DUP1 REVERT JUMPDEST POP JUMP JUMPDEST PUSH0 DUP2 CALLDATALOAD SWAP1 POP PUSH2 0x96E DUP2 PUSH2 0x94A JUMP JUMPDEST SWAP3 SWAP2 POP POP JUMP JUMPDEST PUSH0 PUSH1 0x20 DUP3 DUP5 SUB SLT ISZERO PUSH2 0x989 JUMPI PUSH2 0x988 PUSH2 0x942 JUMP JUMPDEST JUMPDEST PUSH0 PUSH2 0x996 DUP5 DUP3 DUP6 ADD PUSH2 0x960 JUMP JUMPDEST SWAP2 POP POP SWAP3 SWAP2 POP POP JUMP JUMPDEST PUSH0 DUP1 REVERT JUMPDEST PUSH0 DUP1 REVERT JUMPDEST PUSH32 0x4E487B7100000000000000000000000000000000000000000000000000000000 PUSH0 MSTORE PUSH1 0x41 PUSH1 0x4 MSTORE PUSH1 0x24 PUSH0 REVERT JUMPDEST PUSH2 0x9DD DUP3 PUSH2 0x848 JUMP JUMPDEST DUP2 ADD DUP2 DUP2 LT PUSH8 0xFFFFFFFFFFFFFFFF DUP3 GT OR ISZERO PUSH2 0x9FC JUMPI PUSH2 0x9FB PUSH2 0x9A7 JUMP JUMPDEST JUMPDEST DUP1 PUSH1 0x40 MSTORE POP POP POP JUMP JUMPDEST PUSH0 PUSH2 0xA0E PUSH2 0x939 JUMP JUMPDEST SWAP1 POP PUSH2 0xA1A DUP3 DUP3 PUSH2 0x9D4 JUMP JUMPDEST SWAP2 SWAP1 POP JUMP JUMPDEST PUSH0 PUSH8 0xFFFFFFFFFFFFFFFF DUP3 GT ISZERO PUSH2 0xA39 JUMPI PUSH2 0xA38 PUSH2 0x9A7 JUMP JUMPDEST JUMPDEST PUSH2 0xA42 DUP3 PUSH2 0x848 JUMP JUMPDEST SWAP1 POP PUSH1 0x20 DUP2 ADD SWAP1 POP SWAP2 SWAP1 POP JUMP JUMPDEST DUP3 DUP2 DUP4 CALLDATACOPY PUSH0 DUP4 DUP4 ADD MSTORE POP POP POP JUMP JUMPDEST PUSH0 PUSH2 0xA6F PUSH2 0xA6A DUP5 PUSH2 0xA1F JUMP JUMPDEST PUSH2 0xA05 JUMP JUMPDEST SWAP1 POP DUP3 DUP2 MSTORE PUSH1 0x20 DUP2 ADD DUP5 DUP5 DUP5 ADD GT ISZERO PUSH2 0xA8B JUMPI PUSH2 0xA8A PUSH2 0x9A3 JUMP JUMPDEST JUMPDEST PUSH2 0xA96 DUP5 DUP3 DUP6 PUSH2 0xA4F JUMP JUMPDEST POP SWAP4 SWAP3 POP POP POP JUMP JUMPDEST PUSH0 DUP3 PUSH1 0x1F DUP4 ADD SLT PUSH2 0xAB2 JUMPI PUSH2 0xAB1 PUSH2 0x99F JUMP JUMPDEST JUMPDEST DUP2 CALLDATALOAD PUSH2 0xAC2 DUP5 DUP3 PUSH1 0x20 DUP7 ADD PUSH2 0xA5D JUMP JUMPDEST SWAP2 POP POP SWAP3 SWAP2 POP POP JUMP JUMPDEST PUSH0 PUSH1 0x20 DUP3 DUP5 SUB SLT ISZERO PUSH2 0xAE0 JUMPI PUSH2 0xADF PUSH2 0x942 JUMP JUMPDEST JUMPDEST PUSH0 DUP3 ADD CALLDATALOAD PUSH8 0xFFFFFFFFFFFFFFFF DUP2 GT ISZERO PUSH2 0xAFD JUMPI PUSH2 0xAFC PUSH2 0x946 JUMP JUMPDEST JUMPDEST PUSH2 0xB09 DUP5 DUP3 DUP6 ADD PUSH2 0xA9E JUMP JUMPDEST SWAP2 POP POP SWAP3 SWAP2 POP POP JUMP JUMPDEST PUSH2 0xB1B DUP2 PUSH2 0x8CF JUMP JUMPDEST DUP2 EQ PUSH2 0xB25 JUMPI PUSH0 DUP1 REVERT JUMPDEST POP JUMP JUMPDEST PUSH0 DUP2 CALLDATALOAD SWAP1 POP PUSH2 0xB36 DUP2 PUSH2 0xB12 JUMP JUMPDEST SWAP3 SWAP2 POP POP JUMP JUMPDEST PUSH0 PUSH1 0x20 DUP3 DUP5 SUB SLT ISZERO PUSH2 0xB51 JUMPI PUSH2 0xB50 PUSH2 0x942 JUMP JUMPDEST JUMPDEST PUSH0 PUSH2 0xB5E DUP5 DUP3 DUP6 ADD PUSH2 0xB28 JUMP JUMPDEST SWAP2 POP POP SWAP3 SWAP2 POP POP JUMP JUMPDEST PUSH32 0x4E487B7100000000000000000000000000000000000000000000000000000000 PUSH0 MSTORE PUSH1 0x22 PUSH1 0x4 MSTORE PUSH1 0x24 PUSH0 REVERT JUMPDEST PUSH0 PUSH1 0x2 DUP3 DIV SWAP1 POP PUSH1 0x1 DUP3 AND DUP1 PUSH2 0xBAB JUMPI PUSH1 0x7F DUP3 AND SWAP2 POP JUMPDEST PUSH1 0x20 DUP3 LT DUP2 SUB PUSH2 0xBBE JUMPI PUSH2 0xBBD PUSH2 0xB67 JUMP JUMPDEST JUMPDEST POP SWAP2 SWAP1 POP JUMP JUMPDEST PUSH0 DUP2 SWAP1 POP DUP2 PUSH0 MSTORE PUSH1 0x20 PUSH0 KECCAK256 SWAP1 POP SWAP2 SWAP1 POP JUMP JUMPDEST PUSH0 PUSH1 0x20 PUSH1 0x1F DUP4 ADD DIV SWAP1 POP SWAP2 SWAP1 POP JUMP JUMPDEST PUSH0 DUP3 DUP3 SHL SWAP1 POP SWAP3 SWAP2 POP POP JUMP JUMPDEST PUSH0 PUSH1 0x8 DUP4 MUL PUSH2 0xC20 PUSH32 0xFFFFFFFFFFFFFFFFFFFFFFFFFFFFFFFFFFFFFFFFFFFFFFFFFFFFFFFFFFFFFFFF DUP3 PUSH2 0xBE5 JUMP JUMPDEST PUSH2 0xC2A DUP7 DUP4 PUSH2 0xBE5 JUMP JUMPDEST SWAP6 POP DUP1 NOT DUP5 AND SWAP4 POP DUP1 DUP7 AND DUP5 OR SWAP3 POP POP POP SWAP4 SWAP3 POP POP POP JUMP JUMPDEST PUSH0 DUP2 SWAP1 POP SWAP2 SWAP1 POP JUMP JUMPDEST PUSH0 PUSH2 0xC65 PUSH2 0xC60 PUSH2 0xC5B DUP5 PUSH2 0x908 JUMP JUMPDEST PUSH2 0xC42 JUMP JUMPDEST PUSH2 0x908 JUMP JUMPDEST SWAP1 POP SWAP2 SWAP1 POP JUMP JUMPDEST PUSH0 DUP2 SWAP1 POP SWAP2 SWAP1 POP JUMP JUMPDEST PUSH2 0xC7E DUP4 PUSH2 0xC4B JUMP JUMPDEST PUSH2 0xC92 PUSH2 0xC8A DUP3 PUSH2 0xC6C JUMP JUMPDEST DUP5 DUP5 SLOAD PUSH2 0xBF1 JUMP JUMPDEST DUP3 SSTORE POP POP POP POP JUMP JUMPDEST PUSH0 SWAP1 JUMP JUMPDEST PUSH2 0xCA6 PUSH2 0xC9A JUMP JUMPDEST PUSH2 0xCB1 DUP2 DUP5 DUP5 PUSH2 0xC75 JUMP JUMPDEST POP POP POP JUMP JUMPDEST JUMPDEST DUP2 DUP2 LT ISZERO PUSH2 0xCD4 JUMPI PUSH2 0xCC9 PUSH0 DUP3 PUSH2 0xC9E JUMP JUMPDEST PUSH1 0x1 DUP2 ADD SWAP1 POP PUSH2 0xCB7 JUMP JUMPDEST POP POP JUMP JUMPDEST PUSH1 0x1F DUP3 GT ISZERO PUSH2 0xD19 JUMPI PUSH2 0xCEA DUP2 PUSH2 0xBC4 JUMP JUMPDEST PUSH2 0xCF3 DUP5 PUSH2 0xBD6 JUMP JUMPDEST DUP2 ADD PUSH1 0x20 DUP6 LT ISZERO PUSH2 0xD02 JUMPI DUP2 SWAP1 POP JUMPDEST PUSH2 0xD16 PUSH2 0xD0E DUP6 PUSH2 0xBD6 JUMP JUMPDEST DUP4 ADD DUP3 PUSH2 0xCB6 JUMP JUMPDEST POP POP JUMPDEST POP POP POP JUMP JUMPDEST PUSH0 DUP3 DUP3 SHR SWAP1 POP SWAP3 SWAP2 POP POP JUMP JUMPDEST PUSH0 PUSH2 0xD39 PUSH0 NOT DUP5 PUSH1 0x8 MUL PUSH2 0xD1E JUMP JUMPDEST NOT DUP1 DUP4 AND SWAP2 POP POP SWAP3 SWAP2 POP POP JUMP JUMPDEST PUSH0 PUSH2 0xD51 DUP4 DUP4 PUSH2 0xD2A JUMP JUMPDEST SWAP2 POP DUP3 PUSH1 0x2 MUL DUP3 OR SWAP1 POP SWAP3 SWAP2 POP POP JUMP JUMPDEST PUSH2 0xD6A DUP3 PUSH2 0x806 JUMP JUMPDEST PUSH8 0xFFFFFFFFFFFFFFFF DUP2 GT ISZERO PUSH2 0xD83 JUMPI PUSH2 0xD82 PUSH2 0x9A7 JUMP JUMPDEST JUMPDEST PUSH2 0xD8D DUP3 SLOAD PUSH2 0xB94 JUMP JUMPDEST PUSH2 0xD98 DUP3 DUP3 DUP6 PUSH2 0xCD8 JUMP JUMPDEST PUSH0 PUSH1 0x20 SWAP1 POP PUSH1 0x1F DUP4 GT PUSH1 0x1 DUP2 EQ PUSH2 0xDC9 JUMPI PUSH0 DUP5 ISZERO PUSH2 0xDB7 JUMPI DUP3 DUP8 ADD MLOAD SWAP1 POP JUMPDEST PUSH2 0xDC1 DUP6 DUP3 PUSH2 0xD46 JUMP JUMPDEST DUP7 SSTORE POP PUSH2 0xE28 JUMP JUMPDEST PUSH1 0x1F NOT DUP5 AND PUSH2 0xDD7 DUP7 PUSH2 0xBC4 JUMP JUMPDEST PUSH0 JUMPDEST DUP3 DUP2 LT ISZERO PUSH2 0xDFE JUMPI DUP5 DUP10 ADD MLOAD DUP3 SSTORE PUSH1 0x1 DUP3 ADD SWAP2 POP PUSH1 0x20 DUP6 ADD SWAP5 POP PUSH1 0x20 DUP2 ADD SWAP1 POP PUSH2 0xDD9 JUMP JUMPDEST DUP7 DUP4 LT ISZERO PUSH2 0xE1B JUMPI DUP5 DUP10 ADD MLOAD PUSH2 0xE17 PUSH1 0x1F DUP10 AND DUP3 PUSH2 0xD2A JUMP JUMPDEST DUP4 SSTORE POP JUMPDEST PUSH1 0x1 PUSH1 0x2 DUP9 MUL ADD DUP9 SSTORE POP POP POP JUMPDEST POP POP POP POP POP POP JUMP JUMPDEST PUSH32 0x4E487B7100000000000000000000000000000000000000000000000000000000 PUSH0 MSTORE PUSH1 0x11 PUSH1 0x4 MSTORE PUSH1 0x24 PUSH0 REVERT JUMPDEST PUSH0 PUSH2 0xE67 DUP3 PUSH2 0x908 JUMP JUMPDEST SWAP2 POP PUSH2 0xE72 DUP4 PUSH2 0x908 JUMP JUMPDEST SWAP3 POP DUP3 DUP3 ADD SWAP1 POP DUP1 DUP3 GT ISZERO PUSH2 0xE8A JUMPI PUSH2 0xE89 PUSH2 0xE30 JUMP JUMPDEST JUMPDEST SWAP3 SWAP2 POP POP JUMP JUMPDEST PUSH0 DUP2 SLOAD SWAP1 POP PUSH2 0xE9E DUP2 PUSH2 0xB94 JUMP JUMPDEST SWAP1 POP SWAP2 SWAP1 POP JUMP JUMPDEST PUSH0 DUP2 SWAP1 POP DUP2 PUSH0 MSTORE PUSH1 0x20 PUSH0 KECCAK256 SWAP1 POP SWAP2 SWAP1 POP JUMP JUMPDEST DUP2 DUP2 SUB PUSH2 0xEC5 JUMPI POP POP PUSH2 0xF9A JUMP JUMPDEST PUSH2 0xECE DUP3 PUSH2 0xE90 JUMP JUMPDEST PUSH8 0xFFFFFFFFFFFFFFFF DUP2 GT ISZERO PUSH2 0xEE7 JUMPI PUSH2 0xEE6 PUSH2 0x9A7 JUMP JUMPDEST JUMPDEST PUSH2 0xEF1 DUP3 SLOAD PUSH2 0xB94 JUMP JUMPDEST PUSH2 0xEFC DUP3 DUP3 DUP6 PUSH2 0xCD8 JUMP JUMPDEST PUSH0 PUSH1 0x1F DUP4 GT PUSH1 0x1 DUP2 EQ PUSH2 0xF29 JUMPI PUSH0 DUP5 ISZERO PUSH2 0xF17 JUMPI DUP3 DUP8 ADD SLOAD SWAP1 POP JUMPDEST PUSH2 0xF21 DUP6 DUP3 PUSH2 0xD46 JUMP JUMPDEST DUP7 SSTORE POP PUSH2 0xF93 JUMP JUMPDEST PUSH1 0x1F NOT DUP5 AND PUSH2 0xF37 DUP8 PUSH2 0xEA5 JUMP JUMPDEST SWAP7 POP PUSH2 0xF42 DUP7 PUSH2 0xBC4 JUMP JUMPDEST PUSH0 JUMPDEST DUP3 DUP2 LT ISZERO PUSH2 0xF69 JUMPI DUP5 DUP10 ADD SLOAD DUP3 SSTORE PUSH1 0x1 DUP3 ADD SWAP2 POP PUSH1 0x1 DUP6 ADD SWAP5 POP PUSH1 0x20 DUP2 ADD SWAP1 POP PUSH2 0xF44 JUMP JUMPDEST DUP7 DUP4 LT ISZERO PUSH2 0xF86 JUMPI DUP5 DUP10 ADD SLOAD PUSH2 0xF82 PUSH1 0x1F DUP10 AND DUP3 PUSH2 0xD2A JUMP JUMPDEST DUP4 SSTORE POP JUMPDEST PUSH1 0x1 PUSH1 0x2 DUP9 MUL ADD DUP9 SSTORE POP POP POP JUMPDEST POP POP POP POP POP POP JUMPDEST JUMP JUMPDEST PUSH32 0x4E487B7100000000000000000000000000000000000000000000000000000000 PUSH0 MSTORE PUSH1 0x32 PUSH1 0x4 MSTORE PUSH1 0x24 PUSH0 REVERT JUMPDEST PUSH0 PUSH2 0xFD3 DUP3 PUSH2 0x908 JUMP JUMPDEST SWAP2 POP PUSH2 0xFDE DUP4 PUSH2 0x908 JUMP JUMPDEST SWAP3 POP DUP3 DUP3 MUL PUSH2 0xFEC DUP2 PUSH2 0x908 JUMP JUMPDEST SWAP2 POP DUP3 DUP3 DIV DUP5 EQ DUP4 ISZERO OR PUSH2 0x1003 JUMPI PUSH2 0x1002 PUSH2 0xE30 JUMP JUMPDEST JUMPDEST POP SWAP3 SWAP2 POP POP JUMP INVALID LOG2 PUSH5 0x6970667358 0x22 SLT KECCAK256 0x5C 0x4B PUSH28 0xB5F7866DD493B75DF284AF181CD8E09959C22CEE8C6E0E512B8DB4DB 0xB6 PUSH5 0x736F6C6343 STOP ADDMOD AND STOP CALLER "
				},
				"gasEstimates": {
					"creation": {
						"codeDepositCost": "832000",
						"executionCost": "infinite",
						"totalCost": "infinite"
					},
					"external": {
						"addRecord(address)": "infinite",
						"addRecord(string)": "infinite",
						"getRecordType()": "infinite",
						"getRecordType1()": "infinite",
						"i()": "2513",
						"record()": "infinite",
						"record1()": "2531",
						"records(uint256)": "infinite",
						"setRecord(address)": "24759",
						"setRecord(string)": "infinite",
						"timeOfCreation()": "2469",
						"timeOfCreation1()": "2536"
					},
					"internal": {
						"addressToString(address)": "infinite"
					}
				},
				"methodIdentifiers": {
					"addRecord(address)": "99b53463",
					"addRecord(string)": "d81aa8c4",
					"getRecordType()": "0781f5c9",
					"getRecordType1()": "f00f6df5",
					"i()": "e5aa3d58",
					"record()": "266cf109",
					"record1()": "0d042644",
					"records(uint256)": "34461067",
					"setRecord(address)": "c37787d9",
					"setRecord(string)": "3e0a0099",
					"timeOfCreation()": "1dcd69ec",
					"timeOfCreation1()": "366ca434"
				}
			},
			"storageLayout": {
				"storage": [
					{
						"astId": 3,
						"contract": "Nik_MD_project3.sol:RecordFactory",
						"label": "timeOfCreation",
						"offset": 0,
						"slot": "0",
						"type": "t_uint256"
					},
					{
						"astId": 5,
						"contract": "Nik_MD_project3.sol:RecordFactory",
						"label": "record",
						"offset": 0,
						"slot": "1",
						"type": "t_string_storage"
					},
					{
						"astId": 44,
						"contract": "Nik_MD_project3.sol:RecordFactory",
						"label": "timeOfCreation1",
						"offset": 0,
						"slot": "2",
						"type": "t_uint256"
					},
					{
						"astId": 46,
						"contract": "Nik_MD_project3.sol:RecordFactory",
						"label": "record1",
						"offset": 0,
						"slot": "3",
						"type": "t_address"
					},
					{
						"astId": 111,
						"contract": "Nik_MD_project3.sol:RecordFactory",
						"label": "records",
						"offset": 0,
						"slot": "4",
						"type": "t_mapping(t_uint256,t_string_storage)"
					},
					{
						"astId": 113,
						"contract": "Nik_MD_project3.sol:RecordFactory",
						"label": "i",
						"offset": 0,
						"slot": "5",
						"type": "t_uint256"
					}
				],
				"types": {
					"t_address": {
						"encoding": "inplace",
						"label": "address",
						"numberOfBytes": "20"
					},
					"t_mapping(t_uint256,t_string_storage)": {
						"encoding": "mapping",
						"key": "t_uint256",
						"label": "mapping(uint256 => string)",
						"numberOfBytes": "32",
						"value": "t_string_storage"
					},
					"t_string_storage": {
						"encoding": "bytes",
						"label": "string",
						"numberOfBytes": "32"
					},
					"t_uint256": {
						"encoding": "inplace",
						"label": "uint256",
						"numberOfBytes": "32"
					}
				}
			},
			"userdoc": {
				"kind": "user",
				"methods": {},
				"version": 1
			}
		}
	}
}