{
	"practice46.sol": {
		"Moods": {
			"abi": [
				{
					"inputs": [],
					"name": "counter",
					"outputs": [
						{
							"internalType": "uint256",
							"name": "",
							"type": "uint256"
						}
					],
					"stateMutability": "view",
					"type": "function"
				},
				{
					"inputs": [],
					"name": "currentMood",
					"outputs": [
						{
							"internalType": "enum Moods.Mood",
							"name": "",
							"type": "uint8"
						}
					],
					"stateMutability": "view",
					"type": "function"
				},
				{
					"inputs": [
						{
							"internalType": "enum Moods.Mood",
							"name": "_mood",
							"type": "uint8"
						}
					],
					"name": "setMood",
					"outputs": [],
					"stateMutability": "nonpayable",
					"type": "function"
				},
				{
					"inputs": [
						{
							"internalType": "enum Moods.Mood",
							"name": "_expectedMood",
							"type": "uint8"
						}
					],
					"name": "someAction",
					"outputs": [],
					"stateMutability": "nonpayable",
					"type": "function"
				}
			],
			"devdoc": {
				"kind": "dev",
				"methods": {},
				"version": 1
			},
			"evm": {
				"assembly": "    /* \"practice46.sol\":64:493  contract Moods {... */\n  mstore(0x40, 0x80)\n  callvalue\n  dup1\n  iszero\n  tag_1\n  jumpi\n  0x00\n  dup1\n  revert\ntag_1:\n  pop\n  dataSize(sub_0)\n  dup1\n  dataOffset(sub_0)\n  0x00\n  codecopy\n  0x00\n  return\nstop\n\nsub_0: assembly {\n        /* \"practice46.sol\":64:493  contract Moods {... */\n      mstore(0x40, 0x80)\n      callvalue\n      dup1\n      iszero\n      tag_1\n      jumpi\n      0x00\n      dup1\n      revert\n    tag_1:\n      pop\n      jumpi(tag_2, lt(calldatasize, 0x04))\n      shr(0xe0, calldataload(0x00))\n      dup1\n      0x0616cca0\n      eq\n      tag_3\n      jumpi\n      dup1\n      0x0c8d6d51\n      eq\n      tag_4\n      jumpi\n      dup1\n      0x61bc221a\n      eq\n      tag_5\n      jumpi\n      dup1\n      0x95e9af03\n      eq\n      tag_6\n      jumpi\n    tag_2:\n      0x00\n      dup1\n      revert\n        /* \"practice46.sol\":150:173  Mood public currentMood */\n    tag_3:\n      tag_7\n      tag_8\n      jump\t// in\n    tag_7:\n      mload(0x40)\n      tag_9\n      swap2\n      swap1\n      tag_10\n      jump\t// in\n    tag_9:\n      mload(0x40)\n      dup1\n      swap2\n      sub\n      swap1\n      return\n        /* \"practice46.sol\":204:272  function setMood(Mood _mood) public {... */\n    tag_4:\n      tag_11\n      0x04\n      dup1\n      calldatasize\n      sub\n      dup2\n      add\n      swap1\n      tag_12\n      swap2\n      swap1\n      tag_13\n      jump\t// in\n    tag_12:\n      tag_14\n      jump\t// in\n    tag_11:\n      stop\n        /* \"practice46.sol\":178:197  uint public counter */\n    tag_5:\n      tag_15\n      tag_16\n      jump\t// in\n    tag_15:\n      mload(0x40)\n      tag_17\n      swap2\n      swap1\n      tag_18\n      jump\t// in\n    tag_17:\n      mload(0x40)\n      dup1\n      swap2\n      sub\n      swap1\n      return\n        /* \"practice46.sol\":396:490  function someAction(Mood _expectedMood) public checkMood(_expectedMood) {... */\n    tag_6:\n      tag_19\n      0x04\n      dup1\n      calldatasize\n      sub\n      dup2\n      add\n      swap1\n      tag_20\n      swap2\n      swap1\n      tag_13\n      jump\t// in\n    tag_20:\n      tag_21\n      jump\t// in\n    tag_19:\n      stop\n        /* \"practice46.sol\":150:173  Mood public currentMood */\n    tag_8:\n      0x00\n      dup1\n      sload\n      swap1\n      0x0100\n      exp\n      swap1\n      div\n      0xff\n      and\n      dup2\n      jump\t// out\n        /* \"practice46.sol\":204:272  function setMood(Mood _mood) public {... */\n    tag_14:\n        /* \"practice46.sol\":261:266  _mood */\n      dup1\n        /* \"practice46.sol\":247:258  currentMood */\n      0x00\n      dup1\n        /* \"practice46.sol\":247:266  currentMood = _mood */\n      0x0100\n      exp\n      dup2\n      sload\n      dup2\n      0xff\n      mul\n      not\n      and\n      swap1\n      dup4\n      0x05\n      dup2\n      gt\n      iszero\n      tag_23\n      jumpi\n      tag_24\n      tag_25\n      jump\t// in\n    tag_24:\n    tag_23:\n      mul\n      or\n      swap1\n      sstore\n      pop\n        /* \"practice46.sol\":204:272  function setMood(Mood _mood) public {... */\n      pop\n      jump\t// out\n        /* \"practice46.sol\":178:197  uint public counter */\n    tag_16:\n      sload(0x01)\n      dup2\n      jump\t// out\n        /* \"practice46.sol\":396:490  function someAction(Mood _expectedMood) public checkMood(_expectedMood) {... */\n    tag_21:\n        /* \"practice46.sol\":453:466  _expectedMood */\n      dup1\n        /* \"practice46.sol\":349:360  currentMood */\n      0x00\n      dup1\n      sload\n      swap1\n      0x0100\n      exp\n      swap1\n      div\n      0xff\n      and\n        /* \"practice46.sol\":332:360  _expectedMood == currentMood */\n      0x05\n      dup2\n      gt\n      iszero\n      tag_27\n      jumpi\n      tag_28\n      tag_25\n      jump\t// in\n    tag_28:\n    tag_27:\n        /* \"practice46.sol\":332:345  _expectedMood */\n      dup2\n        /* \"practice46.sol\":332:360  _expectedMood == currentMood */\n      0x05\n      dup2\n      gt\n      iszero\n      tag_29\n      jumpi\n      tag_30\n      tag_25\n      jump\t// in\n    tag_30:\n    tag_29:\n      eq\n        /* \"practice46.sol\":324:376  require(_expectedMood == currentMood, \"Wrong Mood!\") */\n      tag_31\n      jumpi\n      mload(0x40)\n      0x08c379a000000000000000000000000000000000000000000000000000000000\n      dup2\n      mstore\n      0x04\n      add\n      tag_32\n      swap1\n      tag_33\n      jump\t// in\n    tag_32:\n      mload(0x40)\n      dup1\n      swap2\n      sub\n      swap1\n      revert\n    tag_31:\n        /* \"practice46.sol\":475:482  counter */\n      0x01\n      0x00\n        /* \"practice46.sol\":475:484  counter++ */\n      dup2\n      sload\n      dup1\n      swap3\n      swap2\n      swap1\n      tag_35\n      swap1\n      tag_36\n      jump\t// in\n    tag_35:\n      swap2\n      swap1\n      pop\n      sstore\n      pop\n        /* \"practice46.sol\":396:490  function someAction(Mood _expectedMood) public checkMood(_expectedMood) {... */\n      pop\n      pop\n      jump\t// out\n        /* \"#utility.yul\":7:187   */\n    tag_25:\n        /* \"#utility.yul\":55:132   */\n      0x4e487b7100000000000000000000000000000000000000000000000000000000\n        /* \"#utility.yul\":52:53   */\n      0x00\n        /* \"#utility.yul\":45:133   */\n      mstore\n        /* \"#utility.yul\":152:156   */\n      0x21\n        /* \"#utility.yul\":149:150   */\n      0x04\n        /* \"#utility.yul\":142:157   */\n      mstore\n        /* \"#utility.yul\":176:180   */\n      0x24\n        /* \"#utility.yul\":173:174   */\n      0x00\n        /* \"#utility.yul\":166:181   */\n      revert\n        /* \"#utility.yul\":193:304   */\n    tag_37:\n        /* \"#utility.yul\":272:273   */\n      0x06\n        /* \"#utility.yul\":265:270   */\n      dup2\n        /* \"#utility.yul\":262:274   */\n      lt\n        /* \"#utility.yul\":252:298   */\n      tag_55\n      jumpi\n        /* \"#utility.yul\":278:296   */\n      tag_56\n      tag_25\n      jump\t// in\n    tag_56:\n        /* \"#utility.yul\":252:298   */\n    tag_55:\n        /* \"#utility.yul\":193:304   */\n      pop\n      jump\t// out\n        /* \"#utility.yul\":310:433   */\n    tag_38:\n        /* \"#utility.yul\":353:360   */\n      0x00\n        /* \"#utility.yul\":382:387   */\n      dup2\n        /* \"#utility.yul\":371:387   */\n      swap1\n      pop\n        /* \"#utility.yul\":388:427   */\n      tag_58\n        /* \"#utility.yul\":421:426   */\n      dup3\n        /* \"#utility.yul\":388:427   */\n      tag_37\n      jump\t// in\n    tag_58:\n        /* \"#utility.yul\":310:433   */\n      swap2\n      swap1\n      pop\n      jump\t// out\n        /* \"#utility.yul\":439:562   */\n    tag_39:\n        /* \"#utility.yul\":493:502   */\n      0x00\n        /* \"#utility.yul\":526:556   */\n      tag_60\n        /* \"#utility.yul\":550:555   */\n      dup3\n        /* \"#utility.yul\":526:556   */\n      tag_38\n      jump\t// in\n    tag_60:\n        /* \"#utility.yul\":513:556   */\n      swap1\n      pop\n        /* \"#utility.yul\":439:562   */\n      swap2\n      swap1\n      pop\n      jump\t// out\n        /* \"#utility.yul\":568:707   */\n    tag_40:\n        /* \"#utility.yul\":659:700   */\n      tag_62\n        /* \"#utility.yul\":694:699   */\n      dup2\n        /* \"#utility.yul\":659:700   */\n      tag_39\n      jump\t// in\n    tag_62:\n        /* \"#utility.yul\":654:657   */\n      dup3\n        /* \"#utility.yul\":647:701   */\n      mstore\n        /* \"#utility.yul\":568:707   */\n      pop\n      pop\n      jump\t// out\n        /* \"#utility.yul\":713:943   */\n    tag_10:\n        /* \"#utility.yul\":810:814   */\n      0x00\n        /* \"#utility.yul\":848:850   */\n      0x20\n        /* \"#utility.yul\":837:846   */\n      dup3\n        /* \"#utility.yul\":833:851   */\n      add\n        /* \"#utility.yul\":825:851   */\n      swap1\n      pop\n        /* \"#utility.yul\":861:936   */\n      tag_64\n        /* \"#utility.yul\":933:934   */\n      0x00\n        /* \"#utility.yul\":922:931   */\n      dup4\n        /* \"#utility.yul\":918:935   */\n      add\n        /* \"#utility.yul\":909:915   */\n      dup5\n        /* \"#utility.yul\":861:936   */\n      tag_40\n      jump\t// in\n    tag_64:\n        /* \"#utility.yul\":713:943   */\n      swap3\n      swap2\n      pop\n      pop\n      jump\t// out\n        /* \"#utility.yul\":1030:1147   */\n    tag_42:\n        /* \"#utility.yul\":1139:1140   */\n      0x00\n        /* \"#utility.yul\":1136:1137   */\n      dup1\n        /* \"#utility.yul\":1129:1141   */\n      revert\n        /* \"#utility.yul\":1276:1381   */\n    tag_44:\n        /* \"#utility.yul\":1355:1356   */\n      0x06\n        /* \"#utility.yul\":1348:1353   */\n      dup2\n        /* \"#utility.yul\":1345:1357   */\n      lt\n        /* \"#utility.yul\":1335:1375   */\n      tag_69\n      jumpi\n        /* \"#utility.yul\":1371:1372   */\n      0x00\n        /* \"#utility.yul\":1368:1369   */\n      dup1\n        /* \"#utility.yul\":1361:1373   */\n      revert\n        /* \"#utility.yul\":1335:1375   */\n    tag_69:\n        /* \"#utility.yul\":1276:1381   */\n      pop\n      jump\t// out\n        /* \"#utility.yul\":1387:1538   */\n    tag_45:\n        /* \"#utility.yul\":1439:1444   */\n      0x00\n        /* \"#utility.yul\":1477:1483   */\n      dup2\n        /* \"#utility.yul\":1464:1484   */\n      calldataload\n        /* \"#utility.yul\":1455:1484   */\n      swap1\n      pop\n        /* \"#utility.yul\":1493:1532   */\n      tag_71\n        /* \"#utility.yul\":1526:1531   */\n      dup2\n        /* \"#utility.yul\":1493:1532   */\n      tag_44\n      jump\t// in\n    tag_71:\n        /* \"#utility.yul\":1387:1538   */\n      swap3\n      swap2\n      pop\n      pop\n      jump\t// out\n        /* \"#utility.yul\":1544:1885   */\n    tag_13:\n        /* \"#utility.yul\":1609:1615   */\n      0x00\n        /* \"#utility.yul\":1658:1660   */\n      0x20\n        /* \"#utility.yul\":1646:1655   */\n      dup3\n        /* \"#utility.yul\":1637:1644   */\n      dup5\n        /* \"#utility.yul\":1633:1656   */\n      sub\n        /* \"#utility.yul\":1629:1661   */\n      slt\n        /* \"#utility.yul\":1626:1745   */\n      iszero\n      tag_73\n      jumpi\n        /* \"#utility.yul\":1664:1743   */\n      tag_74\n      tag_42\n      jump\t// in\n    tag_74:\n        /* \"#utility.yul\":1626:1745   */\n    tag_73:\n        /* \"#utility.yul\":1784:1785   */\n      0x00\n        /* \"#utility.yul\":1809:1868   */\n      tag_75\n        /* \"#utility.yul\":1860:1867   */\n      dup5\n        /* \"#utility.yul\":1851:1857   */\n      dup3\n        /* \"#utility.yul\":1840:1849   */\n      dup6\n        /* \"#utility.yul\":1836:1858   */\n      add\n        /* \"#utility.yul\":1809:1868   */\n      tag_45\n      jump\t// in\n    tag_75:\n        /* \"#utility.yul\":1799:1868   */\n      swap2\n      pop\n        /* \"#utility.yul\":1755:1878   */\n      pop\n        /* \"#utility.yul\":1544:1885   */\n      swap3\n      swap2\n      pop\n      pop\n      jump\t// out\n        /* \"#utility.yul\":1891:1968   */\n    tag_46:\n        /* \"#utility.yul\":1928:1935   */\n      0x00\n        /* \"#utility.yul\":1957:1962   */\n      dup2\n        /* \"#utility.yul\":1946:1962   */\n      swap1\n      pop\n        /* \"#utility.yul\":1891:1968   */\n      swap2\n      swap1\n      pop\n      jump\t// out\n        /* \"#utility.yul\":1974:2092   */\n    tag_47:\n        /* \"#utility.yul\":2061:2085   */\n      tag_78\n        /* \"#utility.yul\":2079:2084   */\n      dup2\n        /* \"#utility.yul\":2061:2085   */\n      tag_46\n      jump\t// in\n    tag_78:\n        /* \"#utility.yul\":2056:2059   */\n      dup3\n        /* \"#utility.yul\":2049:2086   */\n      mstore\n        /* \"#utility.yul\":1974:2092   */\n      pop\n      pop\n      jump\t// out\n        /* \"#utility.yul\":2098:2320   */\n    tag_18:\n        /* \"#utility.yul\":2191:2195   */\n      0x00\n        /* \"#utility.yul\":2229:2231   */\n      0x20\n        /* \"#utility.yul\":2218:2227   */\n      dup3\n        /* \"#utility.yul\":2214:2232   */\n      add\n        /* \"#utility.yul\":2206:2232   */\n      swap1\n      pop\n        /* \"#utility.yul\":2242:2313   */\n      tag_80\n        /* \"#utility.yul\":2310:2311   */\n      0x00\n        /* \"#utility.yul\":2299:2308   */\n      dup4\n        /* \"#utility.yul\":2295:2312   */\n      add\n        /* \"#utility.yul\":2286:2292   */\n      dup5\n        /* \"#utility.yul\":2242:2313   */\n      tag_47\n      jump\t// in\n    tag_80:\n        /* \"#utility.yul\":2098:2320   */\n      swap3\n      swap2\n      pop\n      pop\n      jump\t// out\n        /* \"#utility.yul\":2326:2495   */\n    tag_48:\n        /* \"#utility.yul\":2410:2421   */\n      0x00\n        /* \"#utility.yul\":2444:2450   */\n      dup3\n        /* \"#utility.yul\":2439:2442   */\n      dup3\n        /* \"#utility.yul\":2432:2451   */\n      mstore\n        /* \"#utility.yul\":2484:2488   */\n      0x20\n        /* \"#utility.yul\":2479:2482   */\n      dup3\n        /* \"#utility.yul\":2475:2489   */\n      add\n        /* \"#utility.yul\":2460:2489   */\n      swap1\n      pop\n        /* \"#utility.yul\":2326:2495   */\n      swap3\n      swap2\n      pop\n      pop\n      jump\t// out\n        /* \"#utility.yul\":2501:2662   */\n    tag_49:\n        /* \"#utility.yul\":2641:2654   */\n      0x57726f6e67204d6f6f6421000000000000000000000000000000000000000000\n        /* \"#utility.yul\":2637:2638   */\n      0x00\n        /* \"#utility.yul\":2629:2635   */\n      dup3\n        /* \"#utility.yul\":2625:2639   */\n      add\n        /* \"#utility.yul\":2618:2655   */\n      mstore\n        /* \"#utility.yul\":2501:2662   */\n      pop\n      jump\t// out\n        /* \"#utility.yul\":2668:3034   */\n    tag_50:\n        /* \"#utility.yul\":2810:2813   */\n      0x00\n        /* \"#utility.yul\":2831:2898   */\n      tag_84\n        /* \"#utility.yul\":2895:2897   */\n      0x0b\n        /* \"#utility.yul\":2890:2893   */\n      dup4\n        /* \"#utility.yul\":2831:2898   */\n      tag_48\n      jump\t// in\n    tag_84:\n        /* \"#utility.yul\":2824:2898   */\n      swap2\n      pop\n        /* \"#utility.yul\":2907:3000   */\n      tag_85\n        /* \"#utility.yul\":2996:2999   */\n      dup3\n        /* \"#utility.yul\":2907:3000   */\n      tag_49\n      jump\t// in\n    tag_85:\n        /* \"#utility.yul\":3025:3027   */\n      0x20\n        /* \"#utility.yul\":3020:3023   */\n      dup3\n        /* \"#utility.yul\":3016:3028   */\n      add\n        /* \"#utility.yul\":3009:3028   */\n      swap1\n      pop\n        /* \"#utility.yul\":2668:3034   */\n      swap2\n      swap1\n      pop\n      jump\t// out\n        /* \"#utility.yul\":3040:3459   */\n    tag_33:\n        /* \"#utility.yul\":3206:3210   */\n      0x00\n        /* \"#utility.yul\":3244:3246   */\n      0x20\n        /* \"#utility.yul\":3233:3242   */\n      dup3\n        /* \"#utility.yul\":3229:3247   */\n      add\n        /* \"#utility.yul\":3221:3247   */\n      swap1\n      pop\n        /* \"#utility.yul\":3293:3302   */\n      dup2\n        /* \"#utility.yul\":3287:3291   */\n      dup2\n        /* \"#utility.yul\":3283:3303   */\n      sub\n        /* \"#utility.yul\":3279:3280   */\n      0x00\n        /* \"#utility.yul\":3268:3277   */\n      dup4\n        /* \"#utility.yul\":3264:3281   */\n      add\n        /* \"#utility.yul\":3257:3304   */\n      mstore\n        /* \"#utility.yul\":3321:3452   */\n      tag_87\n        /* \"#utility.yul\":3447:3451   */\n      dup2\n        /* \"#utility.yul\":3321:3452   */\n      tag_50\n      jump\t// in\n    tag_87:\n        /* \"#utility.yul\":3313:3452   */\n      swap1\n      pop\n        /* \"#utility.yul\":3040:3459   */\n      swap2\n      swap1\n      pop\n      jump\t// out\n        /* \"#utility.yul\":3465:3645   */\n    tag_51:\n        /* \"#utility.yul\":3513:3590   */\n      0x4e487b7100000000000000000000000000000000000000000000000000000000\n        /* \"#utility.yul\":3510:3511   */\n      0x00\n        /* \"#utility.yul\":3503:3591   */\n      mstore\n        /* \"#utility.yul\":3610:3614   */\n      0x11\n        /* \"#utility.yul\":3607:3608   */\n      0x04\n        /* \"#utility.yul\":3600:3615   */\n      mstore\n        /* \"#utility.yul\":3634:3638   */\n      0x24\n        /* \"#utility.yul\":3631:3632   */\n      0x00\n        /* \"#utility.yul\":3624:3639   */\n      revert\n        /* \"#utility.yul\":3651:3884   */\n    tag_36:\n        /* \"#utility.yul\":3690:3693   */\n      0x00\n        /* \"#utility.yul\":3713:3737   */\n      tag_90\n        /* \"#utility.yul\":3731:3736   */\n      dup3\n        /* \"#utility.yul\":3713:3737   */\n      tag_46\n      jump\t// in\n    tag_90:\n        /* \"#utility.yul\":3704:3737   */\n      swap2\n      pop\n        /* \"#utility.yul\":3759:3825   */\n      0xffffffffffffffffffffffffffffffffffffffffffffffffffffffffffffffff\n        /* \"#utility.yul\":3752:3757   */\n      dup3\n        /* \"#utility.yul\":3749:3826   */\n      sub\n        /* \"#utility.yul\":3746:3849   */\n      tag_91\n      jumpi\n        /* \"#utility.yul\":3829:3847   */\n      tag_92\n      tag_51\n      jump\t// in\n    tag_92:\n        /* \"#utility.yul\":3746:3849   */\n    tag_91:\n        /* \"#utility.yul\":3876:3877   */\n      0x01\n        /* \"#utility.yul\":3869:3874   */\n      dup3\n        /* \"#utility.yul\":3865:3878   */\n      add\n        /* \"#utility.yul\":3858:3878   */\n      swap1\n      pop\n        /* \"#utility.yul\":3651:3884   */\n      swap2\n      swap1\n      pop\n      jump\t// out\n\n    auxdata: 0xa2646970667358221220d45cf3d7d2c7af92f387d36e99fcf6e6b695e0714e1b8da851fd939ca9ba15e564736f6c63430008160033\n}\n",
				"bytecode": {
					"linkReferences": {},
					"object": "608060405234801561000f575f80fd5b506103c28061001d5f395ff3fe608060405234801561000f575f80fd5b506004361061004a575f3560e01c80630616cca01461004e5780630c8d6d511461006c57806361bc221a1461008857806395e9af03146100a6575b5f80fd5b6100566100c2565b6040516100639190610204565b60405180910390f35b61008660048036038101906100819190610244565b6100d2565b005b6100906100fd565b60405161009d9190610287565b60405180910390f35b6100c060048036038101906100bb9190610244565b610103565b005b5f8054906101000a900460ff1681565b805f806101000a81548160ff021916908360058111156100f5576100f4610191565b5b021790555050565b60015481565b805f8054906101000a900460ff16600581111561012357610122610191565b5b81600581111561013657610135610191565b5b14610176576040517f08c379a000000000000000000000000000000000000000000000000000000000815260040161016d906102fa565b60405180910390fd5b60015f81548092919061018890610345565b91905055505050565b7f4e487b71000000000000000000000000000000000000000000000000000000005f52602160045260245ffd5b600681106101cf576101ce610191565b5b50565b5f8190506101df826101be565b919050565b5f6101ee826101d2565b9050919050565b6101fe816101e4565b82525050565b5f6020820190506102175f8301846101f5565b92915050565b5f80fd5b6006811061022d575f80fd5b50565b5f8135905061023e81610221565b92915050565b5f602082840312156102595761025861021d565b5b5f61026684828501610230565b91505092915050565b5f819050919050565b6102818161026f565b82525050565b5f60208201905061029a5f830184610278565b92915050565b5f82825260208201905092915050565b7f57726f6e67204d6f6f64210000000000000000000000000000000000000000005f82015250565b5f6102e4600b836102a0565b91506102ef826102b0565b602082019050919050565b5f6020820190508181035f830152610311816102d8565b9050919050565b7f4e487b71000000000000000000000000000000000000000000000000000000005f52601160045260245ffd5b5f61034f8261026f565b91507fffffffffffffffffffffffffffffffffffffffffffffffffffffffffffffffff820361038157610380610318565b5b60018201905091905056fea2646970667358221220d45cf3d7d2c7af92f387d36e99fcf6e6b695e0714e1b8da851fd939ca9ba15e564736f6c63430008160033",
					"opcodes": "PUSH1 0x80 PUSH1 0x40 MSTORE CALLVALUE DUP1 ISZERO PUSH2 0xF JUMPI PUSH0 DUP1 REVERT JUMPDEST POP PUSH2 0x3C2 DUP1 PUSH2 0x1D PUSH0 CODECOPY PUSH0 RETURN INVALID PUSH1 0x80 PUSH1 0x40 MSTORE CALLVALUE DUP1 ISZERO PUSH2 0xF JUMPI PUSH0 DUP1 REVERT JUMPDEST POP PUSH1 0x4 CALLDATASIZE LT PUSH2 0x4A JUMPI PUSH0 CALLDATALOAD PUSH1 0xE0 SHR DUP1 PUSH4 0x616CCA0 EQ PUSH2 0x4E JUMPI DUP1 PUSH4 0xC8D6D51 EQ PUSH2 0x6C JUMPI DUP1 PUSH4 0x61BC221A EQ PUSH2 0x88 JUMPI DUP1 PUSH4 0x95E9AF03 EQ PUSH2 0xA6 JUMPI JUMPDEST PUSH0 DUP1 REVERT JUMPDEST PUSH2 0x56 PUSH2 0xC2 JUMP JUMPDEST PUSH1 0x40 MLOAD PUSH2 0x63 SWAP2 SWAP1 PUSH2 0x204 JUMP JUMPDEST PUSH1 0x40 MLOAD DUP1 SWAP2 SUB SWAP1 RETURN JUMPDEST PUSH2 0x86 PUSH1 0x4 DUP1 CALLDATASIZE SUB DUP2 ADD SWAP1 PUSH2 0x81 SWAP2 SWAP1 PUSH2 0x244 JUMP JUMPDEST PUSH2 0xD2 JUMP JUMPDEST STOP JUMPDEST PUSH2 0x90 PUSH2 0xFD JUMP JUMPDEST PUSH1 0x40 MLOAD PUSH2 0x9D SWAP2 SWAP1 PUSH2 0x287 JUMP JUMPDEST PUSH1 0x40 MLOAD DUP1 SWAP2 SUB SWAP1 RETURN JUMPDEST PUSH2 0xC0 PUSH1 0x4 DUP1 CALLDATASIZE SUB DUP2 ADD SWAP1 PUSH2 0xBB SWAP2 SWAP1 PUSH2 0x244 JUMP JUMPDEST PUSH2 0x103 JUMP JUMPDEST STOP JUMPDEST PUSH0 DUP1 SLOAD SWAP1 PUSH2 0x100 EXP SWAP1 DIV PUSH1 0xFF AND DUP2 JUMP JUMPDEST DUP1 PUSH0 DUP1 PUSH2 0x100 EXP DUP2 SLOAD DUP2 PUSH1 0xFF MUL NOT AND SWAP1 DUP4 PUSH1 0x5 DUP2 GT ISZERO PUSH2 0xF5 JUMPI PUSH2 0xF4 PUSH2 0x191 JUMP JUMPDEST JUMPDEST MUL OR SWAP1 SSTORE POP POP JUMP JUMPDEST PUSH1 0x1 SLOAD DUP2 JUMP JUMPDEST DUP1 PUSH0 DUP1 SLOAD SWAP1 PUSH2 0x100 EXP SWAP1 DIV PUSH1 0xFF AND PUSH1 0x5 DUP2 GT ISZERO PUSH2 0x123 JUMPI PUSH2 0x122 PUSH2 0x191 JUMP JUMPDEST JUMPDEST DUP2 PUSH1 0x5 DUP2 GT ISZERO PUSH2 0x136 JUMPI PUSH2 0x135 PUSH2 0x191 JUMP JUMPDEST JUMPDEST EQ PUSH2 0x176 JUMPI PUSH1 0x40 MLOAD PUSH32 0x8C379A000000000000000000000000000000000000000000000000000000000 DUP2 MSTORE PUSH1 0x4 ADD PUSH2 0x16D SWAP1 PUSH2 0x2FA JUMP JUMPDEST PUSH1 0x40 MLOAD DUP1 SWAP2 SUB SWAP1 REVERT JUMPDEST PUSH1 0x1 PUSH0 DUP2 SLOAD DUP1 SWAP3 SWAP2 SWAP1 PUSH2 0x188 SWAP1 PUSH2 0x345 JUMP JUMPDEST SWAP2 SWAP1 POP SSTORE POP POP POP JUMP JUMPDEST PUSH32 0x4E487B7100000000000000000000000000000000000000000000000000000000 PUSH0 MSTORE PUSH1 0x21 PUSH1 0x4 MSTORE PUSH1 0x24 PUSH0 REVERT JUMPDEST PUSH1 0x6 DUP2 LT PUSH2 0x1CF JUMPI PUSH2 0x1CE PUSH2 0x191 JUMP JUMPDEST JUMPDEST POP JUMP JUMPDEST PUSH0 DUP2 SWAP1 POP PUSH2 0x1DF DUP3 PUSH2 0x1BE JUMP JUMPDEST SWAP2 SWAP1 POP JUMP JUMPDEST PUSH0 PUSH2 0x1EE DUP3 PUSH2 0x1D2 JUMP JUMPDEST SWAP1 POP SWAP2 SWAP1 POP JUMP JUMPDEST PUSH2 0x1FE DUP2 PUSH2 0x1E4 JUMP JUMPDEST DUP3 MSTORE POP POP JUMP JUMPDEST PUSH0 PUSH1 0x20 DUP3 ADD SWAP1 POP PUSH2 0x217 PUSH0 DUP4 ADD DUP5 PUSH2 0x1F5 JUMP JUMPDEST SWAP3 SWAP2 POP POP JUMP JUMPDEST PUSH0 DUP1 REVERT JUMPDEST PUSH1 0x6 DUP2 LT PUSH2 0x22D JUMPI PUSH0 DUP1 REVERT JUMPDEST POP JUMP JUMPDEST PUSH0 DUP2 CALLDATALOAD SWAP1 POP PUSH2 0x23E DUP2 PUSH2 0x221 JUMP JUMPDEST SWAP3 SWAP2 POP POP JUMP JUMPDEST PUSH0 PUSH1 0x20 DUP3 DUP5 SUB SLT ISZERO PUSH2 0x259 JUMPI PUSH2 0x258 PUSH2 0x21D JUMP JUMPDEST JUMPDEST PUSH0 PUSH2 0x266 DUP5 DUP3 DUP6 ADD PUSH2 0x230 JUMP JUMPDEST SWAP2 POP POP SWAP3 SWAP2 POP POP JUMP JUMPDEST PUSH0 DUP2 SWAP1 POP SWAP2 SWAP1 POP JUMP JUMPDEST PUSH2 0x281 DUP2 PUSH2 0x26F JUMP JUMPDEST DUP3 MSTORE POP POP JUMP JUMPDEST PUSH0 PUSH1 0x20 DUP3 ADD SWAP1 POP PUSH2 0x29A PUSH0 DUP4 ADD DUP5 PUSH2 0x278 JUMP JUMPDEST SWAP3 SWAP2 POP POP JUMP JUMPDEST PUSH0 DUP3 DUP3 MSTORE PUSH1 0x20 DUP3 ADD SWAP1 POP SWAP3 SWAP2 POP POP JUMP JUMPDEST PUSH32 0x57726F6E67204D6F6F6421000000000000000000000000000000000000000000 PUSH0 DUP3 ADD MSTORE POP JUMP JUMPDEST PUSH0 PUSH2 0x2E4 PUSH1 0xB DUP4 PUSH2 0x2A0 JUMP JUMPDEST SWAP2 POP PUSH2 0x2EF DUP3 PUSH2 0x2B0 JUMP JUMPDEST PUSH1 0x20 DUP3 ADD SWAP1 POP SWAP2 SWAP1 POP JUMP JUMPDEST PUSH0 PUSH1 0x20 DUP3 ADD SWAP1 POP DUP2 DUP2 SUB PUSH0 DUP4 ADD MSTORE PUSH2 0x311 DUP2 PUSH2 0x2D8 JUMP JUMPDEST SWAP1 POP SWAP2 SWAP1 POP JUMP JUMPDEST PUSH32 0x4E487B7100000000000000000000000000000000000000000000000000000000 PUSH0 MSTORE PUSH1 0x11 PUSH1 0x4 MSTORE PUSH1 0x24 PUSH0 REVERT JUMPDEST PUSH0 PUSH2 0x34F DUP3 PUSH2 0x26F JUMP JUMPDEST SWAP2 POP PUSH32 0xFFFFFFFFFFFFFFFFFFFFFFFFFFFFFFFFFFFFFFFFFFFFFFFFFFFFFFFFFFFFFFFF DUP3 SUB PUSH2 0x381 JUMPI PUSH2 0x380 PUSH2 0x318 JUMP JUMPDEST JUMPDEST PUSH1 0x1 DUP3 ADD SWAP1 POP SWAP2 SWAP1 POP JUMP INVALID LOG2 PUSH5 0x6970667358 0x22 SLT KECCAK256 0xD4 0x5C RETURN 0xD7 0xD2 0xC7 0xAF SWAP3 RETURN DUP8 0xD3 PUSH15 0x99FCF6E6B695E0714E1B8DA851FD93 SWAP13 0xA9 0xBA ISZERO 0xE5 PUSH5 0x736F6C6343 STOP ADDMOD AND STOP CALLER "
				},
				"gasEstimates": {
					"creation": {
						"codeDepositCost": "192400",
						"executionCost": "236",
						"totalCost": "192636"
					},
					"external": {
						"counter()": "2447",
						"currentMood()": "2529",
						"setMood(uint8)": "24645",
						"someAction(uint8)": "26969"
					}
				},
				"methodIdentifiers": {
					"counter()": "61bc221a",
					"currentMood()": "0616cca0",
					"setMood(uint8)": "0c8d6d51",
					"someAction(uint8)": "95e9af03"
				}
			},
			"storageLayout": {
				"storage": [
					{
						"astId": 11,
						"contract": "practice46.sol:Moods",
						"label": "currentMood",
						"offset": 0,
						"slot": "0",
						"type": "t_enum(Mood)8"
					},
					{
						"astId": 13,
						"contract": "practice46.sol:Moods",
						"label": "counter",
						"offset": 0,
						"slot": "1",
						"type": "t_uint256"
					}
				],
				"types": {
					"t_enum(Mood)8": {
						"encoding": "inplace",
						"label": "enum Moods.Mood",
						"numberOfBytes": "1"
					},
					"t_uint256": {
						"encoding": "inplace",
						"label": "uint256",
						"numberOfBytes": "32"
					}
				}
			},
			"userdoc": {
				"kind": "user",
				"methods": {},
				"version": 1
			}
		}
	}
}