{
	"test.sol": {
		"Moods": {
			"abi": [
				{
					"inputs": [],
					"name": "counter",
					"outputs": [
						{
							"internalType": "uint256",
							"name": "",
							"type": "uint256"
						}
					],
					"stateMutability": "view",
					"type": "function"
				},
				{
					"inputs": [
						{
							"internalType": "uint8",
							"name": "_num",
							"type": "uint8"
						}
					],
					"name": "counters",
					"outputs": [
						{
							"internalType": "uint8",
							"name": "",
							"type": "uint8"
						}
					],
					"stateMutability": "nonpayable",
					"type": "function"
				},
				{
					"inputs": [],
					"name": "counters",
					"outputs": [
						{
							"internalType": "uint8",
							"name": "",
							"type": "uint8"
						}
					],
					"stateMutability": "nonpayable",
					"type": "function"
				},
				{
					"inputs": [],
					"name": "currentMood",
					"outputs": [
						{
							"internalType": "enum Moods.Mood",
							"name": "",
							"type": "uint8"
						}
					],
					"stateMutability": "view",
					"type": "function"
				},
				{
					"inputs": [
						{
							"internalType": "string",
							"name": "",
							"type": "string"
						}
					],
					"name": "domain",
					"outputs": [
						{
							"internalType": "address",
							"name": "userAddress",
							"type": "address"
						},
						{
							"internalType": "uint256",
							"name": "creationTime",
							"type": "uint256"
						},
						{
							"internalType": "uint256",
							"name": "fee",
							"type": "uint256"
						},
						{
							"internalType": "string",
							"name": "message",
							"type": "string"
						}
					],
					"stateMutability": "view",
					"type": "function"
				},
				{
					"inputs": [],
					"name": "fees",
					"outputs": [
						{
							"internalType": "uint256",
							"name": "",
							"type": "uint256"
						}
					],
					"stateMutability": "view",
					"type": "function"
				},
				{
					"inputs": [],
					"name": "newNum",
					"outputs": [
						{
							"internalType": "uint8",
							"name": "",
							"type": "uint8"
						}
					],
					"stateMutability": "view",
					"type": "function"
				},
				{
					"inputs": [
						{
							"internalType": "string",
							"name": "_input",
							"type": "string"
						}
					],
					"name": "registerDomain",
					"outputs": [],
					"stateMutability": "payable",
					"type": "function"
				},
				{
					"inputs": [
						{
							"internalType": "string",
							"name": "_input",
							"type": "string"
						}
					],
					"name": "returnAddress",
					"outputs": [
						{
							"internalType": "address",
							"name": "",
							"type": "address"
						}
					],
					"stateMutability": "view",
					"type": "function"
				},
				{
					"inputs": [
						{
							"internalType": "enum Moods.Mood",
							"name": "_mood",
							"type": "uint8"
						}
					],
					"name": "setMood",
					"outputs": [],
					"stateMutability": "nonpayable",
					"type": "function"
				},
				{
					"inputs": [
						{
							"internalType": "enum Moods.Mood",
							"name": "_expectedMood",
							"type": "uint8"
						}
					],
					"name": "someAction",
					"outputs": [],
					"stateMutability": "nonpayable",
					"type": "function"
				},
				{
					"inputs": [],
					"name": "withdrawFunds",
					"outputs": [],
					"stateMutability": "nonpayable",
					"type": "function"
				}
			],
			"devdoc": {
				"kind": "dev",
				"methods": {},
				"version": 1
			},
			"evm": {
				"assembly": "    /* \"test.sol\":64:1735  contract Moods {... */\n  mstore(0x40, 0x80)\n    /* \"test.sol\":1154:1161  1000000 */\n  0x0f4240\n    /* \"test.sol\":1135:1161  uint public fees = 1000000 */\n  0x04\n  sstore\n    /* \"test.sol\":64:1735  contract Moods {... */\n  callvalue\n  dup1\n  iszero\n  tag_1\n  jumpi\n  0x00\n  dup1\n  revert\ntag_1:\n  pop\n  dataSize(sub_0)\n  dup1\n  dataOffset(sub_0)\n  0x00\n  codecopy\n  0x00\n  return\nstop\n\nsub_0: assembly {\n        /* \"test.sol\":64:1735  contract Moods {... */\n      mstore(0x40, 0x80)\n      jumpi(tag_1, lt(calldatasize, 0x04))\n      shr(0xe0, calldataload(0x00))\n      dup1\n      0x7f109dd3\n      gt\n      tag_14\n      jumpi\n      dup1\n      0x7f109dd3\n      eq\n      tag_8\n      jumpi\n      dup1\n      0x95e9af03\n      eq\n      tag_9\n      jumpi\n      dup1\n      0x9af1d35a\n      eq\n      tag_10\n      jumpi\n      dup1\n      0xa5cad08a\n      eq\n      tag_11\n      jumpi\n      dup1\n      0xe29710fe\n      eq\n      tag_12\n      jumpi\n      dup1\n      0xf7210633\n      eq\n      tag_13\n      jumpi\n      jump(tag_1)\n    tag_14:\n      dup1\n      0x0616cca0\n      eq\n      tag_2\n      jumpi\n      dup1\n      0x0c8d6d51\n      eq\n      tag_3\n      jumpi\n      dup1\n      0x24600fc3\n      eq\n      tag_4\n      jumpi\n      dup1\n      0x2b480955\n      eq\n      tag_5\n      jumpi\n      dup1\n      0x61bc221a\n      eq\n      tag_6\n      jumpi\n      dup1\n      0x68b64d1f\n      eq\n      tag_7\n      jumpi\n    tag_1:\n      0x00\n      dup1\n      revert\n        /* \"test.sol\":150:173  Mood public currentMood */\n    tag_2:\n      callvalue\n      dup1\n      iszero\n      tag_15\n      jumpi\n      0x00\n      dup1\n      revert\n    tag_15:\n      pop\n      tag_16\n      tag_17\n      jump\t// in\n    tag_16:\n      mload(0x40)\n      tag_18\n      swap2\n      swap1\n      tag_19\n      jump\t// in\n    tag_18:\n      mload(0x40)\n      dup1\n      swap2\n      sub\n      swap1\n      return\n        /* \"test.sol\":204:272  function setMood(Mood _mood) public {... */\n    tag_3:\n      callvalue\n      dup1\n      iszero\n      tag_20\n      jumpi\n      0x00\n      dup1\n      revert\n    tag_20:\n      pop\n      tag_21\n      0x04\n      dup1\n      calldatasize\n      sub\n      dup2\n      add\n      swap1\n      tag_22\n      swap2\n      swap1\n      tag_23\n      jump\t// in\n    tag_22:\n      tag_24\n      jump\t// in\n    tag_21:\n      stop\n        /* \"test.sol\":1584:1732  function withdrawFunds() public {... */\n    tag_4:\n      callvalue\n      dup1\n      iszero\n      tag_25\n      jumpi\n      0x00\n      dup1\n      revert\n    tag_25:\n      pop\n      tag_26\n      tag_27\n      jump\t// in\n    tag_26:\n      stop\n        /* \"test.sol\":673:794  function counters(uint8 _num) public checker(_num)  returns(uint8)  {... */\n    tag_5:\n      callvalue\n      dup1\n      iszero\n      tag_28\n      jumpi\n      0x00\n      dup1\n      revert\n    tag_28:\n      pop\n      tag_29\n      0x04\n      dup1\n      calldatasize\n      sub\n      dup2\n      add\n      swap1\n      tag_30\n      swap2\n      swap1\n      tag_31\n      jump\t// in\n    tag_30:\n      tag_32\n      jump\t// in\n    tag_29:\n      mload(0x40)\n      tag_33\n      swap2\n      swap1\n      tag_34\n      jump\t// in\n    tag_33:\n      mload(0x40)\n      dup1\n      swap2\n      sub\n      swap1\n      return\n        /* \"test.sol\":178:197  uint public counter */\n    tag_6:\n      callvalue\n      dup1\n      iszero\n      tag_35\n      jumpi\n      0x00\n      dup1\n      revert\n    tag_35:\n      pop\n      tag_36\n      tag_37\n      jump\t// in\n    tag_36:\n      mload(0x40)\n      tag_38\n      swap2\n      swap1\n      tag_39\n      jump\t// in\n    tag_38:\n      mload(0x40)\n      dup1\n      swap2\n      sub\n      swap1\n      return\n        /* \"test.sol\":1445:1570  function returnAddress(string memory _input) public view returns(address){... */\n    tag_7:\n      callvalue\n      dup1\n      iszero\n      tag_40\n      jumpi\n      0x00\n      dup1\n      revert\n    tag_40:\n      pop\n      tag_41\n      0x04\n      dup1\n      calldatasize\n      sub\n      dup2\n      add\n      swap1\n      tag_42\n      swap2\n      swap1\n      tag_43\n      jump\t// in\n    tag_42:\n      tag_44\n      jump\t// in\n    tag_41:\n      mload(0x40)\n      tag_45\n      swap2\n      swap1\n      tag_46\n      jump\t// in\n    tag_45:\n      mload(0x40)\n      dup1\n      swap2\n      sub\n      swap1\n      return\n        /* \"test.sol\":1043:1087  mapping(string => DomainInfo) public  domain */\n    tag_8:\n      callvalue\n      dup1\n      iszero\n      tag_47\n      jumpi\n      0x00\n      dup1\n      revert\n    tag_47:\n      pop\n      tag_48\n      0x04\n      dup1\n      calldatasize\n      sub\n      dup2\n      add\n      swap1\n      tag_49\n      swap2\n      swap1\n      tag_43\n      jump\t// in\n    tag_49:\n      tag_50\n      jump\t// in\n    tag_48:\n      mload(0x40)\n      tag_51\n      swap5\n      swap4\n      swap3\n      swap2\n      swap1\n      tag_52\n      jump\t// in\n    tag_51:\n      mload(0x40)\n      dup1\n      swap2\n      sub\n      swap1\n      return\n        /* \"test.sol\":396:490  function someAction(Mood _expectedMood) public checkMood(_expectedMood) {... */\n    tag_9:\n      callvalue\n      dup1\n      iszero\n      tag_53\n      jumpi\n      0x00\n      dup1\n      revert\n    tag_53:\n      pop\n      tag_54\n      0x04\n      dup1\n      calldatasize\n      sub\n      dup2\n      add\n      swap1\n      tag_55\n      swap2\n      swap1\n      tag_23\n      jump\t// in\n    tag_55:\n      tag_56\n      jump\t// in\n    tag_54:\n      stop\n        /* \"test.sol\":1135:1161  uint public fees = 1000000 */\n    tag_10:\n      callvalue\n      dup1\n      iszero\n      tag_57\n      jumpi\n      0x00\n      dup1\n      revert\n    tag_57:\n      pop\n      tag_58\n      tag_59\n      jump\t// in\n    tag_58:\n      mload(0x40)\n      tag_60\n      swap2\n      swap1\n      tag_39\n      jump\t// in\n    tag_60:\n      mload(0x40)\n      dup1\n      swap2\n      sub\n      swap1\n      return\n        /* \"test.sol\":1170:1437  function registerDomain(string memory _input) public payable  {... */\n    tag_11:\n      tag_61\n      0x04\n      dup1\n      calldatasize\n      sub\n      dup2\n      add\n      swap1\n      tag_62\n      swap2\n      swap1\n      tag_43\n      jump\t// in\n    tag_62:\n      tag_63\n      jump\t// in\n    tag_61:\n      stop\n        /* \"test.sol\":496:515  uint8 public newNum */\n    tag_12:\n      callvalue\n      dup1\n      iszero\n      tag_64\n      jumpi\n      0x00\n      dup1\n      revert\n    tag_64:\n      pop\n      tag_65\n      tag_66\n      jump\t// in\n    tag_65:\n      mload(0x40)\n      tag_67\n      swap2\n      swap1\n      tag_34\n      jump\t// in\n    tag_67:\n      mload(0x40)\n      dup1\n      swap2\n      sub\n      swap1\n      return\n        /* \"test.sol\":800:901  function counters() public checker1()  returns(uint8)  {... */\n    tag_13:\n      callvalue\n      dup1\n      iszero\n      tag_68\n      jumpi\n      0x00\n      dup1\n      revert\n    tag_68:\n      pop\n      tag_69\n      tag_70\n      jump\t// in\n    tag_69:\n      mload(0x40)\n      tag_71\n      swap2\n      swap1\n      tag_34\n      jump\t// in\n    tag_71:\n      mload(0x40)\n      dup1\n      swap2\n      sub\n      swap1\n      return\n        /* \"test.sol\":150:173  Mood public currentMood */\n    tag_17:\n      0x00\n      dup1\n      sload\n      swap1\n      0x0100\n      exp\n      swap1\n      div\n      0xff\n      and\n      dup2\n      jump\t// out\n        /* \"test.sol\":204:272  function setMood(Mood _mood) public {... */\n    tag_24:\n        /* \"test.sol\":261:266  _mood */\n      dup1\n        /* \"test.sol\":247:258  currentMood */\n      0x00\n      dup1\n        /* \"test.sol\":247:266  currentMood = _mood */\n      0x0100\n      exp\n      dup2\n      sload\n      dup2\n      0xff\n      mul\n      not\n      and\n      swap1\n      dup4\n      0x05\n      dup2\n      gt\n      iszero\n      tag_73\n      jumpi\n      tag_74\n      tag_75\n      jump\t// in\n    tag_74:\n    tag_73:\n      mul\n      or\n      swap1\n      sstore\n      pop\n        /* \"test.sol\":204:272  function setMood(Mood _mood) public {... */\n      pop\n      jump\t// out\n        /* \"test.sol\":1584:1732  function withdrawFunds() public {... */\n    tag_27:\n        /* \"test.sol\":1627:1651  address payable receiver */\n      0x00\n        /* \"test.sol\":1662:1672  msg.sender */\n      caller\n        /* \"test.sol\":1627:1673  address payable receiver = payable(msg.sender) */\n      swap1\n      pop\n        /* \"test.sol\":1684:1692  receiver */\n      dup1\n        /* \"test.sol\":1684:1701  receiver.transfer */\n      0xffffffffffffffffffffffffffffffffffffffff\n      and\n        /* \"test.sol\":1684:1724  receiver.transfer(address(this).balance) */\n      0x08fc\n        /* \"test.sol\":1702:1723  address(this).balance */\n      selfbalance\n        /* \"test.sol\":1684:1724  receiver.transfer(address(this).balance) */\n      swap1\n      dup2\n      iszero\n      mul\n      swap1\n      mload(0x40)\n      0x00\n      mload(0x40)\n      dup1\n      dup4\n      sub\n      dup2\n      dup6\n      dup9\n      dup9\n      call\n      swap4\n      pop\n      pop\n      pop\n      pop\n      iszero\n      dup1\n      iszero\n      tag_78\n      jumpi\n      returndatasize\n      0x00\n      dup1\n      returndatacopy\n      revert(0x00, returndatasize)\n    tag_78:\n      pop\n        /* \"test.sol\":1616:1732  {... */\n      pop\n        /* \"test.sol\":1584:1732  function withdrawFunds() public {... */\n      jump\t// out\n        /* \"test.sol\":673:794  function counters(uint8 _num) public checker(_num)  returns(uint8)  {... */\n    tag_32:\n        /* \"test.sol\":733:738  uint8 */\n      0x00\n        /* \"test.sol\":718:722  _num */\n      dup2\n        /* \"test.sol\":572:574  25 */\n      0x19\n        /* \"test.sol\":568:569  5 */\n      0x05\n        /* \"test.sol\":561:565  _num */\n      dup3\n        /* \"test.sol\":561:569  _num + 5 */\n      tag_80\n      swap2\n      swap1\n      tag_81\n      jump\t// in\n    tag_80:\n        /* \"test.sol\":561:574  _num + 5 < 25 */\n      0xff\n      and\n      lt\n        /* \"test.sol\":553:587  require(_num + 5 < 25, \"Overflow\") */\n      tag_82\n      jumpi\n      mload(0x40)\n      0x08c379a000000000000000000000000000000000000000000000000000000000\n      dup2\n      mstore\n      0x04\n      add\n      tag_83\n      swap1\n      tag_84\n      jump\t// in\n    tag_83:\n      mload(0x40)\n      dup1\n      swap2\n      sub\n      swap1\n      revert\n    tag_82:\n        /* \"test.sol\":765:766  5 */\n      0x05\n        /* \"test.sol\":758:762  _num */\n      dup4\n        /* \"test.sol\":758:766  _num + 5 */\n      tag_86\n      swap2\n      swap1\n      tag_81\n      jump\t// in\n    tag_86:\n        /* \"test.sol\":748:754  newNum */\n      0x02\n      0x00\n        /* \"test.sol\":748:766  newNum =  _num + 5 */\n      0x0100\n      exp\n      dup2\n      sload\n      dup2\n      0xff\n      mul\n      not\n      and\n      swap1\n      dup4\n      0xff\n      and\n      mul\n      or\n      swap1\n      sstore\n      pop\n        /* \"test.sol\":780:786  newNum */\n      0x02\n      0x00\n      swap1\n      sload\n      swap1\n      0x0100\n      exp\n      swap1\n      div\n      0xff\n      and\n        /* \"test.sol\":773:786  return newNum */\n      swap2\n      pop\n        /* \"test.sol\":673:794  function counters(uint8 _num) public checker(_num)  returns(uint8)  {... */\n      pop\n      swap2\n      swap1\n      pop\n      jump\t// out\n        /* \"test.sol\":178:197  uint public counter */\n    tag_37:\n      sload(0x01)\n      dup2\n      jump\t// out\n        /* \"test.sol\":1445:1570  function returnAddress(string memory _input) public view returns(address){... */\n    tag_44:\n        /* \"test.sol\":1510:1517  address */\n      0x00\n        /* \"test.sol\":1536:1542  domain */\n      0x03\n        /* \"test.sol\":1543:1549  _input */\n      dup3\n        /* \"test.sol\":1536:1550  domain[_input] */\n      mload(0x40)\n      tag_88\n      swap2\n      swap1\n      tag_89\n      jump\t// in\n    tag_88:\n      swap1\n      dup2\n      mstore\n      0x20\n      add\n      mload(0x40)\n      dup1\n      swap2\n      sub\n      swap1\n      keccak256\n        /* \"test.sol\":1536:1562  domain[_input].userAddress */\n      0x00\n      add\n      0x00\n      swap1\n      sload\n      swap1\n      0x0100\n      exp\n      swap1\n      div\n      0xffffffffffffffffffffffffffffffffffffffff\n      and\n        /* \"test.sol\":1529:1562  return domain[_input].userAddress */\n      swap1\n      pop\n        /* \"test.sol\":1445:1570  function returnAddress(string memory _input) public view returns(address){... */\n      swap2\n      swap1\n      pop\n      jump\t// out\n        /* \"test.sol\":1043:1087  mapping(string => DomainInfo) public  domain */\n    tag_50:\n      0x03\n      dup2\n      dup1\n      mload\n      0x20\n      dup2\n      add\n      dup3\n      add\n      dup1\n      mload\n      dup5\n      dup3\n      mstore\n      0x20\n      dup4\n      add\n      0x20\n      dup6\n      add\n      keccak256\n      dup2\n      dup4\n      mstore\n      dup1\n      swap6\n      pop\n      pop\n      pop\n      pop\n      pop\n      pop\n      0x00\n      swap2\n      pop\n      swap1\n      pop\n      dup1\n      0x00\n      add\n      0x00\n      swap1\n      sload\n      swap1\n      0x0100\n      exp\n      swap1\n      div\n      0xffffffffffffffffffffffffffffffffffffffff\n      and\n      swap1\n      dup1\n      0x01\n      add\n      sload\n      swap1\n      dup1\n      0x02\n      add\n      sload\n      swap1\n      dup1\n      0x03\n      add\n      dup1\n      sload\n      tag_90\n      swap1\n      tag_91\n      jump\t// in\n    tag_90:\n      dup1\n      0x1f\n      add\n      0x20\n      dup1\n      swap2\n      div\n      mul\n      0x20\n      add\n      mload(0x40)\n      swap1\n      dup2\n      add\n      0x40\n      mstore\n      dup1\n      swap3\n      swap2\n      swap1\n      dup2\n      dup2\n      mstore\n      0x20\n      add\n      dup3\n      dup1\n      sload\n      tag_92\n      swap1\n      tag_91\n      jump\t// in\n    tag_92:\n      dup1\n      iszero\n      tag_93\n      jumpi\n      dup1\n      0x1f\n      lt\n      tag_94\n      jumpi\n      0x0100\n      dup1\n      dup4\n      sload\n      div\n      mul\n      dup4\n      mstore\n      swap2\n      0x20\n      add\n      swap2\n      jump(tag_93)\n    tag_94:\n      dup3\n      add\n      swap2\n      swap1\n      0x00\n      mstore\n      keccak256(0x00, 0x20)\n      swap1\n    tag_95:\n      dup2\n      sload\n      dup2\n      mstore\n      swap1\n      0x01\n      add\n      swap1\n      0x20\n      add\n      dup1\n      dup4\n      gt\n      tag_95\n      jumpi\n      dup3\n      swap1\n      sub\n      0x1f\n      and\n      dup3\n      add\n      swap2\n    tag_93:\n      pop\n      pop\n      pop\n      pop\n      pop\n      swap1\n      pop\n      dup5\n      jump\t// out\n        /* \"test.sol\":396:490  function someAction(Mood _expectedMood) public checkMood(_expectedMood) {... */\n    tag_56:\n        /* \"test.sol\":453:466  _expectedMood */\n      dup1\n        /* \"test.sol\":349:360  currentMood */\n      0x00\n      dup1\n      sload\n      swap1\n      0x0100\n      exp\n      swap1\n      div\n      0xff\n      and\n        /* \"test.sol\":332:360  _expectedMood == currentMood */\n      0x05\n      dup2\n      gt\n      iszero\n      tag_97\n      jumpi\n      tag_98\n      tag_75\n      jump\t// in\n    tag_98:\n    tag_97:\n        /* \"test.sol\":332:345  _expectedMood */\n      dup2\n        /* \"test.sol\":332:360  _expectedMood == currentMood */\n      0x05\n      dup2\n      gt\n      iszero\n      tag_99\n      jumpi\n      tag_100\n      tag_75\n      jump\t// in\n    tag_100:\n    tag_99:\n      eq\n        /* \"test.sol\":324:376  require(_expectedMood == currentMood, \"Wrong Mood!\") */\n      tag_101\n      jumpi\n      mload(0x40)\n      0x08c379a000000000000000000000000000000000000000000000000000000000\n      dup2\n      mstore\n      0x04\n      add\n      tag_102\n      swap1\n      tag_103\n      jump\t// in\n    tag_102:\n      mload(0x40)\n      dup1\n      swap2\n      sub\n      swap1\n      revert\n    tag_101:\n        /* \"test.sol\":475:482  counter */\n      0x01\n      0x00\n        /* \"test.sol\":475:484  counter++ */\n      dup2\n      sload\n      dup1\n      swap3\n      swap2\n      swap1\n      tag_105\n      swap1\n      tag_106\n      jump\t// in\n    tag_105:\n      swap2\n      swap1\n      pop\n      sstore\n      pop\n        /* \"test.sol\":396:490  function someAction(Mood _expectedMood) public checkMood(_expectedMood) {... */\n      pop\n      pop\n      jump\t// out\n        /* \"test.sol\":1135:1161  uint public fees = 1000000 */\n    tag_59:\n      sload(0x04)\n      dup2\n      jump\t// out\n        /* \"test.sol\":1170:1437  function registerDomain(string memory _input) public payable  {... */\n    tag_63:\n        /* \"test.sol\":1260:1419  DomainInfo({... */\n      mload(0x40)\n      dup1\n      0x80\n      add\n      0x40\n      mstore\n      dup1\n        /* \"test.sol\":1299:1309  msg.sender */\n      caller\n        /* \"test.sol\":1260:1419  DomainInfo({... */\n      0xffffffffffffffffffffffffffffffffffffffff\n      and\n      dup2\n      mstore\n      0x20\n      add\n        /* \"test.sol\":1338:1353  block.timestamp */\n      timestamp\n        /* \"test.sol\":1260:1419  DomainInfo({... */\n      dup2\n      mstore\n      0x20\n      add\n        /* \"test.sol\":1373:1377  fees */\n      sload(0x04)\n        /* \"test.sol\":1260:1419  DomainInfo({... */\n      dup2\n      mstore\n      0x20\n      add\n        /* \"test.sol\":1401:1407  _input */\n      dup3\n        /* \"test.sol\":1260:1419  DomainInfo({... */\n      dup2\n      mstore\n      pop\n        /* \"test.sol\":1243:1249  domain */\n      0x03\n        /* \"test.sol\":1250:1256  _input */\n      dup3\n        /* \"test.sol\":1243:1257  domain[_input] */\n      mload(0x40)\n      tag_108\n      swap2\n      swap1\n      tag_89\n      jump\t// in\n    tag_108:\n      swap1\n      dup2\n      mstore\n      0x20\n      add\n      mload(0x40)\n      dup1\n      swap2\n      sub\n      swap1\n      keccak256\n        /* \"test.sol\":1243:1419  domain[_input] = DomainInfo({... */\n      0x00\n      dup3\n      add\n      mload\n      dup2\n      0x00\n      add\n      exp(0x0100, 0x00)\n      dup2\n      sload\n      dup2\n      0xffffffffffffffffffffffffffffffffffffffff\n      mul\n      not\n      and\n      swap1\n      dup4\n      0xffffffffffffffffffffffffffffffffffffffff\n      and\n      mul\n      or\n      swap1\n      sstore\n      pop\n      0x20\n      dup3\n      add\n      mload\n      dup2\n      0x01\n      add\n      sstore\n      0x40\n      dup3\n      add\n      mload\n      dup2\n      0x02\n      add\n      sstore\n      0x60\n      dup3\n      add\n      mload\n      dup2\n      0x03\n      add\n      swap1\n      dup2\n      tag_109\n      swap2\n      swap1\n      tag_110\n      jump\t// in\n    tag_109:\n      pop\n      swap1\n      pop\n      pop\n        /* \"test.sol\":1170:1437  function registerDomain(string memory _input) public payable  {... */\n      pop\n      jump\t// out\n        /* \"test.sol\":496:515  uint8 public newNum */\n    tag_66:\n      0x02\n      0x00\n      swap1\n      sload\n      swap1\n      0x0100\n      exp\n      swap1\n      div\n      0xff\n      and\n      dup2\n      jump\t// out\n        /* \"test.sol\":800:901  function counters() public checker1()  returns(uint8)  {... */\n    tag_70:\n        /* \"test.sol\":847:852  uint8 */\n      0x00\n        /* \"test.sol\":644:646  25 */\n      0x19\n        /* \"test.sol\":640:641  1 */\n      0x01\n        /* \"test.sol\":631:637  newNum */\n      0x02\n      0x00\n      swap1\n      sload\n      swap1\n      0x0100\n      exp\n      swap1\n      div\n      0xff\n      and\n        /* \"test.sol\":631:641  newNum + 1 */\n      tag_112\n      swap2\n      swap1\n      tag_81\n      jump\t// in\n    tag_112:\n        /* \"test.sol\":631:646  newNum + 1 < 25 */\n      0xff\n      and\n      lt\n        /* \"test.sol\":623:659  require(newNum + 1 < 25, \"Overflow\") */\n      tag_113\n      jumpi\n      mload(0x40)\n      0x08c379a000000000000000000000000000000000000000000000000000000000\n      dup2\n      mstore\n      0x04\n      add\n      tag_114\n      swap1\n      tag_84\n      jump\t// in\n    tag_114:\n      mload(0x40)\n      dup1\n      swap2\n      sub\n      swap1\n      revert\n    tag_113:\n        /* \"test.sol\":872:873  1 */\n      0x01\n        /* \"test.sol\":862:868  newNum */\n      0x02\n      0x00\n        /* \"test.sol\":862:873  newNum += 1 */\n      dup3\n      dup3\n      dup3\n      swap1\n      sload\n      swap1\n      0x0100\n      exp\n      swap1\n      div\n      0xff\n      and\n      tag_116\n      swap2\n      swap1\n      tag_81\n      jump\t// in\n    tag_116:\n      swap3\n      pop\n      0x0100\n      exp\n      dup2\n      sload\n      dup2\n      0xff\n      mul\n      not\n      and\n      swap1\n      dup4\n      0xff\n      and\n      mul\n      or\n      swap1\n      sstore\n      pop\n        /* \"test.sol\":887:893  newNum */\n      0x02\n      0x00\n      swap1\n      sload\n      swap1\n      0x0100\n      exp\n      swap1\n      div\n      0xff\n      and\n        /* \"test.sol\":880:893  return newNum */\n      swap1\n      pop\n        /* \"test.sol\":800:901  function counters() public checker1()  returns(uint8)  {... */\n      swap1\n      jump\t// out\n        /* \"#utility.yul\":7:187   */\n    tag_75:\n        /* \"#utility.yul\":55:132   */\n      0x4e487b7100000000000000000000000000000000000000000000000000000000\n        /* \"#utility.yul\":52:53   */\n      0x00\n        /* \"#utility.yul\":45:133   */\n      mstore\n        /* \"#utility.yul\":152:156   */\n      0x21\n        /* \"#utility.yul\":149:150   */\n      0x04\n        /* \"#utility.yul\":142:157   */\n      mstore\n        /* \"#utility.yul\":176:180   */\n      0x24\n        /* \"#utility.yul\":173:174   */\n      0x00\n        /* \"#utility.yul\":166:181   */\n      revert\n        /* \"#utility.yul\":193:304   */\n    tag_117:\n        /* \"#utility.yul\":272:273   */\n      0x06\n        /* \"#utility.yul\":265:270   */\n      dup2\n        /* \"#utility.yul\":262:274   */\n      lt\n        /* \"#utility.yul\":252:298   */\n      tag_175\n      jumpi\n        /* \"#utility.yul\":278:296   */\n      tag_176\n      tag_75\n      jump\t// in\n    tag_176:\n        /* \"#utility.yul\":252:298   */\n    tag_175:\n        /* \"#utility.yul\":193:304   */\n      pop\n      jump\t// out\n        /* \"#utility.yul\":310:433   */\n    tag_118:\n        /* \"#utility.yul\":353:360   */\n      0x00\n        /* \"#utility.yul\":382:387   */\n      dup2\n        /* \"#utility.yul\":371:387   */\n      swap1\n      pop\n        /* \"#utility.yul\":388:427   */\n      tag_178\n        /* \"#utility.yul\":421:426   */\n      dup3\n        /* \"#utility.yul\":388:427   */\n      tag_117\n      jump\t// in\n    tag_178:\n        /* \"#utility.yul\":310:433   */\n      swap2\n      swap1\n      pop\n      jump\t// out\n        /* \"#utility.yul\":439:562   */\n    tag_119:\n        /* \"#utility.yul\":493:502   */\n      0x00\n        /* \"#utility.yul\":526:556   */\n      tag_180\n        /* \"#utility.yul\":550:555   */\n      dup3\n        /* \"#utility.yul\":526:556   */\n      tag_118\n      jump\t// in\n    tag_180:\n        /* \"#utility.yul\":513:556   */\n      swap1\n      pop\n        /* \"#utility.yul\":439:562   */\n      swap2\n      swap1\n      pop\n      jump\t// out\n        /* \"#utility.yul\":568:707   */\n    tag_120:\n        /* \"#utility.yul\":659:700   */\n      tag_182\n        /* \"#utility.yul\":694:699   */\n      dup2\n        /* \"#utility.yul\":659:700   */\n      tag_119\n      jump\t// in\n    tag_182:\n        /* \"#utility.yul\":654:657   */\n      dup3\n        /* \"#utility.yul\":647:701   */\n      mstore\n        /* \"#utility.yul\":568:707   */\n      pop\n      pop\n      jump\t// out\n        /* \"#utility.yul\":713:943   */\n    tag_19:\n        /* \"#utility.yul\":810:814   */\n      0x00\n        /* \"#utility.yul\":848:850   */\n      0x20\n        /* \"#utility.yul\":837:846   */\n      dup3\n        /* \"#utility.yul\":833:851   */\n      add\n        /* \"#utility.yul\":825:851   */\n      swap1\n      pop\n        /* \"#utility.yul\":861:936   */\n      tag_184\n        /* \"#utility.yul\":933:934   */\n      0x00\n        /* \"#utility.yul\":922:931   */\n      dup4\n        /* \"#utility.yul\":918:935   */\n      add\n        /* \"#utility.yul\":909:915   */\n      dup5\n        /* \"#utility.yul\":861:936   */\n      tag_120\n      jump\t// in\n    tag_184:\n        /* \"#utility.yul\":713:943   */\n      swap3\n      swap2\n      pop\n      pop\n      jump\t// out\n        /* \"#utility.yul\":949:1024   */\n    tag_121:\n        /* \"#utility.yul\":982:988   */\n      0x00\n        /* \"#utility.yul\":1015:1017   */\n      0x40\n        /* \"#utility.yul\":1009:1018   */\n      mload\n        /* \"#utility.yul\":999:1018   */\n      swap1\n      pop\n        /* \"#utility.yul\":949:1024   */\n      swap1\n      jump\t// out\n        /* \"#utility.yul\":1030:1147   */\n    tag_122:\n        /* \"#utility.yul\":1139:1140   */\n      0x00\n        /* \"#utility.yul\":1136:1137   */\n      dup1\n        /* \"#utility.yul\":1129:1141   */\n      revert\n        /* \"#utility.yul\":1153:1270   */\n    tag_123:\n        /* \"#utility.yul\":1262:1263   */\n      0x00\n        /* \"#utility.yul\":1259:1260   */\n      dup1\n        /* \"#utility.yul\":1252:1264   */\n      revert\n        /* \"#utility.yul\":1276:1381   */\n    tag_124:\n        /* \"#utility.yul\":1355:1356   */\n      0x06\n        /* \"#utility.yul\":1348:1353   */\n      dup2\n        /* \"#utility.yul\":1345:1357   */\n      lt\n        /* \"#utility.yul\":1335:1375   */\n      tag_189\n      jumpi\n        /* \"#utility.yul\":1371:1372   */\n      0x00\n        /* \"#utility.yul\":1368:1369   */\n      dup1\n        /* \"#utility.yul\":1361:1373   */\n      revert\n        /* \"#utility.yul\":1335:1375   */\n    tag_189:\n        /* \"#utility.yul\":1276:1381   */\n      pop\n      jump\t// out\n        /* \"#utility.yul\":1387:1538   */\n    tag_125:\n        /* \"#utility.yul\":1439:1444   */\n      0x00\n        /* \"#utility.yul\":1477:1483   */\n      dup2\n        /* \"#utility.yul\":1464:1484   */\n      calldataload\n        /* \"#utility.yul\":1455:1484   */\n      swap1\n      pop\n        /* \"#utility.yul\":1493:1532   */\n      tag_191\n        /* \"#utility.yul\":1526:1531   */\n      dup2\n        /* \"#utility.yul\":1493:1532   */\n      tag_124\n      jump\t// in\n    tag_191:\n        /* \"#utility.yul\":1387:1538   */\n      swap3\n      swap2\n      pop\n      pop\n      jump\t// out\n        /* \"#utility.yul\":1544:1885   */\n    tag_23:\n        /* \"#utility.yul\":1609:1615   */\n      0x00\n        /* \"#utility.yul\":1658:1660   */\n      0x20\n        /* \"#utility.yul\":1646:1655   */\n      dup3\n        /* \"#utility.yul\":1637:1644   */\n      dup5\n        /* \"#utility.yul\":1633:1656   */\n      sub\n        /* \"#utility.yul\":1629:1661   */\n      slt\n        /* \"#utility.yul\":1626:1745   */\n      iszero\n      tag_193\n      jumpi\n        /* \"#utility.yul\":1664:1743   */\n      tag_194\n      tag_122\n      jump\t// in\n    tag_194:\n        /* \"#utility.yul\":1626:1745   */\n    tag_193:\n        /* \"#utility.yul\":1784:1785   */\n      0x00\n        /* \"#utility.yul\":1809:1868   */\n      tag_195\n        /* \"#utility.yul\":1860:1867   */\n      dup5\n        /* \"#utility.yul\":1851:1857   */\n      dup3\n        /* \"#utility.yul\":1840:1849   */\n      dup6\n        /* \"#utility.yul\":1836:1858   */\n      add\n        /* \"#utility.yul\":1809:1868   */\n      tag_125\n      jump\t// in\n    tag_195:\n        /* \"#utility.yul\":1799:1868   */\n      swap2\n      pop\n        /* \"#utility.yul\":1755:1878   */\n      pop\n        /* \"#utility.yul\":1544:1885   */\n      swap3\n      swap2\n      pop\n      pop\n      jump\t// out\n        /* \"#utility.yul\":1891:1977   */\n    tag_126:\n        /* \"#utility.yul\":1926:1933   */\n      0x00\n        /* \"#utility.yul\":1966:1970   */\n      0xff\n        /* \"#utility.yul\":1959:1964   */\n      dup3\n        /* \"#utility.yul\":1955:1971   */\n      and\n        /* \"#utility.yul\":1944:1971   */\n      swap1\n      pop\n        /* \"#utility.yul\":1891:1977   */\n      swap2\n      swap1\n      pop\n      jump\t// out\n        /* \"#utility.yul\":1983:2101   */\n    tag_127:\n        /* \"#utility.yul\":2054:2076   */\n      tag_198\n        /* \"#utility.yul\":2070:2075   */\n      dup2\n        /* \"#utility.yul\":2054:2076   */\n      tag_126\n      jump\t// in\n    tag_198:\n        /* \"#utility.yul\":2047:2052   */\n      dup2\n        /* \"#utility.yul\":2044:2077   */\n      eq\n        /* \"#utility.yul\":2034:2095   */\n      tag_199\n      jumpi\n        /* \"#utility.yul\":2091:2092   */\n      0x00\n        /* \"#utility.yul\":2088:2089   */\n      dup1\n        /* \"#utility.yul\":2081:2093   */\n      revert\n        /* \"#utility.yul\":2034:2095   */\n    tag_199:\n        /* \"#utility.yul\":1983:2101   */\n      pop\n      jump\t// out\n        /* \"#utility.yul\":2107:2242   */\n    tag_128:\n        /* \"#utility.yul\":2151:2156   */\n      0x00\n        /* \"#utility.yul\":2189:2195   */\n      dup2\n        /* \"#utility.yul\":2176:2196   */\n      calldataload\n        /* \"#utility.yul\":2167:2196   */\n      swap1\n      pop\n        /* \"#utility.yul\":2205:2236   */\n      tag_201\n        /* \"#utility.yul\":2230:2235   */\n      dup2\n        /* \"#utility.yul\":2205:2236   */\n      tag_127\n      jump\t// in\n    tag_201:\n        /* \"#utility.yul\":2107:2242   */\n      swap3\n      swap2\n      pop\n      pop\n      jump\t// out\n        /* \"#utility.yul\":2248:2573   */\n    tag_31:\n        /* \"#utility.yul\":2305:2311   */\n      0x00\n        /* \"#utility.yul\":2354:2356   */\n      0x20\n        /* \"#utility.yul\":2342:2351   */\n      dup3\n        /* \"#utility.yul\":2333:2340   */\n      dup5\n        /* \"#utility.yul\":2329:2352   */\n      sub\n        /* \"#utility.yul\":2325:2357   */\n      slt\n        /* \"#utility.yul\":2322:2441   */\n      iszero\n      tag_203\n      jumpi\n        /* \"#utility.yul\":2360:2439   */\n      tag_204\n      tag_122\n      jump\t// in\n    tag_204:\n        /* \"#utility.yul\":2322:2441   */\n    tag_203:\n        /* \"#utility.yul\":2480:2481   */\n      0x00\n        /* \"#utility.yul\":2505:2556   */\n      tag_205\n        /* \"#utility.yul\":2548:2555   */\n      dup5\n        /* \"#utility.yul\":2539:2545   */\n      dup3\n        /* \"#utility.yul\":2528:2537   */\n      dup6\n        /* \"#utility.yul\":2524:2546   */\n      add\n        /* \"#utility.yul\":2505:2556   */\n      tag_128\n      jump\t// in\n    tag_205:\n        /* \"#utility.yul\":2495:2556   */\n      swap2\n      pop\n        /* \"#utility.yul\":2451:2566   */\n      pop\n        /* \"#utility.yul\":2248:2573   */\n      swap3\n      swap2\n      pop\n      pop\n      jump\t// out\n        /* \"#utility.yul\":2579:2691   */\n    tag_129:\n        /* \"#utility.yul\":2662:2684   */\n      tag_207\n        /* \"#utility.yul\":2678:2683   */\n      dup2\n        /* \"#utility.yul\":2662:2684   */\n      tag_126\n      jump\t// in\n    tag_207:\n        /* \"#utility.yul\":2657:2660   */\n      dup3\n        /* \"#utility.yul\":2650:2685   */\n      mstore\n        /* \"#utility.yul\":2579:2691   */\n      pop\n      pop\n      jump\t// out\n        /* \"#utility.yul\":2697:2911   */\n    tag_34:\n        /* \"#utility.yul\":2786:2790   */\n      0x00\n        /* \"#utility.yul\":2824:2826   */\n      0x20\n        /* \"#utility.yul\":2813:2822   */\n      dup3\n        /* \"#utility.yul\":2809:2827   */\n      add\n        /* \"#utility.yul\":2801:2827   */\n      swap1\n      pop\n        /* \"#utility.yul\":2837:2904   */\n      tag_209\n        /* \"#utility.yul\":2901:2902   */\n      0x00\n        /* \"#utility.yul\":2890:2899   */\n      dup4\n        /* \"#utility.yul\":2886:2903   */\n      add\n        /* \"#utility.yul\":2877:2883   */\n      dup5\n        /* \"#utility.yul\":2837:2904   */\n      tag_129\n      jump\t// in\n    tag_209:\n        /* \"#utility.yul\":2697:2911   */\n      swap3\n      swap2\n      pop\n      pop\n      jump\t// out\n        /* \"#utility.yul\":2917:2994   */\n    tag_130:\n        /* \"#utility.yul\":2954:2961   */\n      0x00\n        /* \"#utility.yul\":2983:2988   */\n      dup2\n        /* \"#utility.yul\":2972:2988   */\n      swap1\n      pop\n        /* \"#utility.yul\":2917:2994   */\n      swap2\n      swap1\n      pop\n      jump\t// out\n        /* \"#utility.yul\":3000:3118   */\n    tag_131:\n        /* \"#utility.yul\":3087:3111   */\n      tag_212\n        /* \"#utility.yul\":3105:3110   */\n      dup2\n        /* \"#utility.yul\":3087:3111   */\n      tag_130\n      jump\t// in\n    tag_212:\n        /* \"#utility.yul\":3082:3085   */\n      dup3\n        /* \"#utility.yul\":3075:3112   */\n      mstore\n        /* \"#utility.yul\":3000:3118   */\n      pop\n      pop\n      jump\t// out\n        /* \"#utility.yul\":3124:3346   */\n    tag_39:\n        /* \"#utility.yul\":3217:3221   */\n      0x00\n        /* \"#utility.yul\":3255:3257   */\n      0x20\n        /* \"#utility.yul\":3244:3253   */\n      dup3\n        /* \"#utility.yul\":3240:3258   */\n      add\n        /* \"#utility.yul\":3232:3258   */\n      swap1\n      pop\n        /* \"#utility.yul\":3268:3339   */\n      tag_214\n        /* \"#utility.yul\":3336:3337   */\n      0x00\n        /* \"#utility.yul\":3325:3334   */\n      dup4\n        /* \"#utility.yul\":3321:3338   */\n      add\n        /* \"#utility.yul\":3312:3318   */\n      dup5\n        /* \"#utility.yul\":3268:3339   */\n      tag_131\n      jump\t// in\n    tag_214:\n        /* \"#utility.yul\":3124:3346   */\n      swap3\n      swap2\n      pop\n      pop\n      jump\t// out\n        /* \"#utility.yul\":3352:3469   */\n    tag_132:\n        /* \"#utility.yul\":3461:3462   */\n      0x00\n        /* \"#utility.yul\":3458:3459   */\n      dup1\n        /* \"#utility.yul\":3451:3463   */\n      revert\n        /* \"#utility.yul\":3475:3592   */\n    tag_133:\n        /* \"#utility.yul\":3584:3585   */\n      0x00\n        /* \"#utility.yul\":3581:3582   */\n      dup1\n        /* \"#utility.yul\":3574:3586   */\n      revert\n        /* \"#utility.yul\":3598:3700   */\n    tag_134:\n        /* \"#utility.yul\":3639:3645   */\n      0x00\n        /* \"#utility.yul\":3690:3692   */\n      0x1f\n        /* \"#utility.yul\":3686:3693   */\n      not\n        /* \"#utility.yul\":3681:3683   */\n      0x1f\n        /* \"#utility.yul\":3674:3679   */\n      dup4\n        /* \"#utility.yul\":3670:3684   */\n      add\n        /* \"#utility.yul\":3666:3694   */\n      and\n        /* \"#utility.yul\":3656:3694   */\n      swap1\n      pop\n        /* \"#utility.yul\":3598:3700   */\n      swap2\n      swap1\n      pop\n      jump\t// out\n        /* \"#utility.yul\":3706:3886   */\n    tag_135:\n        /* \"#utility.yul\":3754:3831   */\n      0x4e487b7100000000000000000000000000000000000000000000000000000000\n        /* \"#utility.yul\":3751:3752   */\n      0x00\n        /* \"#utility.yul\":3744:3832   */\n      mstore\n        /* \"#utility.yul\":3851:3855   */\n      0x41\n        /* \"#utility.yul\":3848:3849   */\n      0x04\n        /* \"#utility.yul\":3841:3856   */\n      mstore\n        /* \"#utility.yul\":3875:3879   */\n      0x24\n        /* \"#utility.yul\":3872:3873   */\n      0x00\n        /* \"#utility.yul\":3865:3880   */\n      revert\n        /* \"#utility.yul\":3892:4173   */\n    tag_136:\n        /* \"#utility.yul\":3975:4002   */\n      tag_220\n        /* \"#utility.yul\":3997:4001   */\n      dup3\n        /* \"#utility.yul\":3975:4002   */\n      tag_134\n      jump\t// in\n    tag_220:\n        /* \"#utility.yul\":3967:3973   */\n      dup2\n        /* \"#utility.yul\":3963:4003   */\n      add\n        /* \"#utility.yul\":4105:4111   */\n      dup2\n        /* \"#utility.yul\":4093:4103   */\n      dup2\n        /* \"#utility.yul\":4090:4112   */\n      lt\n        /* \"#utility.yul\":4069:4087   */\n      0xffffffffffffffff\n        /* \"#utility.yul\":4057:4067   */\n      dup3\n        /* \"#utility.yul\":4054:4088   */\n      gt\n        /* \"#utility.yul\":4051:4113   */\n      or\n        /* \"#utility.yul\":4048:4136   */\n      iszero\n      tag_221\n      jumpi\n        /* \"#utility.yul\":4116:4134   */\n      tag_222\n      tag_135\n      jump\t// in\n    tag_222:\n        /* \"#utility.yul\":4048:4136   */\n    tag_221:\n        /* \"#utility.yul\":4156:4166   */\n      dup1\n        /* \"#utility.yul\":4152:4154   */\n      0x40\n        /* \"#utility.yul\":4145:4167   */\n      mstore\n        /* \"#utility.yul\":3935:4173   */\n      pop\n        /* \"#utility.yul\":3892:4173   */\n      pop\n      pop\n      jump\t// out\n        /* \"#utility.yul\":4179:4308   */\n    tag_137:\n        /* \"#utility.yul\":4213:4219   */\n      0x00\n        /* \"#utility.yul\":4240:4260   */\n      tag_224\n      tag_121\n      jump\t// in\n    tag_224:\n        /* \"#utility.yul\":4230:4260   */\n      swap1\n      pop\n        /* \"#utility.yul\":4269:4302   */\n      tag_225\n        /* \"#utility.yul\":4297:4301   */\n      dup3\n        /* \"#utility.yul\":4289:4295   */\n      dup3\n        /* \"#utility.yul\":4269:4302   */\n      tag_136\n      jump\t// in\n    tag_225:\n        /* \"#utility.yul\":4179:4308   */\n      swap2\n      swap1\n      pop\n      jump\t// out\n        /* \"#utility.yul\":4314:4622   */\n    tag_138:\n        /* \"#utility.yul\":4376:4380   */\n      0x00\n        /* \"#utility.yul\":4466:4484   */\n      0xffffffffffffffff\n        /* \"#utility.yul\":4458:4464   */\n      dup3\n        /* \"#utility.yul\":4455:4485   */\n      gt\n        /* \"#utility.yul\":4452:4508   */\n      iszero\n      tag_227\n      jumpi\n        /* \"#utility.yul\":4488:4506   */\n      tag_228\n      tag_135\n      jump\t// in\n    tag_228:\n        /* \"#utility.yul\":4452:4508   */\n    tag_227:\n        /* \"#utility.yul\":4526:4555   */\n      tag_229\n        /* \"#utility.yul\":4548:4554   */\n      dup3\n        /* \"#utility.yul\":4526:4555   */\n      tag_134\n      jump\t// in\n    tag_229:\n        /* \"#utility.yul\":4518:4555   */\n      swap1\n      pop\n        /* \"#utility.yul\":4610:4614   */\n      0x20\n        /* \"#utility.yul\":4604:4608   */\n      dup2\n        /* \"#utility.yul\":4600:4615   */\n      add\n        /* \"#utility.yul\":4592:4615   */\n      swap1\n      pop\n        /* \"#utility.yul\":4314:4622   */\n      swap2\n      swap1\n      pop\n      jump\t// out\n        /* \"#utility.yul\":4628:4774   */\n    tag_139:\n        /* \"#utility.yul\":4725:4731   */\n      dup3\n        /* \"#utility.yul\":4720:4723   */\n      dup2\n        /* \"#utility.yul\":4715:4718   */\n      dup4\n        /* \"#utility.yul\":4702:4732   */\n      calldatacopy\n        /* \"#utility.yul\":4766:4767   */\n      0x00\n        /* \"#utility.yul\":4757:4763   */\n      dup4\n        /* \"#utility.yul\":4752:4755   */\n      dup4\n        /* \"#utility.yul\":4748:4764   */\n      add\n        /* \"#utility.yul\":4741:4768   */\n      mstore\n        /* \"#utility.yul\":4628:4774   */\n      pop\n      pop\n      pop\n      jump\t// out\n        /* \"#utility.yul\":4780:5205   */\n    tag_140:\n        /* \"#utility.yul\":4858:4863   */\n      0x00\n        /* \"#utility.yul\":4883:4949   */\n      tag_232\n        /* \"#utility.yul\":4899:4948   */\n      tag_233\n        /* \"#utility.yul\":4941:4947   */\n      dup5\n        /* \"#utility.yul\":4899:4948   */\n      tag_138\n      jump\t// in\n    tag_233:\n        /* \"#utility.yul\":4883:4949   */\n      tag_137\n      jump\t// in\n    tag_232:\n        /* \"#utility.yul\":4874:4949   */\n      swap1\n      pop\n        /* \"#utility.yul\":4972:4978   */\n      dup3\n        /* \"#utility.yul\":4965:4970   */\n      dup2\n        /* \"#utility.yul\":4958:4979   */\n      mstore\n        /* \"#utility.yul\":5010:5014   */\n      0x20\n        /* \"#utility.yul\":5003:5008   */\n      dup2\n        /* \"#utility.yul\":4999:5015   */\n      add\n        /* \"#utility.yul\":5048:5051   */\n      dup5\n        /* \"#utility.yul\":5039:5045   */\n      dup5\n        /* \"#utility.yul\":5034:5037   */\n      dup5\n        /* \"#utility.yul\":5030:5046   */\n      add\n        /* \"#utility.yul\":5027:5052   */\n      gt\n        /* \"#utility.yul\":5024:5136   */\n      iszero\n      tag_234\n      jumpi\n        /* \"#utility.yul\":5055:5134   */\n      tag_235\n      tag_133\n      jump\t// in\n    tag_235:\n        /* \"#utility.yul\":5024:5136   */\n    tag_234:\n        /* \"#utility.yul\":5145:5199   */\n      tag_236\n        /* \"#utility.yul\":5192:5198   */\n      dup5\n        /* \"#utility.yul\":5187:5190   */\n      dup3\n        /* \"#utility.yul\":5182:5185   */\n      dup6\n        /* \"#utility.yul\":5145:5199   */\n      tag_139\n      jump\t// in\n    tag_236:\n        /* \"#utility.yul\":4864:5205   */\n      pop\n        /* \"#utility.yul\":4780:5205   */\n      swap4\n      swap3\n      pop\n      pop\n      pop\n      jump\t// out\n        /* \"#utility.yul\":5225:5565   */\n    tag_141:\n        /* \"#utility.yul\":5281:5286   */\n      0x00\n        /* \"#utility.yul\":5330:5333   */\n      dup3\n        /* \"#utility.yul\":5323:5327   */\n      0x1f\n        /* \"#utility.yul\":5315:5321   */\n      dup4\n        /* \"#utility.yul\":5311:5328   */\n      add\n        /* \"#utility.yul\":5307:5334   */\n      slt\n        /* \"#utility.yul\":5297:5419   */\n      tag_238\n      jumpi\n        /* \"#utility.yul\":5338:5417   */\n      tag_239\n      tag_132\n      jump\t// in\n    tag_239:\n        /* \"#utility.yul\":5297:5419   */\n    tag_238:\n        /* \"#utility.yul\":5455:5461   */\n      dup2\n        /* \"#utility.yul\":5442:5462   */\n      calldataload\n        /* \"#utility.yul\":5480:5559   */\n      tag_240\n        /* \"#utility.yul\":5555:5558   */\n      dup5\n        /* \"#utility.yul\":5547:5553   */\n      dup3\n        /* \"#utility.yul\":5540:5544   */\n      0x20\n        /* \"#utility.yul\":5532:5538   */\n      dup7\n        /* \"#utility.yul\":5528:5545   */\n      add\n        /* \"#utility.yul\":5480:5559   */\n      tag_140\n      jump\t// in\n    tag_240:\n        /* \"#utility.yul\":5471:5559   */\n      swap2\n      pop\n        /* \"#utility.yul\":5287:5565   */\n      pop\n        /* \"#utility.yul\":5225:5565   */\n      swap3\n      swap2\n      pop\n      pop\n      jump\t// out\n        /* \"#utility.yul\":5571:6080   */\n    tag_43:\n        /* \"#utility.yul\":5640:5646   */\n      0x00\n        /* \"#utility.yul\":5689:5691   */\n      0x20\n        /* \"#utility.yul\":5677:5686   */\n      dup3\n        /* \"#utility.yul\":5668:5675   */\n      dup5\n        /* \"#utility.yul\":5664:5687   */\n      sub\n        /* \"#utility.yul\":5660:5692   */\n      slt\n        /* \"#utility.yul\":5657:5776   */\n      iszero\n      tag_242\n      jumpi\n        /* \"#utility.yul\":5695:5774   */\n      tag_243\n      tag_122\n      jump\t// in\n    tag_243:\n        /* \"#utility.yul\":5657:5776   */\n    tag_242:\n        /* \"#utility.yul\":5843:5844   */\n      0x00\n        /* \"#utility.yul\":5832:5841   */\n      dup3\n        /* \"#utility.yul\":5828:5845   */\n      add\n        /* \"#utility.yul\":5815:5846   */\n      calldataload\n        /* \"#utility.yul\":5873:5891   */\n      0xffffffffffffffff\n        /* \"#utility.yul\":5865:5871   */\n      dup2\n        /* \"#utility.yul\":5862:5892   */\n      gt\n        /* \"#utility.yul\":5859:5976   */\n      iszero\n      tag_244\n      jumpi\n        /* \"#utility.yul\":5895:5974   */\n      tag_245\n      tag_123\n      jump\t// in\n    tag_245:\n        /* \"#utility.yul\":5859:5976   */\n    tag_244:\n        /* \"#utility.yul\":6000:6063   */\n      tag_246\n        /* \"#utility.yul\":6055:6062   */\n      dup5\n        /* \"#utility.yul\":6046:6052   */\n      dup3\n        /* \"#utility.yul\":6035:6044   */\n      dup6\n        /* \"#utility.yul\":6031:6053   */\n      add\n        /* \"#utility.yul\":6000:6063   */\n      tag_141\n      jump\t// in\n    tag_246:\n        /* \"#utility.yul\":5990:6063   */\n      swap2\n      pop\n        /* \"#utility.yul\":5786:6073   */\n      pop\n        /* \"#utility.yul\":5571:6080   */\n      swap3\n      swap2\n      pop\n      pop\n      jump\t// out\n        /* \"#utility.yul\":6086:6212   */\n    tag_142:\n        /* \"#utility.yul\":6123:6130   */\n      0x00\n        /* \"#utility.yul\":6163:6205   */\n      0xffffffffffffffffffffffffffffffffffffffff\n        /* \"#utility.yul\":6156:6161   */\n      dup3\n        /* \"#utility.yul\":6152:6206   */\n      and\n        /* \"#utility.yul\":6141:6206   */\n      swap1\n      pop\n        /* \"#utility.yul\":6086:6212   */\n      swap2\n      swap1\n      pop\n      jump\t// out\n        /* \"#utility.yul\":6218:6314   */\n    tag_143:\n        /* \"#utility.yul\":6255:6262   */\n      0x00\n        /* \"#utility.yul\":6284:6308   */\n      tag_249\n        /* \"#utility.yul\":6302:6307   */\n      dup3\n        /* \"#utility.yul\":6284:6308   */\n      tag_142\n      jump\t// in\n    tag_249:\n        /* \"#utility.yul\":6273:6308   */\n      swap1\n      pop\n        /* \"#utility.yul\":6218:6314   */\n      swap2\n      swap1\n      pop\n      jump\t// out\n        /* \"#utility.yul\":6320:6438   */\n    tag_144:\n        /* \"#utility.yul\":6407:6431   */\n      tag_251\n        /* \"#utility.yul\":6425:6430   */\n      dup2\n        /* \"#utility.yul\":6407:6431   */\n      tag_143\n      jump\t// in\n    tag_251:\n        /* \"#utility.yul\":6402:6405   */\n      dup3\n        /* \"#utility.yul\":6395:6432   */\n      mstore\n        /* \"#utility.yul\":6320:6438   */\n      pop\n      pop\n      jump\t// out\n        /* \"#utility.yul\":6444:6666   */\n    tag_46:\n        /* \"#utility.yul\":6537:6541   */\n      0x00\n        /* \"#utility.yul\":6575:6577   */\n      0x20\n        /* \"#utility.yul\":6564:6573   */\n      dup3\n        /* \"#utility.yul\":6560:6578   */\n      add\n        /* \"#utility.yul\":6552:6578   */\n      swap1\n      pop\n        /* \"#utility.yul\":6588:6659   */\n      tag_253\n        /* \"#utility.yul\":6656:6657   */\n      0x00\n        /* \"#utility.yul\":6645:6654   */\n      dup4\n        /* \"#utility.yul\":6641:6658   */\n      add\n        /* \"#utility.yul\":6632:6638   */\n      dup5\n        /* \"#utility.yul\":6588:6659   */\n      tag_144\n      jump\t// in\n    tag_253:\n        /* \"#utility.yul\":6444:6666   */\n      swap3\n      swap2\n      pop\n      pop\n      jump\t// out\n        /* \"#utility.yul\":6672:6771   */\n    tag_145:\n        /* \"#utility.yul\":6724:6730   */\n      0x00\n        /* \"#utility.yul\":6758:6763   */\n      dup2\n        /* \"#utility.yul\":6752:6764   */\n      mload\n        /* \"#utility.yul\":6742:6764   */\n      swap1\n      pop\n        /* \"#utility.yul\":6672:6771   */\n      swap2\n      swap1\n      pop\n      jump\t// out\n        /* \"#utility.yul\":6777:6946   */\n    tag_146:\n        /* \"#utility.yul\":6861:6872   */\n      0x00\n        /* \"#utility.yul\":6895:6901   */\n      dup3\n        /* \"#utility.yul\":6890:6893   */\n      dup3\n        /* \"#utility.yul\":6883:6902   */\n      mstore\n        /* \"#utility.yul\":6935:6939   */\n      0x20\n        /* \"#utility.yul\":6930:6933   */\n      dup3\n        /* \"#utility.yul\":6926:6940   */\n      add\n        /* \"#utility.yul\":6911:6940   */\n      swap1\n      pop\n        /* \"#utility.yul\":6777:6946   */\n      swap3\n      swap2\n      pop\n      pop\n      jump\t// out\n        /* \"#utility.yul\":6952:7198   */\n    tag_147:\n        /* \"#utility.yul\":7033:7034   */\n      0x00\n        /* \"#utility.yul\":7043:7156   */\n    tag_257:\n        /* \"#utility.yul\":7057:7063   */\n      dup4\n        /* \"#utility.yul\":7054:7055   */\n      dup2\n        /* \"#utility.yul\":7051:7064   */\n      lt\n        /* \"#utility.yul\":7043:7156   */\n      iszero\n      tag_259\n      jumpi\n        /* \"#utility.yul\":7142:7143   */\n      dup1\n        /* \"#utility.yul\":7137:7140   */\n      dup3\n        /* \"#utility.yul\":7133:7144   */\n      add\n        /* \"#utility.yul\":7127:7145   */\n      mload\n        /* \"#utility.yul\":7123:7124   */\n      dup2\n        /* \"#utility.yul\":7118:7121   */\n      dup5\n        /* \"#utility.yul\":7114:7125   */\n      add\n        /* \"#utility.yul\":7107:7146   */\n      mstore\n        /* \"#utility.yul\":7079:7081   */\n      0x20\n        /* \"#utility.yul\":7076:7077   */\n      dup2\n        /* \"#utility.yul\":7072:7082   */\n      add\n        /* \"#utility.yul\":7067:7082   */\n      swap1\n      pop\n        /* \"#utility.yul\":7043:7156   */\n      jump(tag_257)\n    tag_259:\n        /* \"#utility.yul\":7190:7191   */\n      0x00\n        /* \"#utility.yul\":7181:7187   */\n      dup5\n        /* \"#utility.yul\":7176:7179   */\n      dup5\n        /* \"#utility.yul\":7172:7188   */\n      add\n        /* \"#utility.yul\":7165:7192   */\n      mstore\n        /* \"#utility.yul\":7014:7198   */\n      pop\n        /* \"#utility.yul\":6952:7198   */\n      pop\n      pop\n      pop\n      jump\t// out\n        /* \"#utility.yul\":7204:7581   */\n    tag_148:\n        /* \"#utility.yul\":7292:7295   */\n      0x00\n        /* \"#utility.yul\":7320:7359   */\n      tag_261\n        /* \"#utility.yul\":7353:7358   */\n      dup3\n        /* \"#utility.yul\":7320:7359   */\n      tag_145\n      jump\t// in\n    tag_261:\n        /* \"#utility.yul\":7375:7446   */\n      tag_262\n        /* \"#utility.yul\":7439:7445   */\n      dup2\n        /* \"#utility.yul\":7434:7437   */\n      dup6\n        /* \"#utility.yul\":7375:7446   */\n      tag_146\n      jump\t// in\n    tag_262:\n        /* \"#utility.yul\":7368:7446   */\n      swap4\n      pop\n        /* \"#utility.yul\":7455:7520   */\n      tag_263\n        /* \"#utility.yul\":7513:7519   */\n      dup2\n        /* \"#utility.yul\":7508:7511   */\n      dup6\n        /* \"#utility.yul\":7501:7505   */\n      0x20\n        /* \"#utility.yul\":7494:7499   */\n      dup7\n        /* \"#utility.yul\":7490:7506   */\n      add\n        /* \"#utility.yul\":7455:7520   */\n      tag_147\n      jump\t// in\n    tag_263:\n        /* \"#utility.yul\":7545:7574   */\n      tag_264\n        /* \"#utility.yul\":7567:7573   */\n      dup2\n        /* \"#utility.yul\":7545:7574   */\n      tag_134\n      jump\t// in\n    tag_264:\n        /* \"#utility.yul\":7540:7543   */\n      dup5\n        /* \"#utility.yul\":7536:7575   */\n      add\n        /* \"#utility.yul\":7529:7575   */\n      swap2\n      pop\n        /* \"#utility.yul\":7296:7581   */\n      pop\n        /* \"#utility.yul\":7204:7581   */\n      swap3\n      swap2\n      pop\n      pop\n      jump\t// out\n        /* \"#utility.yul\":7587:8231   */\n    tag_52:\n        /* \"#utility.yul\":7784:7788   */\n      0x00\n        /* \"#utility.yul\":7822:7825   */\n      0x80\n        /* \"#utility.yul\":7811:7820   */\n      dup3\n        /* \"#utility.yul\":7807:7826   */\n      add\n        /* \"#utility.yul\":7799:7826   */\n      swap1\n      pop\n        /* \"#utility.yul\":7836:7907   */\n      tag_266\n        /* \"#utility.yul\":7904:7905   */\n      0x00\n        /* \"#utility.yul\":7893:7902   */\n      dup4\n        /* \"#utility.yul\":7889:7906   */\n      add\n        /* \"#utility.yul\":7880:7886   */\n      dup8\n        /* \"#utility.yul\":7836:7907   */\n      tag_144\n      jump\t// in\n    tag_266:\n        /* \"#utility.yul\":7917:7989   */\n      tag_267\n        /* \"#utility.yul\":7985:7987   */\n      0x20\n        /* \"#utility.yul\":7974:7983   */\n      dup4\n        /* \"#utility.yul\":7970:7988   */\n      add\n        /* \"#utility.yul\":7961:7967   */\n      dup7\n        /* \"#utility.yul\":7917:7989   */\n      tag_131\n      jump\t// in\n    tag_267:\n        /* \"#utility.yul\":7999:8071   */\n      tag_268\n        /* \"#utility.yul\":8067:8069   */\n      0x40\n        /* \"#utility.yul\":8056:8065   */\n      dup4\n        /* \"#utility.yul\":8052:8070   */\n      add\n        /* \"#utility.yul\":8043:8049   */\n      dup6\n        /* \"#utility.yul\":7999:8071   */\n      tag_131\n      jump\t// in\n    tag_268:\n        /* \"#utility.yul\":8118:8127   */\n      dup2\n        /* \"#utility.yul\":8112:8116   */\n      dup2\n        /* \"#utility.yul\":8108:8128   */\n      sub\n        /* \"#utility.yul\":8103:8105   */\n      0x60\n        /* \"#utility.yul\":8092:8101   */\n      dup4\n        /* \"#utility.yul\":8088:8106   */\n      add\n        /* \"#utility.yul\":8081:8129   */\n      mstore\n        /* \"#utility.yul\":8146:8224   */\n      tag_269\n        /* \"#utility.yul\":8219:8223   */\n      dup2\n        /* \"#utility.yul\":8210:8216   */\n      dup5\n        /* \"#utility.yul\":8146:8224   */\n      tag_148\n      jump\t// in\n    tag_269:\n        /* \"#utility.yul\":8138:8224   */\n      swap1\n      pop\n        /* \"#utility.yul\":7587:8231   */\n      swap6\n      swap5\n      pop\n      pop\n      pop\n      pop\n      pop\n      jump\t// out\n        /* \"#utility.yul\":8237:8417   */\n    tag_149:\n        /* \"#utility.yul\":8285:8362   */\n      0x4e487b7100000000000000000000000000000000000000000000000000000000\n        /* \"#utility.yul\":8282:8283   */\n      0x00\n        /* \"#utility.yul\":8275:8363   */\n      mstore\n        /* \"#utility.yul\":8382:8386   */\n      0x11\n        /* \"#utility.yul\":8379:8380   */\n      0x04\n        /* \"#utility.yul\":8372:8387   */\n      mstore\n        /* \"#utility.yul\":8406:8410   */\n      0x24\n        /* \"#utility.yul\":8403:8404   */\n      0x00\n        /* \"#utility.yul\":8396:8411   */\n      revert\n        /* \"#utility.yul\":8423:8611   */\n    tag_81:\n        /* \"#utility.yul\":8461:8464   */\n      0x00\n        /* \"#utility.yul\":8480:8498   */\n      tag_272\n        /* \"#utility.yul\":8496:8497   */\n      dup3\n        /* \"#utility.yul\":8480:8498   */\n      tag_126\n      jump\t// in\n    tag_272:\n        /* \"#utility.yul\":8475:8498   */\n      swap2\n      pop\n        /* \"#utility.yul\":8512:8530   */\n      tag_273\n        /* \"#utility.yul\":8528:8529   */\n      dup4\n        /* \"#utility.yul\":8512:8530   */\n      tag_126\n      jump\t// in\n    tag_273:\n        /* \"#utility.yul\":8507:8530   */\n      swap3\n      pop\n        /* \"#utility.yul\":8553:8554   */\n      dup3\n        /* \"#utility.yul\":8550:8551   */\n      dup3\n        /* \"#utility.yul\":8546:8555   */\n      add\n        /* \"#utility.yul\":8539:8555   */\n      swap1\n      pop\n        /* \"#utility.yul\":8576:8580   */\n      0xff\n        /* \"#utility.yul\":8571:8574   */\n      dup2\n        /* \"#utility.yul\":8568:8581   */\n      gt\n        /* \"#utility.yul\":8565:8604   */\n      iszero\n      tag_274\n      jumpi\n        /* \"#utility.yul\":8584:8602   */\n      tag_275\n      tag_149\n      jump\t// in\n    tag_275:\n        /* \"#utility.yul\":8565:8604   */\n    tag_274:\n        /* \"#utility.yul\":8423:8611   */\n      swap3\n      swap2\n      pop\n      pop\n      jump\t// out\n        /* \"#utility.yul\":8617:8775   */\n    tag_150:\n        /* \"#utility.yul\":8757:8767   */\n      0x4f766572666c6f77000000000000000000000000000000000000000000000000\n        /* \"#utility.yul\":8753:8754   */\n      0x00\n        /* \"#utility.yul\":8745:8751   */\n      dup3\n        /* \"#utility.yul\":8741:8755   */\n      add\n        /* \"#utility.yul\":8734:8768   */\n      mstore\n        /* \"#utility.yul\":8617:8775   */\n      pop\n      jump\t// out\n        /* \"#utility.yul\":8781:9146   */\n    tag_151:\n        /* \"#utility.yul\":8923:8926   */\n      0x00\n        /* \"#utility.yul\":8944:9010   */\n      tag_278\n        /* \"#utility.yul\":9008:9009   */\n      0x08\n        /* \"#utility.yul\":9003:9006   */\n      dup4\n        /* \"#utility.yul\":8944:9010   */\n      tag_146\n      jump\t// in\n    tag_278:\n        /* \"#utility.yul\":8937:9010   */\n      swap2\n      pop\n        /* \"#utility.yul\":9019:9112   */\n      tag_279\n        /* \"#utility.yul\":9108:9111   */\n      dup3\n        /* \"#utility.yul\":9019:9112   */\n      tag_150\n      jump\t// in\n    tag_279:\n        /* \"#utility.yul\":9137:9139   */\n      0x20\n        /* \"#utility.yul\":9132:9135   */\n      dup3\n        /* \"#utility.yul\":9128:9140   */\n      add\n        /* \"#utility.yul\":9121:9140   */\n      swap1\n      pop\n        /* \"#utility.yul\":8781:9146   */\n      swap2\n      swap1\n      pop\n      jump\t// out\n        /* \"#utility.yul\":9152:9571   */\n    tag_84:\n        /* \"#utility.yul\":9318:9322   */\n      0x00\n        /* \"#utility.yul\":9356:9358   */\n      0x20\n        /* \"#utility.yul\":9345:9354   */\n      dup3\n        /* \"#utility.yul\":9341:9359   */\n      add\n        /* \"#utility.yul\":9333:9359   */\n      swap1\n      pop\n        /* \"#utility.yul\":9405:9414   */\n      dup2\n        /* \"#utility.yul\":9399:9403   */\n      dup2\n        /* \"#utility.yul\":9395:9415   */\n      sub\n        /* \"#utility.yul\":9391:9392   */\n      0x00\n        /* \"#utility.yul\":9380:9389   */\n      dup4\n        /* \"#utility.yul\":9376:9393   */\n      add\n        /* \"#utility.yul\":9369:9416   */\n      mstore\n        /* \"#utility.yul\":9433:9564   */\n      tag_281\n        /* \"#utility.yul\":9559:9563   */\n      dup2\n        /* \"#utility.yul\":9433:9564   */\n      tag_151\n      jump\t// in\n    tag_281:\n        /* \"#utility.yul\":9425:9564   */\n      swap1\n      pop\n        /* \"#utility.yul\":9152:9571   */\n      swap2\n      swap1\n      pop\n      jump\t// out\n        /* \"#utility.yul\":9577:9725   */\n    tag_152:\n        /* \"#utility.yul\":9679:9690   */\n      0x00\n        /* \"#utility.yul\":9716:9719   */\n      dup2\n        /* \"#utility.yul\":9701:9719   */\n      swap1\n      pop\n        /* \"#utility.yul\":9577:9725   */\n      swap3\n      swap2\n      pop\n      pop\n      jump\t// out\n        /* \"#utility.yul\":9731:10121   */\n    tag_153:\n        /* \"#utility.yul\":9837:9840   */\n      0x00\n        /* \"#utility.yul\":9865:9904   */\n      tag_284\n        /* \"#utility.yul\":9898:9903   */\n      dup3\n        /* \"#utility.yul\":9865:9904   */\n      tag_145\n      jump\t// in\n    tag_284:\n        /* \"#utility.yul\":9920:10009   */\n      tag_285\n        /* \"#utility.yul\":10002:10008   */\n      dup2\n        /* \"#utility.yul\":9997:10000   */\n      dup6\n        /* \"#utility.yul\":9920:10009   */\n      tag_152\n      jump\t// in\n    tag_285:\n        /* \"#utility.yul\":9913:10009   */\n      swap4\n      pop\n        /* \"#utility.yul\":10018:10083   */\n      tag_286\n        /* \"#utility.yul\":10076:10082   */\n      dup2\n        /* \"#utility.yul\":10071:10074   */\n      dup6\n        /* \"#utility.yul\":10064:10068   */\n      0x20\n        /* \"#utility.yul\":10057:10062   */\n      dup7\n        /* \"#utility.yul\":10053:10069   */\n      add\n        /* \"#utility.yul\":10018:10083   */\n      tag_147\n      jump\t// in\n    tag_286:\n        /* \"#utility.yul\":10108:10114   */\n      dup1\n        /* \"#utility.yul\":10103:10106   */\n      dup5\n        /* \"#utility.yul\":10099:10115   */\n      add\n        /* \"#utility.yul\":10092:10115   */\n      swap2\n      pop\n        /* \"#utility.yul\":9841:10121   */\n      pop\n        /* \"#utility.yul\":9731:10121   */\n      swap3\n      swap2\n      pop\n      pop\n      jump\t// out\n        /* \"#utility.yul\":10127:10402   */\n    tag_89:\n        /* \"#utility.yul\":10259:10262   */\n      0x00\n        /* \"#utility.yul\":10281:10376   */\n      tag_288\n        /* \"#utility.yul\":10372:10375   */\n      dup3\n        /* \"#utility.yul\":10363:10369   */\n      dup5\n        /* \"#utility.yul\":10281:10376   */\n      tag_153\n      jump\t// in\n    tag_288:\n        /* \"#utility.yul\":10274:10376   */\n      swap2\n      pop\n        /* \"#utility.yul\":10393:10396   */\n      dup2\n        /* \"#utility.yul\":10386:10396   */\n      swap1\n      pop\n        /* \"#utility.yul\":10127:10402   */\n      swap3\n      swap2\n      pop\n      pop\n      jump\t// out\n        /* \"#utility.yul\":10408:10588   */\n    tag_154:\n        /* \"#utility.yul\":10456:10533   */\n      0x4e487b7100000000000000000000000000000000000000000000000000000000\n        /* \"#utility.yul\":10453:10454   */\n      0x00\n        /* \"#utility.yul\":10446:10534   */\n      mstore\n        /* \"#utility.yul\":10553:10557   */\n      0x22\n        /* \"#utility.yul\":10550:10551   */\n      0x04\n        /* \"#utility.yul\":10543:10558   */\n      mstore\n        /* \"#utility.yul\":10577:10581   */\n      0x24\n        /* \"#utility.yul\":10574:10575   */\n      0x00\n        /* \"#utility.yul\":10567:10582   */\n      revert\n        /* \"#utility.yul\":10594:10914   */\n    tag_91:\n        /* \"#utility.yul\":10638:10644   */\n      0x00\n        /* \"#utility.yul\":10675:10676   */\n      0x02\n        /* \"#utility.yul\":10669:10673   */\n      dup3\n        /* \"#utility.yul\":10665:10677   */\n      div\n        /* \"#utility.yul\":10655:10677   */\n      swap1\n      pop\n        /* \"#utility.yul\":10722:10723   */\n      0x01\n        /* \"#utility.yul\":10716:10720   */\n      dup3\n        /* \"#utility.yul\":10712:10724   */\n      and\n        /* \"#utility.yul\":10743:10761   */\n      dup1\n        /* \"#utility.yul\":10733:10814   */\n      tag_291\n      jumpi\n        /* \"#utility.yul\":10799:10803   */\n      0x7f\n        /* \"#utility.yul\":10791:10797   */\n      dup3\n        /* \"#utility.yul\":10787:10804   */\n      and\n        /* \"#utility.yul\":10777:10804   */\n      swap2\n      pop\n        /* \"#utility.yul\":10733:10814   */\n    tag_291:\n        /* \"#utility.yul\":10861:10863   */\n      0x20\n        /* \"#utility.yul\":10853:10859   */\n      dup3\n        /* \"#utility.yul\":10850:10864   */\n      lt\n        /* \"#utility.yul\":10830:10848   */\n      dup2\n        /* \"#utility.yul\":10827:10865   */\n      sub\n        /* \"#utility.yul\":10824:10908   */\n      tag_292\n      jumpi\n        /* \"#utility.yul\":10880:10898   */\n      tag_293\n      tag_154\n      jump\t// in\n    tag_293:\n        /* \"#utility.yul\":10824:10908   */\n    tag_292:\n        /* \"#utility.yul\":10645:10914   */\n      pop\n        /* \"#utility.yul\":10594:10914   */\n      swap2\n      swap1\n      pop\n      jump\t// out\n        /* \"#utility.yul\":10920:11081   */\n    tag_155:\n        /* \"#utility.yul\":11060:11073   */\n      0x57726f6e67204d6f6f6421000000000000000000000000000000000000000000\n        /* \"#utility.yul\":11056:11057   */\n      0x00\n        /* \"#utility.yul\":11048:11054   */\n      dup3\n        /* \"#utility.yul\":11044:11058   */\n      add\n        /* \"#utility.yul\":11037:11074   */\n      mstore\n        /* \"#utility.yul\":10920:11081   */\n      pop\n      jump\t// out\n        /* \"#utility.yul\":11087:11453   */\n    tag_156:\n        /* \"#utility.yul\":11229:11232   */\n      0x00\n        /* \"#utility.yul\":11250:11317   */\n      tag_296\n        /* \"#utility.yul\":11314:11316   */\n      0x0b\n        /* \"#utility.yul\":11309:11312   */\n      dup4\n        /* \"#utility.yul\":11250:11317   */\n      tag_146\n      jump\t// in\n    tag_296:\n        /* \"#utility.yul\":11243:11317   */\n      swap2\n      pop\n        /* \"#utility.yul\":11326:11419   */\n      tag_297\n        /* \"#utility.yul\":11415:11418   */\n      dup3\n        /* \"#utility.yul\":11326:11419   */\n      tag_155\n      jump\t// in\n    tag_297:\n        /* \"#utility.yul\":11444:11446   */\n      0x20\n        /* \"#utility.yul\":11439:11442   */\n      dup3\n        /* \"#utility.yul\":11435:11447   */\n      add\n        /* \"#utility.yul\":11428:11447   */\n      swap1\n      pop\n        /* \"#utility.yul\":11087:11453   */\n      swap2\n      swap1\n      pop\n      jump\t// out\n        /* \"#utility.yul\":11459:11878   */\n    tag_103:\n        /* \"#utility.yul\":11625:11629   */\n      0x00\n        /* \"#utility.yul\":11663:11665   */\n      0x20\n        /* \"#utility.yul\":11652:11661   */\n      dup3\n        /* \"#utility.yul\":11648:11666   */\n      add\n        /* \"#utility.yul\":11640:11666   */\n      swap1\n      pop\n        /* \"#utility.yul\":11712:11721   */\n      dup2\n        /* \"#utility.yul\":11706:11710   */\n      dup2\n        /* \"#utility.yul\":11702:11722   */\n      sub\n        /* \"#utility.yul\":11698:11699   */\n      0x00\n        /* \"#utility.yul\":11687:11696   */\n      dup4\n        /* \"#utility.yul\":11683:11700   */\n      add\n        /* \"#utility.yul\":11676:11723   */\n      mstore\n        /* \"#utility.yul\":11740:11871   */\n      tag_299\n        /* \"#utility.yul\":11866:11870   */\n      dup2\n        /* \"#utility.yul\":11740:11871   */\n      tag_156\n      jump\t// in\n    tag_299:\n        /* \"#utility.yul\":11732:11871   */\n      swap1\n      pop\n        /* \"#utility.yul\":11459:11878   */\n      swap2\n      swap1\n      pop\n      jump\t// out\n        /* \"#utility.yul\":11884:12117   */\n    tag_106:\n        /* \"#utility.yul\":11923:11926   */\n      0x00\n        /* \"#utility.yul\":11946:11970   */\n      tag_301\n        /* \"#utility.yul\":11964:11969   */\n      dup3\n        /* \"#utility.yul\":11946:11970   */\n      tag_130\n      jump\t// in\n    tag_301:\n        /* \"#utility.yul\":11937:11970   */\n      swap2\n      pop\n        /* \"#utility.yul\":11992:12058   */\n      0xffffffffffffffffffffffffffffffffffffffffffffffffffffffffffffffff\n        /* \"#utility.yul\":11985:11990   */\n      dup3\n        /* \"#utility.yul\":11982:12059   */\n      sub\n        /* \"#utility.yul\":11979:12082   */\n      tag_302\n      jumpi\n        /* \"#utility.yul\":12062:12080   */\n      tag_303\n      tag_149\n      jump\t// in\n    tag_303:\n        /* \"#utility.yul\":11979:12082   */\n    tag_302:\n        /* \"#utility.yul\":12109:12110   */\n      0x01\n        /* \"#utility.yul\":12102:12107   */\n      dup3\n        /* \"#utility.yul\":12098:12111   */\n      add\n        /* \"#utility.yul\":12091:12111   */\n      swap1\n      pop\n        /* \"#utility.yul\":11884:12117   */\n      swap2\n      swap1\n      pop\n      jump\t// out\n        /* \"#utility.yul\":12123:12264   */\n    tag_157:\n        /* \"#utility.yul\":12172:12176   */\n      0x00\n        /* \"#utility.yul\":12195:12198   */\n      dup2\n        /* \"#utility.yul\":12187:12198   */\n      swap1\n      pop\n        /* \"#utility.yul\":12218:12221   */\n      dup2\n        /* \"#utility.yul\":12215:12216   */\n      0x00\n        /* \"#utility.yul\":12208:12222   */\n      mstore\n        /* \"#utility.yul\":12252:12256   */\n      0x20\n        /* \"#utility.yul\":12249:12250   */\n      0x00\n        /* \"#utility.yul\":12239:12257   */\n      keccak256\n        /* \"#utility.yul\":12231:12257   */\n      swap1\n      pop\n        /* \"#utility.yul\":12123:12264   */\n      swap2\n      swap1\n      pop\n      jump\t// out\n        /* \"#utility.yul\":12270:12363   */\n    tag_158:\n        /* \"#utility.yul\":12307:12313   */\n      0x00\n        /* \"#utility.yul\":12354:12356   */\n      0x20\n        /* \"#utility.yul\":12349:12351   */\n      0x1f\n        /* \"#utility.yul\":12342:12347   */\n      dup4\n        /* \"#utility.yul\":12338:12352   */\n      add\n        /* \"#utility.yul\":12334:12357   */\n      div\n        /* \"#utility.yul\":12324:12357   */\n      swap1\n      pop\n        /* \"#utility.yul\":12270:12363   */\n      swap2\n      swap1\n      pop\n      jump\t// out\n        /* \"#utility.yul\":12369:12476   */\n    tag_159:\n        /* \"#utility.yul\":12413:12421   */\n      0x00\n        /* \"#utility.yul\":12463:12468   */\n      dup3\n        /* \"#utility.yul\":12457:12461   */\n      dup3\n        /* \"#utility.yul\":12453:12469   */\n      shl\n        /* \"#utility.yul\":12432:12469   */\n      swap1\n      pop\n        /* \"#utility.yul\":12369:12476   */\n      swap3\n      swap2\n      pop\n      pop\n      jump\t// out\n        /* \"#utility.yul\":12482:12875   */\n    tag_160:\n        /* \"#utility.yul\":12551:12557   */\n      0x00\n        /* \"#utility.yul\":12601:12602   */\n      0x08\n        /* \"#utility.yul\":12589:12599   */\n      dup4\n        /* \"#utility.yul\":12585:12603   */\n      mul\n        /* \"#utility.yul\":12624:12721   */\n      tag_308\n        /* \"#utility.yul\":12654:12720   */\n      0xffffffffffffffffffffffffffffffffffffffffffffffffffffffffffffffff\n        /* \"#utility.yul\":12643:12652   */\n      dup3\n        /* \"#utility.yul\":12624:12721   */\n      tag_159\n      jump\t// in\n    tag_308:\n        /* \"#utility.yul\":12742:12781   */\n      tag_309\n        /* \"#utility.yul\":12772:12780   */\n      dup7\n        /* \"#utility.yul\":12761:12770   */\n      dup4\n        /* \"#utility.yul\":12742:12781   */\n      tag_159\n      jump\t// in\n    tag_309:\n        /* \"#utility.yul\":12730:12781   */\n      swap6\n      pop\n        /* \"#utility.yul\":12814:12818   */\n      dup1\n        /* \"#utility.yul\":12810:12819   */\n      not\n        /* \"#utility.yul\":12803:12808   */\n      dup5\n        /* \"#utility.yul\":12799:12820   */\n      and\n        /* \"#utility.yul\":12790:12820   */\n      swap4\n      pop\n        /* \"#utility.yul\":12863:12867   */\n      dup1\n        /* \"#utility.yul\":12853:12861   */\n      dup7\n        /* \"#utility.yul\":12849:12868   */\n      and\n        /* \"#utility.yul\":12842:12847   */\n      dup5\n        /* \"#utility.yul\":12839:12869   */\n      or\n        /* \"#utility.yul\":12829:12869   */\n      swap3\n      pop\n        /* \"#utility.yul\":12558:12875   */\n      pop\n      pop\n        /* \"#utility.yul\":12482:12875   */\n      swap4\n      swap3\n      pop\n      pop\n      pop\n      jump\t// out\n        /* \"#utility.yul\":12881:12941   */\n    tag_161:\n        /* \"#utility.yul\":12909:12912   */\n      0x00\n        /* \"#utility.yul\":12930:12935   */\n      dup2\n        /* \"#utility.yul\":12923:12935   */\n      swap1\n      pop\n        /* \"#utility.yul\":12881:12941   */\n      swap2\n      swap1\n      pop\n      jump\t// out\n        /* \"#utility.yul\":12947:13089   */\n    tag_162:\n        /* \"#utility.yul\":12997:13006   */\n      0x00\n        /* \"#utility.yul\":13030:13083   */\n      tag_312\n        /* \"#utility.yul\":13048:13082   */\n      tag_313\n        /* \"#utility.yul\":13057:13081   */\n      tag_314\n        /* \"#utility.yul\":13075:13080   */\n      dup5\n        /* \"#utility.yul\":13057:13081   */\n      tag_130\n      jump\t// in\n    tag_314:\n        /* \"#utility.yul\":13048:13082   */\n      tag_161\n      jump\t// in\n    tag_313:\n        /* \"#utility.yul\":13030:13083   */\n      tag_130\n      jump\t// in\n    tag_312:\n        /* \"#utility.yul\":13017:13083   */\n      swap1\n      pop\n        /* \"#utility.yul\":12947:13089   */\n      swap2\n      swap1\n      pop\n      jump\t// out\n        /* \"#utility.yul\":13095:13170   */\n    tag_163:\n        /* \"#utility.yul\":13138:13141   */\n      0x00\n        /* \"#utility.yul\":13159:13164   */\n      dup2\n        /* \"#utility.yul\":13152:13164   */\n      swap1\n      pop\n        /* \"#utility.yul\":13095:13170   */\n      swap2\n      swap1\n      pop\n      jump\t// out\n        /* \"#utility.yul\":13176:13445   */\n    tag_164:\n        /* \"#utility.yul\":13286:13325   */\n      tag_317\n        /* \"#utility.yul\":13317:13324   */\n      dup4\n        /* \"#utility.yul\":13286:13325   */\n      tag_162\n      jump\t// in\n    tag_317:\n        /* \"#utility.yul\":13347:13438   */\n      tag_318\n        /* \"#utility.yul\":13396:13437   */\n      tag_319\n        /* \"#utility.yul\":13420:13436   */\n      dup3\n        /* \"#utility.yul\":13396:13437   */\n      tag_163\n      jump\t// in\n    tag_319:\n        /* \"#utility.yul\":13388:13394   */\n      dup5\n        /* \"#utility.yul\":13381:13385   */\n      dup5\n        /* \"#utility.yul\":13375:13386   */\n      sload\n        /* \"#utility.yul\":13347:13438   */\n      tag_160\n      jump\t// in\n    tag_318:\n        /* \"#utility.yul\":13341:13345   */\n      dup3\n        /* \"#utility.yul\":13334:13439   */\n      sstore\n        /* \"#utility.yul\":13252:13445   */\n      pop\n        /* \"#utility.yul\":13176:13445   */\n      pop\n      pop\n      pop\n      jump\t// out\n        /* \"#utility.yul\":13451:13524   */\n    tag_165:\n        /* \"#utility.yul\":13496:13499   */\n      0x00\n        /* \"#utility.yul\":13451:13524   */\n      swap1\n      jump\t// out\n        /* \"#utility.yul\":13530:13719   */\n    tag_166:\n        /* \"#utility.yul\":13607:13639   */\n      tag_322\n      tag_165\n      jump\t// in\n    tag_322:\n        /* \"#utility.yul\":13648:13713   */\n      tag_323\n        /* \"#utility.yul\":13706:13712   */\n      dup2\n        /* \"#utility.yul\":13698:13704   */\n      dup5\n        /* \"#utility.yul\":13692:13696   */\n      dup5\n        /* \"#utility.yul\":13648:13713   */\n      tag_164\n      jump\t// in\n    tag_323:\n        /* \"#utility.yul\":13583:13719   */\n      pop\n        /* \"#utility.yul\":13530:13719   */\n      pop\n      pop\n      jump\t// out\n        /* \"#utility.yul\":13725:13911   */\n    tag_167:\n        /* \"#utility.yul\":13785:13905   */\n    tag_325:\n        /* \"#utility.yul\":13802:13805   */\n      dup2\n        /* \"#utility.yul\":13795:13800   */\n      dup2\n        /* \"#utility.yul\":13792:13806   */\n      lt\n        /* \"#utility.yul\":13785:13905   */\n      iszero\n      tag_327\n      jumpi\n        /* \"#utility.yul\":13856:13895   */\n      tag_328\n        /* \"#utility.yul\":13893:13894   */\n      0x00\n        /* \"#utility.yul\":13886:13891   */\n      dup3\n        /* \"#utility.yul\":13856:13895   */\n      tag_166\n      jump\t// in\n    tag_328:\n        /* \"#utility.yul\":13829:13830   */\n      0x01\n        /* \"#utility.yul\":13822:13827   */\n      dup2\n        /* \"#utility.yul\":13818:13831   */\n      add\n        /* \"#utility.yul\":13809:13831   */\n      swap1\n      pop\n        /* \"#utility.yul\":13785:13905   */\n      jump(tag_325)\n    tag_327:\n        /* \"#utility.yul\":13725:13911   */\n      pop\n      pop\n      jump\t// out\n        /* \"#utility.yul\":13917:14460   */\n    tag_168:\n        /* \"#utility.yul\":14018:14020   */\n      0x1f\n        /* \"#utility.yul\":14013:14016   */\n      dup3\n        /* \"#utility.yul\":14010:14021   */\n      gt\n        /* \"#utility.yul\":14007:14453   */\n      iszero\n      tag_330\n      jumpi\n        /* \"#utility.yul\":14052:14090   */\n      tag_331\n        /* \"#utility.yul\":14084:14089   */\n      dup2\n        /* \"#utility.yul\":14052:14090   */\n      tag_157\n      jump\t// in\n    tag_331:\n        /* \"#utility.yul\":14136:14165   */\n      tag_332\n        /* \"#utility.yul\":14154:14164   */\n      dup5\n        /* \"#utility.yul\":14136:14165   */\n      tag_158\n      jump\t// in\n    tag_332:\n        /* \"#utility.yul\":14126:14134   */\n      dup2\n        /* \"#utility.yul\":14122:14166   */\n      add\n        /* \"#utility.yul\":14319:14321   */\n      0x20\n        /* \"#utility.yul\":14307:14317   */\n      dup6\n        /* \"#utility.yul\":14304:14322   */\n      lt\n        /* \"#utility.yul\":14301:14350   */\n      iszero\n      tag_333\n      jumpi\n        /* \"#utility.yul\":14340:14348   */\n      dup2\n        /* \"#utility.yul\":14325:14348   */\n      swap1\n      pop\n        /* \"#utility.yul\":14301:14350   */\n    tag_333:\n        /* \"#utility.yul\":14363:14443   */\n      tag_334\n        /* \"#utility.yul\":14419:14441   */\n      tag_335\n        /* \"#utility.yul\":14437:14440   */\n      dup6\n        /* \"#utility.yul\":14419:14441   */\n      tag_158\n      jump\t// in\n    tag_335:\n        /* \"#utility.yul\":14409:14417   */\n      dup4\n        /* \"#utility.yul\":14405:14442   */\n      add\n        /* \"#utility.yul\":14392:14403   */\n      dup3\n        /* \"#utility.yul\":14363:14443   */\n      tag_167\n      jump\t// in\n    tag_334:\n        /* \"#utility.yul\":14022:14453   */\n      pop\n      pop\n        /* \"#utility.yul\":14007:14453   */\n    tag_330:\n        /* \"#utility.yul\":13917:14460   */\n      pop\n      pop\n      pop\n      jump\t// out\n        /* \"#utility.yul\":14466:14583   */\n    tag_169:\n        /* \"#utility.yul\":14520:14528   */\n      0x00\n        /* \"#utility.yul\":14570:14575   */\n      dup3\n        /* \"#utility.yul\":14564:14568   */\n      dup3\n        /* \"#utility.yul\":14560:14576   */\n      shr\n        /* \"#utility.yul\":14539:14576   */\n      swap1\n      pop\n        /* \"#utility.yul\":14466:14583   */\n      swap3\n      swap2\n      pop\n      pop\n      jump\t// out\n        /* \"#utility.yul\":14589:14758   */\n    tag_170:\n        /* \"#utility.yul\":14633:14639   */\n      0x00\n        /* \"#utility.yul\":14666:14717   */\n      tag_338\n        /* \"#utility.yul\":14714:14715   */\n      0x00\n        /* \"#utility.yul\":14710:14716   */\n      not\n        /* \"#utility.yul\":14702:14707   */\n      dup5\n        /* \"#utility.yul\":14699:14700   */\n      0x08\n        /* \"#utility.yul\":14695:14708   */\n      mul\n        /* \"#utility.yul\":14666:14717   */\n      tag_169\n      jump\t// in\n    tag_338:\n        /* \"#utility.yul\":14662:14718   */\n      not\n        /* \"#utility.yul\":14747:14751   */\n      dup1\n        /* \"#utility.yul\":14741:14745   */\n      dup4\n        /* \"#utility.yul\":14737:14752   */\n      and\n        /* \"#utility.yul\":14727:14752   */\n      swap2\n      pop\n        /* \"#utility.yul\":14640:14758   */\n      pop\n        /* \"#utility.yul\":14589:14758   */\n      swap3\n      swap2\n      pop\n      pop\n      jump\t// out\n        /* \"#utility.yul\":14763:15058   */\n    tag_171:\n        /* \"#utility.yul\":14839:14843   */\n      0x00\n        /* \"#utility.yul\":14985:15014   */\n      tag_340\n        /* \"#utility.yul\":15010:15013   */\n      dup4\n        /* \"#utility.yul\":15004:15008   */\n      dup4\n        /* \"#utility.yul\":14985:15014   */\n      tag_170\n      jump\t// in\n    tag_340:\n        /* \"#utility.yul\":14977:15014   */\n      swap2\n      pop\n        /* \"#utility.yul\":15047:15050   */\n      dup3\n        /* \"#utility.yul\":15044:15045   */\n      0x02\n        /* \"#utility.yul\":15040:15051   */\n      mul\n        /* \"#utility.yul\":15034:15038   */\n      dup3\n        /* \"#utility.yul\":15031:15052   */\n      or\n        /* \"#utility.yul\":15023:15052   */\n      swap1\n      pop\n        /* \"#utility.yul\":14763:15058   */\n      swap3\n      swap2\n      pop\n      pop\n      jump\t// out\n        /* \"#utility.yul\":15063:16458   */\n    tag_110:\n        /* \"#utility.yul\":15180:15217   */\n      tag_342\n        /* \"#utility.yul\":15213:15216   */\n      dup3\n        /* \"#utility.yul\":15180:15217   */\n      tag_145\n      jump\t// in\n    tag_342:\n        /* \"#utility.yul\":15282:15300   */\n      0xffffffffffffffff\n        /* \"#utility.yul\":15274:15280   */\n      dup2\n        /* \"#utility.yul\":15271:15301   */\n      gt\n        /* \"#utility.yul\":15268:15324   */\n      iszero\n      tag_343\n      jumpi\n        /* \"#utility.yul\":15304:15322   */\n      tag_344\n      tag_135\n      jump\t// in\n    tag_344:\n        /* \"#utility.yul\":15268:15324   */\n    tag_343:\n        /* \"#utility.yul\":15348:15386   */\n      tag_345\n        /* \"#utility.yul\":15380:15384   */\n      dup3\n        /* \"#utility.yul\":15374:15385   */\n      sload\n        /* \"#utility.yul\":15348:15386   */\n      tag_91\n      jump\t// in\n    tag_345:\n        /* \"#utility.yul\":15433:15500   */\n      tag_346\n        /* \"#utility.yul\":15493:15499   */\n      dup3\n        /* \"#utility.yul\":15485:15491   */\n      dup3\n        /* \"#utility.yul\":15479:15483   */\n      dup6\n        /* \"#utility.yul\":15433:15500   */\n      tag_168\n      jump\t// in\n    tag_346:\n        /* \"#utility.yul\":15527:15528   */\n      0x00\n        /* \"#utility.yul\":15551:15555   */\n      0x20\n        /* \"#utility.yul\":15538:15555   */\n      swap1\n      pop\n        /* \"#utility.yul\":15583:15585   */\n      0x1f\n        /* \"#utility.yul\":15575:15581   */\n      dup4\n        /* \"#utility.yul\":15572:15586   */\n      gt\n        /* \"#utility.yul\":15600:15601   */\n      0x01\n        /* \"#utility.yul\":15595:16213   */\n      dup2\n      eq\n      tag_348\n      jumpi\n        /* \"#utility.yul\":16257:16258   */\n      0x00\n        /* \"#utility.yul\":16274:16280   */\n      dup5\n        /* \"#utility.yul\":16271:16348   */\n      iszero\n      tag_349\n      jumpi\n        /* \"#utility.yul\":16323:16332   */\n      dup3\n        /* \"#utility.yul\":16318:16321   */\n      dup8\n        /* \"#utility.yul\":16314:16333   */\n      add\n        /* \"#utility.yul\":16308:16334   */\n      mload\n        /* \"#utility.yul\":16299:16334   */\n      swap1\n      pop\n        /* \"#utility.yul\":16271:16348   */\n    tag_349:\n        /* \"#utility.yul\":16374:16441   */\n      tag_350\n        /* \"#utility.yul\":16434:16440   */\n      dup6\n        /* \"#utility.yul\":16427:16432   */\n      dup3\n        /* \"#utility.yul\":16374:16441   */\n      tag_171\n      jump\t// in\n    tag_350:\n        /* \"#utility.yul\":16368:16372   */\n      dup7\n        /* \"#utility.yul\":16361:16442   */\n      sstore\n        /* \"#utility.yul\":16230:16452   */\n      pop\n        /* \"#utility.yul\":15565:16452   */\n      jump(tag_347)\n        /* \"#utility.yul\":15595:16213   */\n    tag_348:\n        /* \"#utility.yul\":15647:15651   */\n      0x1f\n        /* \"#utility.yul\":15643:15652   */\n      not\n        /* \"#utility.yul\":15635:15641   */\n      dup5\n        /* \"#utility.yul\":15631:15653   */\n      and\n        /* \"#utility.yul\":15681:15718   */\n      tag_351\n        /* \"#utility.yul\":15713:15717   */\n      dup7\n        /* \"#utility.yul\":15681:15718   */\n      tag_157\n      jump\t// in\n    tag_351:\n        /* \"#utility.yul\":15740:15741   */\n      0x00\n        /* \"#utility.yul\":15754:15962   */\n    tag_352:\n        /* \"#utility.yul\":15768:15775   */\n      dup3\n        /* \"#utility.yul\":15765:15766   */\n      dup2\n        /* \"#utility.yul\":15762:15776   */\n      lt\n        /* \"#utility.yul\":15754:15962   */\n      iszero\n      tag_354\n      jumpi\n        /* \"#utility.yul\":15847:15856   */\n      dup5\n        /* \"#utility.yul\":15842:15845   */\n      dup10\n        /* \"#utility.yul\":15838:15857   */\n      add\n        /* \"#utility.yul\":15832:15858   */\n      mload\n        /* \"#utility.yul\":15824:15830   */\n      dup3\n        /* \"#utility.yul\":15817:15859   */\n      sstore\n        /* \"#utility.yul\":15898:15899   */\n      0x01\n        /* \"#utility.yul\":15890:15896   */\n      dup3\n        /* \"#utility.yul\":15886:15900   */\n      add\n        /* \"#utility.yul\":15876:15900   */\n      swap2\n      pop\n        /* \"#utility.yul\":15945:15947   */\n      0x20\n        /* \"#utility.yul\":15934:15943   */\n      dup6\n        /* \"#utility.yul\":15930:15948   */\n      add\n        /* \"#utility.yul\":15917:15948   */\n      swap5\n      pop\n        /* \"#utility.yul\":15791:15795   */\n      0x20\n        /* \"#utility.yul\":15788:15789   */\n      dup2\n        /* \"#utility.yul\":15784:15796   */\n      add\n        /* \"#utility.yul\":15779:15796   */\n      swap1\n      pop\n        /* \"#utility.yul\":15754:15962   */\n      jump(tag_352)\n    tag_354:\n        /* \"#utility.yul\":15990:15996   */\n      dup7\n        /* \"#utility.yul\":15981:15988   */\n      dup4\n        /* \"#utility.yul\":15978:15997   */\n      lt\n        /* \"#utility.yul\":15975:16154   */\n      iszero\n      tag_355\n      jumpi\n        /* \"#utility.yul\":16048:16057   */\n      dup5\n        /* \"#utility.yul\":16043:16046   */\n      dup10\n        /* \"#utility.yul\":16039:16058   */\n      add\n        /* \"#utility.yul\":16033:16059   */\n      mload\n        /* \"#utility.yul\":16091:16139   */\n      tag_356\n        /* \"#utility.yul\":16133:16137   */\n      0x1f\n        /* \"#utility.yul\":16125:16131   */\n      dup10\n        /* \"#utility.yul\":16121:16138   */\n      and\n        /* \"#utility.yul\":16110:16119   */\n      dup3\n        /* \"#utility.yul\":16091:16139   */\n      tag_170\n      jump\t// in\n    tag_356:\n        /* \"#utility.yul\":16083:16089   */\n      dup4\n        /* \"#utility.yul\":16076:16140   */\n      sstore\n        /* \"#utility.yul\":15998:16154   */\n      pop\n        /* \"#utility.yul\":15975:16154   */\n    tag_355:\n        /* \"#utility.yul\":16200:16201   */\n      0x01\n        /* \"#utility.yul\":16196:16197   */\n      0x02\n        /* \"#utility.yul\":16188:16194   */\n      dup9\n        /* \"#utility.yul\":16184:16198   */\n      mul\n        /* \"#utility.yul\":16180:16202   */\n      add\n        /* \"#utility.yul\":16174:16178   */\n      dup9\n        /* \"#utility.yul\":16167:16203   */\n      sstore\n        /* \"#utility.yul\":15602:16213   */\n      pop\n      pop\n      pop\n        /* \"#utility.yul\":15565:16452   */\n    tag_347:\n      pop\n        /* \"#utility.yul\":15155:16458   */\n      pop\n      pop\n      pop\n        /* \"#utility.yul\":15063:16458   */\n      pop\n      pop\n      jump\t// out\n\n    auxdata: 0xa26469706673582212204bd1372111021e72e7b4c967afa348a63c7a2e4785c427f27e27c2042706ff8b64736f6c63430008160033\n}\n",
				"bytecode": {
					"linkReferences": {},
					"object": "6080604052620f4240600455348015610016575f80fd5b5061102a806100245f395ff3fe6080604052600436106100a6575f3560e01c80637f109dd3116100635780637f109dd3146101b457806395e9af03146101f35780639af1d35a1461021b578063a5cad08a14610245578063e29710fe14610261578063f72106331461028b576100a6565b80630616cca0146100aa5780630c8d6d51146100d457806324600fc3146100fc5780632b4809551461011257806361bc221a1461014e57806368b64d1f14610178575b5f80fd5b3480156100b5575f80fd5b506100be6102b5565b6040516100cb9190610792565b60405180910390f35b3480156100df575f80fd5b506100fa60048036038101906100f591906107df565b6102c5565b005b348015610107575f80fd5b506101106102f0565b005b34801561011d575f80fd5b5061013860048036038101906101339190610840565b61033b565b604051610145919061087a565b60405180910390f35b348015610159575f80fd5b506101626103cc565b60405161016f91906108ab565b60405180910390f35b348015610183575f80fd5b5061019e60048036038101906101999190610a00565b6103d2565b6040516101ab9190610a86565b60405180910390f35b3480156101bf575f80fd5b506101da60048036038101906101d59190610a00565b61041a565b6040516101ea9493929190610b19565b60405180910390f35b3480156101fe575f80fd5b50610219600480360381019061021491906107df565b610503565b005b348015610226575f80fd5b5061022f610591565b60405161023c91906108ab565b60405180910390f35b61025f600480360381019061025a9190610a00565b610597565b005b34801561026c575f80fd5b50610275610662565b604051610282919061087a565b60405180910390f35b348015610296575f80fd5b5061029f610674565b6040516102ac919061087a565b60405180910390f35b5f8054906101000a900460ff1681565b805f806101000a81548160ff021916908360058111156102e8576102e761071f565b5b021790555050565b5f3390508073ffffffffffffffffffffffffffffffffffffffff166108fc4790811502906040515f60405180830381858888f19350505050158015610337573d5f803e3d5ffd5b5050565b5f81601960058261034c9190610b90565b60ff161061038f576040517f08c379a000000000000000000000000000000000000000000000000000000000815260040161038690610c0e565b60405180910390fd5b60058361039c9190610b90565b60025f6101000a81548160ff021916908360ff16021790555060025f9054906101000a900460ff16915050919050565b60015481565b5f6003826040516103e39190610c66565b90815260200160405180910390205f015f9054906101000a900473ffffffffffffffffffffffffffffffffffffffff169050919050565b6003818051602081018201805184825260208301602085012081835280955050505050505f91509050805f015f9054906101000a900473ffffffffffffffffffffffffffffffffffffffff169080600101549080600201549080600301805461048290610ca9565b80601f01602080910402602001604051908101604052809291908181526020018280546104ae90610ca9565b80156104f95780601f106104d0576101008083540402835291602001916104f9565b820191905f5260205f20905b8154815290600101906020018083116104dc57829003601f168201915b5050505050905084565b805f8054906101000a900460ff1660058111156105235761052261071f565b5b8160058111156105365761053561071f565b5b14610576576040517f08c379a000000000000000000000000000000000000000000000000000000000815260040161056d90610d23565b60405180910390fd5b60015f81548092919061058890610d41565b91905055505050565b60045481565b60405180608001604052803373ffffffffffffffffffffffffffffffffffffffff1681526020014281526020016004548152602001828152506003826040516105e09190610c66565b90815260200160405180910390205f820151815f015f6101000a81548173ffffffffffffffffffffffffffffffffffffffff021916908373ffffffffffffffffffffffffffffffffffffffff1602179055506020820151816001015560408201518160020155606082015181600301908161065b9190610f25565b5090505050565b60025f9054906101000a900460ff1681565b5f6019600160025f9054906101000a900460ff166106929190610b90565b60ff16106106d5576040517f08c379a00000000000000000000000000000000000000000000000000000000081526004016106cc90610c0e565b60405180910390fd5b600160025f8282829054906101000a900460ff166106f39190610b90565b92506101000a81548160ff021916908360ff16021790555060025f9054906101000a900460ff16905090565b7f4e487b71000000000000000000000000000000000000000000000000000000005f52602160045260245ffd5b6006811061075d5761075c61071f565b5b50565b5f81905061076d8261074c565b919050565b5f61077c82610760565b9050919050565b61078c81610772565b82525050565b5f6020820190506107a55f830184610783565b92915050565b5f604051905090565b5f80fd5b5f80fd5b600681106107c8575f80fd5b50565b5f813590506107d9816107bc565b92915050565b5f602082840312156107f4576107f36107b4565b5b5f610801848285016107cb565b91505092915050565b5f60ff82169050919050565b61081f8161080a565b8114610829575f80fd5b50565b5f8135905061083a81610816565b92915050565b5f60208284031215610855576108546107b4565b5b5f6108628482850161082c565b91505092915050565b6108748161080a565b82525050565b5f60208201905061088d5f83018461086b565b92915050565b5f819050919050565b6108a581610893565b82525050565b5f6020820190506108be5f83018461089c565b92915050565b5f80fd5b5f80fd5b5f601f19601f8301169050919050565b7f4e487b71000000000000000000000000000000000000000000000000000000005f52604160045260245ffd5b610912826108cc565b810181811067ffffffffffffffff82111715610931576109306108dc565b5b80604052505050565b5f6109436107ab565b905061094f8282610909565b919050565b5f67ffffffffffffffff82111561096e5761096d6108dc565b5b610977826108cc565b9050602081019050919050565b828183375f83830152505050565b5f6109a461099f84610954565b61093a565b9050828152602081018484840111156109c0576109bf6108c8565b5b6109cb848285610984565b509392505050565b5f82601f8301126109e7576109e66108c4565b5b81356109f7848260208601610992565b91505092915050565b5f60208284031215610a1557610a146107b4565b5b5f82013567ffffffffffffffff811115610a3257610a316107b8565b5b610a3e848285016109d3565b91505092915050565b5f73ffffffffffffffffffffffffffffffffffffffff82169050919050565b5f610a7082610a47565b9050919050565b610a8081610a66565b82525050565b5f602082019050610a995f830184610a77565b92915050565b5f81519050919050565b5f82825260208201905092915050565b5f5b83811015610ad6578082015181840152602081019050610abb565b5f8484015250505050565b5f610aeb82610a9f565b610af58185610aa9565b9350610b05818560208601610ab9565b610b0e816108cc565b840191505092915050565b5f608082019050610b2c5f830187610a77565b610b39602083018661089c565b610b46604083018561089c565b8181036060830152610b588184610ae1565b905095945050505050565b7f4e487b71000000000000000000000000000000000000000000000000000000005f52601160045260245ffd5b5f610b9a8261080a565b9150610ba58361080a565b9250828201905060ff811115610bbe57610bbd610b63565b5b92915050565b7f4f766572666c6f770000000000000000000000000000000000000000000000005f82015250565b5f610bf8600883610aa9565b9150610c0382610bc4565b602082019050919050565b5f6020820190508181035f830152610c2581610bec565b9050919050565b5f81905092915050565b5f610c4082610a9f565b610c4a8185610c2c565b9350610c5a818560208601610ab9565b80840191505092915050565b5f610c718284610c36565b915081905092915050565b7f4e487b71000000000000000000000000000000000000000000000000000000005f52602260045260245ffd5b5f6002820490506001821680610cc057607f821691505b602082108103610cd357610cd2610c7c565b5b50919050565b7f57726f6e67204d6f6f64210000000000000000000000000000000000000000005f82015250565b5f610d0d600b83610aa9565b9150610d1882610cd9565b602082019050919050565b5f6020820190508181035f830152610d3a81610d01565b9050919050565b5f610d4b82610893565b91507fffffffffffffffffffffffffffffffffffffffffffffffffffffffffffffffff8203610d7d57610d7c610b63565b5b600182019050919050565b5f819050815f5260205f209050919050565b5f6020601f8301049050919050565b5f82821b905092915050565b5f60088302610de47fffffffffffffffffffffffffffffffffffffffffffffffffffffffffffffffff82610da9565b610dee8683610da9565b95508019841693508086168417925050509392505050565b5f819050919050565b5f610e29610e24610e1f84610893565b610e06565b610893565b9050919050565b5f819050919050565b610e4283610e0f565b610e56610e4e82610e30565b848454610db5565b825550505050565b5f90565b610e6a610e5e565b610e75818484610e39565b505050565b5b81811015610e9857610e8d5f82610e62565b600181019050610e7b565b5050565b601f821115610edd57610eae81610d88565b610eb784610d9a565b81016020851015610ec6578190505b610eda610ed285610d9a565b830182610e7a565b50505b505050565b5f82821c905092915050565b5f610efd5f1984600802610ee2565b1980831691505092915050565b5f610f158383610eee565b9150826002028217905092915050565b610f2e82610a9f565b67ffffffffffffffff811115610f4757610f466108dc565b5b610f518254610ca9565b610f5c828285610e9c565b5f60209050601f831160018114610f8d575f8415610f7b578287015190505b610f858582610f0a565b865550610fec565b601f198416610f9b86610d88565b5f5b82811015610fc257848901518255600182019150602085019450602081019050610f9d565b86831015610fdf5784890151610fdb601f891682610eee565b8355505b6001600288020188555050505b50505050505056fea26469706673582212204bd1372111021e72e7b4c967afa348a63c7a2e4785c427f27e27c2042706ff8b64736f6c63430008160033",
					"opcodes": "PUSH1 0x80 PUSH1 0x40 MSTORE PUSH3 0xF4240 PUSH1 0x4 SSTORE CALLVALUE DUP1 ISZERO PUSH2 0x16 JUMPI PUSH0 DUP1 REVERT JUMPDEST POP PUSH2 0x102A DUP1 PUSH2 0x24 PUSH0 CODECOPY PUSH0 RETURN INVALID PUSH1 0x80 PUSH1 0x40 MSTORE PUSH1 0x4 CALLDATASIZE LT PUSH2 0xA6 JUMPI PUSH0 CALLDATALOAD PUSH1 0xE0 SHR DUP1 PUSH4 0x7F109DD3 GT PUSH2 0x63 JUMPI DUP1 PUSH4 0x7F109DD3 EQ PUSH2 0x1B4 JUMPI DUP1 PUSH4 0x95E9AF03 EQ PUSH2 0x1F3 JUMPI DUP1 PUSH4 0x9AF1D35A EQ PUSH2 0x21B JUMPI DUP1 PUSH4 0xA5CAD08A EQ PUSH2 0x245 JUMPI DUP1 PUSH4 0xE29710FE EQ PUSH2 0x261 JUMPI DUP1 PUSH4 0xF7210633 EQ PUSH2 0x28B JUMPI PUSH2 0xA6 JUMP JUMPDEST DUP1 PUSH4 0x616CCA0 EQ PUSH2 0xAA JUMPI DUP1 PUSH4 0xC8D6D51 EQ PUSH2 0xD4 JUMPI DUP1 PUSH4 0x24600FC3 EQ PUSH2 0xFC JUMPI DUP1 PUSH4 0x2B480955 EQ PUSH2 0x112 JUMPI DUP1 PUSH4 0x61BC221A EQ PUSH2 0x14E JUMPI DUP1 PUSH4 0x68B64D1F EQ PUSH2 0x178 JUMPI JUMPDEST PUSH0 DUP1 REVERT JUMPDEST CALLVALUE DUP1 ISZERO PUSH2 0xB5 JUMPI PUSH0 DUP1 REVERT JUMPDEST POP PUSH2 0xBE PUSH2 0x2B5 JUMP JUMPDEST PUSH1 0x40 MLOAD PUSH2 0xCB SWAP2 SWAP1 PUSH2 0x792 JUMP JUMPDEST PUSH1 0x40 MLOAD DUP1 SWAP2 SUB SWAP1 RETURN JUMPDEST CALLVALUE DUP1 ISZERO PUSH2 0xDF JUMPI PUSH0 DUP1 REVERT JUMPDEST POP PUSH2 0xFA PUSH1 0x4 DUP1 CALLDATASIZE SUB DUP2 ADD SWAP1 PUSH2 0xF5 SWAP2 SWAP1 PUSH2 0x7DF JUMP JUMPDEST PUSH2 0x2C5 JUMP JUMPDEST STOP JUMPDEST CALLVALUE DUP1 ISZERO PUSH2 0x107 JUMPI PUSH0 DUP1 REVERT JUMPDEST POP PUSH2 0x110 PUSH2 0x2F0 JUMP JUMPDEST STOP JUMPDEST CALLVALUE DUP1 ISZERO PUSH2 0x11D JUMPI PUSH0 DUP1 REVERT JUMPDEST POP PUSH2 0x138 PUSH1 0x4 DUP1 CALLDATASIZE SUB DUP2 ADD SWAP1 PUSH2 0x133 SWAP2 SWAP1 PUSH2 0x840 JUMP JUMPDEST PUSH2 0x33B JUMP JUMPDEST PUSH1 0x40 MLOAD PUSH2 0x145 SWAP2 SWAP1 PUSH2 0x87A JUMP JUMPDEST PUSH1 0x40 MLOAD DUP1 SWAP2 SUB SWAP1 RETURN JUMPDEST CALLVALUE DUP1 ISZERO PUSH2 0x159 JUMPI PUSH0 DUP1 REVERT JUMPDEST POP PUSH2 0x162 PUSH2 0x3CC JUMP JUMPDEST PUSH1 0x40 MLOAD PUSH2 0x16F SWAP2 SWAP1 PUSH2 0x8AB JUMP JUMPDEST PUSH1 0x40 MLOAD DUP1 SWAP2 SUB SWAP1 RETURN JUMPDEST CALLVALUE DUP1 ISZERO PUSH2 0x183 JUMPI PUSH0 DUP1 REVERT JUMPDEST POP PUSH2 0x19E PUSH1 0x4 DUP1 CALLDATASIZE SUB DUP2 ADD SWAP1 PUSH2 0x199 SWAP2 SWAP1 PUSH2 0xA00 JUMP JUMPDEST PUSH2 0x3D2 JUMP JUMPDEST PUSH1 0x40 MLOAD PUSH2 0x1AB SWAP2 SWAP1 PUSH2 0xA86 JUMP JUMPDEST PUSH1 0x40 MLOAD DUP1 SWAP2 SUB SWAP1 RETURN JUMPDEST CALLVALUE DUP1 ISZERO PUSH2 0x1BF JUMPI PUSH0 DUP1 REVERT JUMPDEST POP PUSH2 0x1DA PUSH1 0x4 DUP1 CALLDATASIZE SUB DUP2 ADD SWAP1 PUSH2 0x1D5 SWAP2 SWAP1 PUSH2 0xA00 JUMP JUMPDEST PUSH2 0x41A JUMP JUMPDEST PUSH1 0x40 MLOAD PUSH2 0x1EA SWAP5 SWAP4 SWAP3 SWAP2 SWAP1 PUSH2 0xB19 JUMP JUMPDEST PUSH1 0x40 MLOAD DUP1 SWAP2 SUB SWAP1 RETURN JUMPDEST CALLVALUE DUP1 ISZERO PUSH2 0x1FE JUMPI PUSH0 DUP1 REVERT JUMPDEST POP PUSH2 0x219 PUSH1 0x4 DUP1 CALLDATASIZE SUB DUP2 ADD SWAP1 PUSH2 0x214 SWAP2 SWAP1 PUSH2 0x7DF JUMP JUMPDEST PUSH2 0x503 JUMP JUMPDEST STOP JUMPDEST CALLVALUE DUP1 ISZERO PUSH2 0x226 JUMPI PUSH0 DUP1 REVERT JUMPDEST POP PUSH2 0x22F PUSH2 0x591 JUMP JUMPDEST PUSH1 0x40 MLOAD PUSH2 0x23C SWAP2 SWAP1 PUSH2 0x8AB JUMP JUMPDEST PUSH1 0x40 MLOAD DUP1 SWAP2 SUB SWAP1 RETURN JUMPDEST PUSH2 0x25F PUSH1 0x4 DUP1 CALLDATASIZE SUB DUP2 ADD SWAP1 PUSH2 0x25A SWAP2 SWAP1 PUSH2 0xA00 JUMP JUMPDEST PUSH2 0x597 JUMP JUMPDEST STOP JUMPDEST CALLVALUE DUP1 ISZERO PUSH2 0x26C JUMPI PUSH0 DUP1 REVERT JUMPDEST POP PUSH2 0x275 PUSH2 0x662 JUMP JUMPDEST PUSH1 0x40 MLOAD PUSH2 0x282 SWAP2 SWAP1 PUSH2 0x87A JUMP JUMPDEST PUSH1 0x40 MLOAD DUP1 SWAP2 SUB SWAP1 RETURN JUMPDEST CALLVALUE DUP1 ISZERO PUSH2 0x296 JUMPI PUSH0 DUP1 REVERT JUMPDEST POP PUSH2 0x29F PUSH2 0x674 JUMP JUMPDEST PUSH1 0x40 MLOAD PUSH2 0x2AC SWAP2 SWAP1 PUSH2 0x87A JUMP JUMPDEST PUSH1 0x40 MLOAD DUP1 SWAP2 SUB SWAP1 RETURN JUMPDEST PUSH0 DUP1 SLOAD SWAP1 PUSH2 0x100 EXP SWAP1 DIV PUSH1 0xFF AND DUP2 JUMP JUMPDEST DUP1 PUSH0 DUP1 PUSH2 0x100 EXP DUP2 SLOAD DUP2 PUSH1 0xFF MUL NOT AND SWAP1 DUP4 PUSH1 0x5 DUP2 GT ISZERO PUSH2 0x2E8 JUMPI PUSH2 0x2E7 PUSH2 0x71F JUMP JUMPDEST JUMPDEST MUL OR SWAP1 SSTORE POP POP JUMP JUMPDEST PUSH0 CALLER SWAP1 POP DUP1 PUSH20 0xFFFFFFFFFFFFFFFFFFFFFFFFFFFFFFFFFFFFFFFF AND PUSH2 0x8FC SELFBALANCE SWAP1 DUP2 ISZERO MUL SWAP1 PUSH1 0x40 MLOAD PUSH0 PUSH1 0x40 MLOAD DUP1 DUP4 SUB DUP2 DUP6 DUP9 DUP9 CALL SWAP4 POP POP POP POP ISZERO DUP1 ISZERO PUSH2 0x337 JUMPI RETURNDATASIZE PUSH0 DUP1 RETURNDATACOPY RETURNDATASIZE PUSH0 REVERT JUMPDEST POP POP JUMP JUMPDEST PUSH0 DUP2 PUSH1 0x19 PUSH1 0x5 DUP3 PUSH2 0x34C SWAP2 SWAP1 PUSH2 0xB90 JUMP JUMPDEST PUSH1 0xFF AND LT PUSH2 0x38F JUMPI PUSH1 0x40 MLOAD PUSH32 0x8C379A000000000000000000000000000000000000000000000000000000000 DUP2 MSTORE PUSH1 0x4 ADD PUSH2 0x386 SWAP1 PUSH2 0xC0E JUMP JUMPDEST PUSH1 0x40 MLOAD DUP1 SWAP2 SUB SWAP1 REVERT JUMPDEST PUSH1 0x5 DUP4 PUSH2 0x39C SWAP2 SWAP1 PUSH2 0xB90 JUMP JUMPDEST PUSH1 0x2 PUSH0 PUSH2 0x100 EXP DUP2 SLOAD DUP2 PUSH1 0xFF MUL NOT AND SWAP1 DUP4 PUSH1 0xFF AND MUL OR SWAP1 SSTORE POP PUSH1 0x2 PUSH0 SWAP1 SLOAD SWAP1 PUSH2 0x100 EXP SWAP1 DIV PUSH1 0xFF AND SWAP2 POP POP SWAP2 SWAP1 POP JUMP JUMPDEST PUSH1 0x1 SLOAD DUP2 JUMP JUMPDEST PUSH0 PUSH1 0x3 DUP3 PUSH1 0x40 MLOAD PUSH2 0x3E3 SWAP2 SWAP1 PUSH2 0xC66 JUMP JUMPDEST SWAP1 DUP2 MSTORE PUSH1 0x20 ADD PUSH1 0x40 MLOAD DUP1 SWAP2 SUB SWAP1 KECCAK256 PUSH0 ADD PUSH0 SWAP1 SLOAD SWAP1 PUSH2 0x100 EXP SWAP1 DIV PUSH20 0xFFFFFFFFFFFFFFFFFFFFFFFFFFFFFFFFFFFFFFFF AND SWAP1 POP SWAP2 SWAP1 POP JUMP JUMPDEST PUSH1 0x3 DUP2 DUP1 MLOAD PUSH1 0x20 DUP2 ADD DUP3 ADD DUP1 MLOAD DUP5 DUP3 MSTORE PUSH1 0x20 DUP4 ADD PUSH1 0x20 DUP6 ADD KECCAK256 DUP2 DUP4 MSTORE DUP1 SWAP6 POP POP POP POP POP POP PUSH0 SWAP2 POP SWAP1 POP DUP1 PUSH0 ADD PUSH0 SWAP1 SLOAD SWAP1 PUSH2 0x100 EXP SWAP1 DIV PUSH20 0xFFFFFFFFFFFFFFFFFFFFFFFFFFFFFFFFFFFFFFFF AND SWAP1 DUP1 PUSH1 0x1 ADD SLOAD SWAP1 DUP1 PUSH1 0x2 ADD SLOAD SWAP1 DUP1 PUSH1 0x3 ADD DUP1 SLOAD PUSH2 0x482 SWAP1 PUSH2 0xCA9 JUMP JUMPDEST DUP1 PUSH1 0x1F ADD PUSH1 0x20 DUP1 SWAP2 DIV MUL PUSH1 0x20 ADD PUSH1 0x40 MLOAD SWAP1 DUP2 ADD PUSH1 0x40 MSTORE DUP1 SWAP3 SWAP2 SWAP1 DUP2 DUP2 MSTORE PUSH1 0x20 ADD DUP3 DUP1 SLOAD PUSH2 0x4AE SWAP1 PUSH2 0xCA9 JUMP JUMPDEST DUP1 ISZERO PUSH2 0x4F9 JUMPI DUP1 PUSH1 0x1F LT PUSH2 0x4D0 JUMPI PUSH2 0x100 DUP1 DUP4 SLOAD DIV MUL DUP4 MSTORE SWAP2 PUSH1 0x20 ADD SWAP2 PUSH2 0x4F9 JUMP JUMPDEST DUP3 ADD SWAP2 SWAP1 PUSH0 MSTORE PUSH1 0x20 PUSH0 KECCAK256 SWAP1 JUMPDEST DUP2 SLOAD DUP2 MSTORE SWAP1 PUSH1 0x1 ADD SWAP1 PUSH1 0x20 ADD DUP1 DUP4 GT PUSH2 0x4DC JUMPI DUP3 SWAP1 SUB PUSH1 0x1F AND DUP3 ADD SWAP2 JUMPDEST POP POP POP POP POP SWAP1 POP DUP5 JUMP JUMPDEST DUP1 PUSH0 DUP1 SLOAD SWAP1 PUSH2 0x100 EXP SWAP1 DIV PUSH1 0xFF AND PUSH1 0x5 DUP2 GT ISZERO PUSH2 0x523 JUMPI PUSH2 0x522 PUSH2 0x71F JUMP JUMPDEST JUMPDEST DUP2 PUSH1 0x5 DUP2 GT ISZERO PUSH2 0x536 JUMPI PUSH2 0x535 PUSH2 0x71F JUMP JUMPDEST JUMPDEST EQ PUSH2 0x576 JUMPI PUSH1 0x40 MLOAD PUSH32 0x8C379A000000000000000000000000000000000000000000000000000000000 DUP2 MSTORE PUSH1 0x4 ADD PUSH2 0x56D SWAP1 PUSH2 0xD23 JUMP JUMPDEST PUSH1 0x40 MLOAD DUP1 SWAP2 SUB SWAP1 REVERT JUMPDEST PUSH1 0x1 PUSH0 DUP2 SLOAD DUP1 SWAP3 SWAP2 SWAP1 PUSH2 0x588 SWAP1 PUSH2 0xD41 JUMP JUMPDEST SWAP2 SWAP1 POP SSTORE POP POP POP JUMP JUMPDEST PUSH1 0x4 SLOAD DUP2 JUMP JUMPDEST PUSH1 0x40 MLOAD DUP1 PUSH1 0x80 ADD PUSH1 0x40 MSTORE DUP1 CALLER PUSH20 0xFFFFFFFFFFFFFFFFFFFFFFFFFFFFFFFFFFFFFFFF AND DUP2 MSTORE PUSH1 0x20 ADD TIMESTAMP DUP2 MSTORE PUSH1 0x20 ADD PUSH1 0x4 SLOAD DUP2 MSTORE PUSH1 0x20 ADD DUP3 DUP2 MSTORE POP PUSH1 0x3 DUP3 PUSH1 0x40 MLOAD PUSH2 0x5E0 SWAP2 SWAP1 PUSH2 0xC66 JUMP JUMPDEST SWAP1 DUP2 MSTORE PUSH1 0x20 ADD PUSH1 0x40 MLOAD DUP1 SWAP2 SUB SWAP1 KECCAK256 PUSH0 DUP3 ADD MLOAD DUP2 PUSH0 ADD PUSH0 PUSH2 0x100 EXP DUP2 SLOAD DUP2 PUSH20 0xFFFFFFFFFFFFFFFFFFFFFFFFFFFFFFFFFFFFFFFF MUL NOT AND SWAP1 DUP4 PUSH20 0xFFFFFFFFFFFFFFFFFFFFFFFFFFFFFFFFFFFFFFFF AND MUL OR SWAP1 SSTORE POP PUSH1 0x20 DUP3 ADD MLOAD DUP2 PUSH1 0x1 ADD SSTORE PUSH1 0x40 DUP3 ADD MLOAD DUP2 PUSH1 0x2 ADD SSTORE PUSH1 0x60 DUP3 ADD MLOAD DUP2 PUSH1 0x3 ADD SWAP1 DUP2 PUSH2 0x65B SWAP2 SWAP1 PUSH2 0xF25 JUMP JUMPDEST POP SWAP1 POP POP POP JUMP JUMPDEST PUSH1 0x2 PUSH0 SWAP1 SLOAD SWAP1 PUSH2 0x100 EXP SWAP1 DIV PUSH1 0xFF AND DUP2 JUMP JUMPDEST PUSH0 PUSH1 0x19 PUSH1 0x1 PUSH1 0x2 PUSH0 SWAP1 SLOAD SWAP1 PUSH2 0x100 EXP SWAP1 DIV PUSH1 0xFF AND PUSH2 0x692 SWAP2 SWAP1 PUSH2 0xB90 JUMP JUMPDEST PUSH1 0xFF AND LT PUSH2 0x6D5 JUMPI PUSH1 0x40 MLOAD PUSH32 0x8C379A000000000000000000000000000000000000000000000000000000000 DUP2 MSTORE PUSH1 0x4 ADD PUSH2 0x6CC SWAP1 PUSH2 0xC0E JUMP JUMPDEST PUSH1 0x40 MLOAD DUP1 SWAP2 SUB SWAP1 REVERT JUMPDEST PUSH1 0x1 PUSH1 0x2 PUSH0 DUP3 DUP3 DUP3 SWAP1 SLOAD SWAP1 PUSH2 0x100 EXP SWAP1 DIV PUSH1 0xFF AND PUSH2 0x6F3 SWAP2 SWAP1 PUSH2 0xB90 JUMP JUMPDEST SWAP3 POP PUSH2 0x100 EXP DUP2 SLOAD DUP2 PUSH1 0xFF MUL NOT AND SWAP1 DUP4 PUSH1 0xFF AND MUL OR SWAP1 SSTORE POP PUSH1 0x2 PUSH0 SWAP1 SLOAD SWAP1 PUSH2 0x100 EXP SWAP1 DIV PUSH1 0xFF AND SWAP1 POP SWAP1 JUMP JUMPDEST PUSH32 0x4E487B7100000000000000000000000000000000000000000000000000000000 PUSH0 MSTORE PUSH1 0x21 PUSH1 0x4 MSTORE PUSH1 0x24 PUSH0 REVERT JUMPDEST PUSH1 0x6 DUP2 LT PUSH2 0x75D JUMPI PUSH2 0x75C PUSH2 0x71F JUMP JUMPDEST JUMPDEST POP JUMP JUMPDEST PUSH0 DUP2 SWAP1 POP PUSH2 0x76D DUP3 PUSH2 0x74C JUMP JUMPDEST SWAP2 SWAP1 POP JUMP JUMPDEST PUSH0 PUSH2 0x77C DUP3 PUSH2 0x760 JUMP JUMPDEST SWAP1 POP SWAP2 SWAP1 POP JUMP JUMPDEST PUSH2 0x78C DUP2 PUSH2 0x772 JUMP JUMPDEST DUP3 MSTORE POP POP JUMP JUMPDEST PUSH0 PUSH1 0x20 DUP3 ADD SWAP1 POP PUSH2 0x7A5 PUSH0 DUP4 ADD DUP5 PUSH2 0x783 JUMP JUMPDEST SWAP3 SWAP2 POP POP JUMP JUMPDEST PUSH0 PUSH1 0x40 MLOAD SWAP1 POP SWAP1 JUMP JUMPDEST PUSH0 DUP1 REVERT JUMPDEST PUSH0 DUP1 REVERT JUMPDEST PUSH1 0x6 DUP2 LT PUSH2 0x7C8 JUMPI PUSH0 DUP1 REVERT JUMPDEST POP JUMP JUMPDEST PUSH0 DUP2 CALLDATALOAD SWAP1 POP PUSH2 0x7D9 DUP2 PUSH2 0x7BC JUMP JUMPDEST SWAP3 SWAP2 POP POP JUMP JUMPDEST PUSH0 PUSH1 0x20 DUP3 DUP5 SUB SLT ISZERO PUSH2 0x7F4 JUMPI PUSH2 0x7F3 PUSH2 0x7B4 JUMP JUMPDEST JUMPDEST PUSH0 PUSH2 0x801 DUP5 DUP3 DUP6 ADD PUSH2 0x7CB JUMP JUMPDEST SWAP2 POP POP SWAP3 SWAP2 POP POP JUMP JUMPDEST PUSH0 PUSH1 0xFF DUP3 AND SWAP1 POP SWAP2 SWAP1 POP JUMP JUMPDEST PUSH2 0x81F DUP2 PUSH2 0x80A JUMP JUMPDEST DUP2 EQ PUSH2 0x829 JUMPI PUSH0 DUP1 REVERT JUMPDEST POP JUMP JUMPDEST PUSH0 DUP2 CALLDATALOAD SWAP1 POP PUSH2 0x83A DUP2 PUSH2 0x816 JUMP JUMPDEST SWAP3 SWAP2 POP POP JUMP JUMPDEST PUSH0 PUSH1 0x20 DUP3 DUP5 SUB SLT ISZERO PUSH2 0x855 JUMPI PUSH2 0x854 PUSH2 0x7B4 JUMP JUMPDEST JUMPDEST PUSH0 PUSH2 0x862 DUP5 DUP3 DUP6 ADD PUSH2 0x82C JUMP JUMPDEST SWAP2 POP POP SWAP3 SWAP2 POP POP JUMP JUMPDEST PUSH2 0x874 DUP2 PUSH2 0x80A JUMP JUMPDEST DUP3 MSTORE POP POP JUMP JUMPDEST PUSH0 PUSH1 0x20 DUP3 ADD SWAP1 POP PUSH2 0x88D PUSH0 DUP4 ADD DUP5 PUSH2 0x86B JUMP JUMPDEST SWAP3 SWAP2 POP POP JUMP JUMPDEST PUSH0 DUP2 SWAP1 POP SWAP2 SWAP1 POP JUMP JUMPDEST PUSH2 0x8A5 DUP2 PUSH2 0x893 JUMP JUMPDEST DUP3 MSTORE POP POP JUMP JUMPDEST PUSH0 PUSH1 0x20 DUP3 ADD SWAP1 POP PUSH2 0x8BE PUSH0 DUP4 ADD DUP5 PUSH2 0x89C JUMP JUMPDEST SWAP3 SWAP2 POP POP JUMP JUMPDEST PUSH0 DUP1 REVERT JUMPDEST PUSH0 DUP1 REVERT JUMPDEST PUSH0 PUSH1 0x1F NOT PUSH1 0x1F DUP4 ADD AND SWAP1 POP SWAP2 SWAP1 POP JUMP JUMPDEST PUSH32 0x4E487B7100000000000000000000000000000000000000000000000000000000 PUSH0 MSTORE PUSH1 0x41 PUSH1 0x4 MSTORE PUSH1 0x24 PUSH0 REVERT JUMPDEST PUSH2 0x912 DUP3 PUSH2 0x8CC JUMP JUMPDEST DUP2 ADD DUP2 DUP2 LT PUSH8 0xFFFFFFFFFFFFFFFF DUP3 GT OR ISZERO PUSH2 0x931 JUMPI PUSH2 0x930 PUSH2 0x8DC JUMP JUMPDEST JUMPDEST DUP1 PUSH1 0x40 MSTORE POP POP POP JUMP JUMPDEST PUSH0 PUSH2 0x943 PUSH2 0x7AB JUMP JUMPDEST SWAP1 POP PUSH2 0x94F DUP3 DUP3 PUSH2 0x909 JUMP JUMPDEST SWAP2 SWAP1 POP JUMP JUMPDEST PUSH0 PUSH8 0xFFFFFFFFFFFFFFFF DUP3 GT ISZERO PUSH2 0x96E JUMPI PUSH2 0x96D PUSH2 0x8DC JUMP JUMPDEST JUMPDEST PUSH2 0x977 DUP3 PUSH2 0x8CC JUMP JUMPDEST SWAP1 POP PUSH1 0x20 DUP2 ADD SWAP1 POP SWAP2 SWAP1 POP JUMP JUMPDEST DUP3 DUP2 DUP4 CALLDATACOPY PUSH0 DUP4 DUP4 ADD MSTORE POP POP POP JUMP JUMPDEST PUSH0 PUSH2 0x9A4 PUSH2 0x99F DUP5 PUSH2 0x954 JUMP JUMPDEST PUSH2 0x93A JUMP JUMPDEST SWAP1 POP DUP3 DUP2 MSTORE PUSH1 0x20 DUP2 ADD DUP5 DUP5 DUP5 ADD GT ISZERO PUSH2 0x9C0 JUMPI PUSH2 0x9BF PUSH2 0x8C8 JUMP JUMPDEST JUMPDEST PUSH2 0x9CB DUP5 DUP3 DUP6 PUSH2 0x984 JUMP JUMPDEST POP SWAP4 SWAP3 POP POP POP JUMP JUMPDEST PUSH0 DUP3 PUSH1 0x1F DUP4 ADD SLT PUSH2 0x9E7 JUMPI PUSH2 0x9E6 PUSH2 0x8C4 JUMP JUMPDEST JUMPDEST DUP2 CALLDATALOAD PUSH2 0x9F7 DUP5 DUP3 PUSH1 0x20 DUP7 ADD PUSH2 0x992 JUMP JUMPDEST SWAP2 POP POP SWAP3 SWAP2 POP POP JUMP JUMPDEST PUSH0 PUSH1 0x20 DUP3 DUP5 SUB SLT ISZERO PUSH2 0xA15 JUMPI PUSH2 0xA14 PUSH2 0x7B4 JUMP JUMPDEST JUMPDEST PUSH0 DUP3 ADD CALLDATALOAD PUSH8 0xFFFFFFFFFFFFFFFF DUP2 GT ISZERO PUSH2 0xA32 JUMPI PUSH2 0xA31 PUSH2 0x7B8 JUMP JUMPDEST JUMPDEST PUSH2 0xA3E DUP5 DUP3 DUP6 ADD PUSH2 0x9D3 JUMP JUMPDEST SWAP2 POP POP SWAP3 SWAP2 POP POP JUMP JUMPDEST PUSH0 PUSH20 0xFFFFFFFFFFFFFFFFFFFFFFFFFFFFFFFFFFFFFFFF DUP3 AND SWAP1 POP SWAP2 SWAP1 POP JUMP JUMPDEST PUSH0 PUSH2 0xA70 DUP3 PUSH2 0xA47 JUMP JUMPDEST SWAP1 POP SWAP2 SWAP1 POP JUMP JUMPDEST PUSH2 0xA80 DUP2 PUSH2 0xA66 JUMP JUMPDEST DUP3 MSTORE POP POP JUMP JUMPDEST PUSH0 PUSH1 0x20 DUP3 ADD SWAP1 POP PUSH2 0xA99 PUSH0 DUP4 ADD DUP5 PUSH2 0xA77 JUMP JUMPDEST SWAP3 SWAP2 POP POP JUMP JUMPDEST PUSH0 DUP2 MLOAD SWAP1 POP SWAP2 SWAP1 POP JUMP JUMPDEST PUSH0 DUP3 DUP3 MSTORE PUSH1 0x20 DUP3 ADD SWAP1 POP SWAP3 SWAP2 POP POP JUMP JUMPDEST PUSH0 JUMPDEST DUP4 DUP2 LT ISZERO PUSH2 0xAD6 JUMPI DUP1 DUP3 ADD MLOAD DUP2 DUP5 ADD MSTORE PUSH1 0x20 DUP2 ADD SWAP1 POP PUSH2 0xABB JUMP JUMPDEST PUSH0 DUP5 DUP5 ADD MSTORE POP POP POP POP JUMP JUMPDEST PUSH0 PUSH2 0xAEB DUP3 PUSH2 0xA9F JUMP JUMPDEST PUSH2 0xAF5 DUP2 DUP6 PUSH2 0xAA9 JUMP JUMPDEST SWAP4 POP PUSH2 0xB05 DUP2 DUP6 PUSH1 0x20 DUP7 ADD PUSH2 0xAB9 JUMP JUMPDEST PUSH2 0xB0E DUP2 PUSH2 0x8CC JUMP JUMPDEST DUP5 ADD SWAP2 POP POP SWAP3 SWAP2 POP POP JUMP JUMPDEST PUSH0 PUSH1 0x80 DUP3 ADD SWAP1 POP PUSH2 0xB2C PUSH0 DUP4 ADD DUP8 PUSH2 0xA77 JUMP JUMPDEST PUSH2 0xB39 PUSH1 0x20 DUP4 ADD DUP7 PUSH2 0x89C JUMP JUMPDEST PUSH2 0xB46 PUSH1 0x40 DUP4 ADD DUP6 PUSH2 0x89C JUMP JUMPDEST DUP2 DUP2 SUB PUSH1 0x60 DUP4 ADD MSTORE PUSH2 0xB58 DUP2 DUP5 PUSH2 0xAE1 JUMP JUMPDEST SWAP1 POP SWAP6 SWAP5 POP POP POP POP POP JUMP JUMPDEST PUSH32 0x4E487B7100000000000000000000000000000000000000000000000000000000 PUSH0 MSTORE PUSH1 0x11 PUSH1 0x4 MSTORE PUSH1 0x24 PUSH0 REVERT JUMPDEST PUSH0 PUSH2 0xB9A DUP3 PUSH2 0x80A JUMP JUMPDEST SWAP2 POP PUSH2 0xBA5 DUP4 PUSH2 0x80A JUMP JUMPDEST SWAP3 POP DUP3 DUP3 ADD SWAP1 POP PUSH1 0xFF DUP2 GT ISZERO PUSH2 0xBBE JUMPI PUSH2 0xBBD PUSH2 0xB63 JUMP JUMPDEST JUMPDEST SWAP3 SWAP2 POP POP JUMP JUMPDEST PUSH32 0x4F766572666C6F77000000000000000000000000000000000000000000000000 PUSH0 DUP3 ADD MSTORE POP JUMP JUMPDEST PUSH0 PUSH2 0xBF8 PUSH1 0x8 DUP4 PUSH2 0xAA9 JUMP JUMPDEST SWAP2 POP PUSH2 0xC03 DUP3 PUSH2 0xBC4 JUMP JUMPDEST PUSH1 0x20 DUP3 ADD SWAP1 POP SWAP2 SWAP1 POP JUMP JUMPDEST PUSH0 PUSH1 0x20 DUP3 ADD SWAP1 POP DUP2 DUP2 SUB PUSH0 DUP4 ADD MSTORE PUSH2 0xC25 DUP2 PUSH2 0xBEC JUMP JUMPDEST SWAP1 POP SWAP2 SWAP1 POP JUMP JUMPDEST PUSH0 DUP2 SWAP1 POP SWAP3 SWAP2 POP POP JUMP JUMPDEST PUSH0 PUSH2 0xC40 DUP3 PUSH2 0xA9F JUMP JUMPDEST PUSH2 0xC4A DUP2 DUP6 PUSH2 0xC2C JUMP JUMPDEST SWAP4 POP PUSH2 0xC5A DUP2 DUP6 PUSH1 0x20 DUP7 ADD PUSH2 0xAB9 JUMP JUMPDEST DUP1 DUP5 ADD SWAP2 POP POP SWAP3 SWAP2 POP POP JUMP JUMPDEST PUSH0 PUSH2 0xC71 DUP3 DUP5 PUSH2 0xC36 JUMP JUMPDEST SWAP2 POP DUP2 SWAP1 POP SWAP3 SWAP2 POP POP JUMP JUMPDEST PUSH32 0x4E487B7100000000000000000000000000000000000000000000000000000000 PUSH0 MSTORE PUSH1 0x22 PUSH1 0x4 MSTORE PUSH1 0x24 PUSH0 REVERT JUMPDEST PUSH0 PUSH1 0x2 DUP3 DIV SWAP1 POP PUSH1 0x1 DUP3 AND DUP1 PUSH2 0xCC0 JUMPI PUSH1 0x7F DUP3 AND SWAP2 POP JUMPDEST PUSH1 0x20 DUP3 LT DUP2 SUB PUSH2 0xCD3 JUMPI PUSH2 0xCD2 PUSH2 0xC7C JUMP JUMPDEST JUMPDEST POP SWAP2 SWAP1 POP JUMP JUMPDEST PUSH32 0x57726F6E67204D6F6F6421000000000000000000000000000000000000000000 PUSH0 DUP3 ADD MSTORE POP JUMP JUMPDEST PUSH0 PUSH2 0xD0D PUSH1 0xB DUP4 PUSH2 0xAA9 JUMP JUMPDEST SWAP2 POP PUSH2 0xD18 DUP3 PUSH2 0xCD9 JUMP JUMPDEST PUSH1 0x20 DUP3 ADD SWAP1 POP SWAP2 SWAP1 POP JUMP JUMPDEST PUSH0 PUSH1 0x20 DUP3 ADD SWAP1 POP DUP2 DUP2 SUB PUSH0 DUP4 ADD MSTORE PUSH2 0xD3A DUP2 PUSH2 0xD01 JUMP JUMPDEST SWAP1 POP SWAP2 SWAP1 POP JUMP JUMPDEST PUSH0 PUSH2 0xD4B DUP3 PUSH2 0x893 JUMP JUMPDEST SWAP2 POP PUSH32 0xFFFFFFFFFFFFFFFFFFFFFFFFFFFFFFFFFFFFFFFFFFFFFFFFFFFFFFFFFFFFFFFF DUP3 SUB PUSH2 0xD7D JUMPI PUSH2 0xD7C PUSH2 0xB63 JUMP JUMPDEST JUMPDEST PUSH1 0x1 DUP3 ADD SWAP1 POP SWAP2 SWAP1 POP JUMP JUMPDEST PUSH0 DUP2 SWAP1 POP DUP2 PUSH0 MSTORE PUSH1 0x20 PUSH0 KECCAK256 SWAP1 POP SWAP2 SWAP1 POP JUMP JUMPDEST PUSH0 PUSH1 0x20 PUSH1 0x1F DUP4 ADD DIV SWAP1 POP SWAP2 SWAP1 POP JUMP JUMPDEST PUSH0 DUP3 DUP3 SHL SWAP1 POP SWAP3 SWAP2 POP POP JUMP JUMPDEST PUSH0 PUSH1 0x8 DUP4 MUL PUSH2 0xDE4 PUSH32 0xFFFFFFFFFFFFFFFFFFFFFFFFFFFFFFFFFFFFFFFFFFFFFFFFFFFFFFFFFFFFFFFF DUP3 PUSH2 0xDA9 JUMP JUMPDEST PUSH2 0xDEE DUP7 DUP4 PUSH2 0xDA9 JUMP JUMPDEST SWAP6 POP DUP1 NOT DUP5 AND SWAP4 POP DUP1 DUP7 AND DUP5 OR SWAP3 POP POP POP SWAP4 SWAP3 POP POP POP JUMP JUMPDEST PUSH0 DUP2 SWAP1 POP SWAP2 SWAP1 POP JUMP JUMPDEST PUSH0 PUSH2 0xE29 PUSH2 0xE24 PUSH2 0xE1F DUP5 PUSH2 0x893 JUMP JUMPDEST PUSH2 0xE06 JUMP JUMPDEST PUSH2 0x893 JUMP JUMPDEST SWAP1 POP SWAP2 SWAP1 POP JUMP JUMPDEST PUSH0 DUP2 SWAP1 POP SWAP2 SWAP1 POP JUMP JUMPDEST PUSH2 0xE42 DUP4 PUSH2 0xE0F JUMP JUMPDEST PUSH2 0xE56 PUSH2 0xE4E DUP3 PUSH2 0xE30 JUMP JUMPDEST DUP5 DUP5 SLOAD PUSH2 0xDB5 JUMP JUMPDEST DUP3 SSTORE POP POP POP POP JUMP JUMPDEST PUSH0 SWAP1 JUMP JUMPDEST PUSH2 0xE6A PUSH2 0xE5E JUMP JUMPDEST PUSH2 0xE75 DUP2 DUP5 DUP5 PUSH2 0xE39 JUMP JUMPDEST POP POP POP JUMP JUMPDEST JUMPDEST DUP2 DUP2 LT ISZERO PUSH2 0xE98 JUMPI PUSH2 0xE8D PUSH0 DUP3 PUSH2 0xE62 JUMP JUMPDEST PUSH1 0x1 DUP2 ADD SWAP1 POP PUSH2 0xE7B JUMP JUMPDEST POP POP JUMP JUMPDEST PUSH1 0x1F DUP3 GT ISZERO PUSH2 0xEDD JUMPI PUSH2 0xEAE DUP2 PUSH2 0xD88 JUMP JUMPDEST PUSH2 0xEB7 DUP5 PUSH2 0xD9A JUMP JUMPDEST DUP2 ADD PUSH1 0x20 DUP6 LT ISZERO PUSH2 0xEC6 JUMPI DUP2 SWAP1 POP JUMPDEST PUSH2 0xEDA PUSH2 0xED2 DUP6 PUSH2 0xD9A JUMP JUMPDEST DUP4 ADD DUP3 PUSH2 0xE7A JUMP JUMPDEST POP POP JUMPDEST POP POP POP JUMP JUMPDEST PUSH0 DUP3 DUP3 SHR SWAP1 POP SWAP3 SWAP2 POP POP JUMP JUMPDEST PUSH0 PUSH2 0xEFD PUSH0 NOT DUP5 PUSH1 0x8 MUL PUSH2 0xEE2 JUMP JUMPDEST NOT DUP1 DUP4 AND SWAP2 POP POP SWAP3 SWAP2 POP POP JUMP JUMPDEST PUSH0 PUSH2 0xF15 DUP4 DUP4 PUSH2 0xEEE JUMP JUMPDEST SWAP2 POP DUP3 PUSH1 0x2 MUL DUP3 OR SWAP1 POP SWAP3 SWAP2 POP POP JUMP JUMPDEST PUSH2 0xF2E DUP3 PUSH2 0xA9F JUMP JUMPDEST PUSH8 0xFFFFFFFFFFFFFFFF DUP2 GT ISZERO PUSH2 0xF47 JUMPI PUSH2 0xF46 PUSH2 0x8DC JUMP JUMPDEST JUMPDEST PUSH2 0xF51 DUP3 SLOAD PUSH2 0xCA9 JUMP JUMPDEST PUSH2 0xF5C DUP3 DUP3 DUP6 PUSH2 0xE9C JUMP JUMPDEST PUSH0 PUSH1 0x20 SWAP1 POP PUSH1 0x1F DUP4 GT PUSH1 0x1 DUP2 EQ PUSH2 0xF8D JUMPI PUSH0 DUP5 ISZERO PUSH2 0xF7B JUMPI DUP3 DUP8 ADD MLOAD SWAP1 POP JUMPDEST PUSH2 0xF85 DUP6 DUP3 PUSH2 0xF0A JUMP JUMPDEST DUP7 SSTORE POP PUSH2 0xFEC JUMP JUMPDEST PUSH1 0x1F NOT DUP5 AND PUSH2 0xF9B DUP7 PUSH2 0xD88 JUMP JUMPDEST PUSH0 JUMPDEST DUP3 DUP2 LT ISZERO PUSH2 0xFC2 JUMPI DUP5 DUP10 ADD MLOAD DUP3 SSTORE PUSH1 0x1 DUP3 ADD SWAP2 POP PUSH1 0x20 DUP6 ADD SWAP5 POP PUSH1 0x20 DUP2 ADD SWAP1 POP PUSH2 0xF9D JUMP JUMPDEST DUP7 DUP4 LT ISZERO PUSH2 0xFDF JUMPI DUP5 DUP10 ADD MLOAD PUSH2 0xFDB PUSH1 0x1F DUP10 AND DUP3 PUSH2 0xEEE JUMP JUMPDEST DUP4 SSTORE POP JUMPDEST PUSH1 0x1 PUSH1 0x2 DUP9 MUL ADD DUP9 SSTORE POP POP POP JUMPDEST POP POP POP POP POP POP JUMP INVALID LOG2 PUSH5 0x6970667358 0x22 SLT KECCAK256 0x4B 0xD1 CALLDATACOPY 0x21 GT MUL 0x1E PUSH19 0xE7B4C967AFA348A63C7A2E4785C427F27E27C2 DIV 0x27 MOD SELFDESTRUCT DUP12 PUSH5 0x736F6C6343 STOP ADDMOD AND STOP CALLER "
				},
				"gasEstimates": {
					"creation": {
						"codeDepositCost": "827600",
						"executionCost": "22968",
						"totalCost": "850568"
					},
					"external": {
						"counter()": "2514",
						"counters()": "infinite",
						"counters(uint8)": "infinite",
						"currentMood()": "2552",
						"domain(string)": "infinite",
						"fees()": "2469",
						"newNum()": "2554",
						"registerDomain(string)": "infinite",
						"returnAddress(string)": "infinite",
						"setMood(uint8)": "24668",
						"someAction(uint8)": "26947",
						"withdrawFunds()": "infinite"
					}
				},
				"methodIdentifiers": {
					"counter()": "61bc221a",
					"counters()": "f7210633",
					"counters(uint8)": "2b480955",
					"currentMood()": "0616cca0",
					"domain(string)": "7f109dd3",
					"fees()": "9af1d35a",
					"newNum()": "e29710fe",
					"registerDomain(string)": "a5cad08a",
					"returnAddress(string)": "68b64d1f",
					"setMood(uint8)": "0c8d6d51",
					"someAction(uint8)": "95e9af03",
					"withdrawFunds()": "24600fc3"
				}
			},
			"storageLayout": {
				"storage": [
					{
						"astId": 11,
						"contract": "test.sol:Moods",
						"label": "currentMood",
						"offset": 0,
						"slot": "0",
						"type": "t_enum(Mood)8"
					},
					{
						"astId": 13,
						"contract": "test.sol:Moods",
						"label": "counter",
						"offset": 0,
						"slot": "1",
						"type": "t_uint256"
					},
					{
						"astId": 53,
						"contract": "test.sol:Moods",
						"label": "newNum",
						"offset": 0,
						"slot": "2",
						"type": "t_uint8"
					},
					{
						"astId": 128,
						"contract": "test.sol:Moods",
						"label": "domain",
						"offset": 0,
						"slot": "3",
						"type": "t_mapping(t_string_memory_ptr,t_struct(DomainInfo)123_storage)"
					},
					{
						"astId": 131,
						"contract": "test.sol:Moods",
						"label": "fees",
						"offset": 0,
						"slot": "4",
						"type": "t_uint256"
					}
				],
				"types": {
					"t_address": {
						"encoding": "inplace",
						"label": "address",
						"numberOfBytes": "20"
					},
					"t_enum(Mood)8": {
						"encoding": "inplace",
						"label": "enum Moods.Mood",
						"numberOfBytes": "1"
					},
					"t_mapping(t_string_memory_ptr,t_struct(DomainInfo)123_storage)": {
						"encoding": "mapping",
						"key": "t_string_memory_ptr",
						"label": "mapping(string => struct Moods.DomainInfo)",
						"numberOfBytes": "32",
						"value": "t_struct(DomainInfo)123_storage"
					},
					"t_string_memory_ptr": {
						"encoding": "bytes",
						"label": "string",
						"numberOfBytes": "32"
					},
					"t_string_storage": {
						"encoding": "bytes",
						"label": "string",
						"numberOfBytes": "32"
					},
					"t_struct(DomainInfo)123_storage": {
						"encoding": "inplace",
						"label": "struct Moods.DomainInfo",
						"members": [
							{
								"astId": 116,
								"contract": "test.sol:Moods",
								"label": "userAddress",
								"offset": 0,
								"slot": "0",
								"type": "t_address"
							},
							{
								"astId": 118,
								"contract": "test.sol:Moods",
								"label": "creationTime",
								"offset": 0,
								"slot": "1",
								"type": "t_uint256"
							},
							{
								"astId": 120,
								"contract": "test.sol:Moods",
								"label": "fee",
								"offset": 0,
								"slot": "2",
								"type": "t_uint256"
							},
							{
								"astId": 122,
								"contract": "test.sol:Moods",
								"label": "message",
								"offset": 0,
								"slot": "3",
								"type": "t_string_storage"
							}
						],
						"numberOfBytes": "128"
					},
					"t_uint256": {
						"encoding": "inplace",
						"label": "uint256",
						"numberOfBytes": "32"
					},
					"t_uint8": {
						"encoding": "inplace",
						"label": "uint8",
						"numberOfBytes": "1"
					}
				}
			},
			"userdoc": {
				"kind": "user",
				"methods": {},
				"version": 1
			}
		}
	}
}