{
	"Nik_MD_project2.sol": {
		"ENS": {
			"abi": [
				{
					"inputs": [],
					"stateMutability": "nonpayable",
					"type": "constructor"
				},
				{
					"inputs": [],
					"name": "cofficient",
					"outputs": [
						{
							"internalType": "uint8",
							"name": "",
							"type": "uint8"
						}
					],
					"stateMutability": "view",
					"type": "function"
				},
				{
					"inputs": [
						{
							"internalType": "string",
							"name": "",
							"type": "string"
						}
					],
					"name": "domain",
					"outputs": [
						{
							"internalType": "address",
							"name": "userAddress",
							"type": "address"
						},
						{
							"internalType": "uint256",
							"name": "creationTime",
							"type": "uint256"
						},
						{
							"internalType": "uint256",
							"name": "fee",
							"type": "uint256"
						},
						{
							"internalType": "string",
							"name": "message",
							"type": "string"
						},
						{
							"internalType": "uint8",
							"name": "year",
							"type": "uint8"
						}
					],
					"stateMutability": "view",
					"type": "function"
				},
				{
					"inputs": [],
					"name": "getBalance",
					"outputs": [
						{
							"internalType": "uint256",
							"name": "",
							"type": "uint256"
						}
					],
					"stateMutability": "view",
					"type": "function"
				},
				{
					"inputs": [
						{
							"internalType": "string",
							"name": "_input",
							"type": "string"
						},
						{
							"internalType": "uint8",
							"name": "_year",
							"type": "uint8"
						}
					],
					"name": "prolongateRent",
					"outputs": [],
					"stateMutability": "payable",
					"type": "function"
				},
				{
					"inputs": [],
					"name": "regCostYear",
					"outputs": [
						{
							"internalType": "uint256",
							"name": "",
							"type": "uint256"
						}
					],
					"stateMutability": "view",
					"type": "function"
				},
				{
					"inputs": [
						{
							"internalType": "string",
							"name": "_input",
							"type": "string"
						},
						{
							"internalType": "uint8",
							"name": "_year",
							"type": "uint8"
						}
					],
					"name": "registerDomain",
					"outputs": [],
					"stateMutability": "payable",
					"type": "function"
				},
				{
					"inputs": [
						{
							"internalType": "string",
							"name": "_input",
							"type": "string"
						}
					],
					"name": "returnAddress",
					"outputs": [
						{
							"internalType": "address",
							"name": "",
							"type": "address"
						}
					],
					"stateMutability": "view",
					"type": "function"
				},
				{
					"inputs": [
						{
							"internalType": "uint8",
							"name": "_newCofficient",
							"type": "uint8"
						}
					],
					"name": "setCofficient",
					"outputs": [],
					"stateMutability": "nonpayable",
					"type": "function"
				},
				{
					"inputs": [
						{
							"internalType": "uint256",
							"name": "_newRegCostYear",
							"type": "uint256"
						}
					],
					"name": "setRegCostYear",
					"outputs": [],
					"stateMutability": "nonpayable",
					"type": "function"
				},
				{
					"inputs": [],
					"name": "totalBalance",
					"outputs": [
						{
							"internalType": "uint256",
							"name": "",
							"type": "uint256"
						}
					],
					"stateMutability": "view",
					"type": "function"
				},
				{
					"inputs": [],
					"name": "withdrawFunds",
					"outputs": [],
					"stateMutability": "payable",
					"type": "function"
				}
			],
			"devdoc": {
				"kind": "dev",
				"methods": {},
				"version": 1
			},
			"evm": {
				"assembly": "    /* \"Nik_MD_project2.sol\":64:2624  contract ENS {... */\n  mstore(0x40, 0x80)\n    /* \"Nik_MD_project2.sol\":130:149  2000000000000000000 */\n  0x1bc16d674ec80000\n    /* \"Nik_MD_project2.sol\":104:149  uint public regCostYear = 2000000000000000000 */\n  0x01\n  sstore\n    /* \"Nik_MD_project2.sol\":182:183  2 */\n  0x02\n    /* \"Nik_MD_project2.sol\":156:183  uint8 public cofficient = 2 */\n  dup1\n  exp(0x0100, 0x00)\n  dup2\n  sload\n  dup2\n  0xff\n  mul\n  not\n  and\n  swap1\n  dup4\n  0xff\n  and\n  mul\n  or\n  swap1\n  sstore\n  pop\n    /* \"Nik_MD_project2.sol\":816:835  1000000000000000000 */\n  0x0de0b6b3a7640000\n    /* \"Nik_MD_project2.sol\":804:835  uint fees = 1000000000000000000 */\n  0x04\n  sstore\n    /* \"Nik_MD_project2.sol\":190:241  constructor() {... */\n  callvalue\n  dup1\n  iszero\n  tag_1\n  jumpi\n  0x00\n  dup1\n  revert\ntag_1:\n  pop\n    /* \"Nik_MD_project2.sol\":223:233  msg.sender */\n  caller\n    /* \"Nik_MD_project2.sol\":215:220  owner */\n  0x00\n  dup1\n    /* \"Nik_MD_project2.sol\":215:233  owner = msg.sender */\n  0x0100\n  exp\n  dup2\n  sload\n  dup2\n  0xffffffffffffffffffffffffffffffffffffffff\n  mul\n  not\n  and\n  swap1\n  dup4\n  0xffffffffffffffffffffffffffffffffffffffff\n  and\n  mul\n  or\n  swap1\n  sstore\n  pop\n    /* \"Nik_MD_project2.sol\":64:2624  contract ENS {... */\n  dataSize(sub_0)\n  dup1\n  dataOffset(sub_0)\n  0x00\n  codecopy\n  0x00\n  return\nstop\n\nsub_0: assembly {\n        /* \"Nik_MD_project2.sol\":64:2624  contract ENS {... */\n      mstore(0x40, 0x80)\n      jumpi(tag_1, lt(calldatasize, 0x04))\n      shr(0xe0, calldataload(0x00))\n      dup1\n      0x753afc6a\n      gt\n      tag_13\n      jumpi\n      dup1\n      0x753afc6a\n      eq\n      tag_7\n      jumpi\n      dup1\n      0x7f109dd3\n      eq\n      tag_8\n      jumpi\n      dup1\n      0x826dfcb9\n      eq\n      tag_9\n      jumpi\n      dup1\n      0x98ed94bc\n      eq\n      tag_10\n      jumpi\n      dup1\n      0xad7a672f\n      eq\n      tag_11\n      jumpi\n      dup1\n      0xeae7cddc\n      eq\n      tag_12\n      jumpi\n      jump(tag_1)\n    tag_13:\n      dup1\n      0x12065fe0\n      eq\n      tag_2\n      jumpi\n      dup1\n      0x24600fc3\n      eq\n      tag_3\n      jumpi\n      dup1\n      0x2cb594a0\n      eq\n      tag_4\n      jumpi\n      dup1\n      0x4b162f69\n      eq\n      tag_5\n      jumpi\n      dup1\n      0x68b64d1f\n      eq\n      tag_6\n      jumpi\n    tag_1:\n      0x00\n      dup1\n      revert\n        /* \"Nik_MD_project2.sol\":875:970  function getBalance() public view returns(uint) {... */\n    tag_2:\n      callvalue\n      dup1\n      iszero\n      tag_14\n      jumpi\n      0x00\n      dup1\n      revert\n    tag_14:\n      pop\n      tag_15\n      tag_16\n      jump\t// in\n    tag_15:\n      mload(0x40)\n      tag_17\n      swap2\n      swap1\n      tag_18\n      jump\t// in\n    tag_17:\n      mload(0x40)\n      dup1\n      swap2\n      sub\n      swap1\n      return\n        /* \"Nik_MD_project2.sol\":2431:2621  function withdrawFunds() public payable admin  {... */\n    tag_3:\n      tag_19\n      tag_20\n      jump\t// in\n    tag_19:\n      stop\n        /* \"Nik_MD_project2.sol\":156:183  uint8 public cofficient = 2 */\n    tag_4:\n      callvalue\n      dup1\n      iszero\n      tag_21\n      jumpi\n      0x00\n      dup1\n      revert\n    tag_21:\n      pop\n      tag_22\n      tag_23\n      jump\t// in\n    tag_22:\n      mload(0x40)\n      tag_24\n      swap2\n      swap1\n      tag_25\n      jump\t// in\n    tag_24:\n      mload(0x40)\n      dup1\n      swap2\n      sub\n      swap1\n      return\n        /* \"Nik_MD_project2.sol\":104:149  uint public regCostYear = 2000000000000000000 */\n    tag_5:\n      callvalue\n      dup1\n      iszero\n      tag_26\n      jumpi\n      0x00\n      dup1\n      revert\n    tag_26:\n      pop\n      tag_27\n      tag_28\n      jump\t// in\n    tag_27:\n      mload(0x40)\n      tag_29\n      swap2\n      swap1\n      tag_18\n      jump\t// in\n    tag_29:\n      mload(0x40)\n      dup1\n      swap2\n      sub\n      swap1\n      return\n        /* \"Nik_MD_project2.sol\":2292:2417  function returnAddress(string memory _input) public view returns(address){... */\n    tag_6:\n      callvalue\n      dup1\n      iszero\n      tag_30\n      jumpi\n      0x00\n      dup1\n      revert\n    tag_30:\n      pop\n      tag_31\n      0x04\n      dup1\n      calldatasize\n      sub\n      dup2\n      add\n      swap1\n      tag_32\n      swap2\n      swap1\n      tag_33\n      jump\t// in\n    tag_32:\n      tag_34\n      jump\t// in\n    tag_31:\n      mload(0x40)\n      tag_35\n      swap2\n      swap1\n      tag_36\n      jump\t// in\n    tag_35:\n      mload(0x40)\n      dup1\n      swap2\n      sub\n      swap1\n      return\n        /* \"Nik_MD_project2.sol\":985:1759  function registerDomain(string memory _input, uint8 _year) public payable  {... */\n    tag_7:\n      tag_37\n      0x04\n      dup1\n      calldatasize\n      sub\n      dup2\n      add\n      swap1\n      tag_38\n      swap2\n      swap1\n      tag_39\n      jump\t// in\n    tag_38:\n      tag_40\n      jump\t// in\n    tag_37:\n      stop\n        /* \"Nik_MD_project2.sol\":741:785  mapping(string => DomainInfo) public  domain */\n    tag_8:\n      callvalue\n      dup1\n      iszero\n      tag_41\n      jumpi\n      0x00\n      dup1\n      revert\n    tag_41:\n      pop\n      tag_42\n      0x04\n      dup1\n      calldatasize\n      sub\n      dup2\n      add\n      swap1\n      tag_43\n      swap2\n      swap1\n      tag_33\n      jump\t// in\n    tag_43:\n      tag_44\n      jump\t// in\n    tag_42:\n      mload(0x40)\n      tag_45\n      swap6\n      swap5\n      swap4\n      swap3\n      swap2\n      swap1\n      tag_46\n      jump\t// in\n    tag_45:\n      mload(0x40)\n      dup1\n      swap2\n      sub\n      swap1\n      return\n        /* \"Nik_MD_project2.sol\":357:464  function setRegCostYear(uint _newRegCostYear) public admin {... */\n    tag_9:\n      callvalue\n      dup1\n      iszero\n      tag_47\n      jumpi\n      0x00\n      dup1\n      revert\n    tag_47:\n      pop\n      tag_48\n      0x04\n      dup1\n      calldatasize\n      sub\n      dup2\n      add\n      swap1\n      tag_49\n      swap2\n      swap1\n      tag_50\n      jump\t// in\n    tag_49:\n      tag_51\n      jump\t// in\n    tag_48:\n      stop\n        /* \"Nik_MD_project2.sol\":1765:2282  function prolongateRent(string memory _input, uint8 _year) public payable  {... */\n    tag_10:\n      tag_52\n      0x04\n      dup1\n      calldatasize\n      sub\n      dup2\n      add\n      swap1\n      tag_53\n      swap2\n      swap1\n      tag_39\n      jump\t// in\n    tag_53:\n      tag_54\n      jump\t// in\n    tag_52:\n      stop\n        /* \"Nik_MD_project2.sol\":842:866  uint public totalBalance */\n    tag_11:\n      callvalue\n      dup1\n      iszero\n      tag_55\n      jumpi\n      0x00\n      dup1\n      revert\n    tag_55:\n      pop\n      tag_56\n      tag_57\n      jump\t// in\n    tag_56:\n      mload(0x40)\n      tag_58\n      swap2\n      swap1\n      tag_18\n      jump\t// in\n    tag_58:\n      mload(0x40)\n      dup1\n      swap2\n      sub\n      swap1\n      return\n        /* \"Nik_MD_project2.sol\":472:576  function setCofficient(uint8 _newCofficient) public admin {... */\n    tag_12:\n      callvalue\n      dup1\n      iszero\n      tag_59\n      jumpi\n      0x00\n      dup1\n      revert\n    tag_59:\n      pop\n      tag_60\n      0x04\n      dup1\n      calldatasize\n      sub\n      dup2\n      add\n      swap1\n      tag_61\n      swap2\n      swap1\n      tag_62\n      jump\t// in\n    tag_61:\n      tag_63\n      jump\t// in\n    tag_60:\n      stop\n        /* \"Nik_MD_project2.sol\":875:970  function getBalance() public view returns(uint) {... */\n    tag_16:\n        /* \"Nik_MD_project2.sol\":917:921  uint */\n      0x00\n        /* \"Nik_MD_project2.sol\":941:962  address(this).balance */\n      selfbalance\n        /* \"Nik_MD_project2.sol\":934:962  return address(this).balance */\n      swap1\n      pop\n        /* \"Nik_MD_project2.sol\":875:970  function getBalance() public view returns(uint) {... */\n      swap1\n      jump\t// out\n        /* \"Nik_MD_project2.sol\":2431:2621  function withdrawFunds() public payable admin  {... */\n    tag_20:\n        /* \"Nik_MD_project2.sol\":299:304  owner */\n      0x00\n      dup1\n      sload\n      swap1\n      0x0100\n      exp\n      swap1\n      div\n      0xffffffffffffffffffffffffffffffffffffffff\n      and\n        /* \"Nik_MD_project2.sol\":285:304  msg.sender == owner */\n      0xffffffffffffffffffffffffffffffffffffffff\n      and\n        /* \"Nik_MD_project2.sol\":285:295  msg.sender */\n      caller\n        /* \"Nik_MD_project2.sol\":285:304  msg.sender == owner */\n      0xffffffffffffffffffffffffffffffffffffffff\n      and\n      eq\n        /* \"Nik_MD_project2.sol\":277:329  require(msg.sender == owner, 'You are not a master') */\n      tag_66\n      jumpi\n      mload(0x40)\n      0x08c379a000000000000000000000000000000000000000000000000000000000\n      dup2\n      mstore\n      0x04\n      add\n      tag_67\n      swap1\n      tag_68\n      jump\t// in\n    tag_67:\n      mload(0x40)\n      dup1\n      swap2\n      sub\n      swap1\n      revert\n    tag_66:\n        /* \"Nik_MD_project2.sol\":2489:2513  address payable receiver */\n      0x00\n        /* \"Nik_MD_project2.sol\":2524:2534  msg.sender */\n      caller\n        /* \"Nik_MD_project2.sol\":2489:2535  address payable receiver = payable(msg.sender) */\n      swap1\n      pop\n        /* \"Nik_MD_project2.sol\":2546:2554  receiver */\n      dup1\n        /* \"Nik_MD_project2.sol\":2546:2563  receiver.transfer */\n      0xffffffffffffffffffffffffffffffffffffffff\n      and\n        /* \"Nik_MD_project2.sol\":2546:2586  receiver.transfer(address(this).balance) */\n      0x08fc\n        /* \"Nik_MD_project2.sol\":2564:2585  address(this).balance */\n      selfbalance\n        /* \"Nik_MD_project2.sol\":2546:2586  receiver.transfer(address(this).balance) */\n      swap1\n      dup2\n      iszero\n      mul\n      swap1\n      mload(0x40)\n      0x00\n      mload(0x40)\n      dup1\n      dup4\n      sub\n      dup2\n      dup6\n      dup9\n      dup9\n      call\n      swap4\n      pop\n      pop\n      pop\n      pop\n      iszero\n      dup1\n      iszero\n      tag_71\n      jumpi\n      returndatasize\n      0x00\n      dup1\n      returndatacopy\n      revert(0x00, returndatasize)\n    tag_71:\n      pop\n        /* \"Nik_MD_project2.sol\":2612:2613  0 */\n      0x00\n        /* \"Nik_MD_project2.sol\":2597:2609  totalBalance */\n      0x05\n        /* \"Nik_MD_project2.sol\":2597:2613  totalBalance = 0 */\n      dup2\n      swap1\n      sstore\n      pop\n        /* \"Nik_MD_project2.sol\":2478:2621  {... */\n      pop\n        /* \"Nik_MD_project2.sol\":2431:2621  function withdrawFunds() public payable admin  {... */\n      jump\t// out\n        /* \"Nik_MD_project2.sol\":156:183  uint8 public cofficient = 2 */\n    tag_23:\n      0x02\n      0x00\n      swap1\n      sload\n      swap1\n      0x0100\n      exp\n      swap1\n      div\n      0xff\n      and\n      dup2\n      jump\t// out\n        /* \"Nik_MD_project2.sol\":104:149  uint public regCostYear = 2000000000000000000 */\n    tag_28:\n      sload(0x01)\n      dup2\n      jump\t// out\n        /* \"Nik_MD_project2.sol\":2292:2417  function returnAddress(string memory _input) public view returns(address){... */\n    tag_34:\n        /* \"Nik_MD_project2.sol\":2357:2364  address */\n      0x00\n        /* \"Nik_MD_project2.sol\":2383:2389  domain */\n      0x03\n        /* \"Nik_MD_project2.sol\":2390:2396  _input */\n      dup3\n        /* \"Nik_MD_project2.sol\":2383:2397  domain[_input] */\n      mload(0x40)\n      tag_73\n      swap2\n      swap1\n      tag_74\n      jump\t// in\n    tag_73:\n      swap1\n      dup2\n      mstore\n      0x20\n      add\n      mload(0x40)\n      dup1\n      swap2\n      sub\n      swap1\n      keccak256\n        /* \"Nik_MD_project2.sol\":2383:2409  domain[_input].userAddress */\n      0x00\n      add\n      0x00\n      swap1\n      sload\n      swap1\n      0x0100\n      exp\n      swap1\n      div\n      0xffffffffffffffffffffffffffffffffffffffff\n      and\n        /* \"Nik_MD_project2.sol\":2376:2409  return domain[_input].userAddress */\n      swap1\n      pop\n        /* \"Nik_MD_project2.sol\":2292:2417  function returnAddress(string memory _input) public view returns(address){... */\n      swap2\n      swap1\n      pop\n      jump\t// out\n        /* \"Nik_MD_project2.sol\":985:1759  function registerDomain(string memory _input, uint8 _year) public payable  {... */\n    tag_40:\n        /* \"Nik_MD_project2.sol\":1117:1118  0 */\n      0x00\n        /* \"Nik_MD_project2.sol\":1079:1119  domain[_input].userAddress == address(0) */\n      0xffffffffffffffffffffffffffffffffffffffff\n      and\n        /* \"Nik_MD_project2.sol\":1079:1085  domain */\n      0x03\n        /* \"Nik_MD_project2.sol\":1086:1092  _input */\n      dup4\n        /* \"Nik_MD_project2.sol\":1079:1093  domain[_input] */\n      mload(0x40)\n      tag_76\n      swap2\n      swap1\n      tag_74\n      jump\t// in\n    tag_76:\n      swap1\n      dup2\n      mstore\n      0x20\n      add\n      mload(0x40)\n      dup1\n      swap2\n      sub\n      swap1\n      keccak256\n        /* \"Nik_MD_project2.sol\":1079:1105  domain[_input].userAddress */\n      0x00\n      add\n      0x00\n      swap1\n      sload\n      swap1\n      0x0100\n      exp\n      swap1\n      div\n      0xffffffffffffffffffffffffffffffffffffffff\n      and\n        /* \"Nik_MD_project2.sol\":1079:1119  domain[_input].userAddress == address(0) */\n      0xffffffffffffffffffffffffffffffffffffffff\n      and\n      eq\n        /* \"Nik_MD_project2.sol\":1071:1152  require(domain[_input].userAddress == address(0), \"Domain is already registered\") */\n      tag_77\n      jumpi\n      mload(0x40)\n      0x08c379a000000000000000000000000000000000000000000000000000000000\n      dup2\n      mstore\n      0x04\n      add\n      tag_78\n      swap1\n      tag_79\n      jump\t// in\n    tag_78:\n      mload(0x40)\n      dup1\n      swap2\n      sub\n      swap1\n      revert\n    tag_77:\n        /* \"Nik_MD_project2.sol\":1241:1249  365 days */\n      0x01e13380\n        /* \"Nik_MD_project2.sol\":1219:1225  domain */\n      0x03\n        /* \"Nik_MD_project2.sol\":1226:1232  _input */\n      dup4\n        /* \"Nik_MD_project2.sol\":1219:1233  domain[_input] */\n      mload(0x40)\n      tag_80\n      swap2\n      swap1\n      tag_74\n      jump\t// in\n    tag_80:\n      swap1\n      dup2\n      mstore\n      0x20\n      add\n      mload(0x40)\n      dup1\n      swap2\n      sub\n      swap1\n      keccak256\n        /* \"Nik_MD_project2.sol\":1219:1238  domain[_input].year */\n      0x04\n      add\n      0x00\n      swap1\n      sload\n      swap1\n      0x0100\n      exp\n      swap1\n      div\n      0xff\n      and\n        /* \"Nik_MD_project2.sol\":1219:1249  domain[_input].year * 365 days */\n      0xff\n      and\n      tag_81\n      swap2\n      swap1\n      tag_82\n      jump\t// in\n    tag_81:\n        /* \"Nik_MD_project2.sol\":1189:1249  domain[_input].creationTime + domain[_input].year * 365 days */\n      0xffffffff\n      and\n        /* \"Nik_MD_project2.sol\":1189:1195  domain */\n      0x03\n        /* \"Nik_MD_project2.sol\":1196:1202  _input */\n      dup4\n        /* \"Nik_MD_project2.sol\":1189:1203  domain[_input] */\n      mload(0x40)\n      tag_83\n      swap2\n      swap1\n      tag_74\n      jump\t// in\n    tag_83:\n      swap1\n      dup2\n      mstore\n      0x20\n      add\n      mload(0x40)\n      dup1\n      swap2\n      sub\n      swap1\n      keccak256\n        /* \"Nik_MD_project2.sol\":1189:1216  domain[_input].creationTime */\n      0x01\n      add\n      sload\n        /* \"Nik_MD_project2.sol\":1189:1249  domain[_input].creationTime + domain[_input].year * 365 days */\n      tag_84\n      swap2\n      swap1\n      tag_85\n      jump\t// in\n    tag_84:\n        /* \"Nik_MD_project2.sol\":1171:1186  block.timestamp */\n      timestamp\n        /* \"Nik_MD_project2.sol\":1171:1249  block.timestamp > domain[_input].creationTime + domain[_input].year * 365 days */\n      gt\n        /* \"Nik_MD_project2.sol\":1163:1289  require(block.timestamp > domain[_input].creationTime + domain[_input].year * 365 days, \"Domain registration has not expired\") */\n      tag_86\n      jumpi\n      mload(0x40)\n      0x08c379a000000000000000000000000000000000000000000000000000000000\n      dup2\n      mstore\n      0x04\n      add\n      tag_87\n      swap1\n      tag_88\n      jump\t// in\n    tag_87:\n      mload(0x40)\n      dup1\n      swap2\n      sub\n      swap1\n      revert\n    tag_86:\n        /* \"Nik_MD_project2.sol\":1335:1346  regCostYear */\n      sload(0x01)\n        /* \"Nik_MD_project2.sol\":1329:1334  _year */\n      dup2\n        /* \"Nik_MD_project2.sol\":1329:1346  _year*regCostYear */\n      0xff\n      and\n      tag_89\n      swap2\n      swap1\n      tag_90\n      jump\t// in\n    tag_89:\n        /* \"Nik_MD_project2.sol\":1322:1326  fees */\n      sload(0x04)\n        /* \"Nik_MD_project2.sol\":1322:1346  fees + _year*regCostYear */\n      tag_91\n      swap2\n      swap1\n      tag_85\n      jump\t// in\n    tag_91:\n        /* \"Nik_MD_project2.sol\":1308:1317  msg.value */\n      callvalue\n        /* \"Nik_MD_project2.sol\":1308:1347  msg.value >= (fees + _year*regCostYear) */\n      lt\n      iszero\n        /* \"Nik_MD_project2.sol\":1300:1422  require(msg.value >= (fees + _year*regCostYear), \"Insufficient funds. Cost = fee for registration + (rent cost * years) \") */\n      tag_92\n      jumpi\n      mload(0x40)\n      0x08c379a000000000000000000000000000000000000000000000000000000000\n      dup2\n      mstore\n      0x04\n      add\n      tag_93\n      swap1\n      tag_94\n      jump\t// in\n    tag_93:\n      mload(0x40)\n      dup1\n      swap2\n      sub\n      swap1\n      revert\n    tag_92:\n        /* \"Nik_MD_project2.sol\":1448:1449  1 */\n      0x01\n        /* \"Nik_MD_project2.sol\":1441:1446  _year */\n      dup2\n        /* \"Nik_MD_project2.sol\":1441:1449  _year>=1 */\n      0xff\n      and\n      lt\n      iszero\n        /* \"Nik_MD_project2.sol\":1441:1462  _year>=1 && _year<=10 */\n      dup1\n      iszero\n      tag_95\n      jumpi\n      pop\n        /* \"Nik_MD_project2.sol\":1460:1462  10 */\n      0x0a\n        /* \"Nik_MD_project2.sol\":1453:1458  _year */\n      dup2\n        /* \"Nik_MD_project2.sol\":1453:1462  _year<=10 */\n      0xff\n      and\n      gt\n      iszero\n        /* \"Nik_MD_project2.sol\":1441:1462  _year>=1 && _year<=10 */\n    tag_95:\n        /* \"Nik_MD_project2.sol\":1433:1487  require(_year>=1 && _year<=10, \"Invalid term of rent\") */\n      tag_96\n      jumpi\n      mload(0x40)\n      0x08c379a000000000000000000000000000000000000000000000000000000000\n      dup2\n      mstore\n      0x04\n      add\n      tag_97\n      swap1\n      tag_98\n      jump\t// in\n    tag_97:\n      mload(0x40)\n      dup1\n      swap2\n      sub\n      swap1\n      revert\n    tag_96:\n        /* \"Nik_MD_project2.sol\":1515:1705  DomainInfo({... */\n      mload(0x40)\n      dup1\n      0xa0\n      add\n      0x40\n      mstore\n      dup1\n        /* \"Nik_MD_project2.sol\":1554:1564  msg.sender */\n      caller\n        /* \"Nik_MD_project2.sol\":1515:1705  DomainInfo({... */\n      0xffffffffffffffffffffffffffffffffffffffff\n      and\n      dup2\n      mstore\n      0x20\n      add\n        /* \"Nik_MD_project2.sol\":1593:1608  block.timestamp */\n      timestamp\n        /* \"Nik_MD_project2.sol\":1515:1705  DomainInfo({... */\n      dup2\n      mstore\n      0x20\n      add\n        /* \"Nik_MD_project2.sol\":1628:1637  msg.value */\n      callvalue\n        /* \"Nik_MD_project2.sol\":1515:1705  DomainInfo({... */\n      dup2\n      mstore\n      0x20\n      add\n        /* \"Nik_MD_project2.sol\":1661:1667  _input */\n      dup4\n        /* \"Nik_MD_project2.sol\":1515:1705  DomainInfo({... */\n      dup2\n      mstore\n      0x20\n      add\n        /* \"Nik_MD_project2.sol\":1688:1693  _year */\n      dup3\n        /* \"Nik_MD_project2.sol\":1515:1705  DomainInfo({... */\n      0xff\n      and\n      dup2\n      mstore\n      pop\n        /* \"Nik_MD_project2.sol\":1498:1504  domain */\n      0x03\n        /* \"Nik_MD_project2.sol\":1505:1511  _input */\n      dup4\n        /* \"Nik_MD_project2.sol\":1498:1512  domain[_input] */\n      mload(0x40)\n      tag_99\n      swap2\n      swap1\n      tag_74\n      jump\t// in\n    tag_99:\n      swap1\n      dup2\n      mstore\n      0x20\n      add\n      mload(0x40)\n      dup1\n      swap2\n      sub\n      swap1\n      keccak256\n        /* \"Nik_MD_project2.sol\":1498:1705  domain[_input] = DomainInfo({... */\n      0x00\n      dup3\n      add\n      mload\n      dup2\n      0x00\n      add\n      exp(0x0100, 0x00)\n      dup2\n      sload\n      dup2\n      0xffffffffffffffffffffffffffffffffffffffff\n      mul\n      not\n      and\n      swap1\n      dup4\n      0xffffffffffffffffffffffffffffffffffffffff\n      and\n      mul\n      or\n      swap1\n      sstore\n      pop\n      0x20\n      dup3\n      add\n      mload\n      dup2\n      0x01\n      add\n      sstore\n      0x40\n      dup3\n      add\n      mload\n      dup2\n      0x02\n      add\n      sstore\n      0x60\n      dup3\n      add\n      mload\n      dup2\n      0x03\n      add\n      swap1\n      dup2\n      tag_100\n      swap2\n      swap1\n      tag_101\n      jump\t// in\n    tag_100:\n      pop\n      0x80\n      dup3\n      add\n      mload\n      dup2\n      0x04\n      add\n      exp(0x0100, 0x00)\n      dup2\n      sload\n      dup2\n      0xff\n      mul\n      not\n      and\n      swap1\n      dup4\n      0xff\n      and\n      mul\n      or\n      swap1\n      sstore\n      pop\n      swap1\n      pop\n      pop\n        /* \"Nik_MD_project2.sol\":1732:1741  msg.value */\n      callvalue\n        /* \"Nik_MD_project2.sol\":1716:1728  totalBalance */\n      0x05\n      0x00\n        /* \"Nik_MD_project2.sol\":1716:1741  totalBalance += msg.value */\n      dup3\n      dup3\n      sload\n      tag_102\n      swap2\n      swap1\n      tag_85\n      jump\t// in\n    tag_102:\n      swap3\n      pop\n      pop\n      dup2\n      swap1\n      sstore\n      pop\n        /* \"Nik_MD_project2.sol\":985:1759  function registerDomain(string memory _input, uint8 _year) public payable  {... */\n      pop\n      pop\n      jump\t// out\n        /* \"Nik_MD_project2.sol\":741:785  mapping(string => DomainInfo) public  domain */\n    tag_44:\n      0x03\n      dup2\n      dup1\n      mload\n      0x20\n      dup2\n      add\n      dup3\n      add\n      dup1\n      mload\n      dup5\n      dup3\n      mstore\n      0x20\n      dup4\n      add\n      0x20\n      dup6\n      add\n      keccak256\n      dup2\n      dup4\n      mstore\n      dup1\n      swap6\n      pop\n      pop\n      pop\n      pop\n      pop\n      pop\n      0x00\n      swap2\n      pop\n      swap1\n      pop\n      dup1\n      0x00\n      add\n      0x00\n      swap1\n      sload\n      swap1\n      0x0100\n      exp\n      swap1\n      div\n      0xffffffffffffffffffffffffffffffffffffffff\n      and\n      swap1\n      dup1\n      0x01\n      add\n      sload\n      swap1\n      dup1\n      0x02\n      add\n      sload\n      swap1\n      dup1\n      0x03\n      add\n      dup1\n      sload\n      tag_103\n      swap1\n      tag_104\n      jump\t// in\n    tag_103:\n      dup1\n      0x1f\n      add\n      0x20\n      dup1\n      swap2\n      div\n      mul\n      0x20\n      add\n      mload(0x40)\n      swap1\n      dup2\n      add\n      0x40\n      mstore\n      dup1\n      swap3\n      swap2\n      swap1\n      dup2\n      dup2\n      mstore\n      0x20\n      add\n      dup3\n      dup1\n      sload\n      tag_105\n      swap1\n      tag_104\n      jump\t// in\n    tag_105:\n      dup1\n      iszero\n      tag_106\n      jumpi\n      dup1\n      0x1f\n      lt\n      tag_107\n      jumpi\n      0x0100\n      dup1\n      dup4\n      sload\n      div\n      mul\n      dup4\n      mstore\n      swap2\n      0x20\n      add\n      swap2\n      jump(tag_106)\n    tag_107:\n      dup3\n      add\n      swap2\n      swap1\n      0x00\n      mstore\n      keccak256(0x00, 0x20)\n      swap1\n    tag_108:\n      dup2\n      sload\n      dup2\n      mstore\n      swap1\n      0x01\n      add\n      swap1\n      0x20\n      add\n      dup1\n      dup4\n      gt\n      tag_108\n      jumpi\n      dup3\n      swap1\n      sub\n      0x1f\n      and\n      dup3\n      add\n      swap2\n    tag_106:\n      pop\n      pop\n      pop\n      pop\n      pop\n      swap1\n      dup1\n      0x04\n      add\n      0x00\n      swap1\n      sload\n      swap1\n      0x0100\n      exp\n      swap1\n      div\n      0xff\n      and\n      swap1\n      pop\n      dup6\n      jump\t// out\n        /* \"Nik_MD_project2.sol\":357:464  function setRegCostYear(uint _newRegCostYear) public admin {... */\n    tag_51:\n        /* \"Nik_MD_project2.sol\":299:304  owner */\n      0x00\n      dup1\n      sload\n      swap1\n      0x0100\n      exp\n      swap1\n      div\n      0xffffffffffffffffffffffffffffffffffffffff\n      and\n        /* \"Nik_MD_project2.sol\":285:304  msg.sender == owner */\n      0xffffffffffffffffffffffffffffffffffffffff\n      and\n        /* \"Nik_MD_project2.sol\":285:295  msg.sender */\n      caller\n        /* \"Nik_MD_project2.sol\":285:304  msg.sender == owner */\n      0xffffffffffffffffffffffffffffffffffffffff\n      and\n      eq\n        /* \"Nik_MD_project2.sol\":277:329  require(msg.sender == owner, 'You are not a master') */\n      tag_110\n      jumpi\n      mload(0x40)\n      0x08c379a000000000000000000000000000000000000000000000000000000000\n      dup2\n      mstore\n      0x04\n      add\n      tag_111\n      swap1\n      tag_68\n      jump\t// in\n    tag_111:\n      mload(0x40)\n      dup1\n      swap2\n      sub\n      swap1\n      revert\n    tag_110:\n        /* \"Nik_MD_project2.sol\":441:456  _newRegCostYear */\n      dup1\n        /* \"Nik_MD_project2.sol\":427:438  regCostYear */\n      0x01\n        /* \"Nik_MD_project2.sol\":427:456  regCostYear = _newRegCostYear */\n      dup2\n      swap1\n      sstore\n      pop\n        /* \"Nik_MD_project2.sol\":357:464  function setRegCostYear(uint _newRegCostYear) public admin {... */\n      pop\n      jump\t// out\n        /* \"Nik_MD_project2.sol\":1765:2282  function prolongateRent(string memory _input, uint8 _year) public payable  {... */\n    tag_54:\n        /* \"Nik_MD_project2.sol\":1889:1899  msg.sender */\n      caller\n        /* \"Nik_MD_project2.sol\":1859:1899  domain[_input].userAddress == msg.sender */\n      0xffffffffffffffffffffffffffffffffffffffff\n      and\n        /* \"Nik_MD_project2.sol\":1859:1865  domain */\n      0x03\n        /* \"Nik_MD_project2.sol\":1866:1872  _input */\n      dup4\n        /* \"Nik_MD_project2.sol\":1859:1873  domain[_input] */\n      mload(0x40)\n      tag_114\n      swap2\n      swap1\n      tag_74\n      jump\t// in\n    tag_114:\n      swap1\n      dup2\n      mstore\n      0x20\n      add\n      mload(0x40)\n      dup1\n      swap2\n      sub\n      swap1\n      keccak256\n        /* \"Nik_MD_project2.sol\":1859:1885  domain[_input].userAddress */\n      0x00\n      add\n      0x00\n      swap1\n      sload\n      swap1\n      0x0100\n      exp\n      swap1\n      div\n      0xffffffffffffffffffffffffffffffffffffffff\n      and\n        /* \"Nik_MD_project2.sol\":1859:1899  domain[_input].userAddress == msg.sender */\n      0xffffffffffffffffffffffffffffffffffffffff\n      and\n      eq\n        /* \"Nik_MD_project2.sol\":1851:1940  require(domain[_input].userAddress == msg.sender, \"Domain does not belong to the sender\") */\n      tag_115\n      jumpi\n      mload(0x40)\n      0x08c379a000000000000000000000000000000000000000000000000000000000\n      dup2\n      mstore\n      0x04\n      add\n      tag_116\n      swap1\n      tag_117\n      jump\t// in\n    tag_116:\n      mload(0x40)\n      dup1\n      swap2\n      sub\n      swap1\n      revert\n    tag_115:\n        /* \"Nik_MD_project2.sol\":2005:2015  cofficient */\n      0x02\n      0x00\n      swap1\n      sload\n      swap1\n      0x0100\n      exp\n      swap1\n      div\n      0xff\n      and\n        /* \"Nik_MD_project2.sol\":1998:2015  fees * cofficient */\n      0xff\n      and\n        /* \"Nik_MD_project2.sol\":1998:2002  fees */\n      sload(0x04)\n        /* \"Nik_MD_project2.sol\":1998:2015  fees * cofficient */\n      tag_118\n      swap2\n      swap1\n      tag_90\n      jump\t// in\n    tag_118:\n        /* \"Nik_MD_project2.sol\":1982:1993  regCostYear */\n      sload(0x01)\n        /* \"Nik_MD_project2.sol\":1974:1979  _year */\n      dup3\n        /* \"Nik_MD_project2.sol\":1974:1993  _year * regCostYear */\n      0xff\n      and\n      tag_119\n      swap2\n      swap1\n      tag_90\n      jump\t// in\n    tag_119:\n        /* \"Nik_MD_project2.sol\":1973:2016  (_year * regCostYear) + (fees * cofficient) */\n      tag_120\n      swap2\n      swap1\n      tag_85\n      jump\t// in\n    tag_120:\n        /* \"Nik_MD_project2.sol\":1959:1968  msg.value */\n      callvalue\n        /* \"Nik_MD_project2.sol\":1959:2017  msg.value >= ((_year * regCostYear) + (fees * cofficient)) */\n      lt\n      iszero\n        /* \"Nik_MD_project2.sol\":1951:2086  require(msg.value >= ((_year * regCostYear) + (fees * cofficient)), 'Insufficient funds. Cost = rent cost * years + fee * coefficient') */\n      tag_121\n      jumpi\n      mload(0x40)\n      0x08c379a000000000000000000000000000000000000000000000000000000000\n      dup2\n      mstore\n      0x04\n      add\n      tag_122\n      swap1\n      tag_123\n      jump\t// in\n    tag_122:\n      mload(0x40)\n      dup1\n      swap2\n      sub\n      swap1\n      revert\n    tag_121:\n        /* \"Nik_MD_project2.sol\":2114:2115  1 */\n      0x01\n        /* \"Nik_MD_project2.sol\":2105:2110  _year */\n      dup2\n        /* \"Nik_MD_project2.sol\":2105:2115  _year >= 1 */\n      0xff\n      and\n      lt\n      iszero\n        /* \"Nik_MD_project2.sol\":2105:2130  _year >= 1 && _year <= 10 */\n      dup1\n      iszero\n      tag_124\n      jumpi\n      pop\n        /* \"Nik_MD_project2.sol\":2128:2130  10 */\n      0x0a\n        /* \"Nik_MD_project2.sol\":2119:2124  _year */\n      dup2\n        /* \"Nik_MD_project2.sol\":2119:2130  _year <= 10 */\n      0xff\n      and\n      gt\n      iszero\n        /* \"Nik_MD_project2.sol\":2105:2130  _year >= 1 && _year <= 10 */\n    tag_124:\n        /* \"Nik_MD_project2.sol\":2097:2155  require(_year >= 1 && _year <= 10, \"Invalid term of rent\") */\n      tag_125\n      jumpi\n      mload(0x40)\n      0x08c379a000000000000000000000000000000000000000000000000000000000\n      dup2\n      mstore\n      0x04\n      add\n      tag_126\n      swap1\n      tag_98\n      jump\t// in\n    tag_126:\n      mload(0x40)\n      dup1\n      swap2\n      sub\n      swap1\n      revert\n    tag_125:\n        /* \"Nik_MD_project2.sol\":2189:2194  _year */\n      dup1\n        /* \"Nik_MD_project2.sol\":2166:2172  domain */\n      0x03\n        /* \"Nik_MD_project2.sol\":2173:2179  _input */\n      dup4\n        /* \"Nik_MD_project2.sol\":2166:2180  domain[_input] */\n      mload(0x40)\n      tag_127\n      swap2\n      swap1\n      tag_74\n      jump\t// in\n    tag_127:\n      swap1\n      dup2\n      mstore\n      0x20\n      add\n      mload(0x40)\n      dup1\n      swap2\n      sub\n      swap1\n      keccak256\n        /* \"Nik_MD_project2.sol\":2166:2185  domain[_input].year */\n      0x04\n      add\n      0x00\n        /* \"Nik_MD_project2.sol\":2166:2194  domain[_input].year += _year */\n      dup3\n      dup3\n      dup3\n      swap1\n      sload\n      swap1\n      0x0100\n      exp\n      swap1\n      div\n      0xff\n      and\n      tag_128\n      swap2\n      swap1\n      tag_129\n      jump\t// in\n    tag_128:\n      swap3\n      pop\n      0x0100\n      exp\n      dup2\n      sload\n      dup2\n      0xff\n      mul\n      not\n      and\n      swap1\n      dup4\n      0xff\n      and\n      mul\n      or\n      swap1\n      sstore\n      pop\n        /* \"Nik_MD_project2.sol\":2228:2237  msg.value */\n      callvalue\n        /* \"Nik_MD_project2.sol\":2206:2212  domain */\n      0x03\n        /* \"Nik_MD_project2.sol\":2213:2219  _input */\n      dup4\n        /* \"Nik_MD_project2.sol\":2206:2220  domain[_input] */\n      mload(0x40)\n      tag_130\n      swap2\n      swap1\n      tag_74\n      jump\t// in\n    tag_130:\n      swap1\n      dup2\n      mstore\n      0x20\n      add\n      mload(0x40)\n      dup1\n      swap2\n      sub\n      swap1\n      keccak256\n        /* \"Nik_MD_project2.sol\":2206:2224  domain[_input].fee */\n      0x02\n      add\n      0x00\n        /* \"Nik_MD_project2.sol\":2206:2237  domain[_input].fee += msg.value */\n      dup3\n      dup3\n      sload\n      tag_131\n      swap2\n      swap1\n      tag_85\n      jump\t// in\n    tag_131:\n      swap3\n      pop\n      pop\n      dup2\n      swap1\n      sstore\n      pop\n        /* \"Nik_MD_project2.sol\":2265:2274  msg.value */\n      callvalue\n        /* \"Nik_MD_project2.sol\":2249:2261  totalBalance */\n      0x05\n      0x00\n        /* \"Nik_MD_project2.sol\":2249:2274  totalBalance += msg.value */\n      dup3\n      dup3\n      sload\n      tag_132\n      swap2\n      swap1\n      tag_85\n      jump\t// in\n    tag_132:\n      swap3\n      pop\n      pop\n      dup2\n      swap1\n      sstore\n      pop\n        /* \"Nik_MD_project2.sol\":1765:2282  function prolongateRent(string memory _input, uint8 _year) public payable  {... */\n      pop\n      pop\n      jump\t// out\n        /* \"Nik_MD_project2.sol\":842:866  uint public totalBalance */\n    tag_57:\n      sload(0x05)\n      dup2\n      jump\t// out\n        /* \"Nik_MD_project2.sol\":472:576  function setCofficient(uint8 _newCofficient) public admin {... */\n    tag_63:\n        /* \"Nik_MD_project2.sol\":299:304  owner */\n      0x00\n      dup1\n      sload\n      swap1\n      0x0100\n      exp\n      swap1\n      div\n      0xffffffffffffffffffffffffffffffffffffffff\n      and\n        /* \"Nik_MD_project2.sol\":285:304  msg.sender == owner */\n      0xffffffffffffffffffffffffffffffffffffffff\n      and\n        /* \"Nik_MD_project2.sol\":285:295  msg.sender */\n      caller\n        /* \"Nik_MD_project2.sol\":285:304  msg.sender == owner */\n      0xffffffffffffffffffffffffffffffffffffffff\n      and\n      eq\n        /* \"Nik_MD_project2.sol\":277:329  require(msg.sender == owner, 'You are not a master') */\n      tag_134\n      jumpi\n      mload(0x40)\n      0x08c379a000000000000000000000000000000000000000000000000000000000\n      dup2\n      mstore\n      0x04\n      add\n      tag_135\n      swap1\n      tag_68\n      jump\t// in\n    tag_135:\n      mload(0x40)\n      dup1\n      swap2\n      sub\n      swap1\n      revert\n    tag_134:\n        /* \"Nik_MD_project2.sol\":554:568  _newCofficient */\n      dup1\n        /* \"Nik_MD_project2.sol\":541:551  cofficient */\n      0x02\n      0x00\n        /* \"Nik_MD_project2.sol\":541:568  cofficient = _newCofficient */\n      0x0100\n      exp\n      dup2\n      sload\n      dup2\n      0xff\n      mul\n      not\n      and\n      swap1\n      dup4\n      0xff\n      and\n      mul\n      or\n      swap1\n      sstore\n      pop\n        /* \"Nik_MD_project2.sol\":472:576  function setCofficient(uint8 _newCofficient) public admin {... */\n      pop\n      jump\t// out\n        /* \"#utility.yul\":7:84   */\n    tag_137:\n        /* \"#utility.yul\":44:51   */\n      0x00\n        /* \"#utility.yul\":73:78   */\n      dup2\n        /* \"#utility.yul\":62:78   */\n      swap1\n      pop\n        /* \"#utility.yul\":7:84   */\n      swap2\n      swap1\n      pop\n      jump\t// out\n        /* \"#utility.yul\":90:208   */\n    tag_138:\n        /* \"#utility.yul\":177:201   */\n      tag_202\n        /* \"#utility.yul\":195:200   */\n      dup2\n        /* \"#utility.yul\":177:201   */\n      tag_137\n      jump\t// in\n    tag_202:\n        /* \"#utility.yul\":172:175   */\n      dup3\n        /* \"#utility.yul\":165:202   */\n      mstore\n        /* \"#utility.yul\":90:208   */\n      pop\n      pop\n      jump\t// out\n        /* \"#utility.yul\":214:436   */\n    tag_18:\n        /* \"#utility.yul\":307:311   */\n      0x00\n        /* \"#utility.yul\":345:347   */\n      0x20\n        /* \"#utility.yul\":334:343   */\n      dup3\n        /* \"#utility.yul\":330:348   */\n      add\n        /* \"#utility.yul\":322:348   */\n      swap1\n      pop\n        /* \"#utility.yul\":358:429   */\n      tag_204\n        /* \"#utility.yul\":426:427   */\n      0x00\n        /* \"#utility.yul\":415:424   */\n      dup4\n        /* \"#utility.yul\":411:428   */\n      add\n        /* \"#utility.yul\":402:408   */\n      dup5\n        /* \"#utility.yul\":358:429   */\n      tag_138\n      jump\t// in\n    tag_204:\n        /* \"#utility.yul\":214:436   */\n      swap3\n      swap2\n      pop\n      pop\n      jump\t// out\n        /* \"#utility.yul\":442:528   */\n    tag_139:\n        /* \"#utility.yul\":477:484   */\n      0x00\n        /* \"#utility.yul\":517:521   */\n      0xff\n        /* \"#utility.yul\":510:515   */\n      dup3\n        /* \"#utility.yul\":506:522   */\n      and\n        /* \"#utility.yul\":495:522   */\n      swap1\n      pop\n        /* \"#utility.yul\":442:528   */\n      swap2\n      swap1\n      pop\n      jump\t// out\n        /* \"#utility.yul\":534:646   */\n    tag_140:\n        /* \"#utility.yul\":617:639   */\n      tag_207\n        /* \"#utility.yul\":633:638   */\n      dup2\n        /* \"#utility.yul\":617:639   */\n      tag_139\n      jump\t// in\n    tag_207:\n        /* \"#utility.yul\":612:615   */\n      dup3\n        /* \"#utility.yul\":605:640   */\n      mstore\n        /* \"#utility.yul\":534:646   */\n      pop\n      pop\n      jump\t// out\n        /* \"#utility.yul\":652:866   */\n    tag_25:\n        /* \"#utility.yul\":741:745   */\n      0x00\n        /* \"#utility.yul\":779:781   */\n      0x20\n        /* \"#utility.yul\":768:777   */\n      dup3\n        /* \"#utility.yul\":764:782   */\n      add\n        /* \"#utility.yul\":756:782   */\n      swap1\n      pop\n        /* \"#utility.yul\":792:859   */\n      tag_209\n        /* \"#utility.yul\":856:857   */\n      0x00\n        /* \"#utility.yul\":845:854   */\n      dup4\n        /* \"#utility.yul\":841:858   */\n      add\n        /* \"#utility.yul\":832:838   */\n      dup5\n        /* \"#utility.yul\":792:859   */\n      tag_140\n      jump\t// in\n    tag_209:\n        /* \"#utility.yul\":652:866   */\n      swap3\n      swap2\n      pop\n      pop\n      jump\t// out\n        /* \"#utility.yul\":872:947   */\n    tag_141:\n        /* \"#utility.yul\":905:911   */\n      0x00\n        /* \"#utility.yul\":938:940   */\n      0x40\n        /* \"#utility.yul\":932:941   */\n      mload\n        /* \"#utility.yul\":922:941   */\n      swap1\n      pop\n        /* \"#utility.yul\":872:947   */\n      swap1\n      jump\t// out\n        /* \"#utility.yul\":953:1070   */\n    tag_142:\n        /* \"#utility.yul\":1062:1063   */\n      0x00\n        /* \"#utility.yul\":1059:1060   */\n      dup1\n        /* \"#utility.yul\":1052:1064   */\n      revert\n        /* \"#utility.yul\":1076:1193   */\n    tag_143:\n        /* \"#utility.yul\":1185:1186   */\n      0x00\n        /* \"#utility.yul\":1182:1183   */\n      dup1\n        /* \"#utility.yul\":1175:1187   */\n      revert\n        /* \"#utility.yul\":1199:1316   */\n    tag_144:\n        /* \"#utility.yul\":1308:1309   */\n      0x00\n        /* \"#utility.yul\":1305:1306   */\n      dup1\n        /* \"#utility.yul\":1298:1310   */\n      revert\n        /* \"#utility.yul\":1322:1439   */\n    tag_145:\n        /* \"#utility.yul\":1431:1432   */\n      0x00\n        /* \"#utility.yul\":1428:1429   */\n      dup1\n        /* \"#utility.yul\":1421:1433   */\n      revert\n        /* \"#utility.yul\":1445:1547   */\n    tag_146:\n        /* \"#utility.yul\":1486:1492   */\n      0x00\n        /* \"#utility.yul\":1537:1539   */\n      0x1f\n        /* \"#utility.yul\":1533:1540   */\n      not\n        /* \"#utility.yul\":1528:1530   */\n      0x1f\n        /* \"#utility.yul\":1521:1526   */\n      dup4\n        /* \"#utility.yul\":1517:1531   */\n      add\n        /* \"#utility.yul\":1513:1541   */\n      and\n        /* \"#utility.yul\":1503:1541   */\n      swap1\n      pop\n        /* \"#utility.yul\":1445:1547   */\n      swap2\n      swap1\n      pop\n      jump\t// out\n        /* \"#utility.yul\":1553:1733   */\n    tag_147:\n        /* \"#utility.yul\":1601:1678   */\n      0x4e487b7100000000000000000000000000000000000000000000000000000000\n        /* \"#utility.yul\":1598:1599   */\n      0x00\n        /* \"#utility.yul\":1591:1679   */\n      mstore\n        /* \"#utility.yul\":1698:1702   */\n      0x41\n        /* \"#utility.yul\":1695:1696   */\n      0x04\n        /* \"#utility.yul\":1688:1703   */\n      mstore\n        /* \"#utility.yul\":1722:1726   */\n      0x24\n        /* \"#utility.yul\":1719:1720   */\n      0x00\n        /* \"#utility.yul\":1712:1727   */\n      revert\n        /* \"#utility.yul\":1739:2020   */\n    tag_148:\n        /* \"#utility.yul\":1822:1849   */\n      tag_218\n        /* \"#utility.yul\":1844:1848   */\n      dup3\n        /* \"#utility.yul\":1822:1849   */\n      tag_146\n      jump\t// in\n    tag_218:\n        /* \"#utility.yul\":1814:1820   */\n      dup2\n        /* \"#utility.yul\":1810:1850   */\n      add\n        /* \"#utility.yul\":1952:1958   */\n      dup2\n        /* \"#utility.yul\":1940:1950   */\n      dup2\n        /* \"#utility.yul\":1937:1959   */\n      lt\n        /* \"#utility.yul\":1916:1934   */\n      0xffffffffffffffff\n        /* \"#utility.yul\":1904:1914   */\n      dup3\n        /* \"#utility.yul\":1901:1935   */\n      gt\n        /* \"#utility.yul\":1898:1960   */\n      or\n        /* \"#utility.yul\":1895:1983   */\n      iszero\n      tag_219\n      jumpi\n        /* \"#utility.yul\":1963:1981   */\n      tag_220\n      tag_147\n      jump\t// in\n    tag_220:\n        /* \"#utility.yul\":1895:1983   */\n    tag_219:\n        /* \"#utility.yul\":2003:2013   */\n      dup1\n        /* \"#utility.yul\":1999:2001   */\n      0x40\n        /* \"#utility.yul\":1992:2014   */\n      mstore\n        /* \"#utility.yul\":1782:2020   */\n      pop\n        /* \"#utility.yul\":1739:2020   */\n      pop\n      pop\n      jump\t// out\n        /* \"#utility.yul\":2026:2155   */\n    tag_149:\n        /* \"#utility.yul\":2060:2066   */\n      0x00\n        /* \"#utility.yul\":2087:2107   */\n      tag_222\n      tag_141\n      jump\t// in\n    tag_222:\n        /* \"#utility.yul\":2077:2107   */\n      swap1\n      pop\n        /* \"#utility.yul\":2116:2149   */\n      tag_223\n        /* \"#utility.yul\":2144:2148   */\n      dup3\n        /* \"#utility.yul\":2136:2142   */\n      dup3\n        /* \"#utility.yul\":2116:2149   */\n      tag_148\n      jump\t// in\n    tag_223:\n        /* \"#utility.yul\":2026:2155   */\n      swap2\n      swap1\n      pop\n      jump\t// out\n        /* \"#utility.yul\":2161:2469   */\n    tag_150:\n        /* \"#utility.yul\":2223:2227   */\n      0x00\n        /* \"#utility.yul\":2313:2331   */\n      0xffffffffffffffff\n        /* \"#utility.yul\":2305:2311   */\n      dup3\n        /* \"#utility.yul\":2302:2332   */\n      gt\n        /* \"#utility.yul\":2299:2355   */\n      iszero\n      tag_225\n      jumpi\n        /* \"#utility.yul\":2335:2353   */\n      tag_226\n      tag_147\n      jump\t// in\n    tag_226:\n        /* \"#utility.yul\":2299:2355   */\n    tag_225:\n        /* \"#utility.yul\":2373:2402   */\n      tag_227\n        /* \"#utility.yul\":2395:2401   */\n      dup3\n        /* \"#utility.yul\":2373:2402   */\n      tag_146\n      jump\t// in\n    tag_227:\n        /* \"#utility.yul\":2365:2402   */\n      swap1\n      pop\n        /* \"#utility.yul\":2457:2461   */\n      0x20\n        /* \"#utility.yul\":2451:2455   */\n      dup2\n        /* \"#utility.yul\":2447:2462   */\n      add\n        /* \"#utility.yul\":2439:2462   */\n      swap1\n      pop\n        /* \"#utility.yul\":2161:2469   */\n      swap2\n      swap1\n      pop\n      jump\t// out\n        /* \"#utility.yul\":2475:2621   */\n    tag_151:\n        /* \"#utility.yul\":2572:2578   */\n      dup3\n        /* \"#utility.yul\":2567:2570   */\n      dup2\n        /* \"#utility.yul\":2562:2565   */\n      dup4\n        /* \"#utility.yul\":2549:2579   */\n      calldatacopy\n        /* \"#utility.yul\":2613:2614   */\n      0x00\n        /* \"#utility.yul\":2604:2610   */\n      dup4\n        /* \"#utility.yul\":2599:2602   */\n      dup4\n        /* \"#utility.yul\":2595:2611   */\n      add\n        /* \"#utility.yul\":2588:2615   */\n      mstore\n        /* \"#utility.yul\":2475:2621   */\n      pop\n      pop\n      pop\n      jump\t// out\n        /* \"#utility.yul\":2627:3052   */\n    tag_152:\n        /* \"#utility.yul\":2705:2710   */\n      0x00\n        /* \"#utility.yul\":2730:2796   */\n      tag_230\n        /* \"#utility.yul\":2746:2795   */\n      tag_231\n        /* \"#utility.yul\":2788:2794   */\n      dup5\n        /* \"#utility.yul\":2746:2795   */\n      tag_150\n      jump\t// in\n    tag_231:\n        /* \"#utility.yul\":2730:2796   */\n      tag_149\n      jump\t// in\n    tag_230:\n        /* \"#utility.yul\":2721:2796   */\n      swap1\n      pop\n        /* \"#utility.yul\":2819:2825   */\n      dup3\n        /* \"#utility.yul\":2812:2817   */\n      dup2\n        /* \"#utility.yul\":2805:2826   */\n      mstore\n        /* \"#utility.yul\":2857:2861   */\n      0x20\n        /* \"#utility.yul\":2850:2855   */\n      dup2\n        /* \"#utility.yul\":2846:2862   */\n      add\n        /* \"#utility.yul\":2895:2898   */\n      dup5\n        /* \"#utility.yul\":2886:2892   */\n      dup5\n        /* \"#utility.yul\":2881:2884   */\n      dup5\n        /* \"#utility.yul\":2877:2893   */\n      add\n        /* \"#utility.yul\":2874:2899   */\n      gt\n        /* \"#utility.yul\":2871:2983   */\n      iszero\n      tag_232\n      jumpi\n        /* \"#utility.yul\":2902:2981   */\n      tag_233\n      tag_145\n      jump\t// in\n    tag_233:\n        /* \"#utility.yul\":2871:2983   */\n    tag_232:\n        /* \"#utility.yul\":2992:3046   */\n      tag_234\n        /* \"#utility.yul\":3039:3045   */\n      dup5\n        /* \"#utility.yul\":3034:3037   */\n      dup3\n        /* \"#utility.yul\":3029:3032   */\n      dup6\n        /* \"#utility.yul\":2992:3046   */\n      tag_151\n      jump\t// in\n    tag_234:\n        /* \"#utility.yul\":2711:3052   */\n      pop\n        /* \"#utility.yul\":2627:3052   */\n      swap4\n      swap3\n      pop\n      pop\n      pop\n      jump\t// out\n        /* \"#utility.yul\":3072:3412   */\n    tag_153:\n        /* \"#utility.yul\":3128:3133   */\n      0x00\n        /* \"#utility.yul\":3177:3180   */\n      dup3\n        /* \"#utility.yul\":3170:3174   */\n      0x1f\n        /* \"#utility.yul\":3162:3168   */\n      dup4\n        /* \"#utility.yul\":3158:3175   */\n      add\n        /* \"#utility.yul\":3154:3181   */\n      slt\n        /* \"#utility.yul\":3144:3266   */\n      tag_236\n      jumpi\n        /* \"#utility.yul\":3185:3264   */\n      tag_237\n      tag_144\n      jump\t// in\n    tag_237:\n        /* \"#utility.yul\":3144:3266   */\n    tag_236:\n        /* \"#utility.yul\":3302:3308   */\n      dup2\n        /* \"#utility.yul\":3289:3309   */\n      calldataload\n        /* \"#utility.yul\":3327:3406   */\n      tag_238\n        /* \"#utility.yul\":3402:3405   */\n      dup5\n        /* \"#utility.yul\":3394:3400   */\n      dup3\n        /* \"#utility.yul\":3387:3391   */\n      0x20\n        /* \"#utility.yul\":3379:3385   */\n      dup7\n        /* \"#utility.yul\":3375:3392   */\n      add\n        /* \"#utility.yul\":3327:3406   */\n      tag_152\n      jump\t// in\n    tag_238:\n        /* \"#utility.yul\":3318:3406   */\n      swap2\n      pop\n        /* \"#utility.yul\":3134:3412   */\n      pop\n        /* \"#utility.yul\":3072:3412   */\n      swap3\n      swap2\n      pop\n      pop\n      jump\t// out\n        /* \"#utility.yul\":3418:3927   */\n    tag_33:\n        /* \"#utility.yul\":3487:3493   */\n      0x00\n        /* \"#utility.yul\":3536:3538   */\n      0x20\n        /* \"#utility.yul\":3524:3533   */\n      dup3\n        /* \"#utility.yul\":3515:3522   */\n      dup5\n        /* \"#utility.yul\":3511:3534   */\n      sub\n        /* \"#utility.yul\":3507:3539   */\n      slt\n        /* \"#utility.yul\":3504:3623   */\n      iszero\n      tag_240\n      jumpi\n        /* \"#utility.yul\":3542:3621   */\n      tag_241\n      tag_142\n      jump\t// in\n    tag_241:\n        /* \"#utility.yul\":3504:3623   */\n    tag_240:\n        /* \"#utility.yul\":3690:3691   */\n      0x00\n        /* \"#utility.yul\":3679:3688   */\n      dup3\n        /* \"#utility.yul\":3675:3692   */\n      add\n        /* \"#utility.yul\":3662:3693   */\n      calldataload\n        /* \"#utility.yul\":3720:3738   */\n      0xffffffffffffffff\n        /* \"#utility.yul\":3712:3718   */\n      dup2\n        /* \"#utility.yul\":3709:3739   */\n      gt\n        /* \"#utility.yul\":3706:3823   */\n      iszero\n      tag_242\n      jumpi\n        /* \"#utility.yul\":3742:3821   */\n      tag_243\n      tag_143\n      jump\t// in\n    tag_243:\n        /* \"#utility.yul\":3706:3823   */\n    tag_242:\n        /* \"#utility.yul\":3847:3910   */\n      tag_244\n        /* \"#utility.yul\":3902:3909   */\n      dup5\n        /* \"#utility.yul\":3893:3899   */\n      dup3\n        /* \"#utility.yul\":3882:3891   */\n      dup6\n        /* \"#utility.yul\":3878:3900   */\n      add\n        /* \"#utility.yul\":3847:3910   */\n      tag_153\n      jump\t// in\n    tag_244:\n        /* \"#utility.yul\":3837:3910   */\n      swap2\n      pop\n        /* \"#utility.yul\":3633:3920   */\n      pop\n        /* \"#utility.yul\":3418:3927   */\n      swap3\n      swap2\n      pop\n      pop\n      jump\t// out\n        /* \"#utility.yul\":3933:4059   */\n    tag_154:\n        /* \"#utility.yul\":3970:3977   */\n      0x00\n        /* \"#utility.yul\":4010:4052   */\n      0xffffffffffffffffffffffffffffffffffffffff\n        /* \"#utility.yul\":4003:4008   */\n      dup3\n        /* \"#utility.yul\":3999:4053   */\n      and\n        /* \"#utility.yul\":3988:4053   */\n      swap1\n      pop\n        /* \"#utility.yul\":3933:4059   */\n      swap2\n      swap1\n      pop\n      jump\t// out\n        /* \"#utility.yul\":4065:4161   */\n    tag_155:\n        /* \"#utility.yul\":4102:4109   */\n      0x00\n        /* \"#utility.yul\":4131:4155   */\n      tag_247\n        /* \"#utility.yul\":4149:4154   */\n      dup3\n        /* \"#utility.yul\":4131:4155   */\n      tag_154\n      jump\t// in\n    tag_247:\n        /* \"#utility.yul\":4120:4155   */\n      swap1\n      pop\n        /* \"#utility.yul\":4065:4161   */\n      swap2\n      swap1\n      pop\n      jump\t// out\n        /* \"#utility.yul\":4167:4285   */\n    tag_156:\n        /* \"#utility.yul\":4254:4278   */\n      tag_249\n        /* \"#utility.yul\":4272:4277   */\n      dup2\n        /* \"#utility.yul\":4254:4278   */\n      tag_155\n      jump\t// in\n    tag_249:\n        /* \"#utility.yul\":4249:4252   */\n      dup3\n        /* \"#utility.yul\":4242:4279   */\n      mstore\n        /* \"#utility.yul\":4167:4285   */\n      pop\n      pop\n      jump\t// out\n        /* \"#utility.yul\":4291:4513   */\n    tag_36:\n        /* \"#utility.yul\":4384:4388   */\n      0x00\n        /* \"#utility.yul\":4422:4424   */\n      0x20\n        /* \"#utility.yul\":4411:4420   */\n      dup3\n        /* \"#utility.yul\":4407:4425   */\n      add\n        /* \"#utility.yul\":4399:4425   */\n      swap1\n      pop\n        /* \"#utility.yul\":4435:4506   */\n      tag_251\n        /* \"#utility.yul\":4503:4504   */\n      0x00\n        /* \"#utility.yul\":4492:4501   */\n      dup4\n        /* \"#utility.yul\":4488:4505   */\n      add\n        /* \"#utility.yul\":4479:4485   */\n      dup5\n        /* \"#utility.yul\":4435:4506   */\n      tag_156\n      jump\t// in\n    tag_251:\n        /* \"#utility.yul\":4291:4513   */\n      swap3\n      swap2\n      pop\n      pop\n      jump\t// out\n        /* \"#utility.yul\":4519:4637   */\n    tag_157:\n        /* \"#utility.yul\":4590:4612   */\n      tag_253\n        /* \"#utility.yul\":4606:4611   */\n      dup2\n        /* \"#utility.yul\":4590:4612   */\n      tag_139\n      jump\t// in\n    tag_253:\n        /* \"#utility.yul\":4583:4588   */\n      dup2\n        /* \"#utility.yul\":4580:4613   */\n      eq\n        /* \"#utility.yul\":4570:4631   */\n      tag_254\n      jumpi\n        /* \"#utility.yul\":4627:4628   */\n      0x00\n        /* \"#utility.yul\":4624:4625   */\n      dup1\n        /* \"#utility.yul\":4617:4629   */\n      revert\n        /* \"#utility.yul\":4570:4631   */\n    tag_254:\n        /* \"#utility.yul\":4519:4637   */\n      pop\n      jump\t// out\n        /* \"#utility.yul\":4643:4778   */\n    tag_158:\n        /* \"#utility.yul\":4687:4692   */\n      0x00\n        /* \"#utility.yul\":4725:4731   */\n      dup2\n        /* \"#utility.yul\":4712:4732   */\n      calldataload\n        /* \"#utility.yul\":4703:4732   */\n      swap1\n      pop\n        /* \"#utility.yul\":4741:4772   */\n      tag_256\n        /* \"#utility.yul\":4766:4771   */\n      dup2\n        /* \"#utility.yul\":4741:4772   */\n      tag_157\n      jump\t// in\n    tag_256:\n        /* \"#utility.yul\":4643:4778   */\n      swap3\n      swap2\n      pop\n      pop\n      jump\t// out\n        /* \"#utility.yul\":4784:5434   */\n    tag_39:\n        /* \"#utility.yul\":4860:4866   */\n      0x00\n        /* \"#utility.yul\":4868:4874   */\n      dup1\n        /* \"#utility.yul\":4917:4919   */\n      0x40\n        /* \"#utility.yul\":4905:4914   */\n      dup4\n        /* \"#utility.yul\":4896:4903   */\n      dup6\n        /* \"#utility.yul\":4892:4915   */\n      sub\n        /* \"#utility.yul\":4888:4920   */\n      slt\n        /* \"#utility.yul\":4885:5004   */\n      iszero\n      tag_258\n      jumpi\n        /* \"#utility.yul\":4923:5002   */\n      tag_259\n      tag_142\n      jump\t// in\n    tag_259:\n        /* \"#utility.yul\":4885:5004   */\n    tag_258:\n        /* \"#utility.yul\":5071:5072   */\n      0x00\n        /* \"#utility.yul\":5060:5069   */\n      dup4\n        /* \"#utility.yul\":5056:5073   */\n      add\n        /* \"#utility.yul\":5043:5074   */\n      calldataload\n        /* \"#utility.yul\":5101:5119   */\n      0xffffffffffffffff\n        /* \"#utility.yul\":5093:5099   */\n      dup2\n        /* \"#utility.yul\":5090:5120   */\n      gt\n        /* \"#utility.yul\":5087:5204   */\n      iszero\n      tag_260\n      jumpi\n        /* \"#utility.yul\":5123:5202   */\n      tag_261\n      tag_143\n      jump\t// in\n    tag_261:\n        /* \"#utility.yul\":5087:5204   */\n    tag_260:\n        /* \"#utility.yul\":5228:5291   */\n      tag_262\n        /* \"#utility.yul\":5283:5290   */\n      dup6\n        /* \"#utility.yul\":5274:5280   */\n      dup3\n        /* \"#utility.yul\":5263:5272   */\n      dup7\n        /* \"#utility.yul\":5259:5281   */\n      add\n        /* \"#utility.yul\":5228:5291   */\n      tag_153\n      jump\t// in\n    tag_262:\n        /* \"#utility.yul\":5218:5291   */\n      swap3\n      pop\n        /* \"#utility.yul\":5014:5301   */\n      pop\n        /* \"#utility.yul\":5340:5342   */\n      0x20\n        /* \"#utility.yul\":5366:5417   */\n      tag_263\n        /* \"#utility.yul\":5409:5416   */\n      dup6\n        /* \"#utility.yul\":5400:5406   */\n      dup3\n        /* \"#utility.yul\":5389:5398   */\n      dup7\n        /* \"#utility.yul\":5385:5407   */\n      add\n        /* \"#utility.yul\":5366:5417   */\n      tag_158\n      jump\t// in\n    tag_263:\n        /* \"#utility.yul\":5356:5417   */\n      swap2\n      pop\n        /* \"#utility.yul\":5311:5427   */\n      pop\n        /* \"#utility.yul\":4784:5434   */\n      swap3\n      pop\n      swap3\n      swap1\n      pop\n      jump\t// out\n        /* \"#utility.yul\":5440:5539   */\n    tag_159:\n        /* \"#utility.yul\":5492:5498   */\n      0x00\n        /* \"#utility.yul\":5526:5531   */\n      dup2\n        /* \"#utility.yul\":5520:5532   */\n      mload\n        /* \"#utility.yul\":5510:5532   */\n      swap1\n      pop\n        /* \"#utility.yul\":5440:5539   */\n      swap2\n      swap1\n      pop\n      jump\t// out\n        /* \"#utility.yul\":5545:5714   */\n    tag_160:\n        /* \"#utility.yul\":5629:5640   */\n      0x00\n        /* \"#utility.yul\":5663:5669   */\n      dup3\n        /* \"#utility.yul\":5658:5661   */\n      dup3\n        /* \"#utility.yul\":5651:5670   */\n      mstore\n        /* \"#utility.yul\":5703:5707   */\n      0x20\n        /* \"#utility.yul\":5698:5701   */\n      dup3\n        /* \"#utility.yul\":5694:5708   */\n      add\n        /* \"#utility.yul\":5679:5708   */\n      swap1\n      pop\n        /* \"#utility.yul\":5545:5714   */\n      swap3\n      swap2\n      pop\n      pop\n      jump\t// out\n        /* \"#utility.yul\":5720:5966   */\n    tag_161:\n        /* \"#utility.yul\":5801:5802   */\n      0x00\n        /* \"#utility.yul\":5811:5924   */\n    tag_267:\n        /* \"#utility.yul\":5825:5831   */\n      dup4\n        /* \"#utility.yul\":5822:5823   */\n      dup2\n        /* \"#utility.yul\":5819:5832   */\n      lt\n        /* \"#utility.yul\":5811:5924   */\n      iszero\n      tag_269\n      jumpi\n        /* \"#utility.yul\":5910:5911   */\n      dup1\n        /* \"#utility.yul\":5905:5908   */\n      dup3\n        /* \"#utility.yul\":5901:5912   */\n      add\n        /* \"#utility.yul\":5895:5913   */\n      mload\n        /* \"#utility.yul\":5891:5892   */\n      dup2\n        /* \"#utility.yul\":5886:5889   */\n      dup5\n        /* \"#utility.yul\":5882:5893   */\n      add\n        /* \"#utility.yul\":5875:5914   */\n      mstore\n        /* \"#utility.yul\":5847:5849   */\n      0x20\n        /* \"#utility.yul\":5844:5845   */\n      dup2\n        /* \"#utility.yul\":5840:5850   */\n      add\n        /* \"#utility.yul\":5835:5850   */\n      swap1\n      pop\n        /* \"#utility.yul\":5811:5924   */\n      jump(tag_267)\n    tag_269:\n        /* \"#utility.yul\":5958:5959   */\n      0x00\n        /* \"#utility.yul\":5949:5955   */\n      dup5\n        /* \"#utility.yul\":5944:5947   */\n      dup5\n        /* \"#utility.yul\":5940:5956   */\n      add\n        /* \"#utility.yul\":5933:5960   */\n      mstore\n        /* \"#utility.yul\":5782:5966   */\n      pop\n        /* \"#utility.yul\":5720:5966   */\n      pop\n      pop\n      pop\n      jump\t// out\n        /* \"#utility.yul\":5972:6349   */\n    tag_162:\n        /* \"#utility.yul\":6060:6063   */\n      0x00\n        /* \"#utility.yul\":6088:6127   */\n      tag_271\n        /* \"#utility.yul\":6121:6126   */\n      dup3\n        /* \"#utility.yul\":6088:6127   */\n      tag_159\n      jump\t// in\n    tag_271:\n        /* \"#utility.yul\":6143:6214   */\n      tag_272\n        /* \"#utility.yul\":6207:6213   */\n      dup2\n        /* \"#utility.yul\":6202:6205   */\n      dup6\n        /* \"#utility.yul\":6143:6214   */\n      tag_160\n      jump\t// in\n    tag_272:\n        /* \"#utility.yul\":6136:6214   */\n      swap4\n      pop\n        /* \"#utility.yul\":6223:6288   */\n      tag_273\n        /* \"#utility.yul\":6281:6287   */\n      dup2\n        /* \"#utility.yul\":6276:6279   */\n      dup6\n        /* \"#utility.yul\":6269:6273   */\n      0x20\n        /* \"#utility.yul\":6262:6267   */\n      dup7\n        /* \"#utility.yul\":6258:6274   */\n      add\n        /* \"#utility.yul\":6223:6288   */\n      tag_161\n      jump\t// in\n    tag_273:\n        /* \"#utility.yul\":6313:6342   */\n      tag_274\n        /* \"#utility.yul\":6335:6341   */\n      dup2\n        /* \"#utility.yul\":6313:6342   */\n      tag_146\n      jump\t// in\n    tag_274:\n        /* \"#utility.yul\":6308:6311   */\n      dup5\n        /* \"#utility.yul\":6304:6343   */\n      add\n        /* \"#utility.yul\":6297:6343   */\n      swap2\n      pop\n        /* \"#utility.yul\":6064:6349   */\n      pop\n        /* \"#utility.yul\":5972:6349   */\n      swap3\n      swap2\n      pop\n      pop\n      jump\t// out\n        /* \"#utility.yul\":6355:7102   */\n    tag_46:\n        /* \"#utility.yul\":6576:6580   */\n      0x00\n        /* \"#utility.yul\":6614:6617   */\n      0xa0\n        /* \"#utility.yul\":6603:6612   */\n      dup3\n        /* \"#utility.yul\":6599:6618   */\n      add\n        /* \"#utility.yul\":6591:6618   */\n      swap1\n      pop\n        /* \"#utility.yul\":6628:6699   */\n      tag_276\n        /* \"#utility.yul\":6696:6697   */\n      0x00\n        /* \"#utility.yul\":6685:6694   */\n      dup4\n        /* \"#utility.yul\":6681:6698   */\n      add\n        /* \"#utility.yul\":6672:6678   */\n      dup9\n        /* \"#utility.yul\":6628:6699   */\n      tag_156\n      jump\t// in\n    tag_276:\n        /* \"#utility.yul\":6709:6781   */\n      tag_277\n        /* \"#utility.yul\":6777:6779   */\n      0x20\n        /* \"#utility.yul\":6766:6775   */\n      dup4\n        /* \"#utility.yul\":6762:6780   */\n      add\n        /* \"#utility.yul\":6753:6759   */\n      dup8\n        /* \"#utility.yul\":6709:6781   */\n      tag_138\n      jump\t// in\n    tag_277:\n        /* \"#utility.yul\":6791:6863   */\n      tag_278\n        /* \"#utility.yul\":6859:6861   */\n      0x40\n        /* \"#utility.yul\":6848:6857   */\n      dup4\n        /* \"#utility.yul\":6844:6862   */\n      add\n        /* \"#utility.yul\":6835:6841   */\n      dup7\n        /* \"#utility.yul\":6791:6863   */\n      tag_138\n      jump\t// in\n    tag_278:\n        /* \"#utility.yul\":6910:6919   */\n      dup2\n        /* \"#utility.yul\":6904:6908   */\n      dup2\n        /* \"#utility.yul\":6900:6920   */\n      sub\n        /* \"#utility.yul\":6895:6897   */\n      0x60\n        /* \"#utility.yul\":6884:6893   */\n      dup4\n        /* \"#utility.yul\":6880:6898   */\n      add\n        /* \"#utility.yul\":6873:6921   */\n      mstore\n        /* \"#utility.yul\":6938:7016   */\n      tag_279\n        /* \"#utility.yul\":7011:7015   */\n      dup2\n        /* \"#utility.yul\":7002:7008   */\n      dup6\n        /* \"#utility.yul\":6938:7016   */\n      tag_162\n      jump\t// in\n    tag_279:\n        /* \"#utility.yul\":6930:7016   */\n      swap1\n      pop\n        /* \"#utility.yul\":7026:7095   */\n      tag_280\n        /* \"#utility.yul\":7090:7093   */\n      0x80\n        /* \"#utility.yul\":7079:7088   */\n      dup4\n        /* \"#utility.yul\":7075:7094   */\n      add\n        /* \"#utility.yul\":7066:7072   */\n      dup5\n        /* \"#utility.yul\":7026:7095   */\n      tag_140\n      jump\t// in\n    tag_280:\n        /* \"#utility.yul\":6355:7102   */\n      swap7\n      swap6\n      pop\n      pop\n      pop\n      pop\n      pop\n      pop\n      jump\t// out\n        /* \"#utility.yul\":7108:7230   */\n    tag_163:\n        /* \"#utility.yul\":7181:7205   */\n      tag_282\n        /* \"#utility.yul\":7199:7204   */\n      dup2\n        /* \"#utility.yul\":7181:7205   */\n      tag_137\n      jump\t// in\n    tag_282:\n        /* \"#utility.yul\":7174:7179   */\n      dup2\n        /* \"#utility.yul\":7171:7206   */\n      eq\n        /* \"#utility.yul\":7161:7224   */\n      tag_283\n      jumpi\n        /* \"#utility.yul\":7220:7221   */\n      0x00\n        /* \"#utility.yul\":7217:7218   */\n      dup1\n        /* \"#utility.yul\":7210:7222   */\n      revert\n        /* \"#utility.yul\":7161:7224   */\n    tag_283:\n        /* \"#utility.yul\":7108:7230   */\n      pop\n      jump\t// out\n        /* \"#utility.yul\":7236:7375   */\n    tag_164:\n        /* \"#utility.yul\":7282:7287   */\n      0x00\n        /* \"#utility.yul\":7320:7326   */\n      dup2\n        /* \"#utility.yul\":7307:7327   */\n      calldataload\n        /* \"#utility.yul\":7298:7327   */\n      swap1\n      pop\n        /* \"#utility.yul\":7336:7369   */\n      tag_285\n        /* \"#utility.yul\":7363:7368   */\n      dup2\n        /* \"#utility.yul\":7336:7369   */\n      tag_163\n      jump\t// in\n    tag_285:\n        /* \"#utility.yul\":7236:7375   */\n      swap3\n      swap2\n      pop\n      pop\n      jump\t// out\n        /* \"#utility.yul\":7381:7710   */\n    tag_50:\n        /* \"#utility.yul\":7440:7446   */\n      0x00\n        /* \"#utility.yul\":7489:7491   */\n      0x20\n        /* \"#utility.yul\":7477:7486   */\n      dup3\n        /* \"#utility.yul\":7468:7475   */\n      dup5\n        /* \"#utility.yul\":7464:7487   */\n      sub\n        /* \"#utility.yul\":7460:7492   */\n      slt\n        /* \"#utility.yul\":7457:7576   */\n      iszero\n      tag_287\n      jumpi\n        /* \"#utility.yul\":7495:7574   */\n      tag_288\n      tag_142\n      jump\t// in\n    tag_288:\n        /* \"#utility.yul\":7457:7576   */\n    tag_287:\n        /* \"#utility.yul\":7615:7616   */\n      0x00\n        /* \"#utility.yul\":7640:7693   */\n      tag_289\n        /* \"#utility.yul\":7685:7692   */\n      dup5\n        /* \"#utility.yul\":7676:7682   */\n      dup3\n        /* \"#utility.yul\":7665:7674   */\n      dup6\n        /* \"#utility.yul\":7661:7683   */\n      add\n        /* \"#utility.yul\":7640:7693   */\n      tag_164\n      jump\t// in\n    tag_289:\n        /* \"#utility.yul\":7630:7693   */\n      swap2\n      pop\n        /* \"#utility.yul\":7586:7703   */\n      pop\n        /* \"#utility.yul\":7381:7710   */\n      swap3\n      swap2\n      pop\n      pop\n      jump\t// out\n        /* \"#utility.yul\":7716:8041   */\n    tag_62:\n        /* \"#utility.yul\":7773:7779   */\n      0x00\n        /* \"#utility.yul\":7822:7824   */\n      0x20\n        /* \"#utility.yul\":7810:7819   */\n      dup3\n        /* \"#utility.yul\":7801:7808   */\n      dup5\n        /* \"#utility.yul\":7797:7820   */\n      sub\n        /* \"#utility.yul\":7793:7825   */\n      slt\n        /* \"#utility.yul\":7790:7909   */\n      iszero\n      tag_291\n      jumpi\n        /* \"#utility.yul\":7828:7907   */\n      tag_292\n      tag_142\n      jump\t// in\n    tag_292:\n        /* \"#utility.yul\":7790:7909   */\n    tag_291:\n        /* \"#utility.yul\":7948:7949   */\n      0x00\n        /* \"#utility.yul\":7973:8024   */\n      tag_293\n        /* \"#utility.yul\":8016:8023   */\n      dup5\n        /* \"#utility.yul\":8007:8013   */\n      dup3\n        /* \"#utility.yul\":7996:8005   */\n      dup6\n        /* \"#utility.yul\":7992:8014   */\n      add\n        /* \"#utility.yul\":7973:8024   */\n      tag_158\n      jump\t// in\n    tag_293:\n        /* \"#utility.yul\":7963:8024   */\n      swap2\n      pop\n        /* \"#utility.yul\":7919:8034   */\n      pop\n        /* \"#utility.yul\":7716:8041   */\n      swap3\n      swap2\n      pop\n      pop\n      jump\t// out\n        /* \"#utility.yul\":8047:8217   */\n    tag_165:\n        /* \"#utility.yul\":8187:8209   */\n      0x596f7520617265206e6f742061206d6173746572000000000000000000000000\n        /* \"#utility.yul\":8183:8184   */\n      0x00\n        /* \"#utility.yul\":8175:8181   */\n      dup3\n        /* \"#utility.yul\":8171:8185   */\n      add\n        /* \"#utility.yul\":8164:8210   */\n      mstore\n        /* \"#utility.yul\":8047:8217   */\n      pop\n      jump\t// out\n        /* \"#utility.yul\":8223:8589   */\n    tag_166:\n        /* \"#utility.yul\":8365:8368   */\n      0x00\n        /* \"#utility.yul\":8386:8453   */\n      tag_296\n        /* \"#utility.yul\":8450:8452   */\n      0x14\n        /* \"#utility.yul\":8445:8448   */\n      dup4\n        /* \"#utility.yul\":8386:8453   */\n      tag_160\n      jump\t// in\n    tag_296:\n        /* \"#utility.yul\":8379:8453   */\n      swap2\n      pop\n        /* \"#utility.yul\":8462:8555   */\n      tag_297\n        /* \"#utility.yul\":8551:8554   */\n      dup3\n        /* \"#utility.yul\":8462:8555   */\n      tag_165\n      jump\t// in\n    tag_297:\n        /* \"#utility.yul\":8580:8582   */\n      0x20\n        /* \"#utility.yul\":8575:8578   */\n      dup3\n        /* \"#utility.yul\":8571:8583   */\n      add\n        /* \"#utility.yul\":8564:8583   */\n      swap1\n      pop\n        /* \"#utility.yul\":8223:8589   */\n      swap2\n      swap1\n      pop\n      jump\t// out\n        /* \"#utility.yul\":8595:9014   */\n    tag_68:\n        /* \"#utility.yul\":8761:8765   */\n      0x00\n        /* \"#utility.yul\":8799:8801   */\n      0x20\n        /* \"#utility.yul\":8788:8797   */\n      dup3\n        /* \"#utility.yul\":8784:8802   */\n      add\n        /* \"#utility.yul\":8776:8802   */\n      swap1\n      pop\n        /* \"#utility.yul\":8848:8857   */\n      dup2\n        /* \"#utility.yul\":8842:8846   */\n      dup2\n        /* \"#utility.yul\":8838:8858   */\n      sub\n        /* \"#utility.yul\":8834:8835   */\n      0x00\n        /* \"#utility.yul\":8823:8832   */\n      dup4\n        /* \"#utility.yul\":8819:8836   */\n      add\n        /* \"#utility.yul\":8812:8859   */\n      mstore\n        /* \"#utility.yul\":8876:9007   */\n      tag_299\n        /* \"#utility.yul\":9002:9006   */\n      dup2\n        /* \"#utility.yul\":8876:9007   */\n      tag_166\n      jump\t// in\n    tag_299:\n        /* \"#utility.yul\":8868:9007   */\n      swap1\n      pop\n        /* \"#utility.yul\":8595:9014   */\n      swap2\n      swap1\n      pop\n      jump\t// out\n        /* \"#utility.yul\":9020:9168   */\n    tag_167:\n        /* \"#utility.yul\":9122:9133   */\n      0x00\n        /* \"#utility.yul\":9159:9162   */\n      dup2\n        /* \"#utility.yul\":9144:9162   */\n      swap1\n      pop\n        /* \"#utility.yul\":9020:9168   */\n      swap3\n      swap2\n      pop\n      pop\n      jump\t// out\n        /* \"#utility.yul\":9174:9564   */\n    tag_168:\n        /* \"#utility.yul\":9280:9283   */\n      0x00\n        /* \"#utility.yul\":9308:9347   */\n      tag_302\n        /* \"#utility.yul\":9341:9346   */\n      dup3\n        /* \"#utility.yul\":9308:9347   */\n      tag_159\n      jump\t// in\n    tag_302:\n        /* \"#utility.yul\":9363:9452   */\n      tag_303\n        /* \"#utility.yul\":9445:9451   */\n      dup2\n        /* \"#utility.yul\":9440:9443   */\n      dup6\n        /* \"#utility.yul\":9363:9452   */\n      tag_167\n      jump\t// in\n    tag_303:\n        /* \"#utility.yul\":9356:9452   */\n      swap4\n      pop\n        /* \"#utility.yul\":9461:9526   */\n      tag_304\n        /* \"#utility.yul\":9519:9525   */\n      dup2\n        /* \"#utility.yul\":9514:9517   */\n      dup6\n        /* \"#utility.yul\":9507:9511   */\n      0x20\n        /* \"#utility.yul\":9500:9505   */\n      dup7\n        /* \"#utility.yul\":9496:9512   */\n      add\n        /* \"#utility.yul\":9461:9526   */\n      tag_161\n      jump\t// in\n    tag_304:\n        /* \"#utility.yul\":9551:9557   */\n      dup1\n        /* \"#utility.yul\":9546:9549   */\n      dup5\n        /* \"#utility.yul\":9542:9558   */\n      add\n        /* \"#utility.yul\":9535:9558   */\n      swap2\n      pop\n        /* \"#utility.yul\":9284:9564   */\n      pop\n        /* \"#utility.yul\":9174:9564   */\n      swap3\n      swap2\n      pop\n      pop\n      jump\t// out\n        /* \"#utility.yul\":9570:9845   */\n    tag_74:\n        /* \"#utility.yul\":9702:9705   */\n      0x00\n        /* \"#utility.yul\":9724:9819   */\n      tag_306\n        /* \"#utility.yul\":9815:9818   */\n      dup3\n        /* \"#utility.yul\":9806:9812   */\n      dup5\n        /* \"#utility.yul\":9724:9819   */\n      tag_168\n      jump\t// in\n    tag_306:\n        /* \"#utility.yul\":9717:9819   */\n      swap2\n      pop\n        /* \"#utility.yul\":9836:9839   */\n      dup2\n        /* \"#utility.yul\":9829:9839   */\n      swap1\n      pop\n        /* \"#utility.yul\":9570:9845   */\n      swap3\n      swap2\n      pop\n      pop\n      jump\t// out\n        /* \"#utility.yul\":9851:10029   */\n    tag_169:\n        /* \"#utility.yul\":9991:10021   */\n      0x446f6d61696e20697320616c7265616479207265676973746572656400000000\n        /* \"#utility.yul\":9987:9988   */\n      0x00\n        /* \"#utility.yul\":9979:9985   */\n      dup3\n        /* \"#utility.yul\":9975:9989   */\n      add\n        /* \"#utility.yul\":9968:10022   */\n      mstore\n        /* \"#utility.yul\":9851:10029   */\n      pop\n      jump\t// out\n        /* \"#utility.yul\":10035:10401   */\n    tag_170:\n        /* \"#utility.yul\":10177:10180   */\n      0x00\n        /* \"#utility.yul\":10198:10265   */\n      tag_309\n        /* \"#utility.yul\":10262:10264   */\n      0x1c\n        /* \"#utility.yul\":10257:10260   */\n      dup4\n        /* \"#utility.yul\":10198:10265   */\n      tag_160\n      jump\t// in\n    tag_309:\n        /* \"#utility.yul\":10191:10265   */\n      swap2\n      pop\n        /* \"#utility.yul\":10274:10367   */\n      tag_310\n        /* \"#utility.yul\":10363:10366   */\n      dup3\n        /* \"#utility.yul\":10274:10367   */\n      tag_169\n      jump\t// in\n    tag_310:\n        /* \"#utility.yul\":10392:10394   */\n      0x20\n        /* \"#utility.yul\":10387:10390   */\n      dup3\n        /* \"#utility.yul\":10383:10395   */\n      add\n        /* \"#utility.yul\":10376:10395   */\n      swap1\n      pop\n        /* \"#utility.yul\":10035:10401   */\n      swap2\n      swap1\n      pop\n      jump\t// out\n        /* \"#utility.yul\":10407:10826   */\n    tag_79:\n        /* \"#utility.yul\":10573:10577   */\n      0x00\n        /* \"#utility.yul\":10611:10613   */\n      0x20\n        /* \"#utility.yul\":10600:10609   */\n      dup3\n        /* \"#utility.yul\":10596:10614   */\n      add\n        /* \"#utility.yul\":10588:10614   */\n      swap1\n      pop\n        /* \"#utility.yul\":10660:10669   */\n      dup2\n        /* \"#utility.yul\":10654:10658   */\n      dup2\n        /* \"#utility.yul\":10650:10670   */\n      sub\n        /* \"#utility.yul\":10646:10647   */\n      0x00\n        /* \"#utility.yul\":10635:10644   */\n      dup4\n        /* \"#utility.yul\":10631:10648   */\n      add\n        /* \"#utility.yul\":10624:10671   */\n      mstore\n        /* \"#utility.yul\":10688:10819   */\n      tag_312\n        /* \"#utility.yul\":10814:10818   */\n      dup2\n        /* \"#utility.yul\":10688:10819   */\n      tag_170\n      jump\t// in\n    tag_312:\n        /* \"#utility.yul\":10680:10819   */\n      swap1\n      pop\n        /* \"#utility.yul\":10407:10826   */\n      swap2\n      swap1\n      pop\n      jump\t// out\n        /* \"#utility.yul\":10832:10925   */\n    tag_171:\n        /* \"#utility.yul\":10868:10875   */\n      0x00\n        /* \"#utility.yul\":10908:10918   */\n      0xffffffff\n        /* \"#utility.yul\":10901:10906   */\n      dup3\n        /* \"#utility.yul\":10897:10919   */\n      and\n        /* \"#utility.yul\":10886:10919   */\n      swap1\n      pop\n        /* \"#utility.yul\":10832:10925   */\n      swap2\n      swap1\n      pop\n      jump\t// out\n        /* \"#utility.yul\":10931:11111   */\n    tag_172:\n        /* \"#utility.yul\":10979:11056   */\n      0x4e487b7100000000000000000000000000000000000000000000000000000000\n        /* \"#utility.yul\":10976:10977   */\n      0x00\n        /* \"#utility.yul\":10969:11057   */\n      mstore\n        /* \"#utility.yul\":11076:11080   */\n      0x11\n        /* \"#utility.yul\":11073:11074   */\n      0x04\n        /* \"#utility.yul\":11066:11081   */\n      mstore\n        /* \"#utility.yul\":11100:11104   */\n      0x24\n        /* \"#utility.yul\":11097:11098   */\n      0x00\n        /* \"#utility.yul\":11090:11105   */\n      revert\n        /* \"#utility.yul\":11117:11392   */\n    tag_82:\n        /* \"#utility.yul\":11156:11163   */\n      0x00\n        /* \"#utility.yul\":11179:11198   */\n      tag_316\n        /* \"#utility.yul\":11196:11197   */\n      dup3\n        /* \"#utility.yul\":11179:11198   */\n      tag_171\n      jump\t// in\n    tag_316:\n        /* \"#utility.yul\":11174:11198   */\n      swap2\n      pop\n        /* \"#utility.yul\":11212:11231   */\n      tag_317\n        /* \"#utility.yul\":11229:11230   */\n      dup4\n        /* \"#utility.yul\":11212:11231   */\n      tag_171\n      jump\t// in\n    tag_317:\n        /* \"#utility.yul\":11207:11231   */\n      swap3\n      pop\n        /* \"#utility.yul\":11266:11267   */\n      dup3\n        /* \"#utility.yul\":11263:11264   */\n      dup3\n        /* \"#utility.yul\":11259:11268   */\n      mul\n        /* \"#utility.yul\":11288:11317   */\n      tag_318\n        /* \"#utility.yul\":11305:11316   */\n      dup2\n        /* \"#utility.yul\":11288:11317   */\n      tag_171\n      jump\t// in\n    tag_318:\n        /* \"#utility.yul\":11277:11317   */\n      swap2\n      pop\n        /* \"#utility.yul\":11349:11360   */\n      dup1\n        /* \"#utility.yul\":11340:11347   */\n      dup3\n        /* \"#utility.yul\":11337:11361   */\n      eq\n        /* \"#utility.yul\":11327:11385   */\n      tag_319\n      jumpi\n        /* \"#utility.yul\":11365:11383   */\n      tag_320\n      tag_172\n      jump\t// in\n    tag_320:\n        /* \"#utility.yul\":11327:11385   */\n    tag_319:\n        /* \"#utility.yul\":11164:11392   */\n      pop\n        /* \"#utility.yul\":11117:11392   */\n      swap3\n      swap2\n      pop\n      pop\n      jump\t// out\n        /* \"#utility.yul\":11398:11589   */\n    tag_85:\n        /* \"#utility.yul\":11438:11441   */\n      0x00\n        /* \"#utility.yul\":11457:11477   */\n      tag_322\n        /* \"#utility.yul\":11475:11476   */\n      dup3\n        /* \"#utility.yul\":11457:11477   */\n      tag_137\n      jump\t// in\n    tag_322:\n        /* \"#utility.yul\":11452:11477   */\n      swap2\n      pop\n        /* \"#utility.yul\":11491:11511   */\n      tag_323\n        /* \"#utility.yul\":11509:11510   */\n      dup4\n        /* \"#utility.yul\":11491:11511   */\n      tag_137\n      jump\t// in\n    tag_323:\n        /* \"#utility.yul\":11486:11511   */\n      swap3\n      pop\n        /* \"#utility.yul\":11534:11535   */\n      dup3\n        /* \"#utility.yul\":11531:11532   */\n      dup3\n        /* \"#utility.yul\":11527:11536   */\n      add\n        /* \"#utility.yul\":11520:11536   */\n      swap1\n      pop\n        /* \"#utility.yul\":11555:11558   */\n      dup1\n        /* \"#utility.yul\":11552:11553   */\n      dup3\n        /* \"#utility.yul\":11549:11559   */\n      gt\n        /* \"#utility.yul\":11546:11582   */\n      iszero\n      tag_324\n      jumpi\n        /* \"#utility.yul\":11562:11580   */\n      tag_325\n      tag_172\n      jump\t// in\n    tag_325:\n        /* \"#utility.yul\":11546:11582   */\n    tag_324:\n        /* \"#utility.yul\":11398:11589   */\n      swap3\n      swap2\n      pop\n      pop\n      jump\t// out\n        /* \"#utility.yul\":11595:11817   */\n    tag_173:\n        /* \"#utility.yul\":11735:11769   */\n      0x446f6d61696e20726567697374726174696f6e20686173206e6f742065787069\n        /* \"#utility.yul\":11731:11732   */\n      0x00\n        /* \"#utility.yul\":11723:11729   */\n      dup3\n        /* \"#utility.yul\":11719:11733   */\n      add\n        /* \"#utility.yul\":11712:11770   */\n      mstore\n        /* \"#utility.yul\":11804:11809   */\n      0x7265640000000000000000000000000000000000000000000000000000000000\n        /* \"#utility.yul\":11799:11801   */\n      0x20\n        /* \"#utility.yul\":11791:11797   */\n      dup3\n        /* \"#utility.yul\":11787:11802   */\n      add\n        /* \"#utility.yul\":11780:11810   */\n      mstore\n        /* \"#utility.yul\":11595:11817   */\n      pop\n      jump\t// out\n        /* \"#utility.yul\":11823:12189   */\n    tag_174:\n        /* \"#utility.yul\":11965:11968   */\n      0x00\n        /* \"#utility.yul\":11986:12053   */\n      tag_328\n        /* \"#utility.yul\":12050:12052   */\n      0x23\n        /* \"#utility.yul\":12045:12048   */\n      dup4\n        /* \"#utility.yul\":11986:12053   */\n      tag_160\n      jump\t// in\n    tag_328:\n        /* \"#utility.yul\":11979:12053   */\n      swap2\n      pop\n        /* \"#utility.yul\":12062:12155   */\n      tag_329\n        /* \"#utility.yul\":12151:12154   */\n      dup3\n        /* \"#utility.yul\":12062:12155   */\n      tag_173\n      jump\t// in\n    tag_329:\n        /* \"#utility.yul\":12180:12182   */\n      0x40\n        /* \"#utility.yul\":12175:12178   */\n      dup3\n        /* \"#utility.yul\":12171:12183   */\n      add\n        /* \"#utility.yul\":12164:12183   */\n      swap1\n      pop\n        /* \"#utility.yul\":11823:12189   */\n      swap2\n      swap1\n      pop\n      jump\t// out\n        /* \"#utility.yul\":12195:12614   */\n    tag_88:\n        /* \"#utility.yul\":12361:12365   */\n      0x00\n        /* \"#utility.yul\":12399:12401   */\n      0x20\n        /* \"#utility.yul\":12388:12397   */\n      dup3\n        /* \"#utility.yul\":12384:12402   */\n      add\n        /* \"#utility.yul\":12376:12402   */\n      swap1\n      pop\n        /* \"#utility.yul\":12448:12457   */\n      dup2\n        /* \"#utility.yul\":12442:12446   */\n      dup2\n        /* \"#utility.yul\":12438:12458   */\n      sub\n        /* \"#utility.yul\":12434:12435   */\n      0x00\n        /* \"#utility.yul\":12423:12432   */\n      dup4\n        /* \"#utility.yul\":12419:12436   */\n      add\n        /* \"#utility.yul\":12412:12459   */\n      mstore\n        /* \"#utility.yul\":12476:12607   */\n      tag_331\n        /* \"#utility.yul\":12602:12606   */\n      dup2\n        /* \"#utility.yul\":12476:12607   */\n      tag_174\n      jump\t// in\n    tag_331:\n        /* \"#utility.yul\":12468:12607   */\n      swap1\n      pop\n        /* \"#utility.yul\":12195:12614   */\n      swap2\n      swap1\n      pop\n      jump\t// out\n        /* \"#utility.yul\":12620:13030   */\n    tag_90:\n        /* \"#utility.yul\":12660:12667   */\n      0x00\n        /* \"#utility.yul\":12683:12703   */\n      tag_333\n        /* \"#utility.yul\":12701:12702   */\n      dup3\n        /* \"#utility.yul\":12683:12703   */\n      tag_137\n      jump\t// in\n    tag_333:\n        /* \"#utility.yul\":12678:12703   */\n      swap2\n      pop\n        /* \"#utility.yul\":12717:12737   */\n      tag_334\n        /* \"#utility.yul\":12735:12736   */\n      dup4\n        /* \"#utility.yul\":12717:12737   */\n      tag_137\n      jump\t// in\n    tag_334:\n        /* \"#utility.yul\":12712:12737   */\n      swap3\n      pop\n        /* \"#utility.yul\":12772:12773   */\n      dup3\n        /* \"#utility.yul\":12769:12770   */\n      dup3\n        /* \"#utility.yul\":12765:12774   */\n      mul\n        /* \"#utility.yul\":12794:12824   */\n      tag_335\n        /* \"#utility.yul\":12812:12823   */\n      dup2\n        /* \"#utility.yul\":12794:12824   */\n      tag_137\n      jump\t// in\n    tag_335:\n        /* \"#utility.yul\":12783:12824   */\n      swap2\n      pop\n        /* \"#utility.yul\":12973:12974   */\n      dup3\n        /* \"#utility.yul\":12964:12971   */\n      dup3\n        /* \"#utility.yul\":12960:12975   */\n      div\n        /* \"#utility.yul\":12957:12958   */\n      dup5\n        /* \"#utility.yul\":12954:12976   */\n      eq\n        /* \"#utility.yul\":12934:12935   */\n      dup4\n        /* \"#utility.yul\":12927:12936   */\n      iszero\n        /* \"#utility.yul\":12907:12990   */\n      or\n        /* \"#utility.yul\":12884:13023   */\n      tag_336\n      jumpi\n        /* \"#utility.yul\":13003:13021   */\n      tag_337\n      tag_172\n      jump\t// in\n    tag_337:\n        /* \"#utility.yul\":12884:13023   */\n    tag_336:\n        /* \"#utility.yul\":12668:13030   */\n      pop\n        /* \"#utility.yul\":12620:13030   */\n      swap3\n      swap2\n      pop\n      pop\n      jump\t// out\n        /* \"#utility.yul\":13036:13330   */\n    tag_175:\n        /* \"#utility.yul\":13176:13210   */\n      0x496e73756666696369656e742066756e64732e20436f7374203d206665652066\n        /* \"#utility.yul\":13172:13173   */\n      0x00\n        /* \"#utility.yul\":13164:13170   */\n      dup3\n        /* \"#utility.yul\":13160:13174   */\n      add\n        /* \"#utility.yul\":13153:13211   */\n      mstore\n        /* \"#utility.yul\":13245:13279   */\n      0x6f7220726567697374726174696f6e202b202872656e7420636f7374202a2079\n        /* \"#utility.yul\":13240:13242   */\n      0x20\n        /* \"#utility.yul\":13232:13238   */\n      dup3\n        /* \"#utility.yul\":13228:13243   */\n      add\n        /* \"#utility.yul\":13221:13280   */\n      mstore\n        /* \"#utility.yul\":13314:13322   */\n      0x6561727329200000000000000000000000000000000000000000000000000000\n        /* \"#utility.yul\":13309:13311   */\n      0x40\n        /* \"#utility.yul\":13301:13307   */\n      dup3\n        /* \"#utility.yul\":13297:13312   */\n      add\n        /* \"#utility.yul\":13290:13323   */\n      mstore\n        /* \"#utility.yul\":13036:13330   */\n      pop\n      jump\t// out\n        /* \"#utility.yul\":13336:13702   */\n    tag_176:\n        /* \"#utility.yul\":13478:13481   */\n      0x00\n        /* \"#utility.yul\":13499:13566   */\n      tag_340\n        /* \"#utility.yul\":13563:13565   */\n      0x46\n        /* \"#utility.yul\":13558:13561   */\n      dup4\n        /* \"#utility.yul\":13499:13566   */\n      tag_160\n      jump\t// in\n    tag_340:\n        /* \"#utility.yul\":13492:13566   */\n      swap2\n      pop\n        /* \"#utility.yul\":13575:13668   */\n      tag_341\n        /* \"#utility.yul\":13664:13667   */\n      dup3\n        /* \"#utility.yul\":13575:13668   */\n      tag_175\n      jump\t// in\n    tag_341:\n        /* \"#utility.yul\":13693:13695   */\n      0x60\n        /* \"#utility.yul\":13688:13691   */\n      dup3\n        /* \"#utility.yul\":13684:13696   */\n      add\n        /* \"#utility.yul\":13677:13696   */\n      swap1\n      pop\n        /* \"#utility.yul\":13336:13702   */\n      swap2\n      swap1\n      pop\n      jump\t// out\n        /* \"#utility.yul\":13708:14127   */\n    tag_94:\n        /* \"#utility.yul\":13874:13878   */\n      0x00\n        /* \"#utility.yul\":13912:13914   */\n      0x20\n        /* \"#utility.yul\":13901:13910   */\n      dup3\n        /* \"#utility.yul\":13897:13915   */\n      add\n        /* \"#utility.yul\":13889:13915   */\n      swap1\n      pop\n        /* \"#utility.yul\":13961:13970   */\n      dup2\n        /* \"#utility.yul\":13955:13959   */\n      dup2\n        /* \"#utility.yul\":13951:13971   */\n      sub\n        /* \"#utility.yul\":13947:13948   */\n      0x00\n        /* \"#utility.yul\":13936:13945   */\n      dup4\n        /* \"#utility.yul\":13932:13949   */\n      add\n        /* \"#utility.yul\":13925:13972   */\n      mstore\n        /* \"#utility.yul\":13989:14120   */\n      tag_343\n        /* \"#utility.yul\":14115:14119   */\n      dup2\n        /* \"#utility.yul\":13989:14120   */\n      tag_176\n      jump\t// in\n    tag_343:\n        /* \"#utility.yul\":13981:14120   */\n      swap1\n      pop\n        /* \"#utility.yul\":13708:14127   */\n      swap2\n      swap1\n      pop\n      jump\t// out\n        /* \"#utility.yul\":14133:14303   */\n    tag_177:\n        /* \"#utility.yul\":14273:14295   */\n      0x496e76616c6964207465726d206f662072656e74000000000000000000000000\n        /* \"#utility.yul\":14269:14270   */\n      0x00\n        /* \"#utility.yul\":14261:14267   */\n      dup3\n        /* \"#utility.yul\":14257:14271   */\n      add\n        /* \"#utility.yul\":14250:14296   */\n      mstore\n        /* \"#utility.yul\":14133:14303   */\n      pop\n      jump\t// out\n        /* \"#utility.yul\":14309:14675   */\n    tag_178:\n        /* \"#utility.yul\":14451:14454   */\n      0x00\n        /* \"#utility.yul\":14472:14539   */\n      tag_346\n        /* \"#utility.yul\":14536:14538   */\n      0x14\n        /* \"#utility.yul\":14531:14534   */\n      dup4\n        /* \"#utility.yul\":14472:14539   */\n      tag_160\n      jump\t// in\n    tag_346:\n        /* \"#utility.yul\":14465:14539   */\n      swap2\n      pop\n        /* \"#utility.yul\":14548:14641   */\n      tag_347\n        /* \"#utility.yul\":14637:14640   */\n      dup3\n        /* \"#utility.yul\":14548:14641   */\n      tag_177\n      jump\t// in\n    tag_347:\n        /* \"#utility.yul\":14666:14668   */\n      0x20\n        /* \"#utility.yul\":14661:14664   */\n      dup3\n        /* \"#utility.yul\":14657:14669   */\n      add\n        /* \"#utility.yul\":14650:14669   */\n      swap1\n      pop\n        /* \"#utility.yul\":14309:14675   */\n      swap2\n      swap1\n      pop\n      jump\t// out\n        /* \"#utility.yul\":14681:15100   */\n    tag_98:\n        /* \"#utility.yul\":14847:14851   */\n      0x00\n        /* \"#utility.yul\":14885:14887   */\n      0x20\n        /* \"#utility.yul\":14874:14883   */\n      dup3\n        /* \"#utility.yul\":14870:14888   */\n      add\n        /* \"#utility.yul\":14862:14888   */\n      swap1\n      pop\n        /* \"#utility.yul\":14934:14943   */\n      dup2\n        /* \"#utility.yul\":14928:14932   */\n      dup2\n        /* \"#utility.yul\":14924:14944   */\n      sub\n        /* \"#utility.yul\":14920:14921   */\n      0x00\n        /* \"#utility.yul\":14909:14918   */\n      dup4\n        /* \"#utility.yul\":14905:14922   */\n      add\n        /* \"#utility.yul\":14898:14945   */\n      mstore\n        /* \"#utility.yul\":14962:15093   */\n      tag_349\n        /* \"#utility.yul\":15088:15092   */\n      dup2\n        /* \"#utility.yul\":14962:15093   */\n      tag_178\n      jump\t// in\n    tag_349:\n        /* \"#utility.yul\":14954:15093   */\n      swap1\n      pop\n        /* \"#utility.yul\":14681:15100   */\n      swap2\n      swap1\n      pop\n      jump\t// out\n        /* \"#utility.yul\":15106:15286   */\n    tag_179:\n        /* \"#utility.yul\":15154:15231   */\n      0x4e487b7100000000000000000000000000000000000000000000000000000000\n        /* \"#utility.yul\":15151:15152   */\n      0x00\n        /* \"#utility.yul\":15144:15232   */\n      mstore\n        /* \"#utility.yul\":15251:15255   */\n      0x22\n        /* \"#utility.yul\":15248:15249   */\n      0x04\n        /* \"#utility.yul\":15241:15256   */\n      mstore\n        /* \"#utility.yul\":15275:15279   */\n      0x24\n        /* \"#utility.yul\":15272:15273   */\n      0x00\n        /* \"#utility.yul\":15265:15280   */\n      revert\n        /* \"#utility.yul\":15292:15612   */\n    tag_104:\n        /* \"#utility.yul\":15336:15342   */\n      0x00\n        /* \"#utility.yul\":15373:15374   */\n      0x02\n        /* \"#utility.yul\":15367:15371   */\n      dup3\n        /* \"#utility.yul\":15363:15375   */\n      div\n        /* \"#utility.yul\":15353:15375   */\n      swap1\n      pop\n        /* \"#utility.yul\":15420:15421   */\n      0x01\n        /* \"#utility.yul\":15414:15418   */\n      dup3\n        /* \"#utility.yul\":15410:15422   */\n      and\n        /* \"#utility.yul\":15441:15459   */\n      dup1\n        /* \"#utility.yul\":15431:15512   */\n      tag_352\n      jumpi\n        /* \"#utility.yul\":15497:15501   */\n      0x7f\n        /* \"#utility.yul\":15489:15495   */\n      dup3\n        /* \"#utility.yul\":15485:15502   */\n      and\n        /* \"#utility.yul\":15475:15502   */\n      swap2\n      pop\n        /* \"#utility.yul\":15431:15512   */\n    tag_352:\n        /* \"#utility.yul\":15559:15561   */\n      0x20\n        /* \"#utility.yul\":15551:15557   */\n      dup3\n        /* \"#utility.yul\":15548:15562   */\n      lt\n        /* \"#utility.yul\":15528:15546   */\n      dup2\n        /* \"#utility.yul\":15525:15563   */\n      sub\n        /* \"#utility.yul\":15522:15606   */\n      tag_353\n      jumpi\n        /* \"#utility.yul\":15578:15596   */\n      tag_354\n      tag_179\n      jump\t// in\n    tag_354:\n        /* \"#utility.yul\":15522:15606   */\n    tag_353:\n        /* \"#utility.yul\":15343:15612   */\n      pop\n        /* \"#utility.yul\":15292:15612   */\n      swap2\n      swap1\n      pop\n      jump\t// out\n        /* \"#utility.yul\":15618:15759   */\n    tag_180:\n        /* \"#utility.yul\":15667:15671   */\n      0x00\n        /* \"#utility.yul\":15690:15693   */\n      dup2\n        /* \"#utility.yul\":15682:15693   */\n      swap1\n      pop\n        /* \"#utility.yul\":15713:15716   */\n      dup2\n        /* \"#utility.yul\":15710:15711   */\n      0x00\n        /* \"#utility.yul\":15703:15717   */\n      mstore\n        /* \"#utility.yul\":15747:15751   */\n      0x20\n        /* \"#utility.yul\":15744:15745   */\n      0x00\n        /* \"#utility.yul\":15734:15752   */\n      keccak256\n        /* \"#utility.yul\":15726:15752   */\n      swap1\n      pop\n        /* \"#utility.yul\":15618:15759   */\n      swap2\n      swap1\n      pop\n      jump\t// out\n        /* \"#utility.yul\":15765:15858   */\n    tag_181:\n        /* \"#utility.yul\":15802:15808   */\n      0x00\n        /* \"#utility.yul\":15849:15851   */\n      0x20\n        /* \"#utility.yul\":15844:15846   */\n      0x1f\n        /* \"#utility.yul\":15837:15842   */\n      dup4\n        /* \"#utility.yul\":15833:15847   */\n      add\n        /* \"#utility.yul\":15829:15852   */\n      div\n        /* \"#utility.yul\":15819:15852   */\n      swap1\n      pop\n        /* \"#utility.yul\":15765:15858   */\n      swap2\n      swap1\n      pop\n      jump\t// out\n        /* \"#utility.yul\":15864:15971   */\n    tag_182:\n        /* \"#utility.yul\":15908:15916   */\n      0x00\n        /* \"#utility.yul\":15958:15963   */\n      dup3\n        /* \"#utility.yul\":15952:15956   */\n      dup3\n        /* \"#utility.yul\":15948:15964   */\n      shl\n        /* \"#utility.yul\":15927:15964   */\n      swap1\n      pop\n        /* \"#utility.yul\":15864:15971   */\n      swap3\n      swap2\n      pop\n      pop\n      jump\t// out\n        /* \"#utility.yul\":15977:16370   */\n    tag_183:\n        /* \"#utility.yul\":16046:16052   */\n      0x00\n        /* \"#utility.yul\":16096:16097   */\n      0x08\n        /* \"#utility.yul\":16084:16094   */\n      dup4\n        /* \"#utility.yul\":16080:16098   */\n      mul\n        /* \"#utility.yul\":16119:16216   */\n      tag_359\n        /* \"#utility.yul\":16149:16215   */\n      0xffffffffffffffffffffffffffffffffffffffffffffffffffffffffffffffff\n        /* \"#utility.yul\":16138:16147   */\n      dup3\n        /* \"#utility.yul\":16119:16216   */\n      tag_182\n      jump\t// in\n    tag_359:\n        /* \"#utility.yul\":16237:16276   */\n      tag_360\n        /* \"#utility.yul\":16267:16275   */\n      dup7\n        /* \"#utility.yul\":16256:16265   */\n      dup4\n        /* \"#utility.yul\":16237:16276   */\n      tag_182\n      jump\t// in\n    tag_360:\n        /* \"#utility.yul\":16225:16276   */\n      swap6\n      pop\n        /* \"#utility.yul\":16309:16313   */\n      dup1\n        /* \"#utility.yul\":16305:16314   */\n      not\n        /* \"#utility.yul\":16298:16303   */\n      dup5\n        /* \"#utility.yul\":16294:16315   */\n      and\n        /* \"#utility.yul\":16285:16315   */\n      swap4\n      pop\n        /* \"#utility.yul\":16358:16362   */\n      dup1\n        /* \"#utility.yul\":16348:16356   */\n      dup7\n        /* \"#utility.yul\":16344:16363   */\n      and\n        /* \"#utility.yul\":16337:16342   */\n      dup5\n        /* \"#utility.yul\":16334:16364   */\n      or\n        /* \"#utility.yul\":16324:16364   */\n      swap3\n      pop\n        /* \"#utility.yul\":16053:16370   */\n      pop\n      pop\n        /* \"#utility.yul\":15977:16370   */\n      swap4\n      swap3\n      pop\n      pop\n      pop\n      jump\t// out\n        /* \"#utility.yul\":16376:16436   */\n    tag_184:\n        /* \"#utility.yul\":16404:16407   */\n      0x00\n        /* \"#utility.yul\":16425:16430   */\n      dup2\n        /* \"#utility.yul\":16418:16430   */\n      swap1\n      pop\n        /* \"#utility.yul\":16376:16436   */\n      swap2\n      swap1\n      pop\n      jump\t// out\n        /* \"#utility.yul\":16442:16584   */\n    tag_185:\n        /* \"#utility.yul\":16492:16501   */\n      0x00\n        /* \"#utility.yul\":16525:16578   */\n      tag_363\n        /* \"#utility.yul\":16543:16577   */\n      tag_364\n        /* \"#utility.yul\":16552:16576   */\n      tag_365\n        /* \"#utility.yul\":16570:16575   */\n      dup5\n        /* \"#utility.yul\":16552:16576   */\n      tag_137\n      jump\t// in\n    tag_365:\n        /* \"#utility.yul\":16543:16577   */\n      tag_184\n      jump\t// in\n    tag_364:\n        /* \"#utility.yul\":16525:16578   */\n      tag_137\n      jump\t// in\n    tag_363:\n        /* \"#utility.yul\":16512:16578   */\n      swap1\n      pop\n        /* \"#utility.yul\":16442:16584   */\n      swap2\n      swap1\n      pop\n      jump\t// out\n        /* \"#utility.yul\":16590:16665   */\n    tag_186:\n        /* \"#utility.yul\":16633:16636   */\n      0x00\n        /* \"#utility.yul\":16654:16659   */\n      dup2\n        /* \"#utility.yul\":16647:16659   */\n      swap1\n      pop\n        /* \"#utility.yul\":16590:16665   */\n      swap2\n      swap1\n      pop\n      jump\t// out\n        /* \"#utility.yul\":16671:16940   */\n    tag_187:\n        /* \"#utility.yul\":16781:16820   */\n      tag_368\n        /* \"#utility.yul\":16812:16819   */\n      dup4\n        /* \"#utility.yul\":16781:16820   */\n      tag_185\n      jump\t// in\n    tag_368:\n        /* \"#utility.yul\":16842:16933   */\n      tag_369\n        /* \"#utility.yul\":16891:16932   */\n      tag_370\n        /* \"#utility.yul\":16915:16931   */\n      dup3\n        /* \"#utility.yul\":16891:16932   */\n      tag_186\n      jump\t// in\n    tag_370:\n        /* \"#utility.yul\":16883:16889   */\n      dup5\n        /* \"#utility.yul\":16876:16880   */\n      dup5\n        /* \"#utility.yul\":16870:16881   */\n      sload\n        /* \"#utility.yul\":16842:16933   */\n      tag_183\n      jump\t// in\n    tag_369:\n        /* \"#utility.yul\":16836:16840   */\n      dup3\n        /* \"#utility.yul\":16829:16934   */\n      sstore\n        /* \"#utility.yul\":16747:16940   */\n      pop\n        /* \"#utility.yul\":16671:16940   */\n      pop\n      pop\n      pop\n      jump\t// out\n        /* \"#utility.yul\":16946:17019   */\n    tag_188:\n        /* \"#utility.yul\":16991:16994   */\n      0x00\n        /* \"#utility.yul\":16946:17019   */\n      swap1\n      jump\t// out\n        /* \"#utility.yul\":17025:17214   */\n    tag_189:\n        /* \"#utility.yul\":17102:17134   */\n      tag_373\n      tag_188\n      jump\t// in\n    tag_373:\n        /* \"#utility.yul\":17143:17208   */\n      tag_374\n        /* \"#utility.yul\":17201:17207   */\n      dup2\n        /* \"#utility.yul\":17193:17199   */\n      dup5\n        /* \"#utility.yul\":17187:17191   */\n      dup5\n        /* \"#utility.yul\":17143:17208   */\n      tag_187\n      jump\t// in\n    tag_374:\n        /* \"#utility.yul\":17078:17214   */\n      pop\n        /* \"#utility.yul\":17025:17214   */\n      pop\n      pop\n      jump\t// out\n        /* \"#utility.yul\":17220:17406   */\n    tag_190:\n        /* \"#utility.yul\":17280:17400   */\n    tag_376:\n        /* \"#utility.yul\":17297:17300   */\n      dup2\n        /* \"#utility.yul\":17290:17295   */\n      dup2\n        /* \"#utility.yul\":17287:17301   */\n      lt\n        /* \"#utility.yul\":17280:17400   */\n      iszero\n      tag_378\n      jumpi\n        /* \"#utility.yul\":17351:17390   */\n      tag_379\n        /* \"#utility.yul\":17388:17389   */\n      0x00\n        /* \"#utility.yul\":17381:17386   */\n      dup3\n        /* \"#utility.yul\":17351:17390   */\n      tag_189\n      jump\t// in\n    tag_379:\n        /* \"#utility.yul\":17324:17325   */\n      0x01\n        /* \"#utility.yul\":17317:17322   */\n      dup2\n        /* \"#utility.yul\":17313:17326   */\n      add\n        /* \"#utility.yul\":17304:17326   */\n      swap1\n      pop\n        /* \"#utility.yul\":17280:17400   */\n      jump(tag_376)\n    tag_378:\n        /* \"#utility.yul\":17220:17406   */\n      pop\n      pop\n      jump\t// out\n        /* \"#utility.yul\":17412:17955   */\n    tag_191:\n        /* \"#utility.yul\":17513:17515   */\n      0x1f\n        /* \"#utility.yul\":17508:17511   */\n      dup3\n        /* \"#utility.yul\":17505:17516   */\n      gt\n        /* \"#utility.yul\":17502:17948   */\n      iszero\n      tag_381\n      jumpi\n        /* \"#utility.yul\":17547:17585   */\n      tag_382\n        /* \"#utility.yul\":17579:17584   */\n      dup2\n        /* \"#utility.yul\":17547:17585   */\n      tag_180\n      jump\t// in\n    tag_382:\n        /* \"#utility.yul\":17631:17660   */\n      tag_383\n        /* \"#utility.yul\":17649:17659   */\n      dup5\n        /* \"#utility.yul\":17631:17660   */\n      tag_181\n      jump\t// in\n    tag_383:\n        /* \"#utility.yul\":17621:17629   */\n      dup2\n        /* \"#utility.yul\":17617:17661   */\n      add\n        /* \"#utility.yul\":17814:17816   */\n      0x20\n        /* \"#utility.yul\":17802:17812   */\n      dup6\n        /* \"#utility.yul\":17799:17817   */\n      lt\n        /* \"#utility.yul\":17796:17845   */\n      iszero\n      tag_384\n      jumpi\n        /* \"#utility.yul\":17835:17843   */\n      dup2\n        /* \"#utility.yul\":17820:17843   */\n      swap1\n      pop\n        /* \"#utility.yul\":17796:17845   */\n    tag_384:\n        /* \"#utility.yul\":17858:17938   */\n      tag_385\n        /* \"#utility.yul\":17914:17936   */\n      tag_386\n        /* \"#utility.yul\":17932:17935   */\n      dup6\n        /* \"#utility.yul\":17914:17936   */\n      tag_181\n      jump\t// in\n    tag_386:\n        /* \"#utility.yul\":17904:17912   */\n      dup4\n        /* \"#utility.yul\":17900:17937   */\n      add\n        /* \"#utility.yul\":17887:17898   */\n      dup3\n        /* \"#utility.yul\":17858:17938   */\n      tag_190\n      jump\t// in\n    tag_385:\n        /* \"#utility.yul\":17517:17948   */\n      pop\n      pop\n        /* \"#utility.yul\":17502:17948   */\n    tag_381:\n        /* \"#utility.yul\":17412:17955   */\n      pop\n      pop\n      pop\n      jump\t// out\n        /* \"#utility.yul\":17961:18078   */\n    tag_192:\n        /* \"#utility.yul\":18015:18023   */\n      0x00\n        /* \"#utility.yul\":18065:18070   */\n      dup3\n        /* \"#utility.yul\":18059:18063   */\n      dup3\n        /* \"#utility.yul\":18055:18071   */\n      shr\n        /* \"#utility.yul\":18034:18071   */\n      swap1\n      pop\n        /* \"#utility.yul\":17961:18078   */\n      swap3\n      swap2\n      pop\n      pop\n      jump\t// out\n        /* \"#utility.yul\":18084:18253   */\n    tag_193:\n        /* \"#utility.yul\":18128:18134   */\n      0x00\n        /* \"#utility.yul\":18161:18212   */\n      tag_389\n        /* \"#utility.yul\":18209:18210   */\n      0x00\n        /* \"#utility.yul\":18205:18211   */\n      not\n        /* \"#utility.yul\":18197:18202   */\n      dup5\n        /* \"#utility.yul\":18194:18195   */\n      0x08\n        /* \"#utility.yul\":18190:18203   */\n      mul\n        /* \"#utility.yul\":18161:18212   */\n      tag_192\n      jump\t// in\n    tag_389:\n        /* \"#utility.yul\":18157:18213   */\n      not\n        /* \"#utility.yul\":18242:18246   */\n      dup1\n        /* \"#utility.yul\":18236:18240   */\n      dup4\n        /* \"#utility.yul\":18232:18247   */\n      and\n        /* \"#utility.yul\":18222:18247   */\n      swap2\n      pop\n        /* \"#utility.yul\":18135:18253   */\n      pop\n        /* \"#utility.yul\":18084:18253   */\n      swap3\n      swap2\n      pop\n      pop\n      jump\t// out\n        /* \"#utility.yul\":18258:18553   */\n    tag_194:\n        /* \"#utility.yul\":18334:18338   */\n      0x00\n        /* \"#utility.yul\":18480:18509   */\n      tag_391\n        /* \"#utility.yul\":18505:18508   */\n      dup4\n        /* \"#utility.yul\":18499:18503   */\n      dup4\n        /* \"#utility.yul\":18480:18509   */\n      tag_193\n      jump\t// in\n    tag_391:\n        /* \"#utility.yul\":18472:18509   */\n      swap2\n      pop\n        /* \"#utility.yul\":18542:18545   */\n      dup3\n        /* \"#utility.yul\":18539:18540   */\n      0x02\n        /* \"#utility.yul\":18535:18546   */\n      mul\n        /* \"#utility.yul\":18529:18533   */\n      dup3\n        /* \"#utility.yul\":18526:18547   */\n      or\n        /* \"#utility.yul\":18518:18547   */\n      swap1\n      pop\n        /* \"#utility.yul\":18258:18553   */\n      swap3\n      swap2\n      pop\n      pop\n      jump\t// out\n        /* \"#utility.yul\":18558:19953   */\n    tag_101:\n        /* \"#utility.yul\":18675:18712   */\n      tag_393\n        /* \"#utility.yul\":18708:18711   */\n      dup3\n        /* \"#utility.yul\":18675:18712   */\n      tag_159\n      jump\t// in\n    tag_393:\n        /* \"#utility.yul\":18777:18795   */\n      0xffffffffffffffff\n        /* \"#utility.yul\":18769:18775   */\n      dup2\n        /* \"#utility.yul\":18766:18796   */\n      gt\n        /* \"#utility.yul\":18763:18819   */\n      iszero\n      tag_394\n      jumpi\n        /* \"#utility.yul\":18799:18817   */\n      tag_395\n      tag_147\n      jump\t// in\n    tag_395:\n        /* \"#utility.yul\":18763:18819   */\n    tag_394:\n        /* \"#utility.yul\":18843:18881   */\n      tag_396\n        /* \"#utility.yul\":18875:18879   */\n      dup3\n        /* \"#utility.yul\":18869:18880   */\n      sload\n        /* \"#utility.yul\":18843:18881   */\n      tag_104\n      jump\t// in\n    tag_396:\n        /* \"#utility.yul\":18928:18995   */\n      tag_397\n        /* \"#utility.yul\":18988:18994   */\n      dup3\n        /* \"#utility.yul\":18980:18986   */\n      dup3\n        /* \"#utility.yul\":18974:18978   */\n      dup6\n        /* \"#utility.yul\":18928:18995   */\n      tag_191\n      jump\t// in\n    tag_397:\n        /* \"#utility.yul\":19022:19023   */\n      0x00\n        /* \"#utility.yul\":19046:19050   */\n      0x20\n        /* \"#utility.yul\":19033:19050   */\n      swap1\n      pop\n        /* \"#utility.yul\":19078:19080   */\n      0x1f\n        /* \"#utility.yul\":19070:19076   */\n      dup4\n        /* \"#utility.yul\":19067:19081   */\n      gt\n        /* \"#utility.yul\":19095:19096   */\n      0x01\n        /* \"#utility.yul\":19090:19708   */\n      dup2\n      eq\n      tag_399\n      jumpi\n        /* \"#utility.yul\":19752:19753   */\n      0x00\n        /* \"#utility.yul\":19769:19775   */\n      dup5\n        /* \"#utility.yul\":19766:19843   */\n      iszero\n      tag_400\n      jumpi\n        /* \"#utility.yul\":19818:19827   */\n      dup3\n        /* \"#utility.yul\":19813:19816   */\n      dup8\n        /* \"#utility.yul\":19809:19828   */\n      add\n        /* \"#utility.yul\":19803:19829   */\n      mload\n        /* \"#utility.yul\":19794:19829   */\n      swap1\n      pop\n        /* \"#utility.yul\":19766:19843   */\n    tag_400:\n        /* \"#utility.yul\":19869:19936   */\n      tag_401\n        /* \"#utility.yul\":19929:19935   */\n      dup6\n        /* \"#utility.yul\":19922:19927   */\n      dup3\n        /* \"#utility.yul\":19869:19936   */\n      tag_194\n      jump\t// in\n    tag_401:\n        /* \"#utility.yul\":19863:19867   */\n      dup7\n        /* \"#utility.yul\":19856:19937   */\n      sstore\n        /* \"#utility.yul\":19725:19947   */\n      pop\n        /* \"#utility.yul\":19060:19947   */\n      jump(tag_398)\n        /* \"#utility.yul\":19090:19708   */\n    tag_399:\n        /* \"#utility.yul\":19142:19146   */\n      0x1f\n        /* \"#utility.yul\":19138:19147   */\n      not\n        /* \"#utility.yul\":19130:19136   */\n      dup5\n        /* \"#utility.yul\":19126:19148   */\n      and\n        /* \"#utility.yul\":19176:19213   */\n      tag_402\n        /* \"#utility.yul\":19208:19212   */\n      dup7\n        /* \"#utility.yul\":19176:19213   */\n      tag_180\n      jump\t// in\n    tag_402:\n        /* \"#utility.yul\":19235:19236   */\n      0x00\n        /* \"#utility.yul\":19249:19457   */\n    tag_403:\n        /* \"#utility.yul\":19263:19270   */\n      dup3\n        /* \"#utility.yul\":19260:19261   */\n      dup2\n        /* \"#utility.yul\":19257:19271   */\n      lt\n        /* \"#utility.yul\":19249:19457   */\n      iszero\n      tag_405\n      jumpi\n        /* \"#utility.yul\":19342:19351   */\n      dup5\n        /* \"#utility.yul\":19337:19340   */\n      dup10\n        /* \"#utility.yul\":19333:19352   */\n      add\n        /* \"#utility.yul\":19327:19353   */\n      mload\n        /* \"#utility.yul\":19319:19325   */\n      dup3\n        /* \"#utility.yul\":19312:19354   */\n      sstore\n        /* \"#utility.yul\":19393:19394   */\n      0x01\n        /* \"#utility.yul\":19385:19391   */\n      dup3\n        /* \"#utility.yul\":19381:19395   */\n      add\n        /* \"#utility.yul\":19371:19395   */\n      swap2\n      pop\n        /* \"#utility.yul\":19440:19442   */\n      0x20\n        /* \"#utility.yul\":19429:19438   */\n      dup6\n        /* \"#utility.yul\":19425:19443   */\n      add\n        /* \"#utility.yul\":19412:19443   */\n      swap5\n      pop\n        /* \"#utility.yul\":19286:19290   */\n      0x20\n        /* \"#utility.yul\":19283:19284   */\n      dup2\n        /* \"#utility.yul\":19279:19291   */\n      add\n        /* \"#utility.yul\":19274:19291   */\n      swap1\n      pop\n        /* \"#utility.yul\":19249:19457   */\n      jump(tag_403)\n    tag_405:\n        /* \"#utility.yul\":19485:19491   */\n      dup7\n        /* \"#utility.yul\":19476:19483   */\n      dup4\n        /* \"#utility.yul\":19473:19492   */\n      lt\n        /* \"#utility.yul\":19470:19649   */\n      iszero\n      tag_406\n      jumpi\n        /* \"#utility.yul\":19543:19552   */\n      dup5\n        /* \"#utility.yul\":19538:19541   */\n      dup10\n        /* \"#utility.yul\":19534:19553   */\n      add\n        /* \"#utility.yul\":19528:19554   */\n      mload\n        /* \"#utility.yul\":19586:19634   */\n      tag_407\n        /* \"#utility.yul\":19628:19632   */\n      0x1f\n        /* \"#utility.yul\":19620:19626   */\n      dup10\n        /* \"#utility.yul\":19616:19633   */\n      and\n        /* \"#utility.yul\":19605:19614   */\n      dup3\n        /* \"#utility.yul\":19586:19634   */\n      tag_193\n      jump\t// in\n    tag_407:\n        /* \"#utility.yul\":19578:19584   */\n      dup4\n        /* \"#utility.yul\":19571:19635   */\n      sstore\n        /* \"#utility.yul\":19493:19649   */\n      pop\n        /* \"#utility.yul\":19470:19649   */\n    tag_406:\n        /* \"#utility.yul\":19695:19696   */\n      0x01\n        /* \"#utility.yul\":19691:19692   */\n      0x02\n        /* \"#utility.yul\":19683:19689   */\n      dup9\n        /* \"#utility.yul\":19679:19693   */\n      mul\n        /* \"#utility.yul\":19675:19697   */\n      add\n        /* \"#utility.yul\":19669:19673   */\n      dup9\n        /* \"#utility.yul\":19662:19698   */\n      sstore\n        /* \"#utility.yul\":19097:19708   */\n      pop\n      pop\n      pop\n        /* \"#utility.yul\":19060:19947   */\n    tag_398:\n      pop\n        /* \"#utility.yul\":18650:19953   */\n      pop\n      pop\n      pop\n        /* \"#utility.yul\":18558:19953   */\n      pop\n      pop\n      jump\t// out\n        /* \"#utility.yul\":19959:20182   */\n    tag_195:\n        /* \"#utility.yul\":20099:20133   */\n      0x446f6d61696e20646f6573206e6f742062656c6f6e6720746f20746865207365\n        /* \"#utility.yul\":20095:20096   */\n      0x00\n        /* \"#utility.yul\":20087:20093   */\n      dup3\n        /* \"#utility.yul\":20083:20097   */\n      add\n        /* \"#utility.yul\":20076:20134   */\n      mstore\n        /* \"#utility.yul\":20168:20174   */\n      0x6e64657200000000000000000000000000000000000000000000000000000000\n        /* \"#utility.yul\":20163:20165   */\n      0x20\n        /* \"#utility.yul\":20155:20161   */\n      dup3\n        /* \"#utility.yul\":20151:20166   */\n      add\n        /* \"#utility.yul\":20144:20175   */\n      mstore\n        /* \"#utility.yul\":19959:20182   */\n      pop\n      jump\t// out\n        /* \"#utility.yul\":20188:20554   */\n    tag_196:\n        /* \"#utility.yul\":20330:20333   */\n      0x00\n        /* \"#utility.yul\":20351:20418   */\n      tag_410\n        /* \"#utility.yul\":20415:20417   */\n      0x24\n        /* \"#utility.yul\":20410:20413   */\n      dup4\n        /* \"#utility.yul\":20351:20418   */\n      tag_160\n      jump\t// in\n    tag_410:\n        /* \"#utility.yul\":20344:20418   */\n      swap2\n      pop\n        /* \"#utility.yul\":20427:20520   */\n      tag_411\n        /* \"#utility.yul\":20516:20519   */\n      dup3\n        /* \"#utility.yul\":20427:20520   */\n      tag_195\n      jump\t// in\n    tag_411:\n        /* \"#utility.yul\":20545:20547   */\n      0x40\n        /* \"#utility.yul\":20540:20543   */\n      dup3\n        /* \"#utility.yul\":20536:20548   */\n      add\n        /* \"#utility.yul\":20529:20548   */\n      swap1\n      pop\n        /* \"#utility.yul\":20188:20554   */\n      swap2\n      swap1\n      pop\n      jump\t// out\n        /* \"#utility.yul\":20560:20979   */\n    tag_117:\n        /* \"#utility.yul\":20726:20730   */\n      0x00\n        /* \"#utility.yul\":20764:20766   */\n      0x20\n        /* \"#utility.yul\":20753:20762   */\n      dup3\n        /* \"#utility.yul\":20749:20767   */\n      add\n        /* \"#utility.yul\":20741:20767   */\n      swap1\n      pop\n        /* \"#utility.yul\":20813:20822   */\n      dup2\n        /* \"#utility.yul\":20807:20811   */\n      dup2\n        /* \"#utility.yul\":20803:20823   */\n      sub\n        /* \"#utility.yul\":20799:20800   */\n      0x00\n        /* \"#utility.yul\":20788:20797   */\n      dup4\n        /* \"#utility.yul\":20784:20801   */\n      add\n        /* \"#utility.yul\":20777:20824   */\n      mstore\n        /* \"#utility.yul\":20841:20972   */\n      tag_413\n        /* \"#utility.yul\":20967:20971   */\n      dup2\n        /* \"#utility.yul\":20841:20972   */\n      tag_196\n      jump\t// in\n    tag_413:\n        /* \"#utility.yul\":20833:20972   */\n      swap1\n      pop\n        /* \"#utility.yul\":20560:20979   */\n      swap2\n      swap1\n      pop\n      jump\t// out\n        /* \"#utility.yul\":20985:21236   */\n    tag_197:\n        /* \"#utility.yul\":21125:21159   */\n      0x496e73756666696369656e742066756e64732e20436f7374203d2072656e7420\n        /* \"#utility.yul\":21121:21122   */\n      0x00\n        /* \"#utility.yul\":21113:21119   */\n      dup3\n        /* \"#utility.yul\":21109:21123   */\n      add\n        /* \"#utility.yul\":21102:21160   */\n      mstore\n        /* \"#utility.yul\":21194:21228   */\n      0x636f7374202a207965617273202b20666565202a20636f656666696369656e74\n        /* \"#utility.yul\":21189:21191   */\n      0x20\n        /* \"#utility.yul\":21181:21187   */\n      dup3\n        /* \"#utility.yul\":21177:21192   */\n      add\n        /* \"#utility.yul\":21170:21229   */\n      mstore\n        /* \"#utility.yul\":20985:21236   */\n      pop\n      jump\t// out\n        /* \"#utility.yul\":21242:21608   */\n    tag_198:\n        /* \"#utility.yul\":21384:21387   */\n      0x00\n        /* \"#utility.yul\":21405:21472   */\n      tag_416\n        /* \"#utility.yul\":21469:21471   */\n      0x40\n        /* \"#utility.yul\":21464:21467   */\n      dup4\n        /* \"#utility.yul\":21405:21472   */\n      tag_160\n      jump\t// in\n    tag_416:\n        /* \"#utility.yul\":21398:21472   */\n      swap2\n      pop\n        /* \"#utility.yul\":21481:21574   */\n      tag_417\n        /* \"#utility.yul\":21570:21573   */\n      dup3\n        /* \"#utility.yul\":21481:21574   */\n      tag_197\n      jump\t// in\n    tag_417:\n        /* \"#utility.yul\":21599:21601   */\n      0x40\n        /* \"#utility.yul\":21594:21597   */\n      dup3\n        /* \"#utility.yul\":21590:21602   */\n      add\n        /* \"#utility.yul\":21583:21602   */\n      swap1\n      pop\n        /* \"#utility.yul\":21242:21608   */\n      swap2\n      swap1\n      pop\n      jump\t// out\n        /* \"#utility.yul\":21614:22033   */\n    tag_123:\n        /* \"#utility.yul\":21780:21784   */\n      0x00\n        /* \"#utility.yul\":21818:21820   */\n      0x20\n        /* \"#utility.yul\":21807:21816   */\n      dup3\n        /* \"#utility.yul\":21803:21821   */\n      add\n        /* \"#utility.yul\":21795:21821   */\n      swap1\n      pop\n        /* \"#utility.yul\":21867:21876   */\n      dup2\n        /* \"#utility.yul\":21861:21865   */\n      dup2\n        /* \"#utility.yul\":21857:21877   */\n      sub\n        /* \"#utility.yul\":21853:21854   */\n      0x00\n        /* \"#utility.yul\":21842:21851   */\n      dup4\n        /* \"#utility.yul\":21838:21855   */\n      add\n        /* \"#utility.yul\":21831:21878   */\n      mstore\n        /* \"#utility.yul\":21895:22026   */\n      tag_419\n        /* \"#utility.yul\":22021:22025   */\n      dup2\n        /* \"#utility.yul\":21895:22026   */\n      tag_198\n      jump\t// in\n    tag_419:\n        /* \"#utility.yul\":21887:22026   */\n      swap1\n      pop\n        /* \"#utility.yul\":21614:22033   */\n      swap2\n      swap1\n      pop\n      jump\t// out\n        /* \"#utility.yul\":22039:22227   */\n    tag_129:\n        /* \"#utility.yul\":22077:22080   */\n      0x00\n        /* \"#utility.yul\":22096:22114   */\n      tag_421\n        /* \"#utility.yul\":22112:22113   */\n      dup3\n        /* \"#utility.yul\":22096:22114   */\n      tag_139\n      jump\t// in\n    tag_421:\n        /* \"#utility.yul\":22091:22114   */\n      swap2\n      pop\n        /* \"#utility.yul\":22128:22146   */\n      tag_422\n        /* \"#utility.yul\":22144:22145   */\n      dup4\n        /* \"#utility.yul\":22128:22146   */\n      tag_139\n      jump\t// in\n    tag_422:\n        /* \"#utility.yul\":22123:22146   */\n      swap3\n      pop\n        /* \"#utility.yul\":22169:22170   */\n      dup3\n        /* \"#utility.yul\":22166:22167   */\n      dup3\n        /* \"#utility.yul\":22162:22171   */\n      add\n        /* \"#utility.yul\":22155:22171   */\n      swap1\n      pop\n        /* \"#utility.yul\":22192:22196   */\n      0xff\n        /* \"#utility.yul\":22187:22190   */\n      dup2\n        /* \"#utility.yul\":22184:22197   */\n      gt\n        /* \"#utility.yul\":22181:22220   */\n      iszero\n      tag_423\n      jumpi\n        /* \"#utility.yul\":22200:22218   */\n      tag_424\n      tag_172\n      jump\t// in\n    tag_424:\n        /* \"#utility.yul\":22181:22220   */\n    tag_423:\n        /* \"#utility.yul\":22039:22227   */\n      swap3\n      swap2\n      pop\n      pop\n      jump\t// out\n\n    auxdata: 0xa264697066735822122008bf2f3ee7413f67a8f0e9be297bf4e5cc6a248308edb202e107ac97df216fda64736f6c63430008160033\n}\n",
				"bytecode": {
					"linkReferences": {},
					"object": "6080604052671bc16d674ec800006001556002805f6101000a81548160ff021916908360ff160217905550670de0b6b3a7640000600455348015610041575f80fd5b50335f806101000a81548173ffffffffffffffffffffffffffffffffffffffff021916908373ffffffffffffffffffffffffffffffffffffffff1602179055506117528061008e5f395ff3fe60806040526004361061009b575f3560e01c8063753afc6a11610063578063753afc6a146101635780637f109dd31461017f578063826dfcb9146101bf57806398ed94bc146101e7578063ad7a672f14610203578063eae7cddc1461022d5761009b565b806312065fe01461009f57806324600fc3146100c95780632cb594a0146100d35780634b162f69146100fd57806368b64d1f14610127575b5f80fd5b3480156100aa575f80fd5b506100b3610255565b6040516100c09190610b3e565b60405180910390f35b6100d161025c565b005b3480156100de575f80fd5b506100e761033b565b6040516100f49190610b72565b60405180910390f35b348015610108575f80fd5b5061011161034d565b60405161011e9190610b3e565b60405180910390f35b348015610132575f80fd5b5061014d60048036038101906101489190610cd8565b610353565b60405161015a9190610d5e565b60405180910390f35b61017d60048036038101906101789190610da1565b61039b565b005b34801561018a575f80fd5b506101a560048036038101906101a09190610cd8565b6106bd565b6040516101b6959493929190610e75565b60405180910390f35b3480156101ca575f80fd5b506101e560048036038101906101e09190610ef7565b6107b8565b005b61020160048036038101906101fc9190610da1565b61084f565b005b34801561020e575f80fd5b50610217610a76565b6040516102249190610b3e565b60405180910390f35b348015610238575f80fd5b50610253600480360381019061024e9190610f22565b610a7c565b005b5f47905090565b5f8054906101000a900473ffffffffffffffffffffffffffffffffffffffff1673ffffffffffffffffffffffffffffffffffffffff163373ffffffffffffffffffffffffffffffffffffffff16146102e9576040517f08c379a00000000000000000000000000000000000000000000000000000000081526004016102e090610f97565b60405180910390fd5b5f3390508073ffffffffffffffffffffffffffffffffffffffff166108fc4790811502906040515f60405180830381858888f19350505050158015610330573d5f803e3d5ffd5b505f60058190555050565b60025f9054906101000a900460ff1681565b60015481565b5f6003826040516103649190610fef565b90815260200160405180910390205f015f9054906101000a900473ffffffffffffffffffffffffffffffffffffffff169050919050565b5f73ffffffffffffffffffffffffffffffffffffffff166003836040516103c29190610fef565b90815260200160405180910390205f015f9054906101000a900473ffffffffffffffffffffffffffffffffffffffff1673ffffffffffffffffffffffffffffffffffffffff1614610448576040517f08c379a000000000000000000000000000000000000000000000000000000000815260040161043f9061104f565b60405180910390fd5b6301e1338060038360405161045d9190610fef565b90815260200160405180910390206004015f9054906101000a900460ff1660ff1661048891906110a9565b63ffffffff1660038360405161049e9190610fef565b9081526020016040518091039020600101546104ba91906110e5565b42116104fb576040517f08c379a00000000000000000000000000000000000000000000000000000000081526004016104f290611188565b60405180910390fd5b6001548160ff1661050c91906111a6565b60045461051991906110e5565b34101561055b576040517f08c379a00000000000000000000000000000000000000000000000000000000081526004016105529061127d565b60405180910390fd5b60018160ff16101580156105735750600a8160ff1611155b6105b2576040517f08c379a00000000000000000000000000000000000000000000000000000000081526004016105a9906112e5565b60405180910390fd5b6040518060a001604052803373ffffffffffffffffffffffffffffffffffffffff1681526020014281526020013481526020018381526020018260ff168152506003836040516106029190610fef565b90815260200160405180910390205f820151815f015f6101000a81548173ffffffffffffffffffffffffffffffffffffffff021916908373ffffffffffffffffffffffffffffffffffffffff1602179055506020820151816001015560408201518160020155606082015181600301908161067d91906114fd565b506080820151816004015f6101000a81548160ff021916908360ff1602179055509050503460055f8282546106b291906110e5565b925050819055505050565b6003818051602081018201805184825260208301602085012081835280955050505050505f91509050805f015f9054906101000a900473ffffffffffffffffffffffffffffffffffffffff169080600101549080600201549080600301805461072590611330565b80601f016020809104026020016040519081016040528092919081815260200182805461075190611330565b801561079c5780601f106107735761010080835404028352916020019161079c565b820191905f5260205f20905b81548152906001019060200180831161077f57829003601f168201915b505050505090806004015f9054906101000a900460ff16905085565b5f8054906101000a900473ffffffffffffffffffffffffffffffffffffffff1673ffffffffffffffffffffffffffffffffffffffff163373ffffffffffffffffffffffffffffffffffffffff1614610845576040517f08c379a000000000000000000000000000000000000000000000000000000000815260040161083c90610f97565b60405180910390fd5b8060018190555050565b3373ffffffffffffffffffffffffffffffffffffffff166003836040516108769190610fef565b90815260200160405180910390205f015f9054906101000a900473ffffffffffffffffffffffffffffffffffffffff1673ffffffffffffffffffffffffffffffffffffffff16146108fc576040517f08c379a00000000000000000000000000000000000000000000000000000000081526004016108f39061163c565b60405180910390fd5b60025f9054906101000a900460ff1660ff1660045461091b91906111a6565b6001548260ff1661092c91906111a6565b61093691906110e5565b341015610978576040517f08c379a000000000000000000000000000000000000000000000000000000000815260040161096f906116ca565b60405180910390fd5b60018160ff16101580156109905750600a8160ff1611155b6109cf576040517f08c379a00000000000000000000000000000000000000000000000000000000081526004016109c6906112e5565b60405180910390fd5b806003836040516109e09190610fef565b90815260200160405180910390206004015f8282829054906101000a900460ff16610a0b91906116e8565b92506101000a81548160ff021916908360ff16021790555034600383604051610a349190610fef565b90815260200160405180910390206002015f828254610a5391906110e5565b925050819055503460055f828254610a6b91906110e5565b925050819055505050565b60055481565b5f8054906101000a900473ffffffffffffffffffffffffffffffffffffffff1673ffffffffffffffffffffffffffffffffffffffff163373ffffffffffffffffffffffffffffffffffffffff1614610b09576040517f08c379a0000000000000000000000000000000000000000000000000000000008152600401610b0090610f97565b60405180910390fd5b8060025f6101000a81548160ff021916908360ff16021790555050565b5f819050919050565b610b3881610b26565b82525050565b5f602082019050610b515f830184610b2f565b92915050565b5f60ff82169050919050565b610b6c81610b57565b82525050565b5f602082019050610b855f830184610b63565b92915050565b5f604051905090565b5f80fd5b5f80fd5b5f80fd5b5f80fd5b5f601f19601f8301169050919050565b7f4e487b71000000000000000000000000000000000000000000000000000000005f52604160045260245ffd5b610bea82610ba4565b810181811067ffffffffffffffff82111715610c0957610c08610bb4565b5b80604052505050565b5f610c1b610b8b565b9050610c278282610be1565b919050565b5f67ffffffffffffffff821115610c4657610c45610bb4565b5b610c4f82610ba4565b9050602081019050919050565b828183375f83830152505050565b5f610c7c610c7784610c2c565b610c12565b905082815260208101848484011115610c9857610c97610ba0565b5b610ca3848285610c5c565b509392505050565b5f82601f830112610cbf57610cbe610b9c565b5b8135610ccf848260208601610c6a565b91505092915050565b5f60208284031215610ced57610cec610b94565b5b5f82013567ffffffffffffffff811115610d0a57610d09610b98565b5b610d1684828501610cab565b91505092915050565b5f73ffffffffffffffffffffffffffffffffffffffff82169050919050565b5f610d4882610d1f565b9050919050565b610d5881610d3e565b82525050565b5f602082019050610d715f830184610d4f565b92915050565b610d8081610b57565b8114610d8a575f80fd5b50565b5f81359050610d9b81610d77565b92915050565b5f8060408385031215610db757610db6610b94565b5b5f83013567ffffffffffffffff811115610dd457610dd3610b98565b5b610de085828601610cab565b9250506020610df185828601610d8d565b9150509250929050565b5f81519050919050565b5f82825260208201905092915050565b5f5b83811015610e32578082015181840152602081019050610e17565b5f8484015250505050565b5f610e4782610dfb565b610e518185610e05565b9350610e61818560208601610e15565b610e6a81610ba4565b840191505092915050565b5f60a082019050610e885f830188610d4f565b610e956020830187610b2f565b610ea26040830186610b2f565b8181036060830152610eb48185610e3d565b9050610ec36080830184610b63565b9695505050505050565b610ed681610b26565b8114610ee0575f80fd5b50565b5f81359050610ef181610ecd565b92915050565b5f60208284031215610f0c57610f0b610b94565b5b5f610f1984828501610ee3565b91505092915050565b5f60208284031215610f3757610f36610b94565b5b5f610f4484828501610d8d565b91505092915050565b7f596f7520617265206e6f742061206d61737465720000000000000000000000005f82015250565b5f610f81601483610e05565b9150610f8c82610f4d565b602082019050919050565b5f6020820190508181035f830152610fae81610f75565b9050919050565b5f81905092915050565b5f610fc982610dfb565b610fd38185610fb5565b9350610fe3818560208601610e15565b80840191505092915050565b5f610ffa8284610fbf565b915081905092915050565b7f446f6d61696e20697320616c72656164792072656769737465726564000000005f82015250565b5f611039601c83610e05565b915061104482611005565b602082019050919050565b5f6020820190508181035f8301526110668161102d565b9050919050565b5f63ffffffff82169050919050565b7f4e487b71000000000000000000000000000000000000000000000000000000005f52601160045260245ffd5b5f6110b38261106d565b91506110be8361106d565b92508282026110cc8161106d565b91508082146110de576110dd61107c565b5b5092915050565b5f6110ef82610b26565b91506110fa83610b26565b92508282019050808211156111125761111161107c565b5b92915050565b7f446f6d61696e20726567697374726174696f6e20686173206e6f7420657870695f8201527f7265640000000000000000000000000000000000000000000000000000000000602082015250565b5f611172602383610e05565b915061117d82611118565b604082019050919050565b5f6020820190508181035f83015261119f81611166565b9050919050565b5f6111b082610b26565b91506111bb83610b26565b92508282026111c981610b26565b915082820484148315176111e0576111df61107c565b5b5092915050565b7f496e73756666696369656e742066756e64732e20436f7374203d2066656520665f8201527f6f7220726567697374726174696f6e202b202872656e7420636f7374202a207960208201527f6561727329200000000000000000000000000000000000000000000000000000604082015250565b5f611267604683610e05565b9150611272826111e7565b606082019050919050565b5f6020820190508181035f8301526112948161125b565b9050919050565b7f496e76616c6964207465726d206f662072656e740000000000000000000000005f82015250565b5f6112cf601483610e05565b91506112da8261129b565b602082019050919050565b5f6020820190508181035f8301526112fc816112c3565b9050919050565b7f4e487b71000000000000000000000000000000000000000000000000000000005f52602260045260245ffd5b5f600282049050600182168061134757607f821691505b60208210810361135a57611359611303565b5b50919050565b5f819050815f5260205f209050919050565b5f6020601f8301049050919050565b5f82821b905092915050565b5f600883026113bc7fffffffffffffffffffffffffffffffffffffffffffffffffffffffffffffffff82611381565b6113c68683611381565b95508019841693508086168417925050509392505050565b5f819050919050565b5f6114016113fc6113f784610b26565b6113de565b610b26565b9050919050565b5f819050919050565b61141a836113e7565b61142e61142682611408565b84845461138d565b825550505050565b5f90565b611442611436565b61144d818484611411565b505050565b5b81811015611470576114655f8261143a565b600181019050611453565b5050565b601f8211156114b55761148681611360565b61148f84611372565b8101602085101561149e578190505b6114b26114aa85611372565b830182611452565b50505b505050565b5f82821c905092915050565b5f6114d55f19846008026114ba565b1980831691505092915050565b5f6114ed83836114c6565b9150826002028217905092915050565b61150682610dfb565b67ffffffffffffffff81111561151f5761151e610bb4565b5b6115298254611330565b611534828285611474565b5f60209050601f831160018114611565575f8415611553578287015190505b61155d85826114e2565b8655506115c4565b601f19841661157386611360565b5f5b8281101561159a57848901518255600182019150602085019450602081019050611575565b868310156115b757848901516115b3601f8916826114c6565b8355505b6001600288020188555050505b505050505050565b7f446f6d61696e20646f6573206e6f742062656c6f6e6720746f207468652073655f8201527f6e64657200000000000000000000000000000000000000000000000000000000602082015250565b5f611626602483610e05565b9150611631826115cc565b604082019050919050565b5f6020820190508181035f8301526116538161161a565b9050919050565b7f496e73756666696369656e742066756e64732e20436f7374203d2072656e74205f8201527f636f7374202a207965617273202b20666565202a20636f656666696369656e74602082015250565b5f6116b4604083610e05565b91506116bf8261165a565b604082019050919050565b5f6020820190508181035f8301526116e1816116a8565b9050919050565b5f6116f282610b57565b91506116fd83610b57565b9250828201905060ff8111156117165761171561107c565b5b9291505056fea264697066735822122008bf2f3ee7413f67a8f0e9be297bf4e5cc6a248308edb202e107ac97df216fda64736f6c63430008160033",
					"opcodes": "PUSH1 0x80 PUSH1 0x40 MSTORE PUSH8 0x1BC16D674EC80000 PUSH1 0x1 SSTORE PUSH1 0x2 DUP1 PUSH0 PUSH2 0x100 EXP DUP2 SLOAD DUP2 PUSH1 0xFF MUL NOT AND SWAP1 DUP4 PUSH1 0xFF AND MUL OR SWAP1 SSTORE POP PUSH8 0xDE0B6B3A7640000 PUSH1 0x4 SSTORE CALLVALUE DUP1 ISZERO PUSH2 0x41 JUMPI PUSH0 DUP1 REVERT JUMPDEST POP CALLER PUSH0 DUP1 PUSH2 0x100 EXP DUP2 SLOAD DUP2 PUSH20 0xFFFFFFFFFFFFFFFFFFFFFFFFFFFFFFFFFFFFFFFF MUL NOT AND SWAP1 DUP4 PUSH20 0xFFFFFFFFFFFFFFFFFFFFFFFFFFFFFFFFFFFFFFFF AND MUL OR SWAP1 SSTORE POP PUSH2 0x1752 DUP1 PUSH2 0x8E PUSH0 CODECOPY PUSH0 RETURN INVALID PUSH1 0x80 PUSH1 0x40 MSTORE PUSH1 0x4 CALLDATASIZE LT PUSH2 0x9B JUMPI PUSH0 CALLDATALOAD PUSH1 0xE0 SHR DUP1 PUSH4 0x753AFC6A GT PUSH2 0x63 JUMPI DUP1 PUSH4 0x753AFC6A EQ PUSH2 0x163 JUMPI DUP1 PUSH4 0x7F109DD3 EQ PUSH2 0x17F JUMPI DUP1 PUSH4 0x826DFCB9 EQ PUSH2 0x1BF JUMPI DUP1 PUSH4 0x98ED94BC EQ PUSH2 0x1E7 JUMPI DUP1 PUSH4 0xAD7A672F EQ PUSH2 0x203 JUMPI DUP1 PUSH4 0xEAE7CDDC EQ PUSH2 0x22D JUMPI PUSH2 0x9B JUMP JUMPDEST DUP1 PUSH4 0x12065FE0 EQ PUSH2 0x9F JUMPI DUP1 PUSH4 0x24600FC3 EQ PUSH2 0xC9 JUMPI DUP1 PUSH4 0x2CB594A0 EQ PUSH2 0xD3 JUMPI DUP1 PUSH4 0x4B162F69 EQ PUSH2 0xFD JUMPI DUP1 PUSH4 0x68B64D1F EQ PUSH2 0x127 JUMPI JUMPDEST PUSH0 DUP1 REVERT JUMPDEST CALLVALUE DUP1 ISZERO PUSH2 0xAA JUMPI PUSH0 DUP1 REVERT JUMPDEST POP PUSH2 0xB3 PUSH2 0x255 JUMP JUMPDEST PUSH1 0x40 MLOAD PUSH2 0xC0 SWAP2 SWAP1 PUSH2 0xB3E JUMP JUMPDEST PUSH1 0x40 MLOAD DUP1 SWAP2 SUB SWAP1 RETURN JUMPDEST PUSH2 0xD1 PUSH2 0x25C JUMP JUMPDEST STOP JUMPDEST CALLVALUE DUP1 ISZERO PUSH2 0xDE JUMPI PUSH0 DUP1 REVERT JUMPDEST POP PUSH2 0xE7 PUSH2 0x33B JUMP JUMPDEST PUSH1 0x40 MLOAD PUSH2 0xF4 SWAP2 SWAP1 PUSH2 0xB72 JUMP JUMPDEST PUSH1 0x40 MLOAD DUP1 SWAP2 SUB SWAP1 RETURN JUMPDEST CALLVALUE DUP1 ISZERO PUSH2 0x108 JUMPI PUSH0 DUP1 REVERT JUMPDEST POP PUSH2 0x111 PUSH2 0x34D JUMP JUMPDEST PUSH1 0x40 MLOAD PUSH2 0x11E SWAP2 SWAP1 PUSH2 0xB3E JUMP JUMPDEST PUSH1 0x40 MLOAD DUP1 SWAP2 SUB SWAP1 RETURN JUMPDEST CALLVALUE DUP1 ISZERO PUSH2 0x132 JUMPI PUSH0 DUP1 REVERT JUMPDEST POP PUSH2 0x14D PUSH1 0x4 DUP1 CALLDATASIZE SUB DUP2 ADD SWAP1 PUSH2 0x148 SWAP2 SWAP1 PUSH2 0xCD8 JUMP JUMPDEST PUSH2 0x353 JUMP JUMPDEST PUSH1 0x40 MLOAD PUSH2 0x15A SWAP2 SWAP1 PUSH2 0xD5E JUMP JUMPDEST PUSH1 0x40 MLOAD DUP1 SWAP2 SUB SWAP1 RETURN JUMPDEST PUSH2 0x17D PUSH1 0x4 DUP1 CALLDATASIZE SUB DUP2 ADD SWAP1 PUSH2 0x178 SWAP2 SWAP1 PUSH2 0xDA1 JUMP JUMPDEST PUSH2 0x39B JUMP JUMPDEST STOP JUMPDEST CALLVALUE DUP1 ISZERO PUSH2 0x18A JUMPI PUSH0 DUP1 REVERT JUMPDEST POP PUSH2 0x1A5 PUSH1 0x4 DUP1 CALLDATASIZE SUB DUP2 ADD SWAP1 PUSH2 0x1A0 SWAP2 SWAP1 PUSH2 0xCD8 JUMP JUMPDEST PUSH2 0x6BD JUMP JUMPDEST PUSH1 0x40 MLOAD PUSH2 0x1B6 SWAP6 SWAP5 SWAP4 SWAP3 SWAP2 SWAP1 PUSH2 0xE75 JUMP JUMPDEST PUSH1 0x40 MLOAD DUP1 SWAP2 SUB SWAP1 RETURN JUMPDEST CALLVALUE DUP1 ISZERO PUSH2 0x1CA JUMPI PUSH0 DUP1 REVERT JUMPDEST POP PUSH2 0x1E5 PUSH1 0x4 DUP1 CALLDATASIZE SUB DUP2 ADD SWAP1 PUSH2 0x1E0 SWAP2 SWAP1 PUSH2 0xEF7 JUMP JUMPDEST PUSH2 0x7B8 JUMP JUMPDEST STOP JUMPDEST PUSH2 0x201 PUSH1 0x4 DUP1 CALLDATASIZE SUB DUP2 ADD SWAP1 PUSH2 0x1FC SWAP2 SWAP1 PUSH2 0xDA1 JUMP JUMPDEST PUSH2 0x84F JUMP JUMPDEST STOP JUMPDEST CALLVALUE DUP1 ISZERO PUSH2 0x20E JUMPI PUSH0 DUP1 REVERT JUMPDEST POP PUSH2 0x217 PUSH2 0xA76 JUMP JUMPDEST PUSH1 0x40 MLOAD PUSH2 0x224 SWAP2 SWAP1 PUSH2 0xB3E JUMP JUMPDEST PUSH1 0x40 MLOAD DUP1 SWAP2 SUB SWAP1 RETURN JUMPDEST CALLVALUE DUP1 ISZERO PUSH2 0x238 JUMPI PUSH0 DUP1 REVERT JUMPDEST POP PUSH2 0x253 PUSH1 0x4 DUP1 CALLDATASIZE SUB DUP2 ADD SWAP1 PUSH2 0x24E SWAP2 SWAP1 PUSH2 0xF22 JUMP JUMPDEST PUSH2 0xA7C JUMP JUMPDEST STOP JUMPDEST PUSH0 SELFBALANCE SWAP1 POP SWAP1 JUMP JUMPDEST PUSH0 DUP1 SLOAD SWAP1 PUSH2 0x100 EXP SWAP1 DIV PUSH20 0xFFFFFFFFFFFFFFFFFFFFFFFFFFFFFFFFFFFFFFFF AND PUSH20 0xFFFFFFFFFFFFFFFFFFFFFFFFFFFFFFFFFFFFFFFF AND CALLER PUSH20 0xFFFFFFFFFFFFFFFFFFFFFFFFFFFFFFFFFFFFFFFF AND EQ PUSH2 0x2E9 JUMPI PUSH1 0x40 MLOAD PUSH32 0x8C379A000000000000000000000000000000000000000000000000000000000 DUP2 MSTORE PUSH1 0x4 ADD PUSH2 0x2E0 SWAP1 PUSH2 0xF97 JUMP JUMPDEST PUSH1 0x40 MLOAD DUP1 SWAP2 SUB SWAP1 REVERT JUMPDEST PUSH0 CALLER SWAP1 POP DUP1 PUSH20 0xFFFFFFFFFFFFFFFFFFFFFFFFFFFFFFFFFFFFFFFF AND PUSH2 0x8FC SELFBALANCE SWAP1 DUP2 ISZERO MUL SWAP1 PUSH1 0x40 MLOAD PUSH0 PUSH1 0x40 MLOAD DUP1 DUP4 SUB DUP2 DUP6 DUP9 DUP9 CALL SWAP4 POP POP POP POP ISZERO DUP1 ISZERO PUSH2 0x330 JUMPI RETURNDATASIZE PUSH0 DUP1 RETURNDATACOPY RETURNDATASIZE PUSH0 REVERT JUMPDEST POP PUSH0 PUSH1 0x5 DUP2 SWAP1 SSTORE POP POP JUMP JUMPDEST PUSH1 0x2 PUSH0 SWAP1 SLOAD SWAP1 PUSH2 0x100 EXP SWAP1 DIV PUSH1 0xFF AND DUP2 JUMP JUMPDEST PUSH1 0x1 SLOAD DUP2 JUMP JUMPDEST PUSH0 PUSH1 0x3 DUP3 PUSH1 0x40 MLOAD PUSH2 0x364 SWAP2 SWAP1 PUSH2 0xFEF JUMP JUMPDEST SWAP1 DUP2 MSTORE PUSH1 0x20 ADD PUSH1 0x40 MLOAD DUP1 SWAP2 SUB SWAP1 KECCAK256 PUSH0 ADD PUSH0 SWAP1 SLOAD SWAP1 PUSH2 0x100 EXP SWAP1 DIV PUSH20 0xFFFFFFFFFFFFFFFFFFFFFFFFFFFFFFFFFFFFFFFF AND SWAP1 POP SWAP2 SWAP1 POP JUMP JUMPDEST PUSH0 PUSH20 0xFFFFFFFFFFFFFFFFFFFFFFFFFFFFFFFFFFFFFFFF AND PUSH1 0x3 DUP4 PUSH1 0x40 MLOAD PUSH2 0x3C2 SWAP2 SWAP1 PUSH2 0xFEF JUMP JUMPDEST SWAP1 DUP2 MSTORE PUSH1 0x20 ADD PUSH1 0x40 MLOAD DUP1 SWAP2 SUB SWAP1 KECCAK256 PUSH0 ADD PUSH0 SWAP1 SLOAD SWAP1 PUSH2 0x100 EXP SWAP1 DIV PUSH20 0xFFFFFFFFFFFFFFFFFFFFFFFFFFFFFFFFFFFFFFFF AND PUSH20 0xFFFFFFFFFFFFFFFFFFFFFFFFFFFFFFFFFFFFFFFF AND EQ PUSH2 0x448 JUMPI PUSH1 0x40 MLOAD PUSH32 0x8C379A000000000000000000000000000000000000000000000000000000000 DUP2 MSTORE PUSH1 0x4 ADD PUSH2 0x43F SWAP1 PUSH2 0x104F JUMP JUMPDEST PUSH1 0x40 MLOAD DUP1 SWAP2 SUB SWAP1 REVERT JUMPDEST PUSH4 0x1E13380 PUSH1 0x3 DUP4 PUSH1 0x40 MLOAD PUSH2 0x45D SWAP2 SWAP1 PUSH2 0xFEF JUMP JUMPDEST SWAP1 DUP2 MSTORE PUSH1 0x20 ADD PUSH1 0x40 MLOAD DUP1 SWAP2 SUB SWAP1 KECCAK256 PUSH1 0x4 ADD PUSH0 SWAP1 SLOAD SWAP1 PUSH2 0x100 EXP SWAP1 DIV PUSH1 0xFF AND PUSH1 0xFF AND PUSH2 0x488 SWAP2 SWAP1 PUSH2 0x10A9 JUMP JUMPDEST PUSH4 0xFFFFFFFF AND PUSH1 0x3 DUP4 PUSH1 0x40 MLOAD PUSH2 0x49E SWAP2 SWAP1 PUSH2 0xFEF JUMP JUMPDEST SWAP1 DUP2 MSTORE PUSH1 0x20 ADD PUSH1 0x40 MLOAD DUP1 SWAP2 SUB SWAP1 KECCAK256 PUSH1 0x1 ADD SLOAD PUSH2 0x4BA SWAP2 SWAP1 PUSH2 0x10E5 JUMP JUMPDEST TIMESTAMP GT PUSH2 0x4FB JUMPI PUSH1 0x40 MLOAD PUSH32 0x8C379A000000000000000000000000000000000000000000000000000000000 DUP2 MSTORE PUSH1 0x4 ADD PUSH2 0x4F2 SWAP1 PUSH2 0x1188 JUMP JUMPDEST PUSH1 0x40 MLOAD DUP1 SWAP2 SUB SWAP1 REVERT JUMPDEST PUSH1 0x1 SLOAD DUP2 PUSH1 0xFF AND PUSH2 0x50C SWAP2 SWAP1 PUSH2 0x11A6 JUMP JUMPDEST PUSH1 0x4 SLOAD PUSH2 0x519 SWAP2 SWAP1 PUSH2 0x10E5 JUMP JUMPDEST CALLVALUE LT ISZERO PUSH2 0x55B JUMPI PUSH1 0x40 MLOAD PUSH32 0x8C379A000000000000000000000000000000000000000000000000000000000 DUP2 MSTORE PUSH1 0x4 ADD PUSH2 0x552 SWAP1 PUSH2 0x127D JUMP JUMPDEST PUSH1 0x40 MLOAD DUP1 SWAP2 SUB SWAP1 REVERT JUMPDEST PUSH1 0x1 DUP2 PUSH1 0xFF AND LT ISZERO DUP1 ISZERO PUSH2 0x573 JUMPI POP PUSH1 0xA DUP2 PUSH1 0xFF AND GT ISZERO JUMPDEST PUSH2 0x5B2 JUMPI PUSH1 0x40 MLOAD PUSH32 0x8C379A000000000000000000000000000000000000000000000000000000000 DUP2 MSTORE PUSH1 0x4 ADD PUSH2 0x5A9 SWAP1 PUSH2 0x12E5 JUMP JUMPDEST PUSH1 0x40 MLOAD DUP1 SWAP2 SUB SWAP1 REVERT JUMPDEST PUSH1 0x40 MLOAD DUP1 PUSH1 0xA0 ADD PUSH1 0x40 MSTORE DUP1 CALLER PUSH20 0xFFFFFFFFFFFFFFFFFFFFFFFFFFFFFFFFFFFFFFFF AND DUP2 MSTORE PUSH1 0x20 ADD TIMESTAMP DUP2 MSTORE PUSH1 0x20 ADD CALLVALUE DUP2 MSTORE PUSH1 0x20 ADD DUP4 DUP2 MSTORE PUSH1 0x20 ADD DUP3 PUSH1 0xFF AND DUP2 MSTORE POP PUSH1 0x3 DUP4 PUSH1 0x40 MLOAD PUSH2 0x602 SWAP2 SWAP1 PUSH2 0xFEF JUMP JUMPDEST SWAP1 DUP2 MSTORE PUSH1 0x20 ADD PUSH1 0x40 MLOAD DUP1 SWAP2 SUB SWAP1 KECCAK256 PUSH0 DUP3 ADD MLOAD DUP2 PUSH0 ADD PUSH0 PUSH2 0x100 EXP DUP2 SLOAD DUP2 PUSH20 0xFFFFFFFFFFFFFFFFFFFFFFFFFFFFFFFFFFFFFFFF MUL NOT AND SWAP1 DUP4 PUSH20 0xFFFFFFFFFFFFFFFFFFFFFFFFFFFFFFFFFFFFFFFF AND MUL OR SWAP1 SSTORE POP PUSH1 0x20 DUP3 ADD MLOAD DUP2 PUSH1 0x1 ADD SSTORE PUSH1 0x40 DUP3 ADD MLOAD DUP2 PUSH1 0x2 ADD SSTORE PUSH1 0x60 DUP3 ADD MLOAD DUP2 PUSH1 0x3 ADD SWAP1 DUP2 PUSH2 0x67D SWAP2 SWAP1 PUSH2 0x14FD JUMP JUMPDEST POP PUSH1 0x80 DUP3 ADD MLOAD DUP2 PUSH1 0x4 ADD PUSH0 PUSH2 0x100 EXP DUP2 SLOAD DUP2 PUSH1 0xFF MUL NOT AND SWAP1 DUP4 PUSH1 0xFF AND MUL OR SWAP1 SSTORE POP SWAP1 POP POP CALLVALUE PUSH1 0x5 PUSH0 DUP3 DUP3 SLOAD PUSH2 0x6B2 SWAP2 SWAP1 PUSH2 0x10E5 JUMP JUMPDEST SWAP3 POP POP DUP2 SWAP1 SSTORE POP POP POP JUMP JUMPDEST PUSH1 0x3 DUP2 DUP1 MLOAD PUSH1 0x20 DUP2 ADD DUP3 ADD DUP1 MLOAD DUP5 DUP3 MSTORE PUSH1 0x20 DUP4 ADD PUSH1 0x20 DUP6 ADD KECCAK256 DUP2 DUP4 MSTORE DUP1 SWAP6 POP POP POP POP POP POP PUSH0 SWAP2 POP SWAP1 POP DUP1 PUSH0 ADD PUSH0 SWAP1 SLOAD SWAP1 PUSH2 0x100 EXP SWAP1 DIV PUSH20 0xFFFFFFFFFFFFFFFFFFFFFFFFFFFFFFFFFFFFFFFF AND SWAP1 DUP1 PUSH1 0x1 ADD SLOAD SWAP1 DUP1 PUSH1 0x2 ADD SLOAD SWAP1 DUP1 PUSH1 0x3 ADD DUP1 SLOAD PUSH2 0x725 SWAP1 PUSH2 0x1330 JUMP JUMPDEST DUP1 PUSH1 0x1F ADD PUSH1 0x20 DUP1 SWAP2 DIV MUL PUSH1 0x20 ADD PUSH1 0x40 MLOAD SWAP1 DUP2 ADD PUSH1 0x40 MSTORE DUP1 SWAP3 SWAP2 SWAP1 DUP2 DUP2 MSTORE PUSH1 0x20 ADD DUP3 DUP1 SLOAD PUSH2 0x751 SWAP1 PUSH2 0x1330 JUMP JUMPDEST DUP1 ISZERO PUSH2 0x79C JUMPI DUP1 PUSH1 0x1F LT PUSH2 0x773 JUMPI PUSH2 0x100 DUP1 DUP4 SLOAD DIV MUL DUP4 MSTORE SWAP2 PUSH1 0x20 ADD SWAP2 PUSH2 0x79C JUMP JUMPDEST DUP3 ADD SWAP2 SWAP1 PUSH0 MSTORE PUSH1 0x20 PUSH0 KECCAK256 SWAP1 JUMPDEST DUP2 SLOAD DUP2 MSTORE SWAP1 PUSH1 0x1 ADD SWAP1 PUSH1 0x20 ADD DUP1 DUP4 GT PUSH2 0x77F JUMPI DUP3 SWAP1 SUB PUSH1 0x1F AND DUP3 ADD SWAP2 JUMPDEST POP POP POP POP POP SWAP1 DUP1 PUSH1 0x4 ADD PUSH0 SWAP1 SLOAD SWAP1 PUSH2 0x100 EXP SWAP1 DIV PUSH1 0xFF AND SWAP1 POP DUP6 JUMP JUMPDEST PUSH0 DUP1 SLOAD SWAP1 PUSH2 0x100 EXP SWAP1 DIV PUSH20 0xFFFFFFFFFFFFFFFFFFFFFFFFFFFFFFFFFFFFFFFF AND PUSH20 0xFFFFFFFFFFFFFFFFFFFFFFFFFFFFFFFFFFFFFFFF AND CALLER PUSH20 0xFFFFFFFFFFFFFFFFFFFFFFFFFFFFFFFFFFFFFFFF AND EQ PUSH2 0x845 JUMPI PUSH1 0x40 MLOAD PUSH32 0x8C379A000000000000000000000000000000000000000000000000000000000 DUP2 MSTORE PUSH1 0x4 ADD PUSH2 0x83C SWAP1 PUSH2 0xF97 JUMP JUMPDEST PUSH1 0x40 MLOAD DUP1 SWAP2 SUB SWAP1 REVERT JUMPDEST DUP1 PUSH1 0x1 DUP2 SWAP1 SSTORE POP POP JUMP JUMPDEST CALLER PUSH20 0xFFFFFFFFFFFFFFFFFFFFFFFFFFFFFFFFFFFFFFFF AND PUSH1 0x3 DUP4 PUSH1 0x40 MLOAD PUSH2 0x876 SWAP2 SWAP1 PUSH2 0xFEF JUMP JUMPDEST SWAP1 DUP2 MSTORE PUSH1 0x20 ADD PUSH1 0x40 MLOAD DUP1 SWAP2 SUB SWAP1 KECCAK256 PUSH0 ADD PUSH0 SWAP1 SLOAD SWAP1 PUSH2 0x100 EXP SWAP1 DIV PUSH20 0xFFFFFFFFFFFFFFFFFFFFFFFFFFFFFFFFFFFFFFFF AND PUSH20 0xFFFFFFFFFFFFFFFFFFFFFFFFFFFFFFFFFFFFFFFF AND EQ PUSH2 0x8FC JUMPI PUSH1 0x40 MLOAD PUSH32 0x8C379A000000000000000000000000000000000000000000000000000000000 DUP2 MSTORE PUSH1 0x4 ADD PUSH2 0x8F3 SWAP1 PUSH2 0x163C JUMP JUMPDEST PUSH1 0x40 MLOAD DUP1 SWAP2 SUB SWAP1 REVERT JUMPDEST PUSH1 0x2 PUSH0 SWAP1 SLOAD SWAP1 PUSH2 0x100 EXP SWAP1 DIV PUSH1 0xFF AND PUSH1 0xFF AND PUSH1 0x4 SLOAD PUSH2 0x91B SWAP2 SWAP1 PUSH2 0x11A6 JUMP JUMPDEST PUSH1 0x1 SLOAD DUP3 PUSH1 0xFF AND PUSH2 0x92C SWAP2 SWAP1 PUSH2 0x11A6 JUMP JUMPDEST PUSH2 0x936 SWAP2 SWAP1 PUSH2 0x10E5 JUMP JUMPDEST CALLVALUE LT ISZERO PUSH2 0x978 JUMPI PUSH1 0x40 MLOAD PUSH32 0x8C379A000000000000000000000000000000000000000000000000000000000 DUP2 MSTORE PUSH1 0x4 ADD PUSH2 0x96F SWAP1 PUSH2 0x16CA JUMP JUMPDEST PUSH1 0x40 MLOAD DUP1 SWAP2 SUB SWAP1 REVERT JUMPDEST PUSH1 0x1 DUP2 PUSH1 0xFF AND LT ISZERO DUP1 ISZERO PUSH2 0x990 JUMPI POP PUSH1 0xA DUP2 PUSH1 0xFF AND GT ISZERO JUMPDEST PUSH2 0x9CF JUMPI PUSH1 0x40 MLOAD PUSH32 0x8C379A000000000000000000000000000000000000000000000000000000000 DUP2 MSTORE PUSH1 0x4 ADD PUSH2 0x9C6 SWAP1 PUSH2 0x12E5 JUMP JUMPDEST PUSH1 0x40 MLOAD DUP1 SWAP2 SUB SWAP1 REVERT JUMPDEST DUP1 PUSH1 0x3 DUP4 PUSH1 0x40 MLOAD PUSH2 0x9E0 SWAP2 SWAP1 PUSH2 0xFEF JUMP JUMPDEST SWAP1 DUP2 MSTORE PUSH1 0x20 ADD PUSH1 0x40 MLOAD DUP1 SWAP2 SUB SWAP1 KECCAK256 PUSH1 0x4 ADD PUSH0 DUP3 DUP3 DUP3 SWAP1 SLOAD SWAP1 PUSH2 0x100 EXP SWAP1 DIV PUSH1 0xFF AND PUSH2 0xA0B SWAP2 SWAP1 PUSH2 0x16E8 JUMP JUMPDEST SWAP3 POP PUSH2 0x100 EXP DUP2 SLOAD DUP2 PUSH1 0xFF MUL NOT AND SWAP1 DUP4 PUSH1 0xFF AND MUL OR SWAP1 SSTORE POP CALLVALUE PUSH1 0x3 DUP4 PUSH1 0x40 MLOAD PUSH2 0xA34 SWAP2 SWAP1 PUSH2 0xFEF JUMP JUMPDEST SWAP1 DUP2 MSTORE PUSH1 0x20 ADD PUSH1 0x40 MLOAD DUP1 SWAP2 SUB SWAP1 KECCAK256 PUSH1 0x2 ADD PUSH0 DUP3 DUP3 SLOAD PUSH2 0xA53 SWAP2 SWAP1 PUSH2 0x10E5 JUMP JUMPDEST SWAP3 POP POP DUP2 SWAP1 SSTORE POP CALLVALUE PUSH1 0x5 PUSH0 DUP3 DUP3 SLOAD PUSH2 0xA6B SWAP2 SWAP1 PUSH2 0x10E5 JUMP JUMPDEST SWAP3 POP POP DUP2 SWAP1 SSTORE POP POP POP JUMP JUMPDEST PUSH1 0x5 SLOAD DUP2 JUMP JUMPDEST PUSH0 DUP1 SLOAD SWAP1 PUSH2 0x100 EXP SWAP1 DIV PUSH20 0xFFFFFFFFFFFFFFFFFFFFFFFFFFFFFFFFFFFFFFFF AND PUSH20 0xFFFFFFFFFFFFFFFFFFFFFFFFFFFFFFFFFFFFFFFF AND CALLER PUSH20 0xFFFFFFFFFFFFFFFFFFFFFFFFFFFFFFFFFFFFFFFF AND EQ PUSH2 0xB09 JUMPI PUSH1 0x40 MLOAD PUSH32 0x8C379A000000000000000000000000000000000000000000000000000000000 DUP2 MSTORE PUSH1 0x4 ADD PUSH2 0xB00 SWAP1 PUSH2 0xF97 JUMP JUMPDEST PUSH1 0x40 MLOAD DUP1 SWAP2 SUB SWAP1 REVERT JUMPDEST DUP1 PUSH1 0x2 PUSH0 PUSH2 0x100 EXP DUP2 SLOAD DUP2 PUSH1 0xFF MUL NOT AND SWAP1 DUP4 PUSH1 0xFF AND MUL OR SWAP1 SSTORE POP POP JUMP JUMPDEST PUSH0 DUP2 SWAP1 POP SWAP2 SWAP1 POP JUMP JUMPDEST PUSH2 0xB38 DUP2 PUSH2 0xB26 JUMP JUMPDEST DUP3 MSTORE POP POP JUMP JUMPDEST PUSH0 PUSH1 0x20 DUP3 ADD SWAP1 POP PUSH2 0xB51 PUSH0 DUP4 ADD DUP5 PUSH2 0xB2F JUMP JUMPDEST SWAP3 SWAP2 POP POP JUMP JUMPDEST PUSH0 PUSH1 0xFF DUP3 AND SWAP1 POP SWAP2 SWAP1 POP JUMP JUMPDEST PUSH2 0xB6C DUP2 PUSH2 0xB57 JUMP JUMPDEST DUP3 MSTORE POP POP JUMP JUMPDEST PUSH0 PUSH1 0x20 DUP3 ADD SWAP1 POP PUSH2 0xB85 PUSH0 DUP4 ADD DUP5 PUSH2 0xB63 JUMP JUMPDEST SWAP3 SWAP2 POP POP JUMP JUMPDEST PUSH0 PUSH1 0x40 MLOAD SWAP1 POP SWAP1 JUMP JUMPDEST PUSH0 DUP1 REVERT JUMPDEST PUSH0 DUP1 REVERT JUMPDEST PUSH0 DUP1 REVERT JUMPDEST PUSH0 DUP1 REVERT JUMPDEST PUSH0 PUSH1 0x1F NOT PUSH1 0x1F DUP4 ADD AND SWAP1 POP SWAP2 SWAP1 POP JUMP JUMPDEST PUSH32 0x4E487B7100000000000000000000000000000000000000000000000000000000 PUSH0 MSTORE PUSH1 0x41 PUSH1 0x4 MSTORE PUSH1 0x24 PUSH0 REVERT JUMPDEST PUSH2 0xBEA DUP3 PUSH2 0xBA4 JUMP JUMPDEST DUP2 ADD DUP2 DUP2 LT PUSH8 0xFFFFFFFFFFFFFFFF DUP3 GT OR ISZERO PUSH2 0xC09 JUMPI PUSH2 0xC08 PUSH2 0xBB4 JUMP JUMPDEST JUMPDEST DUP1 PUSH1 0x40 MSTORE POP POP POP JUMP JUMPDEST PUSH0 PUSH2 0xC1B PUSH2 0xB8B JUMP JUMPDEST SWAP1 POP PUSH2 0xC27 DUP3 DUP3 PUSH2 0xBE1 JUMP JUMPDEST SWAP2 SWAP1 POP JUMP JUMPDEST PUSH0 PUSH8 0xFFFFFFFFFFFFFFFF DUP3 GT ISZERO PUSH2 0xC46 JUMPI PUSH2 0xC45 PUSH2 0xBB4 JUMP JUMPDEST JUMPDEST PUSH2 0xC4F DUP3 PUSH2 0xBA4 JUMP JUMPDEST SWAP1 POP PUSH1 0x20 DUP2 ADD SWAP1 POP SWAP2 SWAP1 POP JUMP JUMPDEST DUP3 DUP2 DUP4 CALLDATACOPY PUSH0 DUP4 DUP4 ADD MSTORE POP POP POP JUMP JUMPDEST PUSH0 PUSH2 0xC7C PUSH2 0xC77 DUP5 PUSH2 0xC2C JUMP JUMPDEST PUSH2 0xC12 JUMP JUMPDEST SWAP1 POP DUP3 DUP2 MSTORE PUSH1 0x20 DUP2 ADD DUP5 DUP5 DUP5 ADD GT ISZERO PUSH2 0xC98 JUMPI PUSH2 0xC97 PUSH2 0xBA0 JUMP JUMPDEST JUMPDEST PUSH2 0xCA3 DUP5 DUP3 DUP6 PUSH2 0xC5C JUMP JUMPDEST POP SWAP4 SWAP3 POP POP POP JUMP JUMPDEST PUSH0 DUP3 PUSH1 0x1F DUP4 ADD SLT PUSH2 0xCBF JUMPI PUSH2 0xCBE PUSH2 0xB9C JUMP JUMPDEST JUMPDEST DUP2 CALLDATALOAD PUSH2 0xCCF DUP5 DUP3 PUSH1 0x20 DUP7 ADD PUSH2 0xC6A JUMP JUMPDEST SWAP2 POP POP SWAP3 SWAP2 POP POP JUMP JUMPDEST PUSH0 PUSH1 0x20 DUP3 DUP5 SUB SLT ISZERO PUSH2 0xCED JUMPI PUSH2 0xCEC PUSH2 0xB94 JUMP JUMPDEST JUMPDEST PUSH0 DUP3 ADD CALLDATALOAD PUSH8 0xFFFFFFFFFFFFFFFF DUP2 GT ISZERO PUSH2 0xD0A JUMPI PUSH2 0xD09 PUSH2 0xB98 JUMP JUMPDEST JUMPDEST PUSH2 0xD16 DUP5 DUP3 DUP6 ADD PUSH2 0xCAB JUMP JUMPDEST SWAP2 POP POP SWAP3 SWAP2 POP POP JUMP JUMPDEST PUSH0 PUSH20 0xFFFFFFFFFFFFFFFFFFFFFFFFFFFFFFFFFFFFFFFF DUP3 AND SWAP1 POP SWAP2 SWAP1 POP JUMP JUMPDEST PUSH0 PUSH2 0xD48 DUP3 PUSH2 0xD1F JUMP JUMPDEST SWAP1 POP SWAP2 SWAP1 POP JUMP JUMPDEST PUSH2 0xD58 DUP2 PUSH2 0xD3E JUMP JUMPDEST DUP3 MSTORE POP POP JUMP JUMPDEST PUSH0 PUSH1 0x20 DUP3 ADD SWAP1 POP PUSH2 0xD71 PUSH0 DUP4 ADD DUP5 PUSH2 0xD4F JUMP JUMPDEST SWAP3 SWAP2 POP POP JUMP JUMPDEST PUSH2 0xD80 DUP2 PUSH2 0xB57 JUMP JUMPDEST DUP2 EQ PUSH2 0xD8A JUMPI PUSH0 DUP1 REVERT JUMPDEST POP JUMP JUMPDEST PUSH0 DUP2 CALLDATALOAD SWAP1 POP PUSH2 0xD9B DUP2 PUSH2 0xD77 JUMP JUMPDEST SWAP3 SWAP2 POP POP JUMP JUMPDEST PUSH0 DUP1 PUSH1 0x40 DUP4 DUP6 SUB SLT ISZERO PUSH2 0xDB7 JUMPI PUSH2 0xDB6 PUSH2 0xB94 JUMP JUMPDEST JUMPDEST PUSH0 DUP4 ADD CALLDATALOAD PUSH8 0xFFFFFFFFFFFFFFFF DUP2 GT ISZERO PUSH2 0xDD4 JUMPI PUSH2 0xDD3 PUSH2 0xB98 JUMP JUMPDEST JUMPDEST PUSH2 0xDE0 DUP6 DUP3 DUP7 ADD PUSH2 0xCAB JUMP JUMPDEST SWAP3 POP POP PUSH1 0x20 PUSH2 0xDF1 DUP6 DUP3 DUP7 ADD PUSH2 0xD8D JUMP JUMPDEST SWAP2 POP POP SWAP3 POP SWAP3 SWAP1 POP JUMP JUMPDEST PUSH0 DUP2 MLOAD SWAP1 POP SWAP2 SWAP1 POP JUMP JUMPDEST PUSH0 DUP3 DUP3 MSTORE PUSH1 0x20 DUP3 ADD SWAP1 POP SWAP3 SWAP2 POP POP JUMP JUMPDEST PUSH0 JUMPDEST DUP4 DUP2 LT ISZERO PUSH2 0xE32 JUMPI DUP1 DUP3 ADD MLOAD DUP2 DUP5 ADD MSTORE PUSH1 0x20 DUP2 ADD SWAP1 POP PUSH2 0xE17 JUMP JUMPDEST PUSH0 DUP5 DUP5 ADD MSTORE POP POP POP POP JUMP JUMPDEST PUSH0 PUSH2 0xE47 DUP3 PUSH2 0xDFB JUMP JUMPDEST PUSH2 0xE51 DUP2 DUP6 PUSH2 0xE05 JUMP JUMPDEST SWAP4 POP PUSH2 0xE61 DUP2 DUP6 PUSH1 0x20 DUP7 ADD PUSH2 0xE15 JUMP JUMPDEST PUSH2 0xE6A DUP2 PUSH2 0xBA4 JUMP JUMPDEST DUP5 ADD SWAP2 POP POP SWAP3 SWAP2 POP POP JUMP JUMPDEST PUSH0 PUSH1 0xA0 DUP3 ADD SWAP1 POP PUSH2 0xE88 PUSH0 DUP4 ADD DUP9 PUSH2 0xD4F JUMP JUMPDEST PUSH2 0xE95 PUSH1 0x20 DUP4 ADD DUP8 PUSH2 0xB2F JUMP JUMPDEST PUSH2 0xEA2 PUSH1 0x40 DUP4 ADD DUP7 PUSH2 0xB2F JUMP JUMPDEST DUP2 DUP2 SUB PUSH1 0x60 DUP4 ADD MSTORE PUSH2 0xEB4 DUP2 DUP6 PUSH2 0xE3D JUMP JUMPDEST SWAP1 POP PUSH2 0xEC3 PUSH1 0x80 DUP4 ADD DUP5 PUSH2 0xB63 JUMP JUMPDEST SWAP7 SWAP6 POP POP POP POP POP POP JUMP JUMPDEST PUSH2 0xED6 DUP2 PUSH2 0xB26 JUMP JUMPDEST DUP2 EQ PUSH2 0xEE0 JUMPI PUSH0 DUP1 REVERT JUMPDEST POP JUMP JUMPDEST PUSH0 DUP2 CALLDATALOAD SWAP1 POP PUSH2 0xEF1 DUP2 PUSH2 0xECD JUMP JUMPDEST SWAP3 SWAP2 POP POP JUMP JUMPDEST PUSH0 PUSH1 0x20 DUP3 DUP5 SUB SLT ISZERO PUSH2 0xF0C JUMPI PUSH2 0xF0B PUSH2 0xB94 JUMP JUMPDEST JUMPDEST PUSH0 PUSH2 0xF19 DUP5 DUP3 DUP6 ADD PUSH2 0xEE3 JUMP JUMPDEST SWAP2 POP POP SWAP3 SWAP2 POP POP JUMP JUMPDEST PUSH0 PUSH1 0x20 DUP3 DUP5 SUB SLT ISZERO PUSH2 0xF37 JUMPI PUSH2 0xF36 PUSH2 0xB94 JUMP JUMPDEST JUMPDEST PUSH0 PUSH2 0xF44 DUP5 DUP3 DUP6 ADD PUSH2 0xD8D JUMP JUMPDEST SWAP2 POP POP SWAP3 SWAP2 POP POP JUMP JUMPDEST PUSH32 0x596F7520617265206E6F742061206D6173746572000000000000000000000000 PUSH0 DUP3 ADD MSTORE POP JUMP JUMPDEST PUSH0 PUSH2 0xF81 PUSH1 0x14 DUP4 PUSH2 0xE05 JUMP JUMPDEST SWAP2 POP PUSH2 0xF8C DUP3 PUSH2 0xF4D JUMP JUMPDEST PUSH1 0x20 DUP3 ADD SWAP1 POP SWAP2 SWAP1 POP JUMP JUMPDEST PUSH0 PUSH1 0x20 DUP3 ADD SWAP1 POP DUP2 DUP2 SUB PUSH0 DUP4 ADD MSTORE PUSH2 0xFAE DUP2 PUSH2 0xF75 JUMP JUMPDEST SWAP1 POP SWAP2 SWAP1 POP JUMP JUMPDEST PUSH0 DUP2 SWAP1 POP SWAP3 SWAP2 POP POP JUMP JUMPDEST PUSH0 PUSH2 0xFC9 DUP3 PUSH2 0xDFB JUMP JUMPDEST PUSH2 0xFD3 DUP2 DUP6 PUSH2 0xFB5 JUMP JUMPDEST SWAP4 POP PUSH2 0xFE3 DUP2 DUP6 PUSH1 0x20 DUP7 ADD PUSH2 0xE15 JUMP JUMPDEST DUP1 DUP5 ADD SWAP2 POP POP SWAP3 SWAP2 POP POP JUMP JUMPDEST PUSH0 PUSH2 0xFFA DUP3 DUP5 PUSH2 0xFBF JUMP JUMPDEST SWAP2 POP DUP2 SWAP1 POP SWAP3 SWAP2 POP POP JUMP JUMPDEST PUSH32 0x446F6D61696E20697320616C7265616479207265676973746572656400000000 PUSH0 DUP3 ADD MSTORE POP JUMP JUMPDEST PUSH0 PUSH2 0x1039 PUSH1 0x1C DUP4 PUSH2 0xE05 JUMP JUMPDEST SWAP2 POP PUSH2 0x1044 DUP3 PUSH2 0x1005 JUMP JUMPDEST PUSH1 0x20 DUP3 ADD SWAP1 POP SWAP2 SWAP1 POP JUMP JUMPDEST PUSH0 PUSH1 0x20 DUP3 ADD SWAP1 POP DUP2 DUP2 SUB PUSH0 DUP4 ADD MSTORE PUSH2 0x1066 DUP2 PUSH2 0x102D JUMP JUMPDEST SWAP1 POP SWAP2 SWAP1 POP JUMP JUMPDEST PUSH0 PUSH4 0xFFFFFFFF DUP3 AND SWAP1 POP SWAP2 SWAP1 POP JUMP JUMPDEST PUSH32 0x4E487B7100000000000000000000000000000000000000000000000000000000 PUSH0 MSTORE PUSH1 0x11 PUSH1 0x4 MSTORE PUSH1 0x24 PUSH0 REVERT JUMPDEST PUSH0 PUSH2 0x10B3 DUP3 PUSH2 0x106D JUMP JUMPDEST SWAP2 POP PUSH2 0x10BE DUP4 PUSH2 0x106D JUMP JUMPDEST SWAP3 POP DUP3 DUP3 MUL PUSH2 0x10CC DUP2 PUSH2 0x106D JUMP JUMPDEST SWAP2 POP DUP1 DUP3 EQ PUSH2 0x10DE JUMPI PUSH2 0x10DD PUSH2 0x107C JUMP JUMPDEST JUMPDEST POP SWAP3 SWAP2 POP POP JUMP JUMPDEST PUSH0 PUSH2 0x10EF DUP3 PUSH2 0xB26 JUMP JUMPDEST SWAP2 POP PUSH2 0x10FA DUP4 PUSH2 0xB26 JUMP JUMPDEST SWAP3 POP DUP3 DUP3 ADD SWAP1 POP DUP1 DUP3 GT ISZERO PUSH2 0x1112 JUMPI PUSH2 0x1111 PUSH2 0x107C JUMP JUMPDEST JUMPDEST SWAP3 SWAP2 POP POP JUMP JUMPDEST PUSH32 0x446F6D61696E20726567697374726174696F6E20686173206E6F742065787069 PUSH0 DUP3 ADD MSTORE PUSH32 0x7265640000000000000000000000000000000000000000000000000000000000 PUSH1 0x20 DUP3 ADD MSTORE POP JUMP JUMPDEST PUSH0 PUSH2 0x1172 PUSH1 0x23 DUP4 PUSH2 0xE05 JUMP JUMPDEST SWAP2 POP PUSH2 0x117D DUP3 PUSH2 0x1118 JUMP JUMPDEST PUSH1 0x40 DUP3 ADD SWAP1 POP SWAP2 SWAP1 POP JUMP JUMPDEST PUSH0 PUSH1 0x20 DUP3 ADD SWAP1 POP DUP2 DUP2 SUB PUSH0 DUP4 ADD MSTORE PUSH2 0x119F DUP2 PUSH2 0x1166 JUMP JUMPDEST SWAP1 POP SWAP2 SWAP1 POP JUMP JUMPDEST PUSH0 PUSH2 0x11B0 DUP3 PUSH2 0xB26 JUMP JUMPDEST SWAP2 POP PUSH2 0x11BB DUP4 PUSH2 0xB26 JUMP JUMPDEST SWAP3 POP DUP3 DUP3 MUL PUSH2 0x11C9 DUP2 PUSH2 0xB26 JUMP JUMPDEST SWAP2 POP DUP3 DUP3 DIV DUP5 EQ DUP4 ISZERO OR PUSH2 0x11E0 JUMPI PUSH2 0x11DF PUSH2 0x107C JUMP JUMPDEST JUMPDEST POP SWAP3 SWAP2 POP POP JUMP JUMPDEST PUSH32 0x496E73756666696369656E742066756E64732E20436F7374203D206665652066 PUSH0 DUP3 ADD MSTORE PUSH32 0x6F7220726567697374726174696F6E202B202872656E7420636F7374202A2079 PUSH1 0x20 DUP3 ADD MSTORE PUSH32 0x6561727329200000000000000000000000000000000000000000000000000000 PUSH1 0x40 DUP3 ADD MSTORE POP JUMP JUMPDEST PUSH0 PUSH2 0x1267 PUSH1 0x46 DUP4 PUSH2 0xE05 JUMP JUMPDEST SWAP2 POP PUSH2 0x1272 DUP3 PUSH2 0x11E7 JUMP JUMPDEST PUSH1 0x60 DUP3 ADD SWAP1 POP SWAP2 SWAP1 POP JUMP JUMPDEST PUSH0 PUSH1 0x20 DUP3 ADD SWAP1 POP DUP2 DUP2 SUB PUSH0 DUP4 ADD MSTORE PUSH2 0x1294 DUP2 PUSH2 0x125B JUMP JUMPDEST SWAP1 POP SWAP2 SWAP1 POP JUMP JUMPDEST PUSH32 0x496E76616C6964207465726D206F662072656E74000000000000000000000000 PUSH0 DUP3 ADD MSTORE POP JUMP JUMPDEST PUSH0 PUSH2 0x12CF PUSH1 0x14 DUP4 PUSH2 0xE05 JUMP JUMPDEST SWAP2 POP PUSH2 0x12DA DUP3 PUSH2 0x129B JUMP JUMPDEST PUSH1 0x20 DUP3 ADD SWAP1 POP SWAP2 SWAP1 POP JUMP JUMPDEST PUSH0 PUSH1 0x20 DUP3 ADD SWAP1 POP DUP2 DUP2 SUB PUSH0 DUP4 ADD MSTORE PUSH2 0x12FC DUP2 PUSH2 0x12C3 JUMP JUMPDEST SWAP1 POP SWAP2 SWAP1 POP JUMP JUMPDEST PUSH32 0x4E487B7100000000000000000000000000000000000000000000000000000000 PUSH0 MSTORE PUSH1 0x22 PUSH1 0x4 MSTORE PUSH1 0x24 PUSH0 REVERT JUMPDEST PUSH0 PUSH1 0x2 DUP3 DIV SWAP1 POP PUSH1 0x1 DUP3 AND DUP1 PUSH2 0x1347 JUMPI PUSH1 0x7F DUP3 AND SWAP2 POP JUMPDEST PUSH1 0x20 DUP3 LT DUP2 SUB PUSH2 0x135A JUMPI PUSH2 0x1359 PUSH2 0x1303 JUMP JUMPDEST JUMPDEST POP SWAP2 SWAP1 POP JUMP JUMPDEST PUSH0 DUP2 SWAP1 POP DUP2 PUSH0 MSTORE PUSH1 0x20 PUSH0 KECCAK256 SWAP1 POP SWAP2 SWAP1 POP JUMP JUMPDEST PUSH0 PUSH1 0x20 PUSH1 0x1F DUP4 ADD DIV SWAP1 POP SWAP2 SWAP1 POP JUMP JUMPDEST PUSH0 DUP3 DUP3 SHL SWAP1 POP SWAP3 SWAP2 POP POP JUMP JUMPDEST PUSH0 PUSH1 0x8 DUP4 MUL PUSH2 0x13BC PUSH32 0xFFFFFFFFFFFFFFFFFFFFFFFFFFFFFFFFFFFFFFFFFFFFFFFFFFFFFFFFFFFFFFFF DUP3 PUSH2 0x1381 JUMP JUMPDEST PUSH2 0x13C6 DUP7 DUP4 PUSH2 0x1381 JUMP JUMPDEST SWAP6 POP DUP1 NOT DUP5 AND SWAP4 POP DUP1 DUP7 AND DUP5 OR SWAP3 POP POP POP SWAP4 SWAP3 POP POP POP JUMP JUMPDEST PUSH0 DUP2 SWAP1 POP SWAP2 SWAP1 POP JUMP JUMPDEST PUSH0 PUSH2 0x1401 PUSH2 0x13FC PUSH2 0x13F7 DUP5 PUSH2 0xB26 JUMP JUMPDEST PUSH2 0x13DE JUMP JUMPDEST PUSH2 0xB26 JUMP JUMPDEST SWAP1 POP SWAP2 SWAP1 POP JUMP JUMPDEST PUSH0 DUP2 SWAP1 POP SWAP2 SWAP1 POP JUMP JUMPDEST PUSH2 0x141A DUP4 PUSH2 0x13E7 JUMP JUMPDEST PUSH2 0x142E PUSH2 0x1426 DUP3 PUSH2 0x1408 JUMP JUMPDEST DUP5 DUP5 SLOAD PUSH2 0x138D JUMP JUMPDEST DUP3 SSTORE POP POP POP POP JUMP JUMPDEST PUSH0 SWAP1 JUMP JUMPDEST PUSH2 0x1442 PUSH2 0x1436 JUMP JUMPDEST PUSH2 0x144D DUP2 DUP5 DUP5 PUSH2 0x1411 JUMP JUMPDEST POP POP POP JUMP JUMPDEST JUMPDEST DUP2 DUP2 LT ISZERO PUSH2 0x1470 JUMPI PUSH2 0x1465 PUSH0 DUP3 PUSH2 0x143A JUMP JUMPDEST PUSH1 0x1 DUP2 ADD SWAP1 POP PUSH2 0x1453 JUMP JUMPDEST POP POP JUMP JUMPDEST PUSH1 0x1F DUP3 GT ISZERO PUSH2 0x14B5 JUMPI PUSH2 0x1486 DUP2 PUSH2 0x1360 JUMP JUMPDEST PUSH2 0x148F DUP5 PUSH2 0x1372 JUMP JUMPDEST DUP2 ADD PUSH1 0x20 DUP6 LT ISZERO PUSH2 0x149E JUMPI DUP2 SWAP1 POP JUMPDEST PUSH2 0x14B2 PUSH2 0x14AA DUP6 PUSH2 0x1372 JUMP JUMPDEST DUP4 ADD DUP3 PUSH2 0x1452 JUMP JUMPDEST POP POP JUMPDEST POP POP POP JUMP JUMPDEST PUSH0 DUP3 DUP3 SHR SWAP1 POP SWAP3 SWAP2 POP POP JUMP JUMPDEST PUSH0 PUSH2 0x14D5 PUSH0 NOT DUP5 PUSH1 0x8 MUL PUSH2 0x14BA JUMP JUMPDEST NOT DUP1 DUP4 AND SWAP2 POP POP SWAP3 SWAP2 POP POP JUMP JUMPDEST PUSH0 PUSH2 0x14ED DUP4 DUP4 PUSH2 0x14C6 JUMP JUMPDEST SWAP2 POP DUP3 PUSH1 0x2 MUL DUP3 OR SWAP1 POP SWAP3 SWAP2 POP POP JUMP JUMPDEST PUSH2 0x1506 DUP3 PUSH2 0xDFB JUMP JUMPDEST PUSH8 0xFFFFFFFFFFFFFFFF DUP2 GT ISZERO PUSH2 0x151F JUMPI PUSH2 0x151E PUSH2 0xBB4 JUMP JUMPDEST JUMPDEST PUSH2 0x1529 DUP3 SLOAD PUSH2 0x1330 JUMP JUMPDEST PUSH2 0x1534 DUP3 DUP3 DUP6 PUSH2 0x1474 JUMP JUMPDEST PUSH0 PUSH1 0x20 SWAP1 POP PUSH1 0x1F DUP4 GT PUSH1 0x1 DUP2 EQ PUSH2 0x1565 JUMPI PUSH0 DUP5 ISZERO PUSH2 0x1553 JUMPI DUP3 DUP8 ADD MLOAD SWAP1 POP JUMPDEST PUSH2 0x155D DUP6 DUP3 PUSH2 0x14E2 JUMP JUMPDEST DUP7 SSTORE POP PUSH2 0x15C4 JUMP JUMPDEST PUSH1 0x1F NOT DUP5 AND PUSH2 0x1573 DUP7 PUSH2 0x1360 JUMP JUMPDEST PUSH0 JUMPDEST DUP3 DUP2 LT ISZERO PUSH2 0x159A JUMPI DUP5 DUP10 ADD MLOAD DUP3 SSTORE PUSH1 0x1 DUP3 ADD SWAP2 POP PUSH1 0x20 DUP6 ADD SWAP5 POP PUSH1 0x20 DUP2 ADD SWAP1 POP PUSH2 0x1575 JUMP JUMPDEST DUP7 DUP4 LT ISZERO PUSH2 0x15B7 JUMPI DUP5 DUP10 ADD MLOAD PUSH2 0x15B3 PUSH1 0x1F DUP10 AND DUP3 PUSH2 0x14C6 JUMP JUMPDEST DUP4 SSTORE POP JUMPDEST PUSH1 0x1 PUSH1 0x2 DUP9 MUL ADD DUP9 SSTORE POP POP POP JUMPDEST POP POP POP POP POP POP JUMP JUMPDEST PUSH32 0x446F6D61696E20646F6573206E6F742062656C6F6E6720746F20746865207365 PUSH0 DUP3 ADD MSTORE PUSH32 0x6E64657200000000000000000000000000000000000000000000000000000000 PUSH1 0x20 DUP3 ADD MSTORE POP JUMP JUMPDEST PUSH0 PUSH2 0x1626 PUSH1 0x24 DUP4 PUSH2 0xE05 JUMP JUMPDEST SWAP2 POP PUSH2 0x1631 DUP3 PUSH2 0x15CC JUMP JUMPDEST PUSH1 0x40 DUP3 ADD SWAP1 POP SWAP2 SWAP1 POP JUMP JUMPDEST PUSH0 PUSH1 0x20 DUP3 ADD SWAP1 POP DUP2 DUP2 SUB PUSH0 DUP4 ADD MSTORE PUSH2 0x1653 DUP2 PUSH2 0x161A JUMP JUMPDEST SWAP1 POP SWAP2 SWAP1 POP JUMP JUMPDEST PUSH32 0x496E73756666696369656E742066756E64732E20436F7374203D2072656E7420 PUSH0 DUP3 ADD MSTORE PUSH32 0x636F7374202A207965617273202B20666565202A20636F656666696369656E74 PUSH1 0x20 DUP3 ADD MSTORE POP JUMP JUMPDEST PUSH0 PUSH2 0x16B4 PUSH1 0x40 DUP4 PUSH2 0xE05 JUMP JUMPDEST SWAP2 POP PUSH2 0x16BF DUP3 PUSH2 0x165A JUMP JUMPDEST PUSH1 0x40 DUP3 ADD SWAP1 POP SWAP2 SWAP1 POP JUMP JUMPDEST PUSH0 PUSH1 0x20 DUP3 ADD SWAP1 POP DUP2 DUP2 SUB PUSH0 DUP4 ADD MSTORE PUSH2 0x16E1 DUP2 PUSH2 0x16A8 JUMP JUMPDEST SWAP1 POP SWAP2 SWAP1 POP JUMP JUMPDEST PUSH0 PUSH2 0x16F2 DUP3 PUSH2 0xB57 JUMP JUMPDEST SWAP2 POP PUSH2 0x16FD DUP4 PUSH2 0xB57 JUMP JUMPDEST SWAP3 POP DUP3 DUP3 ADD SWAP1 POP PUSH1 0xFF DUP2 GT ISZERO PUSH2 0x1716 JUMPI PUSH2 0x1715 PUSH2 0x107C JUMP JUMPDEST JUMPDEST SWAP3 SWAP2 POP POP JUMP INVALID LOG2 PUSH5 0x6970667358 0x22 SLT KECCAK256 ADDMOD 0xBF 0x2F RETURNDATACOPY 0xE7 COINBASE EXTCODEHASH PUSH8 0xA8F0E9BE297BF4E5 0xCC PUSH11 0x248308EDB202E107AC97DF 0x21 PUSH16 0xDA64736F6C6343000816003300000000 "
				},
				"gasEstimates": {
					"creation": {
						"codeDepositCost": "1194000",
						"executionCost": "93982",
						"totalCost": "1287982"
					},
					"external": {
						"cofficient()": "2511",
						"domain(string)": "infinite",
						"getBalance()": "335",
						"prolongateRent(string,uint8)": "infinite",
						"regCostYear()": "2492",
						"registerDomain(string,uint8)": "infinite",
						"returnAddress(string)": "infinite",
						"setCofficient(uint8)": "26949",
						"setRegCostYear(uint256)": "24725",
						"totalBalance()": "2513",
						"withdrawFunds()": "infinite"
					}
				},
				"methodIdentifiers": {
					"cofficient()": "2cb594a0",
					"domain(string)": "7f109dd3",
					"getBalance()": "12065fe0",
					"prolongateRent(string,uint8)": "98ed94bc",
					"regCostYear()": "4b162f69",
					"registerDomain(string,uint8)": "753afc6a",
					"returnAddress(string)": "68b64d1f",
					"setCofficient(uint8)": "eae7cddc",
					"setRegCostYear(uint256)": "826dfcb9",
					"totalBalance()": "ad7a672f",
					"withdrawFunds()": "24600fc3"
				}
			},
			"storageLayout": {
				"storage": [
					{
						"astId": 3,
						"contract": "Nik_MD_project2.sol:ENS",
						"label": "owner",
						"offset": 0,
						"slot": "0",
						"type": "t_address"
					},
					{
						"astId": 6,
						"contract": "Nik_MD_project2.sol:ENS",
						"label": "regCostYear",
						"offset": 0,
						"slot": "1",
						"type": "t_uint256"
					},
					{
						"astId": 9,
						"contract": "Nik_MD_project2.sol:ENS",
						"label": "cofficient",
						"offset": 0,
						"slot": "2",
						"type": "t_uint8"
					},
					{
						"astId": 70,
						"contract": "Nik_MD_project2.sol:ENS",
						"label": "domain",
						"offset": 0,
						"slot": "3",
						"type": "t_mapping(t_string_memory_ptr,t_struct(DomainInfo)65_storage)"
					},
					{
						"astId": 73,
						"contract": "Nik_MD_project2.sol:ENS",
						"label": "fees",
						"offset": 0,
						"slot": "4",
						"type": "t_uint256"
					},
					{
						"astId": 75,
						"contract": "Nik_MD_project2.sol:ENS",
						"label": "totalBalance",
						"offset": 0,
						"slot": "5",
						"type": "t_uint256"
					}
				],
				"types": {
					"t_address": {
						"encoding": "inplace",
						"label": "address",
						"numberOfBytes": "20"
					},
					"t_mapping(t_string_memory_ptr,t_struct(DomainInfo)65_storage)": {
						"encoding": "mapping",
						"key": "t_string_memory_ptr",
						"label": "mapping(string => struct ENS.DomainInfo)",
						"numberOfBytes": "32",
						"value": "t_struct(DomainInfo)65_storage"
					},
					"t_string_memory_ptr": {
						"encoding": "bytes",
						"label": "string",
						"numberOfBytes": "32"
					},
					"t_string_storage": {
						"encoding": "bytes",
						"label": "string",
						"numberOfBytes": "32"
					},
					"t_struct(DomainInfo)65_storage": {
						"encoding": "inplace",
						"label": "struct ENS.DomainInfo",
						"members": [
							{
								"astId": 56,
								"contract": "Nik_MD_project2.sol:ENS",
								"label": "userAddress",
								"offset": 0,
								"slot": "0",
								"type": "t_address"
							},
							{
								"astId": 58,
								"contract": "Nik_MD_project2.sol:ENS",
								"label": "creationTime",
								"offset": 0,
								"slot": "1",
								"type": "t_uint256"
							},
							{
								"astId": 60,
								"contract": "Nik_MD_project2.sol:ENS",
								"label": "fee",
								"offset": 0,
								"slot": "2",
								"type": "t_uint256"
							},
							{
								"astId": 62,
								"contract": "Nik_MD_project2.sol:ENS",
								"label": "message",
								"offset": 0,
								"slot": "3",
								"type": "t_string_storage"
							},
							{
								"astId": 64,
								"contract": "Nik_MD_project2.sol:ENS",
								"label": "year",
								"offset": 0,
								"slot": "4",
								"type": "t_uint8"
							}
						],
						"numberOfBytes": "160"
					},
					"t_uint256": {
						"encoding": "inplace",
						"label": "uint256",
						"numberOfBytes": "32"
					},
					"t_uint8": {
						"encoding": "inplace",
						"label": "uint8",
						"numberOfBytes": "1"
					}
				}
			},
			"userdoc": {
				"kind": "user",
				"methods": {},
				"version": 1
			}
		}
	}
}