{
	"Nik_MD_project4.sol": {
		"RecordsStorage": {
			"abi": [
				{
					"inputs": [],
					"stateMutability": "nonpayable",
					"type": "constructor"
				},
				{
					"inputs": [
						{
							"internalType": "string",
							"name": "_domain",
							"type": "string"
						}
					],
					"name": "addDomain",
					"outputs": [],
					"stateMutability": "nonpayable",
					"type": "function"
				},
				{
					"inputs": [
						{
							"internalType": "address",
							"name": "_address",
							"type": "address"
						}
					],
					"name": "addFactory",
					"outputs": [
						{
							"internalType": "bool",
							"name": "",
							"type": "bool"
						}
					],
					"stateMutability": "nonpayable",
					"type": "function"
				},
				{
					"inputs": [
						{
							"internalType": "address",
							"name": "_record",
							"type": "address"
						}
					],
					"name": "addRecord",
					"outputs": [],
					"stateMutability": "nonpayable",
					"type": "function"
				},
				{
					"inputs": [
						{
							"internalType": "string",
							"name": "_record",
							"type": "string"
						}
					],
					"name": "addRecord",
					"outputs": [],
					"stateMutability": "nonpayable",
					"type": "function"
				},
				{
					"inputs": [
						{
							"internalType": "address",
							"name": "",
							"type": "address"
						}
					],
					"name": "factories",
					"outputs": [
						{
							"internalType": "bool",
							"name": "",
							"type": "bool"
						}
					],
					"stateMutability": "view",
					"type": "function"
				},
				{
					"inputs": [
						{
							"internalType": "uint256",
							"name": "",
							"type": "uint256"
						}
					],
					"name": "records",
					"outputs": [
						{
							"internalType": "contract Record",
							"name": "",
							"type": "address"
						}
					],
					"stateMutability": "view",
					"type": "function"
				}
			],
			"devdoc": {
				"kind": "dev",
				"methods": {},
				"version": 1
			},
			"evm": {
				"assembly": "    /* \"Nik_MD_project4.sol\":1247:2204  contract RecordsStorage {... */\n  mstore(0x40, 0x80)\n    /* \"Nik_MD_project4.sol\":1303:1363  constructor() {... */\n  callvalue\n  dup1\n  iszero\n  tag_1\n  jumpi\n  0x00\n  dup1\n  revert\ntag_1:\n  pop\n    /* \"Nik_MD_project4.sol\":1341:1351  msg.sender */\n  caller\n    /* \"Nik_MD_project4.sol\":1328:1338  contrOwner */\n  0x00\n  dup1\n    /* \"Nik_MD_project4.sol\":1328:1351  contrOwner = msg.sender */\n  0x0100\n  exp\n  dup2\n  sload\n  dup2\n  0xffffffffffffffffffffffffffffffffffffffff\n  mul\n  not\n  and\n  swap1\n  dup4\n  0xffffffffffffffffffffffffffffffffffffffff\n  and\n  mul\n  or\n  swap1\n  sstore\n  pop\n    /* \"Nik_MD_project4.sol\":1247:2204  contract RecordsStorage {... */\n  dataSize(sub_0)\n  dup1\n  dataOffset(sub_0)\n  0x00\n  codecopy\n  0x00\n  return\nstop\n\nsub_0: assembly {\n        /* \"Nik_MD_project4.sol\":1247:2204  contract RecordsStorage {... */\n      mstore(0x40, 0x80)\n      callvalue\n      dup1\n      iszero\n      tag_1\n      jumpi\n      0x00\n      dup1\n      revert\n    tag_1:\n      pop\n      jumpi(tag_2, lt(calldatasize, 0x04))\n      shr(0xe0, calldataload(0x00))\n      dup1\n      0x29ce1ec5\n      eq\n      tag_3\n      jumpi\n      dup1\n      0x34461067\n      eq\n      tag_4\n      jumpi\n      dup1\n      0x44e2e74c\n      eq\n      tag_5\n      jumpi\n      dup1\n      0x99b53463\n      eq\n      tag_6\n      jumpi\n      dup1\n      0xd81aa8c4\n      eq\n      tag_7\n      jumpi\n      dup1\n      0xfab52689\n      eq\n      tag_8\n      jumpi\n    tag_2:\n      0x00\n      dup1\n      revert\n        /* \"Nik_MD_project4.sol\":2051:2199  function addFactory(address _address) public admin returns(bool)  {... */\n    tag_3:\n      tag_9\n      0x04\n      dup1\n      calldatasize\n      sub\n      dup2\n      add\n      swap1\n      tag_10\n      swap2\n      swap1\n      tag_11\n      jump\t// in\n    tag_10:\n      tag_12\n      jump\t// in\n    tag_9:\n      mload(0x40)\n      tag_13\n      swap2\n      swap1\n      tag_14\n      jump\t// in\n    tag_13:\n      mload(0x40)\n      dup1\n      swap2\n      sub\n      swap1\n      return\n        /* \"Nik_MD_project4.sol\":1375:1398  Record[] public records */\n    tag_4:\n      tag_15\n      0x04\n      dup1\n      calldatasize\n      sub\n      dup2\n      add\n      swap1\n      tag_16\n      swap2\n      swap1\n      tag_17\n      jump\t// in\n    tag_16:\n      tag_18\n      jump\t// in\n    tag_15:\n      mload(0x40)\n      tag_19\n      swap2\n      swap1\n      tag_20\n      jump\t// in\n    tag_19:\n      mload(0x40)\n      dup1\n      swap2\n      sub\n      swap1\n      return\n        /* \"Nik_MD_project4.sol\":1733:1879  function addDomain(string memory _domain) public {... */\n    tag_5:\n      tag_21\n      0x04\n      dup1\n      calldatasize\n      sub\n      dup2\n      add\n      swap1\n      tag_22\n      swap2\n      swap1\n      tag_23\n      jump\t// in\n    tag_22:\n      tag_24\n      jump\t// in\n    tag_21:\n      stop\n        /* \"Nik_MD_project4.sol\":1887:2043  function addRecord(address _record) public {... */\n    tag_6:\n      tag_25\n      0x04\n      dup1\n      calldatasize\n      sub\n      dup2\n      add\n      swap1\n      tag_26\n      swap2\n      swap1\n      tag_11\n      jump\t// in\n    tag_26:\n      tag_27\n      jump\t// in\n    tag_25:\n      stop\n        /* \"Nik_MD_project4.sol\":1567:1725  function addRecord(string memory _record) public {... */\n    tag_7:\n      tag_28\n      0x04\n      dup1\n      calldatasize\n      sub\n      dup2\n      add\n      swap1\n      tag_29\n      swap2\n      swap1\n      tag_23\n      jump\t// in\n    tag_29:\n      tag_30\n      jump\t// in\n    tag_28:\n      stop\n        /* \"Nik_MD_project4.sol\":1405:1446  mapping(address => bool) public factories */\n    tag_8:\n      tag_31\n      0x04\n      dup1\n      calldatasize\n      sub\n      dup2\n      add\n      swap1\n      tag_32\n      swap2\n      swap1\n      tag_11\n      jump\t// in\n    tag_32:\n      tag_33\n      jump\t// in\n    tag_31:\n      mload(0x40)\n      tag_34\n      swap2\n      swap1\n      tag_14\n      jump\t// in\n    tag_34:\n      mload(0x40)\n      dup1\n      swap2\n      sub\n      swap1\n      return\n        /* \"Nik_MD_project4.sol\":2051:2199  function addFactory(address _address) public admin returns(bool)  {... */\n    tag_12:\n        /* \"Nik_MD_project4.sol\":2110:2114  bool */\n      0x00\n        /* \"Nik_MD_project4.sol\":1505:1515  contrOwner */\n      dup1\n      0x00\n      swap1\n      sload\n      swap1\n      0x0100\n      exp\n      swap1\n      div\n      0xffffffffffffffffffffffffffffffffffffffff\n      and\n        /* \"Nik_MD_project4.sol\":1491:1515  msg.sender == contrOwner */\n      0xffffffffffffffffffffffffffffffffffffffff\n      and\n        /* \"Nik_MD_project4.sol\":1491:1501  msg.sender */\n      caller\n        /* \"Nik_MD_project4.sol\":1491:1515  msg.sender == contrOwner */\n      0xffffffffffffffffffffffffffffffffffffffff\n      and\n      eq\n        /* \"Nik_MD_project4.sol\":1483:1539  require(msg.sender == contrOwner, 'You are not a owner') */\n      tag_36\n      jumpi\n      mload(0x40)\n      0x08c379a000000000000000000000000000000000000000000000000000000000\n      dup2\n      mstore\n      0x04\n      add\n      tag_37\n      swap1\n      tag_38\n      jump\t// in\n    tag_37:\n      mload(0x40)\n      dup1\n      swap2\n      sub\n      swap1\n      revert\n    tag_36:\n        /* \"Nik_MD_project4.sol\":2150:2154  true */\n      0x01\n        /* \"Nik_MD_project4.sol\":2128:2137  factories */\n      0x02\n        /* \"Nik_MD_project4.sol\":2128:2147  factories[_address] */\n      0x00\n        /* \"Nik_MD_project4.sol\":2138:2146  _address */\n      dup5\n        /* \"Nik_MD_project4.sol\":2128:2147  factories[_address] */\n      0xffffffffffffffffffffffffffffffffffffffff\n      and\n      0xffffffffffffffffffffffffffffffffffffffff\n      and\n      dup2\n      mstore\n      0x20\n      add\n      swap1\n      dup2\n      mstore\n      0x20\n      add\n      0x00\n      keccak256\n      0x00\n        /* \"Nik_MD_project4.sol\":2128:2154  factories[_address] = true */\n      0x0100\n      exp\n      dup2\n      sload\n      dup2\n      0xff\n      mul\n      not\n      and\n      swap1\n      dup4\n      iszero\n      iszero\n      mul\n      or\n      swap1\n      sstore\n      pop\n        /* \"Nik_MD_project4.sol\":2172:2181  factories */\n      0x02\n        /* \"Nik_MD_project4.sol\":2172:2191  factories[_address] */\n      0x00\n        /* \"Nik_MD_project4.sol\":2182:2190  _address */\n      dup4\n        /* \"Nik_MD_project4.sol\":2172:2191  factories[_address] */\n      0xffffffffffffffffffffffffffffffffffffffff\n      and\n      0xffffffffffffffffffffffffffffffffffffffff\n      and\n      dup2\n      mstore\n      0x20\n      add\n      swap1\n      dup2\n      mstore\n      0x20\n      add\n      0x00\n      keccak256\n      0x00\n      swap1\n      sload\n      swap1\n      0x0100\n      exp\n      swap1\n      div\n      0xff\n      and\n        /* \"Nik_MD_project4.sol\":2165:2191  return factories[_address] */\n      swap1\n      pop\n        /* \"Nik_MD_project4.sol\":2051:2199  function addFactory(address _address) public admin returns(bool)  {... */\n      swap2\n      swap1\n      pop\n      jump\t// out\n        /* \"Nik_MD_project4.sol\":1375:1398  Record[] public records */\n    tag_18:\n      0x01\n      dup2\n      dup2\n      sload\n      dup2\n      lt\n      tag_40\n      jumpi\n      0x00\n      dup1\n      revert\n    tag_40:\n      swap1\n      0x00\n      mstore\n      keccak256(0x00, 0x20)\n      add\n      0x00\n      swap2\n      pop\n      sload\n      swap1\n      0x0100\n      exp\n      swap1\n      div\n      0xffffffffffffffffffffffffffffffffffffffff\n      and\n      dup2\n      jump\t// out\n        /* \"Nik_MD_project4.sol\":1733:1879  function addDomain(string memory _domain) public {... */\n    tag_24:\n        /* \"Nik_MD_project4.sol\":1793:1812  EnsRecord ensRecord */\n      0x00\n        /* \"Nik_MD_project4.sol\":1829:1836  _domain */\n      dup2\n        /* \"Nik_MD_project4.sol\":1815:1837  new EnsRecord(_domain) */\n      mload(0x40)\n      tag_43\n      swap1\n      tag_44\n      jump\t// in\n    tag_43:\n      tag_45\n      swap2\n      swap1\n      tag_46\n      jump\t// in\n    tag_45:\n      mload(0x40)\n      dup1\n      swap2\n      sub\n      swap1\n      0x00\n      create\n      dup1\n      iszero\n      dup1\n      iszero\n      tag_47\n      jumpi\n      returndatasize\n      0x00\n      dup1\n      returndatacopy\n      revert(0x00, returndatasize)\n    tag_47:\n      pop\n        /* \"Nik_MD_project4.sol\":1793:1837  EnsRecord ensRecord = new EnsRecord(_domain) */\n      swap1\n      pop\n        /* \"Nik_MD_project4.sol\":1848:1855  records */\n      0x01\n        /* \"Nik_MD_project4.sol\":1861:1870  ensRecord */\n      dup2\n        /* \"Nik_MD_project4.sol\":1848:1871  records.push(ensRecord) */\n      swap1\n      dup1\n      0x01\n      dup2\n      sload\n      add\n      dup1\n      dup3\n      sstore\n      dup1\n      swap2\n      pop\n      pop\n      0x01\n      swap1\n      sub\n      swap1\n      0x00\n      mstore\n      keccak256(0x00, 0x20)\n      add\n      0x00\n      swap1\n      swap2\n      swap1\n      swap2\n      swap1\n      swap2\n      0x0100\n      exp\n      dup2\n      sload\n      dup2\n      0xffffffffffffffffffffffffffffffffffffffff\n      mul\n      not\n      and\n      swap1\n      dup4\n      0xffffffffffffffffffffffffffffffffffffffff\n      and\n      mul\n      or\n      swap1\n      sstore\n      pop\n        /* \"Nik_MD_project4.sol\":1782:1879  {... */\n      pop\n        /* \"Nik_MD_project4.sol\":1733:1879  function addDomain(string memory _domain) public {... */\n      pop\n      jump\t// out\n        /* \"Nik_MD_project4.sol\":1887:2043  function addRecord(address _record) public {... */\n    tag_27:\n        /* \"Nik_MD_project4.sol\":1941:1968  AddressRecord addressRecord */\n      0x00\n        /* \"Nik_MD_project4.sol\":1989:1996  _record */\n      dup2\n        /* \"Nik_MD_project4.sol\":1971:1997  new AddressRecord(_record) */\n      mload(0x40)\n      tag_50\n      swap1\n      tag_51\n      jump\t// in\n    tag_50:\n      tag_52\n      swap2\n      swap1\n      tag_53\n      jump\t// in\n    tag_52:\n      mload(0x40)\n      dup1\n      swap2\n      sub\n      swap1\n      0x00\n      create\n      dup1\n      iszero\n      dup1\n      iszero\n      tag_54\n      jumpi\n      returndatasize\n      0x00\n      dup1\n      returndatacopy\n      revert(0x00, returndatasize)\n    tag_54:\n      pop\n        /* \"Nik_MD_project4.sol\":1941:1997  AddressRecord addressRecord = new AddressRecord(_record) */\n      swap1\n      pop\n        /* \"Nik_MD_project4.sol\":2008:2015  records */\n      0x01\n        /* \"Nik_MD_project4.sol\":2021:2034  addressRecord */\n      dup2\n        /* \"Nik_MD_project4.sol\":2008:2035  records.push(addressRecord) */\n      swap1\n      dup1\n      0x01\n      dup2\n      sload\n      add\n      dup1\n      dup3\n      sstore\n      dup1\n      swap2\n      pop\n      pop\n      0x01\n      swap1\n      sub\n      swap1\n      0x00\n      mstore\n      keccak256(0x00, 0x20)\n      add\n      0x00\n      swap1\n      swap2\n      swap1\n      swap2\n      swap1\n      swap2\n      0x0100\n      exp\n      dup2\n      sload\n      dup2\n      0xffffffffffffffffffffffffffffffffffffffff\n      mul\n      not\n      and\n      swap1\n      dup4\n      0xffffffffffffffffffffffffffffffffffffffff\n      and\n      mul\n      or\n      swap1\n      sstore\n      pop\n        /* \"Nik_MD_project4.sol\":1930:2043  {... */\n      pop\n        /* \"Nik_MD_project4.sol\":1887:2043  function addRecord(address _record) public {... */\n      pop\n      jump\t// out\n        /* \"Nik_MD_project4.sol\":1567:1725  function addRecord(string memory _record) public {... */\n    tag_30:\n        /* \"Nik_MD_project4.sol\":1627:1652  StringRecord stringRecord */\n      0x00\n        /* \"Nik_MD_project4.sol\":1672:1679  _record */\n      dup2\n        /* \"Nik_MD_project4.sol\":1655:1680  new StringRecord(_record) */\n      mload(0x40)\n      tag_57\n      swap1\n      tag_58\n      jump\t// in\n    tag_57:\n      tag_59\n      swap2\n      swap1\n      tag_46\n      jump\t// in\n    tag_59:\n      mload(0x40)\n      dup1\n      swap2\n      sub\n      swap1\n      0x00\n      create\n      dup1\n      iszero\n      dup1\n      iszero\n      tag_60\n      jumpi\n      returndatasize\n      0x00\n      dup1\n      returndatacopy\n      revert(0x00, returndatasize)\n    tag_60:\n      pop\n        /* \"Nik_MD_project4.sol\":1627:1680  StringRecord stringRecord = new StringRecord(_record) */\n      swap1\n      pop\n        /* \"Nik_MD_project4.sol\":1691:1698  records */\n      0x01\n        /* \"Nik_MD_project4.sol\":1704:1716  stringRecord */\n      dup2\n        /* \"Nik_MD_project4.sol\":1691:1717  records.push(stringRecord) */\n      swap1\n      dup1\n      0x01\n      dup2\n      sload\n      add\n      dup1\n      dup3\n      sstore\n      dup1\n      swap2\n      pop\n      pop\n      0x01\n      swap1\n      sub\n      swap1\n      0x00\n      mstore\n      keccak256(0x00, 0x20)\n      add\n      0x00\n      swap1\n      swap2\n      swap1\n      swap2\n      swap1\n      swap2\n      0x0100\n      exp\n      dup2\n      sload\n      dup2\n      0xffffffffffffffffffffffffffffffffffffffff\n      mul\n      not\n      and\n      swap1\n      dup4\n      0xffffffffffffffffffffffffffffffffffffffff\n      and\n      mul\n      or\n      swap1\n      sstore\n      pop\n        /* \"Nik_MD_project4.sol\":1616:1725  {... */\n      pop\n        /* \"Nik_MD_project4.sol\":1567:1725  function addRecord(string memory _record) public {... */\n      pop\n      jump\t// out\n        /* \"Nik_MD_project4.sol\":1405:1446  mapping(address => bool) public factories */\n    tag_33:\n      mstore(0x20, 0x02)\n      dup1\n      0x00\n      mstore\n      keccak256(0x00, 0x40)\n      0x00\n      swap2\n      pop\n      sload\n      swap1\n      0x0100\n      exp\n      swap1\n      div\n      0xff\n      and\n      dup2\n      jump\t// out\n    tag_44:\n      dataSize(sub_0)\n      dup1\n      dataOffset(sub_0)\n      dup4\n      codecopy\n      add\n      swap1\n      jump\t// out\n    tag_51:\n      dataSize(sub_1)\n      dup1\n      dataOffset(sub_1)\n      dup4\n      codecopy\n      add\n      swap1\n      jump\t// out\n    tag_58:\n      dataSize(sub_2)\n      dup1\n      dataOffset(sub_2)\n      dup4\n      codecopy\n      add\n      swap1\n      jump\t// out\n        /* \"#utility.yul\":7:82   */\n    tag_62:\n        /* \"#utility.yul\":40:46   */\n      0x00\n        /* \"#utility.yul\":73:75   */\n      0x40\n        /* \"#utility.yul\":67:76   */\n      mload\n        /* \"#utility.yul\":57:76   */\n      swap1\n      pop\n        /* \"#utility.yul\":7:82   */\n      swap1\n      jump\t// out\n        /* \"#utility.yul\":88:205   */\n    tag_63:\n        /* \"#utility.yul\":197:198   */\n      0x00\n        /* \"#utility.yul\":194:195   */\n      dup1\n        /* \"#utility.yul\":187:199   */\n      revert\n        /* \"#utility.yul\":211:328   */\n    tag_64:\n        /* \"#utility.yul\":320:321   */\n      0x00\n        /* \"#utility.yul\":317:318   */\n      dup1\n        /* \"#utility.yul\":310:322   */\n      revert\n        /* \"#utility.yul\":334:460   */\n    tag_65:\n        /* \"#utility.yul\":371:378   */\n      0x00\n        /* \"#utility.yul\":411:453   */\n      0xffffffffffffffffffffffffffffffffffffffff\n        /* \"#utility.yul\":404:409   */\n      dup3\n        /* \"#utility.yul\":400:454   */\n      and\n        /* \"#utility.yul\":389:454   */\n      swap1\n      pop\n        /* \"#utility.yul\":334:460   */\n      swap2\n      swap1\n      pop\n      jump\t// out\n        /* \"#utility.yul\":466:562   */\n    tag_66:\n        /* \"#utility.yul\":503:510   */\n      0x00\n        /* \"#utility.yul\":532:556   */\n      tag_102\n        /* \"#utility.yul\":550:555   */\n      dup3\n        /* \"#utility.yul\":532:556   */\n      tag_65\n      jump\t// in\n    tag_102:\n        /* \"#utility.yul\":521:556   */\n      swap1\n      pop\n        /* \"#utility.yul\":466:562   */\n      swap2\n      swap1\n      pop\n      jump\t// out\n        /* \"#utility.yul\":568:690   */\n    tag_67:\n        /* \"#utility.yul\":641:665   */\n      tag_104\n        /* \"#utility.yul\":659:664   */\n      dup2\n        /* \"#utility.yul\":641:665   */\n      tag_66\n      jump\t// in\n    tag_104:\n        /* \"#utility.yul\":634:639   */\n      dup2\n        /* \"#utility.yul\":631:666   */\n      eq\n        /* \"#utility.yul\":621:684   */\n      tag_105\n      jumpi\n        /* \"#utility.yul\":680:681   */\n      0x00\n        /* \"#utility.yul\":677:678   */\n      dup1\n        /* \"#utility.yul\":670:682   */\n      revert\n        /* \"#utility.yul\":621:684   */\n    tag_105:\n        /* \"#utility.yul\":568:690   */\n      pop\n      jump\t// out\n        /* \"#utility.yul\":696:835   */\n    tag_68:\n        /* \"#utility.yul\":742:747   */\n      0x00\n        /* \"#utility.yul\":780:786   */\n      dup2\n        /* \"#utility.yul\":767:787   */\n      calldataload\n        /* \"#utility.yul\":758:787   */\n      swap1\n      pop\n        /* \"#utility.yul\":796:829   */\n      tag_107\n        /* \"#utility.yul\":823:828   */\n      dup2\n        /* \"#utility.yul\":796:829   */\n      tag_67\n      jump\t// in\n    tag_107:\n        /* \"#utility.yul\":696:835   */\n      swap3\n      swap2\n      pop\n      pop\n      jump\t// out\n        /* \"#utility.yul\":841:1170   */\n    tag_11:\n        /* \"#utility.yul\":900:906   */\n      0x00\n        /* \"#utility.yul\":949:951   */\n      0x20\n        /* \"#utility.yul\":937:946   */\n      dup3\n        /* \"#utility.yul\":928:935   */\n      dup5\n        /* \"#utility.yul\":924:947   */\n      sub\n        /* \"#utility.yul\":920:952   */\n      slt\n        /* \"#utility.yul\":917:1036   */\n      iszero\n      tag_109\n      jumpi\n        /* \"#utility.yul\":955:1034   */\n      tag_110\n      tag_63\n      jump\t// in\n    tag_110:\n        /* \"#utility.yul\":917:1036   */\n    tag_109:\n        /* \"#utility.yul\":1075:1076   */\n      0x00\n        /* \"#utility.yul\":1100:1153   */\n      tag_111\n        /* \"#utility.yul\":1145:1152   */\n      dup5\n        /* \"#utility.yul\":1136:1142   */\n      dup3\n        /* \"#utility.yul\":1125:1134   */\n      dup6\n        /* \"#utility.yul\":1121:1143   */\n      add\n        /* \"#utility.yul\":1100:1153   */\n      tag_68\n      jump\t// in\n    tag_111:\n        /* \"#utility.yul\":1090:1153   */\n      swap2\n      pop\n        /* \"#utility.yul\":1046:1163   */\n      pop\n        /* \"#utility.yul\":841:1170   */\n      swap3\n      swap2\n      pop\n      pop\n      jump\t// out\n        /* \"#utility.yul\":1176:1266   */\n    tag_69:\n        /* \"#utility.yul\":1210:1217   */\n      0x00\n        /* \"#utility.yul\":1253:1258   */\n      dup2\n        /* \"#utility.yul\":1246:1259   */\n      iszero\n        /* \"#utility.yul\":1239:1260   */\n      iszero\n        /* \"#utility.yul\":1228:1260   */\n      swap1\n      pop\n        /* \"#utility.yul\":1176:1266   */\n      swap2\n      swap1\n      pop\n      jump\t// out\n        /* \"#utility.yul\":1272:1381   */\n    tag_70:\n        /* \"#utility.yul\":1353:1374   */\n      tag_114\n        /* \"#utility.yul\":1368:1373   */\n      dup2\n        /* \"#utility.yul\":1353:1374   */\n      tag_69\n      jump\t// in\n    tag_114:\n        /* \"#utility.yul\":1348:1351   */\n      dup3\n        /* \"#utility.yul\":1341:1375   */\n      mstore\n        /* \"#utility.yul\":1272:1381   */\n      pop\n      pop\n      jump\t// out\n        /* \"#utility.yul\":1387:1597   */\n    tag_14:\n        /* \"#utility.yul\":1474:1478   */\n      0x00\n        /* \"#utility.yul\":1512:1514   */\n      0x20\n        /* \"#utility.yul\":1501:1510   */\n      dup3\n        /* \"#utility.yul\":1497:1515   */\n      add\n        /* \"#utility.yul\":1489:1515   */\n      swap1\n      pop\n        /* \"#utility.yul\":1525:1590   */\n      tag_116\n        /* \"#utility.yul\":1587:1588   */\n      0x00\n        /* \"#utility.yul\":1576:1585   */\n      dup4\n        /* \"#utility.yul\":1572:1589   */\n      add\n        /* \"#utility.yul\":1563:1569   */\n      dup5\n        /* \"#utility.yul\":1525:1590   */\n      tag_70\n      jump\t// in\n    tag_116:\n        /* \"#utility.yul\":1387:1597   */\n      swap3\n      swap2\n      pop\n      pop\n      jump\t// out\n        /* \"#utility.yul\":1603:1680   */\n    tag_71:\n        /* \"#utility.yul\":1640:1647   */\n      0x00\n        /* \"#utility.yul\":1669:1674   */\n      dup2\n        /* \"#utility.yul\":1658:1674   */\n      swap1\n      pop\n        /* \"#utility.yul\":1603:1680   */\n      swap2\n      swap1\n      pop\n      jump\t// out\n        /* \"#utility.yul\":1686:1808   */\n    tag_72:\n        /* \"#utility.yul\":1759:1783   */\n      tag_119\n        /* \"#utility.yul\":1777:1782   */\n      dup2\n        /* \"#utility.yul\":1759:1783   */\n      tag_71\n      jump\t// in\n    tag_119:\n        /* \"#utility.yul\":1752:1757   */\n      dup2\n        /* \"#utility.yul\":1749:1784   */\n      eq\n        /* \"#utility.yul\":1739:1802   */\n      tag_120\n      jumpi\n        /* \"#utility.yul\":1798:1799   */\n      0x00\n        /* \"#utility.yul\":1795:1796   */\n      dup1\n        /* \"#utility.yul\":1788:1800   */\n      revert\n        /* \"#utility.yul\":1739:1802   */\n    tag_120:\n        /* \"#utility.yul\":1686:1808   */\n      pop\n      jump\t// out\n        /* \"#utility.yul\":1814:1953   */\n    tag_73:\n        /* \"#utility.yul\":1860:1865   */\n      0x00\n        /* \"#utility.yul\":1898:1904   */\n      dup2\n        /* \"#utility.yul\":1885:1905   */\n      calldataload\n        /* \"#utility.yul\":1876:1905   */\n      swap1\n      pop\n        /* \"#utility.yul\":1914:1947   */\n      tag_122\n        /* \"#utility.yul\":1941:1946   */\n      dup2\n        /* \"#utility.yul\":1914:1947   */\n      tag_72\n      jump\t// in\n    tag_122:\n        /* \"#utility.yul\":1814:1953   */\n      swap3\n      swap2\n      pop\n      pop\n      jump\t// out\n        /* \"#utility.yul\":1959:2288   */\n    tag_17:\n        /* \"#utility.yul\":2018:2024   */\n      0x00\n        /* \"#utility.yul\":2067:2069   */\n      0x20\n        /* \"#utility.yul\":2055:2064   */\n      dup3\n        /* \"#utility.yul\":2046:2053   */\n      dup5\n        /* \"#utility.yul\":2042:2065   */\n      sub\n        /* \"#utility.yul\":2038:2070   */\n      slt\n        /* \"#utility.yul\":2035:2154   */\n      iszero\n      tag_124\n      jumpi\n        /* \"#utility.yul\":2073:2152   */\n      tag_125\n      tag_63\n      jump\t// in\n    tag_125:\n        /* \"#utility.yul\":2035:2154   */\n    tag_124:\n        /* \"#utility.yul\":2193:2194   */\n      0x00\n        /* \"#utility.yul\":2218:2271   */\n      tag_126\n        /* \"#utility.yul\":2263:2270   */\n      dup5\n        /* \"#utility.yul\":2254:2260   */\n      dup3\n        /* \"#utility.yul\":2243:2252   */\n      dup6\n        /* \"#utility.yul\":2239:2261   */\n      add\n        /* \"#utility.yul\":2218:2271   */\n      tag_73\n      jump\t// in\n    tag_126:\n        /* \"#utility.yul\":2208:2271   */\n      swap2\n      pop\n        /* \"#utility.yul\":2164:2281   */\n      pop\n        /* \"#utility.yul\":1959:2288   */\n      swap3\n      swap2\n      pop\n      pop\n      jump\t// out\n        /* \"#utility.yul\":2294:2354   */\n    tag_74:\n        /* \"#utility.yul\":2322:2325   */\n      0x00\n        /* \"#utility.yul\":2343:2348   */\n      dup2\n        /* \"#utility.yul\":2336:2348   */\n      swap1\n      pop\n        /* \"#utility.yul\":2294:2354   */\n      swap2\n      swap1\n      pop\n      jump\t// out\n        /* \"#utility.yul\":2360:2502   */\n    tag_75:\n        /* \"#utility.yul\":2410:2419   */\n      0x00\n        /* \"#utility.yul\":2443:2496   */\n      tag_129\n        /* \"#utility.yul\":2461:2495   */\n      tag_130\n        /* \"#utility.yul\":2470:2494   */\n      tag_131\n        /* \"#utility.yul\":2488:2493   */\n      dup5\n        /* \"#utility.yul\":2470:2494   */\n      tag_65\n      jump\t// in\n    tag_131:\n        /* \"#utility.yul\":2461:2495   */\n      tag_74\n      jump\t// in\n    tag_130:\n        /* \"#utility.yul\":2443:2496   */\n      tag_65\n      jump\t// in\n    tag_129:\n        /* \"#utility.yul\":2430:2496   */\n      swap1\n      pop\n        /* \"#utility.yul\":2360:2502   */\n      swap2\n      swap1\n      pop\n      jump\t// out\n        /* \"#utility.yul\":2508:2634   */\n    tag_76:\n        /* \"#utility.yul\":2558:2567   */\n      0x00\n        /* \"#utility.yul\":2591:2628   */\n      tag_133\n        /* \"#utility.yul\":2622:2627   */\n      dup3\n        /* \"#utility.yul\":2591:2628   */\n      tag_75\n      jump\t// in\n    tag_133:\n        /* \"#utility.yul\":2578:2628   */\n      swap1\n      pop\n        /* \"#utility.yul\":2508:2634   */\n      swap2\n      swap1\n      pop\n      jump\t// out\n        /* \"#utility.yul\":2640:2779   */\n    tag_77:\n        /* \"#utility.yul\":2703:2712   */\n      0x00\n        /* \"#utility.yul\":2736:2773   */\n      tag_135\n        /* \"#utility.yul\":2767:2772   */\n      dup3\n        /* \"#utility.yul\":2736:2773   */\n      tag_76\n      jump\t// in\n    tag_135:\n        /* \"#utility.yul\":2723:2773   */\n      swap1\n      pop\n        /* \"#utility.yul\":2640:2779   */\n      swap2\n      swap1\n      pop\n      jump\t// out\n        /* \"#utility.yul\":2785:2942   */\n    tag_78:\n        /* \"#utility.yul\":2885:2935   */\n      tag_137\n        /* \"#utility.yul\":2929:2934   */\n      dup2\n        /* \"#utility.yul\":2885:2935   */\n      tag_77\n      jump\t// in\n    tag_137:\n        /* \"#utility.yul\":2880:2883   */\n      dup3\n        /* \"#utility.yul\":2873:2936   */\n      mstore\n        /* \"#utility.yul\":2785:2942   */\n      pop\n      pop\n      jump\t// out\n        /* \"#utility.yul\":2948:3196   */\n    tag_20:\n        /* \"#utility.yul\":3054:3058   */\n      0x00\n        /* \"#utility.yul\":3092:3094   */\n      0x20\n        /* \"#utility.yul\":3081:3090   */\n      dup3\n        /* \"#utility.yul\":3077:3095   */\n      add\n        /* \"#utility.yul\":3069:3095   */\n      swap1\n      pop\n        /* \"#utility.yul\":3105:3189   */\n      tag_139\n        /* \"#utility.yul\":3186:3187   */\n      0x00\n        /* \"#utility.yul\":3175:3184   */\n      dup4\n        /* \"#utility.yul\":3171:3188   */\n      add\n        /* \"#utility.yul\":3162:3168   */\n      dup5\n        /* \"#utility.yul\":3105:3189   */\n      tag_78\n      jump\t// in\n    tag_139:\n        /* \"#utility.yul\":2948:3196   */\n      swap3\n      swap2\n      pop\n      pop\n      jump\t// out\n        /* \"#utility.yul\":3202:3319   */\n    tag_79:\n        /* \"#utility.yul\":3311:3312   */\n      0x00\n        /* \"#utility.yul\":3308:3309   */\n      dup1\n        /* \"#utility.yul\":3301:3313   */\n      revert\n        /* \"#utility.yul\":3325:3442   */\n    tag_80:\n        /* \"#utility.yul\":3434:3435   */\n      0x00\n        /* \"#utility.yul\":3431:3432   */\n      dup1\n        /* \"#utility.yul\":3424:3436   */\n      revert\n        /* \"#utility.yul\":3448:3550   */\n    tag_81:\n        /* \"#utility.yul\":3489:3495   */\n      0x00\n        /* \"#utility.yul\":3540:3542   */\n      0x1f\n        /* \"#utility.yul\":3536:3543   */\n      not\n        /* \"#utility.yul\":3531:3533   */\n      0x1f\n        /* \"#utility.yul\":3524:3529   */\n      dup4\n        /* \"#utility.yul\":3520:3534   */\n      add\n        /* \"#utility.yul\":3516:3544   */\n      and\n        /* \"#utility.yul\":3506:3544   */\n      swap1\n      pop\n        /* \"#utility.yul\":3448:3550   */\n      swap2\n      swap1\n      pop\n      jump\t// out\n        /* \"#utility.yul\":3556:3736   */\n    tag_82:\n        /* \"#utility.yul\":3604:3681   */\n      0x4e487b7100000000000000000000000000000000000000000000000000000000\n        /* \"#utility.yul\":3601:3602   */\n      0x00\n        /* \"#utility.yul\":3594:3682   */\n      mstore\n        /* \"#utility.yul\":3701:3705   */\n      0x41\n        /* \"#utility.yul\":3698:3699   */\n      0x04\n        /* \"#utility.yul\":3691:3706   */\n      mstore\n        /* \"#utility.yul\":3725:3729   */\n      0x24\n        /* \"#utility.yul\":3722:3723   */\n      0x00\n        /* \"#utility.yul\":3715:3730   */\n      revert\n        /* \"#utility.yul\":3742:4023   */\n    tag_83:\n        /* \"#utility.yul\":3825:3852   */\n      tag_145\n        /* \"#utility.yul\":3847:3851   */\n      dup3\n        /* \"#utility.yul\":3825:3852   */\n      tag_81\n      jump\t// in\n    tag_145:\n        /* \"#utility.yul\":3817:3823   */\n      dup2\n        /* \"#utility.yul\":3813:3853   */\n      add\n        /* \"#utility.yul\":3955:3961   */\n      dup2\n        /* \"#utility.yul\":3943:3953   */\n      dup2\n        /* \"#utility.yul\":3940:3962   */\n      lt\n        /* \"#utility.yul\":3919:3937   */\n      0xffffffffffffffff\n        /* \"#utility.yul\":3907:3917   */\n      dup3\n        /* \"#utility.yul\":3904:3938   */\n      gt\n        /* \"#utility.yul\":3901:3963   */\n      or\n        /* \"#utility.yul\":3898:3986   */\n      iszero\n      tag_146\n      jumpi\n        /* \"#utility.yul\":3966:3984   */\n      tag_147\n      tag_82\n      jump\t// in\n    tag_147:\n        /* \"#utility.yul\":3898:3986   */\n    tag_146:\n        /* \"#utility.yul\":4006:4016   */\n      dup1\n        /* \"#utility.yul\":4002:4004   */\n      0x40\n        /* \"#utility.yul\":3995:4017   */\n      mstore\n        /* \"#utility.yul\":3785:4023   */\n      pop\n        /* \"#utility.yul\":3742:4023   */\n      pop\n      pop\n      jump\t// out\n        /* \"#utility.yul\":4029:4158   */\n    tag_84:\n        /* \"#utility.yul\":4063:4069   */\n      0x00\n        /* \"#utility.yul\":4090:4110   */\n      tag_149\n      tag_62\n      jump\t// in\n    tag_149:\n        /* \"#utility.yul\":4080:4110   */\n      swap1\n      pop\n        /* \"#utility.yul\":4119:4152   */\n      tag_150\n        /* \"#utility.yul\":4147:4151   */\n      dup3\n        /* \"#utility.yul\":4139:4145   */\n      dup3\n        /* \"#utility.yul\":4119:4152   */\n      tag_83\n      jump\t// in\n    tag_150:\n        /* \"#utility.yul\":4029:4158   */\n      swap2\n      swap1\n      pop\n      jump\t// out\n        /* \"#utility.yul\":4164:4472   */\n    tag_85:\n        /* \"#utility.yul\":4226:4230   */\n      0x00\n        /* \"#utility.yul\":4316:4334   */\n      0xffffffffffffffff\n        /* \"#utility.yul\":4308:4314   */\n      dup3\n        /* \"#utility.yul\":4305:4335   */\n      gt\n        /* \"#utility.yul\":4302:4358   */\n      iszero\n      tag_152\n      jumpi\n        /* \"#utility.yul\":4338:4356   */\n      tag_153\n      tag_82\n      jump\t// in\n    tag_153:\n        /* \"#utility.yul\":4302:4358   */\n    tag_152:\n        /* \"#utility.yul\":4376:4405   */\n      tag_154\n        /* \"#utility.yul\":4398:4404   */\n      dup3\n        /* \"#utility.yul\":4376:4405   */\n      tag_81\n      jump\t// in\n    tag_154:\n        /* \"#utility.yul\":4368:4405   */\n      swap1\n      pop\n        /* \"#utility.yul\":4460:4464   */\n      0x20\n        /* \"#utility.yul\":4454:4458   */\n      dup2\n        /* \"#utility.yul\":4450:4465   */\n      add\n        /* \"#utility.yul\":4442:4465   */\n      swap1\n      pop\n        /* \"#utility.yul\":4164:4472   */\n      swap2\n      swap1\n      pop\n      jump\t// out\n        /* \"#utility.yul\":4478:4624   */\n    tag_86:\n        /* \"#utility.yul\":4575:4581   */\n      dup3\n        /* \"#utility.yul\":4570:4573   */\n      dup2\n        /* \"#utility.yul\":4565:4568   */\n      dup4\n        /* \"#utility.yul\":4552:4582   */\n      calldatacopy\n        /* \"#utility.yul\":4616:4617   */\n      0x00\n        /* \"#utility.yul\":4607:4613   */\n      dup4\n        /* \"#utility.yul\":4602:4605   */\n      dup4\n        /* \"#utility.yul\":4598:4614   */\n      add\n        /* \"#utility.yul\":4591:4618   */\n      mstore\n        /* \"#utility.yul\":4478:4624   */\n      pop\n      pop\n      pop\n      jump\t// out\n        /* \"#utility.yul\":4630:5055   */\n    tag_87:\n        /* \"#utility.yul\":4708:4713   */\n      0x00\n        /* \"#utility.yul\":4733:4799   */\n      tag_157\n        /* \"#utility.yul\":4749:4798   */\n      tag_158\n        /* \"#utility.yul\":4791:4797   */\n      dup5\n        /* \"#utility.yul\":4749:4798   */\n      tag_85\n      jump\t// in\n    tag_158:\n        /* \"#utility.yul\":4733:4799   */\n      tag_84\n      jump\t// in\n    tag_157:\n        /* \"#utility.yul\":4724:4799   */\n      swap1\n      pop\n        /* \"#utility.yul\":4822:4828   */\n      dup3\n        /* \"#utility.yul\":4815:4820   */\n      dup2\n        /* \"#utility.yul\":4808:4829   */\n      mstore\n        /* \"#utility.yul\":4860:4864   */\n      0x20\n        /* \"#utility.yul\":4853:4858   */\n      dup2\n        /* \"#utility.yul\":4849:4865   */\n      add\n        /* \"#utility.yul\":4898:4901   */\n      dup5\n        /* \"#utility.yul\":4889:4895   */\n      dup5\n        /* \"#utility.yul\":4884:4887   */\n      dup5\n        /* \"#utility.yul\":4880:4896   */\n      add\n        /* \"#utility.yul\":4877:4902   */\n      gt\n        /* \"#utility.yul\":4874:4986   */\n      iszero\n      tag_159\n      jumpi\n        /* \"#utility.yul\":4905:4984   */\n      tag_160\n      tag_80\n      jump\t// in\n    tag_160:\n        /* \"#utility.yul\":4874:4986   */\n    tag_159:\n        /* \"#utility.yul\":4995:5049   */\n      tag_161\n        /* \"#utility.yul\":5042:5048   */\n      dup5\n        /* \"#utility.yul\":5037:5040   */\n      dup3\n        /* \"#utility.yul\":5032:5035   */\n      dup6\n        /* \"#utility.yul\":4995:5049   */\n      tag_86\n      jump\t// in\n    tag_161:\n        /* \"#utility.yul\":4714:5055   */\n      pop\n        /* \"#utility.yul\":4630:5055   */\n      swap4\n      swap3\n      pop\n      pop\n      pop\n      jump\t// out\n        /* \"#utility.yul\":5075:5415   */\n    tag_88:\n        /* \"#utility.yul\":5131:5136   */\n      0x00\n        /* \"#utility.yul\":5180:5183   */\n      dup3\n        /* \"#utility.yul\":5173:5177   */\n      0x1f\n        /* \"#utility.yul\":5165:5171   */\n      dup4\n        /* \"#utility.yul\":5161:5178   */\n      add\n        /* \"#utility.yul\":5157:5184   */\n      slt\n        /* \"#utility.yul\":5147:5269   */\n      tag_163\n      jumpi\n        /* \"#utility.yul\":5188:5267   */\n      tag_164\n      tag_79\n      jump\t// in\n    tag_164:\n        /* \"#utility.yul\":5147:5269   */\n    tag_163:\n        /* \"#utility.yul\":5305:5311   */\n      dup2\n        /* \"#utility.yul\":5292:5312   */\n      calldataload\n        /* \"#utility.yul\":5330:5409   */\n      tag_165\n        /* \"#utility.yul\":5405:5408   */\n      dup5\n        /* \"#utility.yul\":5397:5403   */\n      dup3\n        /* \"#utility.yul\":5390:5394   */\n      0x20\n        /* \"#utility.yul\":5382:5388   */\n      dup7\n        /* \"#utility.yul\":5378:5395   */\n      add\n        /* \"#utility.yul\":5330:5409   */\n      tag_87\n      jump\t// in\n    tag_165:\n        /* \"#utility.yul\":5321:5409   */\n      swap2\n      pop\n        /* \"#utility.yul\":5137:5415   */\n      pop\n        /* \"#utility.yul\":5075:5415   */\n      swap3\n      swap2\n      pop\n      pop\n      jump\t// out\n        /* \"#utility.yul\":5421:5930   */\n    tag_23:\n        /* \"#utility.yul\":5490:5496   */\n      0x00\n        /* \"#utility.yul\":5539:5541   */\n      0x20\n        /* \"#utility.yul\":5527:5536   */\n      dup3\n        /* \"#utility.yul\":5518:5525   */\n      dup5\n        /* \"#utility.yul\":5514:5537   */\n      sub\n        /* \"#utility.yul\":5510:5542   */\n      slt\n        /* \"#utility.yul\":5507:5626   */\n      iszero\n      tag_167\n      jumpi\n        /* \"#utility.yul\":5545:5624   */\n      tag_168\n      tag_63\n      jump\t// in\n    tag_168:\n        /* \"#utility.yul\":5507:5626   */\n    tag_167:\n        /* \"#utility.yul\":5693:5694   */\n      0x00\n        /* \"#utility.yul\":5682:5691   */\n      dup3\n        /* \"#utility.yul\":5678:5695   */\n      add\n        /* \"#utility.yul\":5665:5696   */\n      calldataload\n        /* \"#utility.yul\":5723:5741   */\n      0xffffffffffffffff\n        /* \"#utility.yul\":5715:5721   */\n      dup2\n        /* \"#utility.yul\":5712:5742   */\n      gt\n        /* \"#utility.yul\":5709:5826   */\n      iszero\n      tag_169\n      jumpi\n        /* \"#utility.yul\":5745:5824   */\n      tag_170\n      tag_64\n      jump\t// in\n    tag_170:\n        /* \"#utility.yul\":5709:5826   */\n    tag_169:\n        /* \"#utility.yul\":5850:5913   */\n      tag_171\n        /* \"#utility.yul\":5905:5912   */\n      dup5\n        /* \"#utility.yul\":5896:5902   */\n      dup3\n        /* \"#utility.yul\":5885:5894   */\n      dup6\n        /* \"#utility.yul\":5881:5903   */\n      add\n        /* \"#utility.yul\":5850:5913   */\n      tag_88\n      jump\t// in\n    tag_171:\n        /* \"#utility.yul\":5840:5913   */\n      swap2\n      pop\n        /* \"#utility.yul\":5636:5923   */\n      pop\n        /* \"#utility.yul\":5421:5930   */\n      swap3\n      swap2\n      pop\n      pop\n      jump\t// out\n        /* \"#utility.yul\":5936:6105   */\n    tag_89:\n        /* \"#utility.yul\":6020:6031   */\n      0x00\n        /* \"#utility.yul\":6054:6060   */\n      dup3\n        /* \"#utility.yul\":6049:6052   */\n      dup3\n        /* \"#utility.yul\":6042:6061   */\n      mstore\n        /* \"#utility.yul\":6094:6098   */\n      0x20\n        /* \"#utility.yul\":6089:6092   */\n      dup3\n        /* \"#utility.yul\":6085:6099   */\n      add\n        /* \"#utility.yul\":6070:6099   */\n      swap1\n      pop\n        /* \"#utility.yul\":5936:6105   */\n      swap3\n      swap2\n      pop\n      pop\n      jump\t// out\n        /* \"#utility.yul\":6111:6280   */\n    tag_90:\n        /* \"#utility.yul\":6251:6272   */\n      0x596f7520617265206e6f742061206f776e657200000000000000000000000000\n        /* \"#utility.yul\":6247:6248   */\n      0x00\n        /* \"#utility.yul\":6239:6245   */\n      dup3\n        /* \"#utility.yul\":6235:6249   */\n      add\n        /* \"#utility.yul\":6228:6273   */\n      mstore\n        /* \"#utility.yul\":6111:6280   */\n      pop\n      jump\t// out\n        /* \"#utility.yul\":6286:6652   */\n    tag_91:\n        /* \"#utility.yul\":6428:6431   */\n      0x00\n        /* \"#utility.yul\":6449:6516   */\n      tag_175\n        /* \"#utility.yul\":6513:6515   */\n      0x13\n        /* \"#utility.yul\":6508:6511   */\n      dup4\n        /* \"#utility.yul\":6449:6516   */\n      tag_89\n      jump\t// in\n    tag_175:\n        /* \"#utility.yul\":6442:6516   */\n      swap2\n      pop\n        /* \"#utility.yul\":6525:6618   */\n      tag_176\n        /* \"#utility.yul\":6614:6617   */\n      dup3\n        /* \"#utility.yul\":6525:6618   */\n      tag_90\n      jump\t// in\n    tag_176:\n        /* \"#utility.yul\":6643:6645   */\n      0x20\n        /* \"#utility.yul\":6638:6641   */\n      dup3\n        /* \"#utility.yul\":6634:6646   */\n      add\n        /* \"#utility.yul\":6627:6646   */\n      swap1\n      pop\n        /* \"#utility.yul\":6286:6652   */\n      swap2\n      swap1\n      pop\n      jump\t// out\n        /* \"#utility.yul\":6658:7077   */\n    tag_38:\n        /* \"#utility.yul\":6824:6828   */\n      0x00\n        /* \"#utility.yul\":6862:6864   */\n      0x20\n        /* \"#utility.yul\":6851:6860   */\n      dup3\n        /* \"#utility.yul\":6847:6865   */\n      add\n        /* \"#utility.yul\":6839:6865   */\n      swap1\n      pop\n        /* \"#utility.yul\":6911:6920   */\n      dup2\n        /* \"#utility.yul\":6905:6909   */\n      dup2\n        /* \"#utility.yul\":6901:6921   */\n      sub\n        /* \"#utility.yul\":6897:6898   */\n      0x00\n        /* \"#utility.yul\":6886:6895   */\n      dup4\n        /* \"#utility.yul\":6882:6899   */\n      add\n        /* \"#utility.yul\":6875:6922   */\n      mstore\n        /* \"#utility.yul\":6939:7070   */\n      tag_178\n        /* \"#utility.yul\":7065:7069   */\n      dup2\n        /* \"#utility.yul\":6939:7070   */\n      tag_91\n      jump\t// in\n    tag_178:\n        /* \"#utility.yul\":6931:7070   */\n      swap1\n      pop\n        /* \"#utility.yul\":6658:7077   */\n      swap2\n      swap1\n      pop\n      jump\t// out\n        /* \"#utility.yul\":7083:7182   */\n    tag_92:\n        /* \"#utility.yul\":7135:7141   */\n      0x00\n        /* \"#utility.yul\":7169:7174   */\n      dup2\n        /* \"#utility.yul\":7163:7175   */\n      mload\n        /* \"#utility.yul\":7153:7175   */\n      swap1\n      pop\n        /* \"#utility.yul\":7083:7182   */\n      swap2\n      swap1\n      pop\n      jump\t// out\n        /* \"#utility.yul\":7188:7434   */\n    tag_93:\n        /* \"#utility.yul\":7269:7270   */\n      0x00\n        /* \"#utility.yul\":7279:7392   */\n    tag_181:\n        /* \"#utility.yul\":7293:7299   */\n      dup4\n        /* \"#utility.yul\":7290:7291   */\n      dup2\n        /* \"#utility.yul\":7287:7300   */\n      lt\n        /* \"#utility.yul\":7279:7392   */\n      iszero\n      tag_183\n      jumpi\n        /* \"#utility.yul\":7378:7379   */\n      dup1\n        /* \"#utility.yul\":7373:7376   */\n      dup3\n        /* \"#utility.yul\":7369:7380   */\n      add\n        /* \"#utility.yul\":7363:7381   */\n      mload\n        /* \"#utility.yul\":7359:7360   */\n      dup2\n        /* \"#utility.yul\":7354:7357   */\n      dup5\n        /* \"#utility.yul\":7350:7361   */\n      add\n        /* \"#utility.yul\":7343:7382   */\n      mstore\n        /* \"#utility.yul\":7315:7317   */\n      0x20\n        /* \"#utility.yul\":7312:7313   */\n      dup2\n        /* \"#utility.yul\":7308:7318   */\n      add\n        /* \"#utility.yul\":7303:7318   */\n      swap1\n      pop\n        /* \"#utility.yul\":7279:7392   */\n      jump(tag_181)\n    tag_183:\n        /* \"#utility.yul\":7426:7427   */\n      0x00\n        /* \"#utility.yul\":7417:7423   */\n      dup5\n        /* \"#utility.yul\":7412:7415   */\n      dup5\n        /* \"#utility.yul\":7408:7424   */\n      add\n        /* \"#utility.yul\":7401:7428   */\n      mstore\n        /* \"#utility.yul\":7250:7434   */\n      pop\n        /* \"#utility.yul\":7188:7434   */\n      pop\n      pop\n      pop\n      jump\t// out\n        /* \"#utility.yul\":7440:7817   */\n    tag_94:\n        /* \"#utility.yul\":7528:7531   */\n      0x00\n        /* \"#utility.yul\":7556:7595   */\n      tag_185\n        /* \"#utility.yul\":7589:7594   */\n      dup3\n        /* \"#utility.yul\":7556:7595   */\n      tag_92\n      jump\t// in\n    tag_185:\n        /* \"#utility.yul\":7611:7682   */\n      tag_186\n        /* \"#utility.yul\":7675:7681   */\n      dup2\n        /* \"#utility.yul\":7670:7673   */\n      dup6\n        /* \"#utility.yul\":7611:7682   */\n      tag_89\n      jump\t// in\n    tag_186:\n        /* \"#utility.yul\":7604:7682   */\n      swap4\n      pop\n        /* \"#utility.yul\":7691:7756   */\n      tag_187\n        /* \"#utility.yul\":7749:7755   */\n      dup2\n        /* \"#utility.yul\":7744:7747   */\n      dup6\n        /* \"#utility.yul\":7737:7741   */\n      0x20\n        /* \"#utility.yul\":7730:7735   */\n      dup7\n        /* \"#utility.yul\":7726:7742   */\n      add\n        /* \"#utility.yul\":7691:7756   */\n      tag_93\n      jump\t// in\n    tag_187:\n        /* \"#utility.yul\":7781:7810   */\n      tag_188\n        /* \"#utility.yul\":7803:7809   */\n      dup2\n        /* \"#utility.yul\":7781:7810   */\n      tag_81\n      jump\t// in\n    tag_188:\n        /* \"#utility.yul\":7776:7779   */\n      dup5\n        /* \"#utility.yul\":7772:7811   */\n      add\n        /* \"#utility.yul\":7765:7811   */\n      swap2\n      pop\n        /* \"#utility.yul\":7532:7817   */\n      pop\n        /* \"#utility.yul\":7440:7817   */\n      swap3\n      swap2\n      pop\n      pop\n      jump\t// out\n        /* \"#utility.yul\":7823:8136   */\n    tag_46:\n        /* \"#utility.yul\":7936:7940   */\n      0x00\n        /* \"#utility.yul\":7974:7976   */\n      0x20\n        /* \"#utility.yul\":7963:7972   */\n      dup3\n        /* \"#utility.yul\":7959:7977   */\n      add\n        /* \"#utility.yul\":7951:7977   */\n      swap1\n      pop\n        /* \"#utility.yul\":8023:8032   */\n      dup2\n        /* \"#utility.yul\":8017:8021   */\n      dup2\n        /* \"#utility.yul\":8013:8033   */\n      sub\n        /* \"#utility.yul\":8009:8010   */\n      0x00\n        /* \"#utility.yul\":7998:8007   */\n      dup4\n        /* \"#utility.yul\":7994:8011   */\n      add\n        /* \"#utility.yul\":7987:8034   */\n      mstore\n        /* \"#utility.yul\":8051:8129   */\n      tag_190\n        /* \"#utility.yul\":8124:8128   */\n      dup2\n        /* \"#utility.yul\":8115:8121   */\n      dup5\n        /* \"#utility.yul\":8051:8129   */\n      tag_94\n      jump\t// in\n    tag_190:\n        /* \"#utility.yul\":8043:8129   */\n      swap1\n      pop\n        /* \"#utility.yul\":7823:8136   */\n      swap3\n      swap2\n      pop\n      pop\n      jump\t// out\n        /* \"#utility.yul\":8142:8260   */\n    tag_95:\n        /* \"#utility.yul\":8229:8253   */\n      tag_192\n        /* \"#utility.yul\":8247:8252   */\n      dup2\n        /* \"#utility.yul\":8229:8253   */\n      tag_66\n      jump\t// in\n    tag_192:\n        /* \"#utility.yul\":8224:8227   */\n      dup3\n        /* \"#utility.yul\":8217:8254   */\n      mstore\n        /* \"#utility.yul\":8142:8260   */\n      pop\n      pop\n      jump\t// out\n        /* \"#utility.yul\":8266:8488   */\n    tag_53:\n        /* \"#utility.yul\":8359:8363   */\n      0x00\n        /* \"#utility.yul\":8397:8399   */\n      0x20\n        /* \"#utility.yul\":8386:8395   */\n      dup3\n        /* \"#utility.yul\":8382:8400   */\n      add\n        /* \"#utility.yul\":8374:8400   */\n      swap1\n      pop\n        /* \"#utility.yul\":8410:8481   */\n      tag_194\n        /* \"#utility.yul\":8478:8479   */\n      0x00\n        /* \"#utility.yul\":8467:8476   */\n      dup4\n        /* \"#utility.yul\":8463:8480   */\n      add\n        /* \"#utility.yul\":8454:8460   */\n      dup5\n        /* \"#utility.yul\":8410:8481   */\n      tag_95\n      jump\t// in\n    tag_194:\n        /* \"#utility.yul\":8266:8488   */\n      swap3\n      swap2\n      pop\n      pop\n      jump\t// out\n    stop\n\n    sub_0: assembly {\n            /* \"Nik_MD_project4.sol\":198:572  contract EnsRecord is Record {... */\n          mstore(0x40, 0x80)\n            /* \"Nik_MD_project4.sol\":288:387  constructor(string memory _domain) {... */\n          callvalue\n          dup1\n          iszero\n          tag_1\n          jumpi\n          0x00\n          dup1\n          revert\n        tag_1:\n          pop\n          mload(0x40)\n          sub(codesize, bytecodeSize)\n          dup1\n          bytecodeSize\n          dup4\n          codecopy\n          dup2\n          dup2\n          add\n          0x40\n          mstore\n          dup2\n          add\n          swap1\n          tag_2\n          swap2\n          swap1\n          tag_3\n          jump\t// in\n        tag_2:\n            /* \"Nik_MD_project4.sol\":168:183  block.timestamp */\n          timestamp\n            /* \"Nik_MD_project4.sol\":151:165  timeOfCreation */\n          0x00\n            /* \"Nik_MD_project4.sol\":151:183  timeOfCreation = block.timestamp */\n          dup2\n          swap1\n          sstore\n          pop\n            /* \"Nik_MD_project4.sol\":342:352  msg.sender */\n          caller\n            /* \"Nik_MD_project4.sol\":334:339  owner */\n          0x02\n          0x00\n            /* \"Nik_MD_project4.sol\":334:352  owner = msg.sender */\n          0x0100\n          exp\n          dup2\n          sload\n          dup2\n          0xffffffffffffffffffffffffffffffffffffffff\n          mul\n          not\n          and\n          swap1\n          dup4\n          0xffffffffffffffffffffffffffffffffffffffff\n          and\n          mul\n          or\n          swap1\n          sstore\n          pop\n            /* \"Nik_MD_project4.sol\":372:379  _domain */\n          dup1\n            /* \"Nik_MD_project4.sol\":363:369  domain */\n          0x01\n            /* \"Nik_MD_project4.sol\":363:379  domain = _domain */\n          swap1\n          dup2\n          tag_8\n          swap2\n          swap1\n          tag_9\n          jump\t// in\n        tag_8:\n          pop\n            /* \"Nik_MD_project4.sol\":288:387  constructor(string memory _domain) {... */\n          pop\n            /* \"Nik_MD_project4.sol\":198:572  contract EnsRecord is Record {... */\n          jump(tag_10)\n            /* \"#utility.yul\":7:82   */\n        tag_11:\n            /* \"#utility.yul\":40:46   */\n          0x00\n            /* \"#utility.yul\":73:75   */\n          0x40\n            /* \"#utility.yul\":67:76   */\n          mload\n            /* \"#utility.yul\":57:76   */\n          swap1\n          pop\n            /* \"#utility.yul\":7:82   */\n          swap1\n          jump\t// out\n            /* \"#utility.yul\":88:205   */\n        tag_12:\n            /* \"#utility.yul\":197:198   */\n          0x00\n            /* \"#utility.yul\":194:195   */\n          dup1\n            /* \"#utility.yul\":187:199   */\n          revert\n            /* \"#utility.yul\":211:328   */\n        tag_13:\n            /* \"#utility.yul\":320:321   */\n          0x00\n            /* \"#utility.yul\":317:318   */\n          dup1\n            /* \"#utility.yul\":310:322   */\n          revert\n            /* \"#utility.yul\":334:451   */\n        tag_14:\n            /* \"#utility.yul\":443:444   */\n          0x00\n            /* \"#utility.yul\":440:441   */\n          dup1\n            /* \"#utility.yul\":433:445   */\n          revert\n            /* \"#utility.yul\":457:574   */\n        tag_15:\n            /* \"#utility.yul\":566:567   */\n          0x00\n            /* \"#utility.yul\":563:564   */\n          dup1\n            /* \"#utility.yul\":556:568   */\n          revert\n            /* \"#utility.yul\":580:682   */\n        tag_16:\n            /* \"#utility.yul\":621:627   */\n          0x00\n            /* \"#utility.yul\":672:674   */\n          0x1f\n            /* \"#utility.yul\":668:675   */\n          not\n            /* \"#utility.yul\":663:665   */\n          0x1f\n            /* \"#utility.yul\":656:661   */\n          dup4\n            /* \"#utility.yul\":652:666   */\n          add\n            /* \"#utility.yul\":648:676   */\n          and\n            /* \"#utility.yul\":638:676   */\n          swap1\n          pop\n            /* \"#utility.yul\":580:682   */\n          swap2\n          swap1\n          pop\n          jump\t// out\n            /* \"#utility.yul\":688:868   */\n        tag_17:\n            /* \"#utility.yul\":736:813   */\n          0x4e487b7100000000000000000000000000000000000000000000000000000000\n            /* \"#utility.yul\":733:734   */\n          0x00\n            /* \"#utility.yul\":726:814   */\n          mstore\n            /* \"#utility.yul\":833:837   */\n          0x41\n            /* \"#utility.yul\":830:831   */\n          0x04\n            /* \"#utility.yul\":823:838   */\n          mstore\n            /* \"#utility.yul\":857:861   */\n          0x24\n            /* \"#utility.yul\":854:855   */\n          0x00\n            /* \"#utility.yul\":847:862   */\n          revert\n            /* \"#utility.yul\":874:1155   */\n        tag_18:\n            /* \"#utility.yul\":957:984   */\n          tag_52\n            /* \"#utility.yul\":979:983   */\n          dup3\n            /* \"#utility.yul\":957:984   */\n          tag_16\n          jump\t// in\n        tag_52:\n            /* \"#utility.yul\":949:955   */\n          dup2\n            /* \"#utility.yul\":945:985   */\n          add\n            /* \"#utility.yul\":1087:1093   */\n          dup2\n            /* \"#utility.yul\":1075:1085   */\n          dup2\n            /* \"#utility.yul\":1072:1094   */\n          lt\n            /* \"#utility.yul\":1051:1069   */\n          0xffffffffffffffff\n            /* \"#utility.yul\":1039:1049   */\n          dup3\n            /* \"#utility.yul\":1036:1070   */\n          gt\n            /* \"#utility.yul\":1033:1095   */\n          or\n            /* \"#utility.yul\":1030:1118   */\n          iszero\n          tag_53\n          jumpi\n            /* \"#utility.yul\":1098:1116   */\n          tag_54\n          tag_17\n          jump\t// in\n        tag_54:\n            /* \"#utility.yul\":1030:1118   */\n        tag_53:\n            /* \"#utility.yul\":1138:1148   */\n          dup1\n            /* \"#utility.yul\":1134:1136   */\n          0x40\n            /* \"#utility.yul\":1127:1149   */\n          mstore\n            /* \"#utility.yul\":917:1155   */\n          pop\n            /* \"#utility.yul\":874:1155   */\n          pop\n          pop\n          jump\t// out\n            /* \"#utility.yul\":1161:1290   */\n        tag_19:\n            /* \"#utility.yul\":1195:1201   */\n          0x00\n            /* \"#utility.yul\":1222:1242   */\n          tag_56\n          tag_11\n          jump\t// in\n        tag_56:\n            /* \"#utility.yul\":1212:1242   */\n          swap1\n          pop\n            /* \"#utility.yul\":1251:1284   */\n          tag_57\n            /* \"#utility.yul\":1279:1283   */\n          dup3\n            /* \"#utility.yul\":1271:1277   */\n          dup3\n            /* \"#utility.yul\":1251:1284   */\n          tag_18\n          jump\t// in\n        tag_57:\n            /* \"#utility.yul\":1161:1290   */\n          swap2\n          swap1\n          pop\n          jump\t// out\n            /* \"#utility.yul\":1296:1604   */\n        tag_20:\n            /* \"#utility.yul\":1358:1362   */\n          0x00\n            /* \"#utility.yul\":1448:1466   */\n          0xffffffffffffffff\n            /* \"#utility.yul\":1440:1446   */\n          dup3\n            /* \"#utility.yul\":1437:1467   */\n          gt\n            /* \"#utility.yul\":1434:1490   */\n          iszero\n          tag_59\n          jumpi\n            /* \"#utility.yul\":1470:1488   */\n          tag_60\n          tag_17\n          jump\t// in\n        tag_60:\n            /* \"#utility.yul\":1434:1490   */\n        tag_59:\n            /* \"#utility.yul\":1508:1537   */\n          tag_61\n            /* \"#utility.yul\":1530:1536   */\n          dup3\n            /* \"#utility.yul\":1508:1537   */\n          tag_16\n          jump\t// in\n        tag_61:\n            /* \"#utility.yul\":1500:1537   */\n          swap1\n          pop\n            /* \"#utility.yul\":1592:1596   */\n          0x20\n            /* \"#utility.yul\":1586:1590   */\n          dup2\n            /* \"#utility.yul\":1582:1597   */\n          add\n            /* \"#utility.yul\":1574:1597   */\n          swap1\n          pop\n            /* \"#utility.yul\":1296:1604   */\n          swap2\n          swap1\n          pop\n          jump\t// out\n            /* \"#utility.yul\":1610:1856   */\n        tag_21:\n            /* \"#utility.yul\":1691:1692   */\n          0x00\n            /* \"#utility.yul\":1701:1814   */\n        tag_63:\n            /* \"#utility.yul\":1715:1721   */\n          dup4\n            /* \"#utility.yul\":1712:1713   */\n          dup2\n            /* \"#utility.yul\":1709:1722   */\n          lt\n            /* \"#utility.yul\":1701:1814   */\n          iszero\n          tag_65\n          jumpi\n            /* \"#utility.yul\":1800:1801   */\n          dup1\n            /* \"#utility.yul\":1795:1798   */\n          dup3\n            /* \"#utility.yul\":1791:1802   */\n          add\n            /* \"#utility.yul\":1785:1803   */\n          mload\n            /* \"#utility.yul\":1781:1782   */\n          dup2\n            /* \"#utility.yul\":1776:1779   */\n          dup5\n            /* \"#utility.yul\":1772:1783   */\n          add\n            /* \"#utility.yul\":1765:1804   */\n          mstore\n            /* \"#utility.yul\":1737:1739   */\n          0x20\n            /* \"#utility.yul\":1734:1735   */\n          dup2\n            /* \"#utility.yul\":1730:1740   */\n          add\n            /* \"#utility.yul\":1725:1740   */\n          swap1\n          pop\n            /* \"#utility.yul\":1701:1814   */\n          jump(tag_63)\n        tag_65:\n            /* \"#utility.yul\":1848:1849   */\n          0x00\n            /* \"#utility.yul\":1839:1845   */\n          dup5\n            /* \"#utility.yul\":1834:1837   */\n          dup5\n            /* \"#utility.yul\":1830:1846   */\n          add\n            /* \"#utility.yul\":1823:1850   */\n          mstore\n            /* \"#utility.yul\":1672:1856   */\n          pop\n            /* \"#utility.yul\":1610:1856   */\n          pop\n          pop\n          pop\n          jump\t// out\n            /* \"#utility.yul\":1862:2296   */\n        tag_22:\n            /* \"#utility.yul\":1951:1956   */\n          0x00\n            /* \"#utility.yul\":1976:2042   */\n          tag_67\n            /* \"#utility.yul\":1992:2041   */\n          tag_68\n            /* \"#utility.yul\":2034:2040   */\n          dup5\n            /* \"#utility.yul\":1992:2041   */\n          tag_20\n          jump\t// in\n        tag_68:\n            /* \"#utility.yul\":1976:2042   */\n          tag_19\n          jump\t// in\n        tag_67:\n            /* \"#utility.yul\":1967:2042   */\n          swap1\n          pop\n            /* \"#utility.yul\":2065:2071   */\n          dup3\n            /* \"#utility.yul\":2058:2063   */\n          dup2\n            /* \"#utility.yul\":2051:2072   */\n          mstore\n            /* \"#utility.yul\":2103:2107   */\n          0x20\n            /* \"#utility.yul\":2096:2101   */\n          dup2\n            /* \"#utility.yul\":2092:2108   */\n          add\n            /* \"#utility.yul\":2141:2144   */\n          dup5\n            /* \"#utility.yul\":2132:2138   */\n          dup5\n            /* \"#utility.yul\":2127:2130   */\n          dup5\n            /* \"#utility.yul\":2123:2139   */\n          add\n            /* \"#utility.yul\":2120:2145   */\n          gt\n            /* \"#utility.yul\":2117:2229   */\n          iszero\n          tag_69\n          jumpi\n            /* \"#utility.yul\":2148:2227   */\n          tag_70\n          tag_15\n          jump\t// in\n        tag_70:\n            /* \"#utility.yul\":2117:2229   */\n        tag_69:\n            /* \"#utility.yul\":2238:2290   */\n          tag_71\n            /* \"#utility.yul\":2283:2289   */\n          dup5\n            /* \"#utility.yul\":2278:2281   */\n          dup3\n            /* \"#utility.yul\":2273:2276   */\n          dup6\n            /* \"#utility.yul\":2238:2290   */\n          tag_21\n          jump\t// in\n        tag_71:\n            /* \"#utility.yul\":1957:2296   */\n          pop\n            /* \"#utility.yul\":1862:2296   */\n          swap4\n          swap3\n          pop\n          pop\n          pop\n          jump\t// out\n            /* \"#utility.yul\":2316:2671   */\n        tag_23:\n            /* \"#utility.yul\":2383:2388   */\n          0x00\n            /* \"#utility.yul\":2432:2435   */\n          dup3\n            /* \"#utility.yul\":2425:2429   */\n          0x1f\n            /* \"#utility.yul\":2417:2423   */\n          dup4\n            /* \"#utility.yul\":2413:2430   */\n          add\n            /* \"#utility.yul\":2409:2436   */\n          slt\n            /* \"#utility.yul\":2399:2521   */\n          tag_73\n          jumpi\n            /* \"#utility.yul\":2440:2519   */\n          tag_74\n          tag_14\n          jump\t// in\n        tag_74:\n            /* \"#utility.yul\":2399:2521   */\n        tag_73:\n            /* \"#utility.yul\":2550:2556   */\n          dup2\n            /* \"#utility.yul\":2544:2557   */\n          mload\n            /* \"#utility.yul\":2575:2665   */\n          tag_75\n            /* \"#utility.yul\":2661:2664   */\n          dup5\n            /* \"#utility.yul\":2653:2659   */\n          dup3\n            /* \"#utility.yul\":2646:2650   */\n          0x20\n            /* \"#utility.yul\":2638:2644   */\n          dup7\n            /* \"#utility.yul\":2634:2651   */\n          add\n            /* \"#utility.yul\":2575:2665   */\n          tag_22\n          jump\t// in\n        tag_75:\n            /* \"#utility.yul\":2566:2665   */\n          swap2\n          pop\n            /* \"#utility.yul\":2389:2671   */\n          pop\n            /* \"#utility.yul\":2316:2671   */\n          swap3\n          swap2\n          pop\n          pop\n          jump\t// out\n            /* \"#utility.yul\":2677:3201   */\n        tag_3:\n            /* \"#utility.yul\":2757:2763   */\n          0x00\n            /* \"#utility.yul\":2806:2808   */\n          0x20\n            /* \"#utility.yul\":2794:2803   */\n          dup3\n            /* \"#utility.yul\":2785:2792   */\n          dup5\n            /* \"#utility.yul\":2781:2804   */\n          sub\n            /* \"#utility.yul\":2777:2809   */\n          slt\n            /* \"#utility.yul\":2774:2893   */\n          iszero\n          tag_77\n          jumpi\n            /* \"#utility.yul\":2812:2891   */\n          tag_78\n          tag_12\n          jump\t// in\n        tag_78:\n            /* \"#utility.yul\":2774:2893   */\n        tag_77:\n            /* \"#utility.yul\":2953:2954   */\n          0x00\n            /* \"#utility.yul\":2942:2951   */\n          dup3\n            /* \"#utility.yul\":2938:2955   */\n          add\n            /* \"#utility.yul\":2932:2956   */\n          mload\n            /* \"#utility.yul\":2983:3001   */\n          0xffffffffffffffff\n            /* \"#utility.yul\":2975:2981   */\n          dup2\n            /* \"#utility.yul\":2972:3002   */\n          gt\n            /* \"#utility.yul\":2969:3086   */\n          iszero\n          tag_79\n          jumpi\n            /* \"#utility.yul\":3005:3084   */\n          tag_80\n          tag_13\n          jump\t// in\n        tag_80:\n            /* \"#utility.yul\":2969:3086   */\n        tag_79:\n            /* \"#utility.yul\":3110:3184   */\n          tag_81\n            /* \"#utility.yul\":3176:3183   */\n          dup5\n            /* \"#utility.yul\":3167:3173   */\n          dup3\n            /* \"#utility.yul\":3156:3165   */\n          dup6\n            /* \"#utility.yul\":3152:3174   */\n          add\n            /* \"#utility.yul\":3110:3184   */\n          tag_23\n          jump\t// in\n        tag_81:\n            /* \"#utility.yul\":3100:3184   */\n          swap2\n          pop\n            /* \"#utility.yul\":2903:3194   */\n          pop\n            /* \"#utility.yul\":2677:3201   */\n          swap3\n          swap2\n          pop\n          pop\n          jump\t// out\n            /* \"#utility.yul\":3207:3306   */\n        tag_24:\n            /* \"#utility.yul\":3259:3265   */\n          0x00\n            /* \"#utility.yul\":3293:3298   */\n          dup2\n            /* \"#utility.yul\":3287:3299   */\n          mload\n            /* \"#utility.yul\":3277:3299   */\n          swap1\n          pop\n            /* \"#utility.yul\":3207:3306   */\n          swap2\n          swap1\n          pop\n          jump\t// out\n            /* \"#utility.yul\":3312:3492   */\n        tag_25:\n            /* \"#utility.yul\":3360:3437   */\n          0x4e487b7100000000000000000000000000000000000000000000000000000000\n            /* \"#utility.yul\":3357:3358   */\n          0x00\n            /* \"#utility.yul\":3350:3438   */\n          mstore\n            /* \"#utility.yul\":3457:3461   */\n          0x22\n            /* \"#utility.yul\":3454:3455   */\n          0x04\n            /* \"#utility.yul\":3447:3462   */\n          mstore\n            /* \"#utility.yul\":3481:3485   */\n          0x24\n            /* \"#utility.yul\":3478:3479   */\n          0x00\n            /* \"#utility.yul\":3471:3486   */\n          revert\n            /* \"#utility.yul\":3498:3818   */\n        tag_26:\n            /* \"#utility.yul\":3542:3548   */\n          0x00\n            /* \"#utility.yul\":3579:3580   */\n          0x02\n            /* \"#utility.yul\":3573:3577   */\n          dup3\n            /* \"#utility.yul\":3569:3581   */\n          div\n            /* \"#utility.yul\":3559:3581   */\n          swap1\n          pop\n            /* \"#utility.yul\":3626:3627   */\n          0x01\n            /* \"#utility.yul\":3620:3624   */\n          dup3\n            /* \"#utility.yul\":3616:3628   */\n          and\n            /* \"#utility.yul\":3647:3665   */\n          dup1\n            /* \"#utility.yul\":3637:3718   */\n          tag_85\n          jumpi\n            /* \"#utility.yul\":3703:3707   */\n          0x7f\n            /* \"#utility.yul\":3695:3701   */\n          dup3\n            /* \"#utility.yul\":3691:3708   */\n          and\n            /* \"#utility.yul\":3681:3708   */\n          swap2\n          pop\n            /* \"#utility.yul\":3637:3718   */\n        tag_85:\n            /* \"#utility.yul\":3765:3767   */\n          0x20\n            /* \"#utility.yul\":3757:3763   */\n          dup3\n            /* \"#utility.yul\":3754:3768   */\n          lt\n            /* \"#utility.yul\":3734:3752   */\n          dup2\n            /* \"#utility.yul\":3731:3769   */\n          sub\n            /* \"#utility.yul\":3728:3812   */\n          tag_86\n          jumpi\n            /* \"#utility.yul\":3784:3802   */\n          tag_87\n          tag_25\n          jump\t// in\n        tag_87:\n            /* \"#utility.yul\":3728:3812   */\n        tag_86:\n            /* \"#utility.yul\":3549:3818   */\n          pop\n            /* \"#utility.yul\":3498:3818   */\n          swap2\n          swap1\n          pop\n          jump\t// out\n            /* \"#utility.yul\":3824:3965   */\n        tag_27:\n            /* \"#utility.yul\":3873:3877   */\n          0x00\n            /* \"#utility.yul\":3896:3899   */\n          dup2\n            /* \"#utility.yul\":3888:3899   */\n          swap1\n          pop\n            /* \"#utility.yul\":3919:3922   */\n          dup2\n            /* \"#utility.yul\":3916:3917   */\n          0x00\n            /* \"#utility.yul\":3909:3923   */\n          mstore\n            /* \"#utility.yul\":3953:3957   */\n          0x20\n            /* \"#utility.yul\":3950:3951   */\n          0x00\n            /* \"#utility.yul\":3940:3958   */\n          keccak256\n            /* \"#utility.yul\":3932:3958   */\n          swap1\n          pop\n            /* \"#utility.yul\":3824:3965   */\n          swap2\n          swap1\n          pop\n          jump\t// out\n            /* \"#utility.yul\":3971:4064   */\n        tag_28:\n            /* \"#utility.yul\":4008:4014   */\n          0x00\n            /* \"#utility.yul\":4055:4057   */\n          0x20\n            /* \"#utility.yul\":4050:4052   */\n          0x1f\n            /* \"#utility.yul\":4043:4048   */\n          dup4\n            /* \"#utility.yul\":4039:4053   */\n          add\n            /* \"#utility.yul\":4035:4058   */\n          div\n            /* \"#utility.yul\":4025:4058   */\n          swap1\n          pop\n            /* \"#utility.yul\":3971:4064   */\n          swap2\n          swap1\n          pop\n          jump\t// out\n            /* \"#utility.yul\":4070:4177   */\n        tag_29:\n            /* \"#utility.yul\":4114:4122   */\n          0x00\n            /* \"#utility.yul\":4164:4169   */\n          dup3\n            /* \"#utility.yul\":4158:4162   */\n          dup3\n            /* \"#utility.yul\":4154:4170   */\n          shl\n            /* \"#utility.yul\":4133:4170   */\n          swap1\n          pop\n            /* \"#utility.yul\":4070:4177   */\n          swap3\n          swap2\n          pop\n          pop\n          jump\t// out\n            /* \"#utility.yul\":4183:4576   */\n        tag_30:\n            /* \"#utility.yul\":4252:4258   */\n          0x00\n            /* \"#utility.yul\":4302:4303   */\n          0x08\n            /* \"#utility.yul\":4290:4300   */\n          dup4\n            /* \"#utility.yul\":4286:4304   */\n          mul\n            /* \"#utility.yul\":4325:4422   */\n          tag_92\n            /* \"#utility.yul\":4355:4421   */\n          0xffffffffffffffffffffffffffffffffffffffffffffffffffffffffffffffff\n            /* \"#utility.yul\":4344:4353   */\n          dup3\n            /* \"#utility.yul\":4325:4422   */\n          tag_29\n          jump\t// in\n        tag_92:\n            /* \"#utility.yul\":4443:4482   */\n          tag_93\n            /* \"#utility.yul\":4473:4481   */\n          dup7\n            /* \"#utility.yul\":4462:4471   */\n          dup4\n            /* \"#utility.yul\":4443:4482   */\n          tag_29\n          jump\t// in\n        tag_93:\n            /* \"#utility.yul\":4431:4482   */\n          swap6\n          pop\n            /* \"#utility.yul\":4515:4519   */\n          dup1\n            /* \"#utility.yul\":4511:4520   */\n          not\n            /* \"#utility.yul\":4504:4509   */\n          dup5\n            /* \"#utility.yul\":4500:4521   */\n          and\n            /* \"#utility.yul\":4491:4521   */\n          swap4\n          pop\n            /* \"#utility.yul\":4564:4568   */\n          dup1\n            /* \"#utility.yul\":4554:4562   */\n          dup7\n            /* \"#utility.yul\":4550:4569   */\n          and\n            /* \"#utility.yul\":4543:4548   */\n          dup5\n            /* \"#utility.yul\":4540:4570   */\n          or\n            /* \"#utility.yul\":4530:4570   */\n          swap3\n          pop\n            /* \"#utility.yul\":4259:4576   */\n          pop\n          pop\n            /* \"#utility.yul\":4183:4576   */\n          swap4\n          swap3\n          pop\n          pop\n          pop\n          jump\t// out\n            /* \"#utility.yul\":4582:4659   */\n        tag_31:\n            /* \"#utility.yul\":4619:4626   */\n          0x00\n            /* \"#utility.yul\":4648:4653   */\n          dup2\n            /* \"#utility.yul\":4637:4653   */\n          swap1\n          pop\n            /* \"#utility.yul\":4582:4659   */\n          swap2\n          swap1\n          pop\n          jump\t// out\n            /* \"#utility.yul\":4665:4725   */\n        tag_32:\n            /* \"#utility.yul\":4693:4696   */\n          0x00\n            /* \"#utility.yul\":4714:4719   */\n          dup2\n            /* \"#utility.yul\":4707:4719   */\n          swap1\n          pop\n            /* \"#utility.yul\":4665:4725   */\n          swap2\n          swap1\n          pop\n          jump\t// out\n            /* \"#utility.yul\":4731:4873   */\n        tag_33:\n            /* \"#utility.yul\":4781:4790   */\n          0x00\n            /* \"#utility.yul\":4814:4867   */\n          tag_97\n            /* \"#utility.yul\":4832:4866   */\n          tag_98\n            /* \"#utility.yul\":4841:4865   */\n          tag_99\n            /* \"#utility.yul\":4859:4864   */\n          dup5\n            /* \"#utility.yul\":4841:4865   */\n          tag_31\n          jump\t// in\n        tag_99:\n            /* \"#utility.yul\":4832:4866   */\n          tag_32\n          jump\t// in\n        tag_98:\n            /* \"#utility.yul\":4814:4867   */\n          tag_31\n          jump\t// in\n        tag_97:\n            /* \"#utility.yul\":4801:4867   */\n          swap1\n          pop\n            /* \"#utility.yul\":4731:4873   */\n          swap2\n          swap1\n          pop\n          jump\t// out\n            /* \"#utility.yul\":4879:4954   */\n        tag_34:\n            /* \"#utility.yul\":4922:4925   */\n          0x00\n            /* \"#utility.yul\":4943:4948   */\n          dup2\n            /* \"#utility.yul\":4936:4948   */\n          swap1\n          pop\n            /* \"#utility.yul\":4879:4954   */\n          swap2\n          swap1\n          pop\n          jump\t// out\n            /* \"#utility.yul\":4960:5229   */\n        tag_35:\n            /* \"#utility.yul\":5070:5109   */\n          tag_102\n            /* \"#utility.yul\":5101:5108   */\n          dup4\n            /* \"#utility.yul\":5070:5109   */\n          tag_33\n          jump\t// in\n        tag_102:\n            /* \"#utility.yul\":5131:5222   */\n          tag_103\n            /* \"#utility.yul\":5180:5221   */\n          tag_104\n            /* \"#utility.yul\":5204:5220   */\n          dup3\n            /* \"#utility.yul\":5180:5221   */\n          tag_34\n          jump\t// in\n        tag_104:\n            /* \"#utility.yul\":5172:5178   */\n          dup5\n            /* \"#utility.yul\":5165:5169   */\n          dup5\n            /* \"#utility.yul\":5159:5170   */\n          sload\n            /* \"#utility.yul\":5131:5222   */\n          tag_30\n          jump\t// in\n        tag_103:\n            /* \"#utility.yul\":5125:5129   */\n          dup3\n            /* \"#utility.yul\":5118:5223   */\n          sstore\n            /* \"#utility.yul\":5036:5229   */\n          pop\n            /* \"#utility.yul\":4960:5229   */\n          pop\n          pop\n          pop\n          jump\t// out\n            /* \"#utility.yul\":5235:5308   */\n        tag_36:\n            /* \"#utility.yul\":5280:5283   */\n          0x00\n            /* \"#utility.yul\":5235:5308   */\n          swap1\n          jump\t// out\n            /* \"#utility.yul\":5314:5503   */\n        tag_37:\n            /* \"#utility.yul\":5391:5423   */\n          tag_107\n          tag_36\n          jump\t// in\n        tag_107:\n            /* \"#utility.yul\":5432:5497   */\n          tag_108\n            /* \"#utility.yul\":5490:5496   */\n          dup2\n            /* \"#utility.yul\":5482:5488   */\n          dup5\n            /* \"#utility.yul\":5476:5480   */\n          dup5\n            /* \"#utility.yul\":5432:5497   */\n          tag_35\n          jump\t// in\n        tag_108:\n            /* \"#utility.yul\":5367:5503   */\n          pop\n            /* \"#utility.yul\":5314:5503   */\n          pop\n          pop\n          jump\t// out\n            /* \"#utility.yul\":5509:5695   */\n        tag_38:\n            /* \"#utility.yul\":5569:5689   */\n        tag_110:\n            /* \"#utility.yul\":5586:5589   */\n          dup2\n            /* \"#utility.yul\":5579:5584   */\n          dup2\n            /* \"#utility.yul\":5576:5590   */\n          lt\n            /* \"#utility.yul\":5569:5689   */\n          iszero\n          tag_112\n          jumpi\n            /* \"#utility.yul\":5640:5679   */\n          tag_113\n            /* \"#utility.yul\":5677:5678   */\n          0x00\n            /* \"#utility.yul\":5670:5675   */\n          dup3\n            /* \"#utility.yul\":5640:5679   */\n          tag_37\n          jump\t// in\n        tag_113:\n            /* \"#utility.yul\":5613:5614   */\n          0x01\n            /* \"#utility.yul\":5606:5611   */\n          dup2\n            /* \"#utility.yul\":5602:5615   */\n          add\n            /* \"#utility.yul\":5593:5615   */\n          swap1\n          pop\n            /* \"#utility.yul\":5569:5689   */\n          jump(tag_110)\n        tag_112:\n            /* \"#utility.yul\":5509:5695   */\n          pop\n          pop\n          jump\t// out\n            /* \"#utility.yul\":5701:6244   */\n        tag_39:\n            /* \"#utility.yul\":5802:5804   */\n          0x1f\n            /* \"#utility.yul\":5797:5800   */\n          dup3\n            /* \"#utility.yul\":5794:5805   */\n          gt\n            /* \"#utility.yul\":5791:6237   */\n          iszero\n          tag_115\n          jumpi\n            /* \"#utility.yul\":5836:5874   */\n          tag_116\n            /* \"#utility.yul\":5868:5873   */\n          dup2\n            /* \"#utility.yul\":5836:5874   */\n          tag_27\n          jump\t// in\n        tag_116:\n            /* \"#utility.yul\":5920:5949   */\n          tag_117\n            /* \"#utility.yul\":5938:5948   */\n          dup5\n            /* \"#utility.yul\":5920:5949   */\n          tag_28\n          jump\t// in\n        tag_117:\n            /* \"#utility.yul\":5910:5918   */\n          dup2\n            /* \"#utility.yul\":5906:5950   */\n          add\n            /* \"#utility.yul\":6103:6105   */\n          0x20\n            /* \"#utility.yul\":6091:6101   */\n          dup6\n            /* \"#utility.yul\":6088:6106   */\n          lt\n            /* \"#utility.yul\":6085:6134   */\n          iszero\n          tag_118\n          jumpi\n            /* \"#utility.yul\":6124:6132   */\n          dup2\n            /* \"#utility.yul\":6109:6132   */\n          swap1\n          pop\n            /* \"#utility.yul\":6085:6134   */\n        tag_118:\n            /* \"#utility.yul\":6147:6227   */\n          tag_119\n            /* \"#utility.yul\":6203:6225   */\n          tag_120\n            /* \"#utility.yul\":6221:6224   */\n          dup6\n            /* \"#utility.yul\":6203:6225   */\n          tag_28\n          jump\t// in\n        tag_120:\n            /* \"#utility.yul\":6193:6201   */\n          dup4\n            /* \"#utility.yul\":6189:6226   */\n          add\n            /* \"#utility.yul\":6176:6187   */\n          dup3\n            /* \"#utility.yul\":6147:6227   */\n          tag_38\n          jump\t// in\n        tag_119:\n            /* \"#utility.yul\":5806:6237   */\n          pop\n          pop\n            /* \"#utility.yul\":5791:6237   */\n        tag_115:\n            /* \"#utility.yul\":5701:6244   */\n          pop\n          pop\n          pop\n          jump\t// out\n            /* \"#utility.yul\":6250:6367   */\n        tag_40:\n            /* \"#utility.yul\":6304:6312   */\n          0x00\n            /* \"#utility.yul\":6354:6359   */\n          dup3\n            /* \"#utility.yul\":6348:6352   */\n          dup3\n            /* \"#utility.yul\":6344:6360   */\n          shr\n            /* \"#utility.yul\":6323:6360   */\n          swap1\n          pop\n            /* \"#utility.yul\":6250:6367   */\n          swap3\n          swap2\n          pop\n          pop\n          jump\t// out\n            /* \"#utility.yul\":6373:6542   */\n        tag_41:\n            /* \"#utility.yul\":6417:6423   */\n          0x00\n            /* \"#utility.yul\":6450:6501   */\n          tag_123\n            /* \"#utility.yul\":6498:6499   */\n          0x00\n            /* \"#utility.yul\":6494:6500   */\n          not\n            /* \"#utility.yul\":6486:6491   */\n          dup5\n            /* \"#utility.yul\":6483:6484   */\n          0x08\n            /* \"#utility.yul\":6479:6492   */\n          mul\n            /* \"#utility.yul\":6450:6501   */\n          tag_40\n          jump\t// in\n        tag_123:\n            /* \"#utility.yul\":6446:6502   */\n          not\n            /* \"#utility.yul\":6531:6535   */\n          dup1\n            /* \"#utility.yul\":6525:6529   */\n          dup4\n            /* \"#utility.yul\":6521:6536   */\n          and\n            /* \"#utility.yul\":6511:6536   */\n          swap2\n          pop\n            /* \"#utility.yul\":6424:6542   */\n          pop\n            /* \"#utility.yul\":6373:6542   */\n          swap3\n          swap2\n          pop\n          pop\n          jump\t// out\n            /* \"#utility.yul\":6547:6842   */\n        tag_42:\n            /* \"#utility.yul\":6623:6627   */\n          0x00\n            /* \"#utility.yul\":6769:6798   */\n          tag_125\n            /* \"#utility.yul\":6794:6797   */\n          dup4\n            /* \"#utility.yul\":6788:6792   */\n          dup4\n            /* \"#utility.yul\":6769:6798   */\n          tag_41\n          jump\t// in\n        tag_125:\n            /* \"#utility.yul\":6761:6798   */\n          swap2\n          pop\n            /* \"#utility.yul\":6831:6834   */\n          dup3\n            /* \"#utility.yul\":6828:6829   */\n          0x02\n            /* \"#utility.yul\":6824:6835   */\n          mul\n            /* \"#utility.yul\":6818:6822   */\n          dup3\n            /* \"#utility.yul\":6815:6836   */\n          or\n            /* \"#utility.yul\":6807:6836   */\n          swap1\n          pop\n            /* \"#utility.yul\":6547:6842   */\n          swap3\n          swap2\n          pop\n          pop\n          jump\t// out\n            /* \"#utility.yul\":6847:8242   */\n        tag_9:\n            /* \"#utility.yul\":6964:7001   */\n          tag_127\n            /* \"#utility.yul\":6997:7000   */\n          dup3\n            /* \"#utility.yul\":6964:7001   */\n          tag_24\n          jump\t// in\n        tag_127:\n            /* \"#utility.yul\":7066:7084   */\n          0xffffffffffffffff\n            /* \"#utility.yul\":7058:7064   */\n          dup2\n            /* \"#utility.yul\":7055:7085   */\n          gt\n            /* \"#utility.yul\":7052:7108   */\n          iszero\n          tag_128\n          jumpi\n            /* \"#utility.yul\":7088:7106   */\n          tag_129\n          tag_17\n          jump\t// in\n        tag_129:\n            /* \"#utility.yul\":7052:7108   */\n        tag_128:\n            /* \"#utility.yul\":7132:7170   */\n          tag_130\n            /* \"#utility.yul\":7164:7168   */\n          dup3\n            /* \"#utility.yul\":7158:7169   */\n          sload\n            /* \"#utility.yul\":7132:7170   */\n          tag_26\n          jump\t// in\n        tag_130:\n            /* \"#utility.yul\":7217:7284   */\n          tag_131\n            /* \"#utility.yul\":7277:7283   */\n          dup3\n            /* \"#utility.yul\":7269:7275   */\n          dup3\n            /* \"#utility.yul\":7263:7267   */\n          dup6\n            /* \"#utility.yul\":7217:7284   */\n          tag_39\n          jump\t// in\n        tag_131:\n            /* \"#utility.yul\":7311:7312   */\n          0x00\n            /* \"#utility.yul\":7335:7339   */\n          0x20\n            /* \"#utility.yul\":7322:7339   */\n          swap1\n          pop\n            /* \"#utility.yul\":7367:7369   */\n          0x1f\n            /* \"#utility.yul\":7359:7365   */\n          dup4\n            /* \"#utility.yul\":7356:7370   */\n          gt\n            /* \"#utility.yul\":7384:7385   */\n          0x01\n            /* \"#utility.yul\":7379:7997   */\n          dup2\n          eq\n          tag_133\n          jumpi\n            /* \"#utility.yul\":8041:8042   */\n          0x00\n            /* \"#utility.yul\":8058:8064   */\n          dup5\n            /* \"#utility.yul\":8055:8132   */\n          iszero\n          tag_134\n          jumpi\n            /* \"#utility.yul\":8107:8116   */\n          dup3\n            /* \"#utility.yul\":8102:8105   */\n          dup8\n            /* \"#utility.yul\":8098:8117   */\n          add\n            /* \"#utility.yul\":8092:8118   */\n          mload\n            /* \"#utility.yul\":8083:8118   */\n          swap1\n          pop\n            /* \"#utility.yul\":8055:8132   */\n        tag_134:\n            /* \"#utility.yul\":8158:8225   */\n          tag_135\n            /* \"#utility.yul\":8218:8224   */\n          dup6\n            /* \"#utility.yul\":8211:8216   */\n          dup3\n            /* \"#utility.yul\":8158:8225   */\n          tag_42\n          jump\t// in\n        tag_135:\n            /* \"#utility.yul\":8152:8156   */\n          dup7\n            /* \"#utility.yul\":8145:8226   */\n          sstore\n            /* \"#utility.yul\":8014:8236   */\n          pop\n            /* \"#utility.yul\":7349:8236   */\n          jump(tag_132)\n            /* \"#utility.yul\":7379:7997   */\n        tag_133:\n            /* \"#utility.yul\":7431:7435   */\n          0x1f\n            /* \"#utility.yul\":7427:7436   */\n          not\n            /* \"#utility.yul\":7419:7425   */\n          dup5\n            /* \"#utility.yul\":7415:7437   */\n          and\n            /* \"#utility.yul\":7465:7502   */\n          tag_136\n            /* \"#utility.yul\":7497:7501   */\n          dup7\n            /* \"#utility.yul\":7465:7502   */\n          tag_27\n          jump\t// in\n        tag_136:\n            /* \"#utility.yul\":7524:7525   */\n          0x00\n            /* \"#utility.yul\":7538:7746   */\n        tag_137:\n            /* \"#utility.yul\":7552:7559   */\n          dup3\n            /* \"#utility.yul\":7549:7550   */\n          dup2\n            /* \"#utility.yul\":7546:7560   */\n          lt\n            /* \"#utility.yul\":7538:7746   */\n          iszero\n          tag_139\n          jumpi\n            /* \"#utility.yul\":7631:7640   */\n          dup5\n            /* \"#utility.yul\":7626:7629   */\n          dup10\n            /* \"#utility.yul\":7622:7641   */\n          add\n            /* \"#utility.yul\":7616:7642   */\n          mload\n            /* \"#utility.yul\":7608:7614   */\n          dup3\n            /* \"#utility.yul\":7601:7643   */\n          sstore\n            /* \"#utility.yul\":7682:7683   */\n          0x01\n            /* \"#utility.yul\":7674:7680   */\n          dup3\n            /* \"#utility.yul\":7670:7684   */\n          add\n            /* \"#utility.yul\":7660:7684   */\n          swap2\n          pop\n            /* \"#utility.yul\":7729:7731   */\n          0x20\n            /* \"#utility.yul\":7718:7727   */\n          dup6\n            /* \"#utility.yul\":7714:7732   */\n          add\n            /* \"#utility.yul\":7701:7732   */\n          swap5\n          pop\n            /* \"#utility.yul\":7575:7579   */\n          0x20\n            /* \"#utility.yul\":7572:7573   */\n          dup2\n            /* \"#utility.yul\":7568:7580   */\n          add\n            /* \"#utility.yul\":7563:7580   */\n          swap1\n          pop\n            /* \"#utility.yul\":7538:7746   */\n          jump(tag_137)\n        tag_139:\n            /* \"#utility.yul\":7774:7780   */\n          dup7\n            /* \"#utility.yul\":7765:7772   */\n          dup4\n            /* \"#utility.yul\":7762:7781   */\n          lt\n            /* \"#utility.yul\":7759:7938   */\n          iszero\n          tag_140\n          jumpi\n            /* \"#utility.yul\":7832:7841   */\n          dup5\n            /* \"#utility.yul\":7827:7830   */\n          dup10\n            /* \"#utility.yul\":7823:7842   */\n          add\n            /* \"#utility.yul\":7817:7843   */\n          mload\n            /* \"#utility.yul\":7875:7923   */\n          tag_141\n            /* \"#utility.yul\":7917:7921   */\n          0x1f\n            /* \"#utility.yul\":7909:7915   */\n          dup10\n            /* \"#utility.yul\":7905:7922   */\n          and\n            /* \"#utility.yul\":7894:7903   */\n          dup3\n            /* \"#utility.yul\":7875:7923   */\n          tag_41\n          jump\t// in\n        tag_141:\n            /* \"#utility.yul\":7867:7873   */\n          dup4\n            /* \"#utility.yul\":7860:7924   */\n          sstore\n            /* \"#utility.yul\":7782:7938   */\n          pop\n            /* \"#utility.yul\":7759:7938   */\n        tag_140:\n            /* \"#utility.yul\":7984:7985   */\n          0x01\n            /* \"#utility.yul\":7980:7981   */\n          0x02\n            /* \"#utility.yul\":7972:7978   */\n          dup9\n            /* \"#utility.yul\":7968:7982   */\n          mul\n            /* \"#utility.yul\":7964:7986   */\n          add\n            /* \"#utility.yul\":7958:7962   */\n          dup9\n            /* \"#utility.yul\":7951:7987   */\n          sstore\n            /* \"#utility.yul\":7386:7997   */\n          pop\n          pop\n          pop\n            /* \"#utility.yul\":7349:8236   */\n        tag_132:\n          pop\n            /* \"#utility.yul\":6939:8242   */\n          pop\n          pop\n          pop\n            /* \"#utility.yul\":6847:8242   */\n          pop\n          pop\n          jump\t// out\n            /* \"Nik_MD_project4.sol\":198:572  contract EnsRecord is Record {... */\n        tag_10:\n          dataSize(sub_0)\n          dup1\n          dataOffset(sub_0)\n          0x00\n          codecopy\n          0x00\n          return\n        stop\n\n        sub_0: assembly {\n                /* \"Nik_MD_project4.sol\":198:572  contract EnsRecord is Record {... */\n              mstore(0x40, 0x80)\n              callvalue\n              dup1\n              iszero\n              tag_1\n              jumpi\n              0x00\n              dup1\n              revert\n            tag_1:\n              pop\n              jumpi(tag_2, lt(calldatasize, 0x04))\n              shr(0xe0, calldataload(0x00))\n              dup1\n              0x0781f5c9\n              eq\n              tag_3\n              jumpi\n              dup1\n              0x13af4035\n              eq\n              tag_4\n              jumpi\n              dup1\n              0x1dcd69ec\n              eq\n              tag_5\n              jumpi\n              dup1\n              0x8da5cb5b\n              eq\n              tag_6\n              jumpi\n              dup1\n              0xc2fb26a6\n              eq\n              tag_7\n              jumpi\n            tag_2:\n              0x00\n              dup1\n              revert\n                /* \"Nik_MD_project4.sol\":395:487  function getRecordType() public pure returns (string memory) {... */\n            tag_3:\n              tag_8\n              tag_9\n              jump\t// in\n            tag_8:\n              mload(0x40)\n              tag_10\n              swap2\n              swap1\n              tag_11\n              jump\t// in\n            tag_10:\n              mload(0x40)\n              dup1\n              swap2\n              sub\n              swap1\n              return\n                /* \"Nik_MD_project4.sol\":495:569  function setOwner(address _owner) public {... */\n            tag_4:\n              tag_12\n              0x04\n              dup1\n              calldatasize\n              sub\n              dup2\n              add\n              swap1\n              tag_13\n              swap2\n              swap1\n              tag_14\n              jump\t// in\n            tag_13:\n              tag_15\n              jump\t// in\n            tag_12:\n              stop\n                /* \"Nik_MD_project4.sol\":91:117  uint public timeOfCreation */\n            tag_5:\n              tag_16\n              tag_17\n              jump\t// in\n            tag_16:\n              mload(0x40)\n              tag_18\n              swap2\n              swap1\n              tag_19\n              jump\t// in\n            tag_18:\n              mload(0x40)\n              dup1\n              swap2\n              sub\n              swap1\n              return\n                /* \"Nik_MD_project4.sol\":261:281  address public owner */\n            tag_6:\n              tag_20\n              tag_21\n              jump\t// in\n            tag_20:\n              mload(0x40)\n              tag_22\n              swap2\n              swap1\n              tag_23\n              jump\t// in\n            tag_22:\n              mload(0x40)\n              dup1\n              swap2\n              sub\n              swap1\n              return\n                /* \"Nik_MD_project4.sol\":234:254  string public domain */\n            tag_7:\n              tag_24\n              tag_25\n              jump\t// in\n            tag_24:\n              mload(0x40)\n              tag_26\n              swap2\n              swap1\n              tag_11\n              jump\t// in\n            tag_26:\n              mload(0x40)\n              dup1\n              swap2\n              sub\n              swap1\n              return\n                /* \"Nik_MD_project4.sol\":395:487  function getRecordType() public pure returns (string memory) {... */\n            tag_9:\n                /* \"Nik_MD_project4.sol\":441:454  string memory */\n              0x60\n                /* \"Nik_MD_project4.sol\":467:479  return \"ens\" */\n              mload(0x40)\n              dup1\n              0x40\n              add\n              0x40\n              mstore\n              dup1\n              0x03\n              dup2\n              mstore\n              0x20\n              add\n              0x656e730000000000000000000000000000000000000000000000000000000000\n              dup2\n              mstore\n              pop\n              swap1\n              pop\n                /* \"Nik_MD_project4.sol\":395:487  function getRecordType() public pure returns (string memory) {... */\n              swap1\n              jump\t// out\n                /* \"Nik_MD_project4.sol\":495:569  function setOwner(address _owner) public {... */\n            tag_15:\n                /* \"Nik_MD_project4.sol\":555:561  _owner */\n              dup1\n                /* \"Nik_MD_project4.sol\":547:552  owner */\n              0x02\n              0x00\n                /* \"Nik_MD_project4.sol\":547:561  owner = _owner */\n              0x0100\n              exp\n              dup2\n              sload\n              dup2\n              0xffffffffffffffffffffffffffffffffffffffff\n              mul\n              not\n              and\n              swap1\n              dup4\n              0xffffffffffffffffffffffffffffffffffffffff\n              and\n              mul\n              or\n              swap1\n              sstore\n              pop\n                /* \"Nik_MD_project4.sol\":495:569  function setOwner(address _owner) public {... */\n              pop\n              jump\t// out\n                /* \"Nik_MD_project4.sol\":91:117  uint public timeOfCreation */\n            tag_17:\n              sload(0x00)\n              dup2\n              jump\t// out\n                /* \"Nik_MD_project4.sol\":261:281  address public owner */\n            tag_21:\n              0x02\n              0x00\n              swap1\n              sload\n              swap1\n              0x0100\n              exp\n              swap1\n              div\n              0xffffffffffffffffffffffffffffffffffffffff\n              and\n              dup2\n              jump\t// out\n                /* \"Nik_MD_project4.sol\":234:254  string public domain */\n            tag_25:\n              0x01\n              dup1\n              sload\n              tag_29\n              swap1\n              tag_30\n              jump\t// in\n            tag_29:\n              dup1\n              0x1f\n              add\n              0x20\n              dup1\n              swap2\n              div\n              mul\n              0x20\n              add\n              mload(0x40)\n              swap1\n              dup2\n              add\n              0x40\n              mstore\n              dup1\n              swap3\n              swap2\n              swap1\n              dup2\n              dup2\n              mstore\n              0x20\n              add\n              dup3\n              dup1\n              sload\n              tag_31\n              swap1\n              tag_30\n              jump\t// in\n            tag_31:\n              dup1\n              iszero\n              tag_32\n              jumpi\n              dup1\n              0x1f\n              lt\n              tag_33\n              jumpi\n              0x0100\n              dup1\n              dup4\n              sload\n              div\n              mul\n              dup4\n              mstore\n              swap2\n              0x20\n              add\n              swap2\n              jump(tag_32)\n            tag_33:\n              dup3\n              add\n              swap2\n              swap1\n              0x00\n              mstore\n              keccak256(0x00, 0x20)\n              swap1\n            tag_34:\n              dup2\n              sload\n              dup2\n              mstore\n              swap1\n              0x01\n              add\n              swap1\n              0x20\n              add\n              dup1\n              dup4\n              gt\n              tag_34\n              jumpi\n              dup3\n              swap1\n              sub\n              0x1f\n              and\n              dup3\n              add\n              swap2\n            tag_32:\n              pop\n              pop\n              pop\n              pop\n              pop\n              dup2\n              jump\t// out\n                /* \"#utility.yul\":7:106   */\n            tag_35:\n                /* \"#utility.yul\":59:65   */\n              0x00\n                /* \"#utility.yul\":93:98   */\n              dup2\n                /* \"#utility.yul\":87:99   */\n              mload\n                /* \"#utility.yul\":77:99   */\n              swap1\n              pop\n                /* \"#utility.yul\":7:106   */\n              swap2\n              swap1\n              pop\n              jump\t// out\n                /* \"#utility.yul\":112:281   */\n            tag_36:\n                /* \"#utility.yul\":196:207   */\n              0x00\n                /* \"#utility.yul\":230:236   */\n              dup3\n                /* \"#utility.yul\":225:228   */\n              dup3\n                /* \"#utility.yul\":218:237   */\n              mstore\n                /* \"#utility.yul\":270:274   */\n              0x20\n                /* \"#utility.yul\":265:268   */\n              dup3\n                /* \"#utility.yul\":261:275   */\n              add\n                /* \"#utility.yul\":246:275   */\n              swap1\n              pop\n                /* \"#utility.yul\":112:281   */\n              swap3\n              swap2\n              pop\n              pop\n              jump\t// out\n                /* \"#utility.yul\":287:533   */\n            tag_37:\n                /* \"#utility.yul\":368:369   */\n              0x00\n                /* \"#utility.yul\":378:491   */\n            tag_55:\n                /* \"#utility.yul\":392:398   */\n              dup4\n                /* \"#utility.yul\":389:390   */\n              dup2\n                /* \"#utility.yul\":386:399   */\n              lt\n                /* \"#utility.yul\":378:491   */\n              iszero\n              tag_57\n              jumpi\n                /* \"#utility.yul\":477:478   */\n              dup1\n                /* \"#utility.yul\":472:475   */\n              dup3\n                /* \"#utility.yul\":468:479   */\n              add\n                /* \"#utility.yul\":462:480   */\n              mload\n                /* \"#utility.yul\":458:459   */\n              dup2\n                /* \"#utility.yul\":453:456   */\n              dup5\n                /* \"#utility.yul\":449:460   */\n              add\n                /* \"#utility.yul\":442:481   */\n              mstore\n                /* \"#utility.yul\":414:416   */\n              0x20\n                /* \"#utility.yul\":411:412   */\n              dup2\n                /* \"#utility.yul\":407:417   */\n              add\n                /* \"#utility.yul\":402:417   */\n              swap1\n              pop\n                /* \"#utility.yul\":378:491   */\n              jump(tag_55)\n            tag_57:\n                /* \"#utility.yul\":525:526   */\n              0x00\n                /* \"#utility.yul\":516:522   */\n              dup5\n                /* \"#utility.yul\":511:514   */\n              dup5\n                /* \"#utility.yul\":507:523   */\n              add\n                /* \"#utility.yul\":500:527   */\n              mstore\n                /* \"#utility.yul\":349:533   */\n              pop\n                /* \"#utility.yul\":287:533   */\n              pop\n              pop\n              pop\n              jump\t// out\n                /* \"#utility.yul\":539:641   */\n            tag_38:\n                /* \"#utility.yul\":580:586   */\n              0x00\n                /* \"#utility.yul\":631:633   */\n              0x1f\n                /* \"#utility.yul\":627:634   */\n              not\n                /* \"#utility.yul\":622:624   */\n              0x1f\n                /* \"#utility.yul\":615:620   */\n              dup4\n                /* \"#utility.yul\":611:625   */\n              add\n                /* \"#utility.yul\":607:635   */\n              and\n                /* \"#utility.yul\":597:635   */\n              swap1\n              pop\n                /* \"#utility.yul\":539:641   */\n              swap2\n              swap1\n              pop\n              jump\t// out\n                /* \"#utility.yul\":647:1024   */\n            tag_39:\n                /* \"#utility.yul\":735:738   */\n              0x00\n                /* \"#utility.yul\":763:802   */\n              tag_60\n                /* \"#utility.yul\":796:801   */\n              dup3\n                /* \"#utility.yul\":763:802   */\n              tag_35\n              jump\t// in\n            tag_60:\n                /* \"#utility.yul\":818:889   */\n              tag_61\n                /* \"#utility.yul\":882:888   */\n              dup2\n                /* \"#utility.yul\":877:880   */\n              dup6\n                /* \"#utility.yul\":818:889   */\n              tag_36\n              jump\t// in\n            tag_61:\n                /* \"#utility.yul\":811:889   */\n              swap4\n              pop\n                /* \"#utility.yul\":898:963   */\n              tag_62\n                /* \"#utility.yul\":956:962   */\n              dup2\n                /* \"#utility.yul\":951:954   */\n              dup6\n                /* \"#utility.yul\":944:948   */\n              0x20\n                /* \"#utility.yul\":937:942   */\n              dup7\n                /* \"#utility.yul\":933:949   */\n              add\n                /* \"#utility.yul\":898:963   */\n              tag_37\n              jump\t// in\n            tag_62:\n                /* \"#utility.yul\":988:1017   */\n              tag_63\n                /* \"#utility.yul\":1010:1016   */\n              dup2\n                /* \"#utility.yul\":988:1017   */\n              tag_38\n              jump\t// in\n            tag_63:\n                /* \"#utility.yul\":983:986   */\n              dup5\n                /* \"#utility.yul\":979:1018   */\n              add\n                /* \"#utility.yul\":972:1018   */\n              swap2\n              pop\n                /* \"#utility.yul\":739:1024   */\n              pop\n                /* \"#utility.yul\":647:1024   */\n              swap3\n              swap2\n              pop\n              pop\n              jump\t// out\n                /* \"#utility.yul\":1030:1343   */\n            tag_11:\n                /* \"#utility.yul\":1143:1147   */\n              0x00\n                /* \"#utility.yul\":1181:1183   */\n              0x20\n                /* \"#utility.yul\":1170:1179   */\n              dup3\n                /* \"#utility.yul\":1166:1184   */\n              add\n                /* \"#utility.yul\":1158:1184   */\n              swap1\n              pop\n                /* \"#utility.yul\":1230:1239   */\n              dup2\n                /* \"#utility.yul\":1224:1228   */\n              dup2\n                /* \"#utility.yul\":1220:1240   */\n              sub\n                /* \"#utility.yul\":1216:1217   */\n              0x00\n                /* \"#utility.yul\":1205:1214   */\n              dup4\n                /* \"#utility.yul\":1201:1218   */\n              add\n                /* \"#utility.yul\":1194:1241   */\n              mstore\n                /* \"#utility.yul\":1258:1336   */\n              tag_65\n                /* \"#utility.yul\":1331:1335   */\n              dup2\n                /* \"#utility.yul\":1322:1328   */\n              dup5\n                /* \"#utility.yul\":1258:1336   */\n              tag_39\n              jump\t// in\n            tag_65:\n                /* \"#utility.yul\":1250:1336   */\n              swap1\n              pop\n                /* \"#utility.yul\":1030:1343   */\n              swap3\n              swap2\n              pop\n              pop\n              jump\t// out\n                /* \"#utility.yul\":1430:1547   */\n            tag_41:\n                /* \"#utility.yul\":1539:1540   */\n              0x00\n                /* \"#utility.yul\":1536:1537   */\n              dup1\n                /* \"#utility.yul\":1529:1541   */\n              revert\n                /* \"#utility.yul\":1676:1802   */\n            tag_43:\n                /* \"#utility.yul\":1713:1720   */\n              0x00\n                /* \"#utility.yul\":1753:1795   */\n              0xffffffffffffffffffffffffffffffffffffffff\n                /* \"#utility.yul\":1746:1751   */\n              dup3\n                /* \"#utility.yul\":1742:1796   */\n              and\n                /* \"#utility.yul\":1731:1796   */\n              swap1\n              pop\n                /* \"#utility.yul\":1676:1802   */\n              swap2\n              swap1\n              pop\n              jump\t// out\n                /* \"#utility.yul\":1808:1904   */\n            tag_44:\n                /* \"#utility.yul\":1845:1852   */\n              0x00\n                /* \"#utility.yul\":1874:1898   */\n              tag_71\n                /* \"#utility.yul\":1892:1897   */\n              dup3\n                /* \"#utility.yul\":1874:1898   */\n              tag_43\n              jump\t// in\n            tag_71:\n                /* \"#utility.yul\":1863:1898   */\n              swap1\n              pop\n                /* \"#utility.yul\":1808:1904   */\n              swap2\n              swap1\n              pop\n              jump\t// out\n                /* \"#utility.yul\":1910:2032   */\n            tag_45:\n                /* \"#utility.yul\":1983:2007   */\n              tag_73\n                /* \"#utility.yul\":2001:2006   */\n              dup2\n                /* \"#utility.yul\":1983:2007   */\n              tag_44\n              jump\t// in\n            tag_73:\n                /* \"#utility.yul\":1976:1981   */\n              dup2\n                /* \"#utility.yul\":1973:2008   */\n              eq\n                /* \"#utility.yul\":1963:2026   */\n              tag_74\n              jumpi\n                /* \"#utility.yul\":2022:2023   */\n              0x00\n                /* \"#utility.yul\":2019:2020   */\n              dup1\n                /* \"#utility.yul\":2012:2024   */\n              revert\n                /* \"#utility.yul\":1963:2026   */\n            tag_74:\n                /* \"#utility.yul\":1910:2032   */\n              pop\n              jump\t// out\n                /* \"#utility.yul\":2038:2177   */\n            tag_46:\n                /* \"#utility.yul\":2084:2089   */\n              0x00\n                /* \"#utility.yul\":2122:2128   */\n              dup2\n                /* \"#utility.yul\":2109:2129   */\n              calldataload\n                /* \"#utility.yul\":2100:2129   */\n              swap1\n              pop\n                /* \"#utility.yul\":2138:2171   */\n              tag_76\n                /* \"#utility.yul\":2165:2170   */\n              dup2\n                /* \"#utility.yul\":2138:2171   */\n              tag_45\n              jump\t// in\n            tag_76:\n                /* \"#utility.yul\":2038:2177   */\n              swap3\n              swap2\n              pop\n              pop\n              jump\t// out\n                /* \"#utility.yul\":2183:2512   */\n            tag_14:\n                /* \"#utility.yul\":2242:2248   */\n              0x00\n                /* \"#utility.yul\":2291:2293   */\n              0x20\n                /* \"#utility.yul\":2279:2288   */\n              dup3\n                /* \"#utility.yul\":2270:2277   */\n              dup5\n                /* \"#utility.yul\":2266:2289   */\n              sub\n                /* \"#utility.yul\":2262:2294   */\n              slt\n                /* \"#utility.yul\":2259:2378   */\n              iszero\n              tag_78\n              jumpi\n                /* \"#utility.yul\":2297:2376   */\n              tag_79\n              tag_41\n              jump\t// in\n            tag_79:\n                /* \"#utility.yul\":2259:2378   */\n            tag_78:\n                /* \"#utility.yul\":2417:2418   */\n              0x00\n                /* \"#utility.yul\":2442:2495   */\n              tag_80\n                /* \"#utility.yul\":2487:2494   */\n              dup5\n                /* \"#utility.yul\":2478:2484   */\n              dup3\n                /* \"#utility.yul\":2467:2476   */\n              dup6\n                /* \"#utility.yul\":2463:2485   */\n              add\n                /* \"#utility.yul\":2442:2495   */\n              tag_46\n              jump\t// in\n            tag_80:\n                /* \"#utility.yul\":2432:2495   */\n              swap2\n              pop\n                /* \"#utility.yul\":2388:2505   */\n              pop\n                /* \"#utility.yul\":2183:2512   */\n              swap3\n              swap2\n              pop\n              pop\n              jump\t// out\n                /* \"#utility.yul\":2518:2595   */\n            tag_47:\n                /* \"#utility.yul\":2555:2562   */\n              0x00\n                /* \"#utility.yul\":2584:2589   */\n              dup2\n                /* \"#utility.yul\":2573:2589   */\n              swap1\n              pop\n                /* \"#utility.yul\":2518:2595   */\n              swap2\n              swap1\n              pop\n              jump\t// out\n                /* \"#utility.yul\":2601:2719   */\n            tag_48:\n                /* \"#utility.yul\":2688:2712   */\n              tag_83\n                /* \"#utility.yul\":2706:2711   */\n              dup2\n                /* \"#utility.yul\":2688:2712   */\n              tag_47\n              jump\t// in\n            tag_83:\n                /* \"#utility.yul\":2683:2686   */\n              dup3\n                /* \"#utility.yul\":2676:2713   */\n              mstore\n                /* \"#utility.yul\":2601:2719   */\n              pop\n              pop\n              jump\t// out\n                /* \"#utility.yul\":2725:2947   */\n            tag_19:\n                /* \"#utility.yul\":2818:2822   */\n              0x00\n                /* \"#utility.yul\":2856:2858   */\n              0x20\n                /* \"#utility.yul\":2845:2854   */\n              dup3\n                /* \"#utility.yul\":2841:2859   */\n              add\n                /* \"#utility.yul\":2833:2859   */\n              swap1\n              pop\n                /* \"#utility.yul\":2869:2940   */\n              tag_85\n                /* \"#utility.yul\":2937:2938   */\n              0x00\n                /* \"#utility.yul\":2926:2935   */\n              dup4\n                /* \"#utility.yul\":2922:2939   */\n              add\n                /* \"#utility.yul\":2913:2919   */\n              dup5\n                /* \"#utility.yul\":2869:2940   */\n              tag_48\n              jump\t// in\n            tag_85:\n                /* \"#utility.yul\":2725:2947   */\n              swap3\n              swap2\n              pop\n              pop\n              jump\t// out\n                /* \"#utility.yul\":2953:3071   */\n            tag_49:\n                /* \"#utility.yul\":3040:3064   */\n              tag_87\n                /* \"#utility.yul\":3058:3063   */\n              dup2\n                /* \"#utility.yul\":3040:3064   */\n              tag_44\n              jump\t// in\n            tag_87:\n                /* \"#utility.yul\":3035:3038   */\n              dup3\n                /* \"#utility.yul\":3028:3065   */\n              mstore\n                /* \"#utility.yul\":2953:3071   */\n              pop\n              pop\n              jump\t// out\n                /* \"#utility.yul\":3077:3299   */\n            tag_23:\n                /* \"#utility.yul\":3170:3174   */\n              0x00\n                /* \"#utility.yul\":3208:3210   */\n              0x20\n                /* \"#utility.yul\":3197:3206   */\n              dup3\n                /* \"#utility.yul\":3193:3211   */\n              add\n                /* \"#utility.yul\":3185:3211   */\n              swap1\n              pop\n                /* \"#utility.yul\":3221:3292   */\n              tag_89\n                /* \"#utility.yul\":3289:3290   */\n              0x00\n                /* \"#utility.yul\":3278:3287   */\n              dup4\n                /* \"#utility.yul\":3274:3291   */\n              add\n                /* \"#utility.yul\":3265:3271   */\n              dup5\n                /* \"#utility.yul\":3221:3292   */\n              tag_49\n              jump\t// in\n            tag_89:\n                /* \"#utility.yul\":3077:3299   */\n              swap3\n              swap2\n              pop\n              pop\n              jump\t// out\n                /* \"#utility.yul\":3305:3485   */\n            tag_50:\n                /* \"#utility.yul\":3353:3430   */\n              0x4e487b7100000000000000000000000000000000000000000000000000000000\n                /* \"#utility.yul\":3350:3351   */\n              0x00\n                /* \"#utility.yul\":3343:3431   */\n              mstore\n                /* \"#utility.yul\":3450:3454   */\n              0x22\n                /* \"#utility.yul\":3447:3448   */\n              0x04\n                /* \"#utility.yul\":3440:3455   */\n              mstore\n                /* \"#utility.yul\":3474:3478   */\n              0x24\n                /* \"#utility.yul\":3471:3472   */\n              0x00\n                /* \"#utility.yul\":3464:3479   */\n              revert\n                /* \"#utility.yul\":3491:3811   */\n            tag_30:\n                /* \"#utility.yul\":3535:3541   */\n              0x00\n                /* \"#utility.yul\":3572:3573   */\n              0x02\n                /* \"#utility.yul\":3566:3570   */\n              dup3\n                /* \"#utility.yul\":3562:3574   */\n              div\n                /* \"#utility.yul\":3552:3574   */\n              swap1\n              pop\n                /* \"#utility.yul\":3619:3620   */\n              0x01\n                /* \"#utility.yul\":3613:3617   */\n              dup3\n                /* \"#utility.yul\":3609:3621   */\n              and\n                /* \"#utility.yul\":3640:3658   */\n              dup1\n                /* \"#utility.yul\":3630:3711   */\n              tag_92\n              jumpi\n                /* \"#utility.yul\":3696:3700   */\n              0x7f\n                /* \"#utility.yul\":3688:3694   */\n              dup3\n                /* \"#utility.yul\":3684:3701   */\n              and\n                /* \"#utility.yul\":3674:3701   */\n              swap2\n              pop\n                /* \"#utility.yul\":3630:3711   */\n            tag_92:\n                /* \"#utility.yul\":3758:3760   */\n              0x20\n                /* \"#utility.yul\":3750:3756   */\n              dup3\n                /* \"#utility.yul\":3747:3761   */\n              lt\n                /* \"#utility.yul\":3727:3745   */\n              dup2\n                /* \"#utility.yul\":3724:3762   */\n              sub\n                /* \"#utility.yul\":3721:3805   */\n              tag_93\n              jumpi\n                /* \"#utility.yul\":3777:3795   */\n              tag_94\n              tag_50\n              jump\t// in\n            tag_94:\n                /* \"#utility.yul\":3721:3805   */\n            tag_93:\n                /* \"#utility.yul\":3542:3811   */\n              pop\n                /* \"#utility.yul\":3491:3811   */\n              swap2\n              swap1\n              pop\n              jump\t// out\n\n            auxdata: 0xa2646970667358221220383d98e2b84da5268ad9a730b18a9659c88c2d2a62513deac774d920e74e9add64736f6c63430008160033\n        }\n    }\n\n    sub_1: assembly {\n            /* \"Nik_MD_project4.sol\":916:1243  contract AddressRecord is Record {... */\n          mstore(0x40, 0x80)\n            /* \"Nik_MD_project4.sol\":986:1050  constructor(address _record) {... */\n          callvalue\n          dup1\n          iszero\n          tag_1\n          jumpi\n          0x00\n          dup1\n          revert\n        tag_1:\n          pop\n          mload(0x40)\n          sub(codesize, bytecodeSize)\n          dup1\n          bytecodeSize\n          dup4\n          codecopy\n          dup2\n          dup2\n          add\n          0x40\n          mstore\n          dup2\n          add\n          swap1\n          tag_2\n          swap2\n          swap1\n          tag_3\n          jump\t// in\n        tag_2:\n            /* \"Nik_MD_project4.sol\":168:183  block.timestamp */\n          timestamp\n            /* \"Nik_MD_project4.sol\":151:165  timeOfCreation */\n          0x00\n            /* \"Nik_MD_project4.sol\":151:183  timeOfCreation = block.timestamp */\n          dup2\n          swap1\n          sstore\n          pop\n            /* \"Nik_MD_project4.sol\":1035:1042  _record */\n          dup1\n            /* \"Nik_MD_project4.sol\":1026:1032  record */\n          0x01\n          0x00\n            /* \"Nik_MD_project4.sol\":1026:1042  record = _record */\n          0x0100\n          exp\n          dup2\n          sload\n          dup2\n          0xffffffffffffffffffffffffffffffffffffffff\n          mul\n          not\n          and\n          swap1\n          dup4\n          0xffffffffffffffffffffffffffffffffffffffff\n          and\n          mul\n          or\n          swap1\n          sstore\n          pop\n            /* \"Nik_MD_project4.sol\":986:1050  constructor(address _record) {... */\n          pop\n            /* \"Nik_MD_project4.sol\":916:1243  contract AddressRecord is Record {... */\n          jump(tag_8)\n            /* \"#utility.yul\":88:205   */\n        tag_10:\n            /* \"#utility.yul\":197:198   */\n          0x00\n            /* \"#utility.yul\":194:195   */\n          dup1\n            /* \"#utility.yul\":187:199   */\n          revert\n            /* \"#utility.yul\":334:460   */\n        tag_12:\n            /* \"#utility.yul\":371:378   */\n          0x00\n            /* \"#utility.yul\":411:453   */\n          0xffffffffffffffffffffffffffffffffffffffff\n            /* \"#utility.yul\":404:409   */\n          dup3\n            /* \"#utility.yul\":400:454   */\n          and\n            /* \"#utility.yul\":389:454   */\n          swap1\n          pop\n            /* \"#utility.yul\":334:460   */\n          swap2\n          swap1\n          pop\n          jump\t// out\n            /* \"#utility.yul\":466:562   */\n        tag_13:\n            /* \"#utility.yul\":503:510   */\n          0x00\n            /* \"#utility.yul\":532:556   */\n          tag_22\n            /* \"#utility.yul\":550:555   */\n          dup3\n            /* \"#utility.yul\":532:556   */\n          tag_12\n          jump\t// in\n        tag_22:\n            /* \"#utility.yul\":521:556   */\n          swap1\n          pop\n            /* \"#utility.yul\":466:562   */\n          swap2\n          swap1\n          pop\n          jump\t// out\n            /* \"#utility.yul\":568:690   */\n        tag_14:\n            /* \"#utility.yul\":641:665   */\n          tag_24\n            /* \"#utility.yul\":659:664   */\n          dup2\n            /* \"#utility.yul\":641:665   */\n          tag_13\n          jump\t// in\n        tag_24:\n            /* \"#utility.yul\":634:639   */\n          dup2\n            /* \"#utility.yul\":631:666   */\n          eq\n            /* \"#utility.yul\":621:684   */\n          tag_25\n          jumpi\n            /* \"#utility.yul\":680:681   */\n          0x00\n            /* \"#utility.yul\":677:678   */\n          dup1\n            /* \"#utility.yul\":670:682   */\n          revert\n            /* \"#utility.yul\":621:684   */\n        tag_25:\n            /* \"#utility.yul\":568:690   */\n          pop\n          jump\t// out\n            /* \"#utility.yul\":696:839   */\n        tag_15:\n            /* \"#utility.yul\":753:758   */\n          0x00\n            /* \"#utility.yul\":784:790   */\n          dup2\n            /* \"#utility.yul\":778:791   */\n          mload\n            /* \"#utility.yul\":769:791   */\n          swap1\n          pop\n            /* \"#utility.yul\":800:833   */\n          tag_27\n            /* \"#utility.yul\":827:832   */\n          dup2\n            /* \"#utility.yul\":800:833   */\n          tag_14\n          jump\t// in\n        tag_27:\n            /* \"#utility.yul\":696:839   */\n          swap3\n          swap2\n          pop\n          pop\n          jump\t// out\n            /* \"#utility.yul\":845:1196   */\n        tag_3:\n            /* \"#utility.yul\":915:921   */\n          0x00\n            /* \"#utility.yul\":964:966   */\n          0x20\n            /* \"#utility.yul\":952:961   */\n          dup3\n            /* \"#utility.yul\":943:950   */\n          dup5\n            /* \"#utility.yul\":939:962   */\n          sub\n            /* \"#utility.yul\":935:967   */\n          slt\n            /* \"#utility.yul\":932:1051   */\n          iszero\n          tag_29\n          jumpi\n            /* \"#utility.yul\":970:1049   */\n          tag_30\n          tag_10\n          jump\t// in\n        tag_30:\n            /* \"#utility.yul\":932:1051   */\n        tag_29:\n            /* \"#utility.yul\":1090:1091   */\n          0x00\n            /* \"#utility.yul\":1115:1179   */\n          tag_31\n            /* \"#utility.yul\":1171:1178   */\n          dup5\n            /* \"#utility.yul\":1162:1168   */\n          dup3\n            /* \"#utility.yul\":1151:1160   */\n          dup6\n            /* \"#utility.yul\":1147:1169   */\n          add\n            /* \"#utility.yul\":1115:1179   */\n          tag_15\n          jump\t// in\n        tag_31:\n            /* \"#utility.yul\":1105:1179   */\n          swap2\n          pop\n            /* \"#utility.yul\":1061:1189   */\n          pop\n            /* \"#utility.yul\":845:1196   */\n          swap3\n          swap2\n          pop\n          pop\n          jump\t// out\n            /* \"Nik_MD_project4.sol\":916:1243  contract AddressRecord is Record {... */\n        tag_8:\n          dataSize(sub_0)\n          dup1\n          dataOffset(sub_0)\n          0x00\n          codecopy\n          0x00\n          return\n        stop\n\n        sub_0: assembly {\n                /* \"Nik_MD_project4.sol\":916:1243  contract AddressRecord is Record {... */\n              mstore(0x40, 0x80)\n              callvalue\n              dup1\n              iszero\n              tag_1\n              jumpi\n              0x00\n              dup1\n              revert\n            tag_1:\n              pop\n              jumpi(tag_2, lt(calldatasize, 0x04))\n              shr(0xe0, calldataload(0x00))\n              dup1\n              0x0781f5c9\n              eq\n              tag_3\n              jumpi\n              dup1\n              0x1dcd69ec\n              eq\n              tag_4\n              jumpi\n              dup1\n              0x266cf109\n              eq\n              tag_5\n              jumpi\n              dup1\n              0xc37787d9\n              eq\n              tag_6\n              jumpi\n            tag_2:\n              0x00\n              dup1\n              revert\n                /* \"Nik_MD_project4.sol\":1058:1154  function getRecordType() public pure returns (string memory) {... */\n            tag_3:\n              tag_7\n              tag_8\n              jump\t// in\n            tag_7:\n              mload(0x40)\n              tag_9\n              swap2\n              swap1\n              tag_10\n              jump\t// in\n            tag_9:\n              mload(0x40)\n              dup1\n              swap2\n              sub\n              swap1\n              return\n                /* \"Nik_MD_project4.sol\":91:117  uint public timeOfCreation */\n            tag_4:\n              tag_11\n              tag_12\n              jump\t// in\n            tag_11:\n              mload(0x40)\n              tag_13\n              swap2\n              swap1\n              tag_14\n              jump\t// in\n            tag_13:\n              mload(0x40)\n              dup1\n              swap2\n              sub\n              swap1\n              return\n                /* \"Nik_MD_project4.sol\":956:977  address public record */\n            tag_5:\n              tag_15\n              tag_16\n              jump\t// in\n            tag_15:\n              mload(0x40)\n              tag_17\n              swap2\n              swap1\n              tag_18\n              jump\t// in\n            tag_17:\n              mload(0x40)\n              dup1\n              swap2\n              sub\n              swap1\n              return\n                /* \"Nik_MD_project4.sol\":1162:1240  function setRecord(address _record) public {... */\n            tag_6:\n              tag_19\n              0x04\n              dup1\n              calldatasize\n              sub\n              dup2\n              add\n              swap1\n              tag_20\n              swap2\n              swap1\n              tag_21\n              jump\t// in\n            tag_20:\n              tag_22\n              jump\t// in\n            tag_19:\n              stop\n                /* \"Nik_MD_project4.sol\":1058:1154  function getRecordType() public pure returns (string memory) {... */\n            tag_8:\n                /* \"Nik_MD_project4.sol\":1104:1117  string memory */\n              0x60\n                /* \"Nik_MD_project4.sol\":1130:1146  return \"address\" */\n              mload(0x40)\n              dup1\n              0x40\n              add\n              0x40\n              mstore\n              dup1\n              0x07\n              dup2\n              mstore\n              0x20\n              add\n              0x6164647265737300000000000000000000000000000000000000000000000000\n              dup2\n              mstore\n              pop\n              swap1\n              pop\n                /* \"Nik_MD_project4.sol\":1058:1154  function getRecordType() public pure returns (string memory) {... */\n              swap1\n              jump\t// out\n                /* \"Nik_MD_project4.sol\":91:117  uint public timeOfCreation */\n            tag_12:\n              sload(0x00)\n              dup2\n              jump\t// out\n                /* \"Nik_MD_project4.sol\":956:977  address public record */\n            tag_16:\n              0x01\n              0x00\n              swap1\n              sload\n              swap1\n              0x0100\n              exp\n              swap1\n              div\n              0xffffffffffffffffffffffffffffffffffffffff\n              and\n              dup2\n              jump\t// out\n                /* \"Nik_MD_project4.sol\":1162:1240  function setRecord(address _record) public {... */\n            tag_22:\n                /* \"Nik_MD_project4.sol\":1225:1232  _record */\n              dup1\n                /* \"Nik_MD_project4.sol\":1216:1222  record */\n              0x01\n              0x00\n                /* \"Nik_MD_project4.sol\":1216:1232  record = _record */\n              0x0100\n              exp\n              dup2\n              sload\n              dup2\n              0xffffffffffffffffffffffffffffffffffffffff\n              mul\n              not\n              and\n              swap1\n              dup4\n              0xffffffffffffffffffffffffffffffffffffffff\n              and\n              mul\n              or\n              swap1\n              sstore\n              pop\n                /* \"Nik_MD_project4.sol\":1162:1240  function setRecord(address _record) public {... */\n              pop\n              jump\t// out\n                /* \"#utility.yul\":7:106   */\n            tag_25:\n                /* \"#utility.yul\":59:65   */\n              0x00\n                /* \"#utility.yul\":93:98   */\n              dup2\n                /* \"#utility.yul\":87:99   */\n              mload\n                /* \"#utility.yul\":77:99   */\n              swap1\n              pop\n                /* \"#utility.yul\":7:106   */\n              swap2\n              swap1\n              pop\n              jump\t// out\n                /* \"#utility.yul\":112:281   */\n            tag_26:\n                /* \"#utility.yul\":196:207   */\n              0x00\n                /* \"#utility.yul\":230:236   */\n              dup3\n                /* \"#utility.yul\":225:228   */\n              dup3\n                /* \"#utility.yul\":218:237   */\n              mstore\n                /* \"#utility.yul\":270:274   */\n              0x20\n                /* \"#utility.yul\":265:268   */\n              dup3\n                /* \"#utility.yul\":261:275   */\n              add\n                /* \"#utility.yul\":246:275   */\n              swap1\n              pop\n                /* \"#utility.yul\":112:281   */\n              swap3\n              swap2\n              pop\n              pop\n              jump\t// out\n                /* \"#utility.yul\":287:533   */\n            tag_27:\n                /* \"#utility.yul\":368:369   */\n              0x00\n                /* \"#utility.yul\":378:491   */\n            tag_44:\n                /* \"#utility.yul\":392:398   */\n              dup4\n                /* \"#utility.yul\":389:390   */\n              dup2\n                /* \"#utility.yul\":386:399   */\n              lt\n                /* \"#utility.yul\":378:491   */\n              iszero\n              tag_46\n              jumpi\n                /* \"#utility.yul\":477:478   */\n              dup1\n                /* \"#utility.yul\":472:475   */\n              dup3\n                /* \"#utility.yul\":468:479   */\n              add\n                /* \"#utility.yul\":462:480   */\n              mload\n                /* \"#utility.yul\":458:459   */\n              dup2\n                /* \"#utility.yul\":453:456   */\n              dup5\n                /* \"#utility.yul\":449:460   */\n              add\n                /* \"#utility.yul\":442:481   */\n              mstore\n                /* \"#utility.yul\":414:416   */\n              0x20\n                /* \"#utility.yul\":411:412   */\n              dup2\n                /* \"#utility.yul\":407:417   */\n              add\n                /* \"#utility.yul\":402:417   */\n              swap1\n              pop\n                /* \"#utility.yul\":378:491   */\n              jump(tag_44)\n            tag_46:\n                /* \"#utility.yul\":525:526   */\n              0x00\n                /* \"#utility.yul\":516:522   */\n              dup5\n                /* \"#utility.yul\":511:514   */\n              dup5\n                /* \"#utility.yul\":507:523   */\n              add\n                /* \"#utility.yul\":500:527   */\n              mstore\n                /* \"#utility.yul\":349:533   */\n              pop\n                /* \"#utility.yul\":287:533   */\n              pop\n              pop\n              pop\n              jump\t// out\n                /* \"#utility.yul\":539:641   */\n            tag_28:\n                /* \"#utility.yul\":580:586   */\n              0x00\n                /* \"#utility.yul\":631:633   */\n              0x1f\n                /* \"#utility.yul\":627:634   */\n              not\n                /* \"#utility.yul\":622:624   */\n              0x1f\n                /* \"#utility.yul\":615:620   */\n              dup4\n                /* \"#utility.yul\":611:625   */\n              add\n                /* \"#utility.yul\":607:635   */\n              and\n                /* \"#utility.yul\":597:635   */\n              swap1\n              pop\n                /* \"#utility.yul\":539:641   */\n              swap2\n              swap1\n              pop\n              jump\t// out\n                /* \"#utility.yul\":647:1024   */\n            tag_29:\n                /* \"#utility.yul\":735:738   */\n              0x00\n                /* \"#utility.yul\":763:802   */\n              tag_49\n                /* \"#utility.yul\":796:801   */\n              dup3\n                /* \"#utility.yul\":763:802   */\n              tag_25\n              jump\t// in\n            tag_49:\n                /* \"#utility.yul\":818:889   */\n              tag_50\n                /* \"#utility.yul\":882:888   */\n              dup2\n                /* \"#utility.yul\":877:880   */\n              dup6\n                /* \"#utility.yul\":818:889   */\n              tag_26\n              jump\t// in\n            tag_50:\n                /* \"#utility.yul\":811:889   */\n              swap4\n              pop\n                /* \"#utility.yul\":898:963   */\n              tag_51\n                /* \"#utility.yul\":956:962   */\n              dup2\n                /* \"#utility.yul\":951:954   */\n              dup6\n                /* \"#utility.yul\":944:948   */\n              0x20\n                /* \"#utility.yul\":937:942   */\n              dup7\n                /* \"#utility.yul\":933:949   */\n              add\n                /* \"#utility.yul\":898:963   */\n              tag_27\n              jump\t// in\n            tag_51:\n                /* \"#utility.yul\":988:1017   */\n              tag_52\n                /* \"#utility.yul\":1010:1016   */\n              dup2\n                /* \"#utility.yul\":988:1017   */\n              tag_28\n              jump\t// in\n            tag_52:\n                /* \"#utility.yul\":983:986   */\n              dup5\n                /* \"#utility.yul\":979:1018   */\n              add\n                /* \"#utility.yul\":972:1018   */\n              swap2\n              pop\n                /* \"#utility.yul\":739:1024   */\n              pop\n                /* \"#utility.yul\":647:1024   */\n              swap3\n              swap2\n              pop\n              pop\n              jump\t// out\n                /* \"#utility.yul\":1030:1343   */\n            tag_10:\n                /* \"#utility.yul\":1143:1147   */\n              0x00\n                /* \"#utility.yul\":1181:1183   */\n              0x20\n                /* \"#utility.yul\":1170:1179   */\n              dup3\n                /* \"#utility.yul\":1166:1184   */\n              add\n                /* \"#utility.yul\":1158:1184   */\n              swap1\n              pop\n                /* \"#utility.yul\":1230:1239   */\n              dup2\n                /* \"#utility.yul\":1224:1228   */\n              dup2\n                /* \"#utility.yul\":1220:1240   */\n              sub\n                /* \"#utility.yul\":1216:1217   */\n              0x00\n                /* \"#utility.yul\":1205:1214   */\n              dup4\n                /* \"#utility.yul\":1201:1218   */\n              add\n                /* \"#utility.yul\":1194:1241   */\n              mstore\n                /* \"#utility.yul\":1258:1336   */\n              tag_54\n                /* \"#utility.yul\":1331:1335   */\n              dup2\n                /* \"#utility.yul\":1322:1328   */\n              dup5\n                /* \"#utility.yul\":1258:1336   */\n              tag_29\n              jump\t// in\n            tag_54:\n                /* \"#utility.yul\":1250:1336   */\n              swap1\n              pop\n                /* \"#utility.yul\":1030:1343   */\n              swap3\n              swap2\n              pop\n              pop\n              jump\t// out\n                /* \"#utility.yul\":1349:1426   */\n            tag_30:\n                /* \"#utility.yul\":1386:1393   */\n              0x00\n                /* \"#utility.yul\":1415:1420   */\n              dup2\n                /* \"#utility.yul\":1404:1420   */\n              swap1\n              pop\n                /* \"#utility.yul\":1349:1426   */\n              swap2\n              swap1\n              pop\n              jump\t// out\n                /* \"#utility.yul\":1432:1550   */\n            tag_31:\n                /* \"#utility.yul\":1519:1543   */\n              tag_57\n                /* \"#utility.yul\":1537:1542   */\n              dup2\n                /* \"#utility.yul\":1519:1543   */\n              tag_30\n              jump\t// in\n            tag_57:\n                /* \"#utility.yul\":1514:1517   */\n              dup3\n                /* \"#utility.yul\":1507:1544   */\n              mstore\n                /* \"#utility.yul\":1432:1550   */\n              pop\n              pop\n              jump\t// out\n                /* \"#utility.yul\":1556:1778   */\n            tag_14:\n                /* \"#utility.yul\":1649:1653   */\n              0x00\n                /* \"#utility.yul\":1687:1689   */\n              0x20\n                /* \"#utility.yul\":1676:1685   */\n              dup3\n                /* \"#utility.yul\":1672:1690   */\n              add\n                /* \"#utility.yul\":1664:1690   */\n              swap1\n              pop\n                /* \"#utility.yul\":1700:1771   */\n              tag_59\n                /* \"#utility.yul\":1768:1769   */\n              0x00\n                /* \"#utility.yul\":1757:1766   */\n              dup4\n                /* \"#utility.yul\":1753:1770   */\n              add\n                /* \"#utility.yul\":1744:1750   */\n              dup5\n                /* \"#utility.yul\":1700:1771   */\n              tag_31\n              jump\t// in\n            tag_59:\n                /* \"#utility.yul\":1556:1778   */\n              swap3\n              swap2\n              pop\n              pop\n              jump\t// out\n                /* \"#utility.yul\":1784:1910   */\n            tag_32:\n                /* \"#utility.yul\":1821:1828   */\n              0x00\n                /* \"#utility.yul\":1861:1903   */\n              0xffffffffffffffffffffffffffffffffffffffff\n                /* \"#utility.yul\":1854:1859   */\n              dup3\n                /* \"#utility.yul\":1850:1904   */\n              and\n                /* \"#utility.yul\":1839:1904   */\n              swap1\n              pop\n                /* \"#utility.yul\":1784:1910   */\n              swap2\n              swap1\n              pop\n              jump\t// out\n                /* \"#utility.yul\":1916:2012   */\n            tag_33:\n                /* \"#utility.yul\":1953:1960   */\n              0x00\n                /* \"#utility.yul\":1982:2006   */\n              tag_62\n                /* \"#utility.yul\":2000:2005   */\n              dup3\n                /* \"#utility.yul\":1982:2006   */\n              tag_32\n              jump\t// in\n            tag_62:\n                /* \"#utility.yul\":1971:2006   */\n              swap1\n              pop\n                /* \"#utility.yul\":1916:2012   */\n              swap2\n              swap1\n              pop\n              jump\t// out\n                /* \"#utility.yul\":2018:2136   */\n            tag_34:\n                /* \"#utility.yul\":2105:2129   */\n              tag_64\n                /* \"#utility.yul\":2123:2128   */\n              dup2\n                /* \"#utility.yul\":2105:2129   */\n              tag_33\n              jump\t// in\n            tag_64:\n                /* \"#utility.yul\":2100:2103   */\n              dup3\n                /* \"#utility.yul\":2093:2130   */\n              mstore\n                /* \"#utility.yul\":2018:2136   */\n              pop\n              pop\n              jump\t// out\n                /* \"#utility.yul\":2142:2364   */\n            tag_18:\n                /* \"#utility.yul\":2235:2239   */\n              0x00\n                /* \"#utility.yul\":2273:2275   */\n              0x20\n                /* \"#utility.yul\":2262:2271   */\n              dup3\n                /* \"#utility.yul\":2258:2276   */\n              add\n                /* \"#utility.yul\":2250:2276   */\n              swap1\n              pop\n                /* \"#utility.yul\":2286:2357   */\n              tag_66\n                /* \"#utility.yul\":2354:2355   */\n              0x00\n                /* \"#utility.yul\":2343:2352   */\n              dup4\n                /* \"#utility.yul\":2339:2356   */\n              add\n                /* \"#utility.yul\":2330:2336   */\n              dup5\n                /* \"#utility.yul\":2286:2357   */\n              tag_34\n              jump\t// in\n            tag_66:\n                /* \"#utility.yul\":2142:2364   */\n              swap3\n              swap2\n              pop\n              pop\n              jump\t// out\n                /* \"#utility.yul\":2451:2568   */\n            tag_36:\n                /* \"#utility.yul\":2560:2561   */\n              0x00\n                /* \"#utility.yul\":2557:2558   */\n              dup1\n                /* \"#utility.yul\":2550:2562   */\n              revert\n                /* \"#utility.yul\":2697:2819   */\n            tag_38:\n                /* \"#utility.yul\":2770:2794   */\n              tag_71\n                /* \"#utility.yul\":2788:2793   */\n              dup2\n                /* \"#utility.yul\":2770:2794   */\n              tag_33\n              jump\t// in\n            tag_71:\n                /* \"#utility.yul\":2763:2768   */\n              dup2\n                /* \"#utility.yul\":2760:2795   */\n              eq\n                /* \"#utility.yul\":2750:2813   */\n              tag_72\n              jumpi\n                /* \"#utility.yul\":2809:2810   */\n              0x00\n                /* \"#utility.yul\":2806:2807   */\n              dup1\n                /* \"#utility.yul\":2799:2811   */\n              revert\n                /* \"#utility.yul\":2750:2813   */\n            tag_72:\n                /* \"#utility.yul\":2697:2819   */\n              pop\n              jump\t// out\n                /* \"#utility.yul\":2825:2964   */\n            tag_39:\n                /* \"#utility.yul\":2871:2876   */\n              0x00\n                /* \"#utility.yul\":2909:2915   */\n              dup2\n                /* \"#utility.yul\":2896:2916   */\n              calldataload\n                /* \"#utility.yul\":2887:2916   */\n              swap1\n              pop\n                /* \"#utility.yul\":2925:2958   */\n              tag_74\n                /* \"#utility.yul\":2952:2957   */\n              dup2\n                /* \"#utility.yul\":2925:2958   */\n              tag_38\n              jump\t// in\n            tag_74:\n                /* \"#utility.yul\":2825:2964   */\n              swap3\n              swap2\n              pop\n              pop\n              jump\t// out\n                /* \"#utility.yul\":2970:3299   */\n            tag_21:\n                /* \"#utility.yul\":3029:3035   */\n              0x00\n                /* \"#utility.yul\":3078:3080   */\n              0x20\n                /* \"#utility.yul\":3066:3075   */\n              dup3\n                /* \"#utility.yul\":3057:3064   */\n              dup5\n                /* \"#utility.yul\":3053:3076   */\n              sub\n                /* \"#utility.yul\":3049:3081   */\n              slt\n                /* \"#utility.yul\":3046:3165   */\n              iszero\n              tag_76\n              jumpi\n                /* \"#utility.yul\":3084:3163   */\n              tag_77\n              tag_36\n              jump\t// in\n            tag_77:\n                /* \"#utility.yul\":3046:3165   */\n            tag_76:\n                /* \"#utility.yul\":3204:3205   */\n              0x00\n                /* \"#utility.yul\":3229:3282   */\n              tag_78\n                /* \"#utility.yul\":3274:3281   */\n              dup5\n                /* \"#utility.yul\":3265:3271   */\n              dup3\n                /* \"#utility.yul\":3254:3263   */\n              dup6\n                /* \"#utility.yul\":3250:3272   */\n              add\n                /* \"#utility.yul\":3229:3282   */\n              tag_39\n              jump\t// in\n            tag_78:\n                /* \"#utility.yul\":3219:3282   */\n              swap2\n              pop\n                /* \"#utility.yul\":3175:3292   */\n              pop\n                /* \"#utility.yul\":2970:3299   */\n              swap3\n              swap2\n              pop\n              pop\n              jump\t// out\n\n            auxdata: 0xa26469706673582212201bbb3297fb318519acebdcacf94a562c2b16b073b3058400bb84541b22a7218b64736f6c63430008160033\n        }\n    }\n\n    sub_2: assembly {\n            /* \"Nik_MD_project4.sol\":576:912  contract StringRecord is Record {... */\n          mstore(0x40, 0x80)\n            /* \"Nik_MD_project4.sol\":644:714  constructor(string memory _record) {... */\n          callvalue\n          dup1\n          iszero\n          tag_1\n          jumpi\n          0x00\n          dup1\n          revert\n        tag_1:\n          pop\n          mload(0x40)\n          sub(codesize, bytecodeSize)\n          dup1\n          bytecodeSize\n          dup4\n          codecopy\n          dup2\n          dup2\n          add\n          0x40\n          mstore\n          dup2\n          add\n          swap1\n          tag_2\n          swap2\n          swap1\n          tag_3\n          jump\t// in\n        tag_2:\n            /* \"Nik_MD_project4.sol\":168:183  block.timestamp */\n          timestamp\n            /* \"Nik_MD_project4.sol\":151:165  timeOfCreation */\n          0x00\n            /* \"Nik_MD_project4.sol\":151:183  timeOfCreation = block.timestamp */\n          dup2\n          swap1\n          sstore\n          pop\n            /* \"Nik_MD_project4.sol\":699:706  _record */\n          dup1\n            /* \"Nik_MD_project4.sol\":690:696  record */\n          0x01\n            /* \"Nik_MD_project4.sol\":690:706  record = _record */\n          swap1\n          dup2\n          tag_8\n          swap2\n          swap1\n          tag_9\n          jump\t// in\n        tag_8:\n          pop\n            /* \"Nik_MD_project4.sol\":644:714  constructor(string memory _record) {... */\n          pop\n            /* \"Nik_MD_project4.sol\":576:912  contract StringRecord is Record {... */\n          jump(tag_10)\n            /* \"#utility.yul\":7:82   */\n        tag_11:\n            /* \"#utility.yul\":40:46   */\n          0x00\n            /* \"#utility.yul\":73:75   */\n          0x40\n            /* \"#utility.yul\":67:76   */\n          mload\n            /* \"#utility.yul\":57:76   */\n          swap1\n          pop\n            /* \"#utility.yul\":7:82   */\n          swap1\n          jump\t// out\n            /* \"#utility.yul\":88:205   */\n        tag_12:\n            /* \"#utility.yul\":197:198   */\n          0x00\n            /* \"#utility.yul\":194:195   */\n          dup1\n            /* \"#utility.yul\":187:199   */\n          revert\n            /* \"#utility.yul\":211:328   */\n        tag_13:\n            /* \"#utility.yul\":320:321   */\n          0x00\n            /* \"#utility.yul\":317:318   */\n          dup1\n            /* \"#utility.yul\":310:322   */\n          revert\n            /* \"#utility.yul\":334:451   */\n        tag_14:\n            /* \"#utility.yul\":443:444   */\n          0x00\n            /* \"#utility.yul\":440:441   */\n          dup1\n            /* \"#utility.yul\":433:445   */\n          revert\n            /* \"#utility.yul\":457:574   */\n        tag_15:\n            /* \"#utility.yul\":566:567   */\n          0x00\n            /* \"#utility.yul\":563:564   */\n          dup1\n            /* \"#utility.yul\":556:568   */\n          revert\n            /* \"#utility.yul\":580:682   */\n        tag_16:\n            /* \"#utility.yul\":621:627   */\n          0x00\n            /* \"#utility.yul\":672:674   */\n          0x1f\n            /* \"#utility.yul\":668:675   */\n          not\n            /* \"#utility.yul\":663:665   */\n          0x1f\n            /* \"#utility.yul\":656:661   */\n          dup4\n            /* \"#utility.yul\":652:666   */\n          add\n            /* \"#utility.yul\":648:676   */\n          and\n            /* \"#utility.yul\":638:676   */\n          swap1\n          pop\n            /* \"#utility.yul\":580:682   */\n          swap2\n          swap1\n          pop\n          jump\t// out\n            /* \"#utility.yul\":688:868   */\n        tag_17:\n            /* \"#utility.yul\":736:813   */\n          0x4e487b7100000000000000000000000000000000000000000000000000000000\n            /* \"#utility.yul\":733:734   */\n          0x00\n            /* \"#utility.yul\":726:814   */\n          mstore\n            /* \"#utility.yul\":833:837   */\n          0x41\n            /* \"#utility.yul\":830:831   */\n          0x04\n            /* \"#utility.yul\":823:838   */\n          mstore\n            /* \"#utility.yul\":857:861   */\n          0x24\n            /* \"#utility.yul\":854:855   */\n          0x00\n            /* \"#utility.yul\":847:862   */\n          revert\n            /* \"#utility.yul\":874:1155   */\n        tag_18:\n            /* \"#utility.yul\":957:984   */\n          tag_52\n            /* \"#utility.yul\":979:983   */\n          dup3\n            /* \"#utility.yul\":957:984   */\n          tag_16\n          jump\t// in\n        tag_52:\n            /* \"#utility.yul\":949:955   */\n          dup2\n            /* \"#utility.yul\":945:985   */\n          add\n            /* \"#utility.yul\":1087:1093   */\n          dup2\n            /* \"#utility.yul\":1075:1085   */\n          dup2\n            /* \"#utility.yul\":1072:1094   */\n          lt\n            /* \"#utility.yul\":1051:1069   */\n          0xffffffffffffffff\n            /* \"#utility.yul\":1039:1049   */\n          dup3\n            /* \"#utility.yul\":1036:1070   */\n          gt\n            /* \"#utility.yul\":1033:1095   */\n          or\n            /* \"#utility.yul\":1030:1118   */\n          iszero\n          tag_53\n          jumpi\n            /* \"#utility.yul\":1098:1116   */\n          tag_54\n          tag_17\n          jump\t// in\n        tag_54:\n            /* \"#utility.yul\":1030:1118   */\n        tag_53:\n            /* \"#utility.yul\":1138:1148   */\n          dup1\n            /* \"#utility.yul\":1134:1136   */\n          0x40\n            /* \"#utility.yul\":1127:1149   */\n          mstore\n            /* \"#utility.yul\":917:1155   */\n          pop\n            /* \"#utility.yul\":874:1155   */\n          pop\n          pop\n          jump\t// out\n            /* \"#utility.yul\":1161:1290   */\n        tag_19:\n            /* \"#utility.yul\":1195:1201   */\n          0x00\n            /* \"#utility.yul\":1222:1242   */\n          tag_56\n          tag_11\n          jump\t// in\n        tag_56:\n            /* \"#utility.yul\":1212:1242   */\n          swap1\n          pop\n            /* \"#utility.yul\":1251:1284   */\n          tag_57\n            /* \"#utility.yul\":1279:1283   */\n          dup3\n            /* \"#utility.yul\":1271:1277   */\n          dup3\n            /* \"#utility.yul\":1251:1284   */\n          tag_18\n          jump\t// in\n        tag_57:\n            /* \"#utility.yul\":1161:1290   */\n          swap2\n          swap1\n          pop\n          jump\t// out\n            /* \"#utility.yul\":1296:1604   */\n        tag_20:\n            /* \"#utility.yul\":1358:1362   */\n          0x00\n            /* \"#utility.yul\":1448:1466   */\n          0xffffffffffffffff\n            /* \"#utility.yul\":1440:1446   */\n          dup3\n            /* \"#utility.yul\":1437:1467   */\n          gt\n            /* \"#utility.yul\":1434:1490   */\n          iszero\n          tag_59\n          jumpi\n            /* \"#utility.yul\":1470:1488   */\n          tag_60\n          tag_17\n          jump\t// in\n        tag_60:\n            /* \"#utility.yul\":1434:1490   */\n        tag_59:\n            /* \"#utility.yul\":1508:1537   */\n          tag_61\n            /* \"#utility.yul\":1530:1536   */\n          dup3\n            /* \"#utility.yul\":1508:1537   */\n          tag_16\n          jump\t// in\n        tag_61:\n            /* \"#utility.yul\":1500:1537   */\n          swap1\n          pop\n            /* \"#utility.yul\":1592:1596   */\n          0x20\n            /* \"#utility.yul\":1586:1590   */\n          dup2\n            /* \"#utility.yul\":1582:1597   */\n          add\n            /* \"#utility.yul\":1574:1597   */\n          swap1\n          pop\n            /* \"#utility.yul\":1296:1604   */\n          swap2\n          swap1\n          pop\n          jump\t// out\n            /* \"#utility.yul\":1610:1856   */\n        tag_21:\n            /* \"#utility.yul\":1691:1692   */\n          0x00\n            /* \"#utility.yul\":1701:1814   */\n        tag_63:\n            /* \"#utility.yul\":1715:1721   */\n          dup4\n            /* \"#utility.yul\":1712:1713   */\n          dup2\n            /* \"#utility.yul\":1709:1722   */\n          lt\n            /* \"#utility.yul\":1701:1814   */\n          iszero\n          tag_65\n          jumpi\n            /* \"#utility.yul\":1800:1801   */\n          dup1\n            /* \"#utility.yul\":1795:1798   */\n          dup3\n            /* \"#utility.yul\":1791:1802   */\n          add\n            /* \"#utility.yul\":1785:1803   */\n          mload\n            /* \"#utility.yul\":1781:1782   */\n          dup2\n            /* \"#utility.yul\":1776:1779   */\n          dup5\n            /* \"#utility.yul\":1772:1783   */\n          add\n            /* \"#utility.yul\":1765:1804   */\n          mstore\n            /* \"#utility.yul\":1737:1739   */\n          0x20\n            /* \"#utility.yul\":1734:1735   */\n          dup2\n            /* \"#utility.yul\":1730:1740   */\n          add\n            /* \"#utility.yul\":1725:1740   */\n          swap1\n          pop\n            /* \"#utility.yul\":1701:1814   */\n          jump(tag_63)\n        tag_65:\n            /* \"#utility.yul\":1848:1849   */\n          0x00\n            /* \"#utility.yul\":1839:1845   */\n          dup5\n            /* \"#utility.yul\":1834:1837   */\n          dup5\n            /* \"#utility.yul\":1830:1846   */\n          add\n            /* \"#utility.yul\":1823:1850   */\n          mstore\n            /* \"#utility.yul\":1672:1856   */\n          pop\n            /* \"#utility.yul\":1610:1856   */\n          pop\n          pop\n          pop\n          jump\t// out\n            /* \"#utility.yul\":1862:2296   */\n        tag_22:\n            /* \"#utility.yul\":1951:1956   */\n          0x00\n            /* \"#utility.yul\":1976:2042   */\n          tag_67\n            /* \"#utility.yul\":1992:2041   */\n          tag_68\n            /* \"#utility.yul\":2034:2040   */\n          dup5\n            /* \"#utility.yul\":1992:2041   */\n          tag_20\n          jump\t// in\n        tag_68:\n            /* \"#utility.yul\":1976:2042   */\n          tag_19\n          jump\t// in\n        tag_67:\n            /* \"#utility.yul\":1967:2042   */\n          swap1\n          pop\n            /* \"#utility.yul\":2065:2071   */\n          dup3\n            /* \"#utility.yul\":2058:2063   */\n          dup2\n            /* \"#utility.yul\":2051:2072   */\n          mstore\n            /* \"#utility.yul\":2103:2107   */\n          0x20\n            /* \"#utility.yul\":2096:2101   */\n          dup2\n            /* \"#utility.yul\":2092:2108   */\n          add\n            /* \"#utility.yul\":2141:2144   */\n          dup5\n            /* \"#utility.yul\":2132:2138   */\n          dup5\n            /* \"#utility.yul\":2127:2130   */\n          dup5\n            /* \"#utility.yul\":2123:2139   */\n          add\n            /* \"#utility.yul\":2120:2145   */\n          gt\n            /* \"#utility.yul\":2117:2229   */\n          iszero\n          tag_69\n          jumpi\n            /* \"#utility.yul\":2148:2227   */\n          tag_70\n          tag_15\n          jump\t// in\n        tag_70:\n            /* \"#utility.yul\":2117:2229   */\n        tag_69:\n            /* \"#utility.yul\":2238:2290   */\n          tag_71\n            /* \"#utility.yul\":2283:2289   */\n          dup5\n            /* \"#utility.yul\":2278:2281   */\n          dup3\n            /* \"#utility.yul\":2273:2276   */\n          dup6\n            /* \"#utility.yul\":2238:2290   */\n          tag_21\n          jump\t// in\n        tag_71:\n            /* \"#utility.yul\":1957:2296   */\n          pop\n            /* \"#utility.yul\":1862:2296   */\n          swap4\n          swap3\n          pop\n          pop\n          pop\n          jump\t// out\n            /* \"#utility.yul\":2316:2671   */\n        tag_23:\n            /* \"#utility.yul\":2383:2388   */\n          0x00\n            /* \"#utility.yul\":2432:2435   */\n          dup3\n            /* \"#utility.yul\":2425:2429   */\n          0x1f\n            /* \"#utility.yul\":2417:2423   */\n          dup4\n            /* \"#utility.yul\":2413:2430   */\n          add\n            /* \"#utility.yul\":2409:2436   */\n          slt\n            /* \"#utility.yul\":2399:2521   */\n          tag_73\n          jumpi\n            /* \"#utility.yul\":2440:2519   */\n          tag_74\n          tag_14\n          jump\t// in\n        tag_74:\n            /* \"#utility.yul\":2399:2521   */\n        tag_73:\n            /* \"#utility.yul\":2550:2556   */\n          dup2\n            /* \"#utility.yul\":2544:2557   */\n          mload\n            /* \"#utility.yul\":2575:2665   */\n          tag_75\n            /* \"#utility.yul\":2661:2664   */\n          dup5\n            /* \"#utility.yul\":2653:2659   */\n          dup3\n            /* \"#utility.yul\":2646:2650   */\n          0x20\n            /* \"#utility.yul\":2638:2644   */\n          dup7\n            /* \"#utility.yul\":2634:2651   */\n          add\n            /* \"#utility.yul\":2575:2665   */\n          tag_22\n          jump\t// in\n        tag_75:\n            /* \"#utility.yul\":2566:2665   */\n          swap2\n          pop\n            /* \"#utility.yul\":2389:2671   */\n          pop\n            /* \"#utility.yul\":2316:2671   */\n          swap3\n          swap2\n          pop\n          pop\n          jump\t// out\n            /* \"#utility.yul\":2677:3201   */\n        tag_3:\n            /* \"#utility.yul\":2757:2763   */\n          0x00\n            /* \"#utility.yul\":2806:2808   */\n          0x20\n            /* \"#utility.yul\":2794:2803   */\n          dup3\n            /* \"#utility.yul\":2785:2792   */\n          dup5\n            /* \"#utility.yul\":2781:2804   */\n          sub\n            /* \"#utility.yul\":2777:2809   */\n          slt\n            /* \"#utility.yul\":2774:2893   */\n          iszero\n          tag_77\n          jumpi\n            /* \"#utility.yul\":2812:2891   */\n          tag_78\n          tag_12\n          jump\t// in\n        tag_78:\n            /* \"#utility.yul\":2774:2893   */\n        tag_77:\n            /* \"#utility.yul\":2953:2954   */\n          0x00\n            /* \"#utility.yul\":2942:2951   */\n          dup3\n            /* \"#utility.yul\":2938:2955   */\n          add\n            /* \"#utility.yul\":2932:2956   */\n          mload\n            /* \"#utility.yul\":2983:3001   */\n          0xffffffffffffffff\n            /* \"#utility.yul\":2975:2981   */\n          dup2\n            /* \"#utility.yul\":2972:3002   */\n          gt\n            /* \"#utility.yul\":2969:3086   */\n          iszero\n          tag_79\n          jumpi\n            /* \"#utility.yul\":3005:3084   */\n          tag_80\n          tag_13\n          jump\t// in\n        tag_80:\n            /* \"#utility.yul\":2969:3086   */\n        tag_79:\n            /* \"#utility.yul\":3110:3184   */\n          tag_81\n            /* \"#utility.yul\":3176:3183   */\n          dup5\n            /* \"#utility.yul\":3167:3173   */\n          dup3\n            /* \"#utility.yul\":3156:3165   */\n          dup6\n            /* \"#utility.yul\":3152:3174   */\n          add\n            /* \"#utility.yul\":3110:3184   */\n          tag_23\n          jump\t// in\n        tag_81:\n            /* \"#utility.yul\":3100:3184   */\n          swap2\n          pop\n            /* \"#utility.yul\":2903:3194   */\n          pop\n            /* \"#utility.yul\":2677:3201   */\n          swap3\n          swap2\n          pop\n          pop\n          jump\t// out\n            /* \"#utility.yul\":3207:3306   */\n        tag_24:\n            /* \"#utility.yul\":3259:3265   */\n          0x00\n            /* \"#utility.yul\":3293:3298   */\n          dup2\n            /* \"#utility.yul\":3287:3299   */\n          mload\n            /* \"#utility.yul\":3277:3299   */\n          swap1\n          pop\n            /* \"#utility.yul\":3207:3306   */\n          swap2\n          swap1\n          pop\n          jump\t// out\n            /* \"#utility.yul\":3312:3492   */\n        tag_25:\n            /* \"#utility.yul\":3360:3437   */\n          0x4e487b7100000000000000000000000000000000000000000000000000000000\n            /* \"#utility.yul\":3357:3358   */\n          0x00\n            /* \"#utility.yul\":3350:3438   */\n          mstore\n            /* \"#utility.yul\":3457:3461   */\n          0x22\n            /* \"#utility.yul\":3454:3455   */\n          0x04\n            /* \"#utility.yul\":3447:3462   */\n          mstore\n            /* \"#utility.yul\":3481:3485   */\n          0x24\n            /* \"#utility.yul\":3478:3479   */\n          0x00\n            /* \"#utility.yul\":3471:3486   */\n          revert\n            /* \"#utility.yul\":3498:3818   */\n        tag_26:\n            /* \"#utility.yul\":3542:3548   */\n          0x00\n            /* \"#utility.yul\":3579:3580   */\n          0x02\n            /* \"#utility.yul\":3573:3577   */\n          dup3\n            /* \"#utility.yul\":3569:3581   */\n          div\n            /* \"#utility.yul\":3559:3581   */\n          swap1\n          pop\n            /* \"#utility.yul\":3626:3627   */\n          0x01\n            /* \"#utility.yul\":3620:3624   */\n          dup3\n            /* \"#utility.yul\":3616:3628   */\n          and\n            /* \"#utility.yul\":3647:3665   */\n          dup1\n            /* \"#utility.yul\":3637:3718   */\n          tag_85\n          jumpi\n            /* \"#utility.yul\":3703:3707   */\n          0x7f\n            /* \"#utility.yul\":3695:3701   */\n          dup3\n            /* \"#utility.yul\":3691:3708   */\n          and\n            /* \"#utility.yul\":3681:3708   */\n          swap2\n          pop\n            /* \"#utility.yul\":3637:3718   */\n        tag_85:\n            /* \"#utility.yul\":3765:3767   */\n          0x20\n            /* \"#utility.yul\":3757:3763   */\n          dup3\n            /* \"#utility.yul\":3754:3768   */\n          lt\n            /* \"#utility.yul\":3734:3752   */\n          dup2\n            /* \"#utility.yul\":3731:3769   */\n          sub\n            /* \"#utility.yul\":3728:3812   */\n          tag_86\n          jumpi\n            /* \"#utility.yul\":3784:3802   */\n          tag_87\n          tag_25\n          jump\t// in\n        tag_87:\n            /* \"#utility.yul\":3728:3812   */\n        tag_86:\n            /* \"#utility.yul\":3549:3818   */\n          pop\n            /* \"#utility.yul\":3498:3818   */\n          swap2\n          swap1\n          pop\n          jump\t// out\n            /* \"#utility.yul\":3824:3965   */\n        tag_27:\n            /* \"#utility.yul\":3873:3877   */\n          0x00\n            /* \"#utility.yul\":3896:3899   */\n          dup2\n            /* \"#utility.yul\":3888:3899   */\n          swap1\n          pop\n            /* \"#utility.yul\":3919:3922   */\n          dup2\n            /* \"#utility.yul\":3916:3917   */\n          0x00\n            /* \"#utility.yul\":3909:3923   */\n          mstore\n            /* \"#utility.yul\":3953:3957   */\n          0x20\n            /* \"#utility.yul\":3950:3951   */\n          0x00\n            /* \"#utility.yul\":3940:3958   */\n          keccak256\n            /* \"#utility.yul\":3932:3958   */\n          swap1\n          pop\n            /* \"#utility.yul\":3824:3965   */\n          swap2\n          swap1\n          pop\n          jump\t// out\n            /* \"#utility.yul\":3971:4064   */\n        tag_28:\n            /* \"#utility.yul\":4008:4014   */\n          0x00\n            /* \"#utility.yul\":4055:4057   */\n          0x20\n            /* \"#utility.yul\":4050:4052   */\n          0x1f\n            /* \"#utility.yul\":4043:4048   */\n          dup4\n            /* \"#utility.yul\":4039:4053   */\n          add\n            /* \"#utility.yul\":4035:4058   */\n          div\n            /* \"#utility.yul\":4025:4058   */\n          swap1\n          pop\n            /* \"#utility.yul\":3971:4064   */\n          swap2\n          swap1\n          pop\n          jump\t// out\n            /* \"#utility.yul\":4070:4177   */\n        tag_29:\n            /* \"#utility.yul\":4114:4122   */\n          0x00\n            /* \"#utility.yul\":4164:4169   */\n          dup3\n            /* \"#utility.yul\":4158:4162   */\n          dup3\n            /* \"#utility.yul\":4154:4170   */\n          shl\n            /* \"#utility.yul\":4133:4170   */\n          swap1\n          pop\n            /* \"#utility.yul\":4070:4177   */\n          swap3\n          swap2\n          pop\n          pop\n          jump\t// out\n            /* \"#utility.yul\":4183:4576   */\n        tag_30:\n            /* \"#utility.yul\":4252:4258   */\n          0x00\n            /* \"#utility.yul\":4302:4303   */\n          0x08\n            /* \"#utility.yul\":4290:4300   */\n          dup4\n            /* \"#utility.yul\":4286:4304   */\n          mul\n            /* \"#utility.yul\":4325:4422   */\n          tag_92\n            /* \"#utility.yul\":4355:4421   */\n          0xffffffffffffffffffffffffffffffffffffffffffffffffffffffffffffffff\n            /* \"#utility.yul\":4344:4353   */\n          dup3\n            /* \"#utility.yul\":4325:4422   */\n          tag_29\n          jump\t// in\n        tag_92:\n            /* \"#utility.yul\":4443:4482   */\n          tag_93\n            /* \"#utility.yul\":4473:4481   */\n          dup7\n            /* \"#utility.yul\":4462:4471   */\n          dup4\n            /* \"#utility.yul\":4443:4482   */\n          tag_29\n          jump\t// in\n        tag_93:\n            /* \"#utility.yul\":4431:4482   */\n          swap6\n          pop\n            /* \"#utility.yul\":4515:4519   */\n          dup1\n            /* \"#utility.yul\":4511:4520   */\n          not\n            /* \"#utility.yul\":4504:4509   */\n          dup5\n            /* \"#utility.yul\":4500:4521   */\n          and\n            /* \"#utility.yul\":4491:4521   */\n          swap4\n          pop\n            /* \"#utility.yul\":4564:4568   */\n          dup1\n            /* \"#utility.yul\":4554:4562   */\n          dup7\n            /* \"#utility.yul\":4550:4569   */\n          and\n            /* \"#utility.yul\":4543:4548   */\n          dup5\n            /* \"#utility.yul\":4540:4570   */\n          or\n            /* \"#utility.yul\":4530:4570   */\n          swap3\n          pop\n            /* \"#utility.yul\":4259:4576   */\n          pop\n          pop\n            /* \"#utility.yul\":4183:4576   */\n          swap4\n          swap3\n          pop\n          pop\n          pop\n          jump\t// out\n            /* \"#utility.yul\":4582:4659   */\n        tag_31:\n            /* \"#utility.yul\":4619:4626   */\n          0x00\n            /* \"#utility.yul\":4648:4653   */\n          dup2\n            /* \"#utility.yul\":4637:4653   */\n          swap1\n          pop\n            /* \"#utility.yul\":4582:4659   */\n          swap2\n          swap1\n          pop\n          jump\t// out\n            /* \"#utility.yul\":4665:4725   */\n        tag_32:\n            /* \"#utility.yul\":4693:4696   */\n          0x00\n            /* \"#utility.yul\":4714:4719   */\n          dup2\n            /* \"#utility.yul\":4707:4719   */\n          swap1\n          pop\n            /* \"#utility.yul\":4665:4725   */\n          swap2\n          swap1\n          pop\n          jump\t// out\n            /* \"#utility.yul\":4731:4873   */\n        tag_33:\n            /* \"#utility.yul\":4781:4790   */\n          0x00\n            /* \"#utility.yul\":4814:4867   */\n          tag_97\n            /* \"#utility.yul\":4832:4866   */\n          tag_98\n            /* \"#utility.yul\":4841:4865   */\n          tag_99\n            /* \"#utility.yul\":4859:4864   */\n          dup5\n            /* \"#utility.yul\":4841:4865   */\n          tag_31\n          jump\t// in\n        tag_99:\n            /* \"#utility.yul\":4832:4866   */\n          tag_32\n          jump\t// in\n        tag_98:\n            /* \"#utility.yul\":4814:4867   */\n          tag_31\n          jump\t// in\n        tag_97:\n            /* \"#utility.yul\":4801:4867   */\n          swap1\n          pop\n            /* \"#utility.yul\":4731:4873   */\n          swap2\n          swap1\n          pop\n          jump\t// out\n            /* \"#utility.yul\":4879:4954   */\n        tag_34:\n            /* \"#utility.yul\":4922:4925   */\n          0x00\n            /* \"#utility.yul\":4943:4948   */\n          dup2\n            /* \"#utility.yul\":4936:4948   */\n          swap1\n          pop\n            /* \"#utility.yul\":4879:4954   */\n          swap2\n          swap1\n          pop\n          jump\t// out\n            /* \"#utility.yul\":4960:5229   */\n        tag_35:\n            /* \"#utility.yul\":5070:5109   */\n          tag_102\n            /* \"#utility.yul\":5101:5108   */\n          dup4\n            /* \"#utility.yul\":5070:5109   */\n          tag_33\n          jump\t// in\n        tag_102:\n            /* \"#utility.yul\":5131:5222   */\n          tag_103\n            /* \"#utility.yul\":5180:5221   */\n          tag_104\n            /* \"#utility.yul\":5204:5220   */\n          dup3\n            /* \"#utility.yul\":5180:5221   */\n          tag_34\n          jump\t// in\n        tag_104:\n            /* \"#utility.yul\":5172:5178   */\n          dup5\n            /* \"#utility.yul\":5165:5169   */\n          dup5\n            /* \"#utility.yul\":5159:5170   */\n          sload\n            /* \"#utility.yul\":5131:5222   */\n          tag_30\n          jump\t// in\n        tag_103:\n            /* \"#utility.yul\":5125:5129   */\n          dup3\n            /* \"#utility.yul\":5118:5223   */\n          sstore\n            /* \"#utility.yul\":5036:5229   */\n          pop\n            /* \"#utility.yul\":4960:5229   */\n          pop\n          pop\n          pop\n          jump\t// out\n            /* \"#utility.yul\":5235:5308   */\n        tag_36:\n            /* \"#utility.yul\":5280:5283   */\n          0x00\n            /* \"#utility.yul\":5235:5308   */\n          swap1\n          jump\t// out\n            /* \"#utility.yul\":5314:5503   */\n        tag_37:\n            /* \"#utility.yul\":5391:5423   */\n          tag_107\n          tag_36\n          jump\t// in\n        tag_107:\n            /* \"#utility.yul\":5432:5497   */\n          tag_108\n            /* \"#utility.yul\":5490:5496   */\n          dup2\n            /* \"#utility.yul\":5482:5488   */\n          dup5\n            /* \"#utility.yul\":5476:5480   */\n          dup5\n            /* \"#utility.yul\":5432:5497   */\n          tag_35\n          jump\t// in\n        tag_108:\n            /* \"#utility.yul\":5367:5503   */\n          pop\n            /* \"#utility.yul\":5314:5503   */\n          pop\n          pop\n          jump\t// out\n            /* \"#utility.yul\":5509:5695   */\n        tag_38:\n            /* \"#utility.yul\":5569:5689   */\n        tag_110:\n            /* \"#utility.yul\":5586:5589   */\n          dup2\n            /* \"#utility.yul\":5579:5584   */\n          dup2\n            /* \"#utility.yul\":5576:5590   */\n          lt\n            /* \"#utility.yul\":5569:5689   */\n          iszero\n          tag_112\n          jumpi\n            /* \"#utility.yul\":5640:5679   */\n          tag_113\n            /* \"#utility.yul\":5677:5678   */\n          0x00\n            /* \"#utility.yul\":5670:5675   */\n          dup3\n            /* \"#utility.yul\":5640:5679   */\n          tag_37\n          jump\t// in\n        tag_113:\n            /* \"#utility.yul\":5613:5614   */\n          0x01\n            /* \"#utility.yul\":5606:5611   */\n          dup2\n            /* \"#utility.yul\":5602:5615   */\n          add\n            /* \"#utility.yul\":5593:5615   */\n          swap1\n          pop\n            /* \"#utility.yul\":5569:5689   */\n          jump(tag_110)\n        tag_112:\n            /* \"#utility.yul\":5509:5695   */\n          pop\n          pop\n          jump\t// out\n            /* \"#utility.yul\":5701:6244   */\n        tag_39:\n            /* \"#utility.yul\":5802:5804   */\n          0x1f\n            /* \"#utility.yul\":5797:5800   */\n          dup3\n            /* \"#utility.yul\":5794:5805   */\n          gt\n            /* \"#utility.yul\":5791:6237   */\n          iszero\n          tag_115\n          jumpi\n            /* \"#utility.yul\":5836:5874   */\n          tag_116\n            /* \"#utility.yul\":5868:5873   */\n          dup2\n            /* \"#utility.yul\":5836:5874   */\n          tag_27\n          jump\t// in\n        tag_116:\n            /* \"#utility.yul\":5920:5949   */\n          tag_117\n            /* \"#utility.yul\":5938:5948   */\n          dup5\n            /* \"#utility.yul\":5920:5949   */\n          tag_28\n          jump\t// in\n        tag_117:\n            /* \"#utility.yul\":5910:5918   */\n          dup2\n            /* \"#utility.yul\":5906:5950   */\n          add\n            /* \"#utility.yul\":6103:6105   */\n          0x20\n            /* \"#utility.yul\":6091:6101   */\n          dup6\n            /* \"#utility.yul\":6088:6106   */\n          lt\n            /* \"#utility.yul\":6085:6134   */\n          iszero\n          tag_118\n          jumpi\n            /* \"#utility.yul\":6124:6132   */\n          dup2\n            /* \"#utility.yul\":6109:6132   */\n          swap1\n          pop\n            /* \"#utility.yul\":6085:6134   */\n        tag_118:\n            /* \"#utility.yul\":6147:6227   */\n          tag_119\n            /* \"#utility.yul\":6203:6225   */\n          tag_120\n            /* \"#utility.yul\":6221:6224   */\n          dup6\n            /* \"#utility.yul\":6203:6225   */\n          tag_28\n          jump\t// in\n        tag_120:\n            /* \"#utility.yul\":6193:6201   */\n          dup4\n            /* \"#utility.yul\":6189:6226   */\n          add\n            /* \"#utility.yul\":6176:6187   */\n          dup3\n            /* \"#utility.yul\":6147:6227   */\n          tag_38\n          jump\t// in\n        tag_119:\n            /* \"#utility.yul\":5806:6237   */\n          pop\n          pop\n            /* \"#utility.yul\":5791:6237   */\n        tag_115:\n            /* \"#utility.yul\":5701:6244   */\n          pop\n          pop\n          pop\n          jump\t// out\n            /* \"#utility.yul\":6250:6367   */\n        tag_40:\n            /* \"#utility.yul\":6304:6312   */\n          0x00\n            /* \"#utility.yul\":6354:6359   */\n          dup3\n            /* \"#utility.yul\":6348:6352   */\n          dup3\n            /* \"#utility.yul\":6344:6360   */\n          shr\n            /* \"#utility.yul\":6323:6360   */\n          swap1\n          pop\n            /* \"#utility.yul\":6250:6367   */\n          swap3\n          swap2\n          pop\n          pop\n          jump\t// out\n            /* \"#utility.yul\":6373:6542   */\n        tag_41:\n            /* \"#utility.yul\":6417:6423   */\n          0x00\n            /* \"#utility.yul\":6450:6501   */\n          tag_123\n            /* \"#utility.yul\":6498:6499   */\n          0x00\n            /* \"#utility.yul\":6494:6500   */\n          not\n            /* \"#utility.yul\":6486:6491   */\n          dup5\n            /* \"#utility.yul\":6483:6484   */\n          0x08\n            /* \"#utility.yul\":6479:6492   */\n          mul\n            /* \"#utility.yul\":6450:6501   */\n          tag_40\n          jump\t// in\n        tag_123:\n            /* \"#utility.yul\":6446:6502   */\n          not\n            /* \"#utility.yul\":6531:6535   */\n          dup1\n            /* \"#utility.yul\":6525:6529   */\n          dup4\n            /* \"#utility.yul\":6521:6536   */\n          and\n            /* \"#utility.yul\":6511:6536   */\n          swap2\n          pop\n            /* \"#utility.yul\":6424:6542   */\n          pop\n            /* \"#utility.yul\":6373:6542   */\n          swap3\n          swap2\n          pop\n          pop\n          jump\t// out\n            /* \"#utility.yul\":6547:6842   */\n        tag_42:\n            /* \"#utility.yul\":6623:6627   */\n          0x00\n            /* \"#utility.yul\":6769:6798   */\n          tag_125\n            /* \"#utility.yul\":6794:6797   */\n          dup4\n            /* \"#utility.yul\":6788:6792   */\n          dup4\n            /* \"#utility.yul\":6769:6798   */\n          tag_41\n          jump\t// in\n        tag_125:\n            /* \"#utility.yul\":6761:6798   */\n          swap2\n          pop\n            /* \"#utility.yul\":6831:6834   */\n          dup3\n            /* \"#utility.yul\":6828:6829   */\n          0x02\n            /* \"#utility.yul\":6824:6835   */\n          mul\n            /* \"#utility.yul\":6818:6822   */\n          dup3\n            /* \"#utility.yul\":6815:6836   */\n          or\n            /* \"#utility.yul\":6807:6836   */\n          swap1\n          pop\n            /* \"#utility.yul\":6547:6842   */\n          swap3\n          swap2\n          pop\n          pop\n          jump\t// out\n            /* \"#utility.yul\":6847:8242   */\n        tag_9:\n            /* \"#utility.yul\":6964:7001   */\n          tag_127\n            /* \"#utility.yul\":6997:7000   */\n          dup3\n            /* \"#utility.yul\":6964:7001   */\n          tag_24\n          jump\t// in\n        tag_127:\n            /* \"#utility.yul\":7066:7084   */\n          0xffffffffffffffff\n            /* \"#utility.yul\":7058:7064   */\n          dup2\n            /* \"#utility.yul\":7055:7085   */\n          gt\n            /* \"#utility.yul\":7052:7108   */\n          iszero\n          tag_128\n          jumpi\n            /* \"#utility.yul\":7088:7106   */\n          tag_129\n          tag_17\n          jump\t// in\n        tag_129:\n            /* \"#utility.yul\":7052:7108   */\n        tag_128:\n            /* \"#utility.yul\":7132:7170   */\n          tag_130\n            /* \"#utility.yul\":7164:7168   */\n          dup3\n            /* \"#utility.yul\":7158:7169   */\n          sload\n            /* \"#utility.yul\":7132:7170   */\n          tag_26\n          jump\t// in\n        tag_130:\n            /* \"#utility.yul\":7217:7284   */\n          tag_131\n            /* \"#utility.yul\":7277:7283   */\n          dup3\n            /* \"#utility.yul\":7269:7275   */\n          dup3\n            /* \"#utility.yul\":7263:7267   */\n          dup6\n            /* \"#utility.yul\":7217:7284   */\n          tag_39\n          jump\t// in\n        tag_131:\n            /* \"#utility.yul\":7311:7312   */\n          0x00\n            /* \"#utility.yul\":7335:7339   */\n          0x20\n            /* \"#utility.yul\":7322:7339   */\n          swap1\n          pop\n            /* \"#utility.yul\":7367:7369   */\n          0x1f\n            /* \"#utility.yul\":7359:7365   */\n          dup4\n            /* \"#utility.yul\":7356:7370   */\n          gt\n            /* \"#utility.yul\":7384:7385   */\n          0x01\n            /* \"#utility.yul\":7379:7997   */\n          dup2\n          eq\n          tag_133\n          jumpi\n            /* \"#utility.yul\":8041:8042   */\n          0x00\n            /* \"#utility.yul\":8058:8064   */\n          dup5\n            /* \"#utility.yul\":8055:8132   */\n          iszero\n          tag_134\n          jumpi\n            /* \"#utility.yul\":8107:8116   */\n          dup3\n            /* \"#utility.yul\":8102:8105   */\n          dup8\n            /* \"#utility.yul\":8098:8117   */\n          add\n            /* \"#utility.yul\":8092:8118   */\n          mload\n            /* \"#utility.yul\":8083:8118   */\n          swap1\n          pop\n            /* \"#utility.yul\":8055:8132   */\n        tag_134:\n            /* \"#utility.yul\":8158:8225   */\n          tag_135\n            /* \"#utility.yul\":8218:8224   */\n          dup6\n            /* \"#utility.yul\":8211:8216   */\n          dup3\n            /* \"#utility.yul\":8158:8225   */\n          tag_42\n          jump\t// in\n        tag_135:\n            /* \"#utility.yul\":8152:8156   */\n          dup7\n            /* \"#utility.yul\":8145:8226   */\n          sstore\n            /* \"#utility.yul\":8014:8236   */\n          pop\n            /* \"#utility.yul\":7349:8236   */\n          jump(tag_132)\n            /* \"#utility.yul\":7379:7997   */\n        tag_133:\n            /* \"#utility.yul\":7431:7435   */\n          0x1f\n            /* \"#utility.yul\":7427:7436   */\n          not\n            /* \"#utility.yul\":7419:7425   */\n          dup5\n            /* \"#utility.yul\":7415:7437   */\n          and\n            /* \"#utility.yul\":7465:7502   */\n          tag_136\n            /* \"#utility.yul\":7497:7501   */\n          dup7\n            /* \"#utility.yul\":7465:7502   */\n          tag_27\n          jump\t// in\n        tag_136:\n            /* \"#utility.yul\":7524:7525   */\n          0x00\n            /* \"#utility.yul\":7538:7746   */\n        tag_137:\n            /* \"#utility.yul\":7552:7559   */\n          dup3\n            /* \"#utility.yul\":7549:7550   */\n          dup2\n            /* \"#utility.yul\":7546:7560   */\n          lt\n            /* \"#utility.yul\":7538:7746   */\n          iszero\n          tag_139\n          jumpi\n            /* \"#utility.yul\":7631:7640   */\n          dup5\n            /* \"#utility.yul\":7626:7629   */\n          dup10\n            /* \"#utility.yul\":7622:7641   */\n          add\n            /* \"#utility.yul\":7616:7642   */\n          mload\n            /* \"#utility.yul\":7608:7614   */\n          dup3\n            /* \"#utility.yul\":7601:7643   */\n          sstore\n            /* \"#utility.yul\":7682:7683   */\n          0x01\n            /* \"#utility.yul\":7674:7680   */\n          dup3\n            /* \"#utility.yul\":7670:7684   */\n          add\n            /* \"#utility.yul\":7660:7684   */\n          swap2\n          pop\n            /* \"#utility.yul\":7729:7731   */\n          0x20\n            /* \"#utility.yul\":7718:7727   */\n          dup6\n            /* \"#utility.yul\":7714:7732   */\n          add\n            /* \"#utility.yul\":7701:7732   */\n          swap5\n          pop\n            /* \"#utility.yul\":7575:7579   */\n          0x20\n            /* \"#utility.yul\":7572:7573   */\n          dup2\n            /* \"#utility.yul\":7568:7580   */\n          add\n            /* \"#utility.yul\":7563:7580   */\n          swap1\n          pop\n            /* \"#utility.yul\":7538:7746   */\n          jump(tag_137)\n        tag_139:\n            /* \"#utility.yul\":7774:7780   */\n          dup7\n            /* \"#utility.yul\":7765:7772   */\n          dup4\n            /* \"#utility.yul\":7762:7781   */\n          lt\n            /* \"#utility.yul\":7759:7938   */\n          iszero\n          tag_140\n          jumpi\n            /* \"#utility.yul\":7832:7841   */\n          dup5\n            /* \"#utility.yul\":7827:7830   */\n          dup10\n            /* \"#utility.yul\":7823:7842   */\n          add\n            /* \"#utility.yul\":7817:7843   */\n          mload\n            /* \"#utility.yul\":7875:7923   */\n          tag_141\n            /* \"#utility.yul\":7917:7921   */\n          0x1f\n            /* \"#utility.yul\":7909:7915   */\n          dup10\n            /* \"#utility.yul\":7905:7922   */\n          and\n            /* \"#utility.yul\":7894:7903   */\n          dup3\n            /* \"#utility.yul\":7875:7923   */\n          tag_41\n          jump\t// in\n        tag_141:\n            /* \"#utility.yul\":7867:7873   */\n          dup4\n            /* \"#utility.yul\":7860:7924   */\n          sstore\n            /* \"#utility.yul\":7782:7938   */\n          pop\n            /* \"#utility.yul\":7759:7938   */\n        tag_140:\n            /* \"#utility.yul\":7984:7985   */\n          0x01\n            /* \"#utility.yul\":7980:7981   */\n          0x02\n            /* \"#utility.yul\":7972:7978   */\n          dup9\n            /* \"#utility.yul\":7968:7982   */\n          mul\n            /* \"#utility.yul\":7964:7986   */\n          add\n            /* \"#utility.yul\":7958:7962   */\n          dup9\n            /* \"#utility.yul\":7951:7987   */\n          sstore\n            /* \"#utility.yul\":7386:7997   */\n          pop\n          pop\n          pop\n            /* \"#utility.yul\":7349:8236   */\n        tag_132:\n          pop\n            /* \"#utility.yul\":6939:8242   */\n          pop\n          pop\n          pop\n            /* \"#utility.yul\":6847:8242   */\n          pop\n          pop\n          jump\t// out\n            /* \"Nik_MD_project4.sol\":576:912  contract StringRecord is Record {... */\n        tag_10:\n          dataSize(sub_0)\n          dup1\n          dataOffset(sub_0)\n          0x00\n          codecopy\n          0x00\n          return\n        stop\n\n        sub_0: assembly {\n                /* \"Nik_MD_project4.sol\":576:912  contract StringRecord is Record {... */\n              mstore(0x40, 0x80)\n              callvalue\n              dup1\n              iszero\n              tag_1\n              jumpi\n              0x00\n              dup1\n              revert\n            tag_1:\n              pop\n              jumpi(tag_2, lt(calldatasize, 0x04))\n              shr(0xe0, calldataload(0x00))\n              dup1\n              0x0781f5c9\n              eq\n              tag_3\n              jumpi\n              dup1\n              0x1dcd69ec\n              eq\n              tag_4\n              jumpi\n              dup1\n              0x266cf109\n              eq\n              tag_5\n              jumpi\n              dup1\n              0x3e0a0099\n              eq\n              tag_6\n              jumpi\n            tag_2:\n              0x00\n              dup1\n              revert\n                /* \"Nik_MD_project4.sol\":722:817  function getRecordType() public pure returns (string memory) {... */\n            tag_3:\n              tag_7\n              tag_8\n              jump\t// in\n            tag_7:\n              mload(0x40)\n              tag_9\n              swap2\n              swap1\n              tag_10\n              jump\t// in\n            tag_9:\n              mload(0x40)\n              dup1\n              swap2\n              sub\n              swap1\n              return\n                /* \"Nik_MD_project4.sol\":91:117  uint public timeOfCreation */\n            tag_4:\n              tag_11\n              tag_12\n              jump\t// in\n            tag_11:\n              mload(0x40)\n              tag_13\n              swap2\n              swap1\n              tag_14\n              jump\t// in\n            tag_13:\n              mload(0x40)\n              dup1\n              swap2\n              sub\n              swap1\n              return\n                /* \"Nik_MD_project4.sol\":615:635  string public record */\n            tag_5:\n              tag_15\n              tag_16\n              jump\t// in\n            tag_15:\n              mload(0x40)\n              tag_17\n              swap2\n              swap1\n              tag_10\n              jump\t// in\n            tag_17:\n              mload(0x40)\n              dup1\n              swap2\n              sub\n              swap1\n              return\n                /* \"Nik_MD_project4.sol\":825:909  function setRecord(string memory _record) public {... */\n            tag_6:\n              tag_18\n              0x04\n              dup1\n              calldatasize\n              sub\n              dup2\n              add\n              swap1\n              tag_19\n              swap2\n              swap1\n              tag_20\n              jump\t// in\n            tag_19:\n              tag_21\n              jump\t// in\n            tag_18:\n              stop\n                /* \"Nik_MD_project4.sol\":722:817  function getRecordType() public pure returns (string memory) {... */\n            tag_8:\n                /* \"Nik_MD_project4.sol\":768:781  string memory */\n              0x60\n                /* \"Nik_MD_project4.sol\":794:809  return \"string\" */\n              mload(0x40)\n              dup1\n              0x40\n              add\n              0x40\n              mstore\n              dup1\n              0x06\n              dup2\n              mstore\n              0x20\n              add\n              0x737472696e670000000000000000000000000000000000000000000000000000\n              dup2\n              mstore\n              pop\n              swap1\n              pop\n                /* \"Nik_MD_project4.sol\":722:817  function getRecordType() public pure returns (string memory) {... */\n              swap1\n              jump\t// out\n                /* \"Nik_MD_project4.sol\":91:117  uint public timeOfCreation */\n            tag_12:\n              sload(0x00)\n              dup2\n              jump\t// out\n                /* \"Nik_MD_project4.sol\":615:635  string public record */\n            tag_16:\n              0x01\n              dup1\n              sload\n              tag_23\n              swap1\n              tag_24\n              jump\t// in\n            tag_23:\n              dup1\n              0x1f\n              add\n              0x20\n              dup1\n              swap2\n              div\n              mul\n              0x20\n              add\n              mload(0x40)\n              swap1\n              dup2\n              add\n              0x40\n              mstore\n              dup1\n              swap3\n              swap2\n              swap1\n              dup2\n              dup2\n              mstore\n              0x20\n              add\n              dup3\n              dup1\n              sload\n              tag_25\n              swap1\n              tag_24\n              jump\t// in\n            tag_25:\n              dup1\n              iszero\n              tag_26\n              jumpi\n              dup1\n              0x1f\n              lt\n              tag_27\n              jumpi\n              0x0100\n              dup1\n              dup4\n              sload\n              div\n              mul\n              dup4\n              mstore\n              swap2\n              0x20\n              add\n              swap2\n              jump(tag_26)\n            tag_27:\n              dup3\n              add\n              swap2\n              swap1\n              0x00\n              mstore\n              keccak256(0x00, 0x20)\n              swap1\n            tag_28:\n              dup2\n              sload\n              dup2\n              mstore\n              swap1\n              0x01\n              add\n              swap1\n              0x20\n              add\n              dup1\n              dup4\n              gt\n              tag_28\n              jumpi\n              dup3\n              swap1\n              sub\n              0x1f\n              and\n              dup3\n              add\n              swap2\n            tag_26:\n              pop\n              pop\n              pop\n              pop\n              pop\n              dup2\n              jump\t// out\n                /* \"Nik_MD_project4.sol\":825:909  function setRecord(string memory _record) public {... */\n            tag_21:\n                /* \"Nik_MD_project4.sol\":894:901  _record */\n              dup1\n                /* \"Nik_MD_project4.sol\":885:891  record */\n              0x01\n                /* \"Nik_MD_project4.sol\":885:901  record = _record */\n              swap1\n              dup2\n              tag_30\n              swap2\n              swap1\n              tag_31\n              jump\t// in\n            tag_30:\n              pop\n                /* \"Nik_MD_project4.sol\":825:909  function setRecord(string memory _record) public {... */\n              pop\n              jump\t// out\n                /* \"#utility.yul\":7:106   */\n            tag_32:\n                /* \"#utility.yul\":59:65   */\n              0x00\n                /* \"#utility.yul\":93:98   */\n              dup2\n                /* \"#utility.yul\":87:99   */\n              mload\n                /* \"#utility.yul\":77:99   */\n              swap1\n              pop\n                /* \"#utility.yul\":7:106   */\n              swap2\n              swap1\n              pop\n              jump\t// out\n                /* \"#utility.yul\":112:281   */\n            tag_33:\n                /* \"#utility.yul\":196:207   */\n              0x00\n                /* \"#utility.yul\":230:236   */\n              dup3\n                /* \"#utility.yul\":225:228   */\n              dup3\n                /* \"#utility.yul\":218:237   */\n              mstore\n                /* \"#utility.yul\":270:274   */\n              0x20\n                /* \"#utility.yul\":265:268   */\n              dup3\n                /* \"#utility.yul\":261:275   */\n              add\n                /* \"#utility.yul\":246:275   */\n              swap1\n              pop\n                /* \"#utility.yul\":112:281   */\n              swap3\n              swap2\n              pop\n              pop\n              jump\t// out\n                /* \"#utility.yul\":287:533   */\n            tag_34:\n                /* \"#utility.yul\":368:369   */\n              0x00\n                /* \"#utility.yul\":378:491   */\n            tag_71:\n                /* \"#utility.yul\":392:398   */\n              dup4\n                /* \"#utility.yul\":389:390   */\n              dup2\n                /* \"#utility.yul\":386:399   */\n              lt\n                /* \"#utility.yul\":378:491   */\n              iszero\n              tag_73\n              jumpi\n                /* \"#utility.yul\":477:478   */\n              dup1\n                /* \"#utility.yul\":472:475   */\n              dup3\n                /* \"#utility.yul\":468:479   */\n              add\n                /* \"#utility.yul\":462:480   */\n              mload\n                /* \"#utility.yul\":458:459   */\n              dup2\n                /* \"#utility.yul\":453:456   */\n              dup5\n                /* \"#utility.yul\":449:460   */\n              add\n                /* \"#utility.yul\":442:481   */\n              mstore\n                /* \"#utility.yul\":414:416   */\n              0x20\n                /* \"#utility.yul\":411:412   */\n              dup2\n                /* \"#utility.yul\":407:417   */\n              add\n                /* \"#utility.yul\":402:417   */\n              swap1\n              pop\n                /* \"#utility.yul\":378:491   */\n              jump(tag_71)\n            tag_73:\n                /* \"#utility.yul\":525:526   */\n              0x00\n                /* \"#utility.yul\":516:522   */\n              dup5\n                /* \"#utility.yul\":511:514   */\n              dup5\n                /* \"#utility.yul\":507:523   */\n              add\n                /* \"#utility.yul\":500:527   */\n              mstore\n                /* \"#utility.yul\":349:533   */\n              pop\n                /* \"#utility.yul\":287:533   */\n              pop\n              pop\n              pop\n              jump\t// out\n                /* \"#utility.yul\":539:641   */\n            tag_35:\n                /* \"#utility.yul\":580:586   */\n              0x00\n                /* \"#utility.yul\":631:633   */\n              0x1f\n                /* \"#utility.yul\":627:634   */\n              not\n                /* \"#utility.yul\":622:624   */\n              0x1f\n                /* \"#utility.yul\":615:620   */\n              dup4\n                /* \"#utility.yul\":611:625   */\n              add\n                /* \"#utility.yul\":607:635   */\n              and\n                /* \"#utility.yul\":597:635   */\n              swap1\n              pop\n                /* \"#utility.yul\":539:641   */\n              swap2\n              swap1\n              pop\n              jump\t// out\n                /* \"#utility.yul\":647:1024   */\n            tag_36:\n                /* \"#utility.yul\":735:738   */\n              0x00\n                /* \"#utility.yul\":763:802   */\n              tag_76\n                /* \"#utility.yul\":796:801   */\n              dup3\n                /* \"#utility.yul\":763:802   */\n              tag_32\n              jump\t// in\n            tag_76:\n                /* \"#utility.yul\":818:889   */\n              tag_77\n                /* \"#utility.yul\":882:888   */\n              dup2\n                /* \"#utility.yul\":877:880   */\n              dup6\n                /* \"#utility.yul\":818:889   */\n              tag_33\n              jump\t// in\n            tag_77:\n                /* \"#utility.yul\":811:889   */\n              swap4\n              pop\n                /* \"#utility.yul\":898:963   */\n              tag_78\n                /* \"#utility.yul\":956:962   */\n              dup2\n                /* \"#utility.yul\":951:954   */\n              dup6\n                /* \"#utility.yul\":944:948   */\n              0x20\n                /* \"#utility.yul\":937:942   */\n              dup7\n                /* \"#utility.yul\":933:949   */\n              add\n                /* \"#utility.yul\":898:963   */\n              tag_34\n              jump\t// in\n            tag_78:\n                /* \"#utility.yul\":988:1017   */\n              tag_79\n                /* \"#utility.yul\":1010:1016   */\n              dup2\n                /* \"#utility.yul\":988:1017   */\n              tag_35\n              jump\t// in\n            tag_79:\n                /* \"#utility.yul\":983:986   */\n              dup5\n                /* \"#utility.yul\":979:1018   */\n              add\n                /* \"#utility.yul\":972:1018   */\n              swap2\n              pop\n                /* \"#utility.yul\":739:1024   */\n              pop\n                /* \"#utility.yul\":647:1024   */\n              swap3\n              swap2\n              pop\n              pop\n              jump\t// out\n                /* \"#utility.yul\":1030:1343   */\n            tag_10:\n                /* \"#utility.yul\":1143:1147   */\n              0x00\n                /* \"#utility.yul\":1181:1183   */\n              0x20\n                /* \"#utility.yul\":1170:1179   */\n              dup3\n                /* \"#utility.yul\":1166:1184   */\n              add\n                /* \"#utility.yul\":1158:1184   */\n              swap1\n              pop\n                /* \"#utility.yul\":1230:1239   */\n              dup2\n                /* \"#utility.yul\":1224:1228   */\n              dup2\n                /* \"#utility.yul\":1220:1240   */\n              sub\n                /* \"#utility.yul\":1216:1217   */\n              0x00\n                /* \"#utility.yul\":1205:1214   */\n              dup4\n                /* \"#utility.yul\":1201:1218   */\n              add\n                /* \"#utility.yul\":1194:1241   */\n              mstore\n                /* \"#utility.yul\":1258:1336   */\n              tag_81\n                /* \"#utility.yul\":1331:1335   */\n              dup2\n                /* \"#utility.yul\":1322:1328   */\n              dup5\n                /* \"#utility.yul\":1258:1336   */\n              tag_36\n              jump\t// in\n            tag_81:\n                /* \"#utility.yul\":1250:1336   */\n              swap1\n              pop\n                /* \"#utility.yul\":1030:1343   */\n              swap3\n              swap2\n              pop\n              pop\n              jump\t// out\n                /* \"#utility.yul\":1349:1426   */\n            tag_37:\n                /* \"#utility.yul\":1386:1393   */\n              0x00\n                /* \"#utility.yul\":1415:1420   */\n              dup2\n                /* \"#utility.yul\":1404:1420   */\n              swap1\n              pop\n                /* \"#utility.yul\":1349:1426   */\n              swap2\n              swap1\n              pop\n              jump\t// out\n                /* \"#utility.yul\":1432:1550   */\n            tag_38:\n                /* \"#utility.yul\":1519:1543   */\n              tag_84\n                /* \"#utility.yul\":1537:1542   */\n              dup2\n                /* \"#utility.yul\":1519:1543   */\n              tag_37\n              jump\t// in\n            tag_84:\n                /* \"#utility.yul\":1514:1517   */\n              dup3\n                /* \"#utility.yul\":1507:1544   */\n              mstore\n                /* \"#utility.yul\":1432:1550   */\n              pop\n              pop\n              jump\t// out\n                /* \"#utility.yul\":1556:1778   */\n            tag_14:\n                /* \"#utility.yul\":1649:1653   */\n              0x00\n                /* \"#utility.yul\":1687:1689   */\n              0x20\n                /* \"#utility.yul\":1676:1685   */\n              dup3\n                /* \"#utility.yul\":1672:1690   */\n              add\n                /* \"#utility.yul\":1664:1690   */\n              swap1\n              pop\n                /* \"#utility.yul\":1700:1771   */\n              tag_86\n                /* \"#utility.yul\":1768:1769   */\n              0x00\n                /* \"#utility.yul\":1757:1766   */\n              dup4\n                /* \"#utility.yul\":1753:1770   */\n              add\n                /* \"#utility.yul\":1744:1750   */\n              dup5\n                /* \"#utility.yul\":1700:1771   */\n              tag_38\n              jump\t// in\n            tag_86:\n                /* \"#utility.yul\":1556:1778   */\n              swap3\n              swap2\n              pop\n              pop\n              jump\t// out\n                /* \"#utility.yul\":1784:1859   */\n            tag_39:\n                /* \"#utility.yul\":1817:1823   */\n              0x00\n                /* \"#utility.yul\":1850:1852   */\n              0x40\n                /* \"#utility.yul\":1844:1853   */\n              mload\n                /* \"#utility.yul\":1834:1853   */\n              swap1\n              pop\n                /* \"#utility.yul\":1784:1859   */\n              swap1\n              jump\t// out\n                /* \"#utility.yul\":1865:1982   */\n            tag_40:\n                /* \"#utility.yul\":1974:1975   */\n              0x00\n                /* \"#utility.yul\":1971:1972   */\n              dup1\n                /* \"#utility.yul\":1964:1976   */\n              revert\n                /* \"#utility.yul\":1988:2105   */\n            tag_41:\n                /* \"#utility.yul\":2097:2098   */\n              0x00\n                /* \"#utility.yul\":2094:2095   */\n              dup1\n                /* \"#utility.yul\":2087:2099   */\n              revert\n                /* \"#utility.yul\":2111:2228   */\n            tag_42:\n                /* \"#utility.yul\":2220:2221   */\n              0x00\n                /* \"#utility.yul\":2217:2218   */\n              dup1\n                /* \"#utility.yul\":2210:2222   */\n              revert\n                /* \"#utility.yul\":2234:2351   */\n            tag_43:\n                /* \"#utility.yul\":2343:2344   */\n              0x00\n                /* \"#utility.yul\":2340:2341   */\n              dup1\n                /* \"#utility.yul\":2333:2345   */\n              revert\n                /* \"#utility.yul\":2357:2537   */\n            tag_44:\n                /* \"#utility.yul\":2405:2482   */\n              0x4e487b7100000000000000000000000000000000000000000000000000000000\n                /* \"#utility.yul\":2402:2403   */\n              0x00\n                /* \"#utility.yul\":2395:2483   */\n              mstore\n                /* \"#utility.yul\":2502:2506   */\n              0x41\n                /* \"#utility.yul\":2499:2500   */\n              0x04\n                /* \"#utility.yul\":2492:2507   */\n              mstore\n                /* \"#utility.yul\":2526:2530   */\n              0x24\n                /* \"#utility.yul\":2523:2524   */\n              0x00\n                /* \"#utility.yul\":2516:2531   */\n              revert\n                /* \"#utility.yul\":2543:2824   */\n            tag_45:\n                /* \"#utility.yul\":2626:2653   */\n              tag_94\n                /* \"#utility.yul\":2648:2652   */\n              dup3\n                /* \"#utility.yul\":2626:2653   */\n              tag_35\n              jump\t// in\n            tag_94:\n                /* \"#utility.yul\":2618:2624   */\n              dup2\n                /* \"#utility.yul\":2614:2654   */\n              add\n                /* \"#utility.yul\":2756:2762   */\n              dup2\n                /* \"#utility.yul\":2744:2754   */\n              dup2\n                /* \"#utility.yul\":2741:2763   */\n              lt\n                /* \"#utility.yul\":2720:2738   */\n              0xffffffffffffffff\n                /* \"#utility.yul\":2708:2718   */\n              dup3\n                /* \"#utility.yul\":2705:2739   */\n              gt\n                /* \"#utility.yul\":2702:2764   */\n              or\n                /* \"#utility.yul\":2699:2787   */\n              iszero\n              tag_95\n              jumpi\n                /* \"#utility.yul\":2767:2785   */\n              tag_96\n              tag_44\n              jump\t// in\n            tag_96:\n                /* \"#utility.yul\":2699:2787   */\n            tag_95:\n                /* \"#utility.yul\":2807:2817   */\n              dup1\n                /* \"#utility.yul\":2803:2805   */\n              0x40\n                /* \"#utility.yul\":2796:2818   */\n              mstore\n                /* \"#utility.yul\":2586:2824   */\n              pop\n                /* \"#utility.yul\":2543:2824   */\n              pop\n              pop\n              jump\t// out\n                /* \"#utility.yul\":2830:2959   */\n            tag_46:\n                /* \"#utility.yul\":2864:2870   */\n              0x00\n                /* \"#utility.yul\":2891:2911   */\n              tag_98\n              tag_39\n              jump\t// in\n            tag_98:\n                /* \"#utility.yul\":2881:2911   */\n              swap1\n              pop\n                /* \"#utility.yul\":2920:2953   */\n              tag_99\n                /* \"#utility.yul\":2948:2952   */\n              dup3\n                /* \"#utility.yul\":2940:2946   */\n              dup3\n                /* \"#utility.yul\":2920:2953   */\n              tag_45\n              jump\t// in\n            tag_99:\n                /* \"#utility.yul\":2830:2959   */\n              swap2\n              swap1\n              pop\n              jump\t// out\n                /* \"#utility.yul\":2965:3273   */\n            tag_47:\n                /* \"#utility.yul\":3027:3031   */\n              0x00\n                /* \"#utility.yul\":3117:3135   */\n              0xffffffffffffffff\n                /* \"#utility.yul\":3109:3115   */\n              dup3\n                /* \"#utility.yul\":3106:3136   */\n              gt\n                /* \"#utility.yul\":3103:3159   */\n              iszero\n              tag_101\n              jumpi\n                /* \"#utility.yul\":3139:3157   */\n              tag_102\n              tag_44\n              jump\t// in\n            tag_102:\n                /* \"#utility.yul\":3103:3159   */\n            tag_101:\n                /* \"#utility.yul\":3177:3206   */\n              tag_103\n                /* \"#utility.yul\":3199:3205   */\n              dup3\n                /* \"#utility.yul\":3177:3206   */\n              tag_35\n              jump\t// in\n            tag_103:\n                /* \"#utility.yul\":3169:3206   */\n              swap1\n              pop\n                /* \"#utility.yul\":3261:3265   */\n              0x20\n                /* \"#utility.yul\":3255:3259   */\n              dup2\n                /* \"#utility.yul\":3251:3266   */\n              add\n                /* \"#utility.yul\":3243:3266   */\n              swap1\n              pop\n                /* \"#utility.yul\":2965:3273   */\n              swap2\n              swap1\n              pop\n              jump\t// out\n                /* \"#utility.yul\":3279:3425   */\n            tag_48:\n                /* \"#utility.yul\":3376:3382   */\n              dup3\n                /* \"#utility.yul\":3371:3374   */\n              dup2\n                /* \"#utility.yul\":3366:3369   */\n              dup4\n                /* \"#utility.yul\":3353:3383   */\n              calldatacopy\n                /* \"#utility.yul\":3417:3418   */\n              0x00\n                /* \"#utility.yul\":3408:3414   */\n              dup4\n                /* \"#utility.yul\":3403:3406   */\n              dup4\n                /* \"#utility.yul\":3399:3415   */\n              add\n                /* \"#utility.yul\":3392:3419   */\n              mstore\n                /* \"#utility.yul\":3279:3425   */\n              pop\n              pop\n              pop\n              jump\t// out\n                /* \"#utility.yul\":3431:3856   */\n            tag_49:\n                /* \"#utility.yul\":3509:3514   */\n              0x00\n                /* \"#utility.yul\":3534:3600   */\n              tag_106\n                /* \"#utility.yul\":3550:3599   */\n              tag_107\n                /* \"#utility.yul\":3592:3598   */\n              dup5\n                /* \"#utility.yul\":3550:3599   */\n              tag_47\n              jump\t// in\n            tag_107:\n                /* \"#utility.yul\":3534:3600   */\n              tag_46\n              jump\t// in\n            tag_106:\n                /* \"#utility.yul\":3525:3600   */\n              swap1\n              pop\n                /* \"#utility.yul\":3623:3629   */\n              dup3\n                /* \"#utility.yul\":3616:3621   */\n              dup2\n                /* \"#utility.yul\":3609:3630   */\n              mstore\n                /* \"#utility.yul\":3661:3665   */\n              0x20\n                /* \"#utility.yul\":3654:3659   */\n              dup2\n                /* \"#utility.yul\":3650:3666   */\n              add\n                /* \"#utility.yul\":3699:3702   */\n              dup5\n                /* \"#utility.yul\":3690:3696   */\n              dup5\n                /* \"#utility.yul\":3685:3688   */\n              dup5\n                /* \"#utility.yul\":3681:3697   */\n              add\n                /* \"#utility.yul\":3678:3703   */\n              gt\n                /* \"#utility.yul\":3675:3787   */\n              iszero\n              tag_108\n              jumpi\n                /* \"#utility.yul\":3706:3785   */\n              tag_109\n              tag_43\n              jump\t// in\n            tag_109:\n                /* \"#utility.yul\":3675:3787   */\n            tag_108:\n                /* \"#utility.yul\":3796:3850   */\n              tag_110\n                /* \"#utility.yul\":3843:3849   */\n              dup5\n                /* \"#utility.yul\":3838:3841   */\n              dup3\n                /* \"#utility.yul\":3833:3836   */\n              dup6\n                /* \"#utility.yul\":3796:3850   */\n              tag_48\n              jump\t// in\n            tag_110:\n                /* \"#utility.yul\":3515:3856   */\n              pop\n                /* \"#utility.yul\":3431:3856   */\n              swap4\n              swap3\n              pop\n              pop\n              pop\n              jump\t// out\n                /* \"#utility.yul\":3876:4216   */\n            tag_50:\n                /* \"#utility.yul\":3932:3937   */\n              0x00\n                /* \"#utility.yul\":3981:3984   */\n              dup3\n                /* \"#utility.yul\":3974:3978   */\n              0x1f\n                /* \"#utility.yul\":3966:3972   */\n              dup4\n                /* \"#utility.yul\":3962:3979   */\n              add\n                /* \"#utility.yul\":3958:3985   */\n              slt\n                /* \"#utility.yul\":3948:4070   */\n              tag_112\n              jumpi\n                /* \"#utility.yul\":3989:4068   */\n              tag_113\n              tag_42\n              jump\t// in\n            tag_113:\n                /* \"#utility.yul\":3948:4070   */\n            tag_112:\n                /* \"#utility.yul\":4106:4112   */\n              dup2\n                /* \"#utility.yul\":4093:4113   */\n              calldataload\n                /* \"#utility.yul\":4131:4210   */\n              tag_114\n                /* \"#utility.yul\":4206:4209   */\n              dup5\n                /* \"#utility.yul\":4198:4204   */\n              dup3\n                /* \"#utility.yul\":4191:4195   */\n              0x20\n                /* \"#utility.yul\":4183:4189   */\n              dup7\n                /* \"#utility.yul\":4179:4196   */\n              add\n                /* \"#utility.yul\":4131:4210   */\n              tag_49\n              jump\t// in\n            tag_114:\n                /* \"#utility.yul\":4122:4210   */\n              swap2\n              pop\n                /* \"#utility.yul\":3938:4216   */\n              pop\n                /* \"#utility.yul\":3876:4216   */\n              swap3\n              swap2\n              pop\n              pop\n              jump\t// out\n                /* \"#utility.yul\":4222:4731   */\n            tag_20:\n                /* \"#utility.yul\":4291:4297   */\n              0x00\n                /* \"#utility.yul\":4340:4342   */\n              0x20\n                /* \"#utility.yul\":4328:4337   */\n              dup3\n                /* \"#utility.yul\":4319:4326   */\n              dup5\n                /* \"#utility.yul\":4315:4338   */\n              sub\n                /* \"#utility.yul\":4311:4343   */\n              slt\n                /* \"#utility.yul\":4308:4427   */\n              iszero\n              tag_116\n              jumpi\n                /* \"#utility.yul\":4346:4425   */\n              tag_117\n              tag_40\n              jump\t// in\n            tag_117:\n                /* \"#utility.yul\":4308:4427   */\n            tag_116:\n                /* \"#utility.yul\":4494:4495   */\n              0x00\n                /* \"#utility.yul\":4483:4492   */\n              dup3\n                /* \"#utility.yul\":4479:4496   */\n              add\n                /* \"#utility.yul\":4466:4497   */\n              calldataload\n                /* \"#utility.yul\":4524:4542   */\n              0xffffffffffffffff\n                /* \"#utility.yul\":4516:4522   */\n              dup2\n                /* \"#utility.yul\":4513:4543   */\n              gt\n                /* \"#utility.yul\":4510:4627   */\n              iszero\n              tag_118\n              jumpi\n                /* \"#utility.yul\":4546:4625   */\n              tag_119\n              tag_41\n              jump\t// in\n            tag_119:\n                /* \"#utility.yul\":4510:4627   */\n            tag_118:\n                /* \"#utility.yul\":4651:4714   */\n              tag_120\n                /* \"#utility.yul\":4706:4713   */\n              dup5\n                /* \"#utility.yul\":4697:4703   */\n              dup3\n                /* \"#utility.yul\":4686:4695   */\n              dup6\n                /* \"#utility.yul\":4682:4704   */\n              add\n                /* \"#utility.yul\":4651:4714   */\n              tag_50\n              jump\t// in\n            tag_120:\n                /* \"#utility.yul\":4641:4714   */\n              swap2\n              pop\n                /* \"#utility.yul\":4437:4724   */\n              pop\n                /* \"#utility.yul\":4222:4731   */\n              swap3\n              swap2\n              pop\n              pop\n              jump\t// out\n                /* \"#utility.yul\":4737:4917   */\n            tag_51:\n                /* \"#utility.yul\":4785:4862   */\n              0x4e487b7100000000000000000000000000000000000000000000000000000000\n                /* \"#utility.yul\":4782:4783   */\n              0x00\n                /* \"#utility.yul\":4775:4863   */\n              mstore\n                /* \"#utility.yul\":4882:4886   */\n              0x22\n                /* \"#utility.yul\":4879:4880   */\n              0x04\n                /* \"#utility.yul\":4872:4887   */\n              mstore\n                /* \"#utility.yul\":4906:4910   */\n              0x24\n                /* \"#utility.yul\":4903:4904   */\n              0x00\n                /* \"#utility.yul\":4896:4911   */\n              revert\n                /* \"#utility.yul\":4923:5243   */\n            tag_24:\n                /* \"#utility.yul\":4967:4973   */\n              0x00\n                /* \"#utility.yul\":5004:5005   */\n              0x02\n                /* \"#utility.yul\":4998:5002   */\n              dup3\n                /* \"#utility.yul\":4994:5006   */\n              div\n                /* \"#utility.yul\":4984:5006   */\n              swap1\n              pop\n                /* \"#utility.yul\":5051:5052   */\n              0x01\n                /* \"#utility.yul\":5045:5049   */\n              dup3\n                /* \"#utility.yul\":5041:5053   */\n              and\n                /* \"#utility.yul\":5072:5090   */\n              dup1\n                /* \"#utility.yul\":5062:5143   */\n              tag_123\n              jumpi\n                /* \"#utility.yul\":5128:5132   */\n              0x7f\n                /* \"#utility.yul\":5120:5126   */\n              dup3\n                /* \"#utility.yul\":5116:5133   */\n              and\n                /* \"#utility.yul\":5106:5133   */\n              swap2\n              pop\n                /* \"#utility.yul\":5062:5143   */\n            tag_123:\n                /* \"#utility.yul\":5190:5192   */\n              0x20\n                /* \"#utility.yul\":5182:5188   */\n              dup3\n                /* \"#utility.yul\":5179:5193   */\n              lt\n                /* \"#utility.yul\":5159:5177   */\n              dup2\n                /* \"#utility.yul\":5156:5194   */\n              sub\n                /* \"#utility.yul\":5153:5237   */\n              tag_124\n              jumpi\n                /* \"#utility.yul\":5209:5227   */\n              tag_125\n              tag_51\n              jump\t// in\n            tag_125:\n                /* \"#utility.yul\":5153:5237   */\n            tag_124:\n                /* \"#utility.yul\":4974:5243   */\n              pop\n                /* \"#utility.yul\":4923:5243   */\n              swap2\n              swap1\n              pop\n              jump\t// out\n                /* \"#utility.yul\":5249:5390   */\n            tag_52:\n                /* \"#utility.yul\":5298:5302   */\n              0x00\n                /* \"#utility.yul\":5321:5324   */\n              dup2\n                /* \"#utility.yul\":5313:5324   */\n              swap1\n              pop\n                /* \"#utility.yul\":5344:5347   */\n              dup2\n                /* \"#utility.yul\":5341:5342   */\n              0x00\n                /* \"#utility.yul\":5334:5348   */\n              mstore\n                /* \"#utility.yul\":5378:5382   */\n              0x20\n                /* \"#utility.yul\":5375:5376   */\n              0x00\n                /* \"#utility.yul\":5365:5383   */\n              keccak256\n                /* \"#utility.yul\":5357:5383   */\n              swap1\n              pop\n                /* \"#utility.yul\":5249:5390   */\n              swap2\n              swap1\n              pop\n              jump\t// out\n                /* \"#utility.yul\":5396:5489   */\n            tag_53:\n                /* \"#utility.yul\":5433:5439   */\n              0x00\n                /* \"#utility.yul\":5480:5482   */\n              0x20\n                /* \"#utility.yul\":5475:5477   */\n              0x1f\n                /* \"#utility.yul\":5468:5473   */\n              dup4\n                /* \"#utility.yul\":5464:5478   */\n              add\n                /* \"#utility.yul\":5460:5483   */\n              div\n                /* \"#utility.yul\":5450:5483   */\n              swap1\n              pop\n                /* \"#utility.yul\":5396:5489   */\n              swap2\n              swap1\n              pop\n              jump\t// out\n                /* \"#utility.yul\":5495:5602   */\n            tag_54:\n                /* \"#utility.yul\":5539:5547   */\n              0x00\n                /* \"#utility.yul\":5589:5594   */\n              dup3\n                /* \"#utility.yul\":5583:5587   */\n              dup3\n                /* \"#utility.yul\":5579:5595   */\n              shl\n                /* \"#utility.yul\":5558:5595   */\n              swap1\n              pop\n                /* \"#utility.yul\":5495:5602   */\n              swap3\n              swap2\n              pop\n              pop\n              jump\t// out\n                /* \"#utility.yul\":5608:6001   */\n            tag_55:\n                /* \"#utility.yul\":5677:5683   */\n              0x00\n                /* \"#utility.yul\":5727:5728   */\n              0x08\n                /* \"#utility.yul\":5715:5725   */\n              dup4\n                /* \"#utility.yul\":5711:5729   */\n              mul\n                /* \"#utility.yul\":5750:5847   */\n              tag_130\n                /* \"#utility.yul\":5780:5846   */\n              0xffffffffffffffffffffffffffffffffffffffffffffffffffffffffffffffff\n                /* \"#utility.yul\":5769:5778   */\n              dup3\n                /* \"#utility.yul\":5750:5847   */\n              tag_54\n              jump\t// in\n            tag_130:\n                /* \"#utility.yul\":5868:5907   */\n              tag_131\n                /* \"#utility.yul\":5898:5906   */\n              dup7\n                /* \"#utility.yul\":5887:5896   */\n              dup4\n                /* \"#utility.yul\":5868:5907   */\n              tag_54\n              jump\t// in\n            tag_131:\n                /* \"#utility.yul\":5856:5907   */\n              swap6\n              pop\n                /* \"#utility.yul\":5940:5944   */\n              dup1\n                /* \"#utility.yul\":5936:5945   */\n              not\n                /* \"#utility.yul\":5929:5934   */\n              dup5\n                /* \"#utility.yul\":5925:5946   */\n              and\n                /* \"#utility.yul\":5916:5946   */\n              swap4\n              pop\n                /* \"#utility.yul\":5989:5993   */\n              dup1\n                /* \"#utility.yul\":5979:5987   */\n              dup7\n                /* \"#utility.yul\":5975:5994   */\n              and\n                /* \"#utility.yul\":5968:5973   */\n              dup5\n                /* \"#utility.yul\":5965:5995   */\n              or\n                /* \"#utility.yul\":5955:5995   */\n              swap3\n              pop\n                /* \"#utility.yul\":5684:6001   */\n              pop\n              pop\n                /* \"#utility.yul\":5608:6001   */\n              swap4\n              swap3\n              pop\n              pop\n              pop\n              jump\t// out\n                /* \"#utility.yul\":6007:6067   */\n            tag_56:\n                /* \"#utility.yul\":6035:6038   */\n              0x00\n                /* \"#utility.yul\":6056:6061   */\n              dup2\n                /* \"#utility.yul\":6049:6061   */\n              swap1\n              pop\n                /* \"#utility.yul\":6007:6067   */\n              swap2\n              swap1\n              pop\n              jump\t// out\n                /* \"#utility.yul\":6073:6215   */\n            tag_57:\n                /* \"#utility.yul\":6123:6132   */\n              0x00\n                /* \"#utility.yul\":6156:6209   */\n              tag_134\n                /* \"#utility.yul\":6174:6208   */\n              tag_135\n                /* \"#utility.yul\":6183:6207   */\n              tag_136\n                /* \"#utility.yul\":6201:6206   */\n              dup5\n                /* \"#utility.yul\":6183:6207   */\n              tag_37\n              jump\t// in\n            tag_136:\n                /* \"#utility.yul\":6174:6208   */\n              tag_56\n              jump\t// in\n            tag_135:\n                /* \"#utility.yul\":6156:6209   */\n              tag_37\n              jump\t// in\n            tag_134:\n                /* \"#utility.yul\":6143:6209   */\n              swap1\n              pop\n                /* \"#utility.yul\":6073:6215   */\n              swap2\n              swap1\n              pop\n              jump\t// out\n                /* \"#utility.yul\":6221:6296   */\n            tag_58:\n                /* \"#utility.yul\":6264:6267   */\n              0x00\n                /* \"#utility.yul\":6285:6290   */\n              dup2\n                /* \"#utility.yul\":6278:6290   */\n              swap1\n              pop\n                /* \"#utility.yul\":6221:6296   */\n              swap2\n              swap1\n              pop\n              jump\t// out\n                /* \"#utility.yul\":6302:6571   */\n            tag_59:\n                /* \"#utility.yul\":6412:6451   */\n              tag_139\n                /* \"#utility.yul\":6443:6450   */\n              dup4\n                /* \"#utility.yul\":6412:6451   */\n              tag_57\n              jump\t// in\n            tag_139:\n                /* \"#utility.yul\":6473:6564   */\n              tag_140\n                /* \"#utility.yul\":6522:6563   */\n              tag_141\n                /* \"#utility.yul\":6546:6562   */\n              dup3\n                /* \"#utility.yul\":6522:6563   */\n              tag_58\n              jump\t// in\n            tag_141:\n                /* \"#utility.yul\":6514:6520   */\n              dup5\n                /* \"#utility.yul\":6507:6511   */\n              dup5\n                /* \"#utility.yul\":6501:6512   */\n              sload\n                /* \"#utility.yul\":6473:6564   */\n              tag_55\n              jump\t// in\n            tag_140:\n                /* \"#utility.yul\":6467:6471   */\n              dup3\n                /* \"#utility.yul\":6460:6565   */\n              sstore\n                /* \"#utility.yul\":6378:6571   */\n              pop\n                /* \"#utility.yul\":6302:6571   */\n              pop\n              pop\n              pop\n              jump\t// out\n                /* \"#utility.yul\":6577:6650   */\n            tag_60:\n                /* \"#utility.yul\":6622:6625   */\n              0x00\n                /* \"#utility.yul\":6577:6650   */\n              swap1\n              jump\t// out\n                /* \"#utility.yul\":6656:6845   */\n            tag_61:\n                /* \"#utility.yul\":6733:6765   */\n              tag_144\n              tag_60\n              jump\t// in\n            tag_144:\n                /* \"#utility.yul\":6774:6839   */\n              tag_145\n                /* \"#utility.yul\":6832:6838   */\n              dup2\n                /* \"#utility.yul\":6824:6830   */\n              dup5\n                /* \"#utility.yul\":6818:6822   */\n              dup5\n                /* \"#utility.yul\":6774:6839   */\n              tag_59\n              jump\t// in\n            tag_145:\n                /* \"#utility.yul\":6709:6845   */\n              pop\n                /* \"#utility.yul\":6656:6845   */\n              pop\n              pop\n              jump\t// out\n                /* \"#utility.yul\":6851:7037   */\n            tag_62:\n                /* \"#utility.yul\":6911:7031   */\n            tag_147:\n                /* \"#utility.yul\":6928:6931   */\n              dup2\n                /* \"#utility.yul\":6921:6926   */\n              dup2\n                /* \"#utility.yul\":6918:6932   */\n              lt\n                /* \"#utility.yul\":6911:7031   */\n              iszero\n              tag_149\n              jumpi\n                /* \"#utility.yul\":6982:7021   */\n              tag_150\n                /* \"#utility.yul\":7019:7020   */\n              0x00\n                /* \"#utility.yul\":7012:7017   */\n              dup3\n                /* \"#utility.yul\":6982:7021   */\n              tag_61\n              jump\t// in\n            tag_150:\n                /* \"#utility.yul\":6955:6956   */\n              0x01\n                /* \"#utility.yul\":6948:6953   */\n              dup2\n                /* \"#utility.yul\":6944:6957   */\n              add\n                /* \"#utility.yul\":6935:6957   */\n              swap1\n              pop\n                /* \"#utility.yul\":6911:7031   */\n              jump(tag_147)\n            tag_149:\n                /* \"#utility.yul\":6851:7037   */\n              pop\n              pop\n              jump\t// out\n                /* \"#utility.yul\":7043:7586   */\n            tag_63:\n                /* \"#utility.yul\":7144:7146   */\n              0x1f\n                /* \"#utility.yul\":7139:7142   */\n              dup3\n                /* \"#utility.yul\":7136:7147   */\n              gt\n                /* \"#utility.yul\":7133:7579   */\n              iszero\n              tag_152\n              jumpi\n                /* \"#utility.yul\":7178:7216   */\n              tag_153\n                /* \"#utility.yul\":7210:7215   */\n              dup2\n                /* \"#utility.yul\":7178:7216   */\n              tag_52\n              jump\t// in\n            tag_153:\n                /* \"#utility.yul\":7262:7291   */\n              tag_154\n                /* \"#utility.yul\":7280:7290   */\n              dup5\n                /* \"#utility.yul\":7262:7291   */\n              tag_53\n              jump\t// in\n            tag_154:\n                /* \"#utility.yul\":7252:7260   */\n              dup2\n                /* \"#utility.yul\":7248:7292   */\n              add\n                /* \"#utility.yul\":7445:7447   */\n              0x20\n                /* \"#utility.yul\":7433:7443   */\n              dup6\n                /* \"#utility.yul\":7430:7448   */\n              lt\n                /* \"#utility.yul\":7427:7476   */\n              iszero\n              tag_155\n              jumpi\n                /* \"#utility.yul\":7466:7474   */\n              dup2\n                /* \"#utility.yul\":7451:7474   */\n              swap1\n              pop\n                /* \"#utility.yul\":7427:7476   */\n            tag_155:\n                /* \"#utility.yul\":7489:7569   */\n              tag_156\n                /* \"#utility.yul\":7545:7567   */\n              tag_157\n                /* \"#utility.yul\":7563:7566   */\n              dup6\n                /* \"#utility.yul\":7545:7567   */\n              tag_53\n              jump\t// in\n            tag_157:\n                /* \"#utility.yul\":7535:7543   */\n              dup4\n                /* \"#utility.yul\":7531:7568   */\n              add\n                /* \"#utility.yul\":7518:7529   */\n              dup3\n                /* \"#utility.yul\":7489:7569   */\n              tag_62\n              jump\t// in\n            tag_156:\n                /* \"#utility.yul\":7148:7579   */\n              pop\n              pop\n                /* \"#utility.yul\":7133:7579   */\n            tag_152:\n                /* \"#utility.yul\":7043:7586   */\n              pop\n              pop\n              pop\n              jump\t// out\n                /* \"#utility.yul\":7592:7709   */\n            tag_64:\n                /* \"#utility.yul\":7646:7654   */\n              0x00\n                /* \"#utility.yul\":7696:7701   */\n              dup3\n                /* \"#utility.yul\":7690:7694   */\n              dup3\n                /* \"#utility.yul\":7686:7702   */\n              shr\n                /* \"#utility.yul\":7665:7702   */\n              swap1\n              pop\n                /* \"#utility.yul\":7592:7709   */\n              swap3\n              swap2\n              pop\n              pop\n              jump\t// out\n                /* \"#utility.yul\":7715:7884   */\n            tag_65:\n                /* \"#utility.yul\":7759:7765   */\n              0x00\n                /* \"#utility.yul\":7792:7843   */\n              tag_160\n                /* \"#utility.yul\":7840:7841   */\n              0x00\n                /* \"#utility.yul\":7836:7842   */\n              not\n                /* \"#utility.yul\":7828:7833   */\n              dup5\n                /* \"#utility.yul\":7825:7826   */\n              0x08\n                /* \"#utility.yul\":7821:7834   */\n              mul\n                /* \"#utility.yul\":7792:7843   */\n              tag_64\n              jump\t// in\n            tag_160:\n                /* \"#utility.yul\":7788:7844   */\n              not\n                /* \"#utility.yul\":7873:7877   */\n              dup1\n                /* \"#utility.yul\":7867:7871   */\n              dup4\n                /* \"#utility.yul\":7863:7878   */\n              and\n                /* \"#utility.yul\":7853:7878   */\n              swap2\n              pop\n                /* \"#utility.yul\":7766:7884   */\n              pop\n                /* \"#utility.yul\":7715:7884   */\n              swap3\n              swap2\n              pop\n              pop\n              jump\t// out\n                /* \"#utility.yul\":7889:8184   */\n            tag_66:\n                /* \"#utility.yul\":7965:7969   */\n              0x00\n                /* \"#utility.yul\":8111:8140   */\n              tag_162\n                /* \"#utility.yul\":8136:8139   */\n              dup4\n                /* \"#utility.yul\":8130:8134   */\n              dup4\n                /* \"#utility.yul\":8111:8140   */\n              tag_65\n              jump\t// in\n            tag_162:\n                /* \"#utility.yul\":8103:8140   */\n              swap2\n              pop\n                /* \"#utility.yul\":8173:8176   */\n              dup3\n                /* \"#utility.yul\":8170:8171   */\n              0x02\n                /* \"#utility.yul\":8166:8177   */\n              mul\n                /* \"#utility.yul\":8160:8164   */\n              dup3\n                /* \"#utility.yul\":8157:8178   */\n              or\n                /* \"#utility.yul\":8149:8178   */\n              swap1\n              pop\n                /* \"#utility.yul\":7889:8184   */\n              swap3\n              swap2\n              pop\n              pop\n              jump\t// out\n                /* \"#utility.yul\":8189:9584   */\n            tag_31:\n                /* \"#utility.yul\":8306:8343   */\n              tag_164\n                /* \"#utility.yul\":8339:8342   */\n              dup3\n                /* \"#utility.yul\":8306:8343   */\n              tag_32\n              jump\t// in\n            tag_164:\n                /* \"#utility.yul\":8408:8426   */\n              0xffffffffffffffff\n                /* \"#utility.yul\":8400:8406   */\n              dup2\n                /* \"#utility.yul\":8397:8427   */\n              gt\n                /* \"#utility.yul\":8394:8450   */\n              iszero\n              tag_165\n              jumpi\n                /* \"#utility.yul\":8430:8448   */\n              tag_166\n              tag_44\n              jump\t// in\n            tag_166:\n                /* \"#utility.yul\":8394:8450   */\n            tag_165:\n                /* \"#utility.yul\":8474:8512   */\n              tag_167\n                /* \"#utility.yul\":8506:8510   */\n              dup3\n                /* \"#utility.yul\":8500:8511   */\n              sload\n                /* \"#utility.yul\":8474:8512   */\n              tag_24\n              jump\t// in\n            tag_167:\n                /* \"#utility.yul\":8559:8626   */\n              tag_168\n                /* \"#utility.yul\":8619:8625   */\n              dup3\n                /* \"#utility.yul\":8611:8617   */\n              dup3\n                /* \"#utility.yul\":8605:8609   */\n              dup6\n                /* \"#utility.yul\":8559:8626   */\n              tag_63\n              jump\t// in\n            tag_168:\n                /* \"#utility.yul\":8653:8654   */\n              0x00\n                /* \"#utility.yul\":8677:8681   */\n              0x20\n                /* \"#utility.yul\":8664:8681   */\n              swap1\n              pop\n                /* \"#utility.yul\":8709:8711   */\n              0x1f\n                /* \"#utility.yul\":8701:8707   */\n              dup4\n                /* \"#utility.yul\":8698:8712   */\n              gt\n                /* \"#utility.yul\":8726:8727   */\n              0x01\n                /* \"#utility.yul\":8721:9339   */\n              dup2\n              eq\n              tag_170\n              jumpi\n                /* \"#utility.yul\":9383:9384   */\n              0x00\n                /* \"#utility.yul\":9400:9406   */\n              dup5\n                /* \"#utility.yul\":9397:9474   */\n              iszero\n              tag_171\n              jumpi\n                /* \"#utility.yul\":9449:9458   */\n              dup3\n                /* \"#utility.yul\":9444:9447   */\n              dup8\n                /* \"#utility.yul\":9440:9459   */\n              add\n                /* \"#utility.yul\":9434:9460   */\n              mload\n                /* \"#utility.yul\":9425:9460   */\n              swap1\n              pop\n                /* \"#utility.yul\":9397:9474   */\n            tag_171:\n                /* \"#utility.yul\":9500:9567   */\n              tag_172\n                /* \"#utility.yul\":9560:9566   */\n              dup6\n                /* \"#utility.yul\":9553:9558   */\n              dup3\n                /* \"#utility.yul\":9500:9567   */\n              tag_66\n              jump\t// in\n            tag_172:\n                /* \"#utility.yul\":9494:9498   */\n              dup7\n                /* \"#utility.yul\":9487:9568   */\n              sstore\n                /* \"#utility.yul\":9356:9578   */\n              pop\n                /* \"#utility.yul\":8691:9578   */\n              jump(tag_169)\n                /* \"#utility.yul\":8721:9339   */\n            tag_170:\n                /* \"#utility.yul\":8773:8777   */\n              0x1f\n                /* \"#utility.yul\":8769:8778   */\n              not\n                /* \"#utility.yul\":8761:8767   */\n              dup5\n                /* \"#utility.yul\":8757:8779   */\n              and\n                /* \"#utility.yul\":8807:8844   */\n              tag_173\n                /* \"#utility.yul\":8839:8843   */\n              dup7\n                /* \"#utility.yul\":8807:8844   */\n              tag_52\n              jump\t// in\n            tag_173:\n                /* \"#utility.yul\":8866:8867   */\n              0x00\n                /* \"#utility.yul\":8880:9088   */\n            tag_174:\n                /* \"#utility.yul\":8894:8901   */\n              dup3\n                /* \"#utility.yul\":8891:8892   */\n              dup2\n                /* \"#utility.yul\":8888:8902   */\n              lt\n                /* \"#utility.yul\":8880:9088   */\n              iszero\n              tag_176\n              jumpi\n                /* \"#utility.yul\":8973:8982   */\n              dup5\n                /* \"#utility.yul\":8968:8971   */\n              dup10\n                /* \"#utility.yul\":8964:8983   */\n              add\n                /* \"#utility.yul\":8958:8984   */\n              mload\n                /* \"#utility.yul\":8950:8956   */\n              dup3\n                /* \"#utility.yul\":8943:8985   */\n              sstore\n                /* \"#utility.yul\":9024:9025   */\n              0x01\n                /* \"#utility.yul\":9016:9022   */\n              dup3\n                /* \"#utility.yul\":9012:9026   */\n              add\n                /* \"#utility.yul\":9002:9026   */\n              swap2\n              pop\n                /* \"#utility.yul\":9071:9073   */\n              0x20\n                /* \"#utility.yul\":9060:9069   */\n              dup6\n                /* \"#utility.yul\":9056:9074   */\n              add\n                /* \"#utility.yul\":9043:9074   */\n              swap5\n              pop\n                /* \"#utility.yul\":8917:8921   */\n              0x20\n                /* \"#utility.yul\":8914:8915   */\n              dup2\n                /* \"#utility.yul\":8910:8922   */\n              add\n                /* \"#utility.yul\":8905:8922   */\n              swap1\n              pop\n                /* \"#utility.yul\":8880:9088   */\n              jump(tag_174)\n            tag_176:\n                /* \"#utility.yul\":9116:9122   */\n              dup7\n                /* \"#utility.yul\":9107:9114   */\n              dup4\n                /* \"#utility.yul\":9104:9123   */\n              lt\n                /* \"#utility.yul\":9101:9280   */\n              iszero\n              tag_177\n              jumpi\n                /* \"#utility.yul\":9174:9183   */\n              dup5\n                /* \"#utility.yul\":9169:9172   */\n              dup10\n                /* \"#utility.yul\":9165:9184   */\n              add\n                /* \"#utility.yul\":9159:9185   */\n              mload\n                /* \"#utility.yul\":9217:9265   */\n              tag_178\n                /* \"#utility.yul\":9259:9263   */\n              0x1f\n                /* \"#utility.yul\":9251:9257   */\n              dup10\n                /* \"#utility.yul\":9247:9264   */\n              and\n                /* \"#utility.yul\":9236:9245   */\n              dup3\n                /* \"#utility.yul\":9217:9265   */\n              tag_65\n              jump\t// in\n            tag_178:\n                /* \"#utility.yul\":9209:9215   */\n              dup4\n                /* \"#utility.yul\":9202:9266   */\n              sstore\n                /* \"#utility.yul\":9124:9280   */\n              pop\n                /* \"#utility.yul\":9101:9280   */\n            tag_177:\n                /* \"#utility.yul\":9326:9327   */\n              0x01\n                /* \"#utility.yul\":9322:9323   */\n              0x02\n                /* \"#utility.yul\":9314:9320   */\n              dup9\n                /* \"#utility.yul\":9310:9324   */\n              mul\n                /* \"#utility.yul\":9306:9328   */\n              add\n                /* \"#utility.yul\":9300:9304   */\n              dup9\n                /* \"#utility.yul\":9293:9329   */\n              sstore\n                /* \"#utility.yul\":8728:9339   */\n              pop\n              pop\n              pop\n                /* \"#utility.yul\":8691:9578   */\n            tag_169:\n              pop\n                /* \"#utility.yul\":8281:9584   */\n              pop\n              pop\n              pop\n                /* \"#utility.yul\":8189:9584   */\n              pop\n              pop\n              jump\t// out\n\n            auxdata: 0xa2646970667358221220b640b1c62f9c494386f77c7ce771e89f4ac82a301c6091dd24d6e2fcfd607c3e64736f6c63430008160033\n        }\n    }\n\n    auxdata: 0xa2646970667358221220847c88a7cdb290db5e0bd22c549b130e449412b65ebe93fbd98acd752b2565b164736f6c63430008160033\n}\n",
				"bytecode": {
					"linkReferences": {},
					"object": "608060405234801561000f575f80fd5b50335f806101000a81548173ffffffffffffffffffffffffffffffffffffffff021916908373ffffffffffffffffffffffffffffffffffffffff16021790555061244c8061005c5f395ff3fe608060405234801562000010575f80fd5b506004361062000068575f3560e01c806329ce1ec5146200006c5780633446106714620000a257806344e2e74c14620000d857806399b5346314620000f8578063d81aa8c41462000118578063fab526891462000138575b5f80fd5b6200008a600480360381019062000084919062000572565b6200016e565b604051620000999190620005be565b60405180910390f35b620000c06004803603810190620000ba919062000611565b620002a6565b604051620000cf9190620006a8565b60405180910390f35b620000f66004803603810190620000f091906200081b565b620002e2565b005b62000116600480360381019062000110919062000572565b6200037f565b005b6200013660048036038101906200013091906200081b565b6200041c565b005b62000156600480360381019062000150919062000572565b620004b9565b604051620001659190620005be565b60405180910390f35b5f805f9054906101000a900473ffffffffffffffffffffffffffffffffffffffff1673ffffffffffffffffffffffffffffffffffffffff163373ffffffffffffffffffffffffffffffffffffffff161462000200576040517f08c379a0000000000000000000000000000000000000000000000000000000008152600401620001f790620008c8565b60405180910390fd5b600160025f8473ffffffffffffffffffffffffffffffffffffffff1673ffffffffffffffffffffffffffffffffffffffff1681526020019081526020015f205f6101000a81548160ff02191690831515021790555060025f8373ffffffffffffffffffffffffffffffffffffffff1673ffffffffffffffffffffffffffffffffffffffff1681526020019081526020015f205f9054906101000a900460ff169050919050565b60018181548110620002b6575f80fd5b905f5260205f20015f915054906101000a900473ffffffffffffffffffffffffffffffffffffffff1681565b5f81604051620002f290620004d6565b620002fe91906200095c565b604051809103905ff08015801562000318573d5f803e3d5ffd5b509050600181908060018154018082558091505060019003905f5260205f20015f9091909190916101000a81548173ffffffffffffffffffffffffffffffffffffffff021916908373ffffffffffffffffffffffffffffffffffffffff1602179055505050565b5f816040516200038f90620004e4565b6200039b91906200098f565b604051809103905ff080158015620003b5573d5f803e3d5ffd5b509050600181908060018154018082558091505060019003905f5260205f20015f9091909190916101000a81548173ffffffffffffffffffffffffffffffffffffffff021916908373ffffffffffffffffffffffffffffffffffffffff1602179055505050565b5f816040516200042c90620004f2565b6200043891906200095c565b604051809103905ff08015801562000452573d5f803e3d5ffd5b509050600181908060018154018082558091505060019003905f5260205f20015f9091909190916101000a81548173ffffffffffffffffffffffffffffffffffffffff021916908373ffffffffffffffffffffffffffffffffffffffff1602179055505050565b6002602052805f5260405f205f915054906101000a900460ff1681565b6109d480620009ab83390190565b610443806200137f83390190565b610c5580620017c283390190565b5f604051905090565b5f80fd5b5f80fd5b5f73ffffffffffffffffffffffffffffffffffffffff82169050919050565b5f6200053c8262000511565b9050919050565b6200054e8162000530565b811462000559575f80fd5b50565b5f813590506200056c8162000543565b92915050565b5f602082840312156200058a576200058962000509565b5b5f62000599848285016200055c565b91505092915050565b5f8115159050919050565b620005b881620005a2565b82525050565b5f602082019050620005d35f830184620005ad565b92915050565b5f819050919050565b620005ed81620005d9565b8114620005f8575f80fd5b50565b5f813590506200060b81620005e2565b92915050565b5f6020828403121562000629576200062862000509565b5b5f6200063884828501620005fb565b91505092915050565b5f819050919050565b5f6200066a620006646200065e8462000511565b62000641565b62000511565b9050919050565b5f6200067d826200064a565b9050919050565b5f620006908262000671565b9050919050565b620006a28162000684565b82525050565b5f602082019050620006bd5f83018462000697565b92915050565b5f80fd5b5f80fd5b5f601f19601f8301169050919050565b7f4e487b71000000000000000000000000000000000000000000000000000000005f52604160045260245ffd5b6200071382620006cb565b810181811067ffffffffffffffff82111715620007355762000734620006db565b5b80604052505050565b5f6200074962000500565b905062000757828262000708565b919050565b5f67ffffffffffffffff821115620007795762000778620006db565b5b6200078482620006cb565b9050602081019050919050565b828183375f83830152505050565b5f620007b5620007af846200075c565b6200073e565b905082815260208101848484011115620007d457620007d3620006c7565b5b620007e184828562000791565b509392505050565b5f82601f8301126200080057620007ff620006c3565b5b8135620008128482602086016200079f565b91505092915050565b5f6020828403121562000833576200083262000509565b5b5f82013567ffffffffffffffff8111156200085357620008526200050d565b5b6200086184828501620007e9565b91505092915050565b5f82825260208201905092915050565b7f596f7520617265206e6f742061206f776e6572000000000000000000000000005f82015250565b5f620008b06013836200086a565b9150620008bd826200087a565b602082019050919050565b5f6020820190508181035f830152620008e181620008a2565b9050919050565b5f81519050919050565b5f5b8381101562000911578082015181840152602081019050620008f4565b5f8484015250505050565b5f6200092882620008e8565b6200093481856200086a565b935062000946818560208601620008f2565b6200095181620006cb565b840191505092915050565b5f6020820190508181035f8301526200097681846200091c565b905092915050565b620009898162000530565b82525050565b5f602082019050620009a45f8301846200097e565b9291505056fe608060405234801562000010575f80fd5b50604051620009d4380380620009d483398181016040528101906200003691906200021a565b425f819055503360025f6101000a81548173ffffffffffffffffffffffffffffffffffffffff021916908373ffffffffffffffffffffffffffffffffffffffff16021790555080600190816200008d9190620004a0565b505062000584565b5f604051905090565b5f80fd5b5f80fd5b5f80fd5b5f80fd5b5f601f19601f8301169050919050565b7f4e487b71000000000000000000000000000000000000000000000000000000005f52604160045260245ffd5b620000f682620000ae565b810181811067ffffffffffffffff82111715620001185762000117620000be565b5b80604052505050565b5f6200012c62000095565b90506200013a8282620000eb565b919050565b5f67ffffffffffffffff8211156200015c576200015b620000be565b5b6200016782620000ae565b9050602081019050919050565b5f5b838110156200019357808201518184015260208101905062000176565b5f8484015250505050565b5f620001b4620001ae846200013f565b62000121565b905082815260208101848484011115620001d357620001d2620000aa565b5b620001e084828562000174565b509392505050565b5f82601f830112620001ff57620001fe620000a6565b5b8151620002118482602086016200019e565b91505092915050565b5f602082840312156200023257620002316200009e565b5b5f82015167ffffffffffffffff811115620002525762000251620000a2565b5b6200026084828501620001e8565b91505092915050565b5f81519050919050565b7f4e487b71000000000000000000000000000000000000000000000000000000005f52602260045260245ffd5b5f6002820490506001821680620002b857607f821691505b602082108103620002ce57620002cd62000273565b5b50919050565b5f819050815f5260205f209050919050565b5f6020601f8301049050919050565b5f82821b905092915050565b5f60088302620003327fffffffffffffffffffffffffffffffffffffffffffffffffffffffffffffffff82620002f5565b6200033e8683620002f5565b95508019841693508086168417925050509392505050565b5f819050919050565b5f819050919050565b5f62000388620003826200037c8462000356565b6200035f565b62000356565b9050919050565b5f819050919050565b620003a38362000368565b620003bb620003b2826200038f565b84845462000301565b825550505050565b5f90565b620003d1620003c3565b620003de81848462000398565b505050565b5b818110156200040557620003f95f82620003c7565b600181019050620003e4565b5050565b601f82111562000454576200041e81620002d4565b6200042984620002e6565b8101602085101562000439578190505b620004516200044885620002e6565b830182620003e3565b50505b505050565b5f82821c905092915050565b5f620004765f198460080262000459565b1980831691505092915050565b5f62000490838362000465565b9150826002028217905092915050565b620004ab8262000269565b67ffffffffffffffff811115620004c757620004c6620000be565b5b620004d38254620002a0565b620004e082828562000409565b5f60209050601f83116001811462000516575f841562000501578287015190505b6200050d858262000483565b8655506200057c565b601f1984166200052686620002d4565b5f5b828110156200054f5784890151825560018201915060208501945060208101905062000528565b868310156200056f57848901516200056b601f89168262000465565b8355505b6001600288020188555050505b505050505050565b61044280620005925f395ff3fe608060405234801561000f575f80fd5b5060043610610055575f3560e01c80630781f5c91461005957806313af4035146100775780631dcd69ec146100935780638da5cb5b146100b1578063c2fb26a6146100cf575b5f80fd5b6100616100ed565b60405161006e91906102ad565b60405180910390f35b610091600480360381019061008c919061032b565b61012a565b005b61009b61016d565b6040516100a8919061036e565b60405180910390f35b6100b9610172565b6040516100c69190610396565b60405180910390f35b6100d7610197565b6040516100e491906102ad565b60405180910390f35b60606040518060400160405280600381526020017f656e730000000000000000000000000000000000000000000000000000000000815250905090565b8060025f6101000a81548173ffffffffffffffffffffffffffffffffffffffff021916908373ffffffffffffffffffffffffffffffffffffffff16021790555050565b5f5481565b60025f9054906101000a900473ffffffffffffffffffffffffffffffffffffffff1681565b600180546101a4906103dc565b80601f01602080910402602001604051908101604052809291908181526020018280546101d0906103dc565b801561021b5780601f106101f25761010080835404028352916020019161021b565b820191905f5260205f20905b8154815290600101906020018083116101fe57829003601f168201915b505050505081565b5f81519050919050565b5f82825260208201905092915050565b5f5b8381101561025a57808201518184015260208101905061023f565b5f8484015250505050565b5f601f19601f8301169050919050565b5f61027f82610223565b610289818561022d565b935061029981856020860161023d565b6102a281610265565b840191505092915050565b5f6020820190508181035f8301526102c58184610275565b905092915050565b5f80fd5b5f73ffffffffffffffffffffffffffffffffffffffff82169050919050565b5f6102fa826102d1565b9050919050565b61030a816102f0565b8114610314575f80fd5b50565b5f8135905061032581610301565b92915050565b5f602082840312156103405761033f6102cd565b5b5f61034d84828501610317565b91505092915050565b5f819050919050565b61036881610356565b82525050565b5f6020820190506103815f83018461035f565b92915050565b610390816102f0565b82525050565b5f6020820190506103a95f830184610387565b92915050565b7f4e487b71000000000000000000000000000000000000000000000000000000005f52602260045260245ffd5b5f60028204905060018216806103f357607f821691505b602082108103610406576104056103af565b5b5091905056fea2646970667358221220383d98e2b84da5268ad9a730b18a9659c88c2d2a62513deac774d920e74e9add64736f6c63430008160033608060405234801561000f575f80fd5b50604051610443380380610443833981810160405281019061003191906100db565b425f819055508060015f6101000a81548173ffffffffffffffffffffffffffffffffffffffff021916908373ffffffffffffffffffffffffffffffffffffffff16021790555050610106565b5f80fd5b5f73ffffffffffffffffffffffffffffffffffffffff82169050919050565b5f6100aa82610081565b9050919050565b6100ba816100a0565b81146100c4575f80fd5b50565b5f815190506100d5816100b1565b92915050565b5f602082840312156100f0576100ef61007d565b5b5f6100fd848285016100c7565b91505092915050565b610330806101135f395ff3fe608060405234801561000f575f80fd5b506004361061004a575f3560e01c80630781f5c91461004e5780631dcd69ec1461006c578063266cf1091461008a578063c37787d9146100a8575b5f80fd5b6100566100c4565b60405161006391906101f8565b60405180910390f35b610074610101565b6040516100819190610230565b60405180910390f35b610092610106565b60405161009f9190610288565b60405180910390f35b6100c260048036038101906100bd91906102cf565b61012b565b005b60606040518060400160405280600781526020017f6164647265737300000000000000000000000000000000000000000000000000815250905090565b5f5481565b60015f9054906101000a900473ffffffffffffffffffffffffffffffffffffffff1681565b8060015f6101000a81548173ffffffffffffffffffffffffffffffffffffffff021916908373ffffffffffffffffffffffffffffffffffffffff16021790555050565b5f81519050919050565b5f82825260208201905092915050565b5f5b838110156101a557808201518184015260208101905061018a565b5f8484015250505050565b5f601f19601f8301169050919050565b5f6101ca8261016e565b6101d48185610178565b93506101e4818560208601610188565b6101ed816101b0565b840191505092915050565b5f6020820190508181035f83015261021081846101c0565b905092915050565b5f819050919050565b61022a81610218565b82525050565b5f6020820190506102435f830184610221565b92915050565b5f73ffffffffffffffffffffffffffffffffffffffff82169050919050565b5f61027282610249565b9050919050565b61028281610268565b82525050565b5f60208201905061029b5f830184610279565b92915050565b5f80fd5b6102ae81610268565b81146102b8575f80fd5b50565b5f813590506102c9816102a5565b92915050565b5f602082840312156102e4576102e36102a1565b5b5f6102f1848285016102bb565b9150509291505056fea26469706673582212201bbb3297fb318519acebdcacf94a562c2b16b073b3058400bb84541b22a7218b64736f6c63430008160033608060405234801562000010575f80fd5b5060405162000c5538038062000c558339818101604052810190620000369190620001da565b425f8190555080600190816200004d919062000460565b505062000544565b5f604051905090565b5f80fd5b5f80fd5b5f80fd5b5f80fd5b5f601f19601f8301169050919050565b7f4e487b71000000000000000000000000000000000000000000000000000000005f52604160045260245ffd5b620000b6826200006e565b810181811067ffffffffffffffff82111715620000d857620000d76200007e565b5b80604052505050565b5f620000ec62000055565b9050620000fa8282620000ab565b919050565b5f67ffffffffffffffff8211156200011c576200011b6200007e565b5b62000127826200006e565b9050602081019050919050565b5f5b838110156200015357808201518184015260208101905062000136565b5f8484015250505050565b5f620001746200016e84620000ff565b620000e1565b9050828152602081018484840111156200019357620001926200006a565b5b620001a084828562000134565b509392505050565b5f82601f830112620001bf57620001be62000066565b5b8151620001d18482602086016200015e565b91505092915050565b5f60208284031215620001f257620001f16200005e565b5b5f82015167ffffffffffffffff81111562000212576200021162000062565b5b6200022084828501620001a8565b91505092915050565b5f81519050919050565b7f4e487b71000000000000000000000000000000000000000000000000000000005f52602260045260245ffd5b5f60028204905060018216806200027857607f821691505b6020821081036200028e576200028d62000233565b5b50919050565b5f819050815f5260205f209050919050565b5f6020601f8301049050919050565b5f82821b905092915050565b5f60088302620002f27fffffffffffffffffffffffffffffffffffffffffffffffffffffffffffffffff82620002b5565b620002fe8683620002b5565b95508019841693508086168417925050509392505050565b5f819050919050565b5f819050919050565b5f62000348620003426200033c8462000316565b6200031f565b62000316565b9050919050565b5f819050919050565b620003638362000328565b6200037b62000372826200034f565b848454620002c1565b825550505050565b5f90565b6200039162000383565b6200039e81848462000358565b505050565b5b81811015620003c557620003b95f8262000387565b600181019050620003a4565b5050565b601f8211156200041457620003de8162000294565b620003e984620002a6565b81016020851015620003f9578190505b620004116200040885620002a6565b830182620003a3565b50505b505050565b5f82821c905092915050565b5f620004365f198460080262000419565b1980831691505092915050565b5f62000450838362000425565b9150826002028217905092915050565b6200046b8262000229565b67ffffffffffffffff8111156200048757620004866200007e565b5b62000493825462000260565b620004a0828285620003c9565b5f60209050601f831160018114620004d6575f8415620004c1578287015190505b620004cd858262000443565b8655506200053c565b601f198416620004e68662000294565b5f5b828110156200050f57848901518255600182019150602085019450602081019050620004e8565b868310156200052f57848901516200052b601f89168262000425565b8355505b6001600288020188555050505b505050505050565b61070380620005525f395ff3fe608060405234801561000f575f80fd5b506004361061004a575f3560e01c80630781f5c91461004e5780631dcd69ec1461006c578063266cf1091461008a5780633e0a0099146100a8575b5f80fd5b6100566100c4565b604051610063919061022f565b60405180910390f35b610074610101565b6040516100819190610267565b60405180910390f35b610092610106565b60405161009f919061022f565b60405180910390f35b6100c260048036038101906100bd91906103bd565b610192565b005b60606040518060400160405280600681526020017f737472696e670000000000000000000000000000000000000000000000000000815250905090565b5f5481565b6001805461011390610431565b80601f016020809104026020016040519081016040528092919081815260200182805461013f90610431565b801561018a5780601f106101615761010080835404028352916020019161018a565b820191905f5260205f20905b81548152906001019060200180831161016d57829003601f168201915b505050505081565b80600190816101a191906105fe565b5050565b5f81519050919050565b5f82825260208201905092915050565b5f5b838110156101dc5780820151818401526020810190506101c1565b5f8484015250505050565b5f601f19601f8301169050919050565b5f610201826101a5565b61020b81856101af565b935061021b8185602086016101bf565b610224816101e7565b840191505092915050565b5f6020820190508181035f83015261024781846101f7565b905092915050565b5f819050919050565b6102618161024f565b82525050565b5f60208201905061027a5f830184610258565b92915050565b5f604051905090565b5f80fd5b5f80fd5b5f80fd5b5f80fd5b7f4e487b71000000000000000000000000000000000000000000000000000000005f52604160045260245ffd5b6102cf826101e7565b810181811067ffffffffffffffff821117156102ee576102ed610299565b5b80604052505050565b5f610300610280565b905061030c82826102c6565b919050565b5f67ffffffffffffffff82111561032b5761032a610299565b5b610334826101e7565b9050602081019050919050565b828183375f83830152505050565b5f61036161035c84610311565b6102f7565b90508281526020810184848401111561037d5761037c610295565b5b610388848285610341565b509392505050565b5f82601f8301126103a4576103a3610291565b5b81356103b484826020860161034f565b91505092915050565b5f602082840312156103d2576103d1610289565b5b5f82013567ffffffffffffffff8111156103ef576103ee61028d565b5b6103fb84828501610390565b91505092915050565b7f4e487b71000000000000000000000000000000000000000000000000000000005f52602260045260245ffd5b5f600282049050600182168061044857607f821691505b60208210810361045b5761045a610404565b5b50919050565b5f819050815f5260205f209050919050565b5f6020601f8301049050919050565b5f82821b905092915050565b5f600883026104bd7fffffffffffffffffffffffffffffffffffffffffffffffffffffffffffffffff82610482565b6104c78683610482565b95508019841693508086168417925050509392505050565b5f819050919050565b5f6105026104fd6104f88461024f565b6104df565b61024f565b9050919050565b5f819050919050565b61051b836104e8565b61052f61052782610509565b84845461048e565b825550505050565b5f90565b610543610537565b61054e818484610512565b505050565b5b81811015610571576105665f8261053b565b600181019050610554565b5050565b601f8211156105b65761058781610461565b61059084610473565b8101602085101561059f578190505b6105b36105ab85610473565b830182610553565b50505b505050565b5f82821c905092915050565b5f6105d65f19846008026105bb565b1980831691505092915050565b5f6105ee83836105c7565b9150826002028217905092915050565b610607826101a5565b67ffffffffffffffff8111156106205761061f610299565b5b61062a8254610431565b610635828285610575565b5f60209050601f831160018114610666575f8415610654578287015190505b61065e85826105e3565b8655506106c5565b601f19841661067486610461565b5f5b8281101561069b57848901518255600182019150602085019450602081019050610676565b868310156106b857848901516106b4601f8916826105c7565b8355505b6001600288020188555050505b50505050505056fea2646970667358221220b640b1c62f9c494386f77c7ce771e89f4ac82a301c6091dd24d6e2fcfd607c3e64736f6c63430008160033a2646970667358221220847c88a7cdb290db5e0bd22c549b130e449412b65ebe93fbd98acd752b2565b164736f6c63430008160033",
					"opcodes": "PUSH1 0x80 PUSH1 0x40 MSTORE CALLVALUE DUP1 ISZERO PUSH2 0xF JUMPI PUSH0 DUP1 REVERT JUMPDEST POP CALLER PUSH0 DUP1 PUSH2 0x100 EXP DUP2 SLOAD DUP2 PUSH20 0xFFFFFFFFFFFFFFFFFFFFFFFFFFFFFFFFFFFFFFFF MUL NOT AND SWAP1 DUP4 PUSH20 0xFFFFFFFFFFFFFFFFFFFFFFFFFFFFFFFFFFFFFFFF AND MUL OR SWAP1 SSTORE POP PUSH2 0x244C DUP1 PUSH2 0x5C PUSH0 CODECOPY PUSH0 RETURN INVALID PUSH1 0x80 PUSH1 0x40 MSTORE CALLVALUE DUP1 ISZERO PUSH3 0x10 JUMPI PUSH0 DUP1 REVERT JUMPDEST POP PUSH1 0x4 CALLDATASIZE LT PUSH3 0x68 JUMPI PUSH0 CALLDATALOAD PUSH1 0xE0 SHR DUP1 PUSH4 0x29CE1EC5 EQ PUSH3 0x6C JUMPI DUP1 PUSH4 0x34461067 EQ PUSH3 0xA2 JUMPI DUP1 PUSH4 0x44E2E74C EQ PUSH3 0xD8 JUMPI DUP1 PUSH4 0x99B53463 EQ PUSH3 0xF8 JUMPI DUP1 PUSH4 0xD81AA8C4 EQ PUSH3 0x118 JUMPI DUP1 PUSH4 0xFAB52689 EQ PUSH3 0x138 JUMPI JUMPDEST PUSH0 DUP1 REVERT JUMPDEST PUSH3 0x8A PUSH1 0x4 DUP1 CALLDATASIZE SUB DUP2 ADD SWAP1 PUSH3 0x84 SWAP2 SWAP1 PUSH3 0x572 JUMP JUMPDEST PUSH3 0x16E JUMP JUMPDEST PUSH1 0x40 MLOAD PUSH3 0x99 SWAP2 SWAP1 PUSH3 0x5BE JUMP JUMPDEST PUSH1 0x40 MLOAD DUP1 SWAP2 SUB SWAP1 RETURN JUMPDEST PUSH3 0xC0 PUSH1 0x4 DUP1 CALLDATASIZE SUB DUP2 ADD SWAP1 PUSH3 0xBA SWAP2 SWAP1 PUSH3 0x611 JUMP JUMPDEST PUSH3 0x2A6 JUMP JUMPDEST PUSH1 0x40 MLOAD PUSH3 0xCF SWAP2 SWAP1 PUSH3 0x6A8 JUMP JUMPDEST PUSH1 0x40 MLOAD DUP1 SWAP2 SUB SWAP1 RETURN JUMPDEST PUSH3 0xF6 PUSH1 0x4 DUP1 CALLDATASIZE SUB DUP2 ADD SWAP1 PUSH3 0xF0 SWAP2 SWAP1 PUSH3 0x81B JUMP JUMPDEST PUSH3 0x2E2 JUMP JUMPDEST STOP JUMPDEST PUSH3 0x116 PUSH1 0x4 DUP1 CALLDATASIZE SUB DUP2 ADD SWAP1 PUSH3 0x110 SWAP2 SWAP1 PUSH3 0x572 JUMP JUMPDEST PUSH3 0x37F JUMP JUMPDEST STOP JUMPDEST PUSH3 0x136 PUSH1 0x4 DUP1 CALLDATASIZE SUB DUP2 ADD SWAP1 PUSH3 0x130 SWAP2 SWAP1 PUSH3 0x81B JUMP JUMPDEST PUSH3 0x41C JUMP JUMPDEST STOP JUMPDEST PUSH3 0x156 PUSH1 0x4 DUP1 CALLDATASIZE SUB DUP2 ADD SWAP1 PUSH3 0x150 SWAP2 SWAP1 PUSH3 0x572 JUMP JUMPDEST PUSH3 0x4B9 JUMP JUMPDEST PUSH1 0x40 MLOAD PUSH3 0x165 SWAP2 SWAP1 PUSH3 0x5BE JUMP JUMPDEST PUSH1 0x40 MLOAD DUP1 SWAP2 SUB SWAP1 RETURN JUMPDEST PUSH0 DUP1 PUSH0 SWAP1 SLOAD SWAP1 PUSH2 0x100 EXP SWAP1 DIV PUSH20 0xFFFFFFFFFFFFFFFFFFFFFFFFFFFFFFFFFFFFFFFF AND PUSH20 0xFFFFFFFFFFFFFFFFFFFFFFFFFFFFFFFFFFFFFFFF AND CALLER PUSH20 0xFFFFFFFFFFFFFFFFFFFFFFFFFFFFFFFFFFFFFFFF AND EQ PUSH3 0x200 JUMPI PUSH1 0x40 MLOAD PUSH32 0x8C379A000000000000000000000000000000000000000000000000000000000 DUP2 MSTORE PUSH1 0x4 ADD PUSH3 0x1F7 SWAP1 PUSH3 0x8C8 JUMP JUMPDEST PUSH1 0x40 MLOAD DUP1 SWAP2 SUB SWAP1 REVERT JUMPDEST PUSH1 0x1 PUSH1 0x2 PUSH0 DUP5 PUSH20 0xFFFFFFFFFFFFFFFFFFFFFFFFFFFFFFFFFFFFFFFF AND PUSH20 0xFFFFFFFFFFFFFFFFFFFFFFFFFFFFFFFFFFFFFFFF AND DUP2 MSTORE PUSH1 0x20 ADD SWAP1 DUP2 MSTORE PUSH1 0x20 ADD PUSH0 KECCAK256 PUSH0 PUSH2 0x100 EXP DUP2 SLOAD DUP2 PUSH1 0xFF MUL NOT AND SWAP1 DUP4 ISZERO ISZERO MUL OR SWAP1 SSTORE POP PUSH1 0x2 PUSH0 DUP4 PUSH20 0xFFFFFFFFFFFFFFFFFFFFFFFFFFFFFFFFFFFFFFFF AND PUSH20 0xFFFFFFFFFFFFFFFFFFFFFFFFFFFFFFFFFFFFFFFF AND DUP2 MSTORE PUSH1 0x20 ADD SWAP1 DUP2 MSTORE PUSH1 0x20 ADD PUSH0 KECCAK256 PUSH0 SWAP1 SLOAD SWAP1 PUSH2 0x100 EXP SWAP1 DIV PUSH1 0xFF AND SWAP1 POP SWAP2 SWAP1 POP JUMP JUMPDEST PUSH1 0x1 DUP2 DUP2 SLOAD DUP2 LT PUSH3 0x2B6 JUMPI PUSH0 DUP1 REVERT JUMPDEST SWAP1 PUSH0 MSTORE PUSH1 0x20 PUSH0 KECCAK256 ADD PUSH0 SWAP2 POP SLOAD SWAP1 PUSH2 0x100 EXP SWAP1 DIV PUSH20 0xFFFFFFFFFFFFFFFFFFFFFFFFFFFFFFFFFFFFFFFF AND DUP2 JUMP JUMPDEST PUSH0 DUP2 PUSH1 0x40 MLOAD PUSH3 0x2F2 SWAP1 PUSH3 0x4D6 JUMP JUMPDEST PUSH3 0x2FE SWAP2 SWAP1 PUSH3 0x95C JUMP JUMPDEST PUSH1 0x40 MLOAD DUP1 SWAP2 SUB SWAP1 PUSH0 CREATE DUP1 ISZERO DUP1 ISZERO PUSH3 0x318 JUMPI RETURNDATASIZE PUSH0 DUP1 RETURNDATACOPY RETURNDATASIZE PUSH0 REVERT JUMPDEST POP SWAP1 POP PUSH1 0x1 DUP2 SWAP1 DUP1 PUSH1 0x1 DUP2 SLOAD ADD DUP1 DUP3 SSTORE DUP1 SWAP2 POP POP PUSH1 0x1 SWAP1 SUB SWAP1 PUSH0 MSTORE PUSH1 0x20 PUSH0 KECCAK256 ADD PUSH0 SWAP1 SWAP2 SWAP1 SWAP2 SWAP1 SWAP2 PUSH2 0x100 EXP DUP2 SLOAD DUP2 PUSH20 0xFFFFFFFFFFFFFFFFFFFFFFFFFFFFFFFFFFFFFFFF MUL NOT AND SWAP1 DUP4 PUSH20 0xFFFFFFFFFFFFFFFFFFFFFFFFFFFFFFFFFFFFFFFF AND MUL OR SWAP1 SSTORE POP POP POP JUMP JUMPDEST PUSH0 DUP2 PUSH1 0x40 MLOAD PUSH3 0x38F SWAP1 PUSH3 0x4E4 JUMP JUMPDEST PUSH3 0x39B SWAP2 SWAP1 PUSH3 0x98F JUMP JUMPDEST PUSH1 0x40 MLOAD DUP1 SWAP2 SUB SWAP1 PUSH0 CREATE DUP1 ISZERO DUP1 ISZERO PUSH3 0x3B5 JUMPI RETURNDATASIZE PUSH0 DUP1 RETURNDATACOPY RETURNDATASIZE PUSH0 REVERT JUMPDEST POP SWAP1 POP PUSH1 0x1 DUP2 SWAP1 DUP1 PUSH1 0x1 DUP2 SLOAD ADD DUP1 DUP3 SSTORE DUP1 SWAP2 POP POP PUSH1 0x1 SWAP1 SUB SWAP1 PUSH0 MSTORE PUSH1 0x20 PUSH0 KECCAK256 ADD PUSH0 SWAP1 SWAP2 SWAP1 SWAP2 SWAP1 SWAP2 PUSH2 0x100 EXP DUP2 SLOAD DUP2 PUSH20 0xFFFFFFFFFFFFFFFFFFFFFFFFFFFFFFFFFFFFFFFF MUL NOT AND SWAP1 DUP4 PUSH20 0xFFFFFFFFFFFFFFFFFFFFFFFFFFFFFFFFFFFFFFFF AND MUL OR SWAP1 SSTORE POP POP POP JUMP JUMPDEST PUSH0 DUP2 PUSH1 0x40 MLOAD PUSH3 0x42C SWAP1 PUSH3 0x4F2 JUMP JUMPDEST PUSH3 0x438 SWAP2 SWAP1 PUSH3 0x95C JUMP JUMPDEST PUSH1 0x40 MLOAD DUP1 SWAP2 SUB SWAP1 PUSH0 CREATE DUP1 ISZERO DUP1 ISZERO PUSH3 0x452 JUMPI RETURNDATASIZE PUSH0 DUP1 RETURNDATACOPY RETURNDATASIZE PUSH0 REVERT JUMPDEST POP SWAP1 POP PUSH1 0x1 DUP2 SWAP1 DUP1 PUSH1 0x1 DUP2 SLOAD ADD DUP1 DUP3 SSTORE DUP1 SWAP2 POP POP PUSH1 0x1 SWAP1 SUB SWAP1 PUSH0 MSTORE PUSH1 0x20 PUSH0 KECCAK256 ADD PUSH0 SWAP1 SWAP2 SWAP1 SWAP2 SWAP1 SWAP2 PUSH2 0x100 EXP DUP2 SLOAD DUP2 PUSH20 0xFFFFFFFFFFFFFFFFFFFFFFFFFFFFFFFFFFFFFFFF MUL NOT AND SWAP1 DUP4 PUSH20 0xFFFFFFFFFFFFFFFFFFFFFFFFFFFFFFFFFFFFFFFF AND MUL OR SWAP1 SSTORE POP POP POP JUMP JUMPDEST PUSH1 0x2 PUSH1 0x20 MSTORE DUP1 PUSH0 MSTORE PUSH1 0x40 PUSH0 KECCAK256 PUSH0 SWAP2 POP SLOAD SWAP1 PUSH2 0x100 EXP SWAP1 DIV PUSH1 0xFF AND DUP2 JUMP JUMPDEST PUSH2 0x9D4 DUP1 PUSH3 0x9AB DUP4 CODECOPY ADD SWAP1 JUMP JUMPDEST PUSH2 0x443 DUP1 PUSH3 0x137F DUP4 CODECOPY ADD SWAP1 JUMP JUMPDEST PUSH2 0xC55 DUP1 PUSH3 0x17C2 DUP4 CODECOPY ADD SWAP1 JUMP JUMPDEST PUSH0 PUSH1 0x40 MLOAD SWAP1 POP SWAP1 JUMP JUMPDEST PUSH0 DUP1 REVERT JUMPDEST PUSH0 DUP1 REVERT JUMPDEST PUSH0 PUSH20 0xFFFFFFFFFFFFFFFFFFFFFFFFFFFFFFFFFFFFFFFF DUP3 AND SWAP1 POP SWAP2 SWAP1 POP JUMP JUMPDEST PUSH0 PUSH3 0x53C DUP3 PUSH3 0x511 JUMP JUMPDEST SWAP1 POP SWAP2 SWAP1 POP JUMP JUMPDEST PUSH3 0x54E DUP2 PUSH3 0x530 JUMP JUMPDEST DUP2 EQ PUSH3 0x559 JUMPI PUSH0 DUP1 REVERT JUMPDEST POP JUMP JUMPDEST PUSH0 DUP2 CALLDATALOAD SWAP1 POP PUSH3 0x56C DUP2 PUSH3 0x543 JUMP JUMPDEST SWAP3 SWAP2 POP POP JUMP JUMPDEST PUSH0 PUSH1 0x20 DUP3 DUP5 SUB SLT ISZERO PUSH3 0x58A JUMPI PUSH3 0x589 PUSH3 0x509 JUMP JUMPDEST JUMPDEST PUSH0 PUSH3 0x599 DUP5 DUP3 DUP6 ADD PUSH3 0x55C JUMP JUMPDEST SWAP2 POP POP SWAP3 SWAP2 POP POP JUMP JUMPDEST PUSH0 DUP2 ISZERO ISZERO SWAP1 POP SWAP2 SWAP1 POP JUMP JUMPDEST PUSH3 0x5B8 DUP2 PUSH3 0x5A2 JUMP JUMPDEST DUP3 MSTORE POP POP JUMP JUMPDEST PUSH0 PUSH1 0x20 DUP3 ADD SWAP1 POP PUSH3 0x5D3 PUSH0 DUP4 ADD DUP5 PUSH3 0x5AD JUMP JUMPDEST SWAP3 SWAP2 POP POP JUMP JUMPDEST PUSH0 DUP2 SWAP1 POP SWAP2 SWAP1 POP JUMP JUMPDEST PUSH3 0x5ED DUP2 PUSH3 0x5D9 JUMP JUMPDEST DUP2 EQ PUSH3 0x5F8 JUMPI PUSH0 DUP1 REVERT JUMPDEST POP JUMP JUMPDEST PUSH0 DUP2 CALLDATALOAD SWAP1 POP PUSH3 0x60B DUP2 PUSH3 0x5E2 JUMP JUMPDEST SWAP3 SWAP2 POP POP JUMP JUMPDEST PUSH0 PUSH1 0x20 DUP3 DUP5 SUB SLT ISZERO PUSH3 0x629 JUMPI PUSH3 0x628 PUSH3 0x509 JUMP JUMPDEST JUMPDEST PUSH0 PUSH3 0x638 DUP5 DUP3 DUP6 ADD PUSH3 0x5FB JUMP JUMPDEST SWAP2 POP POP SWAP3 SWAP2 POP POP JUMP JUMPDEST PUSH0 DUP2 SWAP1 POP SWAP2 SWAP1 POP JUMP JUMPDEST PUSH0 PUSH3 0x66A PUSH3 0x664 PUSH3 0x65E DUP5 PUSH3 0x511 JUMP JUMPDEST PUSH3 0x641 JUMP JUMPDEST PUSH3 0x511 JUMP JUMPDEST SWAP1 POP SWAP2 SWAP1 POP JUMP JUMPDEST PUSH0 PUSH3 0x67D DUP3 PUSH3 0x64A JUMP JUMPDEST SWAP1 POP SWAP2 SWAP1 POP JUMP JUMPDEST PUSH0 PUSH3 0x690 DUP3 PUSH3 0x671 JUMP JUMPDEST SWAP1 POP SWAP2 SWAP1 POP JUMP JUMPDEST PUSH3 0x6A2 DUP2 PUSH3 0x684 JUMP JUMPDEST DUP3 MSTORE POP POP JUMP JUMPDEST PUSH0 PUSH1 0x20 DUP3 ADD SWAP1 POP PUSH3 0x6BD PUSH0 DUP4 ADD DUP5 PUSH3 0x697 JUMP JUMPDEST SWAP3 SWAP2 POP POP JUMP JUMPDEST PUSH0 DUP1 REVERT JUMPDEST PUSH0 DUP1 REVERT JUMPDEST PUSH0 PUSH1 0x1F NOT PUSH1 0x1F DUP4 ADD AND SWAP1 POP SWAP2 SWAP1 POP JUMP JUMPDEST PUSH32 0x4E487B7100000000000000000000000000000000000000000000000000000000 PUSH0 MSTORE PUSH1 0x41 PUSH1 0x4 MSTORE PUSH1 0x24 PUSH0 REVERT JUMPDEST PUSH3 0x713 DUP3 PUSH3 0x6CB JUMP JUMPDEST DUP2 ADD DUP2 DUP2 LT PUSH8 0xFFFFFFFFFFFFFFFF DUP3 GT OR ISZERO PUSH3 0x735 JUMPI PUSH3 0x734 PUSH3 0x6DB JUMP JUMPDEST JUMPDEST DUP1 PUSH1 0x40 MSTORE POP POP POP JUMP JUMPDEST PUSH0 PUSH3 0x749 PUSH3 0x500 JUMP JUMPDEST SWAP1 POP PUSH3 0x757 DUP3 DUP3 PUSH3 0x708 JUMP JUMPDEST SWAP2 SWAP1 POP JUMP JUMPDEST PUSH0 PUSH8 0xFFFFFFFFFFFFFFFF DUP3 GT ISZERO PUSH3 0x779 JUMPI PUSH3 0x778 PUSH3 0x6DB JUMP JUMPDEST JUMPDEST PUSH3 0x784 DUP3 PUSH3 0x6CB JUMP JUMPDEST SWAP1 POP PUSH1 0x20 DUP2 ADD SWAP1 POP SWAP2 SWAP1 POP JUMP JUMPDEST DUP3 DUP2 DUP4 CALLDATACOPY PUSH0 DUP4 DUP4 ADD MSTORE POP POP POP JUMP JUMPDEST PUSH0 PUSH3 0x7B5 PUSH3 0x7AF DUP5 PUSH3 0x75C JUMP JUMPDEST PUSH3 0x73E JUMP JUMPDEST SWAP1 POP DUP3 DUP2 MSTORE PUSH1 0x20 DUP2 ADD DUP5 DUP5 DUP5 ADD GT ISZERO PUSH3 0x7D4 JUMPI PUSH3 0x7D3 PUSH3 0x6C7 JUMP JUMPDEST JUMPDEST PUSH3 0x7E1 DUP5 DUP3 DUP6 PUSH3 0x791 JUMP JUMPDEST POP SWAP4 SWAP3 POP POP POP JUMP JUMPDEST PUSH0 DUP3 PUSH1 0x1F DUP4 ADD SLT PUSH3 0x800 JUMPI PUSH3 0x7FF PUSH3 0x6C3 JUMP JUMPDEST JUMPDEST DUP2 CALLDATALOAD PUSH3 0x812 DUP5 DUP3 PUSH1 0x20 DUP7 ADD PUSH3 0x79F JUMP JUMPDEST SWAP2 POP POP SWAP3 SWAP2 POP POP JUMP JUMPDEST PUSH0 PUSH1 0x20 DUP3 DUP5 SUB SLT ISZERO PUSH3 0x833 JUMPI PUSH3 0x832 PUSH3 0x509 JUMP JUMPDEST JUMPDEST PUSH0 DUP3 ADD CALLDATALOAD PUSH8 0xFFFFFFFFFFFFFFFF DUP2 GT ISZERO PUSH3 0x853 JUMPI PUSH3 0x852 PUSH3 0x50D JUMP JUMPDEST JUMPDEST PUSH3 0x861 DUP5 DUP3 DUP6 ADD PUSH3 0x7E9 JUMP JUMPDEST SWAP2 POP POP SWAP3 SWAP2 POP POP JUMP JUMPDEST PUSH0 DUP3 DUP3 MSTORE PUSH1 0x20 DUP3 ADD SWAP1 POP SWAP3 SWAP2 POP POP JUMP JUMPDEST PUSH32 0x596F7520617265206E6F742061206F776E657200000000000000000000000000 PUSH0 DUP3 ADD MSTORE POP JUMP JUMPDEST PUSH0 PUSH3 0x8B0 PUSH1 0x13 DUP4 PUSH3 0x86A JUMP JUMPDEST SWAP2 POP PUSH3 0x8BD DUP3 PUSH3 0x87A JUMP JUMPDEST PUSH1 0x20 DUP3 ADD SWAP1 POP SWAP2 SWAP1 POP JUMP JUMPDEST PUSH0 PUSH1 0x20 DUP3 ADD SWAP1 POP DUP2 DUP2 SUB PUSH0 DUP4 ADD MSTORE PUSH3 0x8E1 DUP2 PUSH3 0x8A2 JUMP JUMPDEST SWAP1 POP SWAP2 SWAP1 POP JUMP JUMPDEST PUSH0 DUP2 MLOAD SWAP1 POP SWAP2 SWAP1 POP JUMP JUMPDEST PUSH0 JUMPDEST DUP4 DUP2 LT ISZERO PUSH3 0x911 JUMPI DUP1 DUP3 ADD MLOAD DUP2 DUP5 ADD MSTORE PUSH1 0x20 DUP2 ADD SWAP1 POP PUSH3 0x8F4 JUMP JUMPDEST PUSH0 DUP5 DUP5 ADD MSTORE POP POP POP POP JUMP JUMPDEST PUSH0 PUSH3 0x928 DUP3 PUSH3 0x8E8 JUMP JUMPDEST PUSH3 0x934 DUP2 DUP6 PUSH3 0x86A JUMP JUMPDEST SWAP4 POP PUSH3 0x946 DUP2 DUP6 PUSH1 0x20 DUP7 ADD PUSH3 0x8F2 JUMP JUMPDEST PUSH3 0x951 DUP2 PUSH3 0x6CB JUMP JUMPDEST DUP5 ADD SWAP2 POP POP SWAP3 SWAP2 POP POP JUMP JUMPDEST PUSH0 PUSH1 0x20 DUP3 ADD SWAP1 POP DUP2 DUP2 SUB PUSH0 DUP4 ADD MSTORE PUSH3 0x976 DUP2 DUP5 PUSH3 0x91C JUMP JUMPDEST SWAP1 POP SWAP3 SWAP2 POP POP JUMP JUMPDEST PUSH3 0x989 DUP2 PUSH3 0x530 JUMP JUMPDEST DUP3 MSTORE POP POP JUMP JUMPDEST PUSH0 PUSH1 0x20 DUP3 ADD SWAP1 POP PUSH3 0x9A4 PUSH0 DUP4 ADD DUP5 PUSH3 0x97E JUMP JUMPDEST SWAP3 SWAP2 POP POP JUMP INVALID PUSH1 0x80 PUSH1 0x40 MSTORE CALLVALUE DUP1 ISZERO PUSH3 0x10 JUMPI PUSH0 DUP1 REVERT JUMPDEST POP PUSH1 0x40 MLOAD PUSH3 0x9D4 CODESIZE SUB DUP1 PUSH3 0x9D4 DUP4 CODECOPY DUP2 DUP2 ADD PUSH1 0x40 MSTORE DUP2 ADD SWAP1 PUSH3 0x36 SWAP2 SWAP1 PUSH3 0x21A JUMP JUMPDEST TIMESTAMP PUSH0 DUP2 SWAP1 SSTORE POP CALLER PUSH1 0x2 PUSH0 PUSH2 0x100 EXP DUP2 SLOAD DUP2 PUSH20 0xFFFFFFFFFFFFFFFFFFFFFFFFFFFFFFFFFFFFFFFF MUL NOT AND SWAP1 DUP4 PUSH20 0xFFFFFFFFFFFFFFFFFFFFFFFFFFFFFFFFFFFFFFFF AND MUL OR SWAP1 SSTORE POP DUP1 PUSH1 0x1 SWAP1 DUP2 PUSH3 0x8D SWAP2 SWAP1 PUSH3 0x4A0 JUMP JUMPDEST POP POP PUSH3 0x584 JUMP JUMPDEST PUSH0 PUSH1 0x40 MLOAD SWAP1 POP SWAP1 JUMP JUMPDEST PUSH0 DUP1 REVERT JUMPDEST PUSH0 DUP1 REVERT JUMPDEST PUSH0 DUP1 REVERT JUMPDEST PUSH0 DUP1 REVERT JUMPDEST PUSH0 PUSH1 0x1F NOT PUSH1 0x1F DUP4 ADD AND SWAP1 POP SWAP2 SWAP1 POP JUMP JUMPDEST PUSH32 0x4E487B7100000000000000000000000000000000000000000000000000000000 PUSH0 MSTORE PUSH1 0x41 PUSH1 0x4 MSTORE PUSH1 0x24 PUSH0 REVERT JUMPDEST PUSH3 0xF6 DUP3 PUSH3 0xAE JUMP JUMPDEST DUP2 ADD DUP2 DUP2 LT PUSH8 0xFFFFFFFFFFFFFFFF DUP3 GT OR ISZERO PUSH3 0x118 JUMPI PUSH3 0x117 PUSH3 0xBE JUMP JUMPDEST JUMPDEST DUP1 PUSH1 0x40 MSTORE POP POP POP JUMP JUMPDEST PUSH0 PUSH3 0x12C PUSH3 0x95 JUMP JUMPDEST SWAP1 POP PUSH3 0x13A DUP3 DUP3 PUSH3 0xEB JUMP JUMPDEST SWAP2 SWAP1 POP JUMP JUMPDEST PUSH0 PUSH8 0xFFFFFFFFFFFFFFFF DUP3 GT ISZERO PUSH3 0x15C JUMPI PUSH3 0x15B PUSH3 0xBE JUMP JUMPDEST JUMPDEST PUSH3 0x167 DUP3 PUSH3 0xAE JUMP JUMPDEST SWAP1 POP PUSH1 0x20 DUP2 ADD SWAP1 POP SWAP2 SWAP1 POP JUMP JUMPDEST PUSH0 JUMPDEST DUP4 DUP2 LT ISZERO PUSH3 0x193 JUMPI DUP1 DUP3 ADD MLOAD DUP2 DUP5 ADD MSTORE PUSH1 0x20 DUP2 ADD SWAP1 POP PUSH3 0x176 JUMP JUMPDEST PUSH0 DUP5 DUP5 ADD MSTORE POP POP POP POP JUMP JUMPDEST PUSH0 PUSH3 0x1B4 PUSH3 0x1AE DUP5 PUSH3 0x13F JUMP JUMPDEST PUSH3 0x121 JUMP JUMPDEST SWAP1 POP DUP3 DUP2 MSTORE PUSH1 0x20 DUP2 ADD DUP5 DUP5 DUP5 ADD GT ISZERO PUSH3 0x1D3 JUMPI PUSH3 0x1D2 PUSH3 0xAA JUMP JUMPDEST JUMPDEST PUSH3 0x1E0 DUP5 DUP3 DUP6 PUSH3 0x174 JUMP JUMPDEST POP SWAP4 SWAP3 POP POP POP JUMP JUMPDEST PUSH0 DUP3 PUSH1 0x1F DUP4 ADD SLT PUSH3 0x1FF JUMPI PUSH3 0x1FE PUSH3 0xA6 JUMP JUMPDEST JUMPDEST DUP2 MLOAD PUSH3 0x211 DUP5 DUP3 PUSH1 0x20 DUP7 ADD PUSH3 0x19E JUMP JUMPDEST SWAP2 POP POP SWAP3 SWAP2 POP POP JUMP JUMPDEST PUSH0 PUSH1 0x20 DUP3 DUP5 SUB SLT ISZERO PUSH3 0x232 JUMPI PUSH3 0x231 PUSH3 0x9E JUMP JUMPDEST JUMPDEST PUSH0 DUP3 ADD MLOAD PUSH8 0xFFFFFFFFFFFFFFFF DUP2 GT ISZERO PUSH3 0x252 JUMPI PUSH3 0x251 PUSH3 0xA2 JUMP JUMPDEST JUMPDEST PUSH3 0x260 DUP5 DUP3 DUP6 ADD PUSH3 0x1E8 JUMP JUMPDEST SWAP2 POP POP SWAP3 SWAP2 POP POP JUMP JUMPDEST PUSH0 DUP2 MLOAD SWAP1 POP SWAP2 SWAP1 POP JUMP JUMPDEST PUSH32 0x4E487B7100000000000000000000000000000000000000000000000000000000 PUSH0 MSTORE PUSH1 0x22 PUSH1 0x4 MSTORE PUSH1 0x24 PUSH0 REVERT JUMPDEST PUSH0 PUSH1 0x2 DUP3 DIV SWAP1 POP PUSH1 0x1 DUP3 AND DUP1 PUSH3 0x2B8 JUMPI PUSH1 0x7F DUP3 AND SWAP2 POP JUMPDEST PUSH1 0x20 DUP3 LT DUP2 SUB PUSH3 0x2CE JUMPI PUSH3 0x2CD PUSH3 0x273 JUMP JUMPDEST JUMPDEST POP SWAP2 SWAP1 POP JUMP JUMPDEST PUSH0 DUP2 SWAP1 POP DUP2 PUSH0 MSTORE PUSH1 0x20 PUSH0 KECCAK256 SWAP1 POP SWAP2 SWAP1 POP JUMP JUMPDEST PUSH0 PUSH1 0x20 PUSH1 0x1F DUP4 ADD DIV SWAP1 POP SWAP2 SWAP1 POP JUMP JUMPDEST PUSH0 DUP3 DUP3 SHL SWAP1 POP SWAP3 SWAP2 POP POP JUMP JUMPDEST PUSH0 PUSH1 0x8 DUP4 MUL PUSH3 0x332 PUSH32 0xFFFFFFFFFFFFFFFFFFFFFFFFFFFFFFFFFFFFFFFFFFFFFFFFFFFFFFFFFFFFFFFF DUP3 PUSH3 0x2F5 JUMP JUMPDEST PUSH3 0x33E DUP7 DUP4 PUSH3 0x2F5 JUMP JUMPDEST SWAP6 POP DUP1 NOT DUP5 AND SWAP4 POP DUP1 DUP7 AND DUP5 OR SWAP3 POP POP POP SWAP4 SWAP3 POP POP POP JUMP JUMPDEST PUSH0 DUP2 SWAP1 POP SWAP2 SWAP1 POP JUMP JUMPDEST PUSH0 DUP2 SWAP1 POP SWAP2 SWAP1 POP JUMP JUMPDEST PUSH0 PUSH3 0x388 PUSH3 0x382 PUSH3 0x37C DUP5 PUSH3 0x356 JUMP JUMPDEST PUSH3 0x35F JUMP JUMPDEST PUSH3 0x356 JUMP JUMPDEST SWAP1 POP SWAP2 SWAP1 POP JUMP JUMPDEST PUSH0 DUP2 SWAP1 POP SWAP2 SWAP1 POP JUMP JUMPDEST PUSH3 0x3A3 DUP4 PUSH3 0x368 JUMP JUMPDEST PUSH3 0x3BB PUSH3 0x3B2 DUP3 PUSH3 0x38F JUMP JUMPDEST DUP5 DUP5 SLOAD PUSH3 0x301 JUMP JUMPDEST DUP3 SSTORE POP POP POP POP JUMP JUMPDEST PUSH0 SWAP1 JUMP JUMPDEST PUSH3 0x3D1 PUSH3 0x3C3 JUMP JUMPDEST PUSH3 0x3DE DUP2 DUP5 DUP5 PUSH3 0x398 JUMP JUMPDEST POP POP POP JUMP JUMPDEST JUMPDEST DUP2 DUP2 LT ISZERO PUSH3 0x405 JUMPI PUSH3 0x3F9 PUSH0 DUP3 PUSH3 0x3C7 JUMP JUMPDEST PUSH1 0x1 DUP2 ADD SWAP1 POP PUSH3 0x3E4 JUMP JUMPDEST POP POP JUMP JUMPDEST PUSH1 0x1F DUP3 GT ISZERO PUSH3 0x454 JUMPI PUSH3 0x41E DUP2 PUSH3 0x2D4 JUMP JUMPDEST PUSH3 0x429 DUP5 PUSH3 0x2E6 JUMP JUMPDEST DUP2 ADD PUSH1 0x20 DUP6 LT ISZERO PUSH3 0x439 JUMPI DUP2 SWAP1 POP JUMPDEST PUSH3 0x451 PUSH3 0x448 DUP6 PUSH3 0x2E6 JUMP JUMPDEST DUP4 ADD DUP3 PUSH3 0x3E3 JUMP JUMPDEST POP POP JUMPDEST POP POP POP JUMP JUMPDEST PUSH0 DUP3 DUP3 SHR SWAP1 POP SWAP3 SWAP2 POP POP JUMP JUMPDEST PUSH0 PUSH3 0x476 PUSH0 NOT DUP5 PUSH1 0x8 MUL PUSH3 0x459 JUMP JUMPDEST NOT DUP1 DUP4 AND SWAP2 POP POP SWAP3 SWAP2 POP POP JUMP JUMPDEST PUSH0 PUSH3 0x490 DUP4 DUP4 PUSH3 0x465 JUMP JUMPDEST SWAP2 POP DUP3 PUSH1 0x2 MUL DUP3 OR SWAP1 POP SWAP3 SWAP2 POP POP JUMP JUMPDEST PUSH3 0x4AB DUP3 PUSH3 0x269 JUMP JUMPDEST PUSH8 0xFFFFFFFFFFFFFFFF DUP2 GT ISZERO PUSH3 0x4C7 JUMPI PUSH3 0x4C6 PUSH3 0xBE JUMP JUMPDEST JUMPDEST PUSH3 0x4D3 DUP3 SLOAD PUSH3 0x2A0 JUMP JUMPDEST PUSH3 0x4E0 DUP3 DUP3 DUP6 PUSH3 0x409 JUMP JUMPDEST PUSH0 PUSH1 0x20 SWAP1 POP PUSH1 0x1F DUP4 GT PUSH1 0x1 DUP2 EQ PUSH3 0x516 JUMPI PUSH0 DUP5 ISZERO PUSH3 0x501 JUMPI DUP3 DUP8 ADD MLOAD SWAP1 POP JUMPDEST PUSH3 0x50D DUP6 DUP3 PUSH3 0x483 JUMP JUMPDEST DUP7 SSTORE POP PUSH3 0x57C JUMP JUMPDEST PUSH1 0x1F NOT DUP5 AND PUSH3 0x526 DUP7 PUSH3 0x2D4 JUMP JUMPDEST PUSH0 JUMPDEST DUP3 DUP2 LT ISZERO PUSH3 0x54F JUMPI DUP5 DUP10 ADD MLOAD DUP3 SSTORE PUSH1 0x1 DUP3 ADD SWAP2 POP PUSH1 0x20 DUP6 ADD SWAP5 POP PUSH1 0x20 DUP2 ADD SWAP1 POP PUSH3 0x528 JUMP JUMPDEST DUP7 DUP4 LT ISZERO PUSH3 0x56F JUMPI DUP5 DUP10 ADD MLOAD PUSH3 0x56B PUSH1 0x1F DUP10 AND DUP3 PUSH3 0x465 JUMP JUMPDEST DUP4 SSTORE POP JUMPDEST PUSH1 0x1 PUSH1 0x2 DUP9 MUL ADD DUP9 SSTORE POP POP POP JUMPDEST POP POP POP POP POP POP JUMP JUMPDEST PUSH2 0x442 DUP1 PUSH3 0x592 PUSH0 CODECOPY PUSH0 RETURN INVALID PUSH1 0x80 PUSH1 0x40 MSTORE CALLVALUE DUP1 ISZERO PUSH2 0xF JUMPI PUSH0 DUP1 REVERT JUMPDEST POP PUSH1 0x4 CALLDATASIZE LT PUSH2 0x55 JUMPI PUSH0 CALLDATALOAD PUSH1 0xE0 SHR DUP1 PUSH4 0x781F5C9 EQ PUSH2 0x59 JUMPI DUP1 PUSH4 0x13AF4035 EQ PUSH2 0x77 JUMPI DUP1 PUSH4 0x1DCD69EC EQ PUSH2 0x93 JUMPI DUP1 PUSH4 0x8DA5CB5B EQ PUSH2 0xB1 JUMPI DUP1 PUSH4 0xC2FB26A6 EQ PUSH2 0xCF JUMPI JUMPDEST PUSH0 DUP1 REVERT JUMPDEST PUSH2 0x61 PUSH2 0xED JUMP JUMPDEST PUSH1 0x40 MLOAD PUSH2 0x6E SWAP2 SWAP1 PUSH2 0x2AD JUMP JUMPDEST PUSH1 0x40 MLOAD DUP1 SWAP2 SUB SWAP1 RETURN JUMPDEST PUSH2 0x91 PUSH1 0x4 DUP1 CALLDATASIZE SUB DUP2 ADD SWAP1 PUSH2 0x8C SWAP2 SWAP1 PUSH2 0x32B JUMP JUMPDEST PUSH2 0x12A JUMP JUMPDEST STOP JUMPDEST PUSH2 0x9B PUSH2 0x16D JUMP JUMPDEST PUSH1 0x40 MLOAD PUSH2 0xA8 SWAP2 SWAP1 PUSH2 0x36E JUMP JUMPDEST PUSH1 0x40 MLOAD DUP1 SWAP2 SUB SWAP1 RETURN JUMPDEST PUSH2 0xB9 PUSH2 0x172 JUMP JUMPDEST PUSH1 0x40 MLOAD PUSH2 0xC6 SWAP2 SWAP1 PUSH2 0x396 JUMP JUMPDEST PUSH1 0x40 MLOAD DUP1 SWAP2 SUB SWAP1 RETURN JUMPDEST PUSH2 0xD7 PUSH2 0x197 JUMP JUMPDEST PUSH1 0x40 MLOAD PUSH2 0xE4 SWAP2 SWAP1 PUSH2 0x2AD JUMP JUMPDEST PUSH1 0x40 MLOAD DUP1 SWAP2 SUB SWAP1 RETURN JUMPDEST PUSH1 0x60 PUSH1 0x40 MLOAD DUP1 PUSH1 0x40 ADD PUSH1 0x40 MSTORE DUP1 PUSH1 0x3 DUP2 MSTORE PUSH1 0x20 ADD PUSH32 0x656E730000000000000000000000000000000000000000000000000000000000 DUP2 MSTORE POP SWAP1 POP SWAP1 JUMP JUMPDEST DUP1 PUSH1 0x2 PUSH0 PUSH2 0x100 EXP DUP2 SLOAD DUP2 PUSH20 0xFFFFFFFFFFFFFFFFFFFFFFFFFFFFFFFFFFFFFFFF MUL NOT AND SWAP1 DUP4 PUSH20 0xFFFFFFFFFFFFFFFFFFFFFFFFFFFFFFFFFFFFFFFF AND MUL OR SWAP1 SSTORE POP POP JUMP JUMPDEST PUSH0 SLOAD DUP2 JUMP JUMPDEST PUSH1 0x2 PUSH0 SWAP1 SLOAD SWAP1 PUSH2 0x100 EXP SWAP1 DIV PUSH20 0xFFFFFFFFFFFFFFFFFFFFFFFFFFFFFFFFFFFFFFFF AND DUP2 JUMP JUMPDEST PUSH1 0x1 DUP1 SLOAD PUSH2 0x1A4 SWAP1 PUSH2 0x3DC JUMP JUMPDEST DUP1 PUSH1 0x1F ADD PUSH1 0x20 DUP1 SWAP2 DIV MUL PUSH1 0x20 ADD PUSH1 0x40 MLOAD SWAP1 DUP2 ADD PUSH1 0x40 MSTORE DUP1 SWAP3 SWAP2 SWAP1 DUP2 DUP2 MSTORE PUSH1 0x20 ADD DUP3 DUP1 SLOAD PUSH2 0x1D0 SWAP1 PUSH2 0x3DC JUMP JUMPDEST DUP1 ISZERO PUSH2 0x21B JUMPI DUP1 PUSH1 0x1F LT PUSH2 0x1F2 JUMPI PUSH2 0x100 DUP1 DUP4 SLOAD DIV MUL DUP4 MSTORE SWAP2 PUSH1 0x20 ADD SWAP2 PUSH2 0x21B JUMP JUMPDEST DUP3 ADD SWAP2 SWAP1 PUSH0 MSTORE PUSH1 0x20 PUSH0 KECCAK256 SWAP1 JUMPDEST DUP2 SLOAD DUP2 MSTORE SWAP1 PUSH1 0x1 ADD SWAP1 PUSH1 0x20 ADD DUP1 DUP4 GT PUSH2 0x1FE JUMPI DUP3 SWAP1 SUB PUSH1 0x1F AND DUP3 ADD SWAP2 JUMPDEST POP POP POP POP POP DUP2 JUMP JUMPDEST PUSH0 DUP2 MLOAD SWAP1 POP SWAP2 SWAP1 POP JUMP JUMPDEST PUSH0 DUP3 DUP3 MSTORE PUSH1 0x20 DUP3 ADD SWAP1 POP SWAP3 SWAP2 POP POP JUMP JUMPDEST PUSH0 JUMPDEST DUP4 DUP2 LT ISZERO PUSH2 0x25A JUMPI DUP1 DUP3 ADD MLOAD DUP2 DUP5 ADD MSTORE PUSH1 0x20 DUP2 ADD SWAP1 POP PUSH2 0x23F JUMP JUMPDEST PUSH0 DUP5 DUP5 ADD MSTORE POP POP POP POP JUMP JUMPDEST PUSH0 PUSH1 0x1F NOT PUSH1 0x1F DUP4 ADD AND SWAP1 POP SWAP2 SWAP1 POP JUMP JUMPDEST PUSH0 PUSH2 0x27F DUP3 PUSH2 0x223 JUMP JUMPDEST PUSH2 0x289 DUP2 DUP6 PUSH2 0x22D JUMP JUMPDEST SWAP4 POP PUSH2 0x299 DUP2 DUP6 PUSH1 0x20 DUP7 ADD PUSH2 0x23D JUMP JUMPDEST PUSH2 0x2A2 DUP2 PUSH2 0x265 JUMP JUMPDEST DUP5 ADD SWAP2 POP POP SWAP3 SWAP2 POP POP JUMP JUMPDEST PUSH0 PUSH1 0x20 DUP3 ADD SWAP1 POP DUP2 DUP2 SUB PUSH0 DUP4 ADD MSTORE PUSH2 0x2C5 DUP2 DUP5 PUSH2 0x275 JUMP JUMPDEST SWAP1 POP SWAP3 SWAP2 POP POP JUMP JUMPDEST PUSH0 DUP1 REVERT JUMPDEST PUSH0 PUSH20 0xFFFFFFFFFFFFFFFFFFFFFFFFFFFFFFFFFFFFFFFF DUP3 AND SWAP1 POP SWAP2 SWAP1 POP JUMP JUMPDEST PUSH0 PUSH2 0x2FA DUP3 PUSH2 0x2D1 JUMP JUMPDEST SWAP1 POP SWAP2 SWAP1 POP JUMP JUMPDEST PUSH2 0x30A DUP2 PUSH2 0x2F0 JUMP JUMPDEST DUP2 EQ PUSH2 0x314 JUMPI PUSH0 DUP1 REVERT JUMPDEST POP JUMP JUMPDEST PUSH0 DUP2 CALLDATALOAD SWAP1 POP PUSH2 0x325 DUP2 PUSH2 0x301 JUMP JUMPDEST SWAP3 SWAP2 POP POP JUMP JUMPDEST PUSH0 PUSH1 0x20 DUP3 DUP5 SUB SLT ISZERO PUSH2 0x340 JUMPI PUSH2 0x33F PUSH2 0x2CD JUMP JUMPDEST JUMPDEST PUSH0 PUSH2 0x34D DUP5 DUP3 DUP6 ADD PUSH2 0x317 JUMP JUMPDEST SWAP2 POP POP SWAP3 SWAP2 POP POP JUMP JUMPDEST PUSH0 DUP2 SWAP1 POP SWAP2 SWAP1 POP JUMP JUMPDEST PUSH2 0x368 DUP2 PUSH2 0x356 JUMP JUMPDEST DUP3 MSTORE POP POP JUMP JUMPDEST PUSH0 PUSH1 0x20 DUP3 ADD SWAP1 POP PUSH2 0x381 PUSH0 DUP4 ADD DUP5 PUSH2 0x35F JUMP JUMPDEST SWAP3 SWAP2 POP POP JUMP JUMPDEST PUSH2 0x390 DUP2 PUSH2 0x2F0 JUMP JUMPDEST DUP3 MSTORE POP POP JUMP JUMPDEST PUSH0 PUSH1 0x20 DUP3 ADD SWAP1 POP PUSH2 0x3A9 PUSH0 DUP4 ADD DUP5 PUSH2 0x387 JUMP JUMPDEST SWAP3 SWAP2 POP POP JUMP JUMPDEST PUSH32 0x4E487B7100000000000000000000000000000000000000000000000000000000 PUSH0 MSTORE PUSH1 0x22 PUSH1 0x4 MSTORE PUSH1 0x24 PUSH0 REVERT JUMPDEST PUSH0 PUSH1 0x2 DUP3 DIV SWAP1 POP PUSH1 0x1 DUP3 AND DUP1 PUSH2 0x3F3 JUMPI PUSH1 0x7F DUP3 AND SWAP2 POP JUMPDEST PUSH1 0x20 DUP3 LT DUP2 SUB PUSH2 0x406 JUMPI PUSH2 0x405 PUSH2 0x3AF JUMP JUMPDEST JUMPDEST POP SWAP2 SWAP1 POP JUMP INVALID LOG2 PUSH5 0x6970667358 0x22 SLT KECCAK256 CODESIZE RETURNDATASIZE SWAP9 0xE2 0xB8 0x4D 0xA5 0x26 DUP11 0xD9 0xA7 ADDRESS 0xB1 DUP11 SWAP7 MSIZE 0xC8 DUP13 0x2D 0x2A PUSH3 0x513DEA 0xC7 PUSH21 0xD920E74E9ADD64736F6C6343000816003360806040 MSTORE CALLVALUE DUP1 ISZERO PUSH2 0xF JUMPI PUSH0 DUP1 REVERT JUMPDEST POP PUSH1 0x40 MLOAD PUSH2 0x443 CODESIZE SUB DUP1 PUSH2 0x443 DUP4 CODECOPY DUP2 DUP2 ADD PUSH1 0x40 MSTORE DUP2 ADD SWAP1 PUSH2 0x31 SWAP2 SWAP1 PUSH2 0xDB JUMP JUMPDEST TIMESTAMP PUSH0 DUP2 SWAP1 SSTORE POP DUP1 PUSH1 0x1 PUSH0 PUSH2 0x100 EXP DUP2 SLOAD DUP2 PUSH20 0xFFFFFFFFFFFFFFFFFFFFFFFFFFFFFFFFFFFFFFFF MUL NOT AND SWAP1 DUP4 PUSH20 0xFFFFFFFFFFFFFFFFFFFFFFFFFFFFFFFFFFFFFFFF AND MUL OR SWAP1 SSTORE POP POP PUSH2 0x106 JUMP JUMPDEST PUSH0 DUP1 REVERT JUMPDEST PUSH0 PUSH20 0xFFFFFFFFFFFFFFFFFFFFFFFFFFFFFFFFFFFFFFFF DUP3 AND SWAP1 POP SWAP2 SWAP1 POP JUMP JUMPDEST PUSH0 PUSH2 0xAA DUP3 PUSH2 0x81 JUMP JUMPDEST SWAP1 POP SWAP2 SWAP1 POP JUMP JUMPDEST PUSH2 0xBA DUP2 PUSH2 0xA0 JUMP JUMPDEST DUP2 EQ PUSH2 0xC4 JUMPI PUSH0 DUP1 REVERT JUMPDEST POP JUMP JUMPDEST PUSH0 DUP2 MLOAD SWAP1 POP PUSH2 0xD5 DUP2 PUSH2 0xB1 JUMP JUMPDEST SWAP3 SWAP2 POP POP JUMP JUMPDEST PUSH0 PUSH1 0x20 DUP3 DUP5 SUB SLT ISZERO PUSH2 0xF0 JUMPI PUSH2 0xEF PUSH2 0x7D JUMP JUMPDEST JUMPDEST PUSH0 PUSH2 0xFD DUP5 DUP3 DUP6 ADD PUSH2 0xC7 JUMP JUMPDEST SWAP2 POP POP SWAP3 SWAP2 POP POP JUMP JUMPDEST PUSH2 0x330 DUP1 PUSH2 0x113 PUSH0 CODECOPY PUSH0 RETURN INVALID PUSH1 0x80 PUSH1 0x40 MSTORE CALLVALUE DUP1 ISZERO PUSH2 0xF JUMPI PUSH0 DUP1 REVERT JUMPDEST POP PUSH1 0x4 CALLDATASIZE LT PUSH2 0x4A JUMPI PUSH0 CALLDATALOAD PUSH1 0xE0 SHR DUP1 PUSH4 0x781F5C9 EQ PUSH2 0x4E JUMPI DUP1 PUSH4 0x1DCD69EC EQ PUSH2 0x6C JUMPI DUP1 PUSH4 0x266CF109 EQ PUSH2 0x8A JUMPI DUP1 PUSH4 0xC37787D9 EQ PUSH2 0xA8 JUMPI JUMPDEST PUSH0 DUP1 REVERT JUMPDEST PUSH2 0x56 PUSH2 0xC4 JUMP JUMPDEST PUSH1 0x40 MLOAD PUSH2 0x63 SWAP2 SWAP1 PUSH2 0x1F8 JUMP JUMPDEST PUSH1 0x40 MLOAD DUP1 SWAP2 SUB SWAP1 RETURN JUMPDEST PUSH2 0x74 PUSH2 0x101 JUMP JUMPDEST PUSH1 0x40 MLOAD PUSH2 0x81 SWAP2 SWAP1 PUSH2 0x230 JUMP JUMPDEST PUSH1 0x40 MLOAD DUP1 SWAP2 SUB SWAP1 RETURN JUMPDEST PUSH2 0x92 PUSH2 0x106 JUMP JUMPDEST PUSH1 0x40 MLOAD PUSH2 0x9F SWAP2 SWAP1 PUSH2 0x288 JUMP JUMPDEST PUSH1 0x40 MLOAD DUP1 SWAP2 SUB SWAP1 RETURN JUMPDEST PUSH2 0xC2 PUSH1 0x4 DUP1 CALLDATASIZE SUB DUP2 ADD SWAP1 PUSH2 0xBD SWAP2 SWAP1 PUSH2 0x2CF JUMP JUMPDEST PUSH2 0x12B JUMP JUMPDEST STOP JUMPDEST PUSH1 0x60 PUSH1 0x40 MLOAD DUP1 PUSH1 0x40 ADD PUSH1 0x40 MSTORE DUP1 PUSH1 0x7 DUP2 MSTORE PUSH1 0x20 ADD PUSH32 0x6164647265737300000000000000000000000000000000000000000000000000 DUP2 MSTORE POP SWAP1 POP SWAP1 JUMP JUMPDEST PUSH0 SLOAD DUP2 JUMP JUMPDEST PUSH1 0x1 PUSH0 SWAP1 SLOAD SWAP1 PUSH2 0x100 EXP SWAP1 DIV PUSH20 0xFFFFFFFFFFFFFFFFFFFFFFFFFFFFFFFFFFFFFFFF AND DUP2 JUMP JUMPDEST DUP1 PUSH1 0x1 PUSH0 PUSH2 0x100 EXP DUP2 SLOAD DUP2 PUSH20 0xFFFFFFFFFFFFFFFFFFFFFFFFFFFFFFFFFFFFFFFF MUL NOT AND SWAP1 DUP4 PUSH20 0xFFFFFFFFFFFFFFFFFFFFFFFFFFFFFFFFFFFFFFFF AND MUL OR SWAP1 SSTORE POP POP JUMP JUMPDEST PUSH0 DUP2 MLOAD SWAP1 POP SWAP2 SWAP1 POP JUMP JUMPDEST PUSH0 DUP3 DUP3 MSTORE PUSH1 0x20 DUP3 ADD SWAP1 POP SWAP3 SWAP2 POP POP JUMP JUMPDEST PUSH0 JUMPDEST DUP4 DUP2 LT ISZERO PUSH2 0x1A5 JUMPI DUP1 DUP3 ADD MLOAD DUP2 DUP5 ADD MSTORE PUSH1 0x20 DUP2 ADD SWAP1 POP PUSH2 0x18A JUMP JUMPDEST PUSH0 DUP5 DUP5 ADD MSTORE POP POP POP POP JUMP JUMPDEST PUSH0 PUSH1 0x1F NOT PUSH1 0x1F DUP4 ADD AND SWAP1 POP SWAP2 SWAP1 POP JUMP JUMPDEST PUSH0 PUSH2 0x1CA DUP3 PUSH2 0x16E JUMP JUMPDEST PUSH2 0x1D4 DUP2 DUP6 PUSH2 0x178 JUMP JUMPDEST SWAP4 POP PUSH2 0x1E4 DUP2 DUP6 PUSH1 0x20 DUP7 ADD PUSH2 0x188 JUMP JUMPDEST PUSH2 0x1ED DUP2 PUSH2 0x1B0 JUMP JUMPDEST DUP5 ADD SWAP2 POP POP SWAP3 SWAP2 POP POP JUMP JUMPDEST PUSH0 PUSH1 0x20 DUP3 ADD SWAP1 POP DUP2 DUP2 SUB PUSH0 DUP4 ADD MSTORE PUSH2 0x210 DUP2 DUP5 PUSH2 0x1C0 JUMP JUMPDEST SWAP1 POP SWAP3 SWAP2 POP POP JUMP JUMPDEST PUSH0 DUP2 SWAP1 POP SWAP2 SWAP1 POP JUMP JUMPDEST PUSH2 0x22A DUP2 PUSH2 0x218 JUMP JUMPDEST DUP3 MSTORE POP POP JUMP JUMPDEST PUSH0 PUSH1 0x20 DUP3 ADD SWAP1 POP PUSH2 0x243 PUSH0 DUP4 ADD DUP5 PUSH2 0x221 JUMP JUMPDEST SWAP3 SWAP2 POP POP JUMP JUMPDEST PUSH0 PUSH20 0xFFFFFFFFFFFFFFFFFFFFFFFFFFFFFFFFFFFFFFFF DUP3 AND SWAP1 POP SWAP2 SWAP1 POP JUMP JUMPDEST PUSH0 PUSH2 0x272 DUP3 PUSH2 0x249 JUMP JUMPDEST SWAP1 POP SWAP2 SWAP1 POP JUMP JUMPDEST PUSH2 0x282 DUP2 PUSH2 0x268 JUMP JUMPDEST DUP3 MSTORE POP POP JUMP JUMPDEST PUSH0 PUSH1 0x20 DUP3 ADD SWAP1 POP PUSH2 0x29B PUSH0 DUP4 ADD DUP5 PUSH2 0x279 JUMP JUMPDEST SWAP3 SWAP2 POP POP JUMP JUMPDEST PUSH0 DUP1 REVERT JUMPDEST PUSH2 0x2AE DUP2 PUSH2 0x268 JUMP JUMPDEST DUP2 EQ PUSH2 0x2B8 JUMPI PUSH0 DUP1 REVERT JUMPDEST POP JUMP JUMPDEST PUSH0 DUP2 CALLDATALOAD SWAP1 POP PUSH2 0x2C9 DUP2 PUSH2 0x2A5 JUMP JUMPDEST SWAP3 SWAP2 POP POP JUMP JUMPDEST PUSH0 PUSH1 0x20 DUP3 DUP5 SUB SLT ISZERO PUSH2 0x2E4 JUMPI PUSH2 0x2E3 PUSH2 0x2A1 JUMP JUMPDEST JUMPDEST PUSH0 PUSH2 0x2F1 DUP5 DUP3 DUP6 ADD PUSH2 0x2BB JUMP JUMPDEST SWAP2 POP POP SWAP3 SWAP2 POP POP JUMP INVALID LOG2 PUSH5 0x6970667358 0x22 SLT KECCAK256 SHL 0xBB ORIGIN SWAP8 0xFB BALANCE DUP6 NOT 0xAC 0xEB 0xDC 0xAC 0xF9 0x4A JUMP 0x2C 0x2B AND 0xB0 PUSH20 0xB3058400BB84541B22A7218B64736F6C63430008 AND STOP CALLER PUSH1 0x80 PUSH1 0x40 MSTORE CALLVALUE DUP1 ISZERO PUSH3 0x10 JUMPI PUSH0 DUP1 REVERT JUMPDEST POP PUSH1 0x40 MLOAD PUSH3 0xC55 CODESIZE SUB DUP1 PUSH3 0xC55 DUP4 CODECOPY DUP2 DUP2 ADD PUSH1 0x40 MSTORE DUP2 ADD SWAP1 PUSH3 0x36 SWAP2 SWAP1 PUSH3 0x1DA JUMP JUMPDEST TIMESTAMP PUSH0 DUP2 SWAP1 SSTORE POP DUP1 PUSH1 0x1 SWAP1 DUP2 PUSH3 0x4D SWAP2 SWAP1 PUSH3 0x460 JUMP JUMPDEST POP POP PUSH3 0x544 JUMP JUMPDEST PUSH0 PUSH1 0x40 MLOAD SWAP1 POP SWAP1 JUMP JUMPDEST PUSH0 DUP1 REVERT JUMPDEST PUSH0 DUP1 REVERT JUMPDEST PUSH0 DUP1 REVERT JUMPDEST PUSH0 DUP1 REVERT JUMPDEST PUSH0 PUSH1 0x1F NOT PUSH1 0x1F DUP4 ADD AND SWAP1 POP SWAP2 SWAP1 POP JUMP JUMPDEST PUSH32 0x4E487B7100000000000000000000000000000000000000000000000000000000 PUSH0 MSTORE PUSH1 0x41 PUSH1 0x4 MSTORE PUSH1 0x24 PUSH0 REVERT JUMPDEST PUSH3 0xB6 DUP3 PUSH3 0x6E JUMP JUMPDEST DUP2 ADD DUP2 DUP2 LT PUSH8 0xFFFFFFFFFFFFFFFF DUP3 GT OR ISZERO PUSH3 0xD8 JUMPI PUSH3 0xD7 PUSH3 0x7E JUMP JUMPDEST JUMPDEST DUP1 PUSH1 0x40 MSTORE POP POP POP JUMP JUMPDEST PUSH0 PUSH3 0xEC PUSH3 0x55 JUMP JUMPDEST SWAP1 POP PUSH3 0xFA DUP3 DUP3 PUSH3 0xAB JUMP JUMPDEST SWAP2 SWAP1 POP JUMP JUMPDEST PUSH0 PUSH8 0xFFFFFFFFFFFFFFFF DUP3 GT ISZERO PUSH3 0x11C JUMPI PUSH3 0x11B PUSH3 0x7E JUMP JUMPDEST JUMPDEST PUSH3 0x127 DUP3 PUSH3 0x6E JUMP JUMPDEST SWAP1 POP PUSH1 0x20 DUP2 ADD SWAP1 POP SWAP2 SWAP1 POP JUMP JUMPDEST PUSH0 JUMPDEST DUP4 DUP2 LT ISZERO PUSH3 0x153 JUMPI DUP1 DUP3 ADD MLOAD DUP2 DUP5 ADD MSTORE PUSH1 0x20 DUP2 ADD SWAP1 POP PUSH3 0x136 JUMP JUMPDEST PUSH0 DUP5 DUP5 ADD MSTORE POP POP POP POP JUMP JUMPDEST PUSH0 PUSH3 0x174 PUSH3 0x16E DUP5 PUSH3 0xFF JUMP JUMPDEST PUSH3 0xE1 JUMP JUMPDEST SWAP1 POP DUP3 DUP2 MSTORE PUSH1 0x20 DUP2 ADD DUP5 DUP5 DUP5 ADD GT ISZERO PUSH3 0x193 JUMPI PUSH3 0x192 PUSH3 0x6A JUMP JUMPDEST JUMPDEST PUSH3 0x1A0 DUP5 DUP3 DUP6 PUSH3 0x134 JUMP JUMPDEST POP SWAP4 SWAP3 POP POP POP JUMP JUMPDEST PUSH0 DUP3 PUSH1 0x1F DUP4 ADD SLT PUSH3 0x1BF JUMPI PUSH3 0x1BE PUSH3 0x66 JUMP JUMPDEST JUMPDEST DUP2 MLOAD PUSH3 0x1D1 DUP5 DUP3 PUSH1 0x20 DUP7 ADD PUSH3 0x15E JUMP JUMPDEST SWAP2 POP POP SWAP3 SWAP2 POP POP JUMP JUMPDEST PUSH0 PUSH1 0x20 DUP3 DUP5 SUB SLT ISZERO PUSH3 0x1F2 JUMPI PUSH3 0x1F1 PUSH3 0x5E JUMP JUMPDEST JUMPDEST PUSH0 DUP3 ADD MLOAD PUSH8 0xFFFFFFFFFFFFFFFF DUP2 GT ISZERO PUSH3 0x212 JUMPI PUSH3 0x211 PUSH3 0x62 JUMP JUMPDEST JUMPDEST PUSH3 0x220 DUP5 DUP3 DUP6 ADD PUSH3 0x1A8 JUMP JUMPDEST SWAP2 POP POP SWAP3 SWAP2 POP POP JUMP JUMPDEST PUSH0 DUP2 MLOAD SWAP1 POP SWAP2 SWAP1 POP JUMP JUMPDEST PUSH32 0x4E487B7100000000000000000000000000000000000000000000000000000000 PUSH0 MSTORE PUSH1 0x22 PUSH1 0x4 MSTORE PUSH1 0x24 PUSH0 REVERT JUMPDEST PUSH0 PUSH1 0x2 DUP3 DIV SWAP1 POP PUSH1 0x1 DUP3 AND DUP1 PUSH3 0x278 JUMPI PUSH1 0x7F DUP3 AND SWAP2 POP JUMPDEST PUSH1 0x20 DUP3 LT DUP2 SUB PUSH3 0x28E JUMPI PUSH3 0x28D PUSH3 0x233 JUMP JUMPDEST JUMPDEST POP SWAP2 SWAP1 POP JUMP JUMPDEST PUSH0 DUP2 SWAP1 POP DUP2 PUSH0 MSTORE PUSH1 0x20 PUSH0 KECCAK256 SWAP1 POP SWAP2 SWAP1 POP JUMP JUMPDEST PUSH0 PUSH1 0x20 PUSH1 0x1F DUP4 ADD DIV SWAP1 POP SWAP2 SWAP1 POP JUMP JUMPDEST PUSH0 DUP3 DUP3 SHL SWAP1 POP SWAP3 SWAP2 POP POP JUMP JUMPDEST PUSH0 PUSH1 0x8 DUP4 MUL PUSH3 0x2F2 PUSH32 0xFFFFFFFFFFFFFFFFFFFFFFFFFFFFFFFFFFFFFFFFFFFFFFFFFFFFFFFFFFFFFFFF DUP3 PUSH3 0x2B5 JUMP JUMPDEST PUSH3 0x2FE DUP7 DUP4 PUSH3 0x2B5 JUMP JUMPDEST SWAP6 POP DUP1 NOT DUP5 AND SWAP4 POP DUP1 DUP7 AND DUP5 OR SWAP3 POP POP POP SWAP4 SWAP3 POP POP POP JUMP JUMPDEST PUSH0 DUP2 SWAP1 POP SWAP2 SWAP1 POP JUMP JUMPDEST PUSH0 DUP2 SWAP1 POP SWAP2 SWAP1 POP JUMP JUMPDEST PUSH0 PUSH3 0x348 PUSH3 0x342 PUSH3 0x33C DUP5 PUSH3 0x316 JUMP JUMPDEST PUSH3 0x31F JUMP JUMPDEST PUSH3 0x316 JUMP JUMPDEST SWAP1 POP SWAP2 SWAP1 POP JUMP JUMPDEST PUSH0 DUP2 SWAP1 POP SWAP2 SWAP1 POP JUMP JUMPDEST PUSH3 0x363 DUP4 PUSH3 0x328 JUMP JUMPDEST PUSH3 0x37B PUSH3 0x372 DUP3 PUSH3 0x34F JUMP JUMPDEST DUP5 DUP5 SLOAD PUSH3 0x2C1 JUMP JUMPDEST DUP3 SSTORE POP POP POP POP JUMP JUMPDEST PUSH0 SWAP1 JUMP JUMPDEST PUSH3 0x391 PUSH3 0x383 JUMP JUMPDEST PUSH3 0x39E DUP2 DUP5 DUP5 PUSH3 0x358 JUMP JUMPDEST POP POP POP JUMP JUMPDEST JUMPDEST DUP2 DUP2 LT ISZERO PUSH3 0x3C5 JUMPI PUSH3 0x3B9 PUSH0 DUP3 PUSH3 0x387 JUMP JUMPDEST PUSH1 0x1 DUP2 ADD SWAP1 POP PUSH3 0x3A4 JUMP JUMPDEST POP POP JUMP JUMPDEST PUSH1 0x1F DUP3 GT ISZERO PUSH3 0x414 JUMPI PUSH3 0x3DE DUP2 PUSH3 0x294 JUMP JUMPDEST PUSH3 0x3E9 DUP5 PUSH3 0x2A6 JUMP JUMPDEST DUP2 ADD PUSH1 0x20 DUP6 LT ISZERO PUSH3 0x3F9 JUMPI DUP2 SWAP1 POP JUMPDEST PUSH3 0x411 PUSH3 0x408 DUP6 PUSH3 0x2A6 JUMP JUMPDEST DUP4 ADD DUP3 PUSH3 0x3A3 JUMP JUMPDEST POP POP JUMPDEST POP POP POP JUMP JUMPDEST PUSH0 DUP3 DUP3 SHR SWAP1 POP SWAP3 SWAP2 POP POP JUMP JUMPDEST PUSH0 PUSH3 0x436 PUSH0 NOT DUP5 PUSH1 0x8 MUL PUSH3 0x419 JUMP JUMPDEST NOT DUP1 DUP4 AND SWAP2 POP POP SWAP3 SWAP2 POP POP JUMP JUMPDEST PUSH0 PUSH3 0x450 DUP4 DUP4 PUSH3 0x425 JUMP JUMPDEST SWAP2 POP DUP3 PUSH1 0x2 MUL DUP3 OR SWAP1 POP SWAP3 SWAP2 POP POP JUMP JUMPDEST PUSH3 0x46B DUP3 PUSH3 0x229 JUMP JUMPDEST PUSH8 0xFFFFFFFFFFFFFFFF DUP2 GT ISZERO PUSH3 0x487 JUMPI PUSH3 0x486 PUSH3 0x7E JUMP JUMPDEST JUMPDEST PUSH3 0x493 DUP3 SLOAD PUSH3 0x260 JUMP JUMPDEST PUSH3 0x4A0 DUP3 DUP3 DUP6 PUSH3 0x3C9 JUMP JUMPDEST PUSH0 PUSH1 0x20 SWAP1 POP PUSH1 0x1F DUP4 GT PUSH1 0x1 DUP2 EQ PUSH3 0x4D6 JUMPI PUSH0 DUP5 ISZERO PUSH3 0x4C1 JUMPI DUP3 DUP8 ADD MLOAD SWAP1 POP JUMPDEST PUSH3 0x4CD DUP6 DUP3 PUSH3 0x443 JUMP JUMPDEST DUP7 SSTORE POP PUSH3 0x53C JUMP JUMPDEST PUSH1 0x1F NOT DUP5 AND PUSH3 0x4E6 DUP7 PUSH3 0x294 JUMP JUMPDEST PUSH0 JUMPDEST DUP3 DUP2 LT ISZERO PUSH3 0x50F JUMPI DUP5 DUP10 ADD MLOAD DUP3 SSTORE PUSH1 0x1 DUP3 ADD SWAP2 POP PUSH1 0x20 DUP6 ADD SWAP5 POP PUSH1 0x20 DUP2 ADD SWAP1 POP PUSH3 0x4E8 JUMP JUMPDEST DUP7 DUP4 LT ISZERO PUSH3 0x52F JUMPI DUP5 DUP10 ADD MLOAD PUSH3 0x52B PUSH1 0x1F DUP10 AND DUP3 PUSH3 0x425 JUMP JUMPDEST DUP4 SSTORE POP JUMPDEST PUSH1 0x1 PUSH1 0x2 DUP9 MUL ADD DUP9 SSTORE POP POP POP JUMPDEST POP POP POP POP POP POP JUMP JUMPDEST PUSH2 0x703 DUP1 PUSH3 0x552 PUSH0 CODECOPY PUSH0 RETURN INVALID PUSH1 0x80 PUSH1 0x40 MSTORE CALLVALUE DUP1 ISZERO PUSH2 0xF JUMPI PUSH0 DUP1 REVERT JUMPDEST POP PUSH1 0x4 CALLDATASIZE LT PUSH2 0x4A JUMPI PUSH0 CALLDATALOAD PUSH1 0xE0 SHR DUP1 PUSH4 0x781F5C9 EQ PUSH2 0x4E JUMPI DUP1 PUSH4 0x1DCD69EC EQ PUSH2 0x6C JUMPI DUP1 PUSH4 0x266CF109 EQ PUSH2 0x8A JUMPI DUP1 PUSH4 0x3E0A0099 EQ PUSH2 0xA8 JUMPI JUMPDEST PUSH0 DUP1 REVERT JUMPDEST PUSH2 0x56 PUSH2 0xC4 JUMP JUMPDEST PUSH1 0x40 MLOAD PUSH2 0x63 SWAP2 SWAP1 PUSH2 0x22F JUMP JUMPDEST PUSH1 0x40 MLOAD DUP1 SWAP2 SUB SWAP1 RETURN JUMPDEST PUSH2 0x74 PUSH2 0x101 JUMP JUMPDEST PUSH1 0x40 MLOAD PUSH2 0x81 SWAP2 SWAP1 PUSH2 0x267 JUMP JUMPDEST PUSH1 0x40 MLOAD DUP1 SWAP2 SUB SWAP1 RETURN JUMPDEST PUSH2 0x92 PUSH2 0x106 JUMP JUMPDEST PUSH1 0x40 MLOAD PUSH2 0x9F SWAP2 SWAP1 PUSH2 0x22F JUMP JUMPDEST PUSH1 0x40 MLOAD DUP1 SWAP2 SUB SWAP1 RETURN JUMPDEST PUSH2 0xC2 PUSH1 0x4 DUP1 CALLDATASIZE SUB DUP2 ADD SWAP1 PUSH2 0xBD SWAP2 SWAP1 PUSH2 0x3BD JUMP JUMPDEST PUSH2 0x192 JUMP JUMPDEST STOP JUMPDEST PUSH1 0x60 PUSH1 0x40 MLOAD DUP1 PUSH1 0x40 ADD PUSH1 0x40 MSTORE DUP1 PUSH1 0x6 DUP2 MSTORE PUSH1 0x20 ADD PUSH32 0x737472696E670000000000000000000000000000000000000000000000000000 DUP2 MSTORE POP SWAP1 POP SWAP1 JUMP JUMPDEST PUSH0 SLOAD DUP2 JUMP JUMPDEST PUSH1 0x1 DUP1 SLOAD PUSH2 0x113 SWAP1 PUSH2 0x431 JUMP JUMPDEST DUP1 PUSH1 0x1F ADD PUSH1 0x20 DUP1 SWAP2 DIV MUL PUSH1 0x20 ADD PUSH1 0x40 MLOAD SWAP1 DUP2 ADD PUSH1 0x40 MSTORE DUP1 SWAP3 SWAP2 SWAP1 DUP2 DUP2 MSTORE PUSH1 0x20 ADD DUP3 DUP1 SLOAD PUSH2 0x13F SWAP1 PUSH2 0x431 JUMP JUMPDEST DUP1 ISZERO PUSH2 0x18A JUMPI DUP1 PUSH1 0x1F LT PUSH2 0x161 JUMPI PUSH2 0x100 DUP1 DUP4 SLOAD DIV MUL DUP4 MSTORE SWAP2 PUSH1 0x20 ADD SWAP2 PUSH2 0x18A JUMP JUMPDEST DUP3 ADD SWAP2 SWAP1 PUSH0 MSTORE PUSH1 0x20 PUSH0 KECCAK256 SWAP1 JUMPDEST DUP2 SLOAD DUP2 MSTORE SWAP1 PUSH1 0x1 ADD SWAP1 PUSH1 0x20 ADD DUP1 DUP4 GT PUSH2 0x16D JUMPI DUP3 SWAP1 SUB PUSH1 0x1F AND DUP3 ADD SWAP2 JUMPDEST POP POP POP POP POP DUP2 JUMP JUMPDEST DUP1 PUSH1 0x1 SWAP1 DUP2 PUSH2 0x1A1 SWAP2 SWAP1 PUSH2 0x5FE JUMP JUMPDEST POP POP JUMP JUMPDEST PUSH0 DUP2 MLOAD SWAP1 POP SWAP2 SWAP1 POP JUMP JUMPDEST PUSH0 DUP3 DUP3 MSTORE PUSH1 0x20 DUP3 ADD SWAP1 POP SWAP3 SWAP2 POP POP JUMP JUMPDEST PUSH0 JUMPDEST DUP4 DUP2 LT ISZERO PUSH2 0x1DC JUMPI DUP1 DUP3 ADD MLOAD DUP2 DUP5 ADD MSTORE PUSH1 0x20 DUP2 ADD SWAP1 POP PUSH2 0x1C1 JUMP JUMPDEST PUSH0 DUP5 DUP5 ADD MSTORE POP POP POP POP JUMP JUMPDEST PUSH0 PUSH1 0x1F NOT PUSH1 0x1F DUP4 ADD AND SWAP1 POP SWAP2 SWAP1 POP JUMP JUMPDEST PUSH0 PUSH2 0x201 DUP3 PUSH2 0x1A5 JUMP JUMPDEST PUSH2 0x20B DUP2 DUP6 PUSH2 0x1AF JUMP JUMPDEST SWAP4 POP PUSH2 0x21B DUP2 DUP6 PUSH1 0x20 DUP7 ADD PUSH2 0x1BF JUMP JUMPDEST PUSH2 0x224 DUP2 PUSH2 0x1E7 JUMP JUMPDEST DUP5 ADD SWAP2 POP POP SWAP3 SWAP2 POP POP JUMP JUMPDEST PUSH0 PUSH1 0x20 DUP3 ADD SWAP1 POP DUP2 DUP2 SUB PUSH0 DUP4 ADD MSTORE PUSH2 0x247 DUP2 DUP5 PUSH2 0x1F7 JUMP JUMPDEST SWAP1 POP SWAP3 SWAP2 POP POP JUMP JUMPDEST PUSH0 DUP2 SWAP1 POP SWAP2 SWAP1 POP JUMP JUMPDEST PUSH2 0x261 DUP2 PUSH2 0x24F JUMP JUMPDEST DUP3 MSTORE POP POP JUMP JUMPDEST PUSH0 PUSH1 0x20 DUP3 ADD SWAP1 POP PUSH2 0x27A PUSH0 DUP4 ADD DUP5 PUSH2 0x258 JUMP JUMPDEST SWAP3 SWAP2 POP POP JUMP JUMPDEST PUSH0 PUSH1 0x40 MLOAD SWAP1 POP SWAP1 JUMP JUMPDEST PUSH0 DUP1 REVERT JUMPDEST PUSH0 DUP1 REVERT JUMPDEST PUSH0 DUP1 REVERT JUMPDEST PUSH0 DUP1 REVERT JUMPDEST PUSH32 0x4E487B7100000000000000000000000000000000000000000000000000000000 PUSH0 MSTORE PUSH1 0x41 PUSH1 0x4 MSTORE PUSH1 0x24 PUSH0 REVERT JUMPDEST PUSH2 0x2CF DUP3 PUSH2 0x1E7 JUMP JUMPDEST DUP2 ADD DUP2 DUP2 LT PUSH8 0xFFFFFFFFFFFFFFFF DUP3 GT OR ISZERO PUSH2 0x2EE JUMPI PUSH2 0x2ED PUSH2 0x299 JUMP JUMPDEST JUMPDEST DUP1 PUSH1 0x40 MSTORE POP POP POP JUMP JUMPDEST PUSH0 PUSH2 0x300 PUSH2 0x280 JUMP JUMPDEST SWAP1 POP PUSH2 0x30C DUP3 DUP3 PUSH2 0x2C6 JUMP JUMPDEST SWAP2 SWAP1 POP JUMP JUMPDEST PUSH0 PUSH8 0xFFFFFFFFFFFFFFFF DUP3 GT ISZERO PUSH2 0x32B JUMPI PUSH2 0x32A PUSH2 0x299 JUMP JUMPDEST JUMPDEST PUSH2 0x334 DUP3 PUSH2 0x1E7 JUMP JUMPDEST SWAP1 POP PUSH1 0x20 DUP2 ADD SWAP1 POP SWAP2 SWAP1 POP JUMP JUMPDEST DUP3 DUP2 DUP4 CALLDATACOPY PUSH0 DUP4 DUP4 ADD MSTORE POP POP POP JUMP JUMPDEST PUSH0 PUSH2 0x361 PUSH2 0x35C DUP5 PUSH2 0x311 JUMP JUMPDEST PUSH2 0x2F7 JUMP JUMPDEST SWAP1 POP DUP3 DUP2 MSTORE PUSH1 0x20 DUP2 ADD DUP5 DUP5 DUP5 ADD GT ISZERO PUSH2 0x37D JUMPI PUSH2 0x37C PUSH2 0x295 JUMP JUMPDEST JUMPDEST PUSH2 0x388 DUP5 DUP3 DUP6 PUSH2 0x341 JUMP JUMPDEST POP SWAP4 SWAP3 POP POP POP JUMP JUMPDEST PUSH0 DUP3 PUSH1 0x1F DUP4 ADD SLT PUSH2 0x3A4 JUMPI PUSH2 0x3A3 PUSH2 0x291 JUMP JUMPDEST JUMPDEST DUP2 CALLDATALOAD PUSH2 0x3B4 DUP5 DUP3 PUSH1 0x20 DUP7 ADD PUSH2 0x34F JUMP JUMPDEST SWAP2 POP POP SWAP3 SWAP2 POP POP JUMP JUMPDEST PUSH0 PUSH1 0x20 DUP3 DUP5 SUB SLT ISZERO PUSH2 0x3D2 JUMPI PUSH2 0x3D1 PUSH2 0x289 JUMP JUMPDEST JUMPDEST PUSH0 DUP3 ADD CALLDATALOAD PUSH8 0xFFFFFFFFFFFFFFFF DUP2 GT ISZERO PUSH2 0x3EF JUMPI PUSH2 0x3EE PUSH2 0x28D JUMP JUMPDEST JUMPDEST PUSH2 0x3FB DUP5 DUP3 DUP6 ADD PUSH2 0x390 JUMP JUMPDEST SWAP2 POP POP SWAP3 SWAP2 POP POP JUMP JUMPDEST PUSH32 0x4E487B7100000000000000000000000000000000000000000000000000000000 PUSH0 MSTORE PUSH1 0x22 PUSH1 0x4 MSTORE PUSH1 0x24 PUSH0 REVERT JUMPDEST PUSH0 PUSH1 0x2 DUP3 DIV SWAP1 POP PUSH1 0x1 DUP3 AND DUP1 PUSH2 0x448 JUMPI PUSH1 0x7F DUP3 AND SWAP2 POP JUMPDEST PUSH1 0x20 DUP3 LT DUP2 SUB PUSH2 0x45B JUMPI PUSH2 0x45A PUSH2 0x404 JUMP JUMPDEST JUMPDEST POP SWAP2 SWAP1 POP JUMP JUMPDEST PUSH0 DUP2 SWAP1 POP DUP2 PUSH0 MSTORE PUSH1 0x20 PUSH0 KECCAK256 SWAP1 POP SWAP2 SWAP1 POP JUMP JUMPDEST PUSH0 PUSH1 0x20 PUSH1 0x1F DUP4 ADD DIV SWAP1 POP SWAP2 SWAP1 POP JUMP JUMPDEST PUSH0 DUP3 DUP3 SHL SWAP1 POP SWAP3 SWAP2 POP POP JUMP JUMPDEST PUSH0 PUSH1 0x8 DUP4 MUL PUSH2 0x4BD PUSH32 0xFFFFFFFFFFFFFFFFFFFFFFFFFFFFFFFFFFFFFFFFFFFFFFFFFFFFFFFFFFFFFFFF DUP3 PUSH2 0x482 JUMP JUMPDEST PUSH2 0x4C7 DUP7 DUP4 PUSH2 0x482 JUMP JUMPDEST SWAP6 POP DUP1 NOT DUP5 AND SWAP4 POP DUP1 DUP7 AND DUP5 OR SWAP3 POP POP POP SWAP4 SWAP3 POP POP POP JUMP JUMPDEST PUSH0 DUP2 SWAP1 POP SWAP2 SWAP1 POP JUMP JUMPDEST PUSH0 PUSH2 0x502 PUSH2 0x4FD PUSH2 0x4F8 DUP5 PUSH2 0x24F JUMP JUMPDEST PUSH2 0x4DF JUMP JUMPDEST PUSH2 0x24F JUMP JUMPDEST SWAP1 POP SWAP2 SWAP1 POP JUMP JUMPDEST PUSH0 DUP2 SWAP1 POP SWAP2 SWAP1 POP JUMP JUMPDEST PUSH2 0x51B DUP4 PUSH2 0x4E8 JUMP JUMPDEST PUSH2 0x52F PUSH2 0x527 DUP3 PUSH2 0x509 JUMP JUMPDEST DUP5 DUP5 SLOAD PUSH2 0x48E JUMP JUMPDEST DUP3 SSTORE POP POP POP POP JUMP JUMPDEST PUSH0 SWAP1 JUMP JUMPDEST PUSH2 0x543 PUSH2 0x537 JUMP JUMPDEST PUSH2 0x54E DUP2 DUP5 DUP5 PUSH2 0x512 JUMP JUMPDEST POP POP POP JUMP JUMPDEST JUMPDEST DUP2 DUP2 LT ISZERO PUSH2 0x571 JUMPI PUSH2 0x566 PUSH0 DUP3 PUSH2 0x53B JUMP JUMPDEST PUSH1 0x1 DUP2 ADD SWAP1 POP PUSH2 0x554 JUMP JUMPDEST POP POP JUMP JUMPDEST PUSH1 0x1F DUP3 GT ISZERO PUSH2 0x5B6 JUMPI PUSH2 0x587 DUP2 PUSH2 0x461 JUMP JUMPDEST PUSH2 0x590 DUP5 PUSH2 0x473 JUMP JUMPDEST DUP2 ADD PUSH1 0x20 DUP6 LT ISZERO PUSH2 0x59F JUMPI DUP2 SWAP1 POP JUMPDEST PUSH2 0x5B3 PUSH2 0x5AB DUP6 PUSH2 0x473 JUMP JUMPDEST DUP4 ADD DUP3 PUSH2 0x553 JUMP JUMPDEST POP POP JUMPDEST POP POP POP JUMP JUMPDEST PUSH0 DUP3 DUP3 SHR SWAP1 POP SWAP3 SWAP2 POP POP JUMP JUMPDEST PUSH0 PUSH2 0x5D6 PUSH0 NOT DUP5 PUSH1 0x8 MUL PUSH2 0x5BB JUMP JUMPDEST NOT DUP1 DUP4 AND SWAP2 POP POP SWAP3 SWAP2 POP POP JUMP JUMPDEST PUSH0 PUSH2 0x5EE DUP4 DUP4 PUSH2 0x5C7 JUMP JUMPDEST SWAP2 POP DUP3 PUSH1 0x2 MUL DUP3 OR SWAP1 POP SWAP3 SWAP2 POP POP JUMP JUMPDEST PUSH2 0x607 DUP3 PUSH2 0x1A5 JUMP JUMPDEST PUSH8 0xFFFFFFFFFFFFFFFF DUP2 GT ISZERO PUSH2 0x620 JUMPI PUSH2 0x61F PUSH2 0x299 JUMP JUMPDEST JUMPDEST PUSH2 0x62A DUP3 SLOAD PUSH2 0x431 JUMP JUMPDEST PUSH2 0x635 DUP3 DUP3 DUP6 PUSH2 0x575 JUMP JUMPDEST PUSH0 PUSH1 0x20 SWAP1 POP PUSH1 0x1F DUP4 GT PUSH1 0x1 DUP2 EQ PUSH2 0x666 JUMPI PUSH0 DUP5 ISZERO PUSH2 0x654 JUMPI DUP3 DUP8 ADD MLOAD SWAP1 POP JUMPDEST PUSH2 0x65E DUP6 DUP3 PUSH2 0x5E3 JUMP JUMPDEST DUP7 SSTORE POP PUSH2 0x6C5 JUMP JUMPDEST PUSH1 0x1F NOT DUP5 AND PUSH2 0x674 DUP7 PUSH2 0x461 JUMP JUMPDEST PUSH0 JUMPDEST DUP3 DUP2 LT ISZERO PUSH2 0x69B JUMPI DUP5 DUP10 ADD MLOAD DUP3 SSTORE PUSH1 0x1 DUP3 ADD SWAP2 POP PUSH1 0x20 DUP6 ADD SWAP5 POP PUSH1 0x20 DUP2 ADD SWAP1 POP PUSH2 0x676 JUMP JUMPDEST DUP7 DUP4 LT ISZERO PUSH2 0x6B8 JUMPI DUP5 DUP10 ADD MLOAD PUSH2 0x6B4 PUSH1 0x1F DUP10 AND DUP3 PUSH2 0x5C7 JUMP JUMPDEST DUP4 SSTORE POP JUMPDEST PUSH1 0x1 PUSH1 0x2 DUP9 MUL ADD DUP9 SSTORE POP POP POP JUMPDEST POP POP POP POP POP POP JUMP INVALID LOG2 PUSH5 0x6970667358 0x22 SLT KECCAK256 0xB6 BLOCKHASH 0xB1 0xC6 0x2F SWAP13 0x49 NUMBER DUP7 0xF7 PUSH29 0x7CE771E89F4AC82A301C6091DD24D6E2FCFD607C3E64736F6C63430008 AND STOP CALLER LOG2 PUSH5 0x6970667358 0x22 SLT KECCAK256 DUP5 PUSH29 0x88A7CDB290DB5E0BD22C549B130E449412B65EBE93FBD98ACD752B2565 0xB1 PUSH5 0x736F6C6343 STOP ADDMOD AND STOP CALLER "
				},
				"gasEstimates": {
					"creation": {
						"codeDepositCost": "1858400",
						"executionCost": "26225",
						"totalCost": "1884625"
					},
					"external": {
						"addDomain(string)": "infinite",
						"addFactory(address)": "29371",
						"addRecord(address)": "infinite",
						"addRecord(string)": "infinite",
						"factories(address)": "2921",
						"records(uint256)": "infinite"
					}
				},
				"methodIdentifiers": {
					"addDomain(string)": "44e2e74c",
					"addFactory(address)": "29ce1ec5",
					"addRecord(address)": "99b53463",
					"addRecord(string)": "d81aa8c4",
					"factories(address)": "fab52689",
					"records(uint256)": "34461067"
				}
			},
			"storageLayout": {
				"storage": [
					{
						"astId": 121,
						"contract": "Nik_MD_project4.sol:RecordsStorage",
						"label": "contrOwner",
						"offset": 0,
						"slot": "0",
						"type": "t_address"
					},
					{
						"astId": 134,
						"contract": "Nik_MD_project4.sol:RecordsStorage",
						"label": "records",
						"offset": 0,
						"slot": "1",
						"type": "t_array(t_contract(Record)13)dyn_storage"
					},
					{
						"astId": 138,
						"contract": "Nik_MD_project4.sol:RecordsStorage",
						"label": "factories",
						"offset": 0,
						"slot": "2",
						"type": "t_mapping(t_address,t_bool)"
					}
				],
				"types": {
					"t_address": {
						"encoding": "inplace",
						"label": "address",
						"numberOfBytes": "20"
					},
					"t_array(t_contract(Record)13)dyn_storage": {
						"base": "t_contract(Record)13",
						"encoding": "dynamic_array",
						"label": "contract Record[]",
						"numberOfBytes": "32"
					},
					"t_bool": {
						"encoding": "inplace",
						"label": "bool",
						"numberOfBytes": "1"
					},
					"t_contract(Record)13": {
						"encoding": "inplace",
						"label": "contract Record",
						"numberOfBytes": "20"
					},
					"t_mapping(t_address,t_bool)": {
						"encoding": "mapping",
						"key": "t_address",
						"label": "mapping(address => bool)",
						"numberOfBytes": "32",
						"value": "t_bool"
					}
				}
			},
			"userdoc": {
				"kind": "user",
				"methods": {},
				"version": 1
			}
		}
	}
}