{
	"Nik_MD_project4.sol": {
		"StringRecord": {
			"abi": [
				{
					"inputs": [
						{
							"internalType": "string",
							"name": "_record",
							"type": "string"
						}
					],
					"stateMutability": "nonpayable",
					"type": "constructor"
				},
				{
					"inputs": [],
					"name": "getRecordType",
					"outputs": [
						{
							"internalType": "string",
							"name": "",
							"type": "string"
						}
					],
					"stateMutability": "pure",
					"type": "function"
				},
				{
					"inputs": [],
					"name": "record",
					"outputs": [
						{
							"internalType": "string",
							"name": "",
							"type": "string"
						}
					],
					"stateMutability": "view",
					"type": "function"
				},
				{
					"inputs": [
						{
							"internalType": "string",
							"name": "_record",
							"type": "string"
						}
					],
					"name": "setRecord",
					"outputs": [],
					"stateMutability": "nonpayable",
					"type": "function"
				},
				{
					"inputs": [],
					"name": "timeOfCreation",
					"outputs": [
						{
							"internalType": "uint256",
							"name": "",
							"type": "uint256"
						}
					],
					"stateMutability": "view",
					"type": "function"
				}
			],
			"devdoc": {
				"kind": "dev",
				"methods": {},
				"version": 1
			},
			"evm": {
				"assembly": "    /* \"Nik_MD_project4.sol\":576:912  contract StringRecord is Record {... */\n  mstore(0x40, 0x80)\n    /* \"Nik_MD_project4.sol\":644:714  constructor(string memory _record) {... */\n  callvalue\n  dup1\n  iszero\n  tag_1\n  jumpi\n  0x00\n  dup1\n  revert\ntag_1:\n  pop\n  mload(0x40)\n  sub(codesize, bytecodeSize)\n  dup1\n  bytecodeSize\n  dup4\n  codecopy\n  dup2\n  dup2\n  add\n  0x40\n  mstore\n  dup2\n  add\n  swap1\n  tag_2\n  swap2\n  swap1\n  tag_3\n  jump\t// in\ntag_2:\n    /* \"Nik_MD_project4.sol\":168:183  block.timestamp */\n  timestamp\n    /* \"Nik_MD_project4.sol\":151:165  timeOfCreation */\n  0x00\n    /* \"Nik_MD_project4.sol\":151:183  timeOfCreation = block.timestamp */\n  dup2\n  swap1\n  sstore\n  pop\n    /* \"Nik_MD_project4.sol\":699:706  _record */\n  dup1\n    /* \"Nik_MD_project4.sol\":690:696  record */\n  0x01\n    /* \"Nik_MD_project4.sol\":690:706  record = _record */\n  swap1\n  dup2\n  tag_8\n  swap2\n  swap1\n  tag_9\n  jump\t// in\ntag_8:\n  pop\n    /* \"Nik_MD_project4.sol\":644:714  constructor(string memory _record) {... */\n  pop\n    /* \"Nik_MD_project4.sol\":576:912  contract StringRecord is Record {... */\n  jump(tag_10)\n    /* \"#utility.yul\":7:82   */\ntag_11:\n    /* \"#utility.yul\":40:46   */\n  0x00\n    /* \"#utility.yul\":73:75   */\n  0x40\n    /* \"#utility.yul\":67:76   */\n  mload\n    /* \"#utility.yul\":57:76   */\n  swap1\n  pop\n    /* \"#utility.yul\":7:82   */\n  swap1\n  jump\t// out\n    /* \"#utility.yul\":88:205   */\ntag_12:\n    /* \"#utility.yul\":197:198   */\n  0x00\n    /* \"#utility.yul\":194:195   */\n  dup1\n    /* \"#utility.yul\":187:199   */\n  revert\n    /* \"#utility.yul\":211:328   */\ntag_13:\n    /* \"#utility.yul\":320:321   */\n  0x00\n    /* \"#utility.yul\":317:318   */\n  dup1\n    /* \"#utility.yul\":310:322   */\n  revert\n    /* \"#utility.yul\":334:451   */\ntag_14:\n    /* \"#utility.yul\":443:444   */\n  0x00\n    /* \"#utility.yul\":440:441   */\n  dup1\n    /* \"#utility.yul\":433:445   */\n  revert\n    /* \"#utility.yul\":457:574   */\ntag_15:\n    /* \"#utility.yul\":566:567   */\n  0x00\n    /* \"#utility.yul\":563:564   */\n  dup1\n    /* \"#utility.yul\":556:568   */\n  revert\n    /* \"#utility.yul\":580:682   */\ntag_16:\n    /* \"#utility.yul\":621:627   */\n  0x00\n    /* \"#utility.yul\":672:674   */\n  0x1f\n    /* \"#utility.yul\":668:675   */\n  not\n    /* \"#utility.yul\":663:665   */\n  0x1f\n    /* \"#utility.yul\":656:661   */\n  dup4\n    /* \"#utility.yul\":652:666   */\n  add\n    /* \"#utility.yul\":648:676   */\n  and\n    /* \"#utility.yul\":638:676   */\n  swap1\n  pop\n    /* \"#utility.yul\":580:682   */\n  swap2\n  swap1\n  pop\n  jump\t// out\n    /* \"#utility.yul\":688:868   */\ntag_17:\n    /* \"#utility.yul\":736:813   */\n  0x4e487b7100000000000000000000000000000000000000000000000000000000\n    /* \"#utility.yul\":733:734   */\n  0x00\n    /* \"#utility.yul\":726:814   */\n  mstore\n    /* \"#utility.yul\":833:837   */\n  0x41\n    /* \"#utility.yul\":830:831   */\n  0x04\n    /* \"#utility.yul\":823:838   */\n  mstore\n    /* \"#utility.yul\":857:861   */\n  0x24\n    /* \"#utility.yul\":854:855   */\n  0x00\n    /* \"#utility.yul\":847:862   */\n  revert\n    /* \"#utility.yul\":874:1155   */\ntag_18:\n    /* \"#utility.yul\":957:984   */\n  tag_52\n    /* \"#utility.yul\":979:983   */\n  dup3\n    /* \"#utility.yul\":957:984   */\n  tag_16\n  jump\t// in\ntag_52:\n    /* \"#utility.yul\":949:955   */\n  dup2\n    /* \"#utility.yul\":945:985   */\n  add\n    /* \"#utility.yul\":1087:1093   */\n  dup2\n    /* \"#utility.yul\":1075:1085   */\n  dup2\n    /* \"#utility.yul\":1072:1094   */\n  lt\n    /* \"#utility.yul\":1051:1069   */\n  0xffffffffffffffff\n    /* \"#utility.yul\":1039:1049   */\n  dup3\n    /* \"#utility.yul\":1036:1070   */\n  gt\n    /* \"#utility.yul\":1033:1095   */\n  or\n    /* \"#utility.yul\":1030:1118   */\n  iszero\n  tag_53\n  jumpi\n    /* \"#utility.yul\":1098:1116   */\n  tag_54\n  tag_17\n  jump\t// in\ntag_54:\n    /* \"#utility.yul\":1030:1118   */\ntag_53:\n    /* \"#utility.yul\":1138:1148   */\n  dup1\n    /* \"#utility.yul\":1134:1136   */\n  0x40\n    /* \"#utility.yul\":1127:1149   */\n  mstore\n    /* \"#utility.yul\":917:1155   */\n  pop\n    /* \"#utility.yul\":874:1155   */\n  pop\n  pop\n  jump\t// out\n    /* \"#utility.yul\":1161:1290   */\ntag_19:\n    /* \"#utility.yul\":1195:1201   */\n  0x00\n    /* \"#utility.yul\":1222:1242   */\n  tag_56\n  tag_11\n  jump\t// in\ntag_56:\n    /* \"#utility.yul\":1212:1242   */\n  swap1\n  pop\n    /* \"#utility.yul\":1251:1284   */\n  tag_57\n    /* \"#utility.yul\":1279:1283   */\n  dup3\n    /* \"#utility.yul\":1271:1277   */\n  dup3\n    /* \"#utility.yul\":1251:1284   */\n  tag_18\n  jump\t// in\ntag_57:\n    /* \"#utility.yul\":1161:1290   */\n  swap2\n  swap1\n  pop\n  jump\t// out\n    /* \"#utility.yul\":1296:1604   */\ntag_20:\n    /* \"#utility.yul\":1358:1362   */\n  0x00\n    /* \"#utility.yul\":1448:1466   */\n  0xffffffffffffffff\n    /* \"#utility.yul\":1440:1446   */\n  dup3\n    /* \"#utility.yul\":1437:1467   */\n  gt\n    /* \"#utility.yul\":1434:1490   */\n  iszero\n  tag_59\n  jumpi\n    /* \"#utility.yul\":1470:1488   */\n  tag_60\n  tag_17\n  jump\t// in\ntag_60:\n    /* \"#utility.yul\":1434:1490   */\ntag_59:\n    /* \"#utility.yul\":1508:1537   */\n  tag_61\n    /* \"#utility.yul\":1530:1536   */\n  dup3\n    /* \"#utility.yul\":1508:1537   */\n  tag_16\n  jump\t// in\ntag_61:\n    /* \"#utility.yul\":1500:1537   */\n  swap1\n  pop\n    /* \"#utility.yul\":1592:1596   */\n  0x20\n    /* \"#utility.yul\":1586:1590   */\n  dup2\n    /* \"#utility.yul\":1582:1597   */\n  add\n    /* \"#utility.yul\":1574:1597   */\n  swap1\n  pop\n    /* \"#utility.yul\":1296:1604   */\n  swap2\n  swap1\n  pop\n  jump\t// out\n    /* \"#utility.yul\":1610:1856   */\ntag_21:\n    /* \"#utility.yul\":1691:1692   */\n  0x00\n    /* \"#utility.yul\":1701:1814   */\ntag_63:\n    /* \"#utility.yul\":1715:1721   */\n  dup4\n    /* \"#utility.yul\":1712:1713   */\n  dup2\n    /* \"#utility.yul\":1709:1722   */\n  lt\n    /* \"#utility.yul\":1701:1814   */\n  iszero\n  tag_65\n  jumpi\n    /* \"#utility.yul\":1800:1801   */\n  dup1\n    /* \"#utility.yul\":1795:1798   */\n  dup3\n    /* \"#utility.yul\":1791:1802   */\n  add\n    /* \"#utility.yul\":1785:1803   */\n  mload\n    /* \"#utility.yul\":1781:1782   */\n  dup2\n    /* \"#utility.yul\":1776:1779   */\n  dup5\n    /* \"#utility.yul\":1772:1783   */\n  add\n    /* \"#utility.yul\":1765:1804   */\n  mstore\n    /* \"#utility.yul\":1737:1739   */\n  0x20\n    /* \"#utility.yul\":1734:1735   */\n  dup2\n    /* \"#utility.yul\":1730:1740   */\n  add\n    /* \"#utility.yul\":1725:1740   */\n  swap1\n  pop\n    /* \"#utility.yul\":1701:1814   */\n  jump(tag_63)\ntag_65:\n    /* \"#utility.yul\":1848:1849   */\n  0x00\n    /* \"#utility.yul\":1839:1845   */\n  dup5\n    /* \"#utility.yul\":1834:1837   */\n  dup5\n    /* \"#utility.yul\":1830:1846   */\n  add\n    /* \"#utility.yul\":1823:1850   */\n  mstore\n    /* \"#utility.yul\":1672:1856   */\n  pop\n    /* \"#utility.yul\":1610:1856   */\n  pop\n  pop\n  pop\n  jump\t// out\n    /* \"#utility.yul\":1862:2296   */\ntag_22:\n    /* \"#utility.yul\":1951:1956   */\n  0x00\n    /* \"#utility.yul\":1976:2042   */\n  tag_67\n    /* \"#utility.yul\":1992:2041   */\n  tag_68\n    /* \"#utility.yul\":2034:2040   */\n  dup5\n    /* \"#utility.yul\":1992:2041   */\n  tag_20\n  jump\t// in\ntag_68:\n    /* \"#utility.yul\":1976:2042   */\n  tag_19\n  jump\t// in\ntag_67:\n    /* \"#utility.yul\":1967:2042   */\n  swap1\n  pop\n    /* \"#utility.yul\":2065:2071   */\n  dup3\n    /* \"#utility.yul\":2058:2063   */\n  dup2\n    /* \"#utility.yul\":2051:2072   */\n  mstore\n    /* \"#utility.yul\":2103:2107   */\n  0x20\n    /* \"#utility.yul\":2096:2101   */\n  dup2\n    /* \"#utility.yul\":2092:2108   */\n  add\n    /* \"#utility.yul\":2141:2144   */\n  dup5\n    /* \"#utility.yul\":2132:2138   */\n  dup5\n    /* \"#utility.yul\":2127:2130   */\n  dup5\n    /* \"#utility.yul\":2123:2139   */\n  add\n    /* \"#utility.yul\":2120:2145   */\n  gt\n    /* \"#utility.yul\":2117:2229   */\n  iszero\n  tag_69\n  jumpi\n    /* \"#utility.yul\":2148:2227   */\n  tag_70\n  tag_15\n  jump\t// in\ntag_70:\n    /* \"#utility.yul\":2117:2229   */\ntag_69:\n    /* \"#utility.yul\":2238:2290   */\n  tag_71\n    /* \"#utility.yul\":2283:2289   */\n  dup5\n    /* \"#utility.yul\":2278:2281   */\n  dup3\n    /* \"#utility.yul\":2273:2276   */\n  dup6\n    /* \"#utility.yul\":2238:2290   */\n  tag_21\n  jump\t// in\ntag_71:\n    /* \"#utility.yul\":1957:2296   */\n  pop\n    /* \"#utility.yul\":1862:2296   */\n  swap4\n  swap3\n  pop\n  pop\n  pop\n  jump\t// out\n    /* \"#utility.yul\":2316:2671   */\ntag_23:\n    /* \"#utility.yul\":2383:2388   */\n  0x00\n    /* \"#utility.yul\":2432:2435   */\n  dup3\n    /* \"#utility.yul\":2425:2429   */\n  0x1f\n    /* \"#utility.yul\":2417:2423   */\n  dup4\n    /* \"#utility.yul\":2413:2430   */\n  add\n    /* \"#utility.yul\":2409:2436   */\n  slt\n    /* \"#utility.yul\":2399:2521   */\n  tag_73\n  jumpi\n    /* \"#utility.yul\":2440:2519   */\n  tag_74\n  tag_14\n  jump\t// in\ntag_74:\n    /* \"#utility.yul\":2399:2521   */\ntag_73:\n    /* \"#utility.yul\":2550:2556   */\n  dup2\n    /* \"#utility.yul\":2544:2557   */\n  mload\n    /* \"#utility.yul\":2575:2665   */\n  tag_75\n    /* \"#utility.yul\":2661:2664   */\n  dup5\n    /* \"#utility.yul\":2653:2659   */\n  dup3\n    /* \"#utility.yul\":2646:2650   */\n  0x20\n    /* \"#utility.yul\":2638:2644   */\n  dup7\n    /* \"#utility.yul\":2634:2651   */\n  add\n    /* \"#utility.yul\":2575:2665   */\n  tag_22\n  jump\t// in\ntag_75:\n    /* \"#utility.yul\":2566:2665   */\n  swap2\n  pop\n    /* \"#utility.yul\":2389:2671   */\n  pop\n    /* \"#utility.yul\":2316:2671   */\n  swap3\n  swap2\n  pop\n  pop\n  jump\t// out\n    /* \"#utility.yul\":2677:3201   */\ntag_3:\n    /* \"#utility.yul\":2757:2763   */\n  0x00\n    /* \"#utility.yul\":2806:2808   */\n  0x20\n    /* \"#utility.yul\":2794:2803   */\n  dup3\n    /* \"#utility.yul\":2785:2792   */\n  dup5\n    /* \"#utility.yul\":2781:2804   */\n  sub\n    /* \"#utility.yul\":2777:2809   */\n  slt\n    /* \"#utility.yul\":2774:2893   */\n  iszero\n  tag_77\n  jumpi\n    /* \"#utility.yul\":2812:2891   */\n  tag_78\n  tag_12\n  jump\t// in\ntag_78:\n    /* \"#utility.yul\":2774:2893   */\ntag_77:\n    /* \"#utility.yul\":2953:2954   */\n  0x00\n    /* \"#utility.yul\":2942:2951   */\n  dup3\n    /* \"#utility.yul\":2938:2955   */\n  add\n    /* \"#utility.yul\":2932:2956   */\n  mload\n    /* \"#utility.yul\":2983:3001   */\n  0xffffffffffffffff\n    /* \"#utility.yul\":2975:2981   */\n  dup2\n    /* \"#utility.yul\":2972:3002   */\n  gt\n    /* \"#utility.yul\":2969:3086   */\n  iszero\n  tag_79\n  jumpi\n    /* \"#utility.yul\":3005:3084   */\n  tag_80\n  tag_13\n  jump\t// in\ntag_80:\n    /* \"#utility.yul\":2969:3086   */\ntag_79:\n    /* \"#utility.yul\":3110:3184   */\n  tag_81\n    /* \"#utility.yul\":3176:3183   */\n  dup5\n    /* \"#utility.yul\":3167:3173   */\n  dup3\n    /* \"#utility.yul\":3156:3165   */\n  dup6\n    /* \"#utility.yul\":3152:3174   */\n  add\n    /* \"#utility.yul\":3110:3184   */\n  tag_23\n  jump\t// in\ntag_81:\n    /* \"#utility.yul\":3100:3184   */\n  swap2\n  pop\n    /* \"#utility.yul\":2903:3194   */\n  pop\n    /* \"#utility.yul\":2677:3201   */\n  swap3\n  swap2\n  pop\n  pop\n  jump\t// out\n    /* \"#utility.yul\":3207:3306   */\ntag_24:\n    /* \"#utility.yul\":3259:3265   */\n  0x00\n    /* \"#utility.yul\":3293:3298   */\n  dup2\n    /* \"#utility.yul\":3287:3299   */\n  mload\n    /* \"#utility.yul\":3277:3299   */\n  swap1\n  pop\n    /* \"#utility.yul\":3207:3306   */\n  swap2\n  swap1\n  pop\n  jump\t// out\n    /* \"#utility.yul\":3312:3492   */\ntag_25:\n    /* \"#utility.yul\":3360:3437   */\n  0x4e487b7100000000000000000000000000000000000000000000000000000000\n    /* \"#utility.yul\":3357:3358   */\n  0x00\n    /* \"#utility.yul\":3350:3438   */\n  mstore\n    /* \"#utility.yul\":3457:3461   */\n  0x22\n    /* \"#utility.yul\":3454:3455   */\n  0x04\n    /* \"#utility.yul\":3447:3462   */\n  mstore\n    /* \"#utility.yul\":3481:3485   */\n  0x24\n    /* \"#utility.yul\":3478:3479   */\n  0x00\n    /* \"#utility.yul\":3471:3486   */\n  revert\n    /* \"#utility.yul\":3498:3818   */\ntag_26:\n    /* \"#utility.yul\":3542:3548   */\n  0x00\n    /* \"#utility.yul\":3579:3580   */\n  0x02\n    /* \"#utility.yul\":3573:3577   */\n  dup3\n    /* \"#utility.yul\":3569:3581   */\n  div\n    /* \"#utility.yul\":3559:3581   */\n  swap1\n  pop\n    /* \"#utility.yul\":3626:3627   */\n  0x01\n    /* \"#utility.yul\":3620:3624   */\n  dup3\n    /* \"#utility.yul\":3616:3628   */\n  and\n    /* \"#utility.yul\":3647:3665   */\n  dup1\n    /* \"#utility.yul\":3637:3718   */\n  tag_85\n  jumpi\n    /* \"#utility.yul\":3703:3707   */\n  0x7f\n    /* \"#utility.yul\":3695:3701   */\n  dup3\n    /* \"#utility.yul\":3691:3708   */\n  and\n    /* \"#utility.yul\":3681:3708   */\n  swap2\n  pop\n    /* \"#utility.yul\":3637:3718   */\ntag_85:\n    /* \"#utility.yul\":3765:3767   */\n  0x20\n    /* \"#utility.yul\":3757:3763   */\n  dup3\n    /* \"#utility.yul\":3754:3768   */\n  lt\n    /* \"#utility.yul\":3734:3752   */\n  dup2\n    /* \"#utility.yul\":3731:3769   */\n  sub\n    /* \"#utility.yul\":3728:3812   */\n  tag_86\n  jumpi\n    /* \"#utility.yul\":3784:3802   */\n  tag_87\n  tag_25\n  jump\t// in\ntag_87:\n    /* \"#utility.yul\":3728:3812   */\ntag_86:\n    /* \"#utility.yul\":3549:3818   */\n  pop\n    /* \"#utility.yul\":3498:3818   */\n  swap2\n  swap1\n  pop\n  jump\t// out\n    /* \"#utility.yul\":3824:3965   */\ntag_27:\n    /* \"#utility.yul\":3873:3877   */\n  0x00\n    /* \"#utility.yul\":3896:3899   */\n  dup2\n    /* \"#utility.yul\":3888:3899   */\n  swap1\n  pop\n    /* \"#utility.yul\":3919:3922   */\n  dup2\n    /* \"#utility.yul\":3916:3917   */\n  0x00\n    /* \"#utility.yul\":3909:3923   */\n  mstore\n    /* \"#utility.yul\":3953:3957   */\n  0x20\n    /* \"#utility.yul\":3950:3951   */\n  0x00\n    /* \"#utility.yul\":3940:3958   */\n  keccak256\n    /* \"#utility.yul\":3932:3958   */\n  swap1\n  pop\n    /* \"#utility.yul\":3824:3965   */\n  swap2\n  swap1\n  pop\n  jump\t// out\n    /* \"#utility.yul\":3971:4064   */\ntag_28:\n    /* \"#utility.yul\":4008:4014   */\n  0x00\n    /* \"#utility.yul\":4055:4057   */\n  0x20\n    /* \"#utility.yul\":4050:4052   */\n  0x1f\n    /* \"#utility.yul\":4043:4048   */\n  dup4\n    /* \"#utility.yul\":4039:4053   */\n  add\n    /* \"#utility.yul\":4035:4058   */\n  div\n    /* \"#utility.yul\":4025:4058   */\n  swap1\n  pop\n    /* \"#utility.yul\":3971:4064   */\n  swap2\n  swap1\n  pop\n  jump\t// out\n    /* \"#utility.yul\":4070:4177   */\ntag_29:\n    /* \"#utility.yul\":4114:4122   */\n  0x00\n    /* \"#utility.yul\":4164:4169   */\n  dup3\n    /* \"#utility.yul\":4158:4162   */\n  dup3\n    /* \"#utility.yul\":4154:4170   */\n  shl\n    /* \"#utility.yul\":4133:4170   */\n  swap1\n  pop\n    /* \"#utility.yul\":4070:4177   */\n  swap3\n  swap2\n  pop\n  pop\n  jump\t// out\n    /* \"#utility.yul\":4183:4576   */\ntag_30:\n    /* \"#utility.yul\":4252:4258   */\n  0x00\n    /* \"#utility.yul\":4302:4303   */\n  0x08\n    /* \"#utility.yul\":4290:4300   */\n  dup4\n    /* \"#utility.yul\":4286:4304   */\n  mul\n    /* \"#utility.yul\":4325:4422   */\n  tag_92\n    /* \"#utility.yul\":4355:4421   */\n  0xffffffffffffffffffffffffffffffffffffffffffffffffffffffffffffffff\n    /* \"#utility.yul\":4344:4353   */\n  dup3\n    /* \"#utility.yul\":4325:4422   */\n  tag_29\n  jump\t// in\ntag_92:\n    /* \"#utility.yul\":4443:4482   */\n  tag_93\n    /* \"#utility.yul\":4473:4481   */\n  dup7\n    /* \"#utility.yul\":4462:4471   */\n  dup4\n    /* \"#utility.yul\":4443:4482   */\n  tag_29\n  jump\t// in\ntag_93:\n    /* \"#utility.yul\":4431:4482   */\n  swap6\n  pop\n    /* \"#utility.yul\":4515:4519   */\n  dup1\n    /* \"#utility.yul\":4511:4520   */\n  not\n    /* \"#utility.yul\":4504:4509   */\n  dup5\n    /* \"#utility.yul\":4500:4521   */\n  and\n    /* \"#utility.yul\":4491:4521   */\n  swap4\n  pop\n    /* \"#utility.yul\":4564:4568   */\n  dup1\n    /* \"#utility.yul\":4554:4562   */\n  dup7\n    /* \"#utility.yul\":4550:4569   */\n  and\n    /* \"#utility.yul\":4543:4548   */\n  dup5\n    /* \"#utility.yul\":4540:4570   */\n  or\n    /* \"#utility.yul\":4530:4570   */\n  swap3\n  pop\n    /* \"#utility.yul\":4259:4576   */\n  pop\n  pop\n    /* \"#utility.yul\":4183:4576   */\n  swap4\n  swap3\n  pop\n  pop\n  pop\n  jump\t// out\n    /* \"#utility.yul\":4582:4659   */\ntag_31:\n    /* \"#utility.yul\":4619:4626   */\n  0x00\n    /* \"#utility.yul\":4648:4653   */\n  dup2\n    /* \"#utility.yul\":4637:4653   */\n  swap1\n  pop\n    /* \"#utility.yul\":4582:4659   */\n  swap2\n  swap1\n  pop\n  jump\t// out\n    /* \"#utility.yul\":4665:4725   */\ntag_32:\n    /* \"#utility.yul\":4693:4696   */\n  0x00\n    /* \"#utility.yul\":4714:4719   */\n  dup2\n    /* \"#utility.yul\":4707:4719   */\n  swap1\n  pop\n    /* \"#utility.yul\":4665:4725   */\n  swap2\n  swap1\n  pop\n  jump\t// out\n    /* \"#utility.yul\":4731:4873   */\ntag_33:\n    /* \"#utility.yul\":4781:4790   */\n  0x00\n    /* \"#utility.yul\":4814:4867   */\n  tag_97\n    /* \"#utility.yul\":4832:4866   */\n  tag_98\n    /* \"#utility.yul\":4841:4865   */\n  tag_99\n    /* \"#utility.yul\":4859:4864   */\n  dup5\n    /* \"#utility.yul\":4841:4865   */\n  tag_31\n  jump\t// in\ntag_99:\n    /* \"#utility.yul\":4832:4866   */\n  tag_32\n  jump\t// in\ntag_98:\n    /* \"#utility.yul\":4814:4867   */\n  tag_31\n  jump\t// in\ntag_97:\n    /* \"#utility.yul\":4801:4867   */\n  swap1\n  pop\n    /* \"#utility.yul\":4731:4873   */\n  swap2\n  swap1\n  pop\n  jump\t// out\n    /* \"#utility.yul\":4879:4954   */\ntag_34:\n    /* \"#utility.yul\":4922:4925   */\n  0x00\n    /* \"#utility.yul\":4943:4948   */\n  dup2\n    /* \"#utility.yul\":4936:4948   */\n  swap1\n  pop\n    /* \"#utility.yul\":4879:4954   */\n  swap2\n  swap1\n  pop\n  jump\t// out\n    /* \"#utility.yul\":4960:5229   */\ntag_35:\n    /* \"#utility.yul\":5070:5109   */\n  tag_102\n    /* \"#utility.yul\":5101:5108   */\n  dup4\n    /* \"#utility.yul\":5070:5109   */\n  tag_33\n  jump\t// in\ntag_102:\n    /* \"#utility.yul\":5131:5222   */\n  tag_103\n    /* \"#utility.yul\":5180:5221   */\n  tag_104\n    /* \"#utility.yul\":5204:5220   */\n  dup3\n    /* \"#utility.yul\":5180:5221   */\n  tag_34\n  jump\t// in\ntag_104:\n    /* \"#utility.yul\":5172:5178   */\n  dup5\n    /* \"#utility.yul\":5165:5169   */\n  dup5\n    /* \"#utility.yul\":5159:5170   */\n  sload\n    /* \"#utility.yul\":5131:5222   */\n  tag_30\n  jump\t// in\ntag_103:\n    /* \"#utility.yul\":5125:5129   */\n  dup3\n    /* \"#utility.yul\":5118:5223   */\n  sstore\n    /* \"#utility.yul\":5036:5229   */\n  pop\n    /* \"#utility.yul\":4960:5229   */\n  pop\n  pop\n  pop\n  jump\t// out\n    /* \"#utility.yul\":5235:5308   */\ntag_36:\n    /* \"#utility.yul\":5280:5283   */\n  0x00\n    /* \"#utility.yul\":5235:5308   */\n  swap1\n  jump\t// out\n    /* \"#utility.yul\":5314:5503   */\ntag_37:\n    /* \"#utility.yul\":5391:5423   */\n  tag_107\n  tag_36\n  jump\t// in\ntag_107:\n    /* \"#utility.yul\":5432:5497   */\n  tag_108\n    /* \"#utility.yul\":5490:5496   */\n  dup2\n    /* \"#utility.yul\":5482:5488   */\n  dup5\n    /* \"#utility.yul\":5476:5480   */\n  dup5\n    /* \"#utility.yul\":5432:5497   */\n  tag_35\n  jump\t// in\ntag_108:\n    /* \"#utility.yul\":5367:5503   */\n  pop\n    /* \"#utility.yul\":5314:5503   */\n  pop\n  pop\n  jump\t// out\n    /* \"#utility.yul\":5509:5695   */\ntag_38:\n    /* \"#utility.yul\":5569:5689   */\ntag_110:\n    /* \"#utility.yul\":5586:5589   */\n  dup2\n    /* \"#utility.yul\":5579:5584   */\n  dup2\n    /* \"#utility.yul\":5576:5590   */\n  lt\n    /* \"#utility.yul\":5569:5689   */\n  iszero\n  tag_112\n  jumpi\n    /* \"#utility.yul\":5640:5679   */\n  tag_113\n    /* \"#utility.yul\":5677:5678   */\n  0x00\n    /* \"#utility.yul\":5670:5675   */\n  dup3\n    /* \"#utility.yul\":5640:5679   */\n  tag_37\n  jump\t// in\ntag_113:\n    /* \"#utility.yul\":5613:5614   */\n  0x01\n    /* \"#utility.yul\":5606:5611   */\n  dup2\n    /* \"#utility.yul\":5602:5615   */\n  add\n    /* \"#utility.yul\":5593:5615   */\n  swap1\n  pop\n    /* \"#utility.yul\":5569:5689   */\n  jump(tag_110)\ntag_112:\n    /* \"#utility.yul\":5509:5695   */\n  pop\n  pop\n  jump\t// out\n    /* \"#utility.yul\":5701:6244   */\ntag_39:\n    /* \"#utility.yul\":5802:5804   */\n  0x1f\n    /* \"#utility.yul\":5797:5800   */\n  dup3\n    /* \"#utility.yul\":5794:5805   */\n  gt\n    /* \"#utility.yul\":5791:6237   */\n  iszero\n  tag_115\n  jumpi\n    /* \"#utility.yul\":5836:5874   */\n  tag_116\n    /* \"#utility.yul\":5868:5873   */\n  dup2\n    /* \"#utility.yul\":5836:5874   */\n  tag_27\n  jump\t// in\ntag_116:\n    /* \"#utility.yul\":5920:5949   */\n  tag_117\n    /* \"#utility.yul\":5938:5948   */\n  dup5\n    /* \"#utility.yul\":5920:5949   */\n  tag_28\n  jump\t// in\ntag_117:\n    /* \"#utility.yul\":5910:5918   */\n  dup2\n    /* \"#utility.yul\":5906:5950   */\n  add\n    /* \"#utility.yul\":6103:6105   */\n  0x20\n    /* \"#utility.yul\":6091:6101   */\n  dup6\n    /* \"#utility.yul\":6088:6106   */\n  lt\n    /* \"#utility.yul\":6085:6134   */\n  iszero\n  tag_118\n  jumpi\n    /* \"#utility.yul\":6124:6132   */\n  dup2\n    /* \"#utility.yul\":6109:6132   */\n  swap1\n  pop\n    /* \"#utility.yul\":6085:6134   */\ntag_118:\n    /* \"#utility.yul\":6147:6227   */\n  tag_119\n    /* \"#utility.yul\":6203:6225   */\n  tag_120\n    /* \"#utility.yul\":6221:6224   */\n  dup6\n    /* \"#utility.yul\":6203:6225   */\n  tag_28\n  jump\t// in\ntag_120:\n    /* \"#utility.yul\":6193:6201   */\n  dup4\n    /* \"#utility.yul\":6189:6226   */\n  add\n    /* \"#utility.yul\":6176:6187   */\n  dup3\n    /* \"#utility.yul\":6147:6227   */\n  tag_38\n  jump\t// in\ntag_119:\n    /* \"#utility.yul\":5806:6237   */\n  pop\n  pop\n    /* \"#utility.yul\":5791:6237   */\ntag_115:\n    /* \"#utility.yul\":5701:6244   */\n  pop\n  pop\n  pop\n  jump\t// out\n    /* \"#utility.yul\":6250:6367   */\ntag_40:\n    /* \"#utility.yul\":6304:6312   */\n  0x00\n    /* \"#utility.yul\":6354:6359   */\n  dup3\n    /* \"#utility.yul\":6348:6352   */\n  dup3\n    /* \"#utility.yul\":6344:6360   */\n  shr\n    /* \"#utility.yul\":6323:6360   */\n  swap1\n  pop\n    /* \"#utility.yul\":6250:6367   */\n  swap3\n  swap2\n  pop\n  pop\n  jump\t// out\n    /* \"#utility.yul\":6373:6542   */\ntag_41:\n    /* \"#utility.yul\":6417:6423   */\n  0x00\n    /* \"#utility.yul\":6450:6501   */\n  tag_123\n    /* \"#utility.yul\":6498:6499   */\n  0x00\n    /* \"#utility.yul\":6494:6500   */\n  not\n    /* \"#utility.yul\":6486:6491   */\n  dup5\n    /* \"#utility.yul\":6483:6484   */\n  0x08\n    /* \"#utility.yul\":6479:6492   */\n  mul\n    /* \"#utility.yul\":6450:6501   */\n  tag_40\n  jump\t// in\ntag_123:\n    /* \"#utility.yul\":6446:6502   */\n  not\n    /* \"#utility.yul\":6531:6535   */\n  dup1\n    /* \"#utility.yul\":6525:6529   */\n  dup4\n    /* \"#utility.yul\":6521:6536   */\n  and\n    /* \"#utility.yul\":6511:6536   */\n  swap2\n  pop\n    /* \"#utility.yul\":6424:6542   */\n  pop\n    /* \"#utility.yul\":6373:6542   */\n  swap3\n  swap2\n  pop\n  pop\n  jump\t// out\n    /* \"#utility.yul\":6547:6842   */\ntag_42:\n    /* \"#utility.yul\":6623:6627   */\n  0x00\n    /* \"#utility.yul\":6769:6798   */\n  tag_125\n    /* \"#utility.yul\":6794:6797   */\n  dup4\n    /* \"#utility.yul\":6788:6792   */\n  dup4\n    /* \"#utility.yul\":6769:6798   */\n  tag_41\n  jump\t// in\ntag_125:\n    /* \"#utility.yul\":6761:6798   */\n  swap2\n  pop\n    /* \"#utility.yul\":6831:6834   */\n  dup3\n    /* \"#utility.yul\":6828:6829   */\n  0x02\n    /* \"#utility.yul\":6824:6835   */\n  mul\n    /* \"#utility.yul\":6818:6822   */\n  dup3\n    /* \"#utility.yul\":6815:6836   */\n  or\n    /* \"#utility.yul\":6807:6836   */\n  swap1\n  pop\n    /* \"#utility.yul\":6547:6842   */\n  swap3\n  swap2\n  pop\n  pop\n  jump\t// out\n    /* \"#utility.yul\":6847:8242   */\ntag_9:\n    /* \"#utility.yul\":6964:7001   */\n  tag_127\n    /* \"#utility.yul\":6997:7000   */\n  dup3\n    /* \"#utility.yul\":6964:7001   */\n  tag_24\n  jump\t// in\ntag_127:\n    /* \"#utility.yul\":7066:7084   */\n  0xffffffffffffffff\n    /* \"#utility.yul\":7058:7064   */\n  dup2\n    /* \"#utility.yul\":7055:7085   */\n  gt\n    /* \"#utility.yul\":7052:7108   */\n  iszero\n  tag_128\n  jumpi\n    /* \"#utility.yul\":7088:7106   */\n  tag_129\n  tag_17\n  jump\t// in\ntag_129:\n    /* \"#utility.yul\":7052:7108   */\ntag_128:\n    /* \"#utility.yul\":7132:7170   */\n  tag_130\n    /* \"#utility.yul\":7164:7168   */\n  dup3\n    /* \"#utility.yul\":7158:7169   */\n  sload\n    /* \"#utility.yul\":7132:7170   */\n  tag_26\n  jump\t// in\ntag_130:\n    /* \"#utility.yul\":7217:7284   */\n  tag_131\n    /* \"#utility.yul\":7277:7283   */\n  dup3\n    /* \"#utility.yul\":7269:7275   */\n  dup3\n    /* \"#utility.yul\":7263:7267   */\n  dup6\n    /* \"#utility.yul\":7217:7284   */\n  tag_39\n  jump\t// in\ntag_131:\n    /* \"#utility.yul\":7311:7312   */\n  0x00\n    /* \"#utility.yul\":7335:7339   */\n  0x20\n    /* \"#utility.yul\":7322:7339   */\n  swap1\n  pop\n    /* \"#utility.yul\":7367:7369   */\n  0x1f\n    /* \"#utility.yul\":7359:7365   */\n  dup4\n    /* \"#utility.yul\":7356:7370   */\n  gt\n    /* \"#utility.yul\":7384:7385   */\n  0x01\n    /* \"#utility.yul\":7379:7997   */\n  dup2\n  eq\n  tag_133\n  jumpi\n    /* \"#utility.yul\":8041:8042   */\n  0x00\n    /* \"#utility.yul\":8058:8064   */\n  dup5\n    /* \"#utility.yul\":8055:8132   */\n  iszero\n  tag_134\n  jumpi\n    /* \"#utility.yul\":8107:8116   */\n  dup3\n    /* \"#utility.yul\":8102:8105   */\n  dup8\n    /* \"#utility.yul\":8098:8117   */\n  add\n    /* \"#utility.yul\":8092:8118   */\n  mload\n    /* \"#utility.yul\":8083:8118   */\n  swap1\n  pop\n    /* \"#utility.yul\":8055:8132   */\ntag_134:\n    /* \"#utility.yul\":8158:8225   */\n  tag_135\n    /* \"#utility.yul\":8218:8224   */\n  dup6\n    /* \"#utility.yul\":8211:8216   */\n  dup3\n    /* \"#utility.yul\":8158:8225   */\n  tag_42\n  jump\t// in\ntag_135:\n    /* \"#utility.yul\":8152:8156   */\n  dup7\n    /* \"#utility.yul\":8145:8226   */\n  sstore\n    /* \"#utility.yul\":8014:8236   */\n  pop\n    /* \"#utility.yul\":7349:8236   */\n  jump(tag_132)\n    /* \"#utility.yul\":7379:7997   */\ntag_133:\n    /* \"#utility.yul\":7431:7435   */\n  0x1f\n    /* \"#utility.yul\":7427:7436   */\n  not\n    /* \"#utility.yul\":7419:7425   */\n  dup5\n    /* \"#utility.yul\":7415:7437   */\n  and\n    /* \"#utility.yul\":7465:7502   */\n  tag_136\n    /* \"#utility.yul\":7497:7501   */\n  dup7\n    /* \"#utility.yul\":7465:7502   */\n  tag_27\n  jump\t// in\ntag_136:\n    /* \"#utility.yul\":7524:7525   */\n  0x00\n    /* \"#utility.yul\":7538:7746   */\ntag_137:\n    /* \"#utility.yul\":7552:7559   */\n  dup3\n    /* \"#utility.yul\":7549:7550   */\n  dup2\n    /* \"#utility.yul\":7546:7560   */\n  lt\n    /* \"#utility.yul\":7538:7746   */\n  iszero\n  tag_139\n  jumpi\n    /* \"#utility.yul\":7631:7640   */\n  dup5\n    /* \"#utility.yul\":7626:7629   */\n  dup10\n    /* \"#utility.yul\":7622:7641   */\n  add\n    /* \"#utility.yul\":7616:7642   */\n  mload\n    /* \"#utility.yul\":7608:7614   */\n  dup3\n    /* \"#utility.yul\":7601:7643   */\n  sstore\n    /* \"#utility.yul\":7682:7683   */\n  0x01\n    /* \"#utility.yul\":7674:7680   */\n  dup3\n    /* \"#utility.yul\":7670:7684   */\n  add\n    /* \"#utility.yul\":7660:7684   */\n  swap2\n  pop\n    /* \"#utility.yul\":7729:7731   */\n  0x20\n    /* \"#utility.yul\":7718:7727   */\n  dup6\n    /* \"#utility.yul\":7714:7732   */\n  add\n    /* \"#utility.yul\":7701:7732   */\n  swap5\n  pop\n    /* \"#utility.yul\":7575:7579   */\n  0x20\n    /* \"#utility.yul\":7572:7573   */\n  dup2\n    /* \"#utility.yul\":7568:7580   */\n  add\n    /* \"#utility.yul\":7563:7580   */\n  swap1\n  pop\n    /* \"#utility.yul\":7538:7746   */\n  jump(tag_137)\ntag_139:\n    /* \"#utility.yul\":7774:7780   */\n  dup7\n    /* \"#utility.yul\":7765:7772   */\n  dup4\n    /* \"#utility.yul\":7762:7781   */\n  lt\n    /* \"#utility.yul\":7759:7938   */\n  iszero\n  tag_140\n  jumpi\n    /* \"#utility.yul\":7832:7841   */\n  dup5\n    /* \"#utility.yul\":7827:7830   */\n  dup10\n    /* \"#utility.yul\":7823:7842   */\n  add\n    /* \"#utility.yul\":7817:7843   */\n  mload\n    /* \"#utility.yul\":7875:7923   */\n  tag_141\n    /* \"#utility.yul\":7917:7921   */\n  0x1f\n    /* \"#utility.yul\":7909:7915   */\n  dup10\n    /* \"#utility.yul\":7905:7922   */\n  and\n    /* \"#utility.yul\":7894:7903   */\n  dup3\n    /* \"#utility.yul\":7875:7923   */\n  tag_41\n  jump\t// in\ntag_141:\n    /* \"#utility.yul\":7867:7873   */\n  dup4\n    /* \"#utility.yul\":7860:7924   */\n  sstore\n    /* \"#utility.yul\":7782:7938   */\n  pop\n    /* \"#utility.yul\":7759:7938   */\ntag_140:\n    /* \"#utility.yul\":7984:7985   */\n  0x01\n    /* \"#utility.yul\":7980:7981   */\n  0x02\n    /* \"#utility.yul\":7972:7978   */\n  dup9\n    /* \"#utility.yul\":7968:7982   */\n  mul\n    /* \"#utility.yul\":7964:7986   */\n  add\n    /* \"#utility.yul\":7958:7962   */\n  dup9\n    /* \"#utility.yul\":7951:7987   */\n  sstore\n    /* \"#utility.yul\":7386:7997   */\n  pop\n  pop\n  pop\n    /* \"#utility.yul\":7349:8236   */\ntag_132:\n  pop\n    /* \"#utility.yul\":6939:8242   */\n  pop\n  pop\n  pop\n    /* \"#utility.yul\":6847:8242   */\n  pop\n  pop\n  jump\t// out\n    /* \"Nik_MD_project4.sol\":576:912  contract StringRecord is Record {... */\ntag_10:\n  dataSize(sub_0)\n  dup1\n  dataOffset(sub_0)\n  0x00\n  codecopy\n  0x00\n  return\nstop\n\nsub_0: assembly {\n        /* \"Nik_MD_project4.sol\":576:912  contract StringRecord is Record {... */\n      mstore(0x40, 0x80)\n      callvalue\n      dup1\n      iszero\n      tag_1\n      jumpi\n      0x00\n      dup1\n      revert\n    tag_1:\n      pop\n      jumpi(tag_2, lt(calldatasize, 0x04))\n      shr(0xe0, calldataload(0x00))\n      dup1\n      0x0781f5c9\n      eq\n      tag_3\n      jumpi\n      dup1\n      0x1dcd69ec\n      eq\n      tag_4\n      jumpi\n      dup1\n      0x266cf109\n      eq\n      tag_5\n      jumpi\n      dup1\n      0x3e0a0099\n      eq\n      tag_6\n      jumpi\n    tag_2:\n      0x00\n      dup1\n      revert\n        /* \"Nik_MD_project4.sol\":722:817  function getRecordType() public pure returns (string memory) {... */\n    tag_3:\n      tag_7\n      tag_8\n      jump\t// in\n    tag_7:\n      mload(0x40)\n      tag_9\n      swap2\n      swap1\n      tag_10\n      jump\t// in\n    tag_9:\n      mload(0x40)\n      dup1\n      swap2\n      sub\n      swap1\n      return\n        /* \"Nik_MD_project4.sol\":91:117  uint public timeOfCreation */\n    tag_4:\n      tag_11\n      tag_12\n      jump\t// in\n    tag_11:\n      mload(0x40)\n      tag_13\n      swap2\n      swap1\n      tag_14\n      jump\t// in\n    tag_13:\n      mload(0x40)\n      dup1\n      swap2\n      sub\n      swap1\n      return\n        /* \"Nik_MD_project4.sol\":615:635  string public record */\n    tag_5:\n      tag_15\n      tag_16\n      jump\t// in\n    tag_15:\n      mload(0x40)\n      tag_17\n      swap2\n      swap1\n      tag_10\n      jump\t// in\n    tag_17:\n      mload(0x40)\n      dup1\n      swap2\n      sub\n      swap1\n      return\n        /* \"Nik_MD_project4.sol\":825:909  function setRecord(string memory _record) public {... */\n    tag_6:\n      tag_18\n      0x04\n      dup1\n      calldatasize\n      sub\n      dup2\n      add\n      swap1\n      tag_19\n      swap2\n      swap1\n      tag_20\n      jump\t// in\n    tag_19:\n      tag_21\n      jump\t// in\n    tag_18:\n      stop\n        /* \"Nik_MD_project4.sol\":722:817  function getRecordType() public pure returns (string memory) {... */\n    tag_8:\n        /* \"Nik_MD_project4.sol\":768:781  string memory */\n      0x60\n        /* \"Nik_MD_project4.sol\":794:809  return \"string\" */\n      mload(0x40)\n      dup1\n      0x40\n      add\n      0x40\n      mstore\n      dup1\n      0x06\n      dup2\n      mstore\n      0x20\n      add\n      0x737472696e670000000000000000000000000000000000000000000000000000\n      dup2\n      mstore\n      pop\n      swap1\n      pop\n        /* \"Nik_MD_project4.sol\":722:817  function getRecordType() public pure returns (string memory) {... */\n      swap1\n      jump\t// out\n        /* \"Nik_MD_project4.sol\":91:117  uint public timeOfCreation */\n    tag_12:\n      sload(0x00)\n      dup2\n      jump\t// out\n        /* \"Nik_MD_project4.sol\":615:635  string public record */\n    tag_16:\n      0x01\n      dup1\n      sload\n      tag_23\n      swap1\n      tag_24\n      jump\t// in\n    tag_23:\n      dup1\n      0x1f\n      add\n      0x20\n      dup1\n      swap2\n      div\n      mul\n      0x20\n      add\n      mload(0x40)\n      swap1\n      dup2\n      add\n      0x40\n      mstore\n      dup1\n      swap3\n      swap2\n      swap1\n      dup2\n      dup2\n      mstore\n      0x20\n      add\n      dup3\n      dup1\n      sload\n      tag_25\n      swap1\n      tag_24\n      jump\t// in\n    tag_25:\n      dup1\n      iszero\n      tag_26\n      jumpi\n      dup1\n      0x1f\n      lt\n      tag_27\n      jumpi\n      0x0100\n      dup1\n      dup4\n      sload\n      div\n      mul\n      dup4\n      mstore\n      swap2\n      0x20\n      add\n      swap2\n      jump(tag_26)\n    tag_27:\n      dup3\n      add\n      swap2\n      swap1\n      0x00\n      mstore\n      keccak256(0x00, 0x20)\n      swap1\n    tag_28:\n      dup2\n      sload\n      dup2\n      mstore\n      swap1\n      0x01\n      add\n      swap1\n      0x20\n      add\n      dup1\n      dup4\n      gt\n      tag_28\n      jumpi\n      dup3\n      swap1\n      sub\n      0x1f\n      and\n      dup3\n      add\n      swap2\n    tag_26:\n      pop\n      pop\n      pop\n      pop\n      pop\n      dup2\n      jump\t// out\n        /* \"Nik_MD_project4.sol\":825:909  function setRecord(string memory _record) public {... */\n    tag_21:\n        /* \"Nik_MD_project4.sol\":894:901  _record */\n      dup1\n        /* \"Nik_MD_project4.sol\":885:891  record */\n      0x01\n        /* \"Nik_MD_project4.sol\":885:901  record = _record */\n      swap1\n      dup2\n      tag_30\n      swap2\n      swap1\n      tag_31\n      jump\t// in\n    tag_30:\n      pop\n        /* \"Nik_MD_project4.sol\":825:909  function setRecord(string memory _record) public {... */\n      pop\n      jump\t// out\n        /* \"#utility.yul\":7:106   */\n    tag_32:\n        /* \"#utility.yul\":59:65   */\n      0x00\n        /* \"#utility.yul\":93:98   */\n      dup2\n        /* \"#utility.yul\":87:99   */\n      mload\n        /* \"#utility.yul\":77:99   */\n      swap1\n      pop\n        /* \"#utility.yul\":7:106   */\n      swap2\n      swap1\n      pop\n      jump\t// out\n        /* \"#utility.yul\":112:281   */\n    tag_33:\n        /* \"#utility.yul\":196:207   */\n      0x00\n        /* \"#utility.yul\":230:236   */\n      dup3\n        /* \"#utility.yul\":225:228   */\n      dup3\n        /* \"#utility.yul\":218:237   */\n      mstore\n        /* \"#utility.yul\":270:274   */\n      0x20\n        /* \"#utility.yul\":265:268   */\n      dup3\n        /* \"#utility.yul\":261:275   */\n      add\n        /* \"#utility.yul\":246:275   */\n      swap1\n      pop\n        /* \"#utility.yul\":112:281   */\n      swap3\n      swap2\n      pop\n      pop\n      jump\t// out\n        /* \"#utility.yul\":287:533   */\n    tag_34:\n        /* \"#utility.yul\":368:369   */\n      0x00\n        /* \"#utility.yul\":378:491   */\n    tag_71:\n        /* \"#utility.yul\":392:398   */\n      dup4\n        /* \"#utility.yul\":389:390   */\n      dup2\n        /* \"#utility.yul\":386:399   */\n      lt\n        /* \"#utility.yul\":378:491   */\n      iszero\n      tag_73\n      jumpi\n        /* \"#utility.yul\":477:478   */\n      dup1\n        /* \"#utility.yul\":472:475   */\n      dup3\n        /* \"#utility.yul\":468:479   */\n      add\n        /* \"#utility.yul\":462:480   */\n      mload\n        /* \"#utility.yul\":458:459   */\n      dup2\n        /* \"#utility.yul\":453:456   */\n      dup5\n        /* \"#utility.yul\":449:460   */\n      add\n        /* \"#utility.yul\":442:481   */\n      mstore\n        /* \"#utility.yul\":414:416   */\n      0x20\n        /* \"#utility.yul\":411:412   */\n      dup2\n        /* \"#utility.yul\":407:417   */\n      add\n        /* \"#utility.yul\":402:417   */\n      swap1\n      pop\n        /* \"#utility.yul\":378:491   */\n      jump(tag_71)\n    tag_73:\n        /* \"#utility.yul\":525:526   */\n      0x00\n        /* \"#utility.yul\":516:522   */\n      dup5\n        /* \"#utility.yul\":511:514   */\n      dup5\n        /* \"#utility.yul\":507:523   */\n      add\n        /* \"#utility.yul\":500:527   */\n      mstore\n        /* \"#utility.yul\":349:533   */\n      pop\n        /* \"#utility.yul\":287:533   */\n      pop\n      pop\n      pop\n      jump\t// out\n        /* \"#utility.yul\":539:641   */\n    tag_35:\n        /* \"#utility.yul\":580:586   */\n      0x00\n        /* \"#utility.yul\":631:633   */\n      0x1f\n        /* \"#utility.yul\":627:634   */\n      not\n        /* \"#utility.yul\":622:624   */\n      0x1f\n        /* \"#utility.yul\":615:620   */\n      dup4\n        /* \"#utility.yul\":611:625   */\n      add\n        /* \"#utility.yul\":607:635   */\n      and\n        /* \"#utility.yul\":597:635   */\n      swap1\n      pop\n        /* \"#utility.yul\":539:641   */\n      swap2\n      swap1\n      pop\n      jump\t// out\n        /* \"#utility.yul\":647:1024   */\n    tag_36:\n        /* \"#utility.yul\":735:738   */\n      0x00\n        /* \"#utility.yul\":763:802   */\n      tag_76\n        /* \"#utility.yul\":796:801   */\n      dup3\n        /* \"#utility.yul\":763:802   */\n      tag_32\n      jump\t// in\n    tag_76:\n        /* \"#utility.yul\":818:889   */\n      tag_77\n        /* \"#utility.yul\":882:888   */\n      dup2\n        /* \"#utility.yul\":877:880   */\n      dup6\n        /* \"#utility.yul\":818:889   */\n      tag_33\n      jump\t// in\n    tag_77:\n        /* \"#utility.yul\":811:889   */\n      swap4\n      pop\n        /* \"#utility.yul\":898:963   */\n      tag_78\n        /* \"#utility.yul\":956:962   */\n      dup2\n        /* \"#utility.yul\":951:954   */\n      dup6\n        /* \"#utility.yul\":944:948   */\n      0x20\n        /* \"#utility.yul\":937:942   */\n      dup7\n        /* \"#utility.yul\":933:949   */\n      add\n        /* \"#utility.yul\":898:963   */\n      tag_34\n      jump\t// in\n    tag_78:\n        /* \"#utility.yul\":988:1017   */\n      tag_79\n        /* \"#utility.yul\":1010:1016   */\n      dup2\n        /* \"#utility.yul\":988:1017   */\n      tag_35\n      jump\t// in\n    tag_79:\n        /* \"#utility.yul\":983:986   */\n      dup5\n        /* \"#utility.yul\":979:1018   */\n      add\n        /* \"#utility.yul\":972:1018   */\n      swap2\n      pop\n        /* \"#utility.yul\":739:1024   */\n      pop\n        /* \"#utility.yul\":647:1024   */\n      swap3\n      swap2\n      pop\n      pop\n      jump\t// out\n        /* \"#utility.yul\":1030:1343   */\n    tag_10:\n        /* \"#utility.yul\":1143:1147   */\n      0x00\n        /* \"#utility.yul\":1181:1183   */\n      0x20\n        /* \"#utility.yul\":1170:1179   */\n      dup3\n        /* \"#utility.yul\":1166:1184   */\n      add\n        /* \"#utility.yul\":1158:1184   */\n      swap1\n      pop\n        /* \"#utility.yul\":1230:1239   */\n      dup2\n        /* \"#utility.yul\":1224:1228   */\n      dup2\n        /* \"#utility.yul\":1220:1240   */\n      sub\n        /* \"#utility.yul\":1216:1217   */\n      0x00\n        /* \"#utility.yul\":1205:1214   */\n      dup4\n        /* \"#utility.yul\":1201:1218   */\n      add\n        /* \"#utility.yul\":1194:1241   */\n      mstore\n        /* \"#utility.yul\":1258:1336   */\n      tag_81\n        /* \"#utility.yul\":1331:1335   */\n      dup2\n        /* \"#utility.yul\":1322:1328   */\n      dup5\n        /* \"#utility.yul\":1258:1336   */\n      tag_36\n      jump\t// in\n    tag_81:\n        /* \"#utility.yul\":1250:1336   */\n      swap1\n      pop\n        /* \"#utility.yul\":1030:1343   */\n      swap3\n      swap2\n      pop\n      pop\n      jump\t// out\n        /* \"#utility.yul\":1349:1426   */\n    tag_37:\n        /* \"#utility.yul\":1386:1393   */\n      0x00\n        /* \"#utility.yul\":1415:1420   */\n      dup2\n        /* \"#utility.yul\":1404:1420   */\n      swap1\n      pop\n        /* \"#utility.yul\":1349:1426   */\n      swap2\n      swap1\n      pop\n      jump\t// out\n        /* \"#utility.yul\":1432:1550   */\n    tag_38:\n        /* \"#utility.yul\":1519:1543   */\n      tag_84\n        /* \"#utility.yul\":1537:1542   */\n      dup2\n        /* \"#utility.yul\":1519:1543   */\n      tag_37\n      jump\t// in\n    tag_84:\n        /* \"#utility.yul\":1514:1517   */\n      dup3\n        /* \"#utility.yul\":1507:1544   */\n      mstore\n        /* \"#utility.yul\":1432:1550   */\n      pop\n      pop\n      jump\t// out\n        /* \"#utility.yul\":1556:1778   */\n    tag_14:\n        /* \"#utility.yul\":1649:1653   */\n      0x00\n        /* \"#utility.yul\":1687:1689   */\n      0x20\n        /* \"#utility.yul\":1676:1685   */\n      dup3\n        /* \"#utility.yul\":1672:1690   */\n      add\n        /* \"#utility.yul\":1664:1690   */\n      swap1\n      pop\n        /* \"#utility.yul\":1700:1771   */\n      tag_86\n        /* \"#utility.yul\":1768:1769   */\n      0x00\n        /* \"#utility.yul\":1757:1766   */\n      dup4\n        /* \"#utility.yul\":1753:1770   */\n      add\n        /* \"#utility.yul\":1744:1750   */\n      dup5\n        /* \"#utility.yul\":1700:1771   */\n      tag_38\n      jump\t// in\n    tag_86:\n        /* \"#utility.yul\":1556:1778   */\n      swap3\n      swap2\n      pop\n      pop\n      jump\t// out\n        /* \"#utility.yul\":1784:1859   */\n    tag_39:\n        /* \"#utility.yul\":1817:1823   */\n      0x00\n        /* \"#utility.yul\":1850:1852   */\n      0x40\n        /* \"#utility.yul\":1844:1853   */\n      mload\n        /* \"#utility.yul\":1834:1853   */\n      swap1\n      pop\n        /* \"#utility.yul\":1784:1859   */\n      swap1\n      jump\t// out\n        /* \"#utility.yul\":1865:1982   */\n    tag_40:\n        /* \"#utility.yul\":1974:1975   */\n      0x00\n        /* \"#utility.yul\":1971:1972   */\n      dup1\n        /* \"#utility.yul\":1964:1976   */\n      revert\n        /* \"#utility.yul\":1988:2105   */\n    tag_41:\n        /* \"#utility.yul\":2097:2098   */\n      0x00\n        /* \"#utility.yul\":2094:2095   */\n      dup1\n        /* \"#utility.yul\":2087:2099   */\n      revert\n        /* \"#utility.yul\":2111:2228   */\n    tag_42:\n        /* \"#utility.yul\":2220:2221   */\n      0x00\n        /* \"#utility.yul\":2217:2218   */\n      dup1\n        /* \"#utility.yul\":2210:2222   */\n      revert\n        /* \"#utility.yul\":2234:2351   */\n    tag_43:\n        /* \"#utility.yul\":2343:2344   */\n      0x00\n        /* \"#utility.yul\":2340:2341   */\n      dup1\n        /* \"#utility.yul\":2333:2345   */\n      revert\n        /* \"#utility.yul\":2357:2537   */\n    tag_44:\n        /* \"#utility.yul\":2405:2482   */\n      0x4e487b7100000000000000000000000000000000000000000000000000000000\n        /* \"#utility.yul\":2402:2403   */\n      0x00\n        /* \"#utility.yul\":2395:2483   */\n      mstore\n        /* \"#utility.yul\":2502:2506   */\n      0x41\n        /* \"#utility.yul\":2499:2500   */\n      0x04\n        /* \"#utility.yul\":2492:2507   */\n      mstore\n        /* \"#utility.yul\":2526:2530   */\n      0x24\n        /* \"#utility.yul\":2523:2524   */\n      0x00\n        /* \"#utility.yul\":2516:2531   */\n      revert\n        /* \"#utility.yul\":2543:2824   */\n    tag_45:\n        /* \"#utility.yul\":2626:2653   */\n      tag_94\n        /* \"#utility.yul\":2648:2652   */\n      dup3\n        /* \"#utility.yul\":2626:2653   */\n      tag_35\n      jump\t// in\n    tag_94:\n        /* \"#utility.yul\":2618:2624   */\n      dup2\n        /* \"#utility.yul\":2614:2654   */\n      add\n        /* \"#utility.yul\":2756:2762   */\n      dup2\n        /* \"#utility.yul\":2744:2754   */\n      dup2\n        /* \"#utility.yul\":2741:2763   */\n      lt\n        /* \"#utility.yul\":2720:2738   */\n      0xffffffffffffffff\n        /* \"#utility.yul\":2708:2718   */\n      dup3\n        /* \"#utility.yul\":2705:2739   */\n      gt\n        /* \"#utility.yul\":2702:2764   */\n      or\n        /* \"#utility.yul\":2699:2787   */\n      iszero\n      tag_95\n      jumpi\n        /* \"#utility.yul\":2767:2785   */\n      tag_96\n      tag_44\n      jump\t// in\n    tag_96:\n        /* \"#utility.yul\":2699:2787   */\n    tag_95:\n        /* \"#utility.yul\":2807:2817   */\n      dup1\n        /* \"#utility.yul\":2803:2805   */\n      0x40\n        /* \"#utility.yul\":2796:2818   */\n      mstore\n        /* \"#utility.yul\":2586:2824   */\n      pop\n        /* \"#utility.yul\":2543:2824   */\n      pop\n      pop\n      jump\t// out\n        /* \"#utility.yul\":2830:2959   */\n    tag_46:\n        /* \"#utility.yul\":2864:2870   */\n      0x00\n        /* \"#utility.yul\":2891:2911   */\n      tag_98\n      tag_39\n      jump\t// in\n    tag_98:\n        /* \"#utility.yul\":2881:2911   */\n      swap1\n      pop\n        /* \"#utility.yul\":2920:2953   */\n      tag_99\n        /* \"#utility.yul\":2948:2952   */\n      dup3\n        /* \"#utility.yul\":2940:2946   */\n      dup3\n        /* \"#utility.yul\":2920:2953   */\n      tag_45\n      jump\t// in\n    tag_99:\n        /* \"#utility.yul\":2830:2959   */\n      swap2\n      swap1\n      pop\n      jump\t// out\n        /* \"#utility.yul\":2965:3273   */\n    tag_47:\n        /* \"#utility.yul\":3027:3031   */\n      0x00\n        /* \"#utility.yul\":3117:3135   */\n      0xffffffffffffffff\n        /* \"#utility.yul\":3109:3115   */\n      dup3\n        /* \"#utility.yul\":3106:3136   */\n      gt\n        /* \"#utility.yul\":3103:3159   */\n      iszero\n      tag_101\n      jumpi\n        /* \"#utility.yul\":3139:3157   */\n      tag_102\n      tag_44\n      jump\t// in\n    tag_102:\n        /* \"#utility.yul\":3103:3159   */\n    tag_101:\n        /* \"#utility.yul\":3177:3206   */\n      tag_103\n        /* \"#utility.yul\":3199:3205   */\n      dup3\n        /* \"#utility.yul\":3177:3206   */\n      tag_35\n      jump\t// in\n    tag_103:\n        /* \"#utility.yul\":3169:3206   */\n      swap1\n      pop\n        /* \"#utility.yul\":3261:3265   */\n      0x20\n        /* \"#utility.yul\":3255:3259   */\n      dup2\n        /* \"#utility.yul\":3251:3266   */\n      add\n        /* \"#utility.yul\":3243:3266   */\n      swap1\n      pop\n        /* \"#utility.yul\":2965:3273   */\n      swap2\n      swap1\n      pop\n      jump\t// out\n        /* \"#utility.yul\":3279:3425   */\n    tag_48:\n        /* \"#utility.yul\":3376:3382   */\n      dup3\n        /* \"#utility.yul\":3371:3374   */\n      dup2\n        /* \"#utility.yul\":3366:3369   */\n      dup4\n        /* \"#utility.yul\":3353:3383   */\n      calldatacopy\n        /* \"#utility.yul\":3417:3418   */\n      0x00\n        /* \"#utility.yul\":3408:3414   */\n      dup4\n        /* \"#utility.yul\":3403:3406   */\n      dup4\n        /* \"#utility.yul\":3399:3415   */\n      add\n        /* \"#utility.yul\":3392:3419   */\n      mstore\n        /* \"#utility.yul\":3279:3425   */\n      pop\n      pop\n      pop\n      jump\t// out\n        /* \"#utility.yul\":3431:3856   */\n    tag_49:\n        /* \"#utility.yul\":3509:3514   */\n      0x00\n        /* \"#utility.yul\":3534:3600   */\n      tag_106\n        /* \"#utility.yul\":3550:3599   */\n      tag_107\n        /* \"#utility.yul\":3592:3598   */\n      dup5\n        /* \"#utility.yul\":3550:3599   */\n      tag_47\n      jump\t// in\n    tag_107:\n        /* \"#utility.yul\":3534:3600   */\n      tag_46\n      jump\t// in\n    tag_106:\n        /* \"#utility.yul\":3525:3600   */\n      swap1\n      pop\n        /* \"#utility.yul\":3623:3629   */\n      dup3\n        /* \"#utility.yul\":3616:3621   */\n      dup2\n        /* \"#utility.yul\":3609:3630   */\n      mstore\n        /* \"#utility.yul\":3661:3665   */\n      0x20\n        /* \"#utility.yul\":3654:3659   */\n      dup2\n        /* \"#utility.yul\":3650:3666   */\n      add\n        /* \"#utility.yul\":3699:3702   */\n      dup5\n        /* \"#utility.yul\":3690:3696   */\n      dup5\n        /* \"#utility.yul\":3685:3688   */\n      dup5\n        /* \"#utility.yul\":3681:3697   */\n      add\n        /* \"#utility.yul\":3678:3703   */\n      gt\n        /* \"#utility.yul\":3675:3787   */\n      iszero\n      tag_108\n      jumpi\n        /* \"#utility.yul\":3706:3785   */\n      tag_109\n      tag_43\n      jump\t// in\n    tag_109:\n        /* \"#utility.yul\":3675:3787   */\n    tag_108:\n        /* \"#utility.yul\":3796:3850   */\n      tag_110\n        /* \"#utility.yul\":3843:3849   */\n      dup5\n        /* \"#utility.yul\":3838:3841   */\n      dup3\n        /* \"#utility.yul\":3833:3836   */\n      dup6\n        /* \"#utility.yul\":3796:3850   */\n      tag_48\n      jump\t// in\n    tag_110:\n        /* \"#utility.yul\":3515:3856   */\n      pop\n        /* \"#utility.yul\":3431:3856   */\n      swap4\n      swap3\n      pop\n      pop\n      pop\n      jump\t// out\n        /* \"#utility.yul\":3876:4216   */\n    tag_50:\n        /* \"#utility.yul\":3932:3937   */\n      0x00\n        /* \"#utility.yul\":3981:3984   */\n      dup3\n        /* \"#utility.yul\":3974:3978   */\n      0x1f\n        /* \"#utility.yul\":3966:3972   */\n      dup4\n        /* \"#utility.yul\":3962:3979   */\n      add\n        /* \"#utility.yul\":3958:3985   */\n      slt\n        /* \"#utility.yul\":3948:4070   */\n      tag_112\n      jumpi\n        /* \"#utility.yul\":3989:4068   */\n      tag_113\n      tag_42\n      jump\t// in\n    tag_113:\n        /* \"#utility.yul\":3948:4070   */\n    tag_112:\n        /* \"#utility.yul\":4106:4112   */\n      dup2\n        /* \"#utility.yul\":4093:4113   */\n      calldataload\n        /* \"#utility.yul\":4131:4210   */\n      tag_114\n        /* \"#utility.yul\":4206:4209   */\n      dup5\n        /* \"#utility.yul\":4198:4204   */\n      dup3\n        /* \"#utility.yul\":4191:4195   */\n      0x20\n        /* \"#utility.yul\":4183:4189   */\n      dup7\n        /* \"#utility.yul\":4179:4196   */\n      add\n        /* \"#utility.yul\":4131:4210   */\n      tag_49\n      jump\t// in\n    tag_114:\n        /* \"#utility.yul\":4122:4210   */\n      swap2\n      pop\n        /* \"#utility.yul\":3938:4216   */\n      pop\n        /* \"#utility.yul\":3876:4216   */\n      swap3\n      swap2\n      pop\n      pop\n      jump\t// out\n        /* \"#utility.yul\":4222:4731   */\n    tag_20:\n        /* \"#utility.yul\":4291:4297   */\n      0x00\n        /* \"#utility.yul\":4340:4342   */\n      0x20\n        /* \"#utility.yul\":4328:4337   */\n      dup3\n        /* \"#utility.yul\":4319:4326   */\n      dup5\n        /* \"#utility.yul\":4315:4338   */\n      sub\n        /* \"#utility.yul\":4311:4343   */\n      slt\n        /* \"#utility.yul\":4308:4427   */\n      iszero\n      tag_116\n      jumpi\n        /* \"#utility.yul\":4346:4425   */\n      tag_117\n      tag_40\n      jump\t// in\n    tag_117:\n        /* \"#utility.yul\":4308:4427   */\n    tag_116:\n        /* \"#utility.yul\":4494:4495   */\n      0x00\n        /* \"#utility.yul\":4483:4492   */\n      dup3\n        /* \"#utility.yul\":4479:4496   */\n      add\n        /* \"#utility.yul\":4466:4497   */\n      calldataload\n        /* \"#utility.yul\":4524:4542   */\n      0xffffffffffffffff\n        /* \"#utility.yul\":4516:4522   */\n      dup2\n        /* \"#utility.yul\":4513:4543   */\n      gt\n        /* \"#utility.yul\":4510:4627   */\n      iszero\n      tag_118\n      jumpi\n        /* \"#utility.yul\":4546:4625   */\n      tag_119\n      tag_41\n      jump\t// in\n    tag_119:\n        /* \"#utility.yul\":4510:4627   */\n    tag_118:\n        /* \"#utility.yul\":4651:4714   */\n      tag_120\n        /* \"#utility.yul\":4706:4713   */\n      dup5\n        /* \"#utility.yul\":4697:4703   */\n      dup3\n        /* \"#utility.yul\":4686:4695   */\n      dup6\n        /* \"#utility.yul\":4682:4704   */\n      add\n        /* \"#utility.yul\":4651:4714   */\n      tag_50\n      jump\t// in\n    tag_120:\n        /* \"#utility.yul\":4641:4714   */\n      swap2\n      pop\n        /* \"#utility.yul\":4437:4724   */\n      pop\n        /* \"#utility.yul\":4222:4731   */\n      swap3\n      swap2\n      pop\n      pop\n      jump\t// out\n        /* \"#utility.yul\":4737:4917   */\n    tag_51:\n        /* \"#utility.yul\":4785:4862   */\n      0x4e487b7100000000000000000000000000000000000000000000000000000000\n        /* \"#utility.yul\":4782:4783   */\n      0x00\n        /* \"#utility.yul\":4775:4863   */\n      mstore\n        /* \"#utility.yul\":4882:4886   */\n      0x22\n        /* \"#utility.yul\":4879:4880   */\n      0x04\n        /* \"#utility.yul\":4872:4887   */\n      mstore\n        /* \"#utility.yul\":4906:4910   */\n      0x24\n        /* \"#utility.yul\":4903:4904   */\n      0x00\n        /* \"#utility.yul\":4896:4911   */\n      revert\n        /* \"#utility.yul\":4923:5243   */\n    tag_24:\n        /* \"#utility.yul\":4967:4973   */\n      0x00\n        /* \"#utility.yul\":5004:5005   */\n      0x02\n        /* \"#utility.yul\":4998:5002   */\n      dup3\n        /* \"#utility.yul\":4994:5006   */\n      div\n        /* \"#utility.yul\":4984:5006   */\n      swap1\n      pop\n        /* \"#utility.yul\":5051:5052   */\n      0x01\n        /* \"#utility.yul\":5045:5049   */\n      dup3\n        /* \"#utility.yul\":5041:5053   */\n      and\n        /* \"#utility.yul\":5072:5090   */\n      dup1\n        /* \"#utility.yul\":5062:5143   */\n      tag_123\n      jumpi\n        /* \"#utility.yul\":5128:5132   */\n      0x7f\n        /* \"#utility.yul\":5120:5126   */\n      dup3\n        /* \"#utility.yul\":5116:5133   */\n      and\n        /* \"#utility.yul\":5106:5133   */\n      swap2\n      pop\n        /* \"#utility.yul\":5062:5143   */\n    tag_123:\n        /* \"#utility.yul\":5190:5192   */\n      0x20\n        /* \"#utility.yul\":5182:5188   */\n      dup3\n        /* \"#utility.yul\":5179:5193   */\n      lt\n        /* \"#utility.yul\":5159:5177   */\n      dup2\n        /* \"#utility.yul\":5156:5194   */\n      sub\n        /* \"#utility.yul\":5153:5237   */\n      tag_124\n      jumpi\n        /* \"#utility.yul\":5209:5227   */\n      tag_125\n      tag_51\n      jump\t// in\n    tag_125:\n        /* \"#utility.yul\":5153:5237   */\n    tag_124:\n        /* \"#utility.yul\":4974:5243   */\n      pop\n        /* \"#utility.yul\":4923:5243   */\n      swap2\n      swap1\n      pop\n      jump\t// out\n        /* \"#utility.yul\":5249:5390   */\n    tag_52:\n        /* \"#utility.yul\":5298:5302   */\n      0x00\n        /* \"#utility.yul\":5321:5324   */\n      dup2\n        /* \"#utility.yul\":5313:5324   */\n      swap1\n      pop\n        /* \"#utility.yul\":5344:5347   */\n      dup2\n        /* \"#utility.yul\":5341:5342   */\n      0x00\n        /* \"#utility.yul\":5334:5348   */\n      mstore\n        /* \"#utility.yul\":5378:5382   */\n      0x20\n        /* \"#utility.yul\":5375:5376   */\n      0x00\n        /* \"#utility.yul\":5365:5383   */\n      keccak256\n        /* \"#utility.yul\":5357:5383   */\n      swap1\n      pop\n        /* \"#utility.yul\":5249:5390   */\n      swap2\n      swap1\n      pop\n      jump\t// out\n        /* \"#utility.yul\":5396:5489   */\n    tag_53:\n        /* \"#utility.yul\":5433:5439   */\n      0x00\n        /* \"#utility.yul\":5480:5482   */\n      0x20\n        /* \"#utility.yul\":5475:5477   */\n      0x1f\n        /* \"#utility.yul\":5468:5473   */\n      dup4\n        /* \"#utility.yul\":5464:5478   */\n      add\n        /* \"#utility.yul\":5460:5483   */\n      div\n        /* \"#utility.yul\":5450:5483   */\n      swap1\n      pop\n        /* \"#utility.yul\":5396:5489   */\n      swap2\n      swap1\n      pop\n      jump\t// out\n        /* \"#utility.yul\":5495:5602   */\n    tag_54:\n        /* \"#utility.yul\":5539:5547   */\n      0x00\n        /* \"#utility.yul\":5589:5594   */\n      dup3\n        /* \"#utility.yul\":5583:5587   */\n      dup3\n        /* \"#utility.yul\":5579:5595   */\n      shl\n        /* \"#utility.yul\":5558:5595   */\n      swap1\n      pop\n        /* \"#utility.yul\":5495:5602   */\n      swap3\n      swap2\n      pop\n      pop\n      jump\t// out\n        /* \"#utility.yul\":5608:6001   */\n    tag_55:\n        /* \"#utility.yul\":5677:5683   */\n      0x00\n        /* \"#utility.yul\":5727:5728   */\n      0x08\n        /* \"#utility.yul\":5715:5725   */\n      dup4\n        /* \"#utility.yul\":5711:5729   */\n      mul\n        /* \"#utility.yul\":5750:5847   */\n      tag_130\n        /* \"#utility.yul\":5780:5846   */\n      0xffffffffffffffffffffffffffffffffffffffffffffffffffffffffffffffff\n        /* \"#utility.yul\":5769:5778   */\n      dup3\n        /* \"#utility.yul\":5750:5847   */\n      tag_54\n      jump\t// in\n    tag_130:\n        /* \"#utility.yul\":5868:5907   */\n      tag_131\n        /* \"#utility.yul\":5898:5906   */\n      dup7\n        /* \"#utility.yul\":5887:5896   */\n      dup4\n        /* \"#utility.yul\":5868:5907   */\n      tag_54\n      jump\t// in\n    tag_131:\n        /* \"#utility.yul\":5856:5907   */\n      swap6\n      pop\n        /* \"#utility.yul\":5940:5944   */\n      dup1\n        /* \"#utility.yul\":5936:5945   */\n      not\n        /* \"#utility.yul\":5929:5934   */\n      dup5\n        /* \"#utility.yul\":5925:5946   */\n      and\n        /* \"#utility.yul\":5916:5946   */\n      swap4\n      pop\n        /* \"#utility.yul\":5989:5993   */\n      dup1\n        /* \"#utility.yul\":5979:5987   */\n      dup7\n        /* \"#utility.yul\":5975:5994   */\n      and\n        /* \"#utility.yul\":5968:5973   */\n      dup5\n        /* \"#utility.yul\":5965:5995   */\n      or\n        /* \"#utility.yul\":5955:5995   */\n      swap3\n      pop\n        /* \"#utility.yul\":5684:6001   */\n      pop\n      pop\n        /* \"#utility.yul\":5608:6001   */\n      swap4\n      swap3\n      pop\n      pop\n      pop\n      jump\t// out\n        /* \"#utility.yul\":6007:6067   */\n    tag_56:\n        /* \"#utility.yul\":6035:6038   */\n      0x00\n        /* \"#utility.yul\":6056:6061   */\n      dup2\n        /* \"#utility.yul\":6049:6061   */\n      swap1\n      pop\n        /* \"#utility.yul\":6007:6067   */\n      swap2\n      swap1\n      pop\n      jump\t// out\n        /* \"#utility.yul\":6073:6215   */\n    tag_57:\n        /* \"#utility.yul\":6123:6132   */\n      0x00\n        /* \"#utility.yul\":6156:6209   */\n      tag_134\n        /* \"#utility.yul\":6174:6208   */\n      tag_135\n        /* \"#utility.yul\":6183:6207   */\n      tag_136\n        /* \"#utility.yul\":6201:6206   */\n      dup5\n        /* \"#utility.yul\":6183:6207   */\n      tag_37\n      jump\t// in\n    tag_136:\n        /* \"#utility.yul\":6174:6208   */\n      tag_56\n      jump\t// in\n    tag_135:\n        /* \"#utility.yul\":6156:6209   */\n      tag_37\n      jump\t// in\n    tag_134:\n        /* \"#utility.yul\":6143:6209   */\n      swap1\n      pop\n        /* \"#utility.yul\":6073:6215   */\n      swap2\n      swap1\n      pop\n      jump\t// out\n        /* \"#utility.yul\":6221:6296   */\n    tag_58:\n        /* \"#utility.yul\":6264:6267   */\n      0x00\n        /* \"#utility.yul\":6285:6290   */\n      dup2\n        /* \"#utility.yul\":6278:6290   */\n      swap1\n      pop\n        /* \"#utility.yul\":6221:6296   */\n      swap2\n      swap1\n      pop\n      jump\t// out\n        /* \"#utility.yul\":6302:6571   */\n    tag_59:\n        /* \"#utility.yul\":6412:6451   */\n      tag_139\n        /* \"#utility.yul\":6443:6450   */\n      dup4\n        /* \"#utility.yul\":6412:6451   */\n      tag_57\n      jump\t// in\n    tag_139:\n        /* \"#utility.yul\":6473:6564   */\n      tag_140\n        /* \"#utility.yul\":6522:6563   */\n      tag_141\n        /* \"#utility.yul\":6546:6562   */\n      dup3\n        /* \"#utility.yul\":6522:6563   */\n      tag_58\n      jump\t// in\n    tag_141:\n        /* \"#utility.yul\":6514:6520   */\n      dup5\n        /* \"#utility.yul\":6507:6511   */\n      dup5\n        /* \"#utility.yul\":6501:6512   */\n      sload\n        /* \"#utility.yul\":6473:6564   */\n      tag_55\n      jump\t// in\n    tag_140:\n        /* \"#utility.yul\":6467:6471   */\n      dup3\n        /* \"#utility.yul\":6460:6565   */\n      sstore\n        /* \"#utility.yul\":6378:6571   */\n      pop\n        /* \"#utility.yul\":6302:6571   */\n      pop\n      pop\n      pop\n      jump\t// out\n        /* \"#utility.yul\":6577:6650   */\n    tag_60:\n        /* \"#utility.yul\":6622:6625   */\n      0x00\n        /* \"#utility.yul\":6577:6650   */\n      swap1\n      jump\t// out\n        /* \"#utility.yul\":6656:6845   */\n    tag_61:\n        /* \"#utility.yul\":6733:6765   */\n      tag_144\n      tag_60\n      jump\t// in\n    tag_144:\n        /* \"#utility.yul\":6774:6839   */\n      tag_145\n        /* \"#utility.yul\":6832:6838   */\n      dup2\n        /* \"#utility.yul\":6824:6830   */\n      dup5\n        /* \"#utility.yul\":6818:6822   */\n      dup5\n        /* \"#utility.yul\":6774:6839   */\n      tag_59\n      jump\t// in\n    tag_145:\n        /* \"#utility.yul\":6709:6845   */\n      pop\n        /* \"#utility.yul\":6656:6845   */\n      pop\n      pop\n      jump\t// out\n        /* \"#utility.yul\":6851:7037   */\n    tag_62:\n        /* \"#utility.yul\":6911:7031   */\n    tag_147:\n        /* \"#utility.yul\":6928:6931   */\n      dup2\n        /* \"#utility.yul\":6921:6926   */\n      dup2\n        /* \"#utility.yul\":6918:6932   */\n      lt\n        /* \"#utility.yul\":6911:7031   */\n      iszero\n      tag_149\n      jumpi\n        /* \"#utility.yul\":6982:7021   */\n      tag_150\n        /* \"#utility.yul\":7019:7020   */\n      0x00\n        /* \"#utility.yul\":7012:7017   */\n      dup3\n        /* \"#utility.yul\":6982:7021   */\n      tag_61\n      jump\t// in\n    tag_150:\n        /* \"#utility.yul\":6955:6956   */\n      0x01\n        /* \"#utility.yul\":6948:6953   */\n      dup2\n        /* \"#utility.yul\":6944:6957   */\n      add\n        /* \"#utility.yul\":6935:6957   */\n      swap1\n      pop\n        /* \"#utility.yul\":6911:7031   */\n      jump(tag_147)\n    tag_149:\n        /* \"#utility.yul\":6851:7037   */\n      pop\n      pop\n      jump\t// out\n        /* \"#utility.yul\":7043:7586   */\n    tag_63:\n        /* \"#utility.yul\":7144:7146   */\n      0x1f\n        /* \"#utility.yul\":7139:7142   */\n      dup3\n        /* \"#utility.yul\":7136:7147   */\n      gt\n        /* \"#utility.yul\":7133:7579   */\n      iszero\n      tag_152\n      jumpi\n        /* \"#utility.yul\":7178:7216   */\n      tag_153\n        /* \"#utility.yul\":7210:7215   */\n      dup2\n        /* \"#utility.yul\":7178:7216   */\n      tag_52\n      jump\t// in\n    tag_153:\n        /* \"#utility.yul\":7262:7291   */\n      tag_154\n        /* \"#utility.yul\":7280:7290   */\n      dup5\n        /* \"#utility.yul\":7262:7291   */\n      tag_53\n      jump\t// in\n    tag_154:\n        /* \"#utility.yul\":7252:7260   */\n      dup2\n        /* \"#utility.yul\":7248:7292   */\n      add\n        /* \"#utility.yul\":7445:7447   */\n      0x20\n        /* \"#utility.yul\":7433:7443   */\n      dup6\n        /* \"#utility.yul\":7430:7448   */\n      lt\n        /* \"#utility.yul\":7427:7476   */\n      iszero\n      tag_155\n      jumpi\n        /* \"#utility.yul\":7466:7474   */\n      dup2\n        /* \"#utility.yul\":7451:7474   */\n      swap1\n      pop\n        /* \"#utility.yul\":7427:7476   */\n    tag_155:\n        /* \"#utility.yul\":7489:7569   */\n      tag_156\n        /* \"#utility.yul\":7545:7567   */\n      tag_157\n        /* \"#utility.yul\":7563:7566   */\n      dup6\n        /* \"#utility.yul\":7545:7567   */\n      tag_53\n      jump\t// in\n    tag_157:\n        /* \"#utility.yul\":7535:7543   */\n      dup4\n        /* \"#utility.yul\":7531:7568   */\n      add\n        /* \"#utility.yul\":7518:7529   */\n      dup3\n        /* \"#utility.yul\":7489:7569   */\n      tag_62\n      jump\t// in\n    tag_156:\n        /* \"#utility.yul\":7148:7579   */\n      pop\n      pop\n        /* \"#utility.yul\":7133:7579   */\n    tag_152:\n        /* \"#utility.yul\":7043:7586   */\n      pop\n      pop\n      pop\n      jump\t// out\n        /* \"#utility.yul\":7592:7709   */\n    tag_64:\n        /* \"#utility.yul\":7646:7654   */\n      0x00\n        /* \"#utility.yul\":7696:7701   */\n      dup3\n        /* \"#utility.yul\":7690:7694   */\n      dup3\n        /* \"#utility.yul\":7686:7702   */\n      shr\n        /* \"#utility.yul\":7665:7702   */\n      swap1\n      pop\n        /* \"#utility.yul\":7592:7709   */\n      swap3\n      swap2\n      pop\n      pop\n      jump\t// out\n        /* \"#utility.yul\":7715:7884   */\n    tag_65:\n        /* \"#utility.yul\":7759:7765   */\n      0x00\n        /* \"#utility.yul\":7792:7843   */\n      tag_160\n        /* \"#utility.yul\":7840:7841   */\n      0x00\n        /* \"#utility.yul\":7836:7842   */\n      not\n        /* \"#utility.yul\":7828:7833   */\n      dup5\n        /* \"#utility.yul\":7825:7826   */\n      0x08\n        /* \"#utility.yul\":7821:7834   */\n      mul\n        /* \"#utility.yul\":7792:7843   */\n      tag_64\n      jump\t// in\n    tag_160:\n        /* \"#utility.yul\":7788:7844   */\n      not\n        /* \"#utility.yul\":7873:7877   */\n      dup1\n        /* \"#utility.yul\":7867:7871   */\n      dup4\n        /* \"#utility.yul\":7863:7878   */\n      and\n        /* \"#utility.yul\":7853:7878   */\n      swap2\n      pop\n        /* \"#utility.yul\":7766:7884   */\n      pop\n        /* \"#utility.yul\":7715:7884   */\n      swap3\n      swap2\n      pop\n      pop\n      jump\t// out\n        /* \"#utility.yul\":7889:8184   */\n    tag_66:\n        /* \"#utility.yul\":7965:7969   */\n      0x00\n        /* \"#utility.yul\":8111:8140   */\n      tag_162\n        /* \"#utility.yul\":8136:8139   */\n      dup4\n        /* \"#utility.yul\":8130:8134   */\n      dup4\n        /* \"#utility.yul\":8111:8140   */\n      tag_65\n      jump\t// in\n    tag_162:\n        /* \"#utility.yul\":8103:8140   */\n      swap2\n      pop\n        /* \"#utility.yul\":8173:8176   */\n      dup3\n        /* \"#utility.yul\":8170:8171   */\n      0x02\n        /* \"#utility.yul\":8166:8177   */\n      mul\n        /* \"#utility.yul\":8160:8164   */\n      dup3\n        /* \"#utility.yul\":8157:8178   */\n      or\n        /* \"#utility.yul\":8149:8178   */\n      swap1\n      pop\n        /* \"#utility.yul\":7889:8184   */\n      swap3\n      swap2\n      pop\n      pop\n      jump\t// out\n        /* \"#utility.yul\":8189:9584   */\n    tag_31:\n        /* \"#utility.yul\":8306:8343   */\n      tag_164\n        /* \"#utility.yul\":8339:8342   */\n      dup3\n        /* \"#utility.yul\":8306:8343   */\n      tag_32\n      jump\t// in\n    tag_164:\n        /* \"#utility.yul\":8408:8426   */\n      0xffffffffffffffff\n        /* \"#utility.yul\":8400:8406   */\n      dup2\n        /* \"#utility.yul\":8397:8427   */\n      gt\n        /* \"#utility.yul\":8394:8450   */\n      iszero\n      tag_165\n      jumpi\n        /* \"#utility.yul\":8430:8448   */\n      tag_166\n      tag_44\n      jump\t// in\n    tag_166:\n        /* \"#utility.yul\":8394:8450   */\n    tag_165:\n        /* \"#utility.yul\":8474:8512   */\n      tag_167\n        /* \"#utility.yul\":8506:8510   */\n      dup3\n        /* \"#utility.yul\":8500:8511   */\n      sload\n        /* \"#utility.yul\":8474:8512   */\n      tag_24\n      jump\t// in\n    tag_167:\n        /* \"#utility.yul\":8559:8626   */\n      tag_168\n        /* \"#utility.yul\":8619:8625   */\n      dup3\n        /* \"#utility.yul\":8611:8617   */\n      dup3\n        /* \"#utility.yul\":8605:8609   */\n      dup6\n        /* \"#utility.yul\":8559:8626   */\n      tag_63\n      jump\t// in\n    tag_168:\n        /* \"#utility.yul\":8653:8654   */\n      0x00\n        /* \"#utility.yul\":8677:8681   */\n      0x20\n        /* \"#utility.yul\":8664:8681   */\n      swap1\n      pop\n        /* \"#utility.yul\":8709:8711   */\n      0x1f\n        /* \"#utility.yul\":8701:8707   */\n      dup4\n        /* \"#utility.yul\":8698:8712   */\n      gt\n        /* \"#utility.yul\":8726:8727   */\n      0x01\n        /* \"#utility.yul\":8721:9339   */\n      dup2\n      eq\n      tag_170\n      jumpi\n        /* \"#utility.yul\":9383:9384   */\n      0x00\n        /* \"#utility.yul\":9400:9406   */\n      dup5\n        /* \"#utility.yul\":9397:9474   */\n      iszero\n      tag_171\n      jumpi\n        /* \"#utility.yul\":9449:9458   */\n      dup3\n        /* \"#utility.yul\":9444:9447   */\n      dup8\n        /* \"#utility.yul\":9440:9459   */\n      add\n        /* \"#utility.yul\":9434:9460   */\n      mload\n        /* \"#utility.yul\":9425:9460   */\n      swap1\n      pop\n        /* \"#utility.yul\":9397:9474   */\n    tag_171:\n        /* \"#utility.yul\":9500:9567   */\n      tag_172\n        /* \"#utility.yul\":9560:9566   */\n      dup6\n        /* \"#utility.yul\":9553:9558   */\n      dup3\n        /* \"#utility.yul\":9500:9567   */\n      tag_66\n      jump\t// in\n    tag_172:\n        /* \"#utility.yul\":9494:9498   */\n      dup7\n        /* \"#utility.yul\":9487:9568   */\n      sstore\n        /* \"#utility.yul\":9356:9578   */\n      pop\n        /* \"#utility.yul\":8691:9578   */\n      jump(tag_169)\n        /* \"#utility.yul\":8721:9339   */\n    tag_170:\n        /* \"#utility.yul\":8773:8777   */\n      0x1f\n        /* \"#utility.yul\":8769:8778   */\n      not\n        /* \"#utility.yul\":8761:8767   */\n      dup5\n        /* \"#utility.yul\":8757:8779   */\n      and\n        /* \"#utility.yul\":8807:8844   */\n      tag_173\n        /* \"#utility.yul\":8839:8843   */\n      dup7\n        /* \"#utility.yul\":8807:8844   */\n      tag_52\n      jump\t// in\n    tag_173:\n        /* \"#utility.yul\":8866:8867   */\n      0x00\n        /* \"#utility.yul\":8880:9088   */\n    tag_174:\n        /* \"#utility.yul\":8894:8901   */\n      dup3\n        /* \"#utility.yul\":8891:8892   */\n      dup2\n        /* \"#utility.yul\":8888:8902   */\n      lt\n        /* \"#utility.yul\":8880:9088   */\n      iszero\n      tag_176\n      jumpi\n        /* \"#utility.yul\":8973:8982   */\n      dup5\n        /* \"#utility.yul\":8968:8971   */\n      dup10\n        /* \"#utility.yul\":8964:8983   */\n      add\n        /* \"#utility.yul\":8958:8984   */\n      mload\n        /* \"#utility.yul\":8950:8956   */\n      dup3\n        /* \"#utility.yul\":8943:8985   */\n      sstore\n        /* \"#utility.yul\":9024:9025   */\n      0x01\n        /* \"#utility.yul\":9016:9022   */\n      dup3\n        /* \"#utility.yul\":9012:9026   */\n      add\n        /* \"#utility.yul\":9002:9026   */\n      swap2\n      pop\n        /* \"#utility.yul\":9071:9073   */\n      0x20\n        /* \"#utility.yul\":9060:9069   */\n      dup6\n        /* \"#utility.yul\":9056:9074   */\n      add\n        /* \"#utility.yul\":9043:9074   */\n      swap5\n      pop\n        /* \"#utility.yul\":8917:8921   */\n      0x20\n        /* \"#utility.yul\":8914:8915   */\n      dup2\n        /* \"#utility.yul\":8910:8922   */\n      add\n        /* \"#utility.yul\":8905:8922   */\n      swap1\n      pop\n        /* \"#utility.yul\":8880:9088   */\n      jump(tag_174)\n    tag_176:\n        /* \"#utility.yul\":9116:9122   */\n      dup7\n        /* \"#utility.yul\":9107:9114   */\n      dup4\n        /* \"#utility.yul\":9104:9123   */\n      lt\n        /* \"#utility.yul\":9101:9280   */\n      iszero\n      tag_177\n      jumpi\n        /* \"#utility.yul\":9174:9183   */\n      dup5\n        /* \"#utility.yul\":9169:9172   */\n      dup10\n        /* \"#utility.yul\":9165:9184   */\n      add\n        /* \"#utility.yul\":9159:9185   */\n      mload\n        /* \"#utility.yul\":9217:9265   */\n      tag_178\n        /* \"#utility.yul\":9259:9263   */\n      0x1f\n        /* \"#utility.yul\":9251:9257   */\n      dup10\n        /* \"#utility.yul\":9247:9264   */\n      and\n        /* \"#utility.yul\":9236:9245   */\n      dup3\n        /* \"#utility.yul\":9217:9265   */\n      tag_65\n      jump\t// in\n    tag_178:\n        /* \"#utility.yul\":9209:9215   */\n      dup4\n        /* \"#utility.yul\":9202:9266   */\n      sstore\n        /* \"#utility.yul\":9124:9280   */\n      pop\n        /* \"#utility.yul\":9101:9280   */\n    tag_177:\n        /* \"#utility.yul\":9326:9327   */\n      0x01\n        /* \"#utility.yul\":9322:9323   */\n      0x02\n        /* \"#utility.yul\":9314:9320   */\n      dup9\n        /* \"#utility.yul\":9310:9324   */\n      mul\n        /* \"#utility.yul\":9306:9328   */\n      add\n        /* \"#utility.yul\":9300:9304   */\n      dup9\n        /* \"#utility.yul\":9293:9329   */\n      sstore\n        /* \"#utility.yul\":8728:9339   */\n      pop\n      pop\n      pop\n        /* \"#utility.yul\":8691:9578   */\n    tag_169:\n      pop\n        /* \"#utility.yul\":8281:9584   */\n      pop\n      pop\n      pop\n        /* \"#utility.yul\":8189:9584   */\n      pop\n      pop\n      jump\t// out\n\n    auxdata: 0xa2646970667358221220b640b1c62f9c494386f77c7ce771e89f4ac82a301c6091dd24d6e2fcfd607c3e64736f6c63430008160033\n}\n",
				"bytecode": {
					"linkReferences": {},
					"object": "608060405234801562000010575f80fd5b5060405162000c5538038062000c558339818101604052810190620000369190620001da565b425f8190555080600190816200004d919062000460565b505062000544565b5f604051905090565b5f80fd5b5f80fd5b5f80fd5b5f80fd5b5f601f19601f8301169050919050565b7f4e487b71000000000000000000000000000000000000000000000000000000005f52604160045260245ffd5b620000b6826200006e565b810181811067ffffffffffffffff82111715620000d857620000d76200007e565b5b80604052505050565b5f620000ec62000055565b9050620000fa8282620000ab565b919050565b5f67ffffffffffffffff8211156200011c576200011b6200007e565b5b62000127826200006e565b9050602081019050919050565b5f5b838110156200015357808201518184015260208101905062000136565b5f8484015250505050565b5f620001746200016e84620000ff565b620000e1565b9050828152602081018484840111156200019357620001926200006a565b5b620001a084828562000134565b509392505050565b5f82601f830112620001bf57620001be62000066565b5b8151620001d18482602086016200015e565b91505092915050565b5f60208284031215620001f257620001f16200005e565b5b5f82015167ffffffffffffffff81111562000212576200021162000062565b5b6200022084828501620001a8565b91505092915050565b5f81519050919050565b7f4e487b71000000000000000000000000000000000000000000000000000000005f52602260045260245ffd5b5f60028204905060018216806200027857607f821691505b6020821081036200028e576200028d62000233565b5b50919050565b5f819050815f5260205f209050919050565b5f6020601f8301049050919050565b5f82821b905092915050565b5f60088302620002f27fffffffffffffffffffffffffffffffffffffffffffffffffffffffffffffffff82620002b5565b620002fe8683620002b5565b95508019841693508086168417925050509392505050565b5f819050919050565b5f819050919050565b5f62000348620003426200033c8462000316565b6200031f565b62000316565b9050919050565b5f819050919050565b620003638362000328565b6200037b62000372826200034f565b848454620002c1565b825550505050565b5f90565b6200039162000383565b6200039e81848462000358565b505050565b5b81811015620003c557620003b95f8262000387565b600181019050620003a4565b5050565b601f8211156200041457620003de8162000294565b620003e984620002a6565b81016020851015620003f9578190505b620004116200040885620002a6565b830182620003a3565b50505b505050565b5f82821c905092915050565b5f620004365f198460080262000419565b1980831691505092915050565b5f62000450838362000425565b9150826002028217905092915050565b6200046b8262000229565b67ffffffffffffffff8111156200048757620004866200007e565b5b62000493825462000260565b620004a0828285620003c9565b5f60209050601f831160018114620004d6575f8415620004c1578287015190505b620004cd858262000443565b8655506200053c565b601f198416620004e68662000294565b5f5b828110156200050f57848901518255600182019150602085019450602081019050620004e8565b868310156200052f57848901516200052b601f89168262000425565b8355505b6001600288020188555050505b505050505050565b61070380620005525f395ff3fe608060405234801561000f575f80fd5b506004361061004a575f3560e01c80630781f5c91461004e5780631dcd69ec1461006c578063266cf1091461008a5780633e0a0099146100a8575b5f80fd5b6100566100c4565b604051610063919061022f565b60405180910390f35b610074610101565b6040516100819190610267565b60405180910390f35b610092610106565b60405161009f919061022f565b60405180910390f35b6100c260048036038101906100bd91906103bd565b610192565b005b60606040518060400160405280600681526020017f737472696e670000000000000000000000000000000000000000000000000000815250905090565b5f5481565b6001805461011390610431565b80601f016020809104026020016040519081016040528092919081815260200182805461013f90610431565b801561018a5780601f106101615761010080835404028352916020019161018a565b820191905f5260205f20905b81548152906001019060200180831161016d57829003601f168201915b505050505081565b80600190816101a191906105fe565b5050565b5f81519050919050565b5f82825260208201905092915050565b5f5b838110156101dc5780820151818401526020810190506101c1565b5f8484015250505050565b5f601f19601f8301169050919050565b5f610201826101a5565b61020b81856101af565b935061021b8185602086016101bf565b610224816101e7565b840191505092915050565b5f6020820190508181035f83015261024781846101f7565b905092915050565b5f819050919050565b6102618161024f565b82525050565b5f60208201905061027a5f830184610258565b92915050565b5f604051905090565b5f80fd5b5f80fd5b5f80fd5b5f80fd5b7f4e487b71000000000000000000000000000000000000000000000000000000005f52604160045260245ffd5b6102cf826101e7565b810181811067ffffffffffffffff821117156102ee576102ed610299565b5b80604052505050565b5f610300610280565b905061030c82826102c6565b919050565b5f67ffffffffffffffff82111561032b5761032a610299565b5b610334826101e7565b9050602081019050919050565b828183375f83830152505050565b5f61036161035c84610311565b6102f7565b90508281526020810184848401111561037d5761037c610295565b5b610388848285610341565b509392505050565b5f82601f8301126103a4576103a3610291565b5b81356103b484826020860161034f565b91505092915050565b5f602082840312156103d2576103d1610289565b5b5f82013567ffffffffffffffff8111156103ef576103ee61028d565b5b6103fb84828501610390565b91505092915050565b7f4e487b71000000000000000000000000000000000000000000000000000000005f52602260045260245ffd5b5f600282049050600182168061044857607f821691505b60208210810361045b5761045a610404565b5b50919050565b5f819050815f5260205f209050919050565b5f6020601f8301049050919050565b5f82821b905092915050565b5f600883026104bd7fffffffffffffffffffffffffffffffffffffffffffffffffffffffffffffffff82610482565b6104c78683610482565b95508019841693508086168417925050509392505050565b5f819050919050565b5f6105026104fd6104f88461024f565b6104df565b61024f565b9050919050565b5f819050919050565b61051b836104e8565b61052f61052782610509565b84845461048e565b825550505050565b5f90565b610543610537565b61054e818484610512565b505050565b5b81811015610571576105665f8261053b565b600181019050610554565b5050565b601f8211156105b65761058781610461565b61059084610473565b8101602085101561059f578190505b6105b36105ab85610473565b830182610553565b50505b505050565b5f82821c905092915050565b5f6105d65f19846008026105bb565b1980831691505092915050565b5f6105ee83836105c7565b9150826002028217905092915050565b610607826101a5565b67ffffffffffffffff8111156106205761061f610299565b5b61062a8254610431565b610635828285610575565b5f60209050601f831160018114610666575f8415610654578287015190505b61065e85826105e3565b8655506106c5565b601f19841661067486610461565b5f5b8281101561069b57848901518255600182019150602085019450602081019050610676565b868310156106b857848901516106b4601f8916826105c7565b8355505b6001600288020188555050505b50505050505056fea2646970667358221220b640b1c62f9c494386f77c7ce771e89f4ac82a301c6091dd24d6e2fcfd607c3e64736f6c63430008160033",
					"opcodes": "PUSH1 0x80 PUSH1 0x40 MSTORE CALLVALUE DUP1 ISZERO PUSH3 0x10 JUMPI PUSH0 DUP1 REVERT JUMPDEST POP PUSH1 0x40 MLOAD PUSH3 0xC55 CODESIZE SUB DUP1 PUSH3 0xC55 DUP4 CODECOPY DUP2 DUP2 ADD PUSH1 0x40 MSTORE DUP2 ADD SWAP1 PUSH3 0x36 SWAP2 SWAP1 PUSH3 0x1DA JUMP JUMPDEST TIMESTAMP PUSH0 DUP2 SWAP1 SSTORE POP DUP1 PUSH1 0x1 SWAP1 DUP2 PUSH3 0x4D SWAP2 SWAP1 PUSH3 0x460 JUMP JUMPDEST POP POP PUSH3 0x544 JUMP JUMPDEST PUSH0 PUSH1 0x40 MLOAD SWAP1 POP SWAP1 JUMP JUMPDEST PUSH0 DUP1 REVERT JUMPDEST PUSH0 DUP1 REVERT JUMPDEST PUSH0 DUP1 REVERT JUMPDEST PUSH0 DUP1 REVERT JUMPDEST PUSH0 PUSH1 0x1F NOT PUSH1 0x1F DUP4 ADD AND SWAP1 POP SWAP2 SWAP1 POP JUMP JUMPDEST PUSH32 0x4E487B7100000000000000000000000000000000000000000000000000000000 PUSH0 MSTORE PUSH1 0x41 PUSH1 0x4 MSTORE PUSH1 0x24 PUSH0 REVERT JUMPDEST PUSH3 0xB6 DUP3 PUSH3 0x6E JUMP JUMPDEST DUP2 ADD DUP2 DUP2 LT PUSH8 0xFFFFFFFFFFFFFFFF DUP3 GT OR ISZERO PUSH3 0xD8 JUMPI PUSH3 0xD7 PUSH3 0x7E JUMP JUMPDEST JUMPDEST DUP1 PUSH1 0x40 MSTORE POP POP POP JUMP JUMPDEST PUSH0 PUSH3 0xEC PUSH3 0x55 JUMP JUMPDEST SWAP1 POP PUSH3 0xFA DUP3 DUP3 PUSH3 0xAB JUMP JUMPDEST SWAP2 SWAP1 POP JUMP JUMPDEST PUSH0 PUSH8 0xFFFFFFFFFFFFFFFF DUP3 GT ISZERO PUSH3 0x11C JUMPI PUSH3 0x11B PUSH3 0x7E JUMP JUMPDEST JUMPDEST PUSH3 0x127 DUP3 PUSH3 0x6E JUMP JUMPDEST SWAP1 POP PUSH1 0x20 DUP2 ADD SWAP1 POP SWAP2 SWAP1 POP JUMP JUMPDEST PUSH0 JUMPDEST DUP4 DUP2 LT ISZERO PUSH3 0x153 JUMPI DUP1 DUP3 ADD MLOAD DUP2 DUP5 ADD MSTORE PUSH1 0x20 DUP2 ADD SWAP1 POP PUSH3 0x136 JUMP JUMPDEST PUSH0 DUP5 DUP5 ADD MSTORE POP POP POP POP JUMP JUMPDEST PUSH0 PUSH3 0x174 PUSH3 0x16E DUP5 PUSH3 0xFF JUMP JUMPDEST PUSH3 0xE1 JUMP JUMPDEST SWAP1 POP DUP3 DUP2 MSTORE PUSH1 0x20 DUP2 ADD DUP5 DUP5 DUP5 ADD GT ISZERO PUSH3 0x193 JUMPI PUSH3 0x192 PUSH3 0x6A JUMP JUMPDEST JUMPDEST PUSH3 0x1A0 DUP5 DUP3 DUP6 PUSH3 0x134 JUMP JUMPDEST POP SWAP4 SWAP3 POP POP POP JUMP JUMPDEST PUSH0 DUP3 PUSH1 0x1F DUP4 ADD SLT PUSH3 0x1BF JUMPI PUSH3 0x1BE PUSH3 0x66 JUMP JUMPDEST JUMPDEST DUP2 MLOAD PUSH3 0x1D1 DUP5 DUP3 PUSH1 0x20 DUP7 ADD PUSH3 0x15E JUMP JUMPDEST SWAP2 POP POP SWAP3 SWAP2 POP POP JUMP JUMPDEST PUSH0 PUSH1 0x20 DUP3 DUP5 SUB SLT ISZERO PUSH3 0x1F2 JUMPI PUSH3 0x1F1 PUSH3 0x5E JUMP JUMPDEST JUMPDEST PUSH0 DUP3 ADD MLOAD PUSH8 0xFFFFFFFFFFFFFFFF DUP2 GT ISZERO PUSH3 0x212 JUMPI PUSH3 0x211 PUSH3 0x62 JUMP JUMPDEST JUMPDEST PUSH3 0x220 DUP5 DUP3 DUP6 ADD PUSH3 0x1A8 JUMP JUMPDEST SWAP2 POP POP SWAP3 SWAP2 POP POP JUMP JUMPDEST PUSH0 DUP2 MLOAD SWAP1 POP SWAP2 SWAP1 POP JUMP JUMPDEST PUSH32 0x4E487B7100000000000000000000000000000000000000000000000000000000 PUSH0 MSTORE PUSH1 0x22 PUSH1 0x4 MSTORE PUSH1 0x24 PUSH0 REVERT JUMPDEST PUSH0 PUSH1 0x2 DUP3 DIV SWAP1 POP PUSH1 0x1 DUP3 AND DUP1 PUSH3 0x278 JUMPI PUSH1 0x7F DUP3 AND SWAP2 POP JUMPDEST PUSH1 0x20 DUP3 LT DUP2 SUB PUSH3 0x28E JUMPI PUSH3 0x28D PUSH3 0x233 JUMP JUMPDEST JUMPDEST POP SWAP2 SWAP1 POP JUMP JUMPDEST PUSH0 DUP2 SWAP1 POP DUP2 PUSH0 MSTORE PUSH1 0x20 PUSH0 KECCAK256 SWAP1 POP SWAP2 SWAP1 POP JUMP JUMPDEST PUSH0 PUSH1 0x20 PUSH1 0x1F DUP4 ADD DIV SWAP1 POP SWAP2 SWAP1 POP JUMP JUMPDEST PUSH0 DUP3 DUP3 SHL SWAP1 POP SWAP3 SWAP2 POP POP JUMP JUMPDEST PUSH0 PUSH1 0x8 DUP4 MUL PUSH3 0x2F2 PUSH32 0xFFFFFFFFFFFFFFFFFFFFFFFFFFFFFFFFFFFFFFFFFFFFFFFFFFFFFFFFFFFFFFFF DUP3 PUSH3 0x2B5 JUMP JUMPDEST PUSH3 0x2FE DUP7 DUP4 PUSH3 0x2B5 JUMP JUMPDEST SWAP6 POP DUP1 NOT DUP5 AND SWAP4 POP DUP1 DUP7 AND DUP5 OR SWAP3 POP POP POP SWAP4 SWAP3 POP POP POP JUMP JUMPDEST PUSH0 DUP2 SWAP1 POP SWAP2 SWAP1 POP JUMP JUMPDEST PUSH0 DUP2 SWAP1 POP SWAP2 SWAP1 POP JUMP JUMPDEST PUSH0 PUSH3 0x348 PUSH3 0x342 PUSH3 0x33C DUP5 PUSH3 0x316 JUMP JUMPDEST PUSH3 0x31F JUMP JUMPDEST PUSH3 0x316 JUMP JUMPDEST SWAP1 POP SWAP2 SWAP1 POP JUMP JUMPDEST PUSH0 DUP2 SWAP1 POP SWAP2 SWAP1 POP JUMP JUMPDEST PUSH3 0x363 DUP4 PUSH3 0x328 JUMP JUMPDEST PUSH3 0x37B PUSH3 0x372 DUP3 PUSH3 0x34F JUMP JUMPDEST DUP5 DUP5 SLOAD PUSH3 0x2C1 JUMP JUMPDEST DUP3 SSTORE POP POP POP POP JUMP JUMPDEST PUSH0 SWAP1 JUMP JUMPDEST PUSH3 0x391 PUSH3 0x383 JUMP JUMPDEST PUSH3 0x39E DUP2 DUP5 DUP5 PUSH3 0x358 JUMP JUMPDEST POP POP POP JUMP JUMPDEST JUMPDEST DUP2 DUP2 LT ISZERO PUSH3 0x3C5 JUMPI PUSH3 0x3B9 PUSH0 DUP3 PUSH3 0x387 JUMP JUMPDEST PUSH1 0x1 DUP2 ADD SWAP1 POP PUSH3 0x3A4 JUMP JUMPDEST POP POP JUMP JUMPDEST PUSH1 0x1F DUP3 GT ISZERO PUSH3 0x414 JUMPI PUSH3 0x3DE DUP2 PUSH3 0x294 JUMP JUMPDEST PUSH3 0x3E9 DUP5 PUSH3 0x2A6 JUMP JUMPDEST DUP2 ADD PUSH1 0x20 DUP6 LT ISZERO PUSH3 0x3F9 JUMPI DUP2 SWAP1 POP JUMPDEST PUSH3 0x411 PUSH3 0x408 DUP6 PUSH3 0x2A6 JUMP JUMPDEST DUP4 ADD DUP3 PUSH3 0x3A3 JUMP JUMPDEST POP POP JUMPDEST POP POP POP JUMP JUMPDEST PUSH0 DUP3 DUP3 SHR SWAP1 POP SWAP3 SWAP2 POP POP JUMP JUMPDEST PUSH0 PUSH3 0x436 PUSH0 NOT DUP5 PUSH1 0x8 MUL PUSH3 0x419 JUMP JUMPDEST NOT DUP1 DUP4 AND SWAP2 POP POP SWAP3 SWAP2 POP POP JUMP JUMPDEST PUSH0 PUSH3 0x450 DUP4 DUP4 PUSH3 0x425 JUMP JUMPDEST SWAP2 POP DUP3 PUSH1 0x2 MUL DUP3 OR SWAP1 POP SWAP3 SWAP2 POP POP JUMP JUMPDEST PUSH3 0x46B DUP3 PUSH3 0x229 JUMP JUMPDEST PUSH8 0xFFFFFFFFFFFFFFFF DUP2 GT ISZERO PUSH3 0x487 JUMPI PUSH3 0x486 PUSH3 0x7E JUMP JUMPDEST JUMPDEST PUSH3 0x493 DUP3 SLOAD PUSH3 0x260 JUMP JUMPDEST PUSH3 0x4A0 DUP3 DUP3 DUP6 PUSH3 0x3C9 JUMP JUMPDEST PUSH0 PUSH1 0x20 SWAP1 POP PUSH1 0x1F DUP4 GT PUSH1 0x1 DUP2 EQ PUSH3 0x4D6 JUMPI PUSH0 DUP5 ISZERO PUSH3 0x4C1 JUMPI DUP3 DUP8 ADD MLOAD SWAP1 POP JUMPDEST PUSH3 0x4CD DUP6 DUP3 PUSH3 0x443 JUMP JUMPDEST DUP7 SSTORE POP PUSH3 0x53C JUMP JUMPDEST PUSH1 0x1F NOT DUP5 AND PUSH3 0x4E6 DUP7 PUSH3 0x294 JUMP JUMPDEST PUSH0 JUMPDEST DUP3 DUP2 LT ISZERO PUSH3 0x50F JUMPI DUP5 DUP10 ADD MLOAD DUP3 SSTORE PUSH1 0x1 DUP3 ADD SWAP2 POP PUSH1 0x20 DUP6 ADD SWAP5 POP PUSH1 0x20 DUP2 ADD SWAP1 POP PUSH3 0x4E8 JUMP JUMPDEST DUP7 DUP4 LT ISZERO PUSH3 0x52F JUMPI DUP5 DUP10 ADD MLOAD PUSH3 0x52B PUSH1 0x1F DUP10 AND DUP3 PUSH3 0x425 JUMP JUMPDEST DUP4 SSTORE POP JUMPDEST PUSH1 0x1 PUSH1 0x2 DUP9 MUL ADD DUP9 SSTORE POP POP POP JUMPDEST POP POP POP POP POP POP JUMP JUMPDEST PUSH2 0x703 DUP1 PUSH3 0x552 PUSH0 CODECOPY PUSH0 RETURN INVALID PUSH1 0x80 PUSH1 0x40 MSTORE CALLVALUE DUP1 ISZERO PUSH2 0xF JUMPI PUSH0 DUP1 REVERT JUMPDEST POP PUSH1 0x4 CALLDATASIZE LT PUSH2 0x4A JUMPI PUSH0 CALLDATALOAD PUSH1 0xE0 SHR DUP1 PUSH4 0x781F5C9 EQ PUSH2 0x4E JUMPI DUP1 PUSH4 0x1DCD69EC EQ PUSH2 0x6C JUMPI DUP1 PUSH4 0x266CF109 EQ PUSH2 0x8A JUMPI DUP1 PUSH4 0x3E0A0099 EQ PUSH2 0xA8 JUMPI JUMPDEST PUSH0 DUP1 REVERT JUMPDEST PUSH2 0x56 PUSH2 0xC4 JUMP JUMPDEST PUSH1 0x40 MLOAD PUSH2 0x63 SWAP2 SWAP1 PUSH2 0x22F JUMP JUMPDEST PUSH1 0x40 MLOAD DUP1 SWAP2 SUB SWAP1 RETURN JUMPDEST PUSH2 0x74 PUSH2 0x101 JUMP JUMPDEST PUSH1 0x40 MLOAD PUSH2 0x81 SWAP2 SWAP1 PUSH2 0x267 JUMP JUMPDEST PUSH1 0x40 MLOAD DUP1 SWAP2 SUB SWAP1 RETURN JUMPDEST PUSH2 0x92 PUSH2 0x106 JUMP JUMPDEST PUSH1 0x40 MLOAD PUSH2 0x9F SWAP2 SWAP1 PUSH2 0x22F JUMP JUMPDEST PUSH1 0x40 MLOAD DUP1 SWAP2 SUB SWAP1 RETURN JUMPDEST PUSH2 0xC2 PUSH1 0x4 DUP1 CALLDATASIZE SUB DUP2 ADD SWAP1 PUSH2 0xBD SWAP2 SWAP1 PUSH2 0x3BD JUMP JUMPDEST PUSH2 0x192 JUMP JUMPDEST STOP JUMPDEST PUSH1 0x60 PUSH1 0x40 MLOAD DUP1 PUSH1 0x40 ADD PUSH1 0x40 MSTORE DUP1 PUSH1 0x6 DUP2 MSTORE PUSH1 0x20 ADD PUSH32 0x737472696E670000000000000000000000000000000000000000000000000000 DUP2 MSTORE POP SWAP1 POP SWAP1 JUMP JUMPDEST PUSH0 SLOAD DUP2 JUMP JUMPDEST PUSH1 0x1 DUP1 SLOAD PUSH2 0x113 SWAP1 PUSH2 0x431 JUMP JUMPDEST DUP1 PUSH1 0x1F ADD PUSH1 0x20 DUP1 SWAP2 DIV MUL PUSH1 0x20 ADD PUSH1 0x40 MLOAD SWAP1 DUP2 ADD PUSH1 0x40 MSTORE DUP1 SWAP3 SWAP2 SWAP1 DUP2 DUP2 MSTORE PUSH1 0x20 ADD DUP3 DUP1 SLOAD PUSH2 0x13F SWAP1 PUSH2 0x431 JUMP JUMPDEST DUP1 ISZERO PUSH2 0x18A JUMPI DUP1 PUSH1 0x1F LT PUSH2 0x161 JUMPI PUSH2 0x100 DUP1 DUP4 SLOAD DIV MUL DUP4 MSTORE SWAP2 PUSH1 0x20 ADD SWAP2 PUSH2 0x18A JUMP JUMPDEST DUP3 ADD SWAP2 SWAP1 PUSH0 MSTORE PUSH1 0x20 PUSH0 KECCAK256 SWAP1 JUMPDEST DUP2 SLOAD DUP2 MSTORE SWAP1 PUSH1 0x1 ADD SWAP1 PUSH1 0x20 ADD DUP1 DUP4 GT PUSH2 0x16D JUMPI DUP3 SWAP1 SUB PUSH1 0x1F AND DUP3 ADD SWAP2 JUMPDEST POP POP POP POP POP DUP2 JUMP JUMPDEST DUP1 PUSH1 0x1 SWAP1 DUP2 PUSH2 0x1A1 SWAP2 SWAP1 PUSH2 0x5FE JUMP JUMPDEST POP POP JUMP JUMPDEST PUSH0 DUP2 MLOAD SWAP1 POP SWAP2 SWAP1 POP JUMP JUMPDEST PUSH0 DUP3 DUP3 MSTORE PUSH1 0x20 DUP3 ADD SWAP1 POP SWAP3 SWAP2 POP POP JUMP JUMPDEST PUSH0 JUMPDEST DUP4 DUP2 LT ISZERO PUSH2 0x1DC JUMPI DUP1 DUP3 ADD MLOAD DUP2 DUP5 ADD MSTORE PUSH1 0x20 DUP2 ADD SWAP1 POP PUSH2 0x1C1 JUMP JUMPDEST PUSH0 DUP5 DUP5 ADD MSTORE POP POP POP POP JUMP JUMPDEST PUSH0 PUSH1 0x1F NOT PUSH1 0x1F DUP4 ADD AND SWAP1 POP SWAP2 SWAP1 POP JUMP JUMPDEST PUSH0 PUSH2 0x201 DUP3 PUSH2 0x1A5 JUMP JUMPDEST PUSH2 0x20B DUP2 DUP6 PUSH2 0x1AF JUMP JUMPDEST SWAP4 POP PUSH2 0x21B DUP2 DUP6 PUSH1 0x20 DUP7 ADD PUSH2 0x1BF JUMP JUMPDEST PUSH2 0x224 DUP2 PUSH2 0x1E7 JUMP JUMPDEST DUP5 ADD SWAP2 POP POP SWAP3 SWAP2 POP POP JUMP JUMPDEST PUSH0 PUSH1 0x20 DUP3 ADD SWAP1 POP DUP2 DUP2 SUB PUSH0 DUP4 ADD MSTORE PUSH2 0x247 DUP2 DUP5 PUSH2 0x1F7 JUMP JUMPDEST SWAP1 POP SWAP3 SWAP2 POP POP JUMP JUMPDEST PUSH0 DUP2 SWAP1 POP SWAP2 SWAP1 POP JUMP JUMPDEST PUSH2 0x261 DUP2 PUSH2 0x24F JUMP JUMPDEST DUP3 MSTORE POP POP JUMP JUMPDEST PUSH0 PUSH1 0x20 DUP3 ADD SWAP1 POP PUSH2 0x27A PUSH0 DUP4 ADD DUP5 PUSH2 0x258 JUMP JUMPDEST SWAP3 SWAP2 POP POP JUMP JUMPDEST PUSH0 PUSH1 0x40 MLOAD SWAP1 POP SWAP1 JUMP JUMPDEST PUSH0 DUP1 REVERT JUMPDEST PUSH0 DUP1 REVERT JUMPDEST PUSH0 DUP1 REVERT JUMPDEST PUSH0 DUP1 REVERT JUMPDEST PUSH32 0x4E487B7100000000000000000000000000000000000000000000000000000000 PUSH0 MSTORE PUSH1 0x41 PUSH1 0x4 MSTORE PUSH1 0x24 PUSH0 REVERT JUMPDEST PUSH2 0x2CF DUP3 PUSH2 0x1E7 JUMP JUMPDEST DUP2 ADD DUP2 DUP2 LT PUSH8 0xFFFFFFFFFFFFFFFF DUP3 GT OR ISZERO PUSH2 0x2EE JUMPI PUSH2 0x2ED PUSH2 0x299 JUMP JUMPDEST JUMPDEST DUP1 PUSH1 0x40 MSTORE POP POP POP JUMP JUMPDEST PUSH0 PUSH2 0x300 PUSH2 0x280 JUMP JUMPDEST SWAP1 POP PUSH2 0x30C DUP3 DUP3 PUSH2 0x2C6 JUMP JUMPDEST SWAP2 SWAP1 POP JUMP JUMPDEST PUSH0 PUSH8 0xFFFFFFFFFFFFFFFF DUP3 GT ISZERO PUSH2 0x32B JUMPI PUSH2 0x32A PUSH2 0x299 JUMP JUMPDEST JUMPDEST PUSH2 0x334 DUP3 PUSH2 0x1E7 JUMP JUMPDEST SWAP1 POP PUSH1 0x20 DUP2 ADD SWAP1 POP SWAP2 SWAP1 POP JUMP JUMPDEST DUP3 DUP2 DUP4 CALLDATACOPY PUSH0 DUP4 DUP4 ADD MSTORE POP POP POP JUMP JUMPDEST PUSH0 PUSH2 0x361 PUSH2 0x35C DUP5 PUSH2 0x311 JUMP JUMPDEST PUSH2 0x2F7 JUMP JUMPDEST SWAP1 POP DUP3 DUP2 MSTORE PUSH1 0x20 DUP2 ADD DUP5 DUP5 DUP5 ADD GT ISZERO PUSH2 0x37D JUMPI PUSH2 0x37C PUSH2 0x295 JUMP JUMPDEST JUMPDEST PUSH2 0x388 DUP5 DUP3 DUP6 PUSH2 0x341 JUMP JUMPDEST POP SWAP4 SWAP3 POP POP POP JUMP JUMPDEST PUSH0 DUP3 PUSH1 0x1F DUP4 ADD SLT PUSH2 0x3A4 JUMPI PUSH2 0x3A3 PUSH2 0x291 JUMP JUMPDEST JUMPDEST DUP2 CALLDATALOAD PUSH2 0x3B4 DUP5 DUP3 PUSH1 0x20 DUP7 ADD PUSH2 0x34F JUMP JUMPDEST SWAP2 POP POP SWAP3 SWAP2 POP POP JUMP JUMPDEST PUSH0 PUSH1 0x20 DUP3 DUP5 SUB SLT ISZERO PUSH2 0x3D2 JUMPI PUSH2 0x3D1 PUSH2 0x289 JUMP JUMPDEST JUMPDEST PUSH0 DUP3 ADD CALLDATALOAD PUSH8 0xFFFFFFFFFFFFFFFF DUP2 GT ISZERO PUSH2 0x3EF JUMPI PUSH2 0x3EE PUSH2 0x28D JUMP JUMPDEST JUMPDEST PUSH2 0x3FB DUP5 DUP3 DUP6 ADD PUSH2 0x390 JUMP JUMPDEST SWAP2 POP POP SWAP3 SWAP2 POP POP JUMP JUMPDEST PUSH32 0x4E487B7100000000000000000000000000000000000000000000000000000000 PUSH0 MSTORE PUSH1 0x22 PUSH1 0x4 MSTORE PUSH1 0x24 PUSH0 REVERT JUMPDEST PUSH0 PUSH1 0x2 DUP3 DIV SWAP1 POP PUSH1 0x1 DUP3 AND DUP1 PUSH2 0x448 JUMPI PUSH1 0x7F DUP3 AND SWAP2 POP JUMPDEST PUSH1 0x20 DUP3 LT DUP2 SUB PUSH2 0x45B JUMPI PUSH2 0x45A PUSH2 0x404 JUMP JUMPDEST JUMPDEST POP SWAP2 SWAP1 POP JUMP JUMPDEST PUSH0 DUP2 SWAP1 POP DUP2 PUSH0 MSTORE PUSH1 0x20 PUSH0 KECCAK256 SWAP1 POP SWAP2 SWAP1 POP JUMP JUMPDEST PUSH0 PUSH1 0x20 PUSH1 0x1F DUP4 ADD DIV SWAP1 POP SWAP2 SWAP1 POP JUMP JUMPDEST PUSH0 DUP3 DUP3 SHL SWAP1 POP SWAP3 SWAP2 POP POP JUMP JUMPDEST PUSH0 PUSH1 0x8 DUP4 MUL PUSH2 0x4BD PUSH32 0xFFFFFFFFFFFFFFFFFFFFFFFFFFFFFFFFFFFFFFFFFFFFFFFFFFFFFFFFFFFFFFFF DUP3 PUSH2 0x482 JUMP JUMPDEST PUSH2 0x4C7 DUP7 DUP4 PUSH2 0x482 JUMP JUMPDEST SWAP6 POP DUP1 NOT DUP5 AND SWAP4 POP DUP1 DUP7 AND DUP5 OR SWAP3 POP POP POP SWAP4 SWAP3 POP POP POP JUMP JUMPDEST PUSH0 DUP2 SWAP1 POP SWAP2 SWAP1 POP JUMP JUMPDEST PUSH0 PUSH2 0x502 PUSH2 0x4FD PUSH2 0x4F8 DUP5 PUSH2 0x24F JUMP JUMPDEST PUSH2 0x4DF JUMP JUMPDEST PUSH2 0x24F JUMP JUMPDEST SWAP1 POP SWAP2 SWAP1 POP JUMP JUMPDEST PUSH0 DUP2 SWAP1 POP SWAP2 SWAP1 POP JUMP JUMPDEST PUSH2 0x51B DUP4 PUSH2 0x4E8 JUMP JUMPDEST PUSH2 0x52F PUSH2 0x527 DUP3 PUSH2 0x509 JUMP JUMPDEST DUP5 DUP5 SLOAD PUSH2 0x48E JUMP JUMPDEST DUP3 SSTORE POP POP POP POP JUMP JUMPDEST PUSH0 SWAP1 JUMP JUMPDEST PUSH2 0x543 PUSH2 0x537 JUMP JUMPDEST PUSH2 0x54E DUP2 DUP5 DUP5 PUSH2 0x512 JUMP JUMPDEST POP POP POP JUMP JUMPDEST JUMPDEST DUP2 DUP2 LT ISZERO PUSH2 0x571 JUMPI PUSH2 0x566 PUSH0 DUP3 PUSH2 0x53B JUMP JUMPDEST PUSH1 0x1 DUP2 ADD SWAP1 POP PUSH2 0x554 JUMP JUMPDEST POP POP JUMP JUMPDEST PUSH1 0x1F DUP3 GT ISZERO PUSH2 0x5B6 JUMPI PUSH2 0x587 DUP2 PUSH2 0x461 JUMP JUMPDEST PUSH2 0x590 DUP5 PUSH2 0x473 JUMP JUMPDEST DUP2 ADD PUSH1 0x20 DUP6 LT ISZERO PUSH2 0x59F JUMPI DUP2 SWAP1 POP JUMPDEST PUSH2 0x5B3 PUSH2 0x5AB DUP6 PUSH2 0x473 JUMP JUMPDEST DUP4 ADD DUP3 PUSH2 0x553 JUMP JUMPDEST POP POP JUMPDEST POP POP POP JUMP JUMPDEST PUSH0 DUP3 DUP3 SHR SWAP1 POP SWAP3 SWAP2 POP POP JUMP JUMPDEST PUSH0 PUSH2 0x5D6 PUSH0 NOT DUP5 PUSH1 0x8 MUL PUSH2 0x5BB JUMP JUMPDEST NOT DUP1 DUP4 AND SWAP2 POP POP SWAP3 SWAP2 POP POP JUMP JUMPDEST PUSH0 PUSH2 0x5EE DUP4 DUP4 PUSH2 0x5C7 JUMP JUMPDEST SWAP2 POP DUP3 PUSH1 0x2 MUL DUP3 OR SWAP1 POP SWAP3 SWAP2 POP POP JUMP JUMPDEST PUSH2 0x607 DUP3 PUSH2 0x1A5 JUMP JUMPDEST PUSH8 0xFFFFFFFFFFFFFFFF DUP2 GT ISZERO PUSH2 0x620 JUMPI PUSH2 0x61F PUSH2 0x299 JUMP JUMPDEST JUMPDEST PUSH2 0x62A DUP3 SLOAD PUSH2 0x431 JUMP JUMPDEST PUSH2 0x635 DUP3 DUP3 DUP6 PUSH2 0x575 JUMP JUMPDEST PUSH0 PUSH1 0x20 SWAP1 POP PUSH1 0x1F DUP4 GT PUSH1 0x1 DUP2 EQ PUSH2 0x666 JUMPI PUSH0 DUP5 ISZERO PUSH2 0x654 JUMPI DUP3 DUP8 ADD MLOAD SWAP1 POP JUMPDEST PUSH2 0x65E DUP6 DUP3 PUSH2 0x5E3 JUMP JUMPDEST DUP7 SSTORE POP PUSH2 0x6C5 JUMP JUMPDEST PUSH1 0x1F NOT DUP5 AND PUSH2 0x674 DUP7 PUSH2 0x461 JUMP JUMPDEST PUSH0 JUMPDEST DUP3 DUP2 LT ISZERO PUSH2 0x69B JUMPI DUP5 DUP10 ADD MLOAD DUP3 SSTORE PUSH1 0x1 DUP3 ADD SWAP2 POP PUSH1 0x20 DUP6 ADD SWAP5 POP PUSH1 0x20 DUP2 ADD SWAP1 POP PUSH2 0x676 JUMP JUMPDEST DUP7 DUP4 LT ISZERO PUSH2 0x6B8 JUMPI DUP5 DUP10 ADD MLOAD PUSH2 0x6B4 PUSH1 0x1F DUP10 AND DUP3 PUSH2 0x5C7 JUMP JUMPDEST DUP4 SSTORE POP JUMPDEST PUSH1 0x1 PUSH1 0x2 DUP9 MUL ADD DUP9 SSTORE POP POP POP JUMPDEST POP POP POP POP POP POP JUMP INVALID LOG2 PUSH5 0x6970667358 0x22 SLT KECCAK256 0xB6 BLOCKHASH 0xB1 0xC6 0x2F SWAP13 0x49 NUMBER DUP7 0xF7 PUSH29 0x7CE771E89F4AC82A301C6091DD24D6E2FCFD607C3E64736F6C63430008 AND STOP CALLER "
				},
				"gasEstimates": {
					"creation": {
						"codeDepositCost": "359000",
						"executionCost": "infinite",
						"totalCost": "infinite"
					},
					"external": {
						"getRecordType()": "infinite",
						"record()": "infinite",
						"setRecord(string)": "infinite",
						"timeOfCreation()": "2424"
					}
				},
				"methodIdentifiers": {
					"getRecordType()": "0781f5c9",
					"record()": "266cf109",
					"setRecord(string)": "3e0a0099",
					"timeOfCreation()": "1dcd69ec"
				}
			},
			"storageLayout": {
				"storage": [
					{
						"astId": 3,
						"contract": "Nik_MD_project4.sol:StringRecord",
						"label": "timeOfCreation",
						"offset": 0,
						"slot": "0",
						"type": "t_uint256"
					},
					{
						"astId": 57,
						"contract": "Nik_MD_project4.sol:StringRecord",
						"label": "record",
						"offset": 0,
						"slot": "1",
						"type": "t_string_storage"
					}
				],
				"types": {
					"t_string_storage": {
						"encoding": "bytes",
						"label": "string",
						"numberOfBytes": "32"
					},
					"t_uint256": {
						"encoding": "inplace",
						"label": "uint256",
						"numberOfBytes": "32"
					}
				}
			},
			"userdoc": {
				"kind": "user",
				"methods": {},
				"version": 1
			}
		}
	}
}