{
	"Nik_MD_project1.sol": {
		"ENS": {
			"abi": [
				{
					"inputs": [
						{
							"internalType": "string",
							"name": "",
							"type": "string"
						}
					],
					"name": "domain",
					"outputs": [
						{
							"internalType": "address",
							"name": "userAddress",
							"type": "address"
						},
						{
							"internalType": "uint256",
							"name": "creationTime",
							"type": "uint256"
						},
						{
							"internalType": "uint256",
							"name": "fee",
							"type": "uint256"
						},
						{
							"internalType": "string",
							"name": "message",
							"type": "string"
						}
					],
					"stateMutability": "view",
					"type": "function"
				},
				{
					"inputs": [],
					"name": "fees",
					"outputs": [
						{
							"internalType": "uint256",
							"name": "",
							"type": "uint256"
						}
					],
					"stateMutability": "view",
					"type": "function"
				},
				{
					"inputs": [
						{
							"internalType": "string",
							"name": "_input",
							"type": "string"
						}
					],
					"name": "registerDomain",
					"outputs": [],
					"stateMutability": "payable",
					"type": "function"
				},
				{
					"inputs": [
						{
							"internalType": "string",
							"name": "_input",
							"type": "string"
						}
					],
					"name": "returnAddress",
					"outputs": [
						{
							"internalType": "string",
							"name": "",
							"type": "string"
						}
					],
					"stateMutability": "view",
					"type": "function"
				},
				{
					"inputs": [],
					"name": "userAddress",
					"outputs": [
						{
							"internalType": "address",
							"name": "",
							"type": "address"
						}
					],
					"stateMutability": "view",
					"type": "function"
				},
				{
					"inputs": [],
					"name": "withdrawFunds",
					"outputs": [],
					"stateMutability": "nonpayable",
					"type": "function"
				}
			],
			"devdoc": {
				"kind": "dev",
				"methods": {},
				"version": 1
			},
			"evm": {
				"assembly": "    /* \"Nik_MD_project1.sol\":64:913  contract ENS {... */\n  mstore(0x40, 0x80)\n    /* \"Nik_MD_project1.sol\":330:337  1000000 */\n  0x0f4240\n    /* \"Nik_MD_project1.sol\":311:337  uint public fees = 1000000 */\n  0x02\n  sstore\n    /* \"Nik_MD_project1.sol\":64:913  contract ENS {... */\n  callvalue\n  dup1\n  iszero\n  tag_1\n  jumpi\n  0x00\n  dup1\n  revert\ntag_1:\n  pop\n  dataSize(sub_0)\n  dup1\n  dataOffset(sub_0)\n  0x00\n  codecopy\n  0x00\n  return\nstop\n\nsub_0: assembly {\n        /* \"Nik_MD_project1.sol\":64:913  contract ENS {... */\n      mstore(0x40, 0x80)\n      jumpi(tag_1, lt(calldatasize, 0x04))\n      shr(0xe0, calldataload(0x00))\n      dup1\n      0x24600fc3\n      eq\n      tag_2\n      jumpi\n      dup1\n      0x68b64d1f\n      eq\n      tag_3\n      jumpi\n      dup1\n      0x7f109dd3\n      eq\n      tag_4\n      jumpi\n      dup1\n      0x9af1d35a\n      eq\n      tag_5\n      jumpi\n      dup1\n      0xa5cad08a\n      eq\n      tag_6\n      jumpi\n      dup1\n      0xe4128fb3\n      eq\n      tag_7\n      jumpi\n    tag_1:\n      0x00\n      dup1\n      revert\n        /* \"Nik_MD_project1.sol\":762:910  function withdrawFunds() public {... */\n    tag_2:\n      callvalue\n      dup1\n      iszero\n      tag_8\n      jumpi\n      0x00\n      dup1\n      revert\n    tag_8:\n      pop\n      tag_9\n      tag_10\n      jump\t// in\n    tag_9:\n      stop\n        /* \"Nik_MD_project1.sol\":621:748  function returnAddress(string memory _input) public view returns(string memory){... */\n    tag_3:\n      callvalue\n      dup1\n      iszero\n      tag_11\n      jumpi\n      0x00\n      dup1\n      revert\n    tag_11:\n      pop\n      tag_12\n      0x04\n      dup1\n      calldatasize\n      sub\n      dup2\n      add\n      swap1\n      tag_13\n      swap2\n      swap1\n      tag_14\n      jump\t// in\n    tag_13:\n      tag_15\n      jump\t// in\n    tag_12:\n      mload(0x40)\n      tag_16\n      swap2\n      swap1\n      tag_17\n      jump\t// in\n    tag_16:\n      mload(0x40)\n      dup1\n      swap2\n      sub\n      swap1\n      return\n        /* \"Nik_MD_project1.sol\":220:265  mapping(string => DomainInfo) public   domain */\n    tag_4:\n      callvalue\n      dup1\n      iszero\n      tag_18\n      jumpi\n      0x00\n      dup1\n      revert\n    tag_18:\n      pop\n      tag_19\n      0x04\n      dup1\n      calldatasize\n      sub\n      dup2\n      add\n      swap1\n      tag_20\n      swap2\n      swap1\n      tag_14\n      jump\t// in\n    tag_20:\n      tag_21\n      jump\t// in\n    tag_19:\n      mload(0x40)\n      tag_22\n      swap5\n      swap4\n      swap3\n      swap2\n      swap1\n      tag_23\n      jump\t// in\n    tag_22:\n      mload(0x40)\n      dup1\n      swap2\n      sub\n      swap1\n      return\n        /* \"Nik_MD_project1.sol\":311:337  uint public fees = 1000000 */\n    tag_5:\n      callvalue\n      dup1\n      iszero\n      tag_24\n      jumpi\n      0x00\n      dup1\n      revert\n    tag_24:\n      pop\n      tag_25\n      tag_26\n      jump\t// in\n    tag_25:\n      mload(0x40)\n      tag_27\n      swap2\n      swap1\n      tag_28\n      jump\t// in\n    tag_27:\n      mload(0x40)\n      dup1\n      swap2\n      sub\n      swap1\n      return\n        /* \"Nik_MD_project1.sol\":346:613  function registerDomain(string memory _input) public payable  {... */\n    tag_6:\n      tag_29\n      0x04\n      dup1\n      calldatasize\n      sub\n      dup2\n      add\n      swap1\n      tag_30\n      swap2\n      swap1\n      tag_14\n      jump\t// in\n    tag_30:\n      tag_31\n      jump\t// in\n    tag_29:\n      stop\n        /* \"Nik_MD_project1.sol\":278:304  address public userAddress */\n    tag_7:\n      callvalue\n      dup1\n      iszero\n      tag_32\n      jumpi\n      0x00\n      dup1\n      revert\n    tag_32:\n      pop\n      tag_33\n      tag_34\n      jump\t// in\n    tag_33:\n      mload(0x40)\n      tag_35\n      swap2\n      swap1\n      tag_36\n      jump\t// in\n    tag_35:\n      mload(0x40)\n      dup1\n      swap2\n      sub\n      swap1\n      return\n        /* \"Nik_MD_project1.sol\":762:910  function withdrawFunds() public {... */\n    tag_10:\n        /* \"Nik_MD_project1.sol\":805:829  address payable receiver */\n      0x00\n        /* \"Nik_MD_project1.sol\":840:850  msg.sender */\n      caller\n        /* \"Nik_MD_project1.sol\":805:851  address payable receiver = payable(msg.sender) */\n      swap1\n      pop\n        /* \"Nik_MD_project1.sol\":862:870  receiver */\n      dup1\n        /* \"Nik_MD_project1.sol\":862:879  receiver.transfer */\n      0xffffffffffffffffffffffffffffffffffffffff\n      and\n        /* \"Nik_MD_project1.sol\":862:902  receiver.transfer(address(this).balance) */\n      0x08fc\n        /* \"Nik_MD_project1.sol\":880:901  address(this).balance */\n      selfbalance\n        /* \"Nik_MD_project1.sol\":862:902  receiver.transfer(address(this).balance) */\n      swap1\n      dup2\n      iszero\n      mul\n      swap1\n      mload(0x40)\n      0x00\n      mload(0x40)\n      dup1\n      dup4\n      sub\n      dup2\n      dup6\n      dup9\n      dup9\n      call\n      swap4\n      pop\n      pop\n      pop\n      pop\n      iszero\n      dup1\n      iszero\n      tag_39\n      jumpi\n      returndatasize\n      0x00\n      dup1\n      returndatacopy\n      revert(0x00, returndatasize)\n    tag_39:\n      pop\n        /* \"Nik_MD_project1.sol\":794:910  {... */\n      pop\n        /* \"Nik_MD_project1.sol\":762:910  function withdrawFunds() public {... */\n      jump\t// out\n        /* \"Nik_MD_project1.sol\":621:748  function returnAddress(string memory _input) public view returns(string memory){... */\n    tag_15:\n        /* \"Nik_MD_project1.sol\":686:699  string memory */\n      0x60\n        /* \"Nik_MD_project1.sol\":718:724  domain */\n      0x00\n        /* \"Nik_MD_project1.sol\":725:731  _input */\n      dup3\n        /* \"Nik_MD_project1.sol\":718:732  domain[_input] */\n      mload(0x40)\n      tag_41\n      swap2\n      swap1\n      tag_42\n      jump\t// in\n    tag_41:\n      swap1\n      dup2\n      mstore\n      0x20\n      add\n      mload(0x40)\n      dup1\n      swap2\n      sub\n      swap1\n      keccak256\n        /* \"Nik_MD_project1.sol\":718:740  domain[_input].message */\n      0x03\n      add\n        /* \"Nik_MD_project1.sol\":711:740  return domain[_input].message */\n      dup1\n      sload\n      tag_43\n      swap1\n      tag_44\n      jump\t// in\n    tag_43:\n      dup1\n      0x1f\n      add\n      0x20\n      dup1\n      swap2\n      div\n      mul\n      0x20\n      add\n      mload(0x40)\n      swap1\n      dup2\n      add\n      0x40\n      mstore\n      dup1\n      swap3\n      swap2\n      swap1\n      dup2\n      dup2\n      mstore\n      0x20\n      add\n      dup3\n      dup1\n      sload\n      tag_45\n      swap1\n      tag_44\n      jump\t// in\n    tag_45:\n      dup1\n      iszero\n      tag_46\n      jumpi\n      dup1\n      0x1f\n      lt\n      tag_47\n      jumpi\n      0x0100\n      dup1\n      dup4\n      sload\n      div\n      mul\n      dup4\n      mstore\n      swap2\n      0x20\n      add\n      swap2\n      jump(tag_46)\n    tag_47:\n      dup3\n      add\n      swap2\n      swap1\n      0x00\n      mstore\n      keccak256(0x00, 0x20)\n      swap1\n    tag_48:\n      dup2\n      sload\n      dup2\n      mstore\n      swap1\n      0x01\n      add\n      swap1\n      0x20\n      add\n      dup1\n      dup4\n      gt\n      tag_48\n      jumpi\n      dup3\n      swap1\n      sub\n      0x1f\n      and\n      dup3\n      add\n      swap2\n    tag_46:\n      pop\n      pop\n      pop\n      pop\n      pop\n      swap1\n      pop\n        /* \"Nik_MD_project1.sol\":621:748  function returnAddress(string memory _input) public view returns(string memory){... */\n      swap2\n      swap1\n      pop\n      jump\t// out\n        /* \"Nik_MD_project1.sol\":220:265  mapping(string => DomainInfo) public   domain */\n    tag_21:\n      0x00\n      dup2\n      dup1\n      mload\n      0x20\n      dup2\n      add\n      dup3\n      add\n      dup1\n      mload\n      dup5\n      dup3\n      mstore\n      0x20\n      dup4\n      add\n      0x20\n      dup6\n      add\n      keccak256\n      dup2\n      dup4\n      mstore\n      dup1\n      swap6\n      pop\n      pop\n      pop\n      pop\n      pop\n      pop\n      0x00\n      swap2\n      pop\n      swap1\n      pop\n      dup1\n      0x00\n      add\n      0x00\n      swap1\n      sload\n      swap1\n      0x0100\n      exp\n      swap1\n      div\n      0xffffffffffffffffffffffffffffffffffffffff\n      and\n      swap1\n      dup1\n      0x01\n      add\n      sload\n      swap1\n      dup1\n      0x02\n      add\n      sload\n      swap1\n      dup1\n      0x03\n      add\n      dup1\n      sload\n      tag_49\n      swap1\n      tag_44\n      jump\t// in\n    tag_49:\n      dup1\n      0x1f\n      add\n      0x20\n      dup1\n      swap2\n      div\n      mul\n      0x20\n      add\n      mload(0x40)\n      swap1\n      dup2\n      add\n      0x40\n      mstore\n      dup1\n      swap3\n      swap2\n      swap1\n      dup2\n      dup2\n      mstore\n      0x20\n      add\n      dup3\n      dup1\n      sload\n      tag_50\n      swap1\n      tag_44\n      jump\t// in\n    tag_50:\n      dup1\n      iszero\n      tag_51\n      jumpi\n      dup1\n      0x1f\n      lt\n      tag_52\n      jumpi\n      0x0100\n      dup1\n      dup4\n      sload\n      div\n      mul\n      dup4\n      mstore\n      swap2\n      0x20\n      add\n      swap2\n      jump(tag_51)\n    tag_52:\n      dup3\n      add\n      swap2\n      swap1\n      0x00\n      mstore\n      keccak256(0x00, 0x20)\n      swap1\n    tag_53:\n      dup2\n      sload\n      dup2\n      mstore\n      swap1\n      0x01\n      add\n      swap1\n      0x20\n      add\n      dup1\n      dup4\n      gt\n      tag_53\n      jumpi\n      dup3\n      swap1\n      sub\n      0x1f\n      and\n      dup3\n      add\n      swap2\n    tag_51:\n      pop\n      pop\n      pop\n      pop\n      pop\n      swap1\n      pop\n      dup5\n      jump\t// out\n        /* \"Nik_MD_project1.sol\":311:337  uint public fees = 1000000 */\n    tag_26:\n      sload(0x02)\n      dup2\n      jump\t// out\n        /* \"Nik_MD_project1.sol\":346:613  function registerDomain(string memory _input) public payable  {... */\n    tag_31:\n        /* \"Nik_MD_project1.sol\":436:595  DomainInfo({... */\n      mload(0x40)\n      dup1\n      0x80\n      add\n      0x40\n      mstore\n      dup1\n        /* \"Nik_MD_project1.sol\":475:485  msg.sender */\n      caller\n        /* \"Nik_MD_project1.sol\":436:595  DomainInfo({... */\n      0xffffffffffffffffffffffffffffffffffffffff\n      and\n      dup2\n      mstore\n      0x20\n      add\n        /* \"Nik_MD_project1.sol\":514:529  block.timestamp */\n      timestamp\n        /* \"Nik_MD_project1.sol\":436:595  DomainInfo({... */\n      dup2\n      mstore\n      0x20\n      add\n        /* \"Nik_MD_project1.sol\":549:553  fees */\n      sload(0x02)\n        /* \"Nik_MD_project1.sol\":436:595  DomainInfo({... */\n      dup2\n      mstore\n      0x20\n      add\n        /* \"Nik_MD_project1.sol\":577:583  _input */\n      dup3\n        /* \"Nik_MD_project1.sol\":436:595  DomainInfo({... */\n      dup2\n      mstore\n      pop\n        /* \"Nik_MD_project1.sol\":419:425  domain */\n      0x00\n        /* \"Nik_MD_project1.sol\":426:432  _input */\n      dup3\n        /* \"Nik_MD_project1.sol\":419:433  domain[_input] */\n      mload(0x40)\n      tag_55\n      swap2\n      swap1\n      tag_42\n      jump\t// in\n    tag_55:\n      swap1\n      dup2\n      mstore\n      0x20\n      add\n      mload(0x40)\n      dup1\n      swap2\n      sub\n      swap1\n      keccak256\n        /* \"Nik_MD_project1.sol\":419:595  domain[_input] = DomainInfo({... */\n      0x00\n      dup3\n      add\n      mload\n      dup2\n      0x00\n      add\n      exp(0x0100, 0x00)\n      dup2\n      sload\n      dup2\n      0xffffffffffffffffffffffffffffffffffffffff\n      mul\n      not\n      and\n      swap1\n      dup4\n      0xffffffffffffffffffffffffffffffffffffffff\n      and\n      mul\n      or\n      swap1\n      sstore\n      pop\n      0x20\n      dup3\n      add\n      mload\n      dup2\n      0x01\n      add\n      sstore\n      0x40\n      dup3\n      add\n      mload\n      dup2\n      0x02\n      add\n      sstore\n      0x60\n      dup3\n      add\n      mload\n      dup2\n      0x03\n      add\n      swap1\n      dup2\n      tag_56\n      swap2\n      swap1\n      tag_57\n      jump\t// in\n    tag_56:\n      pop\n      swap1\n      pop\n      pop\n        /* \"Nik_MD_project1.sol\":346:613  function registerDomain(string memory _input) public payable  {... */\n      pop\n      jump\t// out\n        /* \"Nik_MD_project1.sol\":278:304  address public userAddress */\n    tag_34:\n      0x01\n      0x00\n      swap1\n      sload\n      swap1\n      0x0100\n      exp\n      swap1\n      div\n      0xffffffffffffffffffffffffffffffffffffffff\n      and\n      dup2\n      jump\t// out\n        /* \"#utility.yul\":7:82   */\n    tag_58:\n        /* \"#utility.yul\":40:46   */\n      0x00\n        /* \"#utility.yul\":73:75   */\n      0x40\n        /* \"#utility.yul\":67:76   */\n      mload\n        /* \"#utility.yul\":57:76   */\n      swap1\n      pop\n        /* \"#utility.yul\":7:82   */\n      swap1\n      jump\t// out\n        /* \"#utility.yul\":88:205   */\n    tag_59:\n        /* \"#utility.yul\":197:198   */\n      0x00\n        /* \"#utility.yul\":194:195   */\n      dup1\n        /* \"#utility.yul\":187:199   */\n      revert\n        /* \"#utility.yul\":211:328   */\n    tag_60:\n        /* \"#utility.yul\":320:321   */\n      0x00\n        /* \"#utility.yul\":317:318   */\n      dup1\n        /* \"#utility.yul\":310:322   */\n      revert\n        /* \"#utility.yul\":334:451   */\n    tag_61:\n        /* \"#utility.yul\":443:444   */\n      0x00\n        /* \"#utility.yul\":440:441   */\n      dup1\n        /* \"#utility.yul\":433:445   */\n      revert\n        /* \"#utility.yul\":457:574   */\n    tag_62:\n        /* \"#utility.yul\":566:567   */\n      0x00\n        /* \"#utility.yul\":563:564   */\n      dup1\n        /* \"#utility.yul\":556:568   */\n      revert\n        /* \"#utility.yul\":580:682   */\n    tag_63:\n        /* \"#utility.yul\":621:627   */\n      0x00\n        /* \"#utility.yul\":672:674   */\n      0x1f\n        /* \"#utility.yul\":668:675   */\n      not\n        /* \"#utility.yul\":663:665   */\n      0x1f\n        /* \"#utility.yul\":656:661   */\n      dup4\n        /* \"#utility.yul\":652:666   */\n      add\n        /* \"#utility.yul\":648:676   */\n      and\n        /* \"#utility.yul\":638:676   */\n      swap1\n      pop\n        /* \"#utility.yul\":580:682   */\n      swap2\n      swap1\n      pop\n      jump\t// out\n        /* \"#utility.yul\":688:868   */\n    tag_64:\n        /* \"#utility.yul\":736:813   */\n      0x4e487b7100000000000000000000000000000000000000000000000000000000\n        /* \"#utility.yul\":733:734   */\n      0x00\n        /* \"#utility.yul\":726:814   */\n      mstore\n        /* \"#utility.yul\":833:837   */\n      0x41\n        /* \"#utility.yul\":830:831   */\n      0x04\n        /* \"#utility.yul\":823:838   */\n      mstore\n        /* \"#utility.yul\":857:861   */\n      0x24\n        /* \"#utility.yul\":854:855   */\n      0x00\n        /* \"#utility.yul\":847:862   */\n      revert\n        /* \"#utility.yul\":874:1155   */\n    tag_65:\n        /* \"#utility.yul\":957:984   */\n      tag_107\n        /* \"#utility.yul\":979:983   */\n      dup3\n        /* \"#utility.yul\":957:984   */\n      tag_63\n      jump\t// in\n    tag_107:\n        /* \"#utility.yul\":949:955   */\n      dup2\n        /* \"#utility.yul\":945:985   */\n      add\n        /* \"#utility.yul\":1087:1093   */\n      dup2\n        /* \"#utility.yul\":1075:1085   */\n      dup2\n        /* \"#utility.yul\":1072:1094   */\n      lt\n        /* \"#utility.yul\":1051:1069   */\n      0xffffffffffffffff\n        /* \"#utility.yul\":1039:1049   */\n      dup3\n        /* \"#utility.yul\":1036:1070   */\n      gt\n        /* \"#utility.yul\":1033:1095   */\n      or\n        /* \"#utility.yul\":1030:1118   */\n      iszero\n      tag_108\n      jumpi\n        /* \"#utility.yul\":1098:1116   */\n      tag_109\n      tag_64\n      jump\t// in\n    tag_109:\n        /* \"#utility.yul\":1030:1118   */\n    tag_108:\n        /* \"#utility.yul\":1138:1148   */\n      dup1\n        /* \"#utility.yul\":1134:1136   */\n      0x40\n        /* \"#utility.yul\":1127:1149   */\n      mstore\n        /* \"#utility.yul\":917:1155   */\n      pop\n        /* \"#utility.yul\":874:1155   */\n      pop\n      pop\n      jump\t// out\n        /* \"#utility.yul\":1161:1290   */\n    tag_66:\n        /* \"#utility.yul\":1195:1201   */\n      0x00\n        /* \"#utility.yul\":1222:1242   */\n      tag_111\n      tag_58\n      jump\t// in\n    tag_111:\n        /* \"#utility.yul\":1212:1242   */\n      swap1\n      pop\n        /* \"#utility.yul\":1251:1284   */\n      tag_112\n        /* \"#utility.yul\":1279:1283   */\n      dup3\n        /* \"#utility.yul\":1271:1277   */\n      dup3\n        /* \"#utility.yul\":1251:1284   */\n      tag_65\n      jump\t// in\n    tag_112:\n        /* \"#utility.yul\":1161:1290   */\n      swap2\n      swap1\n      pop\n      jump\t// out\n        /* \"#utility.yul\":1296:1604   */\n    tag_67:\n        /* \"#utility.yul\":1358:1362   */\n      0x00\n        /* \"#utility.yul\":1448:1466   */\n      0xffffffffffffffff\n        /* \"#utility.yul\":1440:1446   */\n      dup3\n        /* \"#utility.yul\":1437:1467   */\n      gt\n        /* \"#utility.yul\":1434:1490   */\n      iszero\n      tag_114\n      jumpi\n        /* \"#utility.yul\":1470:1488   */\n      tag_115\n      tag_64\n      jump\t// in\n    tag_115:\n        /* \"#utility.yul\":1434:1490   */\n    tag_114:\n        /* \"#utility.yul\":1508:1537   */\n      tag_116\n        /* \"#utility.yul\":1530:1536   */\n      dup3\n        /* \"#utility.yul\":1508:1537   */\n      tag_63\n      jump\t// in\n    tag_116:\n        /* \"#utility.yul\":1500:1537   */\n      swap1\n      pop\n        /* \"#utility.yul\":1592:1596   */\n      0x20\n        /* \"#utility.yul\":1586:1590   */\n      dup2\n        /* \"#utility.yul\":1582:1597   */\n      add\n        /* \"#utility.yul\":1574:1597   */\n      swap1\n      pop\n        /* \"#utility.yul\":1296:1604   */\n      swap2\n      swap1\n      pop\n      jump\t// out\n        /* \"#utility.yul\":1610:1756   */\n    tag_68:\n        /* \"#utility.yul\":1707:1713   */\n      dup3\n        /* \"#utility.yul\":1702:1705   */\n      dup2\n        /* \"#utility.yul\":1697:1700   */\n      dup4\n        /* \"#utility.yul\":1684:1714   */\n      calldatacopy\n        /* \"#utility.yul\":1748:1749   */\n      0x00\n        /* \"#utility.yul\":1739:1745   */\n      dup4\n        /* \"#utility.yul\":1734:1737   */\n      dup4\n        /* \"#utility.yul\":1730:1746   */\n      add\n        /* \"#utility.yul\":1723:1750   */\n      mstore\n        /* \"#utility.yul\":1610:1756   */\n      pop\n      pop\n      pop\n      jump\t// out\n        /* \"#utility.yul\":1762:2187   */\n    tag_69:\n        /* \"#utility.yul\":1840:1845   */\n      0x00\n        /* \"#utility.yul\":1865:1931   */\n      tag_119\n        /* \"#utility.yul\":1881:1930   */\n      tag_120\n        /* \"#utility.yul\":1923:1929   */\n      dup5\n        /* \"#utility.yul\":1881:1930   */\n      tag_67\n      jump\t// in\n    tag_120:\n        /* \"#utility.yul\":1865:1931   */\n      tag_66\n      jump\t// in\n    tag_119:\n        /* \"#utility.yul\":1856:1931   */\n      swap1\n      pop\n        /* \"#utility.yul\":1954:1960   */\n      dup3\n        /* \"#utility.yul\":1947:1952   */\n      dup2\n        /* \"#utility.yul\":1940:1961   */\n      mstore\n        /* \"#utility.yul\":1992:1996   */\n      0x20\n        /* \"#utility.yul\":1985:1990   */\n      dup2\n        /* \"#utility.yul\":1981:1997   */\n      add\n        /* \"#utility.yul\":2030:2033   */\n      dup5\n        /* \"#utility.yul\":2021:2027   */\n      dup5\n        /* \"#utility.yul\":2016:2019   */\n      dup5\n        /* \"#utility.yul\":2012:2028   */\n      add\n        /* \"#utility.yul\":2009:2034   */\n      gt\n        /* \"#utility.yul\":2006:2118   */\n      iszero\n      tag_121\n      jumpi\n        /* \"#utility.yul\":2037:2116   */\n      tag_122\n      tag_62\n      jump\t// in\n    tag_122:\n        /* \"#utility.yul\":2006:2118   */\n    tag_121:\n        /* \"#utility.yul\":2127:2181   */\n      tag_123\n        /* \"#utility.yul\":2174:2180   */\n      dup5\n        /* \"#utility.yul\":2169:2172   */\n      dup3\n        /* \"#utility.yul\":2164:2167   */\n      dup6\n        /* \"#utility.yul\":2127:2181   */\n      tag_68\n      jump\t// in\n    tag_123:\n        /* \"#utility.yul\":1846:2187   */\n      pop\n        /* \"#utility.yul\":1762:2187   */\n      swap4\n      swap3\n      pop\n      pop\n      pop\n      jump\t// out\n        /* \"#utility.yul\":2207:2547   */\n    tag_70:\n        /* \"#utility.yul\":2263:2268   */\n      0x00\n        /* \"#utility.yul\":2312:2315   */\n      dup3\n        /* \"#utility.yul\":2305:2309   */\n      0x1f\n        /* \"#utility.yul\":2297:2303   */\n      dup4\n        /* \"#utility.yul\":2293:2310   */\n      add\n        /* \"#utility.yul\":2289:2316   */\n      slt\n        /* \"#utility.yul\":2279:2401   */\n      tag_125\n      jumpi\n        /* \"#utility.yul\":2320:2399   */\n      tag_126\n      tag_61\n      jump\t// in\n    tag_126:\n        /* \"#utility.yul\":2279:2401   */\n    tag_125:\n        /* \"#utility.yul\":2437:2443   */\n      dup2\n        /* \"#utility.yul\":2424:2444   */\n      calldataload\n        /* \"#utility.yul\":2462:2541   */\n      tag_127\n        /* \"#utility.yul\":2537:2540   */\n      dup5\n        /* \"#utility.yul\":2529:2535   */\n      dup3\n        /* \"#utility.yul\":2522:2526   */\n      0x20\n        /* \"#utility.yul\":2514:2520   */\n      dup7\n        /* \"#utility.yul\":2510:2527   */\n      add\n        /* \"#utility.yul\":2462:2541   */\n      tag_69\n      jump\t// in\n    tag_127:\n        /* \"#utility.yul\":2453:2541   */\n      swap2\n      pop\n        /* \"#utility.yul\":2269:2547   */\n      pop\n        /* \"#utility.yul\":2207:2547   */\n      swap3\n      swap2\n      pop\n      pop\n      jump\t// out\n        /* \"#utility.yul\":2553:3062   */\n    tag_14:\n        /* \"#utility.yul\":2622:2628   */\n      0x00\n        /* \"#utility.yul\":2671:2673   */\n      0x20\n        /* \"#utility.yul\":2659:2668   */\n      dup3\n        /* \"#utility.yul\":2650:2657   */\n      dup5\n        /* \"#utility.yul\":2646:2669   */\n      sub\n        /* \"#utility.yul\":2642:2674   */\n      slt\n        /* \"#utility.yul\":2639:2758   */\n      iszero\n      tag_129\n      jumpi\n        /* \"#utility.yul\":2677:2756   */\n      tag_130\n      tag_59\n      jump\t// in\n    tag_130:\n        /* \"#utility.yul\":2639:2758   */\n    tag_129:\n        /* \"#utility.yul\":2825:2826   */\n      0x00\n        /* \"#utility.yul\":2814:2823   */\n      dup3\n        /* \"#utility.yul\":2810:2827   */\n      add\n        /* \"#utility.yul\":2797:2828   */\n      calldataload\n        /* \"#utility.yul\":2855:2873   */\n      0xffffffffffffffff\n        /* \"#utility.yul\":2847:2853   */\n      dup2\n        /* \"#utility.yul\":2844:2874   */\n      gt\n        /* \"#utility.yul\":2841:2958   */\n      iszero\n      tag_131\n      jumpi\n        /* \"#utility.yul\":2877:2956   */\n      tag_132\n      tag_60\n      jump\t// in\n    tag_132:\n        /* \"#utility.yul\":2841:2958   */\n    tag_131:\n        /* \"#utility.yul\":2982:3045   */\n      tag_133\n        /* \"#utility.yul\":3037:3044   */\n      dup5\n        /* \"#utility.yul\":3028:3034   */\n      dup3\n        /* \"#utility.yul\":3017:3026   */\n      dup6\n        /* \"#utility.yul\":3013:3035   */\n      add\n        /* \"#utility.yul\":2982:3045   */\n      tag_70\n      jump\t// in\n    tag_133:\n        /* \"#utility.yul\":2972:3045   */\n      swap2\n      pop\n        /* \"#utility.yul\":2768:3055   */\n      pop\n        /* \"#utility.yul\":2553:3062   */\n      swap3\n      swap2\n      pop\n      pop\n      jump\t// out\n        /* \"#utility.yul\":3068:3167   */\n    tag_71:\n        /* \"#utility.yul\":3120:3126   */\n      0x00\n        /* \"#utility.yul\":3154:3159   */\n      dup2\n        /* \"#utility.yul\":3148:3160   */\n      mload\n        /* \"#utility.yul\":3138:3160   */\n      swap1\n      pop\n        /* \"#utility.yul\":3068:3167   */\n      swap2\n      swap1\n      pop\n      jump\t// out\n        /* \"#utility.yul\":3173:3342   */\n    tag_72:\n        /* \"#utility.yul\":3257:3268   */\n      0x00\n        /* \"#utility.yul\":3291:3297   */\n      dup3\n        /* \"#utility.yul\":3286:3289   */\n      dup3\n        /* \"#utility.yul\":3279:3298   */\n      mstore\n        /* \"#utility.yul\":3331:3335   */\n      0x20\n        /* \"#utility.yul\":3326:3329   */\n      dup3\n        /* \"#utility.yul\":3322:3336   */\n      add\n        /* \"#utility.yul\":3307:3336   */\n      swap1\n      pop\n        /* \"#utility.yul\":3173:3342   */\n      swap3\n      swap2\n      pop\n      pop\n      jump\t// out\n        /* \"#utility.yul\":3348:3594   */\n    tag_73:\n        /* \"#utility.yul\":3429:3430   */\n      0x00\n        /* \"#utility.yul\":3439:3552   */\n    tag_137:\n        /* \"#utility.yul\":3453:3459   */\n      dup4\n        /* \"#utility.yul\":3450:3451   */\n      dup2\n        /* \"#utility.yul\":3447:3460   */\n      lt\n        /* \"#utility.yul\":3439:3552   */\n      iszero\n      tag_139\n      jumpi\n        /* \"#utility.yul\":3538:3539   */\n      dup1\n        /* \"#utility.yul\":3533:3536   */\n      dup3\n        /* \"#utility.yul\":3529:3540   */\n      add\n        /* \"#utility.yul\":3523:3541   */\n      mload\n        /* \"#utility.yul\":3519:3520   */\n      dup2\n        /* \"#utility.yul\":3514:3517   */\n      dup5\n        /* \"#utility.yul\":3510:3521   */\n      add\n        /* \"#utility.yul\":3503:3542   */\n      mstore\n        /* \"#utility.yul\":3475:3477   */\n      0x20\n        /* \"#utility.yul\":3472:3473   */\n      dup2\n        /* \"#utility.yul\":3468:3478   */\n      add\n        /* \"#utility.yul\":3463:3478   */\n      swap1\n      pop\n        /* \"#utility.yul\":3439:3552   */\n      jump(tag_137)\n    tag_139:\n        /* \"#utility.yul\":3586:3587   */\n      0x00\n        /* \"#utility.yul\":3577:3583   */\n      dup5\n        /* \"#utility.yul\":3572:3575   */\n      dup5\n        /* \"#utility.yul\":3568:3584   */\n      add\n        /* \"#utility.yul\":3561:3588   */\n      mstore\n        /* \"#utility.yul\":3410:3594   */\n      pop\n        /* \"#utility.yul\":3348:3594   */\n      pop\n      pop\n      pop\n      jump\t// out\n        /* \"#utility.yul\":3600:3977   */\n    tag_74:\n        /* \"#utility.yul\":3688:3691   */\n      0x00\n        /* \"#utility.yul\":3716:3755   */\n      tag_141\n        /* \"#utility.yul\":3749:3754   */\n      dup3\n        /* \"#utility.yul\":3716:3755   */\n      tag_71\n      jump\t// in\n    tag_141:\n        /* \"#utility.yul\":3771:3842   */\n      tag_142\n        /* \"#utility.yul\":3835:3841   */\n      dup2\n        /* \"#utility.yul\":3830:3833   */\n      dup6\n        /* \"#utility.yul\":3771:3842   */\n      tag_72\n      jump\t// in\n    tag_142:\n        /* \"#utility.yul\":3764:3842   */\n      swap4\n      pop\n        /* \"#utility.yul\":3851:3916   */\n      tag_143\n        /* \"#utility.yul\":3909:3915   */\n      dup2\n        /* \"#utility.yul\":3904:3907   */\n      dup6\n        /* \"#utility.yul\":3897:3901   */\n      0x20\n        /* \"#utility.yul\":3890:3895   */\n      dup7\n        /* \"#utility.yul\":3886:3902   */\n      add\n        /* \"#utility.yul\":3851:3916   */\n      tag_73\n      jump\t// in\n    tag_143:\n        /* \"#utility.yul\":3941:3970   */\n      tag_144\n        /* \"#utility.yul\":3963:3969   */\n      dup2\n        /* \"#utility.yul\":3941:3970   */\n      tag_63\n      jump\t// in\n    tag_144:\n        /* \"#utility.yul\":3936:3939   */\n      dup5\n        /* \"#utility.yul\":3932:3971   */\n      add\n        /* \"#utility.yul\":3925:3971   */\n      swap2\n      pop\n        /* \"#utility.yul\":3692:3977   */\n      pop\n        /* \"#utility.yul\":3600:3977   */\n      swap3\n      swap2\n      pop\n      pop\n      jump\t// out\n        /* \"#utility.yul\":3983:4296   */\n    tag_17:\n        /* \"#utility.yul\":4096:4100   */\n      0x00\n        /* \"#utility.yul\":4134:4136   */\n      0x20\n        /* \"#utility.yul\":4123:4132   */\n      dup3\n        /* \"#utility.yul\":4119:4137   */\n      add\n        /* \"#utility.yul\":4111:4137   */\n      swap1\n      pop\n        /* \"#utility.yul\":4183:4192   */\n      dup2\n        /* \"#utility.yul\":4177:4181   */\n      dup2\n        /* \"#utility.yul\":4173:4193   */\n      sub\n        /* \"#utility.yul\":4169:4170   */\n      0x00\n        /* \"#utility.yul\":4158:4167   */\n      dup4\n        /* \"#utility.yul\":4154:4171   */\n      add\n        /* \"#utility.yul\":4147:4194   */\n      mstore\n        /* \"#utility.yul\":4211:4289   */\n      tag_146\n        /* \"#utility.yul\":4284:4288   */\n      dup2\n        /* \"#utility.yul\":4275:4281   */\n      dup5\n        /* \"#utility.yul\":4211:4289   */\n      tag_74\n      jump\t// in\n    tag_146:\n        /* \"#utility.yul\":4203:4289   */\n      swap1\n      pop\n        /* \"#utility.yul\":3983:4296   */\n      swap3\n      swap2\n      pop\n      pop\n      jump\t// out\n        /* \"#utility.yul\":4302:4428   */\n    tag_75:\n        /* \"#utility.yul\":4339:4346   */\n      0x00\n        /* \"#utility.yul\":4379:4421   */\n      0xffffffffffffffffffffffffffffffffffffffff\n        /* \"#utility.yul\":4372:4377   */\n      dup3\n        /* \"#utility.yul\":4368:4422   */\n      and\n        /* \"#utility.yul\":4357:4422   */\n      swap1\n      pop\n        /* \"#utility.yul\":4302:4428   */\n      swap2\n      swap1\n      pop\n      jump\t// out\n        /* \"#utility.yul\":4434:4530   */\n    tag_76:\n        /* \"#utility.yul\":4471:4478   */\n      0x00\n        /* \"#utility.yul\":4500:4524   */\n      tag_149\n        /* \"#utility.yul\":4518:4523   */\n      dup3\n        /* \"#utility.yul\":4500:4524   */\n      tag_75\n      jump\t// in\n    tag_149:\n        /* \"#utility.yul\":4489:4524   */\n      swap1\n      pop\n        /* \"#utility.yul\":4434:4530   */\n      swap2\n      swap1\n      pop\n      jump\t// out\n        /* \"#utility.yul\":4536:4654   */\n    tag_77:\n        /* \"#utility.yul\":4623:4647   */\n      tag_151\n        /* \"#utility.yul\":4641:4646   */\n      dup2\n        /* \"#utility.yul\":4623:4647   */\n      tag_76\n      jump\t// in\n    tag_151:\n        /* \"#utility.yul\":4618:4621   */\n      dup3\n        /* \"#utility.yul\":4611:4648   */\n      mstore\n        /* \"#utility.yul\":4536:4654   */\n      pop\n      pop\n      jump\t// out\n        /* \"#utility.yul\":4660:4737   */\n    tag_78:\n        /* \"#utility.yul\":4697:4704   */\n      0x00\n        /* \"#utility.yul\":4726:4731   */\n      dup2\n        /* \"#utility.yul\":4715:4731   */\n      swap1\n      pop\n        /* \"#utility.yul\":4660:4737   */\n      swap2\n      swap1\n      pop\n      jump\t// out\n        /* \"#utility.yul\":4743:4861   */\n    tag_79:\n        /* \"#utility.yul\":4830:4854   */\n      tag_154\n        /* \"#utility.yul\":4848:4853   */\n      dup2\n        /* \"#utility.yul\":4830:4854   */\n      tag_78\n      jump\t// in\n    tag_154:\n        /* \"#utility.yul\":4825:4828   */\n      dup3\n        /* \"#utility.yul\":4818:4855   */\n      mstore\n        /* \"#utility.yul\":4743:4861   */\n      pop\n      pop\n      jump\t// out\n        /* \"#utility.yul\":4867:5511   */\n    tag_23:\n        /* \"#utility.yul\":5064:5068   */\n      0x00\n        /* \"#utility.yul\":5102:5105   */\n      0x80\n        /* \"#utility.yul\":5091:5100   */\n      dup3\n        /* \"#utility.yul\":5087:5106   */\n      add\n        /* \"#utility.yul\":5079:5106   */\n      swap1\n      pop\n        /* \"#utility.yul\":5116:5187   */\n      tag_156\n        /* \"#utility.yul\":5184:5185   */\n      0x00\n        /* \"#utility.yul\":5173:5182   */\n      dup4\n        /* \"#utility.yul\":5169:5186   */\n      add\n        /* \"#utility.yul\":5160:5166   */\n      dup8\n        /* \"#utility.yul\":5116:5187   */\n      tag_77\n      jump\t// in\n    tag_156:\n        /* \"#utility.yul\":5197:5269   */\n      tag_157\n        /* \"#utility.yul\":5265:5267   */\n      0x20\n        /* \"#utility.yul\":5254:5263   */\n      dup4\n        /* \"#utility.yul\":5250:5268   */\n      add\n        /* \"#utility.yul\":5241:5247   */\n      dup7\n        /* \"#utility.yul\":5197:5269   */\n      tag_79\n      jump\t// in\n    tag_157:\n        /* \"#utility.yul\":5279:5351   */\n      tag_158\n        /* \"#utility.yul\":5347:5349   */\n      0x40\n        /* \"#utility.yul\":5336:5345   */\n      dup4\n        /* \"#utility.yul\":5332:5350   */\n      add\n        /* \"#utility.yul\":5323:5329   */\n      dup6\n        /* \"#utility.yul\":5279:5351   */\n      tag_79\n      jump\t// in\n    tag_158:\n        /* \"#utility.yul\":5398:5407   */\n      dup2\n        /* \"#utility.yul\":5392:5396   */\n      dup2\n        /* \"#utility.yul\":5388:5408   */\n      sub\n        /* \"#utility.yul\":5383:5385   */\n      0x60\n        /* \"#utility.yul\":5372:5381   */\n      dup4\n        /* \"#utility.yul\":5368:5386   */\n      add\n        /* \"#utility.yul\":5361:5409   */\n      mstore\n        /* \"#utility.yul\":5426:5504   */\n      tag_159\n        /* \"#utility.yul\":5499:5503   */\n      dup2\n        /* \"#utility.yul\":5490:5496   */\n      dup5\n        /* \"#utility.yul\":5426:5504   */\n      tag_74\n      jump\t// in\n    tag_159:\n        /* \"#utility.yul\":5418:5504   */\n      swap1\n      pop\n        /* \"#utility.yul\":4867:5511   */\n      swap6\n      swap5\n      pop\n      pop\n      pop\n      pop\n      pop\n      jump\t// out\n        /* \"#utility.yul\":5517:5739   */\n    tag_28:\n        /* \"#utility.yul\":5610:5614   */\n      0x00\n        /* \"#utility.yul\":5648:5650   */\n      0x20\n        /* \"#utility.yul\":5637:5646   */\n      dup3\n        /* \"#utility.yul\":5633:5651   */\n      add\n        /* \"#utility.yul\":5625:5651   */\n      swap1\n      pop\n        /* \"#utility.yul\":5661:5732   */\n      tag_161\n        /* \"#utility.yul\":5729:5730   */\n      0x00\n        /* \"#utility.yul\":5718:5727   */\n      dup4\n        /* \"#utility.yul\":5714:5731   */\n      add\n        /* \"#utility.yul\":5705:5711   */\n      dup5\n        /* \"#utility.yul\":5661:5732   */\n      tag_79\n      jump\t// in\n    tag_161:\n        /* \"#utility.yul\":5517:5739   */\n      swap3\n      swap2\n      pop\n      pop\n      jump\t// out\n        /* \"#utility.yul\":5745:5967   */\n    tag_36:\n        /* \"#utility.yul\":5838:5842   */\n      0x00\n        /* \"#utility.yul\":5876:5878   */\n      0x20\n        /* \"#utility.yul\":5865:5874   */\n      dup3\n        /* \"#utility.yul\":5861:5879   */\n      add\n        /* \"#utility.yul\":5853:5879   */\n      swap1\n      pop\n        /* \"#utility.yul\":5889:5960   */\n      tag_163\n        /* \"#utility.yul\":5957:5958   */\n      0x00\n        /* \"#utility.yul\":5946:5955   */\n      dup4\n        /* \"#utility.yul\":5942:5959   */\n      add\n        /* \"#utility.yul\":5933:5939   */\n      dup5\n        /* \"#utility.yul\":5889:5960   */\n      tag_77\n      jump\t// in\n    tag_163:\n        /* \"#utility.yul\":5745:5967   */\n      swap3\n      swap2\n      pop\n      pop\n      jump\t// out\n        /* \"#utility.yul\":5973:6121   */\n    tag_80:\n        /* \"#utility.yul\":6075:6086   */\n      0x00\n        /* \"#utility.yul\":6112:6115   */\n      dup2\n        /* \"#utility.yul\":6097:6115   */\n      swap1\n      pop\n        /* \"#utility.yul\":5973:6121   */\n      swap3\n      swap2\n      pop\n      pop\n      jump\t// out\n        /* \"#utility.yul\":6127:6517   */\n    tag_81:\n        /* \"#utility.yul\":6233:6236   */\n      0x00\n        /* \"#utility.yul\":6261:6300   */\n      tag_166\n        /* \"#utility.yul\":6294:6299   */\n      dup3\n        /* \"#utility.yul\":6261:6300   */\n      tag_71\n      jump\t// in\n    tag_166:\n        /* \"#utility.yul\":6316:6405   */\n      tag_167\n        /* \"#utility.yul\":6398:6404   */\n      dup2\n        /* \"#utility.yul\":6393:6396   */\n      dup6\n        /* \"#utility.yul\":6316:6405   */\n      tag_80\n      jump\t// in\n    tag_167:\n        /* \"#utility.yul\":6309:6405   */\n      swap4\n      pop\n        /* \"#utility.yul\":6414:6479   */\n      tag_168\n        /* \"#utility.yul\":6472:6478   */\n      dup2\n        /* \"#utility.yul\":6467:6470   */\n      dup6\n        /* \"#utility.yul\":6460:6464   */\n      0x20\n        /* \"#utility.yul\":6453:6458   */\n      dup7\n        /* \"#utility.yul\":6449:6465   */\n      add\n        /* \"#utility.yul\":6414:6479   */\n      tag_73\n      jump\t// in\n    tag_168:\n        /* \"#utility.yul\":6504:6510   */\n      dup1\n        /* \"#utility.yul\":6499:6502   */\n      dup5\n        /* \"#utility.yul\":6495:6511   */\n      add\n        /* \"#utility.yul\":6488:6511   */\n      swap2\n      pop\n        /* \"#utility.yul\":6237:6517   */\n      pop\n        /* \"#utility.yul\":6127:6517   */\n      swap3\n      swap2\n      pop\n      pop\n      jump\t// out\n        /* \"#utility.yul\":6523:6798   */\n    tag_42:\n        /* \"#utility.yul\":6655:6658   */\n      0x00\n        /* \"#utility.yul\":6677:6772   */\n      tag_170\n        /* \"#utility.yul\":6768:6771   */\n      dup3\n        /* \"#utility.yul\":6759:6765   */\n      dup5\n        /* \"#utility.yul\":6677:6772   */\n      tag_81\n      jump\t// in\n    tag_170:\n        /* \"#utility.yul\":6670:6772   */\n      swap2\n      pop\n        /* \"#utility.yul\":6789:6792   */\n      dup2\n        /* \"#utility.yul\":6782:6792   */\n      swap1\n      pop\n        /* \"#utility.yul\":6523:6798   */\n      swap3\n      swap2\n      pop\n      pop\n      jump\t// out\n        /* \"#utility.yul\":6804:6984   */\n    tag_82:\n        /* \"#utility.yul\":6852:6929   */\n      0x4e487b7100000000000000000000000000000000000000000000000000000000\n        /* \"#utility.yul\":6849:6850   */\n      0x00\n        /* \"#utility.yul\":6842:6930   */\n      mstore\n        /* \"#utility.yul\":6949:6953   */\n      0x22\n        /* \"#utility.yul\":6946:6947   */\n      0x04\n        /* \"#utility.yul\":6939:6954   */\n      mstore\n        /* \"#utility.yul\":6973:6977   */\n      0x24\n        /* \"#utility.yul\":6970:6971   */\n      0x00\n        /* \"#utility.yul\":6963:6978   */\n      revert\n        /* \"#utility.yul\":6990:7310   */\n    tag_44:\n        /* \"#utility.yul\":7034:7040   */\n      0x00\n        /* \"#utility.yul\":7071:7072   */\n      0x02\n        /* \"#utility.yul\":7065:7069   */\n      dup3\n        /* \"#utility.yul\":7061:7073   */\n      div\n        /* \"#utility.yul\":7051:7073   */\n      swap1\n      pop\n        /* \"#utility.yul\":7118:7119   */\n      0x01\n        /* \"#utility.yul\":7112:7116   */\n      dup3\n        /* \"#utility.yul\":7108:7120   */\n      and\n        /* \"#utility.yul\":7139:7157   */\n      dup1\n        /* \"#utility.yul\":7129:7210   */\n      tag_173\n      jumpi\n        /* \"#utility.yul\":7195:7199   */\n      0x7f\n        /* \"#utility.yul\":7187:7193   */\n      dup3\n        /* \"#utility.yul\":7183:7200   */\n      and\n        /* \"#utility.yul\":7173:7200   */\n      swap2\n      pop\n        /* \"#utility.yul\":7129:7210   */\n    tag_173:\n        /* \"#utility.yul\":7257:7259   */\n      0x20\n        /* \"#utility.yul\":7249:7255   */\n      dup3\n        /* \"#utility.yul\":7246:7260   */\n      lt\n        /* \"#utility.yul\":7226:7244   */\n      dup2\n        /* \"#utility.yul\":7223:7261   */\n      sub\n        /* \"#utility.yul\":7220:7304   */\n      tag_174\n      jumpi\n        /* \"#utility.yul\":7276:7294   */\n      tag_175\n      tag_82\n      jump\t// in\n    tag_175:\n        /* \"#utility.yul\":7220:7304   */\n    tag_174:\n        /* \"#utility.yul\":7041:7310   */\n      pop\n        /* \"#utility.yul\":6990:7310   */\n      swap2\n      swap1\n      pop\n      jump\t// out\n        /* \"#utility.yul\":7316:7457   */\n    tag_83:\n        /* \"#utility.yul\":7365:7369   */\n      0x00\n        /* \"#utility.yul\":7388:7391   */\n      dup2\n        /* \"#utility.yul\":7380:7391   */\n      swap1\n      pop\n        /* \"#utility.yul\":7411:7414   */\n      dup2\n        /* \"#utility.yul\":7408:7409   */\n      0x00\n        /* \"#utility.yul\":7401:7415   */\n      mstore\n        /* \"#utility.yul\":7445:7449   */\n      0x20\n        /* \"#utility.yul\":7442:7443   */\n      0x00\n        /* \"#utility.yul\":7432:7450   */\n      keccak256\n        /* \"#utility.yul\":7424:7450   */\n      swap1\n      pop\n        /* \"#utility.yul\":7316:7457   */\n      swap2\n      swap1\n      pop\n      jump\t// out\n        /* \"#utility.yul\":7463:7556   */\n    tag_84:\n        /* \"#utility.yul\":7500:7506   */\n      0x00\n        /* \"#utility.yul\":7547:7549   */\n      0x20\n        /* \"#utility.yul\":7542:7544   */\n      0x1f\n        /* \"#utility.yul\":7535:7540   */\n      dup4\n        /* \"#utility.yul\":7531:7545   */\n      add\n        /* \"#utility.yul\":7527:7550   */\n      div\n        /* \"#utility.yul\":7517:7550   */\n      swap1\n      pop\n        /* \"#utility.yul\":7463:7556   */\n      swap2\n      swap1\n      pop\n      jump\t// out\n        /* \"#utility.yul\":7562:7669   */\n    tag_85:\n        /* \"#utility.yul\":7606:7614   */\n      0x00\n        /* \"#utility.yul\":7656:7661   */\n      dup3\n        /* \"#utility.yul\":7650:7654   */\n      dup3\n        /* \"#utility.yul\":7646:7662   */\n      shl\n        /* \"#utility.yul\":7625:7662   */\n      swap1\n      pop\n        /* \"#utility.yul\":7562:7669   */\n      swap3\n      swap2\n      pop\n      pop\n      jump\t// out\n        /* \"#utility.yul\":7675:8068   */\n    tag_86:\n        /* \"#utility.yul\":7744:7750   */\n      0x00\n        /* \"#utility.yul\":7794:7795   */\n      0x08\n        /* \"#utility.yul\":7782:7792   */\n      dup4\n        /* \"#utility.yul\":7778:7796   */\n      mul\n        /* \"#utility.yul\":7817:7914   */\n      tag_180\n        /* \"#utility.yul\":7847:7913   */\n      0xffffffffffffffffffffffffffffffffffffffffffffffffffffffffffffffff\n        /* \"#utility.yul\":7836:7845   */\n      dup3\n        /* \"#utility.yul\":7817:7914   */\n      tag_85\n      jump\t// in\n    tag_180:\n        /* \"#utility.yul\":7935:7974   */\n      tag_181\n        /* \"#utility.yul\":7965:7973   */\n      dup7\n        /* \"#utility.yul\":7954:7963   */\n      dup4\n        /* \"#utility.yul\":7935:7974   */\n      tag_85\n      jump\t// in\n    tag_181:\n        /* \"#utility.yul\":7923:7974   */\n      swap6\n      pop\n        /* \"#utility.yul\":8007:8011   */\n      dup1\n        /* \"#utility.yul\":8003:8012   */\n      not\n        /* \"#utility.yul\":7996:8001   */\n      dup5\n        /* \"#utility.yul\":7992:8013   */\n      and\n        /* \"#utility.yul\":7983:8013   */\n      swap4\n      pop\n        /* \"#utility.yul\":8056:8060   */\n      dup1\n        /* \"#utility.yul\":8046:8054   */\n      dup7\n        /* \"#utility.yul\":8042:8061   */\n      and\n        /* \"#utility.yul\":8035:8040   */\n      dup5\n        /* \"#utility.yul\":8032:8062   */\n      or\n        /* \"#utility.yul\":8022:8062   */\n      swap3\n      pop\n        /* \"#utility.yul\":7751:8068   */\n      pop\n      pop\n        /* \"#utility.yul\":7675:8068   */\n      swap4\n      swap3\n      pop\n      pop\n      pop\n      jump\t// out\n        /* \"#utility.yul\":8074:8134   */\n    tag_87:\n        /* \"#utility.yul\":8102:8105   */\n      0x00\n        /* \"#utility.yul\":8123:8128   */\n      dup2\n        /* \"#utility.yul\":8116:8128   */\n      swap1\n      pop\n        /* \"#utility.yul\":8074:8134   */\n      swap2\n      swap1\n      pop\n      jump\t// out\n        /* \"#utility.yul\":8140:8282   */\n    tag_88:\n        /* \"#utility.yul\":8190:8199   */\n      0x00\n        /* \"#utility.yul\":8223:8276   */\n      tag_184\n        /* \"#utility.yul\":8241:8275   */\n      tag_185\n        /* \"#utility.yul\":8250:8274   */\n      tag_186\n        /* \"#utility.yul\":8268:8273   */\n      dup5\n        /* \"#utility.yul\":8250:8274   */\n      tag_78\n      jump\t// in\n    tag_186:\n        /* \"#utility.yul\":8241:8275   */\n      tag_87\n      jump\t// in\n    tag_185:\n        /* \"#utility.yul\":8223:8276   */\n      tag_78\n      jump\t// in\n    tag_184:\n        /* \"#utility.yul\":8210:8276   */\n      swap1\n      pop\n        /* \"#utility.yul\":8140:8282   */\n      swap2\n      swap1\n      pop\n      jump\t// out\n        /* \"#utility.yul\":8288:8363   */\n    tag_89:\n        /* \"#utility.yul\":8331:8334   */\n      0x00\n        /* \"#utility.yul\":8352:8357   */\n      dup2\n        /* \"#utility.yul\":8345:8357   */\n      swap1\n      pop\n        /* \"#utility.yul\":8288:8363   */\n      swap2\n      swap1\n      pop\n      jump\t// out\n        /* \"#utility.yul\":8369:8638   */\n    tag_90:\n        /* \"#utility.yul\":8479:8518   */\n      tag_189\n        /* \"#utility.yul\":8510:8517   */\n      dup4\n        /* \"#utility.yul\":8479:8518   */\n      tag_88\n      jump\t// in\n    tag_189:\n        /* \"#utility.yul\":8540:8631   */\n      tag_190\n        /* \"#utility.yul\":8589:8630   */\n      tag_191\n        /* \"#utility.yul\":8613:8629   */\n      dup3\n        /* \"#utility.yul\":8589:8630   */\n      tag_89\n      jump\t// in\n    tag_191:\n        /* \"#utility.yul\":8581:8587   */\n      dup5\n        /* \"#utility.yul\":8574:8578   */\n      dup5\n        /* \"#utility.yul\":8568:8579   */\n      sload\n        /* \"#utility.yul\":8540:8631   */\n      tag_86\n      jump\t// in\n    tag_190:\n        /* \"#utility.yul\":8534:8538   */\n      dup3\n        /* \"#utility.yul\":8527:8632   */\n      sstore\n        /* \"#utility.yul\":8445:8638   */\n      pop\n        /* \"#utility.yul\":8369:8638   */\n      pop\n      pop\n      pop\n      jump\t// out\n        /* \"#utility.yul\":8644:8717   */\n    tag_91:\n        /* \"#utility.yul\":8689:8692   */\n      0x00\n        /* \"#utility.yul\":8644:8717   */\n      swap1\n      jump\t// out\n        /* \"#utility.yul\":8723:8912   */\n    tag_92:\n        /* \"#utility.yul\":8800:8832   */\n      tag_194\n      tag_91\n      jump\t// in\n    tag_194:\n        /* \"#utility.yul\":8841:8906   */\n      tag_195\n        /* \"#utility.yul\":8899:8905   */\n      dup2\n        /* \"#utility.yul\":8891:8897   */\n      dup5\n        /* \"#utility.yul\":8885:8889   */\n      dup5\n        /* \"#utility.yul\":8841:8906   */\n      tag_90\n      jump\t// in\n    tag_195:\n        /* \"#utility.yul\":8776:8912   */\n      pop\n        /* \"#utility.yul\":8723:8912   */\n      pop\n      pop\n      jump\t// out\n        /* \"#utility.yul\":8918:9104   */\n    tag_93:\n        /* \"#utility.yul\":8978:9098   */\n    tag_197:\n        /* \"#utility.yul\":8995:8998   */\n      dup2\n        /* \"#utility.yul\":8988:8993   */\n      dup2\n        /* \"#utility.yul\":8985:8999   */\n      lt\n        /* \"#utility.yul\":8978:9098   */\n      iszero\n      tag_199\n      jumpi\n        /* \"#utility.yul\":9049:9088   */\n      tag_200\n        /* \"#utility.yul\":9086:9087   */\n      0x00\n        /* \"#utility.yul\":9079:9084   */\n      dup3\n        /* \"#utility.yul\":9049:9088   */\n      tag_92\n      jump\t// in\n    tag_200:\n        /* \"#utility.yul\":9022:9023   */\n      0x01\n        /* \"#utility.yul\":9015:9020   */\n      dup2\n        /* \"#utility.yul\":9011:9024   */\n      add\n        /* \"#utility.yul\":9002:9024   */\n      swap1\n      pop\n        /* \"#utility.yul\":8978:9098   */\n      jump(tag_197)\n    tag_199:\n        /* \"#utility.yul\":8918:9104   */\n      pop\n      pop\n      jump\t// out\n        /* \"#utility.yul\":9110:9653   */\n    tag_94:\n        /* \"#utility.yul\":9211:9213   */\n      0x1f\n        /* \"#utility.yul\":9206:9209   */\n      dup3\n        /* \"#utility.yul\":9203:9214   */\n      gt\n        /* \"#utility.yul\":9200:9646   */\n      iszero\n      tag_202\n      jumpi\n        /* \"#utility.yul\":9245:9283   */\n      tag_203\n        /* \"#utility.yul\":9277:9282   */\n      dup2\n        /* \"#utility.yul\":9245:9283   */\n      tag_83\n      jump\t// in\n    tag_203:\n        /* \"#utility.yul\":9329:9358   */\n      tag_204\n        /* \"#utility.yul\":9347:9357   */\n      dup5\n        /* \"#utility.yul\":9329:9358   */\n      tag_84\n      jump\t// in\n    tag_204:\n        /* \"#utility.yul\":9319:9327   */\n      dup2\n        /* \"#utility.yul\":9315:9359   */\n      add\n        /* \"#utility.yul\":9512:9514   */\n      0x20\n        /* \"#utility.yul\":9500:9510   */\n      dup6\n        /* \"#utility.yul\":9497:9515   */\n      lt\n        /* \"#utility.yul\":9494:9543   */\n      iszero\n      tag_205\n      jumpi\n        /* \"#utility.yul\":9533:9541   */\n      dup2\n        /* \"#utility.yul\":9518:9541   */\n      swap1\n      pop\n        /* \"#utility.yul\":9494:9543   */\n    tag_205:\n        /* \"#utility.yul\":9556:9636   */\n      tag_206\n        /* \"#utility.yul\":9612:9634   */\n      tag_207\n        /* \"#utility.yul\":9630:9633   */\n      dup6\n        /* \"#utility.yul\":9612:9634   */\n      tag_84\n      jump\t// in\n    tag_207:\n        /* \"#utility.yul\":9602:9610   */\n      dup4\n        /* \"#utility.yul\":9598:9635   */\n      add\n        /* \"#utility.yul\":9585:9596   */\n      dup3\n        /* \"#utility.yul\":9556:9636   */\n      tag_93\n      jump\t// in\n    tag_206:\n        /* \"#utility.yul\":9215:9646   */\n      pop\n      pop\n        /* \"#utility.yul\":9200:9646   */\n    tag_202:\n        /* \"#utility.yul\":9110:9653   */\n      pop\n      pop\n      pop\n      jump\t// out\n        /* \"#utility.yul\":9659:9776   */\n    tag_95:\n        /* \"#utility.yul\":9713:9721   */\n      0x00\n        /* \"#utility.yul\":9763:9768   */\n      dup3\n        /* \"#utility.yul\":9757:9761   */\n      dup3\n        /* \"#utility.yul\":9753:9769   */\n      shr\n        /* \"#utility.yul\":9732:9769   */\n      swap1\n      pop\n        /* \"#utility.yul\":9659:9776   */\n      swap3\n      swap2\n      pop\n      pop\n      jump\t// out\n        /* \"#utility.yul\":9782:9951   */\n    tag_96:\n        /* \"#utility.yul\":9826:9832   */\n      0x00\n        /* \"#utility.yul\":9859:9910   */\n      tag_210\n        /* \"#utility.yul\":9907:9908   */\n      0x00\n        /* \"#utility.yul\":9903:9909   */\n      not\n        /* \"#utility.yul\":9895:9900   */\n      dup5\n        /* \"#utility.yul\":9892:9893   */\n      0x08\n        /* \"#utility.yul\":9888:9901   */\n      mul\n        /* \"#utility.yul\":9859:9910   */\n      tag_95\n      jump\t// in\n    tag_210:\n        /* \"#utility.yul\":9855:9911   */\n      not\n        /* \"#utility.yul\":9940:9944   */\n      dup1\n        /* \"#utility.yul\":9934:9938   */\n      dup4\n        /* \"#utility.yul\":9930:9945   */\n      and\n        /* \"#utility.yul\":9920:9945   */\n      swap2\n      pop\n        /* \"#utility.yul\":9833:9951   */\n      pop\n        /* \"#utility.yul\":9782:9951   */\n      swap3\n      swap2\n      pop\n      pop\n      jump\t// out\n        /* \"#utility.yul\":9956:10251   */\n    tag_97:\n        /* \"#utility.yul\":10032:10036   */\n      0x00\n        /* \"#utility.yul\":10178:10207   */\n      tag_212\n        /* \"#utility.yul\":10203:10206   */\n      dup4\n        /* \"#utility.yul\":10197:10201   */\n      dup4\n        /* \"#utility.yul\":10178:10207   */\n      tag_96\n      jump\t// in\n    tag_212:\n        /* \"#utility.yul\":10170:10207   */\n      swap2\n      pop\n        /* \"#utility.yul\":10240:10243   */\n      dup3\n        /* \"#utility.yul\":10237:10238   */\n      0x02\n        /* \"#utility.yul\":10233:10244   */\n      mul\n        /* \"#utility.yul\":10227:10231   */\n      dup3\n        /* \"#utility.yul\":10224:10245   */\n      or\n        /* \"#utility.yul\":10216:10245   */\n      swap1\n      pop\n        /* \"#utility.yul\":9956:10251   */\n      swap3\n      swap2\n      pop\n      pop\n      jump\t// out\n        /* \"#utility.yul\":10256:11651   */\n    tag_57:\n        /* \"#utility.yul\":10373:10410   */\n      tag_214\n        /* \"#utility.yul\":10406:10409   */\n      dup3\n        /* \"#utility.yul\":10373:10410   */\n      tag_71\n      jump\t// in\n    tag_214:\n        /* \"#utility.yul\":10475:10493   */\n      0xffffffffffffffff\n        /* \"#utility.yul\":10467:10473   */\n      dup2\n        /* \"#utility.yul\":10464:10494   */\n      gt\n        /* \"#utility.yul\":10461:10517   */\n      iszero\n      tag_215\n      jumpi\n        /* \"#utility.yul\":10497:10515   */\n      tag_216\n      tag_64\n      jump\t// in\n    tag_216:\n        /* \"#utility.yul\":10461:10517   */\n    tag_215:\n        /* \"#utility.yul\":10541:10579   */\n      tag_217\n        /* \"#utility.yul\":10573:10577   */\n      dup3\n        /* \"#utility.yul\":10567:10578   */\n      sload\n        /* \"#utility.yul\":10541:10579   */\n      tag_44\n      jump\t// in\n    tag_217:\n        /* \"#utility.yul\":10626:10693   */\n      tag_218\n        /* \"#utility.yul\":10686:10692   */\n      dup3\n        /* \"#utility.yul\":10678:10684   */\n      dup3\n        /* \"#utility.yul\":10672:10676   */\n      dup6\n        /* \"#utility.yul\":10626:10693   */\n      tag_94\n      jump\t// in\n    tag_218:\n        /* \"#utility.yul\":10720:10721   */\n      0x00\n        /* \"#utility.yul\":10744:10748   */\n      0x20\n        /* \"#utility.yul\":10731:10748   */\n      swap1\n      pop\n        /* \"#utility.yul\":10776:10778   */\n      0x1f\n        /* \"#utility.yul\":10768:10774   */\n      dup4\n        /* \"#utility.yul\":10765:10779   */\n      gt\n        /* \"#utility.yul\":10793:10794   */\n      0x01\n        /* \"#utility.yul\":10788:11406   */\n      dup2\n      eq\n      tag_220\n      jumpi\n        /* \"#utility.yul\":11450:11451   */\n      0x00\n        /* \"#utility.yul\":11467:11473   */\n      dup5\n        /* \"#utility.yul\":11464:11541   */\n      iszero\n      tag_221\n      jumpi\n        /* \"#utility.yul\":11516:11525   */\n      dup3\n        /* \"#utility.yul\":11511:11514   */\n      dup8\n        /* \"#utility.yul\":11507:11526   */\n      add\n        /* \"#utility.yul\":11501:11527   */\n      mload\n        /* \"#utility.yul\":11492:11527   */\n      swap1\n      pop\n        /* \"#utility.yul\":11464:11541   */\n    tag_221:\n        /* \"#utility.yul\":11567:11634   */\n      tag_222\n        /* \"#utility.yul\":11627:11633   */\n      dup6\n        /* \"#utility.yul\":11620:11625   */\n      dup3\n        /* \"#utility.yul\":11567:11634   */\n      tag_97\n      jump\t// in\n    tag_222:\n        /* \"#utility.yul\":11561:11565   */\n      dup7\n        /* \"#utility.yul\":11554:11635   */\n      sstore\n        /* \"#utility.yul\":11423:11645   */\n      pop\n        /* \"#utility.yul\":10758:11645   */\n      jump(tag_219)\n        /* \"#utility.yul\":10788:11406   */\n    tag_220:\n        /* \"#utility.yul\":10840:10844   */\n      0x1f\n        /* \"#utility.yul\":10836:10845   */\n      not\n        /* \"#utility.yul\":10828:10834   */\n      dup5\n        /* \"#utility.yul\":10824:10846   */\n      and\n        /* \"#utility.yul\":10874:10911   */\n      tag_223\n        /* \"#utility.yul\":10906:10910   */\n      dup7\n        /* \"#utility.yul\":10874:10911   */\n      tag_83\n      jump\t// in\n    tag_223:\n        /* \"#utility.yul\":10933:10934   */\n      0x00\n        /* \"#utility.yul\":10947:11155   */\n    tag_224:\n        /* \"#utility.yul\":10961:10968   */\n      dup3\n        /* \"#utility.yul\":10958:10959   */\n      dup2\n        /* \"#utility.yul\":10955:10969   */\n      lt\n        /* \"#utility.yul\":10947:11155   */\n      iszero\n      tag_226\n      jumpi\n        /* \"#utility.yul\":11040:11049   */\n      dup5\n        /* \"#utility.yul\":11035:11038   */\n      dup10\n        /* \"#utility.yul\":11031:11050   */\n      add\n        /* \"#utility.yul\":11025:11051   */\n      mload\n        /* \"#utility.yul\":11017:11023   */\n      dup3\n        /* \"#utility.yul\":11010:11052   */\n      sstore\n        /* \"#utility.yul\":11091:11092   */\n      0x01\n        /* \"#utility.yul\":11083:11089   */\n      dup3\n        /* \"#utility.yul\":11079:11093   */\n      add\n        /* \"#utility.yul\":11069:11093   */\n      swap2\n      pop\n        /* \"#utility.yul\":11138:11140   */\n      0x20\n        /* \"#utility.yul\":11127:11136   */\n      dup6\n        /* \"#utility.yul\":11123:11141   */\n      add\n        /* \"#utility.yul\":11110:11141   */\n      swap5\n      pop\n        /* \"#utility.yul\":10984:10988   */\n      0x20\n        /* \"#utility.yul\":10981:10982   */\n      dup2\n        /* \"#utility.yul\":10977:10989   */\n      add\n        /* \"#utility.yul\":10972:10989   */\n      swap1\n      pop\n        /* \"#utility.yul\":10947:11155   */\n      jump(tag_224)\n    tag_226:\n        /* \"#utility.yul\":11183:11189   */\n      dup7\n        /* \"#utility.yul\":11174:11181   */\n      dup4\n        /* \"#utility.yul\":11171:11190   */\n      lt\n        /* \"#utility.yul\":11168:11347   */\n      iszero\n      tag_227\n      jumpi\n        /* \"#utility.yul\":11241:11250   */\n      dup5\n        /* \"#utility.yul\":11236:11239   */\n      dup10\n        /* \"#utility.yul\":11232:11251   */\n      add\n        /* \"#utility.yul\":11226:11252   */\n      mload\n        /* \"#utility.yul\":11284:11332   */\n      tag_228\n        /* \"#utility.yul\":11326:11330   */\n      0x1f\n        /* \"#utility.yul\":11318:11324   */\n      dup10\n        /* \"#utility.yul\":11314:11331   */\n      and\n        /* \"#utility.yul\":11303:11312   */\n      dup3\n        /* \"#utility.yul\":11284:11332   */\n      tag_96\n      jump\t// in\n    tag_228:\n        /* \"#utility.yul\":11276:11282   */\n      dup4\n        /* \"#utility.yul\":11269:11333   */\n      sstore\n        /* \"#utility.yul\":11191:11347   */\n      pop\n        /* \"#utility.yul\":11168:11347   */\n    tag_227:\n        /* \"#utility.yul\":11393:11394   */\n      0x01\n        /* \"#utility.yul\":11389:11390   */\n      0x02\n        /* \"#utility.yul\":11381:11387   */\n      dup9\n        /* \"#utility.yul\":11377:11391   */\n      mul\n        /* \"#utility.yul\":11373:11395   */\n      add\n        /* \"#utility.yul\":11367:11371   */\n      dup9\n        /* \"#utility.yul\":11360:11396   */\n      sstore\n        /* \"#utility.yul\":10795:11406   */\n      pop\n      pop\n      pop\n        /* \"#utility.yul\":10758:11645   */\n    tag_219:\n      pop\n        /* \"#utility.yul\":10348:11651   */\n      pop\n      pop\n      pop\n        /* \"#utility.yul\":10256:11651   */\n      pop\n      pop\n      jump\t// out\n\n    auxdata: 0xa2646970667358221220f4d5459872228aa26848b53197302237d7f28b9a8f66336ca46ef00c9aeaed2a64736f6c63430008160033\n}\n",
				"bytecode": {
					"linkReferences": {},
					"object": "6080604052620f4240600255348015610016575f80fd5b50610a81806100245f395ff3fe608060405260043610610054575f3560e01c806324600fc31461005857806368b64d1f1461006e5780637f109dd3146100aa5780639af1d35a146100e9578063a5cad08a14610113578063e4128fb31461012f575b5f80fd5b348015610063575f80fd5b5061006c610159565b005b348015610079575f80fd5b50610094600480360381019061008f919061057e565b6101a4565b6040516100a1919061063f565b60405180910390f35b3480156100b5575f80fd5b506100d060048036038101906100cb919061057e565b610254565b6040516100e094939291906106b6565b60405180910390f35b3480156100f4575f80fd5b506100fd61033c565b60405161010a9190610700565b60405180910390f35b61012d6004803603810190610128919061057e565b610342565b005b34801561013a575f80fd5b5061014361040c565b6040516101509190610719565b60405180910390f35b5f3390508073ffffffffffffffffffffffffffffffffffffffff166108fc4790811502906040515f60405180830381858888f193505050501580156101a0573d5f803e3d5ffd5b5050565b60605f826040516101b5919061076c565b908152602001604051809103902060030180546101d1906107af565b80601f01602080910402602001604051908101604052809291908181526020018280546101fd906107af565b80156102485780601f1061021f57610100808354040283529160200191610248565b820191905f5260205f20905b81548152906001019060200180831161022b57829003601f168201915b50505050509050919050565b5f818051602081018201805184825260208301602085012081835280955050505050505f91509050805f015f9054906101000a900473ffffffffffffffffffffffffffffffffffffffff16908060010154908060020154908060030180546102bb906107af565b80601f01602080910402602001604051908101604052809291908181526020018280546102e7906107af565b80156103325780601f1061030957610100808354040283529160200191610332565b820191905f5260205f20905b81548152906001019060200180831161031557829003601f168201915b5050505050905084565b60025481565b60405180608001604052803373ffffffffffffffffffffffffffffffffffffffff1681526020014281526020016002548152602001828152505f8260405161038a919061076c565b90815260200160405180910390205f820151815f015f6101000a81548173ffffffffffffffffffffffffffffffffffffffff021916908373ffffffffffffffffffffffffffffffffffffffff16021790555060208201518160010155604082015181600201556060820151816003019081610405919061097c565b5090505050565b60015f9054906101000a900473ffffffffffffffffffffffffffffffffffffffff1681565b5f604051905090565b5f80fd5b5f80fd5b5f80fd5b5f80fd5b5f601f19601f8301169050919050565b7f4e487b71000000000000000000000000000000000000000000000000000000005f52604160045260245ffd5b6104908261044a565b810181811067ffffffffffffffff821117156104af576104ae61045a565b5b80604052505050565b5f6104c1610431565b90506104cd8282610487565b919050565b5f67ffffffffffffffff8211156104ec576104eb61045a565b5b6104f58261044a565b9050602081019050919050565b828183375f83830152505050565b5f61052261051d846104d2565b6104b8565b90508281526020810184848401111561053e5761053d610446565b5b610549848285610502565b509392505050565b5f82601f83011261056557610564610442565b5b8135610575848260208601610510565b91505092915050565b5f602082840312156105935761059261043a565b5b5f82013567ffffffffffffffff8111156105b0576105af61043e565b5b6105bc84828501610551565b91505092915050565b5f81519050919050565b5f82825260208201905092915050565b5f5b838110156105fc5780820151818401526020810190506105e1565b5f8484015250505050565b5f610611826105c5565b61061b81856105cf565b935061062b8185602086016105df565b6106348161044a565b840191505092915050565b5f6020820190508181035f8301526106578184610607565b905092915050565b5f73ffffffffffffffffffffffffffffffffffffffff82169050919050565b5f6106888261065f565b9050919050565b6106988161067e565b82525050565b5f819050919050565b6106b08161069e565b82525050565b5f6080820190506106c95f83018761068f565b6106d660208301866106a7565b6106e360408301856106a7565b81810360608301526106f58184610607565b905095945050505050565b5f6020820190506107135f8301846106a7565b92915050565b5f60208201905061072c5f83018461068f565b92915050565b5f81905092915050565b5f610746826105c5565b6107508185610732565b93506107608185602086016105df565b80840191505092915050565b5f610777828461073c565b915081905092915050565b7f4e487b71000000000000000000000000000000000000000000000000000000005f52602260045260245ffd5b5f60028204905060018216806107c657607f821691505b6020821081036107d9576107d8610782565b5b50919050565b5f819050815f5260205f209050919050565b5f6020601f8301049050919050565b5f82821b905092915050565b5f6008830261083b7fffffffffffffffffffffffffffffffffffffffffffffffffffffffffffffffff82610800565b6108458683610800565b95508019841693508086168417925050509392505050565b5f819050919050565b5f61088061087b6108768461069e565b61085d565b61069e565b9050919050565b5f819050919050565b61089983610866565b6108ad6108a582610887565b84845461080c565b825550505050565b5f90565b6108c16108b5565b6108cc818484610890565b505050565b5b818110156108ef576108e45f826108b9565b6001810190506108d2565b5050565b601f82111561093457610905816107df565b61090e846107f1565b8101602085101561091d578190505b610931610929856107f1565b8301826108d1565b50505b505050565b5f82821c905092915050565b5f6109545f1984600802610939565b1980831691505092915050565b5f61096c8383610945565b9150826002028217905092915050565b610985826105c5565b67ffffffffffffffff81111561099e5761099d61045a565b5b6109a882546107af565b6109b38282856108f3565b5f60209050601f8311600181146109e4575f84156109d2578287015190505b6109dc8582610961565b865550610a43565b601f1984166109f2866107df565b5f5b82811015610a19578489015182556001820191506020850194506020810190506109f4565b86831015610a365784890151610a32601f891682610945565b8355505b6001600288020188555050505b50505050505056fea2646970667358221220f4d5459872228aa26848b53197302237d7f28b9a8f66336ca46ef00c9aeaed2a64736f6c63430008160033",
					"opcodes": "PUSH1 0x80 PUSH1 0x40 MSTORE PUSH3 0xF4240 PUSH1 0x2 SSTORE CALLVALUE DUP1 ISZERO PUSH2 0x16 JUMPI PUSH0 DUP1 REVERT JUMPDEST POP PUSH2 0xA81 DUP1 PUSH2 0x24 PUSH0 CODECOPY PUSH0 RETURN INVALID PUSH1 0x80 PUSH1 0x40 MSTORE PUSH1 0x4 CALLDATASIZE LT PUSH2 0x54 JUMPI PUSH0 CALLDATALOAD PUSH1 0xE0 SHR DUP1 PUSH4 0x24600FC3 EQ PUSH2 0x58 JUMPI DUP1 PUSH4 0x68B64D1F EQ PUSH2 0x6E JUMPI DUP1 PUSH4 0x7F109DD3 EQ PUSH2 0xAA JUMPI DUP1 PUSH4 0x9AF1D35A EQ PUSH2 0xE9 JUMPI DUP1 PUSH4 0xA5CAD08A EQ PUSH2 0x113 JUMPI DUP1 PUSH4 0xE4128FB3 EQ PUSH2 0x12F JUMPI JUMPDEST PUSH0 DUP1 REVERT JUMPDEST CALLVALUE DUP1 ISZERO PUSH2 0x63 JUMPI PUSH0 DUP1 REVERT JUMPDEST POP PUSH2 0x6C PUSH2 0x159 JUMP JUMPDEST STOP JUMPDEST CALLVALUE DUP1 ISZERO PUSH2 0x79 JUMPI PUSH0 DUP1 REVERT JUMPDEST POP PUSH2 0x94 PUSH1 0x4 DUP1 CALLDATASIZE SUB DUP2 ADD SWAP1 PUSH2 0x8F SWAP2 SWAP1 PUSH2 0x57E JUMP JUMPDEST PUSH2 0x1A4 JUMP JUMPDEST PUSH1 0x40 MLOAD PUSH2 0xA1 SWAP2 SWAP1 PUSH2 0x63F JUMP JUMPDEST PUSH1 0x40 MLOAD DUP1 SWAP2 SUB SWAP1 RETURN JUMPDEST CALLVALUE DUP1 ISZERO PUSH2 0xB5 JUMPI PUSH0 DUP1 REVERT JUMPDEST POP PUSH2 0xD0 PUSH1 0x4 DUP1 CALLDATASIZE SUB DUP2 ADD SWAP1 PUSH2 0xCB SWAP2 SWAP1 PUSH2 0x57E JUMP JUMPDEST PUSH2 0x254 JUMP JUMPDEST PUSH1 0x40 MLOAD PUSH2 0xE0 SWAP5 SWAP4 SWAP3 SWAP2 SWAP1 PUSH2 0x6B6 JUMP JUMPDEST PUSH1 0x40 MLOAD DUP1 SWAP2 SUB SWAP1 RETURN JUMPDEST CALLVALUE DUP1 ISZERO PUSH2 0xF4 JUMPI PUSH0 DUP1 REVERT JUMPDEST POP PUSH2 0xFD PUSH2 0x33C JUMP JUMPDEST PUSH1 0x40 MLOAD PUSH2 0x10A SWAP2 SWAP1 PUSH2 0x700 JUMP JUMPDEST PUSH1 0x40 MLOAD DUP1 SWAP2 SUB SWAP1 RETURN JUMPDEST PUSH2 0x12D PUSH1 0x4 DUP1 CALLDATASIZE SUB DUP2 ADD SWAP1 PUSH2 0x128 SWAP2 SWAP1 PUSH2 0x57E JUMP JUMPDEST PUSH2 0x342 JUMP JUMPDEST STOP JUMPDEST CALLVALUE DUP1 ISZERO PUSH2 0x13A JUMPI PUSH0 DUP1 REVERT JUMPDEST POP PUSH2 0x143 PUSH2 0x40C JUMP JUMPDEST PUSH1 0x40 MLOAD PUSH2 0x150 SWAP2 SWAP1 PUSH2 0x719 JUMP JUMPDEST PUSH1 0x40 MLOAD DUP1 SWAP2 SUB SWAP1 RETURN JUMPDEST PUSH0 CALLER SWAP1 POP DUP1 PUSH20 0xFFFFFFFFFFFFFFFFFFFFFFFFFFFFFFFFFFFFFFFF AND PUSH2 0x8FC SELFBALANCE SWAP1 DUP2 ISZERO MUL SWAP1 PUSH1 0x40 MLOAD PUSH0 PUSH1 0x40 MLOAD DUP1 DUP4 SUB DUP2 DUP6 DUP9 DUP9 CALL SWAP4 POP POP POP POP ISZERO DUP1 ISZERO PUSH2 0x1A0 JUMPI RETURNDATASIZE PUSH0 DUP1 RETURNDATACOPY RETURNDATASIZE PUSH0 REVERT JUMPDEST POP POP JUMP JUMPDEST PUSH1 0x60 PUSH0 DUP3 PUSH1 0x40 MLOAD PUSH2 0x1B5 SWAP2 SWAP1 PUSH2 0x76C JUMP JUMPDEST SWAP1 DUP2 MSTORE PUSH1 0x20 ADD PUSH1 0x40 MLOAD DUP1 SWAP2 SUB SWAP1 KECCAK256 PUSH1 0x3 ADD DUP1 SLOAD PUSH2 0x1D1 SWAP1 PUSH2 0x7AF JUMP JUMPDEST DUP1 PUSH1 0x1F ADD PUSH1 0x20 DUP1 SWAP2 DIV MUL PUSH1 0x20 ADD PUSH1 0x40 MLOAD SWAP1 DUP2 ADD PUSH1 0x40 MSTORE DUP1 SWAP3 SWAP2 SWAP1 DUP2 DUP2 MSTORE PUSH1 0x20 ADD DUP3 DUP1 SLOAD PUSH2 0x1FD SWAP1 PUSH2 0x7AF JUMP JUMPDEST DUP1 ISZERO PUSH2 0x248 JUMPI DUP1 PUSH1 0x1F LT PUSH2 0x21F JUMPI PUSH2 0x100 DUP1 DUP4 SLOAD DIV MUL DUP4 MSTORE SWAP2 PUSH1 0x20 ADD SWAP2 PUSH2 0x248 JUMP JUMPDEST DUP3 ADD SWAP2 SWAP1 PUSH0 MSTORE PUSH1 0x20 PUSH0 KECCAK256 SWAP1 JUMPDEST DUP2 SLOAD DUP2 MSTORE SWAP1 PUSH1 0x1 ADD SWAP1 PUSH1 0x20 ADD DUP1 DUP4 GT PUSH2 0x22B JUMPI DUP3 SWAP1 SUB PUSH1 0x1F AND DUP3 ADD SWAP2 JUMPDEST POP POP POP POP POP SWAP1 POP SWAP2 SWAP1 POP JUMP JUMPDEST PUSH0 DUP2 DUP1 MLOAD PUSH1 0x20 DUP2 ADD DUP3 ADD DUP1 MLOAD DUP5 DUP3 MSTORE PUSH1 0x20 DUP4 ADD PUSH1 0x20 DUP6 ADD KECCAK256 DUP2 DUP4 MSTORE DUP1 SWAP6 POP POP POP POP POP POP PUSH0 SWAP2 POP SWAP1 POP DUP1 PUSH0 ADD PUSH0 SWAP1 SLOAD SWAP1 PUSH2 0x100 EXP SWAP1 DIV PUSH20 0xFFFFFFFFFFFFFFFFFFFFFFFFFFFFFFFFFFFFFFFF AND SWAP1 DUP1 PUSH1 0x1 ADD SLOAD SWAP1 DUP1 PUSH1 0x2 ADD SLOAD SWAP1 DUP1 PUSH1 0x3 ADD DUP1 SLOAD PUSH2 0x2BB SWAP1 PUSH2 0x7AF JUMP JUMPDEST DUP1 PUSH1 0x1F ADD PUSH1 0x20 DUP1 SWAP2 DIV MUL PUSH1 0x20 ADD PUSH1 0x40 MLOAD SWAP1 DUP2 ADD PUSH1 0x40 MSTORE DUP1 SWAP3 SWAP2 SWAP1 DUP2 DUP2 MSTORE PUSH1 0x20 ADD DUP3 DUP1 SLOAD PUSH2 0x2E7 SWAP1 PUSH2 0x7AF JUMP JUMPDEST DUP1 ISZERO PUSH2 0x332 JUMPI DUP1 PUSH1 0x1F LT PUSH2 0x309 JUMPI PUSH2 0x100 DUP1 DUP4 SLOAD DIV MUL DUP4 MSTORE SWAP2 PUSH1 0x20 ADD SWAP2 PUSH2 0x332 JUMP JUMPDEST DUP3 ADD SWAP2 SWAP1 PUSH0 MSTORE PUSH1 0x20 PUSH0 KECCAK256 SWAP1 JUMPDEST DUP2 SLOAD DUP2 MSTORE SWAP1 PUSH1 0x1 ADD SWAP1 PUSH1 0x20 ADD DUP1 DUP4 GT PUSH2 0x315 JUMPI DUP3 SWAP1 SUB PUSH1 0x1F AND DUP3 ADD SWAP2 JUMPDEST POP POP POP POP POP SWAP1 POP DUP5 JUMP JUMPDEST PUSH1 0x2 SLOAD DUP2 JUMP JUMPDEST PUSH1 0x40 MLOAD DUP1 PUSH1 0x80 ADD PUSH1 0x40 MSTORE DUP1 CALLER PUSH20 0xFFFFFFFFFFFFFFFFFFFFFFFFFFFFFFFFFFFFFFFF AND DUP2 MSTORE PUSH1 0x20 ADD TIMESTAMP DUP2 MSTORE PUSH1 0x20 ADD PUSH1 0x2 SLOAD DUP2 MSTORE PUSH1 0x20 ADD DUP3 DUP2 MSTORE POP PUSH0 DUP3 PUSH1 0x40 MLOAD PUSH2 0x38A SWAP2 SWAP1 PUSH2 0x76C JUMP JUMPDEST SWAP1 DUP2 MSTORE PUSH1 0x20 ADD PUSH1 0x40 MLOAD DUP1 SWAP2 SUB SWAP1 KECCAK256 PUSH0 DUP3 ADD MLOAD DUP2 PUSH0 ADD PUSH0 PUSH2 0x100 EXP DUP2 SLOAD DUP2 PUSH20 0xFFFFFFFFFFFFFFFFFFFFFFFFFFFFFFFFFFFFFFFF MUL NOT AND SWAP1 DUP4 PUSH20 0xFFFFFFFFFFFFFFFFFFFFFFFFFFFFFFFFFFFFFFFF AND MUL OR SWAP1 SSTORE POP PUSH1 0x20 DUP3 ADD MLOAD DUP2 PUSH1 0x1 ADD SSTORE PUSH1 0x40 DUP3 ADD MLOAD DUP2 PUSH1 0x2 ADD SSTORE PUSH1 0x60 DUP3 ADD MLOAD DUP2 PUSH1 0x3 ADD SWAP1 DUP2 PUSH2 0x405 SWAP2 SWAP1 PUSH2 0x97C JUMP JUMPDEST POP SWAP1 POP POP POP JUMP JUMPDEST PUSH1 0x1 PUSH0 SWAP1 SLOAD SWAP1 PUSH2 0x100 EXP SWAP1 DIV PUSH20 0xFFFFFFFFFFFFFFFFFFFFFFFFFFFFFFFFFFFFFFFF AND DUP2 JUMP JUMPDEST PUSH0 PUSH1 0x40 MLOAD SWAP1 POP SWAP1 JUMP JUMPDEST PUSH0 DUP1 REVERT JUMPDEST PUSH0 DUP1 REVERT JUMPDEST PUSH0 DUP1 REVERT JUMPDEST PUSH0 DUP1 REVERT JUMPDEST PUSH0 PUSH1 0x1F NOT PUSH1 0x1F DUP4 ADD AND SWAP1 POP SWAP2 SWAP1 POP JUMP JUMPDEST PUSH32 0x4E487B7100000000000000000000000000000000000000000000000000000000 PUSH0 MSTORE PUSH1 0x41 PUSH1 0x4 MSTORE PUSH1 0x24 PUSH0 REVERT JUMPDEST PUSH2 0x490 DUP3 PUSH2 0x44A JUMP JUMPDEST DUP2 ADD DUP2 DUP2 LT PUSH8 0xFFFFFFFFFFFFFFFF DUP3 GT OR ISZERO PUSH2 0x4AF JUMPI PUSH2 0x4AE PUSH2 0x45A JUMP JUMPDEST JUMPDEST DUP1 PUSH1 0x40 MSTORE POP POP POP JUMP JUMPDEST PUSH0 PUSH2 0x4C1 PUSH2 0x431 JUMP JUMPDEST SWAP1 POP PUSH2 0x4CD DUP3 DUP3 PUSH2 0x487 JUMP JUMPDEST SWAP2 SWAP1 POP JUMP JUMPDEST PUSH0 PUSH8 0xFFFFFFFFFFFFFFFF DUP3 GT ISZERO PUSH2 0x4EC JUMPI PUSH2 0x4EB PUSH2 0x45A JUMP JUMPDEST JUMPDEST PUSH2 0x4F5 DUP3 PUSH2 0x44A JUMP JUMPDEST SWAP1 POP PUSH1 0x20 DUP2 ADD SWAP1 POP SWAP2 SWAP1 POP JUMP JUMPDEST DUP3 DUP2 DUP4 CALLDATACOPY PUSH0 DUP4 DUP4 ADD MSTORE POP POP POP JUMP JUMPDEST PUSH0 PUSH2 0x522 PUSH2 0x51D DUP5 PUSH2 0x4D2 JUMP JUMPDEST PUSH2 0x4B8 JUMP JUMPDEST SWAP1 POP DUP3 DUP2 MSTORE PUSH1 0x20 DUP2 ADD DUP5 DUP5 DUP5 ADD GT ISZERO PUSH2 0x53E JUMPI PUSH2 0x53D PUSH2 0x446 JUMP JUMPDEST JUMPDEST PUSH2 0x549 DUP5 DUP3 DUP6 PUSH2 0x502 JUMP JUMPDEST POP SWAP4 SWAP3 POP POP POP JUMP JUMPDEST PUSH0 DUP3 PUSH1 0x1F DUP4 ADD SLT PUSH2 0x565 JUMPI PUSH2 0x564 PUSH2 0x442 JUMP JUMPDEST JUMPDEST DUP2 CALLDATALOAD PUSH2 0x575 DUP5 DUP3 PUSH1 0x20 DUP7 ADD PUSH2 0x510 JUMP JUMPDEST SWAP2 POP POP SWAP3 SWAP2 POP POP JUMP JUMPDEST PUSH0 PUSH1 0x20 DUP3 DUP5 SUB SLT ISZERO PUSH2 0x593 JUMPI PUSH2 0x592 PUSH2 0x43A JUMP JUMPDEST JUMPDEST PUSH0 DUP3 ADD CALLDATALOAD PUSH8 0xFFFFFFFFFFFFFFFF DUP2 GT ISZERO PUSH2 0x5B0 JUMPI PUSH2 0x5AF PUSH2 0x43E JUMP JUMPDEST JUMPDEST PUSH2 0x5BC DUP5 DUP3 DUP6 ADD PUSH2 0x551 JUMP JUMPDEST SWAP2 POP POP SWAP3 SWAP2 POP POP JUMP JUMPDEST PUSH0 DUP2 MLOAD SWAP1 POP SWAP2 SWAP1 POP JUMP JUMPDEST PUSH0 DUP3 DUP3 MSTORE PUSH1 0x20 DUP3 ADD SWAP1 POP SWAP3 SWAP2 POP POP JUMP JUMPDEST PUSH0 JUMPDEST DUP4 DUP2 LT ISZERO PUSH2 0x5FC JUMPI DUP1 DUP3 ADD MLOAD DUP2 DUP5 ADD MSTORE PUSH1 0x20 DUP2 ADD SWAP1 POP PUSH2 0x5E1 JUMP JUMPDEST PUSH0 DUP5 DUP5 ADD MSTORE POP POP POP POP JUMP JUMPDEST PUSH0 PUSH2 0x611 DUP3 PUSH2 0x5C5 JUMP JUMPDEST PUSH2 0x61B DUP2 DUP6 PUSH2 0x5CF JUMP JUMPDEST SWAP4 POP PUSH2 0x62B DUP2 DUP6 PUSH1 0x20 DUP7 ADD PUSH2 0x5DF JUMP JUMPDEST PUSH2 0x634 DUP2 PUSH2 0x44A JUMP JUMPDEST DUP5 ADD SWAP2 POP POP SWAP3 SWAP2 POP POP JUMP JUMPDEST PUSH0 PUSH1 0x20 DUP3 ADD SWAP1 POP DUP2 DUP2 SUB PUSH0 DUP4 ADD MSTORE PUSH2 0x657 DUP2 DUP5 PUSH2 0x607 JUMP JUMPDEST SWAP1 POP SWAP3 SWAP2 POP POP JUMP JUMPDEST PUSH0 PUSH20 0xFFFFFFFFFFFFFFFFFFFFFFFFFFFFFFFFFFFFFFFF DUP3 AND SWAP1 POP SWAP2 SWAP1 POP JUMP JUMPDEST PUSH0 PUSH2 0x688 DUP3 PUSH2 0x65F JUMP JUMPDEST SWAP1 POP SWAP2 SWAP1 POP JUMP JUMPDEST PUSH2 0x698 DUP2 PUSH2 0x67E JUMP JUMPDEST DUP3 MSTORE POP POP JUMP JUMPDEST PUSH0 DUP2 SWAP1 POP SWAP2 SWAP1 POP JUMP JUMPDEST PUSH2 0x6B0 DUP2 PUSH2 0x69E JUMP JUMPDEST DUP3 MSTORE POP POP JUMP JUMPDEST PUSH0 PUSH1 0x80 DUP3 ADD SWAP1 POP PUSH2 0x6C9 PUSH0 DUP4 ADD DUP8 PUSH2 0x68F JUMP JUMPDEST PUSH2 0x6D6 PUSH1 0x20 DUP4 ADD DUP7 PUSH2 0x6A7 JUMP JUMPDEST PUSH2 0x6E3 PUSH1 0x40 DUP4 ADD DUP6 PUSH2 0x6A7 JUMP JUMPDEST DUP2 DUP2 SUB PUSH1 0x60 DUP4 ADD MSTORE PUSH2 0x6F5 DUP2 DUP5 PUSH2 0x607 JUMP JUMPDEST SWAP1 POP SWAP6 SWAP5 POP POP POP POP POP JUMP JUMPDEST PUSH0 PUSH1 0x20 DUP3 ADD SWAP1 POP PUSH2 0x713 PUSH0 DUP4 ADD DUP5 PUSH2 0x6A7 JUMP JUMPDEST SWAP3 SWAP2 POP POP JUMP JUMPDEST PUSH0 PUSH1 0x20 DUP3 ADD SWAP1 POP PUSH2 0x72C PUSH0 DUP4 ADD DUP5 PUSH2 0x68F JUMP JUMPDEST SWAP3 SWAP2 POP POP JUMP JUMPDEST PUSH0 DUP2 SWAP1 POP SWAP3 SWAP2 POP POP JUMP JUMPDEST PUSH0 PUSH2 0x746 DUP3 PUSH2 0x5C5 JUMP JUMPDEST PUSH2 0x750 DUP2 DUP6 PUSH2 0x732 JUMP JUMPDEST SWAP4 POP PUSH2 0x760 DUP2 DUP6 PUSH1 0x20 DUP7 ADD PUSH2 0x5DF JUMP JUMPDEST DUP1 DUP5 ADD SWAP2 POP POP SWAP3 SWAP2 POP POP JUMP JUMPDEST PUSH0 PUSH2 0x777 DUP3 DUP5 PUSH2 0x73C JUMP JUMPDEST SWAP2 POP DUP2 SWAP1 POP SWAP3 SWAP2 POP POP JUMP JUMPDEST PUSH32 0x4E487B7100000000000000000000000000000000000000000000000000000000 PUSH0 MSTORE PUSH1 0x22 PUSH1 0x4 MSTORE PUSH1 0x24 PUSH0 REVERT JUMPDEST PUSH0 PUSH1 0x2 DUP3 DIV SWAP1 POP PUSH1 0x1 DUP3 AND DUP1 PUSH2 0x7C6 JUMPI PUSH1 0x7F DUP3 AND SWAP2 POP JUMPDEST PUSH1 0x20 DUP3 LT DUP2 SUB PUSH2 0x7D9 JUMPI PUSH2 0x7D8 PUSH2 0x782 JUMP JUMPDEST JUMPDEST POP SWAP2 SWAP1 POP JUMP JUMPDEST PUSH0 DUP2 SWAP1 POP DUP2 PUSH0 MSTORE PUSH1 0x20 PUSH0 KECCAK256 SWAP1 POP SWAP2 SWAP1 POP JUMP JUMPDEST PUSH0 PUSH1 0x20 PUSH1 0x1F DUP4 ADD DIV SWAP1 POP SWAP2 SWAP1 POP JUMP JUMPDEST PUSH0 DUP3 DUP3 SHL SWAP1 POP SWAP3 SWAP2 POP POP JUMP JUMPDEST PUSH0 PUSH1 0x8 DUP4 MUL PUSH2 0x83B PUSH32 0xFFFFFFFFFFFFFFFFFFFFFFFFFFFFFFFFFFFFFFFFFFFFFFFFFFFFFFFFFFFFFFFF DUP3 PUSH2 0x800 JUMP JUMPDEST PUSH2 0x845 DUP7 DUP4 PUSH2 0x800 JUMP JUMPDEST SWAP6 POP DUP1 NOT DUP5 AND SWAP4 POP DUP1 DUP7 AND DUP5 OR SWAP3 POP POP POP SWAP4 SWAP3 POP POP POP JUMP JUMPDEST PUSH0 DUP2 SWAP1 POP SWAP2 SWAP1 POP JUMP JUMPDEST PUSH0 PUSH2 0x880 PUSH2 0x87B PUSH2 0x876 DUP5 PUSH2 0x69E JUMP JUMPDEST PUSH2 0x85D JUMP JUMPDEST PUSH2 0x69E JUMP JUMPDEST SWAP1 POP SWAP2 SWAP1 POP JUMP JUMPDEST PUSH0 DUP2 SWAP1 POP SWAP2 SWAP1 POP JUMP JUMPDEST PUSH2 0x899 DUP4 PUSH2 0x866 JUMP JUMPDEST PUSH2 0x8AD PUSH2 0x8A5 DUP3 PUSH2 0x887 JUMP JUMPDEST DUP5 DUP5 SLOAD PUSH2 0x80C JUMP JUMPDEST DUP3 SSTORE POP POP POP POP JUMP JUMPDEST PUSH0 SWAP1 JUMP JUMPDEST PUSH2 0x8C1 PUSH2 0x8B5 JUMP JUMPDEST PUSH2 0x8CC DUP2 DUP5 DUP5 PUSH2 0x890 JUMP JUMPDEST POP POP POP JUMP JUMPDEST JUMPDEST DUP2 DUP2 LT ISZERO PUSH2 0x8EF JUMPI PUSH2 0x8E4 PUSH0 DUP3 PUSH2 0x8B9 JUMP JUMPDEST PUSH1 0x1 DUP2 ADD SWAP1 POP PUSH2 0x8D2 JUMP JUMPDEST POP POP JUMP JUMPDEST PUSH1 0x1F DUP3 GT ISZERO PUSH2 0x934 JUMPI PUSH2 0x905 DUP2 PUSH2 0x7DF JUMP JUMPDEST PUSH2 0x90E DUP5 PUSH2 0x7F1 JUMP JUMPDEST DUP2 ADD PUSH1 0x20 DUP6 LT ISZERO PUSH2 0x91D JUMPI DUP2 SWAP1 POP JUMPDEST PUSH2 0x931 PUSH2 0x929 DUP6 PUSH2 0x7F1 JUMP JUMPDEST DUP4 ADD DUP3 PUSH2 0x8D1 JUMP JUMPDEST POP POP JUMPDEST POP POP POP JUMP JUMPDEST PUSH0 DUP3 DUP3 SHR SWAP1 POP SWAP3 SWAP2 POP POP JUMP JUMPDEST PUSH0 PUSH2 0x954 PUSH0 NOT DUP5 PUSH1 0x8 MUL PUSH2 0x939 JUMP JUMPDEST NOT DUP1 DUP4 AND SWAP2 POP POP SWAP3 SWAP2 POP POP JUMP JUMPDEST PUSH0 PUSH2 0x96C DUP4 DUP4 PUSH2 0x945 JUMP JUMPDEST SWAP2 POP DUP3 PUSH1 0x2 MUL DUP3 OR SWAP1 POP SWAP3 SWAP2 POP POP JUMP JUMPDEST PUSH2 0x985 DUP3 PUSH2 0x5C5 JUMP JUMPDEST PUSH8 0xFFFFFFFFFFFFFFFF DUP2 GT ISZERO PUSH2 0x99E JUMPI PUSH2 0x99D PUSH2 0x45A JUMP JUMPDEST JUMPDEST PUSH2 0x9A8 DUP3 SLOAD PUSH2 0x7AF JUMP JUMPDEST PUSH2 0x9B3 DUP3 DUP3 DUP6 PUSH2 0x8F3 JUMP JUMPDEST PUSH0 PUSH1 0x20 SWAP1 POP PUSH1 0x1F DUP4 GT PUSH1 0x1 DUP2 EQ PUSH2 0x9E4 JUMPI PUSH0 DUP5 ISZERO PUSH2 0x9D2 JUMPI DUP3 DUP8 ADD MLOAD SWAP1 POP JUMPDEST PUSH2 0x9DC DUP6 DUP3 PUSH2 0x961 JUMP JUMPDEST DUP7 SSTORE POP PUSH2 0xA43 JUMP JUMPDEST PUSH1 0x1F NOT DUP5 AND PUSH2 0x9F2 DUP7 PUSH2 0x7DF JUMP JUMPDEST PUSH0 JUMPDEST DUP3 DUP2 LT ISZERO PUSH2 0xA19 JUMPI DUP5 DUP10 ADD MLOAD DUP3 SSTORE PUSH1 0x1 DUP3 ADD SWAP2 POP PUSH1 0x20 DUP6 ADD SWAP5 POP PUSH1 0x20 DUP2 ADD SWAP1 POP PUSH2 0x9F4 JUMP JUMPDEST DUP7 DUP4 LT ISZERO PUSH2 0xA36 JUMPI DUP5 DUP10 ADD MLOAD PUSH2 0xA32 PUSH1 0x1F DUP10 AND DUP3 PUSH2 0x945 JUMP JUMPDEST DUP4 SSTORE POP JUMPDEST PUSH1 0x1 PUSH1 0x2 DUP9 MUL ADD DUP9 SSTORE POP POP POP JUMPDEST POP POP POP POP POP POP JUMP INVALID LOG2 PUSH5 0x6970667358 0x22 SLT KECCAK256 DELEGATECALL 0xD5 GASLIMIT SWAP9 PUSH19 0x228AA26848B53197302237D7F28B9A8F66336C LOG4 PUSH15 0xF00C9AEAED2A64736F6C6343000816 STOP CALLER "
				},
				"gasEstimates": {
					"creation": {
						"codeDepositCost": "537800",
						"executionCost": "22679",
						"totalCost": "560479"
					},
					"external": {
						"domain(string)": "infinite",
						"fees()": "2469",
						"registerDomain(string)": "infinite",
						"returnAddress(string)": "infinite",
						"userAddress()": "2596",
						"withdrawFunds()": "infinite"
					}
				},
				"methodIdentifiers": {
					"domain(string)": "7f109dd3",
					"fees()": "9af1d35a",
					"registerDomain(string)": "a5cad08a",
					"returnAddress(string)": "68b64d1f",
					"userAddress()": "e4128fb3",
					"withdrawFunds()": "24600fc3"
				}
			},
			"storageLayout": {
				"storage": [
					{
						"astId": 15,
						"contract": "Nik_MD_project1.sol:ENS",
						"label": "domain",
						"offset": 0,
						"slot": "0",
						"type": "t_mapping(t_string_memory_ptr,t_struct(DomainInfo)10_storage)"
					},
					{
						"astId": 17,
						"contract": "Nik_MD_project1.sol:ENS",
						"label": "userAddress",
						"offset": 0,
						"slot": "1",
						"type": "t_address"
					},
					{
						"astId": 20,
						"contract": "Nik_MD_project1.sol:ENS",
						"label": "fees",
						"offset": 0,
						"slot": "2",
						"type": "t_uint256"
					}
				],
				"types": {
					"t_address": {
						"encoding": "inplace",
						"label": "address",
						"numberOfBytes": "20"
					},
					"t_mapping(t_string_memory_ptr,t_struct(DomainInfo)10_storage)": {
						"encoding": "mapping",
						"key": "t_string_memory_ptr",
						"label": "mapping(string => struct ENS.DomainInfo)",
						"numberOfBytes": "32",
						"value": "t_struct(DomainInfo)10_storage"
					},
					"t_string_memory_ptr": {
						"encoding": "bytes",
						"label": "string",
						"numberOfBytes": "32"
					},
					"t_string_storage": {
						"encoding": "bytes",
						"label": "string",
						"numberOfBytes": "32"
					},
					"t_struct(DomainInfo)10_storage": {
						"encoding": "inplace",
						"label": "struct ENS.DomainInfo",
						"members": [
							{
								"astId": 3,
								"contract": "Nik_MD_project1.sol:ENS",
								"label": "userAddress",
								"offset": 0,
								"slot": "0",
								"type": "t_address"
							},
							{
								"astId": 5,
								"contract": "Nik_MD_project1.sol:ENS",
								"label": "creationTime",
								"offset": 0,
								"slot": "1",
								"type": "t_uint256"
							},
							{
								"astId": 7,
								"contract": "Nik_MD_project1.sol:ENS",
								"label": "fee",
								"offset": 0,
								"slot": "2",
								"type": "t_uint256"
							},
							{
								"astId": 9,
								"contract": "Nik_MD_project1.sol:ENS",
								"label": "message",
								"offset": 0,
								"slot": "3",
								"type": "t_string_storage"
							}
						],
						"numberOfBytes": "128"
					},
					"t_uint256": {
						"encoding": "inplace",
						"label": "uint256",
						"numberOfBytes": "32"
					}
				}
			},
			"userdoc": {
				"kind": "user",
				"methods": {},
				"version": 1
			}
		}
	}
}