{
	"Wallet.sol": {
		"Wallet": {
			"abi": [
				{
					"inputs": [
						{
							"internalType": "address",
							"name": "initialOwner",
							"type": "address"
						}
					],
					"stateMutability": "nonpayable",
					"type": "constructor"
				},
				{
					"inputs": [
						{
							"internalType": "address",
							"name": "owner",
							"type": "address"
						}
					],
					"name": "OwnableInvalidOwner",
					"type": "error"
				},
				{
					"inputs": [
						{
							"internalType": "address",
							"name": "account",
							"type": "address"
						}
					],
					"name": "OwnableUnauthorizedAccount",
					"type": "error"
				},
				{
					"anonymous": false,
					"inputs": [
						{
							"indexed": true,
							"internalType": "address",
							"name": "_from",
							"type": "address"
						},
						{
							"indexed": false,
							"internalType": "uint256",
							"name": "_amount",
							"type": "uint256"
						}
					],
					"name": "MoneyReceived",
					"type": "event"
				},
				{
					"anonymous": false,
					"inputs": [
						{
							"indexed": true,
							"internalType": "address",
							"name": "_to",
							"type": "address"
						},
						{
							"indexed": false,
							"internalType": "uint256",
							"name": "_amount",
							"type": "uint256"
						}
					],
					"name": "MoneyWithdrawn",
					"type": "event"
				},
				{
					"anonymous": false,
					"inputs": [
						{
							"indexed": true,
							"internalType": "address",
							"name": "previousOwner",
							"type": "address"
						},
						{
							"indexed": true,
							"internalType": "address",
							"name": "newOwner",
							"type": "address"
						}
					],
					"name": "OwnershipTransferred",
					"type": "event"
				},
				{
					"stateMutability": "payable",
					"type": "fallback"
				},
				{
					"inputs": [
						{
							"internalType": "address",
							"name": "_member",
							"type": "address"
						},
						{
							"internalType": "uint256",
							"name": "_limit",
							"type": "uint256"
						}
					],
					"name": "addLimit",
					"outputs": [],
					"stateMutability": "nonpayable",
					"type": "function"
				},
				{
					"inputs": [],
					"name": "getBalance",
					"outputs": [
						{
							"internalType": "uint256",
							"name": "",
							"type": "uint256"
						}
					],
					"stateMutability": "view",
					"type": "function"
				},
				{
					"inputs": [
						{
							"internalType": "address",
							"name": "",
							"type": "address"
						}
					],
					"name": "members",
					"outputs": [
						{
							"internalType": "uint256",
							"name": "",
							"type": "uint256"
						}
					],
					"stateMutability": "view",
					"type": "function"
				},
				{
					"inputs": [],
					"name": "owner",
					"outputs": [
						{
							"internalType": "address",
							"name": "",
							"type": "address"
						}
					],
					"stateMutability": "view",
					"type": "function"
				},
				{
					"inputs": [],
					"name": "renounceOwnership",
					"outputs": [],
					"stateMutability": "nonpayable",
					"type": "function"
				},
				{
					"inputs": [],
					"name": "sendToContract",
					"outputs": [],
					"stateMutability": "payable",
					"type": "function"
				},
				{
					"inputs": [
						{
							"internalType": "address",
							"name": "newOwner",
							"type": "address"
						}
					],
					"name": "transferOwnership",
					"outputs": [],
					"stateMutability": "nonpayable",
					"type": "function"
				},
				{
					"inputs": [
						{
							"internalType": "uint256",
							"name": "_amount",
							"type": "uint256"
						}
					],
					"name": "withdraw",
					"outputs": [],
					"stateMutability": "nonpayable",
					"type": "function"
				},
				{
					"stateMutability": "payable",
					"type": "receive"
				}
			],
			"devdoc": {
				"errors": {
					"OwnableInvalidOwner(address)": [
						{
							"details": "The owner is not a valid owner account. (eg. `address(0)`)"
						}
					],
					"OwnableUnauthorizedAccount(address)": [
						{
							"details": "The caller account is not authorized to perform an operation."
						}
					]
				},
				"kind": "dev",
				"methods": {
					"owner()": {
						"details": "Returns the address of the current owner."
					},
					"renounceOwnership()": {
						"details": "Leaves the contract without owner. It will not be possible to call `onlyOwner` functions. Can only be called by the current owner. NOTE: Renouncing ownership will leave the contract without an owner, thereby disabling any functionality that is only available to the owner."
					},
					"transferOwnership(address)": {
						"details": "Transfers ownership of the contract to a new account (`newOwner`). Can only be called by the current owner."
					}
				},
				"version": 1
			},
			"evm": {
				"assembly": "    /* \"Wallet.sol\":1409:2326  contract Wallet is SharedWallet {... */\n  mstore(0x40, 0x80)\n    /* \"Wallet.sol\":1448:1511  constructor(address initialOwner) SharedWallet(initialOwner) {} */\n  callvalue\n  dup1\n  iszero\n  tag_1\n  jumpi\n  0x00\n  dup1\n  revert\ntag_1:\n  pop\n  mload(0x40)\n  sub(codesize, bytecodeSize)\n  dup1\n  bytecodeSize\n  dup4\n  codecopy\n  dup2\n  dup2\n  add\n  0x40\n  mstore\n  dup2\n  add\n  swap1\n  tag_2\n  swap2\n  swap1\n  tag_3\n  jump\t// in\ntag_2:\n    /* \"Wallet.sol\":1495:1507  initialOwner */\n  dup1\n    /* \"/SharedWallet.sol\":257:269  initialOwner */\n  dup1\n    /* \"https://github.com/OpenZeppelin/openzeppelin-contracts/blob/master/contracts/access/Ownable.sol\":1297:1298  0 */\n  0x00\n    /* \"https://github.com/OpenZeppelin/openzeppelin-contracts/blob/master/contracts/access/Ownable.sol\":1273:1299  initialOwner == address(0) */\n  0xffffffffffffffffffffffffffffffffffffffff\n  and\n    /* \"https://github.com/OpenZeppelin/openzeppelin-contracts/blob/master/contracts/access/Ownable.sol\":1273:1285  initialOwner */\n  dup2\n    /* \"https://github.com/OpenZeppelin/openzeppelin-contracts/blob/master/contracts/access/Ownable.sol\":1273:1299  initialOwner == address(0) */\n  0xffffffffffffffffffffffffffffffffffffffff\n  and\n  sub\n    /* \"https://github.com/OpenZeppelin/openzeppelin-contracts/blob/master/contracts/access/Ownable.sol\":1269:1364  if (initialOwner == address(0)) {... */\n  tag_8\n  jumpi\n    /* \"https://github.com/OpenZeppelin/openzeppelin-contracts/blob/master/contracts/access/Ownable.sol\":1350:1351  0 */\n  0x00\n    /* \"https://github.com/OpenZeppelin/openzeppelin-contracts/blob/master/contracts/access/Ownable.sol\":1322:1353  OwnableInvalidOwner(address(0)) */\n  mload(0x40)\n  0x1e4fbdf700000000000000000000000000000000000000000000000000000000\n  dup2\n  mstore\n  0x04\n  add\n  tag_9\n  swap2\n  swap1\n  tag_10\n  jump\t// in\ntag_9:\n  mload(0x40)\n  dup1\n  swap2\n  sub\n  swap1\n  revert\n    /* \"https://github.com/OpenZeppelin/openzeppelin-contracts/blob/master/contracts/access/Ownable.sol\":1269:1364  if (initialOwner == address(0)) {... */\ntag_8:\n    /* \"https://github.com/OpenZeppelin/openzeppelin-contracts/blob/master/contracts/access/Ownable.sol\":1373:1405  _transferOwnership(initialOwner) */\n  tag_11\n    /* \"https://github.com/OpenZeppelin/openzeppelin-contracts/blob/master/contracts/access/Ownable.sol\":1392:1404  initialOwner */\n  dup2\n    /* \"https://github.com/OpenZeppelin/openzeppelin-contracts/blob/master/contracts/access/Ownable.sol\":1373:1391  _transferOwnership */\n  shl(0x20, tag_12)\n    /* \"https://github.com/OpenZeppelin/openzeppelin-contracts/blob/master/contracts/access/Ownable.sol\":1373:1405  _transferOwnership(initialOwner) */\n  0x20\n  shr\n  jump\t// in\ntag_11:\n    /* \"https://github.com/OpenZeppelin/openzeppelin-contracts/blob/master/contracts/access/Ownable.sol\":1225:1412  constructor(address initialOwner) {... */\n  pop\n    /* \"/SharedWallet.sol\":215:279  constructor(address initialOwner) Ownable(initialOwner) {... */\n  pop\n    /* \"Wallet.sol\":1448:1511  constructor(address initialOwner) SharedWallet(initialOwner) {} */\n  pop\n    /* \"Wallet.sol\":1409:2326  contract Wallet is SharedWallet {... */\n  jump(tag_15)\n    /* \"https://github.com/OpenZeppelin/openzeppelin-contracts/blob/master/contracts/access/Ownable.sol\":2912:3099  function _transferOwnership(address newOwner) internal virtual {... */\ntag_12:\n    /* \"https://github.com/OpenZeppelin/openzeppelin-contracts/blob/master/contracts/access/Ownable.sol\":2985:3001  address oldOwner */\n  0x00\n    /* \"https://github.com/OpenZeppelin/openzeppelin-contracts/blob/master/contracts/access/Ownable.sol\":3004:3010  _owner */\n  dup1\n  0x00\n  swap1\n  sload\n  swap1\n  0x0100\n  exp\n  swap1\n  div\n  0xffffffffffffffffffffffffffffffffffffffff\n  and\n    /* \"https://github.com/OpenZeppelin/openzeppelin-contracts/blob/master/contracts/access/Ownable.sol\":2985:3010  address oldOwner = _owner */\n  swap1\n  pop\n    /* \"https://github.com/OpenZeppelin/openzeppelin-contracts/blob/master/contracts/access/Ownable.sol\":3029:3037  newOwner */\n  dup2\n    /* \"https://github.com/OpenZeppelin/openzeppelin-contracts/blob/master/contracts/access/Ownable.sol\":3020:3026  _owner */\n  0x00\n  dup1\n    /* \"https://github.com/OpenZeppelin/openzeppelin-contracts/blob/master/contracts/access/Ownable.sol\":3020:3037  _owner = newOwner */\n  0x0100\n  exp\n  dup2\n  sload\n  dup2\n  0xffffffffffffffffffffffffffffffffffffffff\n  mul\n  not\n  and\n  swap1\n  dup4\n  0xffffffffffffffffffffffffffffffffffffffff\n  and\n  mul\n  or\n  swap1\n  sstore\n  pop\n    /* \"https://github.com/OpenZeppelin/openzeppelin-contracts/blob/master/contracts/access/Ownable.sol\":3083:3091  newOwner */\n  dup2\n    /* \"https://github.com/OpenZeppelin/openzeppelin-contracts/blob/master/contracts/access/Ownable.sol\":3052:3092  OwnershipTransferred(oldOwner, newOwner) */\n  0xffffffffffffffffffffffffffffffffffffffff\n  and\n    /* \"https://github.com/OpenZeppelin/openzeppelin-contracts/blob/master/contracts/access/Ownable.sol\":3073:3081  oldOwner */\n  dup2\n    /* \"https://github.com/OpenZeppelin/openzeppelin-contracts/blob/master/contracts/access/Ownable.sol\":3052:3092  OwnershipTransferred(oldOwner, newOwner) */\n  0xffffffffffffffffffffffffffffffffffffffff\n  and\n  0x8be0079c531659141344cd1fd0a4f28419497f9722a3daafe3b4186f6b6457e0\n  mload(0x40)\n  mload(0x40)\n  dup1\n  swap2\n  sub\n  swap1\n  log3\n    /* \"https://github.com/OpenZeppelin/openzeppelin-contracts/blob/master/contracts/access/Ownable.sol\":2975:3099  {... */\n  pop\n    /* \"https://github.com/OpenZeppelin/openzeppelin-contracts/blob/master/contracts/access/Ownable.sol\":2912:3099  function _transferOwnership(address newOwner) internal virtual {... */\n  pop\n  jump\t// out\n    /* \"#utility.yul\":88:205   */\ntag_18:\n    /* \"#utility.yul\":197:198   */\n  0x00\n    /* \"#utility.yul\":194:195   */\n  dup1\n    /* \"#utility.yul\":187:199   */\n  revert\n    /* \"#utility.yul\":334:460   */\ntag_20:\n    /* \"#utility.yul\":371:378   */\n  0x00\n    /* \"#utility.yul\":411:453   */\n  0xffffffffffffffffffffffffffffffffffffffff\n    /* \"#utility.yul\":404:409   */\n  dup3\n    /* \"#utility.yul\":400:454   */\n  and\n    /* \"#utility.yul\":389:454   */\n  swap1\n  pop\n    /* \"#utility.yul\":334:460   */\n  swap2\n  swap1\n  pop\n  jump\t// out\n    /* \"#utility.yul\":466:562   */\ntag_21:\n    /* \"#utility.yul\":503:510   */\n  0x00\n    /* \"#utility.yul\":532:556   */\n  tag_31\n    /* \"#utility.yul\":550:555   */\n  dup3\n    /* \"#utility.yul\":532:556   */\n  tag_20\n  jump\t// in\ntag_31:\n    /* \"#utility.yul\":521:556   */\n  swap1\n  pop\n    /* \"#utility.yul\":466:562   */\n  swap2\n  swap1\n  pop\n  jump\t// out\n    /* \"#utility.yul\":568:690   */\ntag_22:\n    /* \"#utility.yul\":641:665   */\n  tag_33\n    /* \"#utility.yul\":659:664   */\n  dup2\n    /* \"#utility.yul\":641:665   */\n  tag_21\n  jump\t// in\ntag_33:\n    /* \"#utility.yul\":634:639   */\n  dup2\n    /* \"#utility.yul\":631:666   */\n  eq\n    /* \"#utility.yul\":621:684   */\n  tag_34\n  jumpi\n    /* \"#utility.yul\":680:681   */\n  0x00\n    /* \"#utility.yul\":677:678   */\n  dup1\n    /* \"#utility.yul\":670:682   */\n  revert\n    /* \"#utility.yul\":621:684   */\ntag_34:\n    /* \"#utility.yul\":568:690   */\n  pop\n  jump\t// out\n    /* \"#utility.yul\":696:839   */\ntag_23:\n    /* \"#utility.yul\":753:758   */\n  0x00\n    /* \"#utility.yul\":784:790   */\n  dup2\n    /* \"#utility.yul\":778:791   */\n  mload\n    /* \"#utility.yul\":769:791   */\n  swap1\n  pop\n    /* \"#utility.yul\":800:833   */\n  tag_36\n    /* \"#utility.yul\":827:832   */\n  dup2\n    /* \"#utility.yul\":800:833   */\n  tag_22\n  jump\t// in\ntag_36:\n    /* \"#utility.yul\":696:839   */\n  swap3\n  swap2\n  pop\n  pop\n  jump\t// out\n    /* \"#utility.yul\":845:1196   */\ntag_3:\n    /* \"#utility.yul\":915:921   */\n  0x00\n    /* \"#utility.yul\":964:966   */\n  0x20\n    /* \"#utility.yul\":952:961   */\n  dup3\n    /* \"#utility.yul\":943:950   */\n  dup5\n    /* \"#utility.yul\":939:962   */\n  sub\n    /* \"#utility.yul\":935:967   */\n  slt\n    /* \"#utility.yul\":932:1051   */\n  iszero\n  tag_38\n  jumpi\n    /* \"#utility.yul\":970:1049   */\n  tag_39\n  tag_18\n  jump\t// in\ntag_39:\n    /* \"#utility.yul\":932:1051   */\ntag_38:\n    /* \"#utility.yul\":1090:1091   */\n  0x00\n    /* \"#utility.yul\":1115:1179   */\n  tag_40\n    /* \"#utility.yul\":1171:1178   */\n  dup5\n    /* \"#utility.yul\":1162:1168   */\n  dup3\n    /* \"#utility.yul\":1151:1160   */\n  dup6\n    /* \"#utility.yul\":1147:1169   */\n  add\n    /* \"#utility.yul\":1115:1179   */\n  tag_23\n  jump\t// in\ntag_40:\n    /* \"#utility.yul\":1105:1179   */\n  swap2\n  pop\n    /* \"#utility.yul\":1061:1189   */\n  pop\n    /* \"#utility.yul\":845:1196   */\n  swap3\n  swap2\n  pop\n  pop\n  jump\t// out\n    /* \"#utility.yul\":1202:1320   */\ntag_24:\n    /* \"#utility.yul\":1289:1313   */\n  tag_42\n    /* \"#utility.yul\":1307:1312   */\n  dup2\n    /* \"#utility.yul\":1289:1313   */\n  tag_21\n  jump\t// in\ntag_42:\n    /* \"#utility.yul\":1284:1287   */\n  dup3\n    /* \"#utility.yul\":1277:1314   */\n  mstore\n    /* \"#utility.yul\":1202:1320   */\n  pop\n  pop\n  jump\t// out\n    /* \"#utility.yul\":1326:1548   */\ntag_10:\n    /* \"#utility.yul\":1419:1423   */\n  0x00\n    /* \"#utility.yul\":1457:1459   */\n  0x20\n    /* \"#utility.yul\":1446:1455   */\n  dup3\n    /* \"#utility.yul\":1442:1460   */\n  add\n    /* \"#utility.yul\":1434:1460   */\n  swap1\n  pop\n    /* \"#utility.yul\":1470:1541   */\n  tag_44\n    /* \"#utility.yul\":1538:1539   */\n  0x00\n    /* \"#utility.yul\":1527:1536   */\n  dup4\n    /* \"#utility.yul\":1523:1540   */\n  add\n    /* \"#utility.yul\":1514:1520   */\n  dup5\n    /* \"#utility.yul\":1470:1541   */\n  tag_24\n  jump\t// in\ntag_44:\n    /* \"#utility.yul\":1326:1548   */\n  swap3\n  swap2\n  pop\n  pop\n  jump\t// out\n    /* \"Wallet.sol\":1409:2326  contract Wallet is SharedWallet {... */\ntag_15:\n  dataSize(sub_0)\n  dup1\n  dataOffset(sub_0)\n  0x00\n  codecopy\n  0x00\n  return\nstop\n\nsub_0: assembly {\n        /* \"Wallet.sol\":1409:2326  contract Wallet is SharedWallet {... */\n      mstore(0x40, 0x80)\n      jumpi(tag_1, lt(calldatasize, 0x04))\n      shr(0xe0, calldataload(0x00))\n      dup1\n      0x715018a6\n      gt\n      tag_11\n      jumpi\n      dup1\n      0x715018a6\n      eq\n      tag_7\n      jumpi\n      dup1\n      0x8da5cb5b\n      eq\n      tag_8\n      jumpi\n      dup1\n      0x8e9a4bcc\n      eq\n      tag_9\n      jumpi\n      dup1\n      0xf2fde38b\n      eq\n      tag_10\n      jumpi\n      jump(tag_2)\n    tag_11:\n      dup1\n      0x08ae4b0c\n      eq\n      tag_3\n      jumpi\n      dup1\n      0x0a4c137c\n      eq\n      tag_4\n      jumpi\n      dup1\n      0x12065fe0\n      eq\n      tag_5\n      jumpi\n      dup1\n      0x2e1a7d4d\n      eq\n      tag_6\n      jumpi\n      jump(tag_2)\n    tag_1:\n      jumpi(tag_2, calldatasize)\n        /* \"Wallet.sol\":2055:2067  _msgSender() */\n      tag_14\n        /* \"Wallet.sol\":2055:2065  _msgSender */\n      tag_15\n        /* \"Wallet.sol\":2055:2067  _msgSender() */\n      jump\t// in\n    tag_14:\n        /* \"Wallet.sol\":2041:2079  MoneyReceived(_msgSender(), msg.value) */\n      0xffffffffffffffffffffffffffffffffffffffff\n      and\n      0x27b15ed4cf832749ed39f33a64e4707ed60a761485e41ffec7343ecaddc0c02a\n        /* \"Wallet.sol\":2069:2078  msg.value */\n      callvalue\n        /* \"Wallet.sol\":2041:2079  MoneyReceived(_msgSender(), msg.value) */\n      mload(0x40)\n      tag_16\n      swap2\n      swap1\n      tag_17\n      jump\t// in\n    tag_16:\n      mload(0x40)\n      dup1\n      swap2\n      sub\n      swap1\n      log2\n        /* \"Wallet.sol\":1409:2326  contract Wallet is SharedWallet {... */\n      stop\n    tag_2:\n      stop\n        /* \"/SharedWallet.sol\":285:324  mapping(address => uint) public members */\n    tag_3:\n      callvalue\n      dup1\n      iszero\n      tag_20\n      jumpi\n      0x00\n      dup1\n      revert\n    tag_20:\n      pop\n      tag_21\n      0x04\n      dup1\n      calldatasize\n      sub\n      dup2\n      add\n      swap1\n      tag_22\n      swap2\n      swap1\n      tag_23\n      jump\t// in\n    tag_22:\n      tag_24\n      jump\t// in\n    tag_21:\n      mload(0x40)\n      tag_25\n      swap2\n      swap1\n      tag_17\n      jump\t// in\n    tag_25:\n      mload(0x40)\n      dup1\n      swap2\n      sub\n      swap1\n      return\n        /* \"Wallet.sol\":2088:2276  function sendToContract() public payable {... */\n    tag_4:\n      tag_26\n      tag_27\n      jump\t// in\n    tag_26:\n      stop\n        /* \"Wallet.sol\":1644:1738  function getBalance() public view returns(uint){... */\n    tag_5:\n      callvalue\n      dup1\n      iszero\n      tag_28\n      jumpi\n      0x00\n      dup1\n      revert\n    tag_28:\n      pop\n      tag_29\n      tag_30\n      jump\t// in\n    tag_29:\n      mload(0x40)\n      tag_31\n      swap2\n      swap1\n      tag_17\n      jump\t// in\n    tag_31:\n      mload(0x40)\n      dup1\n      swap2\n      sub\n      swap1\n      return\n        /* \"Wallet.sol\":1746:2001  function withdraw(uint _amount) external ownerOrWithinLimits(_amount) {... */\n    tag_6:\n      callvalue\n      dup1\n      iszero\n      tag_32\n      jumpi\n      0x00\n      dup1\n      revert\n    tag_32:\n      pop\n      tag_33\n      0x04\n      dup1\n      calldatasize\n      sub\n      dup2\n      add\n      swap1\n      tag_34\n      swap2\n      swap1\n      tag_35\n      jump\t// in\n    tag_34:\n      tag_36\n      jump\t// in\n    tag_33:\n      stop\n        /* \"https://github.com/OpenZeppelin/openzeppelin-contracts/blob/master/contracts/access/Ownable.sol\":2293:2394  function renounceOwnership() public virtual onlyOwner {... */\n    tag_7:\n      callvalue\n      dup1\n      iszero\n      tag_37\n      jumpi\n      0x00\n      dup1\n      revert\n    tag_37:\n      pop\n      tag_38\n      tag_39\n      jump\t// in\n    tag_38:\n      stop\n        /* \"https://github.com/OpenZeppelin/openzeppelin-contracts/blob/master/contracts/access/Ownable.sol\":1638:1723  function owner() public view virtual returns (address) {... */\n    tag_8:\n      callvalue\n      dup1\n      iszero\n      tag_40\n      jumpi\n      0x00\n      dup1\n      revert\n    tag_40:\n      pop\n      tag_41\n      tag_42\n      jump\t// in\n    tag_41:\n      mload(0x40)\n      tag_43\n      swap2\n      swap1\n      tag_44\n      jump\t// in\n    tag_43:\n      mload(0x40)\n      dup1\n      swap2\n      sub\n      swap1\n      return\n        /* \"/SharedWallet.sol\":587:690  function addLimit(address _member, uint _limit ) external  {... */\n    tag_9:\n      callvalue\n      dup1\n      iszero\n      tag_45\n      jumpi\n      0x00\n      dup1\n      revert\n    tag_45:\n      pop\n      tag_46\n      0x04\n      dup1\n      calldatasize\n      sub\n      dup2\n      add\n      swap1\n      tag_47\n      swap2\n      swap1\n      tag_48\n      jump\t// in\n    tag_47:\n      tag_49\n      jump\t// in\n    tag_46:\n      stop\n        /* \"https://github.com/OpenZeppelin/openzeppelin-contracts/blob/master/contracts/access/Ownable.sol\":2543:2758  function transferOwnership(address newOwner) public virtual onlyOwner {... */\n    tag_10:\n      callvalue\n      dup1\n      iszero\n      tag_50\n      jumpi\n      0x00\n      dup1\n      revert\n    tag_50:\n      pop\n      tag_51\n      0x04\n      dup1\n      calldatasize\n      sub\n      dup2\n      add\n      swap1\n      tag_52\n      swap2\n      swap1\n      tag_23\n      jump\t// in\n    tag_52:\n      tag_53\n      jump\t// in\n    tag_51:\n      stop\n        /* \"https://github.com/OpenZeppelin/openzeppelin-contracts/blob/master/contracts/utils/Context.sol\":656:752  function _msgSender() internal view virtual returns (address) {... */\n    tag_15:\n        /* \"https://github.com/OpenZeppelin/openzeppelin-contracts/blob/master/contracts/utils/Context.sol\":709:716  address */\n      0x00\n        /* \"https://github.com/OpenZeppelin/openzeppelin-contracts/blob/master/contracts/utils/Context.sol\":735:745  msg.sender */\n      caller\n        /* \"https://github.com/OpenZeppelin/openzeppelin-contracts/blob/master/contracts/utils/Context.sol\":728:745  return msg.sender */\n      swap1\n      pop\n        /* \"https://github.com/OpenZeppelin/openzeppelin-contracts/blob/master/contracts/utils/Context.sol\":656:752  function _msgSender() internal view virtual returns (address) {... */\n      swap1\n      jump\t// out\n        /* \"/SharedWallet.sol\":285:324  mapping(address => uint) public members */\n    tag_24:\n      mstore(0x20, 0x01)\n      dup1\n      0x00\n      mstore\n      keccak256(0x00, 0x40)\n      0x00\n      swap2\n      pop\n      swap1\n      pop\n      sload\n      dup2\n      jump\t// out\n        /* \"Wallet.sol\":2088:2276  function sendToContract() public payable {... */\n    tag_27:\n        /* \"Wallet.sol\":2136:2155  address payable _to */\n      0x00\n        /* \"Wallet.sol\":2166:2170  this */\n      address\n        /* \"Wallet.sol\":2136:2171  address payable _to = payable(this) */\n      swap1\n      pop\n        /* \"Wallet.sol\":2178:2181  _to */\n      dup1\n        /* \"Wallet.sol\":2178:2190  _to.transfer */\n      0xffffffffffffffffffffffffffffffffffffffff\n      and\n        /* \"Wallet.sol\":2178:2201  _to.transfer(msg.value) */\n      0x08fc\n        /* \"Wallet.sol\":2191:2200  msg.value */\n      callvalue\n        /* \"Wallet.sol\":2178:2201  _to.transfer(msg.value) */\n      swap1\n      dup2\n      iszero\n      mul\n      swap1\n      mload(0x40)\n      0x00\n      mload(0x40)\n      dup1\n      dup4\n      sub\n      dup2\n      dup6\n      dup9\n      dup9\n      call\n      swap4\n      pop\n      pop\n      pop\n      pop\n      iszero\n      dup1\n      iszero\n      tag_57\n      jumpi\n      returndatasize\n      0x00\n      dup1\n      returndatacopy\n      revert(0x00, returndatasize)\n    tag_57:\n      pop\n        /* \"Wallet.sol\":2237:2249  _msgSender() */\n      tag_58\n        /* \"Wallet.sol\":2237:2247  _msgSender */\n      tag_15\n        /* \"Wallet.sol\":2237:2249  _msgSender() */\n      jump\t// in\n    tag_58:\n        /* \"Wallet.sol\":2223:2261  MoneyReceived(_msgSender(), msg.value) */\n      0xffffffffffffffffffffffffffffffffffffffff\n      and\n      0x27b15ed4cf832749ed39f33a64e4707ed60a761485e41ffec7343ecaddc0c02a\n        /* \"Wallet.sol\":2251:2260  msg.value */\n      callvalue\n        /* \"Wallet.sol\":2223:2261  MoneyReceived(_msgSender(), msg.value) */\n      mload(0x40)\n      tag_59\n      swap2\n      swap1\n      tag_17\n      jump\t// in\n    tag_59:\n      mload(0x40)\n      dup1\n      swap2\n      sub\n      swap1\n      log2\n        /* \"Wallet.sol\":2129:2276  {... */\n      pop\n        /* \"Wallet.sol\":2088:2276  function sendToContract() public payable {... */\n      jump\t// out\n        /* \"Wallet.sol\":1644:1738  function getBalance() public view returns(uint){... */\n    tag_30:\n        /* \"Wallet.sol\":1686:1690  uint */\n      0x00\n        /* \"Wallet.sol\":1709:1730  address(this).balance */\n      selfbalance\n        /* \"Wallet.sol\":1702:1730  return address(this).balance */\n      swap1\n      pop\n        /* \"Wallet.sol\":1644:1738  function getBalance() public view returns(uint){... */\n      swap1\n      jump\t// out\n        /* \"Wallet.sol\":1746:2001  function withdraw(uint _amount) external ownerOrWithinLimits(_amount) {... */\n    tag_36:\n        /* \"Wallet.sol\":1807:1814  _amount */\n      dup1\n        /* \"/SharedWallet.sol\":395:404  isOwner() */\n      tag_62\n        /* \"/SharedWallet.sol\":395:402  isOwner */\n      tag_63\n        /* \"/SharedWallet.sol\":395:404  isOwner() */\n      jump\t// in\n    tag_62:\n        /* \"/SharedWallet.sol\":395:438  isOwner() || members[msg.sender] >= _amount */\n      dup1\n      tag_64\n      jumpi\n      pop\n        /* \"/SharedWallet.sol\":431:438  _amount */\n      dup1\n        /* \"/SharedWallet.sol\":408:415  members */\n      0x01\n        /* \"/SharedWallet.sol\":408:427  members[msg.sender] */\n      0x00\n        /* \"/SharedWallet.sol\":416:426  msg.sender */\n      caller\n        /* \"/SharedWallet.sol\":408:427  members[msg.sender] */\n      0xffffffffffffffffffffffffffffffffffffffff\n      and\n      0xffffffffffffffffffffffffffffffffffffffff\n      and\n      dup2\n      mstore\n      0x20\n      add\n      swap1\n      dup2\n      mstore\n      0x20\n      add\n      0x00\n      keccak256\n      sload\n        /* \"/SharedWallet.sol\":408:438  members[msg.sender] >= _amount */\n      lt\n      iszero\n        /* \"/SharedWallet.sol\":395:438  isOwner() || members[msg.sender] >= _amount */\n    tag_64:\n        /* \"/SharedWallet.sol\":387:454  require(isOwner() || members[msg.sender] >= _amount, \"not allowed\") */\n      tag_65\n      jumpi\n      mload(0x40)\n      0x08c379a000000000000000000000000000000000000000000000000000000000\n      dup2\n      mstore\n      0x04\n      add\n      tag_66\n      swap1\n      tag_67\n      jump\t// in\n    tag_66:\n      mload(0x40)\n      dup1\n      swap2\n      sub\n      swap1\n      revert\n    tag_65:\n        /* \"Wallet.sol\":1846:1858  getBalance() */\n      tag_69\n        /* \"Wallet.sol\":1846:1856  getBalance */\n      tag_30\n        /* \"Wallet.sol\":1846:1858  getBalance() */\n      jump\t// in\n    tag_69:\n        /* \"Wallet.sol\":1835:1842  _amount */\n      dup3\n        /* \"Wallet.sol\":1835:1858  _amount <= getBalance() */\n      gt\n      iszero\n        /* \"Wallet.sol\":1827:1881  require(_amount <= getBalance(), \"not enoth currency\") */\n      tag_70\n      jumpi\n      mload(0x40)\n      0x08c379a000000000000000000000000000000000000000000000000000000000\n      dup2\n      mstore\n      0x04\n      add\n      tag_71\n      swap1\n      tag_72\n      jump\t// in\n    tag_71:\n      mload(0x40)\n      dup1\n      swap2\n      sub\n      swap1\n      revert\n    tag_70:\n        /* \"Wallet.sol\":1896:1905  isOwner() */\n      tag_73\n        /* \"Wallet.sol\":1896:1903  isOwner */\n      tag_63\n        /* \"Wallet.sol\":1896:1905  isOwner() */\n      jump\t// in\n    tag_73:\n        /* \"Wallet.sol\":1892:1946  if(!isOwner()) {deduceFromLimit(msg.sender, _amount);} */\n      tag_74\n      jumpi\n        /* \"Wallet.sol\":1908:1944  deduceFromLimit(msg.sender, _amount) */\n      tag_75\n        /* \"Wallet.sol\":1924:1934  msg.sender */\n      caller\n        /* \"Wallet.sol\":1936:1943  _amount */\n      dup4\n        /* \"Wallet.sol\":1908:1923  deduceFromLimit */\n      tag_76\n        /* \"Wallet.sol\":1908:1944  deduceFromLimit(msg.sender, _amount) */\n      jump\t// in\n    tag_75:\n        /* \"Wallet.sol\":1892:1946  if(!isOwner()) {deduceFromLimit(msg.sender, _amount);} */\n    tag_74:\n        /* \"Wallet.sol\":1964:1974  msg.sender */\n      caller\n        /* \"Wallet.sol\":1956:1984  payable(msg.sender).transfer */\n      0xffffffffffffffffffffffffffffffffffffffff\n      and\n        /* \"Wallet.sol\":1956:1993  payable(msg.sender).transfer(_amount) */\n      0x08fc\n        /* \"Wallet.sol\":1985:1992  _amount */\n      dup4\n        /* \"Wallet.sol\":1956:1993  payable(msg.sender).transfer(_amount) */\n      swap1\n      dup2\n      iszero\n      mul\n      swap1\n      mload(0x40)\n      0x00\n      mload(0x40)\n      dup1\n      dup4\n      sub\n      dup2\n      dup6\n      dup9\n      dup9\n      call\n      swap4\n      pop\n      pop\n      pop\n      pop\n      iszero\n      dup1\n      iszero\n      tag_78\n      jumpi\n      returndatasize\n      0x00\n      dup1\n      returndatacopy\n      revert(0x00, returndatasize)\n    tag_78:\n      pop\n        /* \"Wallet.sol\":1746:2001  function withdraw(uint _amount) external ownerOrWithinLimits(_amount) {... */\n      pop\n      pop\n      jump\t// out\n        /* \"https://github.com/OpenZeppelin/openzeppelin-contracts/blob/master/contracts/access/Ownable.sol\":2293:2394  function renounceOwnership() public virtual onlyOwner {... */\n    tag_39:\n        /* \"https://github.com/OpenZeppelin/openzeppelin-contracts/blob/master/contracts/access/Ownable.sol\":1531:1544  _checkOwner() */\n      tag_80\n        /* \"https://github.com/OpenZeppelin/openzeppelin-contracts/blob/master/contracts/access/Ownable.sol\":1531:1542  _checkOwner */\n      tag_81\n        /* \"https://github.com/OpenZeppelin/openzeppelin-contracts/blob/master/contracts/access/Ownable.sol\":1531:1544  _checkOwner() */\n      jump\t// in\n    tag_80:\n        /* \"https://github.com/OpenZeppelin/openzeppelin-contracts/blob/master/contracts/access/Ownable.sol\":2357:2387  _transferOwnership(address(0)) */\n      tag_83\n        /* \"https://github.com/OpenZeppelin/openzeppelin-contracts/blob/master/contracts/access/Ownable.sol\":2384:2385  0 */\n      0x00\n        /* \"https://github.com/OpenZeppelin/openzeppelin-contracts/blob/master/contracts/access/Ownable.sol\":2357:2375  _transferOwnership */\n      tag_84\n        /* \"https://github.com/OpenZeppelin/openzeppelin-contracts/blob/master/contracts/access/Ownable.sol\":2357:2387  _transferOwnership(address(0)) */\n      jump\t// in\n    tag_83:\n        /* \"https://github.com/OpenZeppelin/openzeppelin-contracts/blob/master/contracts/access/Ownable.sol\":2293:2394  function renounceOwnership() public virtual onlyOwner {... */\n      jump\t// out\n        /* \"https://github.com/OpenZeppelin/openzeppelin-contracts/blob/master/contracts/access/Ownable.sol\":1638:1723  function owner() public view virtual returns (address) {... */\n    tag_42:\n        /* \"https://github.com/OpenZeppelin/openzeppelin-contracts/blob/master/contracts/access/Ownable.sol\":1684:1691  address */\n      0x00\n        /* \"https://github.com/OpenZeppelin/openzeppelin-contracts/blob/master/contracts/access/Ownable.sol\":1710:1716  _owner */\n      dup1\n      0x00\n      swap1\n      sload\n      swap1\n      0x0100\n      exp\n      swap1\n      div\n      0xffffffffffffffffffffffffffffffffffffffff\n      and\n        /* \"https://github.com/OpenZeppelin/openzeppelin-contracts/blob/master/contracts/access/Ownable.sol\":1703:1716  return _owner */\n      swap1\n      pop\n        /* \"https://github.com/OpenZeppelin/openzeppelin-contracts/blob/master/contracts/access/Ownable.sol\":1638:1723  function owner() public view virtual returns (address) {... */\n      swap1\n      jump\t// out\n        /* \"/SharedWallet.sol\":587:690  function addLimit(address _member, uint _limit ) external  {... */\n    tag_49:\n        /* \"/SharedWallet.sol\":676:682  _limit */\n      dup1\n        /* \"/SharedWallet.sol\":657:664  members */\n      0x01\n        /* \"/SharedWallet.sol\":657:673  members[_member] */\n      0x00\n        /* \"/SharedWallet.sol\":665:672  _member */\n      dup5\n        /* \"/SharedWallet.sol\":657:673  members[_member] */\n      0xffffffffffffffffffffffffffffffffffffffff\n      and\n      0xffffffffffffffffffffffffffffffffffffffff\n      and\n      dup2\n      mstore\n      0x20\n      add\n      swap1\n      dup2\n      mstore\n      0x20\n      add\n      0x00\n      keccak256\n        /* \"/SharedWallet.sol\":657:682  members[_member] = _limit */\n      dup2\n      swap1\n      sstore\n      pop\n        /* \"/SharedWallet.sol\":587:690  function addLimit(address _member, uint _limit ) external  {... */\n      pop\n      pop\n      jump\t// out\n        /* \"https://github.com/OpenZeppelin/openzeppelin-contracts/blob/master/contracts/access/Ownable.sol\":2543:2758  function transferOwnership(address newOwner) public virtual onlyOwner {... */\n    tag_53:\n        /* \"https://github.com/OpenZeppelin/openzeppelin-contracts/blob/master/contracts/access/Ownable.sol\":1531:1544  _checkOwner() */\n      tag_88\n        /* \"https://github.com/OpenZeppelin/openzeppelin-contracts/blob/master/contracts/access/Ownable.sol\":1531:1542  _checkOwner */\n      tag_81\n        /* \"https://github.com/OpenZeppelin/openzeppelin-contracts/blob/master/contracts/access/Ownable.sol\":1531:1544  _checkOwner() */\n      jump\t// in\n    tag_88:\n        /* \"https://github.com/OpenZeppelin/openzeppelin-contracts/blob/master/contracts/access/Ownable.sol\":2647:2648  0 */\n      0x00\n        /* \"https://github.com/OpenZeppelin/openzeppelin-contracts/blob/master/contracts/access/Ownable.sol\":2627:2649  newOwner == address(0) */\n      0xffffffffffffffffffffffffffffffffffffffff\n      and\n        /* \"https://github.com/OpenZeppelin/openzeppelin-contracts/blob/master/contracts/access/Ownable.sol\":2627:2635  newOwner */\n      dup2\n        /* \"https://github.com/OpenZeppelin/openzeppelin-contracts/blob/master/contracts/access/Ownable.sol\":2627:2649  newOwner == address(0) */\n      0xffffffffffffffffffffffffffffffffffffffff\n      and\n      sub\n        /* \"https://github.com/OpenZeppelin/openzeppelin-contracts/blob/master/contracts/access/Ownable.sol\":2623:2714  if (newOwner == address(0)) {... */\n      tag_90\n      jumpi\n        /* \"https://github.com/OpenZeppelin/openzeppelin-contracts/blob/master/contracts/access/Ownable.sol\":2700:2701  0 */\n      0x00\n        /* \"https://github.com/OpenZeppelin/openzeppelin-contracts/blob/master/contracts/access/Ownable.sol\":2672:2703  OwnableInvalidOwner(address(0)) */\n      mload(0x40)\n      0x1e4fbdf700000000000000000000000000000000000000000000000000000000\n      dup2\n      mstore\n      0x04\n      add\n      tag_91\n      swap2\n      swap1\n      tag_44\n      jump\t// in\n    tag_91:\n      mload(0x40)\n      dup1\n      swap2\n      sub\n      swap1\n      revert\n        /* \"https://github.com/OpenZeppelin/openzeppelin-contracts/blob/master/contracts/access/Ownable.sol\":2623:2714  if (newOwner == address(0)) {... */\n    tag_90:\n        /* \"https://github.com/OpenZeppelin/openzeppelin-contracts/blob/master/contracts/access/Ownable.sol\":2723:2751  _transferOwnership(newOwner) */\n      tag_92\n        /* \"https://github.com/OpenZeppelin/openzeppelin-contracts/blob/master/contracts/access/Ownable.sol\":2742:2750  newOwner */\n      dup2\n        /* \"https://github.com/OpenZeppelin/openzeppelin-contracts/blob/master/contracts/access/Ownable.sol\":2723:2741  _transferOwnership */\n      tag_84\n        /* \"https://github.com/OpenZeppelin/openzeppelin-contracts/blob/master/contracts/access/Ownable.sol\":2723:2751  _transferOwnership(newOwner) */\n      jump\t// in\n    tag_92:\n        /* \"https://github.com/OpenZeppelin/openzeppelin-contracts/blob/master/contracts/access/Ownable.sol\":2543:2758  function transferOwnership(address newOwner) public virtual onlyOwner {... */\n      pop\n      jump\t// out\n        /* \"/SharedWallet.sol\":484:579  function isOwner() internal view returns (bool) {... */\n    tag_63:\n        /* \"/SharedWallet.sol\":526:530  bool */\n      0x00\n        /* \"/SharedWallet.sol\":561:571  msg.sender */\n      caller\n        /* \"/SharedWallet.sol\":550:571  owner() == msg.sender */\n      0xffffffffffffffffffffffffffffffffffffffff\n      and\n        /* \"/SharedWallet.sol\":550:557  owner() */\n      tag_94\n        /* \"/SharedWallet.sol\":550:555  owner */\n      tag_42\n        /* \"/SharedWallet.sol\":550:557  owner() */\n      jump\t// in\n    tag_94:\n        /* \"/SharedWallet.sol\":550:571  owner() == msg.sender */\n      0xffffffffffffffffffffffffffffffffffffffff\n      and\n      eq\n        /* \"/SharedWallet.sol\":543:571  return owner() == msg.sender */\n      swap1\n      pop\n        /* \"/SharedWallet.sol\":484:579  function isOwner() internal view returns (bool) {... */\n      swap1\n      jump\t// out\n        /* \"/SharedWallet.sol\":698:809  function deduceFromLimit(address _member, uint _amount) internal {... */\n    tag_76:\n        /* \"/SharedWallet.sol\":794:801  _amount */\n      dup1\n        /* \"/SharedWallet.sol\":774:781  members */\n      0x01\n        /* \"/SharedWallet.sol\":774:790  members[_member] */\n      0x00\n        /* \"/SharedWallet.sol\":782:789  _member */\n      dup5\n        /* \"/SharedWallet.sol\":774:790  members[_member] */\n      0xffffffffffffffffffffffffffffffffffffffff\n      and\n      0xffffffffffffffffffffffffffffffffffffffff\n      and\n      dup2\n      mstore\n      0x20\n      add\n      swap1\n      dup2\n      mstore\n      0x20\n      add\n      0x00\n      keccak256\n      0x00\n        /* \"/SharedWallet.sol\":774:801  members[_member] -= _amount */\n      dup3\n      dup3\n      sload\n      tag_96\n      swap2\n      swap1\n      tag_97\n      jump\t// in\n    tag_96:\n      swap3\n      pop\n      pop\n      dup2\n      swap1\n      sstore\n      pop\n        /* \"/SharedWallet.sol\":698:809  function deduceFromLimit(address _member, uint _amount) internal {... */\n      pop\n      pop\n      jump\t// out\n        /* \"https://github.com/OpenZeppelin/openzeppelin-contracts/blob/master/contracts/access/Ownable.sol\":1796:1958  function _checkOwner() internal view virtual {... */\n    tag_81:\n        /* \"https://github.com/OpenZeppelin/openzeppelin-contracts/blob/master/contracts/access/Ownable.sol\":1866:1878  _msgSender() */\n      tag_99\n        /* \"https://github.com/OpenZeppelin/openzeppelin-contracts/blob/master/contracts/access/Ownable.sol\":1866:1876  _msgSender */\n      tag_15\n        /* \"https://github.com/OpenZeppelin/openzeppelin-contracts/blob/master/contracts/access/Ownable.sol\":1866:1878  _msgSender() */\n      jump\t// in\n    tag_99:\n        /* \"https://github.com/OpenZeppelin/openzeppelin-contracts/blob/master/contracts/access/Ownable.sol\":1855:1878  owner() != _msgSender() */\n      0xffffffffffffffffffffffffffffffffffffffff\n      and\n        /* \"https://github.com/OpenZeppelin/openzeppelin-contracts/blob/master/contracts/access/Ownable.sol\":1855:1862  owner() */\n      tag_100\n        /* \"https://github.com/OpenZeppelin/openzeppelin-contracts/blob/master/contracts/access/Ownable.sol\":1855:1860  owner */\n      tag_42\n        /* \"https://github.com/OpenZeppelin/openzeppelin-contracts/blob/master/contracts/access/Ownable.sol\":1855:1862  owner() */\n      jump\t// in\n    tag_100:\n        /* \"https://github.com/OpenZeppelin/openzeppelin-contracts/blob/master/contracts/access/Ownable.sol\":1855:1878  owner() != _msgSender() */\n      0xffffffffffffffffffffffffffffffffffffffff\n      and\n      eq\n        /* \"https://github.com/OpenZeppelin/openzeppelin-contracts/blob/master/contracts/access/Ownable.sol\":1851:1952  if (owner() != _msgSender()) {... */\n      tag_101\n      jumpi\n        /* \"https://github.com/OpenZeppelin/openzeppelin-contracts/blob/master/contracts/access/Ownable.sol\":1928:1940  _msgSender() */\n      tag_102\n        /* \"https://github.com/OpenZeppelin/openzeppelin-contracts/blob/master/contracts/access/Ownable.sol\":1928:1938  _msgSender */\n      tag_15\n        /* \"https://github.com/OpenZeppelin/openzeppelin-contracts/blob/master/contracts/access/Ownable.sol\":1928:1940  _msgSender() */\n      jump\t// in\n    tag_102:\n        /* \"https://github.com/OpenZeppelin/openzeppelin-contracts/blob/master/contracts/access/Ownable.sol\":1901:1941  OwnableUnauthorizedAccount(_msgSender()) */\n      mload(0x40)\n      0x118cdaa700000000000000000000000000000000000000000000000000000000\n      dup2\n      mstore\n      0x04\n      add\n      tag_103\n      swap2\n      swap1\n      tag_44\n      jump\t// in\n    tag_103:\n      mload(0x40)\n      dup1\n      swap2\n      sub\n      swap1\n      revert\n        /* \"https://github.com/OpenZeppelin/openzeppelin-contracts/blob/master/contracts/access/Ownable.sol\":1851:1952  if (owner() != _msgSender()) {... */\n    tag_101:\n        /* \"https://github.com/OpenZeppelin/openzeppelin-contracts/blob/master/contracts/access/Ownable.sol\":1796:1958  function _checkOwner() internal view virtual {... */\n      jump\t// out\n        /* \"https://github.com/OpenZeppelin/openzeppelin-contracts/blob/master/contracts/access/Ownable.sol\":2912:3099  function _transferOwnership(address newOwner) internal virtual {... */\n    tag_84:\n        /* \"https://github.com/OpenZeppelin/openzeppelin-contracts/blob/master/contracts/access/Ownable.sol\":2985:3001  address oldOwner */\n      0x00\n        /* \"https://github.com/OpenZeppelin/openzeppelin-contracts/blob/master/contracts/access/Ownable.sol\":3004:3010  _owner */\n      dup1\n      0x00\n      swap1\n      sload\n      swap1\n      0x0100\n      exp\n      swap1\n      div\n      0xffffffffffffffffffffffffffffffffffffffff\n      and\n        /* \"https://github.com/OpenZeppelin/openzeppelin-contracts/blob/master/contracts/access/Ownable.sol\":2985:3010  address oldOwner = _owner */\n      swap1\n      pop\n        /* \"https://github.com/OpenZeppelin/openzeppelin-contracts/blob/master/contracts/access/Ownable.sol\":3029:3037  newOwner */\n      dup2\n        /* \"https://github.com/OpenZeppelin/openzeppelin-contracts/blob/master/contracts/access/Ownable.sol\":3020:3026  _owner */\n      0x00\n      dup1\n        /* \"https://github.com/OpenZeppelin/openzeppelin-contracts/blob/master/contracts/access/Ownable.sol\":3020:3037  _owner = newOwner */\n      0x0100\n      exp\n      dup2\n      sload\n      dup2\n      0xffffffffffffffffffffffffffffffffffffffff\n      mul\n      not\n      and\n      swap1\n      dup4\n      0xffffffffffffffffffffffffffffffffffffffff\n      and\n      mul\n      or\n      swap1\n      sstore\n      pop\n        /* \"https://github.com/OpenZeppelin/openzeppelin-contracts/blob/master/contracts/access/Ownable.sol\":3083:3091  newOwner */\n      dup2\n        /* \"https://github.com/OpenZeppelin/openzeppelin-contracts/blob/master/contracts/access/Ownable.sol\":3052:3092  OwnershipTransferred(oldOwner, newOwner) */\n      0xffffffffffffffffffffffffffffffffffffffff\n      and\n        /* \"https://github.com/OpenZeppelin/openzeppelin-contracts/blob/master/contracts/access/Ownable.sol\":3073:3081  oldOwner */\n      dup2\n        /* \"https://github.com/OpenZeppelin/openzeppelin-contracts/blob/master/contracts/access/Ownable.sol\":3052:3092  OwnershipTransferred(oldOwner, newOwner) */\n      0xffffffffffffffffffffffffffffffffffffffff\n      and\n      0x8be0079c531659141344cd1fd0a4f28419497f9722a3daafe3b4186f6b6457e0\n      mload(0x40)\n      mload(0x40)\n      dup1\n      swap2\n      sub\n      swap1\n      log3\n        /* \"https://github.com/OpenZeppelin/openzeppelin-contracts/blob/master/contracts/access/Ownable.sol\":2975:3099  {... */\n      pop\n        /* \"https://github.com/OpenZeppelin/openzeppelin-contracts/blob/master/contracts/access/Ownable.sol\":2912:3099  function _transferOwnership(address newOwner) internal virtual {... */\n      pop\n      jump\t// out\n        /* \"#utility.yul\":7:84   */\n    tag_105:\n        /* \"#utility.yul\":44:51   */\n      0x00\n        /* \"#utility.yul\":73:78   */\n      dup2\n        /* \"#utility.yul\":62:78   */\n      swap1\n      pop\n        /* \"#utility.yul\":7:84   */\n      swap2\n      swap1\n      pop\n      jump\t// out\n        /* \"#utility.yul\":90:208   */\n    tag_106:\n        /* \"#utility.yul\":177:201   */\n      tag_126\n        /* \"#utility.yul\":195:200   */\n      dup2\n        /* \"#utility.yul\":177:201   */\n      tag_105\n      jump\t// in\n    tag_126:\n        /* \"#utility.yul\":172:175   */\n      dup3\n        /* \"#utility.yul\":165:202   */\n      mstore\n        /* \"#utility.yul\":90:208   */\n      pop\n      pop\n      jump\t// out\n        /* \"#utility.yul\":214:436   */\n    tag_17:\n        /* \"#utility.yul\":307:311   */\n      0x00\n        /* \"#utility.yul\":345:347   */\n      0x20\n        /* \"#utility.yul\":334:343   */\n      dup3\n        /* \"#utility.yul\":330:348   */\n      add\n        /* \"#utility.yul\":322:348   */\n      swap1\n      pop\n        /* \"#utility.yul\":358:429   */\n      tag_128\n        /* \"#utility.yul\":426:427   */\n      0x00\n        /* \"#utility.yul\":415:424   */\n      dup4\n        /* \"#utility.yul\":411:428   */\n      add\n        /* \"#utility.yul\":402:408   */\n      dup5\n        /* \"#utility.yul\":358:429   */\n      tag_106\n      jump\t// in\n    tag_128:\n        /* \"#utility.yul\":214:436   */\n      swap3\n      swap2\n      pop\n      pop\n      jump\t// out\n        /* \"#utility.yul\":523:640   */\n    tag_108:\n        /* \"#utility.yul\":632:633   */\n      0x00\n        /* \"#utility.yul\":629:630   */\n      dup1\n        /* \"#utility.yul\":622:634   */\n      revert\n        /* \"#utility.yul\":769:895   */\n    tag_110:\n        /* \"#utility.yul\":806:813   */\n      0x00\n        /* \"#utility.yul\":846:888   */\n      0xffffffffffffffffffffffffffffffffffffffff\n        /* \"#utility.yul\":839:844   */\n      dup3\n        /* \"#utility.yul\":835:889   */\n      and\n        /* \"#utility.yul\":824:889   */\n      swap1\n      pop\n        /* \"#utility.yul\":769:895   */\n      swap2\n      swap1\n      pop\n      jump\t// out\n        /* \"#utility.yul\":901:997   */\n    tag_111:\n        /* \"#utility.yul\":938:945   */\n      0x00\n        /* \"#utility.yul\":967:991   */\n      tag_134\n        /* \"#utility.yul\":985:990   */\n      dup3\n        /* \"#utility.yul\":967:991   */\n      tag_110\n      jump\t// in\n    tag_134:\n        /* \"#utility.yul\":956:991   */\n      swap1\n      pop\n        /* \"#utility.yul\":901:997   */\n      swap2\n      swap1\n      pop\n      jump\t// out\n        /* \"#utility.yul\":1003:1125   */\n    tag_112:\n        /* \"#utility.yul\":1076:1100   */\n      tag_136\n        /* \"#utility.yul\":1094:1099   */\n      dup2\n        /* \"#utility.yul\":1076:1100   */\n      tag_111\n      jump\t// in\n    tag_136:\n        /* \"#utility.yul\":1069:1074   */\n      dup2\n        /* \"#utility.yul\":1066:1101   */\n      eq\n        /* \"#utility.yul\":1056:1119   */\n      tag_137\n      jumpi\n        /* \"#utility.yul\":1115:1116   */\n      0x00\n        /* \"#utility.yul\":1112:1113   */\n      dup1\n        /* \"#utility.yul\":1105:1117   */\n      revert\n        /* \"#utility.yul\":1056:1119   */\n    tag_137:\n        /* \"#utility.yul\":1003:1125   */\n      pop\n      jump\t// out\n        /* \"#utility.yul\":1131:1270   */\n    tag_113:\n        /* \"#utility.yul\":1177:1182   */\n      0x00\n        /* \"#utility.yul\":1215:1221   */\n      dup2\n        /* \"#utility.yul\":1202:1222   */\n      calldataload\n        /* \"#utility.yul\":1193:1222   */\n      swap1\n      pop\n        /* \"#utility.yul\":1231:1264   */\n      tag_139\n        /* \"#utility.yul\":1258:1263   */\n      dup2\n        /* \"#utility.yul\":1231:1264   */\n      tag_112\n      jump\t// in\n    tag_139:\n        /* \"#utility.yul\":1131:1270   */\n      swap3\n      swap2\n      pop\n      pop\n      jump\t// out\n        /* \"#utility.yul\":1276:1605   */\n    tag_23:\n        /* \"#utility.yul\":1335:1341   */\n      0x00\n        /* \"#utility.yul\":1384:1386   */\n      0x20\n        /* \"#utility.yul\":1372:1381   */\n      dup3\n        /* \"#utility.yul\":1363:1370   */\n      dup5\n        /* \"#utility.yul\":1359:1382   */\n      sub\n        /* \"#utility.yul\":1355:1387   */\n      slt\n        /* \"#utility.yul\":1352:1471   */\n      iszero\n      tag_141\n      jumpi\n        /* \"#utility.yul\":1390:1469   */\n      tag_142\n      tag_108\n      jump\t// in\n    tag_142:\n        /* \"#utility.yul\":1352:1471   */\n    tag_141:\n        /* \"#utility.yul\":1510:1511   */\n      0x00\n        /* \"#utility.yul\":1535:1588   */\n      tag_143\n        /* \"#utility.yul\":1580:1587   */\n      dup5\n        /* \"#utility.yul\":1571:1577   */\n      dup3\n        /* \"#utility.yul\":1560:1569   */\n      dup6\n        /* \"#utility.yul\":1556:1578   */\n      add\n        /* \"#utility.yul\":1535:1588   */\n      tag_113\n      jump\t// in\n    tag_143:\n        /* \"#utility.yul\":1525:1588   */\n      swap2\n      pop\n        /* \"#utility.yul\":1481:1598   */\n      pop\n        /* \"#utility.yul\":1276:1605   */\n      swap3\n      swap2\n      pop\n      pop\n      jump\t// out\n        /* \"#utility.yul\":1611:1733   */\n    tag_114:\n        /* \"#utility.yul\":1684:1708   */\n      tag_145\n        /* \"#utility.yul\":1702:1707   */\n      dup2\n        /* \"#utility.yul\":1684:1708   */\n      tag_105\n      jump\t// in\n    tag_145:\n        /* \"#utility.yul\":1677:1682   */\n      dup2\n        /* \"#utility.yul\":1674:1709   */\n      eq\n        /* \"#utility.yul\":1664:1727   */\n      tag_146\n      jumpi\n        /* \"#utility.yul\":1723:1724   */\n      0x00\n        /* \"#utility.yul\":1720:1721   */\n      dup1\n        /* \"#utility.yul\":1713:1725   */\n      revert\n        /* \"#utility.yul\":1664:1727   */\n    tag_146:\n        /* \"#utility.yul\":1611:1733   */\n      pop\n      jump\t// out\n        /* \"#utility.yul\":1739:1878   */\n    tag_115:\n        /* \"#utility.yul\":1785:1790   */\n      0x00\n        /* \"#utility.yul\":1823:1829   */\n      dup2\n        /* \"#utility.yul\":1810:1830   */\n      calldataload\n        /* \"#utility.yul\":1801:1830   */\n      swap1\n      pop\n        /* \"#utility.yul\":1839:1872   */\n      tag_148\n        /* \"#utility.yul\":1866:1871   */\n      dup2\n        /* \"#utility.yul\":1839:1872   */\n      tag_114\n      jump\t// in\n    tag_148:\n        /* \"#utility.yul\":1739:1878   */\n      swap3\n      swap2\n      pop\n      pop\n      jump\t// out\n        /* \"#utility.yul\":1884:2213   */\n    tag_35:\n        /* \"#utility.yul\":1943:1949   */\n      0x00\n        /* \"#utility.yul\":1992:1994   */\n      0x20\n        /* \"#utility.yul\":1980:1989   */\n      dup3\n        /* \"#utility.yul\":1971:1978   */\n      dup5\n        /* \"#utility.yul\":1967:1990   */\n      sub\n        /* \"#utility.yul\":1963:1995   */\n      slt\n        /* \"#utility.yul\":1960:2079   */\n      iszero\n      tag_150\n      jumpi\n        /* \"#utility.yul\":1998:2077   */\n      tag_151\n      tag_108\n      jump\t// in\n    tag_151:\n        /* \"#utility.yul\":1960:2079   */\n    tag_150:\n        /* \"#utility.yul\":2118:2119   */\n      0x00\n        /* \"#utility.yul\":2143:2196   */\n      tag_152\n        /* \"#utility.yul\":2188:2195   */\n      dup5\n        /* \"#utility.yul\":2179:2185   */\n      dup3\n        /* \"#utility.yul\":2168:2177   */\n      dup6\n        /* \"#utility.yul\":2164:2186   */\n      add\n        /* \"#utility.yul\":2143:2196   */\n      tag_115\n      jump\t// in\n    tag_152:\n        /* \"#utility.yul\":2133:2196   */\n      swap2\n      pop\n        /* \"#utility.yul\":2089:2206   */\n      pop\n        /* \"#utility.yul\":1884:2213   */\n      swap3\n      swap2\n      pop\n      pop\n      jump\t// out\n        /* \"#utility.yul\":2219:2337   */\n    tag_116:\n        /* \"#utility.yul\":2306:2330   */\n      tag_154\n        /* \"#utility.yul\":2324:2329   */\n      dup2\n        /* \"#utility.yul\":2306:2330   */\n      tag_111\n      jump\t// in\n    tag_154:\n        /* \"#utility.yul\":2301:2304   */\n      dup3\n        /* \"#utility.yul\":2294:2331   */\n      mstore\n        /* \"#utility.yul\":2219:2337   */\n      pop\n      pop\n      jump\t// out\n        /* \"#utility.yul\":2343:2565   */\n    tag_44:\n        /* \"#utility.yul\":2436:2440   */\n      0x00\n        /* \"#utility.yul\":2474:2476   */\n      0x20\n        /* \"#utility.yul\":2463:2472   */\n      dup3\n        /* \"#utility.yul\":2459:2477   */\n      add\n        /* \"#utility.yul\":2451:2477   */\n      swap1\n      pop\n        /* \"#utility.yul\":2487:2558   */\n      tag_156\n        /* \"#utility.yul\":2555:2556   */\n      0x00\n        /* \"#utility.yul\":2544:2553   */\n      dup4\n        /* \"#utility.yul\":2540:2557   */\n      add\n        /* \"#utility.yul\":2531:2537   */\n      dup5\n        /* \"#utility.yul\":2487:2558   */\n      tag_116\n      jump\t// in\n    tag_156:\n        /* \"#utility.yul\":2343:2565   */\n      swap3\n      swap2\n      pop\n      pop\n      jump\t// out\n        /* \"#utility.yul\":2571:3045   */\n    tag_48:\n        /* \"#utility.yul\":2639:2645   */\n      0x00\n        /* \"#utility.yul\":2647:2653   */\n      dup1\n        /* \"#utility.yul\":2696:2698   */\n      0x40\n        /* \"#utility.yul\":2684:2693   */\n      dup4\n        /* \"#utility.yul\":2675:2682   */\n      dup6\n        /* \"#utility.yul\":2671:2694   */\n      sub\n        /* \"#utility.yul\":2667:2699   */\n      slt\n        /* \"#utility.yul\":2664:2783   */\n      iszero\n      tag_158\n      jumpi\n        /* \"#utility.yul\":2702:2781   */\n      tag_159\n      tag_108\n      jump\t// in\n    tag_159:\n        /* \"#utility.yul\":2664:2783   */\n    tag_158:\n        /* \"#utility.yul\":2822:2823   */\n      0x00\n        /* \"#utility.yul\":2847:2900   */\n      tag_160\n        /* \"#utility.yul\":2892:2899   */\n      dup6\n        /* \"#utility.yul\":2883:2889   */\n      dup3\n        /* \"#utility.yul\":2872:2881   */\n      dup7\n        /* \"#utility.yul\":2868:2890   */\n      add\n        /* \"#utility.yul\":2847:2900   */\n      tag_113\n      jump\t// in\n    tag_160:\n        /* \"#utility.yul\":2837:2900   */\n      swap3\n      pop\n        /* \"#utility.yul\":2793:2910   */\n      pop\n        /* \"#utility.yul\":2949:2951   */\n      0x20\n        /* \"#utility.yul\":2975:3028   */\n      tag_161\n        /* \"#utility.yul\":3020:3027   */\n      dup6\n        /* \"#utility.yul\":3011:3017   */\n      dup3\n        /* \"#utility.yul\":3000:3009   */\n      dup7\n        /* \"#utility.yul\":2996:3018   */\n      add\n        /* \"#utility.yul\":2975:3028   */\n      tag_115\n      jump\t// in\n    tag_161:\n        /* \"#utility.yul\":2965:3028   */\n      swap2\n      pop\n        /* \"#utility.yul\":2920:3038   */\n      pop\n        /* \"#utility.yul\":2571:3045   */\n      swap3\n      pop\n      swap3\n      swap1\n      pop\n      jump\t// out\n        /* \"#utility.yul\":3051:3220   */\n    tag_117:\n        /* \"#utility.yul\":3135:3146   */\n      0x00\n        /* \"#utility.yul\":3169:3175   */\n      dup3\n        /* \"#utility.yul\":3164:3167   */\n      dup3\n        /* \"#utility.yul\":3157:3176   */\n      mstore\n        /* \"#utility.yul\":3209:3213   */\n      0x20\n        /* \"#utility.yul\":3204:3207   */\n      dup3\n        /* \"#utility.yul\":3200:3214   */\n      add\n        /* \"#utility.yul\":3185:3214   */\n      swap1\n      pop\n        /* \"#utility.yul\":3051:3220   */\n      swap3\n      swap2\n      pop\n      pop\n      jump\t// out\n        /* \"#utility.yul\":3226:3387   */\n    tag_118:\n        /* \"#utility.yul\":3366:3379   */\n      0x6e6f7420616c6c6f776564000000000000000000000000000000000000000000\n        /* \"#utility.yul\":3362:3363   */\n      0x00\n        /* \"#utility.yul\":3354:3360   */\n      dup3\n        /* \"#utility.yul\":3350:3364   */\n      add\n        /* \"#utility.yul\":3343:3380   */\n      mstore\n        /* \"#utility.yul\":3226:3387   */\n      pop\n      jump\t// out\n        /* \"#utility.yul\":3393:3759   */\n    tag_119:\n        /* \"#utility.yul\":3535:3538   */\n      0x00\n        /* \"#utility.yul\":3556:3623   */\n      tag_165\n        /* \"#utility.yul\":3620:3622   */\n      0x0b\n        /* \"#utility.yul\":3615:3618   */\n      dup4\n        /* \"#utility.yul\":3556:3623   */\n      tag_117\n      jump\t// in\n    tag_165:\n        /* \"#utility.yul\":3549:3623   */\n      swap2\n      pop\n        /* \"#utility.yul\":3632:3725   */\n      tag_166\n        /* \"#utility.yul\":3721:3724   */\n      dup3\n        /* \"#utility.yul\":3632:3725   */\n      tag_118\n      jump\t// in\n    tag_166:\n        /* \"#utility.yul\":3750:3752   */\n      0x20\n        /* \"#utility.yul\":3745:3748   */\n      dup3\n        /* \"#utility.yul\":3741:3753   */\n      add\n        /* \"#utility.yul\":3734:3753   */\n      swap1\n      pop\n        /* \"#utility.yul\":3393:3759   */\n      swap2\n      swap1\n      pop\n      jump\t// out\n        /* \"#utility.yul\":3765:4184   */\n    tag_67:\n        /* \"#utility.yul\":3931:3935   */\n      0x00\n        /* \"#utility.yul\":3969:3971   */\n      0x20\n        /* \"#utility.yul\":3958:3967   */\n      dup3\n        /* \"#utility.yul\":3954:3972   */\n      add\n        /* \"#utility.yul\":3946:3972   */\n      swap1\n      pop\n        /* \"#utility.yul\":4018:4027   */\n      dup2\n        /* \"#utility.yul\":4012:4016   */\n      dup2\n        /* \"#utility.yul\":4008:4028   */\n      sub\n        /* \"#utility.yul\":4004:4005   */\n      0x00\n        /* \"#utility.yul\":3993:4002   */\n      dup4\n        /* \"#utility.yul\":3989:4006   */\n      add\n        /* \"#utility.yul\":3982:4029   */\n      mstore\n        /* \"#utility.yul\":4046:4177   */\n      tag_168\n        /* \"#utility.yul\":4172:4176   */\n      dup2\n        /* \"#utility.yul\":4046:4177   */\n      tag_119\n      jump\t// in\n    tag_168:\n        /* \"#utility.yul\":4038:4177   */\n      swap1\n      pop\n        /* \"#utility.yul\":3765:4184   */\n      swap2\n      swap1\n      pop\n      jump\t// out\n        /* \"#utility.yul\":4190:4358   */\n    tag_120:\n        /* \"#utility.yul\":4330:4350   */\n      0x6e6f7420656e6f74682063757272656e63790000000000000000000000000000\n        /* \"#utility.yul\":4326:4327   */\n      0x00\n        /* \"#utility.yul\":4318:4324   */\n      dup3\n        /* \"#utility.yul\":4314:4328   */\n      add\n        /* \"#utility.yul\":4307:4351   */\n      mstore\n        /* \"#utility.yul\":4190:4358   */\n      pop\n      jump\t// out\n        /* \"#utility.yul\":4364:4730   */\n    tag_121:\n        /* \"#utility.yul\":4506:4509   */\n      0x00\n        /* \"#utility.yul\":4527:4594   */\n      tag_171\n        /* \"#utility.yul\":4591:4593   */\n      0x12\n        /* \"#utility.yul\":4586:4589   */\n      dup4\n        /* \"#utility.yul\":4527:4594   */\n      tag_117\n      jump\t// in\n    tag_171:\n        /* \"#utility.yul\":4520:4594   */\n      swap2\n      pop\n        /* \"#utility.yul\":4603:4696   */\n      tag_172\n        /* \"#utility.yul\":4692:4695   */\n      dup3\n        /* \"#utility.yul\":4603:4696   */\n      tag_120\n      jump\t// in\n    tag_172:\n        /* \"#utility.yul\":4721:4723   */\n      0x20\n        /* \"#utility.yul\":4716:4719   */\n      dup3\n        /* \"#utility.yul\":4712:4724   */\n      add\n        /* \"#utility.yul\":4705:4724   */\n      swap1\n      pop\n        /* \"#utility.yul\":4364:4730   */\n      swap2\n      swap1\n      pop\n      jump\t// out\n        /* \"#utility.yul\":4736:5155   */\n    tag_72:\n        /* \"#utility.yul\":4902:4906   */\n      0x00\n        /* \"#utility.yul\":4940:4942   */\n      0x20\n        /* \"#utility.yul\":4929:4938   */\n      dup3\n        /* \"#utility.yul\":4925:4943   */\n      add\n        /* \"#utility.yul\":4917:4943   */\n      swap1\n      pop\n        /* \"#utility.yul\":4989:4998   */\n      dup2\n        /* \"#utility.yul\":4983:4987   */\n      dup2\n        /* \"#utility.yul\":4979:4999   */\n      sub\n        /* \"#utility.yul\":4975:4976   */\n      0x00\n        /* \"#utility.yul\":4964:4973   */\n      dup4\n        /* \"#utility.yul\":4960:4977   */\n      add\n        /* \"#utility.yul\":4953:5000   */\n      mstore\n        /* \"#utility.yul\":5017:5148   */\n      tag_174\n        /* \"#utility.yul\":5143:5147   */\n      dup2\n        /* \"#utility.yul\":5017:5148   */\n      tag_121\n      jump\t// in\n    tag_174:\n        /* \"#utility.yul\":5009:5148   */\n      swap1\n      pop\n        /* \"#utility.yul\":4736:5155   */\n      swap2\n      swap1\n      pop\n      jump\t// out\n        /* \"#utility.yul\":5161:5341   */\n    tag_122:\n        /* \"#utility.yul\":5209:5286   */\n      0x4e487b7100000000000000000000000000000000000000000000000000000000\n        /* \"#utility.yul\":5206:5207   */\n      0x00\n        /* \"#utility.yul\":5199:5287   */\n      mstore\n        /* \"#utility.yul\":5306:5310   */\n      0x11\n        /* \"#utility.yul\":5303:5304   */\n      0x04\n        /* \"#utility.yul\":5296:5311   */\n      mstore\n        /* \"#utility.yul\":5330:5334   */\n      0x24\n        /* \"#utility.yul\":5327:5328   */\n      0x00\n        /* \"#utility.yul\":5320:5335   */\n      revert\n        /* \"#utility.yul\":5347:5541   */\n    tag_97:\n        /* \"#utility.yul\":5387:5391   */\n      0x00\n        /* \"#utility.yul\":5407:5427   */\n      tag_177\n        /* \"#utility.yul\":5425:5426   */\n      dup3\n        /* \"#utility.yul\":5407:5427   */\n      tag_105\n      jump\t// in\n    tag_177:\n        /* \"#utility.yul\":5402:5427   */\n      swap2\n      pop\n        /* \"#utility.yul\":5441:5461   */\n      tag_178\n        /* \"#utility.yul\":5459:5460   */\n      dup4\n        /* \"#utility.yul\":5441:5461   */\n      tag_105\n      jump\t// in\n    tag_178:\n        /* \"#utility.yul\":5436:5461   */\n      swap3\n      pop\n        /* \"#utility.yul\":5485:5486   */\n      dup3\n        /* \"#utility.yul\":5482:5483   */\n      dup3\n        /* \"#utility.yul\":5478:5487   */\n      sub\n        /* \"#utility.yul\":5470:5487   */\n      swap1\n      pop\n        /* \"#utility.yul\":5509:5510   */\n      dup2\n        /* \"#utility.yul\":5503:5507   */\n      dup2\n        /* \"#utility.yul\":5500:5511   */\n      gt\n        /* \"#utility.yul\":5497:5534   */\n      iszero\n      tag_179\n      jumpi\n        /* \"#utility.yul\":5514:5532   */\n      tag_180\n      tag_122\n      jump\t// in\n    tag_180:\n        /* \"#utility.yul\":5497:5534   */\n    tag_179:\n        /* \"#utility.yul\":5347:5541   */\n      swap3\n      swap2\n      pop\n      pop\n      jump\t// out\n\n    auxdata: 0xa2646970667358221220940bb379ae7a8ceb6dbe68ebf027c6e0795f063a672372ac763435e208f3f5cf64736f6c63430008160033\n}\n",
				"bytecode": {
					"linkReferences": {},
					"object": "608060405234801561000f575f80fd5b5060405162000c0638038062000c06833981810160405281019061003391906101db565b80805f73ffffffffffffffffffffffffffffffffffffffff168173ffffffffffffffffffffffffffffffffffffffff16036100a5575f6040517f1e4fbdf700000000000000000000000000000000000000000000000000000000815260040161009c9190610215565b60405180910390fd5b6100b4816100bc60201b60201c565b50505061022e565b5f805f9054906101000a900473ffffffffffffffffffffffffffffffffffffffff169050815f806101000a81548173ffffffffffffffffffffffffffffffffffffffff021916908373ffffffffffffffffffffffffffffffffffffffff1602179055508173ffffffffffffffffffffffffffffffffffffffff168173ffffffffffffffffffffffffffffffffffffffff167f8be0079c531659141344cd1fd0a4f28419497f9722a3daafe3b4186f6b6457e060405160405180910390a35050565b5f80fd5b5f73ffffffffffffffffffffffffffffffffffffffff82169050919050565b5f6101aa82610181565b9050919050565b6101ba816101a0565b81146101c4575f80fd5b50565b5f815190506101d5816101b1565b92915050565b5f602082840312156101f0576101ef61017d565b5b5f6101fd848285016101c7565b91505092915050565b61020f816101a0565b82525050565b5f6020820190506102285f830184610206565b92915050565b6109ca806200023c5f395ff3fe60806040526004361061007e575f3560e01c8063715018a61161004d578063715018a6146101745780638da5cb5b1461018a5780638e9a4bcc146101b4578063f2fde38b146101dc576100da565b806308ae4b0c146100dc5780630a4c137c1461011857806312065fe0146101225780632e1a7d4d1461014c576100da565b366100da5761008b610204565b73ffffffffffffffffffffffffffffffffffffffff167f27b15ed4cf832749ed39f33a64e4707ed60a761485e41ffec7343ecaddc0c02a346040516100d091906106f7565b60405180910390a2005b005b3480156100e7575f80fd5b5061010260048036038101906100fd919061076e565b61020b565b60405161010f91906106f7565b60405180910390f35b610120610220565b005b34801561012d575f80fd5b506101366102c0565b60405161014391906106f7565b60405180910390f35b348015610157575f80fd5b50610172600480360381019061016d91906107c3565b6102c7565b005b34801561017f575f80fd5b50610188610400565b005b348015610195575f80fd5b5061019e610413565b6040516101ab91906107fd565b60405180910390f35b3480156101bf575f80fd5b506101da60048036038101906101d59190610816565b61043a565b005b3480156101e7575f80fd5b5061020260048036038101906101fd919061076e565b610480565b005b5f33905090565b6001602052805f5260405f205f915090505481565b5f3090508073ffffffffffffffffffffffffffffffffffffffff166108fc3490811502906040515f60405180830381858888f19350505050158015610267573d5f803e3d5ffd5b50610270610204565b73ffffffffffffffffffffffffffffffffffffffff167f27b15ed4cf832749ed39f33a64e4707ed60a761485e41ffec7343ecaddc0c02a346040516102b591906106f7565b60405180910390a250565b5f47905090565b806102d0610504565b8061031857508060015f3373ffffffffffffffffffffffffffffffffffffffff1673ffffffffffffffffffffffffffffffffffffffff1681526020019081526020015f205410155b610357576040517f08c379a000000000000000000000000000000000000000000000000000000000815260040161034e906108ae565b60405180910390fd5b61035f6102c0565b8211156103a1576040517f08c379a000000000000000000000000000000000000000000000000000000000815260040161039890610916565b60405180910390fd5b6103a9610504565b6103b8576103b73383610540565b5b3373ffffffffffffffffffffffffffffffffffffffff166108fc8390811502906040515f60405180830381858888f193505050501580156103fb573d5f803e3d5ffd5b505050565b610408610597565b6104115f61061e565b565b5f805f9054906101000a900473ffffffffffffffffffffffffffffffffffffffff16905090565b8060015f8473ffffffffffffffffffffffffffffffffffffffff1673ffffffffffffffffffffffffffffffffffffffff1681526020019081526020015f20819055505050565b610488610597565b5f73ffffffffffffffffffffffffffffffffffffffff168173ffffffffffffffffffffffffffffffffffffffff16036104f8575f6040517f1e4fbdf70000000000000000000000000000000000000000000000000000000081526004016104ef91906107fd565b60405180910390fd5b6105018161061e565b50565b5f3373ffffffffffffffffffffffffffffffffffffffff16610524610413565b73ffffffffffffffffffffffffffffffffffffffff1614905090565b8060015f8473ffffffffffffffffffffffffffffffffffffffff1673ffffffffffffffffffffffffffffffffffffffff1681526020019081526020015f205f82825461058c9190610961565b925050819055505050565b61059f610204565b73ffffffffffffffffffffffffffffffffffffffff166105bd610413565b73ffffffffffffffffffffffffffffffffffffffff161461061c576105e0610204565b6040517f118cdaa700000000000000000000000000000000000000000000000000000000815260040161061391906107fd565b60405180910390fd5b565b5f805f9054906101000a900473ffffffffffffffffffffffffffffffffffffffff169050815f806101000a81548173ffffffffffffffffffffffffffffffffffffffff021916908373ffffffffffffffffffffffffffffffffffffffff1602179055508173ffffffffffffffffffffffffffffffffffffffff168173ffffffffffffffffffffffffffffffffffffffff167f8be0079c531659141344cd1fd0a4f28419497f9722a3daafe3b4186f6b6457e060405160405180910390a35050565b5f819050919050565b6106f1816106df565b82525050565b5f60208201905061070a5f8301846106e8565b92915050565b5f80fd5b5f73ffffffffffffffffffffffffffffffffffffffff82169050919050565b5f61073d82610714565b9050919050565b61074d81610733565b8114610757575f80fd5b50565b5f8135905061076881610744565b92915050565b5f6020828403121561078357610782610710565b5b5f6107908482850161075a565b91505092915050565b6107a2816106df565b81146107ac575f80fd5b50565b5f813590506107bd81610799565b92915050565b5f602082840312156107d8576107d7610710565b5b5f6107e5848285016107af565b91505092915050565b6107f781610733565b82525050565b5f6020820190506108105f8301846107ee565b92915050565b5f806040838503121561082c5761082b610710565b5b5f6108398582860161075a565b925050602061084a858286016107af565b9150509250929050565b5f82825260208201905092915050565b7f6e6f7420616c6c6f7765640000000000000000000000000000000000000000005f82015250565b5f610898600b83610854565b91506108a382610864565b602082019050919050565b5f6020820190508181035f8301526108c58161088c565b9050919050565b7f6e6f7420656e6f74682063757272656e637900000000000000000000000000005f82015250565b5f610900601283610854565b915061090b826108cc565b602082019050919050565b5f6020820190508181035f83015261092d816108f4565b9050919050565b7f4e487b71000000000000000000000000000000000000000000000000000000005f52601160045260245ffd5b5f61096b826106df565b9150610976836106df565b925082820390508181111561098e5761098d610934565b5b9291505056fea2646970667358221220940bb379ae7a8ceb6dbe68ebf027c6e0795f063a672372ac763435e208f3f5cf64736f6c63430008160033",
					"opcodes": "PUSH1 0x80 PUSH1 0x40 MSTORE CALLVALUE DUP1 ISZERO PUSH2 0xF JUMPI PUSH0 DUP1 REVERT JUMPDEST POP PUSH1 0x40 MLOAD PUSH3 0xC06 CODESIZE SUB DUP1 PUSH3 0xC06 DUP4 CODECOPY DUP2 DUP2 ADD PUSH1 0x40 MSTORE DUP2 ADD SWAP1 PUSH2 0x33 SWAP2 SWAP1 PUSH2 0x1DB JUMP JUMPDEST DUP1 DUP1 PUSH0 PUSH20 0xFFFFFFFFFFFFFFFFFFFFFFFFFFFFFFFFFFFFFFFF AND DUP2 PUSH20 0xFFFFFFFFFFFFFFFFFFFFFFFFFFFFFFFFFFFFFFFF AND SUB PUSH2 0xA5 JUMPI PUSH0 PUSH1 0x40 MLOAD PUSH32 0x1E4FBDF700000000000000000000000000000000000000000000000000000000 DUP2 MSTORE PUSH1 0x4 ADD PUSH2 0x9C SWAP2 SWAP1 PUSH2 0x215 JUMP JUMPDEST PUSH1 0x40 MLOAD DUP1 SWAP2 SUB SWAP1 REVERT JUMPDEST PUSH2 0xB4 DUP2 PUSH2 0xBC PUSH1 0x20 SHL PUSH1 0x20 SHR JUMP JUMPDEST POP POP POP PUSH2 0x22E JUMP JUMPDEST PUSH0 DUP1 PUSH0 SWAP1 SLOAD SWAP1 PUSH2 0x100 EXP SWAP1 DIV PUSH20 0xFFFFFFFFFFFFFFFFFFFFFFFFFFFFFFFFFFFFFFFF AND SWAP1 POP DUP2 PUSH0 DUP1 PUSH2 0x100 EXP DUP2 SLOAD DUP2 PUSH20 0xFFFFFFFFFFFFFFFFFFFFFFFFFFFFFFFFFFFFFFFF MUL NOT AND SWAP1 DUP4 PUSH20 0xFFFFFFFFFFFFFFFFFFFFFFFFFFFFFFFFFFFFFFFF AND MUL OR SWAP1 SSTORE POP DUP2 PUSH20 0xFFFFFFFFFFFFFFFFFFFFFFFFFFFFFFFFFFFFFFFF AND DUP2 PUSH20 0xFFFFFFFFFFFFFFFFFFFFFFFFFFFFFFFFFFFFFFFF AND PUSH32 0x8BE0079C531659141344CD1FD0A4F28419497F9722A3DAAFE3B4186F6B6457E0 PUSH1 0x40 MLOAD PUSH1 0x40 MLOAD DUP1 SWAP2 SUB SWAP1 LOG3 POP POP JUMP JUMPDEST PUSH0 DUP1 REVERT JUMPDEST PUSH0 PUSH20 0xFFFFFFFFFFFFFFFFFFFFFFFFFFFFFFFFFFFFFFFF DUP3 AND SWAP1 POP SWAP2 SWAP1 POP JUMP JUMPDEST PUSH0 PUSH2 0x1AA DUP3 PUSH2 0x181 JUMP JUMPDEST SWAP1 POP SWAP2 SWAP1 POP JUMP JUMPDEST PUSH2 0x1BA DUP2 PUSH2 0x1A0 JUMP JUMPDEST DUP2 EQ PUSH2 0x1C4 JUMPI PUSH0 DUP1 REVERT JUMPDEST POP JUMP JUMPDEST PUSH0 DUP2 MLOAD SWAP1 POP PUSH2 0x1D5 DUP2 PUSH2 0x1B1 JUMP JUMPDEST SWAP3 SWAP2 POP POP JUMP JUMPDEST PUSH0 PUSH1 0x20 DUP3 DUP5 SUB SLT ISZERO PUSH2 0x1F0 JUMPI PUSH2 0x1EF PUSH2 0x17D JUMP JUMPDEST JUMPDEST PUSH0 PUSH2 0x1FD DUP5 DUP3 DUP6 ADD PUSH2 0x1C7 JUMP JUMPDEST SWAP2 POP POP SWAP3 SWAP2 POP POP JUMP JUMPDEST PUSH2 0x20F DUP2 PUSH2 0x1A0 JUMP JUMPDEST DUP3 MSTORE POP POP JUMP JUMPDEST PUSH0 PUSH1 0x20 DUP3 ADD SWAP1 POP PUSH2 0x228 PUSH0 DUP4 ADD DUP5 PUSH2 0x206 JUMP JUMPDEST SWAP3 SWAP2 POP POP JUMP JUMPDEST PUSH2 0x9CA DUP1 PUSH3 0x23C PUSH0 CODECOPY PUSH0 RETURN INVALID PUSH1 0x80 PUSH1 0x40 MSTORE PUSH1 0x4 CALLDATASIZE LT PUSH2 0x7E JUMPI PUSH0 CALLDATALOAD PUSH1 0xE0 SHR DUP1 PUSH4 0x715018A6 GT PUSH2 0x4D JUMPI DUP1 PUSH4 0x715018A6 EQ PUSH2 0x174 JUMPI DUP1 PUSH4 0x8DA5CB5B EQ PUSH2 0x18A JUMPI DUP1 PUSH4 0x8E9A4BCC EQ PUSH2 0x1B4 JUMPI DUP1 PUSH4 0xF2FDE38B EQ PUSH2 0x1DC JUMPI PUSH2 0xDA JUMP JUMPDEST DUP1 PUSH4 0x8AE4B0C EQ PUSH2 0xDC JUMPI DUP1 PUSH4 0xA4C137C EQ PUSH2 0x118 JUMPI DUP1 PUSH4 0x12065FE0 EQ PUSH2 0x122 JUMPI DUP1 PUSH4 0x2E1A7D4D EQ PUSH2 0x14C JUMPI PUSH2 0xDA JUMP JUMPDEST CALLDATASIZE PUSH2 0xDA JUMPI PUSH2 0x8B PUSH2 0x204 JUMP JUMPDEST PUSH20 0xFFFFFFFFFFFFFFFFFFFFFFFFFFFFFFFFFFFFFFFF AND PUSH32 0x27B15ED4CF832749ED39F33A64E4707ED60A761485E41FFEC7343ECADDC0C02A CALLVALUE PUSH1 0x40 MLOAD PUSH2 0xD0 SWAP2 SWAP1 PUSH2 0x6F7 JUMP JUMPDEST PUSH1 0x40 MLOAD DUP1 SWAP2 SUB SWAP1 LOG2 STOP JUMPDEST STOP JUMPDEST CALLVALUE DUP1 ISZERO PUSH2 0xE7 JUMPI PUSH0 DUP1 REVERT JUMPDEST POP PUSH2 0x102 PUSH1 0x4 DUP1 CALLDATASIZE SUB DUP2 ADD SWAP1 PUSH2 0xFD SWAP2 SWAP1 PUSH2 0x76E JUMP JUMPDEST PUSH2 0x20B JUMP JUMPDEST PUSH1 0x40 MLOAD PUSH2 0x10F SWAP2 SWAP1 PUSH2 0x6F7 JUMP JUMPDEST PUSH1 0x40 MLOAD DUP1 SWAP2 SUB SWAP1 RETURN JUMPDEST PUSH2 0x120 PUSH2 0x220 JUMP JUMPDEST STOP JUMPDEST CALLVALUE DUP1 ISZERO PUSH2 0x12D JUMPI PUSH0 DUP1 REVERT JUMPDEST POP PUSH2 0x136 PUSH2 0x2C0 JUMP JUMPDEST PUSH1 0x40 MLOAD PUSH2 0x143 SWAP2 SWAP1 PUSH2 0x6F7 JUMP JUMPDEST PUSH1 0x40 MLOAD DUP1 SWAP2 SUB SWAP1 RETURN JUMPDEST CALLVALUE DUP1 ISZERO PUSH2 0x157 JUMPI PUSH0 DUP1 REVERT JUMPDEST POP PUSH2 0x172 PUSH1 0x4 DUP1 CALLDATASIZE SUB DUP2 ADD SWAP1 PUSH2 0x16D SWAP2 SWAP1 PUSH2 0x7C3 JUMP JUMPDEST PUSH2 0x2C7 JUMP JUMPDEST STOP JUMPDEST CALLVALUE DUP1 ISZERO PUSH2 0x17F JUMPI PUSH0 DUP1 REVERT JUMPDEST POP PUSH2 0x188 PUSH2 0x400 JUMP JUMPDEST STOP JUMPDEST CALLVALUE DUP1 ISZERO PUSH2 0x195 JUMPI PUSH0 DUP1 REVERT JUMPDEST POP PUSH2 0x19E PUSH2 0x413 JUMP JUMPDEST PUSH1 0x40 MLOAD PUSH2 0x1AB SWAP2 SWAP1 PUSH2 0x7FD JUMP JUMPDEST PUSH1 0x40 MLOAD DUP1 SWAP2 SUB SWAP1 RETURN JUMPDEST CALLVALUE DUP1 ISZERO PUSH2 0x1BF JUMPI PUSH0 DUP1 REVERT JUMPDEST POP PUSH2 0x1DA PUSH1 0x4 DUP1 CALLDATASIZE SUB DUP2 ADD SWAP1 PUSH2 0x1D5 SWAP2 SWAP1 PUSH2 0x816 JUMP JUMPDEST PUSH2 0x43A JUMP JUMPDEST STOP JUMPDEST CALLVALUE DUP1 ISZERO PUSH2 0x1E7 JUMPI PUSH0 DUP1 REVERT JUMPDEST POP PUSH2 0x202 PUSH1 0x4 DUP1 CALLDATASIZE SUB DUP2 ADD SWAP1 PUSH2 0x1FD SWAP2 SWAP1 PUSH2 0x76E JUMP JUMPDEST PUSH2 0x480 JUMP JUMPDEST STOP JUMPDEST PUSH0 CALLER SWAP1 POP SWAP1 JUMP JUMPDEST PUSH1 0x1 PUSH1 0x20 MSTORE DUP1 PUSH0 MSTORE PUSH1 0x40 PUSH0 KECCAK256 PUSH0 SWAP2 POP SWAP1 POP SLOAD DUP2 JUMP JUMPDEST PUSH0 ADDRESS SWAP1 POP DUP1 PUSH20 0xFFFFFFFFFFFFFFFFFFFFFFFFFFFFFFFFFFFFFFFF AND PUSH2 0x8FC CALLVALUE SWAP1 DUP2 ISZERO MUL SWAP1 PUSH1 0x40 MLOAD PUSH0 PUSH1 0x40 MLOAD DUP1 DUP4 SUB DUP2 DUP6 DUP9 DUP9 CALL SWAP4 POP POP POP POP ISZERO DUP1 ISZERO PUSH2 0x267 JUMPI RETURNDATASIZE PUSH0 DUP1 RETURNDATACOPY RETURNDATASIZE PUSH0 REVERT JUMPDEST POP PUSH2 0x270 PUSH2 0x204 JUMP JUMPDEST PUSH20 0xFFFFFFFFFFFFFFFFFFFFFFFFFFFFFFFFFFFFFFFF AND PUSH32 0x27B15ED4CF832749ED39F33A64E4707ED60A761485E41FFEC7343ECADDC0C02A CALLVALUE PUSH1 0x40 MLOAD PUSH2 0x2B5 SWAP2 SWAP1 PUSH2 0x6F7 JUMP JUMPDEST PUSH1 0x40 MLOAD DUP1 SWAP2 SUB SWAP1 LOG2 POP JUMP JUMPDEST PUSH0 SELFBALANCE SWAP1 POP SWAP1 JUMP JUMPDEST DUP1 PUSH2 0x2D0 PUSH2 0x504 JUMP JUMPDEST DUP1 PUSH2 0x318 JUMPI POP DUP1 PUSH1 0x1 PUSH0 CALLER PUSH20 0xFFFFFFFFFFFFFFFFFFFFFFFFFFFFFFFFFFFFFFFF AND PUSH20 0xFFFFFFFFFFFFFFFFFFFFFFFFFFFFFFFFFFFFFFFF AND DUP2 MSTORE PUSH1 0x20 ADD SWAP1 DUP2 MSTORE PUSH1 0x20 ADD PUSH0 KECCAK256 SLOAD LT ISZERO JUMPDEST PUSH2 0x357 JUMPI PUSH1 0x40 MLOAD PUSH32 0x8C379A000000000000000000000000000000000000000000000000000000000 DUP2 MSTORE PUSH1 0x4 ADD PUSH2 0x34E SWAP1 PUSH2 0x8AE JUMP JUMPDEST PUSH1 0x40 MLOAD DUP1 SWAP2 SUB SWAP1 REVERT JUMPDEST PUSH2 0x35F PUSH2 0x2C0 JUMP JUMPDEST DUP3 GT ISZERO PUSH2 0x3A1 JUMPI PUSH1 0x40 MLOAD PUSH32 0x8C379A000000000000000000000000000000000000000000000000000000000 DUP2 MSTORE PUSH1 0x4 ADD PUSH2 0x398 SWAP1 PUSH2 0x916 JUMP JUMPDEST PUSH1 0x40 MLOAD DUP1 SWAP2 SUB SWAP1 REVERT JUMPDEST PUSH2 0x3A9 PUSH2 0x504 JUMP JUMPDEST PUSH2 0x3B8 JUMPI PUSH2 0x3B7 CALLER DUP4 PUSH2 0x540 JUMP JUMPDEST JUMPDEST CALLER PUSH20 0xFFFFFFFFFFFFFFFFFFFFFFFFFFFFFFFFFFFFFFFF AND PUSH2 0x8FC DUP4 SWAP1 DUP2 ISZERO MUL SWAP1 PUSH1 0x40 MLOAD PUSH0 PUSH1 0x40 MLOAD DUP1 DUP4 SUB DUP2 DUP6 DUP9 DUP9 CALL SWAP4 POP POP POP POP ISZERO DUP1 ISZERO PUSH2 0x3FB JUMPI RETURNDATASIZE PUSH0 DUP1 RETURNDATACOPY RETURNDATASIZE PUSH0 REVERT JUMPDEST POP POP POP JUMP JUMPDEST PUSH2 0x408 PUSH2 0x597 JUMP JUMPDEST PUSH2 0x411 PUSH0 PUSH2 0x61E JUMP JUMPDEST JUMP JUMPDEST PUSH0 DUP1 PUSH0 SWAP1 SLOAD SWAP1 PUSH2 0x100 EXP SWAP1 DIV PUSH20 0xFFFFFFFFFFFFFFFFFFFFFFFFFFFFFFFFFFFFFFFF AND SWAP1 POP SWAP1 JUMP JUMPDEST DUP1 PUSH1 0x1 PUSH0 DUP5 PUSH20 0xFFFFFFFFFFFFFFFFFFFFFFFFFFFFFFFFFFFFFFFF AND PUSH20 0xFFFFFFFFFFFFFFFFFFFFFFFFFFFFFFFFFFFFFFFF AND DUP2 MSTORE PUSH1 0x20 ADD SWAP1 DUP2 MSTORE PUSH1 0x20 ADD PUSH0 KECCAK256 DUP2 SWAP1 SSTORE POP POP POP JUMP JUMPDEST PUSH2 0x488 PUSH2 0x597 JUMP JUMPDEST PUSH0 PUSH20 0xFFFFFFFFFFFFFFFFFFFFFFFFFFFFFFFFFFFFFFFF AND DUP2 PUSH20 0xFFFFFFFFFFFFFFFFFFFFFFFFFFFFFFFFFFFFFFFF AND SUB PUSH2 0x4F8 JUMPI PUSH0 PUSH1 0x40 MLOAD PUSH32 0x1E4FBDF700000000000000000000000000000000000000000000000000000000 DUP2 MSTORE PUSH1 0x4 ADD PUSH2 0x4EF SWAP2 SWAP1 PUSH2 0x7FD JUMP JUMPDEST PUSH1 0x40 MLOAD DUP1 SWAP2 SUB SWAP1 REVERT JUMPDEST PUSH2 0x501 DUP2 PUSH2 0x61E JUMP JUMPDEST POP JUMP JUMPDEST PUSH0 CALLER PUSH20 0xFFFFFFFFFFFFFFFFFFFFFFFFFFFFFFFFFFFFFFFF AND PUSH2 0x524 PUSH2 0x413 JUMP JUMPDEST PUSH20 0xFFFFFFFFFFFFFFFFFFFFFFFFFFFFFFFFFFFFFFFF AND EQ SWAP1 POP SWAP1 JUMP JUMPDEST DUP1 PUSH1 0x1 PUSH0 DUP5 PUSH20 0xFFFFFFFFFFFFFFFFFFFFFFFFFFFFFFFFFFFFFFFF AND PUSH20 0xFFFFFFFFFFFFFFFFFFFFFFFFFFFFFFFFFFFFFFFF AND DUP2 MSTORE PUSH1 0x20 ADD SWAP1 DUP2 MSTORE PUSH1 0x20 ADD PUSH0 KECCAK256 PUSH0 DUP3 DUP3 SLOAD PUSH2 0x58C SWAP2 SWAP1 PUSH2 0x961 JUMP JUMPDEST SWAP3 POP POP DUP2 SWAP1 SSTORE POP POP POP JUMP JUMPDEST PUSH2 0x59F PUSH2 0x204 JUMP JUMPDEST PUSH20 0xFFFFFFFFFFFFFFFFFFFFFFFFFFFFFFFFFFFFFFFF AND PUSH2 0x5BD PUSH2 0x413 JUMP JUMPDEST PUSH20 0xFFFFFFFFFFFFFFFFFFFFFFFFFFFFFFFFFFFFFFFF AND EQ PUSH2 0x61C JUMPI PUSH2 0x5E0 PUSH2 0x204 JUMP JUMPDEST PUSH1 0x40 MLOAD PUSH32 0x118CDAA700000000000000000000000000000000000000000000000000000000 DUP2 MSTORE PUSH1 0x4 ADD PUSH2 0x613 SWAP2 SWAP1 PUSH2 0x7FD JUMP JUMPDEST PUSH1 0x40 MLOAD DUP1 SWAP2 SUB SWAP1 REVERT JUMPDEST JUMP JUMPDEST PUSH0 DUP1 PUSH0 SWAP1 SLOAD SWAP1 PUSH2 0x100 EXP SWAP1 DIV PUSH20 0xFFFFFFFFFFFFFFFFFFFFFFFFFFFFFFFFFFFFFFFF AND SWAP1 POP DUP2 PUSH0 DUP1 PUSH2 0x100 EXP DUP2 SLOAD DUP2 PUSH20 0xFFFFFFFFFFFFFFFFFFFFFFFFFFFFFFFFFFFFFFFF MUL NOT AND SWAP1 DUP4 PUSH20 0xFFFFFFFFFFFFFFFFFFFFFFFFFFFFFFFFFFFFFFFF AND MUL OR SWAP1 SSTORE POP DUP2 PUSH20 0xFFFFFFFFFFFFFFFFFFFFFFFFFFFFFFFFFFFFFFFF AND DUP2 PUSH20 0xFFFFFFFFFFFFFFFFFFFFFFFFFFFFFFFFFFFFFFFF AND PUSH32 0x8BE0079C531659141344CD1FD0A4F28419497F9722A3DAAFE3B4186F6B6457E0 PUSH1 0x40 MLOAD PUSH1 0x40 MLOAD DUP1 SWAP2 SUB SWAP1 LOG3 POP POP JUMP JUMPDEST PUSH0 DUP2 SWAP1 POP SWAP2 SWAP1 POP JUMP JUMPDEST PUSH2 0x6F1 DUP2 PUSH2 0x6DF JUMP JUMPDEST DUP3 MSTORE POP POP JUMP JUMPDEST PUSH0 PUSH1 0x20 DUP3 ADD SWAP1 POP PUSH2 0x70A PUSH0 DUP4 ADD DUP5 PUSH2 0x6E8 JUMP JUMPDEST SWAP3 SWAP2 POP POP JUMP JUMPDEST PUSH0 DUP1 REVERT JUMPDEST PUSH0 PUSH20 0xFFFFFFFFFFFFFFFFFFFFFFFFFFFFFFFFFFFFFFFF DUP3 AND SWAP1 POP SWAP2 SWAP1 POP JUMP JUMPDEST PUSH0 PUSH2 0x73D DUP3 PUSH2 0x714 JUMP JUMPDEST SWAP1 POP SWAP2 SWAP1 POP JUMP JUMPDEST PUSH2 0x74D DUP2 PUSH2 0x733 JUMP JUMPDEST DUP2 EQ PUSH2 0x757 JUMPI PUSH0 DUP1 REVERT JUMPDEST POP JUMP JUMPDEST PUSH0 DUP2 CALLDATALOAD SWAP1 POP PUSH2 0x768 DUP2 PUSH2 0x744 JUMP JUMPDEST SWAP3 SWAP2 POP POP JUMP JUMPDEST PUSH0 PUSH1 0x20 DUP3 DUP5 SUB SLT ISZERO PUSH2 0x783 JUMPI PUSH2 0x782 PUSH2 0x710 JUMP JUMPDEST JUMPDEST PUSH0 PUSH2 0x790 DUP5 DUP3 DUP6 ADD PUSH2 0x75A JUMP JUMPDEST SWAP2 POP POP SWAP3 SWAP2 POP POP JUMP JUMPDEST PUSH2 0x7A2 DUP2 PUSH2 0x6DF JUMP JUMPDEST DUP2 EQ PUSH2 0x7AC JUMPI PUSH0 DUP1 REVERT JUMPDEST POP JUMP JUMPDEST PUSH0 DUP2 CALLDATALOAD SWAP1 POP PUSH2 0x7BD DUP2 PUSH2 0x799 JUMP JUMPDEST SWAP3 SWAP2 POP POP JUMP JUMPDEST PUSH0 PUSH1 0x20 DUP3 DUP5 SUB SLT ISZERO PUSH2 0x7D8 JUMPI PUSH2 0x7D7 PUSH2 0x710 JUMP JUMPDEST JUMPDEST PUSH0 PUSH2 0x7E5 DUP5 DUP3 DUP6 ADD PUSH2 0x7AF JUMP JUMPDEST SWAP2 POP POP SWAP3 SWAP2 POP POP JUMP JUMPDEST PUSH2 0x7F7 DUP2 PUSH2 0x733 JUMP JUMPDEST DUP3 MSTORE POP POP JUMP JUMPDEST PUSH0 PUSH1 0x20 DUP3 ADD SWAP1 POP PUSH2 0x810 PUSH0 DUP4 ADD DUP5 PUSH2 0x7EE JUMP JUMPDEST SWAP3 SWAP2 POP POP JUMP JUMPDEST PUSH0 DUP1 PUSH1 0x40 DUP4 DUP6 SUB SLT ISZERO PUSH2 0x82C JUMPI PUSH2 0x82B PUSH2 0x710 JUMP JUMPDEST JUMPDEST PUSH0 PUSH2 0x839 DUP6 DUP3 DUP7 ADD PUSH2 0x75A JUMP JUMPDEST SWAP3 POP POP PUSH1 0x20 PUSH2 0x84A DUP6 DUP3 DUP7 ADD PUSH2 0x7AF JUMP JUMPDEST SWAP2 POP POP SWAP3 POP SWAP3 SWAP1 POP JUMP JUMPDEST PUSH0 DUP3 DUP3 MSTORE PUSH1 0x20 DUP3 ADD SWAP1 POP SWAP3 SWAP2 POP POP JUMP JUMPDEST PUSH32 0x6E6F7420616C6C6F776564000000000000000000000000000000000000000000 PUSH0 DUP3 ADD MSTORE POP JUMP JUMPDEST PUSH0 PUSH2 0x898 PUSH1 0xB DUP4 PUSH2 0x854 JUMP JUMPDEST SWAP2 POP PUSH2 0x8A3 DUP3 PUSH2 0x864 JUMP JUMPDEST PUSH1 0x20 DUP3 ADD SWAP1 POP SWAP2 SWAP1 POP JUMP JUMPDEST PUSH0 PUSH1 0x20 DUP3 ADD SWAP1 POP DUP2 DUP2 SUB PUSH0 DUP4 ADD MSTORE PUSH2 0x8C5 DUP2 PUSH2 0x88C JUMP JUMPDEST SWAP1 POP SWAP2 SWAP1 POP JUMP JUMPDEST PUSH32 0x6E6F7420656E6F74682063757272656E63790000000000000000000000000000 PUSH0 DUP3 ADD MSTORE POP JUMP JUMPDEST PUSH0 PUSH2 0x900 PUSH1 0x12 DUP4 PUSH2 0x854 JUMP JUMPDEST SWAP2 POP PUSH2 0x90B DUP3 PUSH2 0x8CC JUMP JUMPDEST PUSH1 0x20 DUP3 ADD SWAP1 POP SWAP2 SWAP1 POP JUMP JUMPDEST PUSH0 PUSH1 0x20 DUP3 ADD SWAP1 POP DUP2 DUP2 SUB PUSH0 DUP4 ADD MSTORE PUSH2 0x92D DUP2 PUSH2 0x8F4 JUMP JUMPDEST SWAP1 POP SWAP2 SWAP1 POP JUMP JUMPDEST PUSH32 0x4E487B7100000000000000000000000000000000000000000000000000000000 PUSH0 MSTORE PUSH1 0x11 PUSH1 0x4 MSTORE PUSH1 0x24 PUSH0 REVERT JUMPDEST PUSH0 PUSH2 0x96B DUP3 PUSH2 0x6DF JUMP JUMPDEST SWAP2 POP PUSH2 0x976 DUP4 PUSH2 0x6DF JUMP JUMPDEST SWAP3 POP DUP3 DUP3 SUB SWAP1 POP DUP2 DUP2 GT ISZERO PUSH2 0x98E JUMPI PUSH2 0x98D PUSH2 0x934 JUMP JUMPDEST JUMPDEST SWAP3 SWAP2 POP POP JUMP INVALID LOG2 PUSH5 0x6970667358 0x22 SLT KECCAK256 SWAP5 SIGNEXTEND 0xB3 PUSH26 0xAE7A8CEB6DBE68EBF027C6E0795F063A672372AC763435E208F3 CREATE2 0xCF PUSH5 0x736F6C6343 STOP ADDMOD AND STOP CALLER "
				},
				"gasEstimates": {
					"creation": {
						"codeDepositCost": "501200",
						"executionCost": "infinite",
						"totalCost": "infinite"
					},
					"external": {
						"": "173",
						"addLimit(address,uint256)": "22866",
						"getBalance()": "379",
						"members(address)": "2803",
						"owner()": "2537",
						"renounceOwnership()": "infinite",
						"sendToContract()": "infinite",
						"transferOwnership(address)": "infinite",
						"withdraw(uint256)": "infinite"
					}
				},
				"methodIdentifiers": {
					"addLimit(address,uint256)": "8e9a4bcc",
					"getBalance()": "12065fe0",
					"members(address)": "08ae4b0c",
					"owner()": "8da5cb5b",
					"renounceOwnership()": "715018a6",
					"sendToContract()": "0a4c137c",
					"transferOwnership(address)": "f2fde38b",
					"withdraw(uint256)": "2e1a7d4d"
				}
			},
			"storageLayout": {
				"storage": [
					{
						"astId": 202,
						"contract": "Wallet.sol:Wallet",
						"label": "_owner",
						"offset": 0,
						"slot": "0",
						"type": "t_address"
					},
					{
						"astId": 17,
						"contract": "Wallet.sol:Wallet",
						"label": "members",
						"offset": 0,
						"slot": "1",
						"type": "t_mapping(t_address,t_uint256)"
					}
				],
				"types": {
					"t_address": {
						"encoding": "inplace",
						"label": "address",
						"numberOfBytes": "20"
					},
					"t_mapping(t_address,t_uint256)": {
						"encoding": "mapping",
						"key": "t_address",
						"label": "mapping(address => uint256)",
						"numberOfBytes": "32",
						"value": "t_uint256"
					},
					"t_uint256": {
						"encoding": "inplace",
						"label": "uint256",
						"numberOfBytes": "32"
					}
				}
			},
			"userdoc": {
				"kind": "user",
				"methods": {},
				"version": 1
			}
		}
	}
}