{
	"Nik_MD_project3_1.sol": {
		"RecordFactory": {
			"abi": [
				{
					"inputs": [
						{
							"internalType": "address",
							"name": "_record",
							"type": "address"
						}
					],
					"name": "addRecord",
					"outputs": [],
					"stateMutability": "nonpayable",
					"type": "function"
				},
				{
					"inputs": [
						{
							"internalType": "string",
							"name": "_record",
							"type": "string"
						}
					],
					"name": "addRecord",
					"outputs": [],
					"stateMutability": "nonpayable",
					"type": "function"
				},
				{
					"inputs": [
						{
							"internalType": "uint256",
							"name": "",
							"type": "uint256"
						}
					],
					"name": "records",
					"outputs": [
						{
							"internalType": "contract Record",
							"name": "",
							"type": "address"
						}
					],
					"stateMutability": "view",
					"type": "function"
				}
			],
			"devdoc": {
				"kind": "dev",
				"methods": {},
				"version": 1
			},
			"evm": {
				"assembly": "    /* \"Nik_MD_project3_1.sol\":871:1260  contract RecordFactory {... */\n  mstore(0x40, 0x80)\n  callvalue\n  dup1\n  iszero\n  tag_1\n  jumpi\n  0x00\n  dup1\n  revert\ntag_1:\n  pop\n  dataSize(sub_0)\n  dup1\n  dataOffset(sub_0)\n  0x00\n  codecopy\n  0x00\n  return\nstop\n\nsub_0: assembly {\n        /* \"Nik_MD_project3_1.sol\":871:1260  contract RecordFactory {... */\n      mstore(0x40, 0x80)\n      callvalue\n      dup1\n      iszero\n      tag_1\n      jumpi\n      0x00\n      dup1\n      revert\n    tag_1:\n      pop\n      jumpi(tag_2, lt(calldatasize, 0x04))\n      shr(0xe0, calldataload(0x00))\n      dup1\n      0x34461067\n      eq\n      tag_3\n      jumpi\n      dup1\n      0x99b53463\n      eq\n      tag_4\n      jumpi\n      dup1\n      0xd81aa8c4\n      eq\n      tag_5\n      jumpi\n    tag_2:\n      0x00\n      dup1\n      revert\n        /* \"Nik_MD_project3_1.sol\":901:924  Record[] public records */\n    tag_3:\n      tag_6\n      0x04\n      dup1\n      calldatasize\n      sub\n      dup2\n      add\n      swap1\n      tag_7\n      swap2\n      swap1\n      tag_8\n      jump\t// in\n    tag_7:\n      tag_9\n      jump\t// in\n    tag_6:\n      mload(0x40)\n      tag_10\n      swap2\n      swap1\n      tag_11\n      jump\t// in\n    tag_10:\n      mload(0x40)\n      dup1\n      swap2\n      sub\n      swap1\n      return\n        /* \"Nik_MD_project3_1.sol\":933:1089  function addRecord(address _record) public {... */\n    tag_4:\n      tag_12\n      0x04\n      dup1\n      calldatasize\n      sub\n      dup2\n      add\n      swap1\n      tag_13\n      swap2\n      swap1\n      tag_14\n      jump\t// in\n    tag_13:\n      tag_15\n      jump\t// in\n    tag_12:\n      stop\n        /* \"Nik_MD_project3_1.sol\":1097:1257  function addRecord(string memory _record) public {... */\n    tag_5:\n      tag_16\n      0x04\n      dup1\n      calldatasize\n      sub\n      dup2\n      add\n      swap1\n      tag_17\n      swap2\n      swap1\n      tag_18\n      jump\t// in\n    tag_17:\n      tag_19\n      jump\t// in\n    tag_16:\n      stop\n        /* \"Nik_MD_project3_1.sol\":901:924  Record[] public records */\n    tag_9:\n      0x00\n      dup2\n      dup2\n      sload\n      dup2\n      lt\n      tag_20\n      jumpi\n      0x00\n      dup1\n      revert\n    tag_20:\n      swap1\n      0x00\n      mstore\n      keccak256(0x00, 0x20)\n      add\n      0x00\n      swap2\n      pop\n      sload\n      swap1\n      0x0100\n      exp\n      swap1\n      div\n      0xffffffffffffffffffffffffffffffffffffffff\n      and\n      dup2\n      jump\t// out\n        /* \"Nik_MD_project3_1.sol\":933:1089  function addRecord(address _record) public {... */\n    tag_15:\n        /* \"Nik_MD_project3_1.sol\":987:1014  AddressRecord addressRecord */\n      0x00\n        /* \"Nik_MD_project3_1.sol\":1035:1042  _record */\n      dup2\n        /* \"Nik_MD_project3_1.sol\":1017:1043  new AddressRecord(_record) */\n      mload(0x40)\n      tag_23\n      swap1\n      tag_24\n      jump\t// in\n    tag_23:\n      tag_25\n      swap2\n      swap1\n      tag_26\n      jump\t// in\n    tag_25:\n      mload(0x40)\n      dup1\n      swap2\n      sub\n      swap1\n      0x00\n      create\n      dup1\n      iszero\n      dup1\n      iszero\n      tag_27\n      jumpi\n      returndatasize\n      0x00\n      dup1\n      returndatacopy\n      revert(0x00, returndatasize)\n    tag_27:\n      pop\n        /* \"Nik_MD_project3_1.sol\":987:1043  AddressRecord addressRecord = new AddressRecord(_record) */\n      swap1\n      pop\n        /* \"Nik_MD_project3_1.sol\":1054:1061  records */\n      0x00\n        /* \"Nik_MD_project3_1.sol\":1067:1080  addressRecord */\n      dup2\n        /* \"Nik_MD_project3_1.sol\":1054:1081  records.push(addressRecord) */\n      swap1\n      dup1\n      0x01\n      dup2\n      sload\n      add\n      dup1\n      dup3\n      sstore\n      dup1\n      swap2\n      pop\n      pop\n      0x01\n      swap1\n      sub\n      swap1\n      0x00\n      mstore\n      keccak256(0x00, 0x20)\n      add\n      0x00\n      swap1\n      swap2\n      swap1\n      swap2\n      swap1\n      swap2\n      0x0100\n      exp\n      dup2\n      sload\n      dup2\n      0xffffffffffffffffffffffffffffffffffffffff\n      mul\n      not\n      and\n      swap1\n      dup4\n      0xffffffffffffffffffffffffffffffffffffffff\n      and\n      mul\n      or\n      swap1\n      sstore\n      pop\n        /* \"Nik_MD_project3_1.sol\":976:1089  {... */\n      pop\n        /* \"Nik_MD_project3_1.sol\":933:1089  function addRecord(address _record) public {... */\n      pop\n      jump\t// out\n        /* \"Nik_MD_project3_1.sol\":1097:1257  function addRecord(string memory _record) public {... */\n    tag_19:\n        /* \"Nik_MD_project3_1.sol\":1157:1182  StringRecord stringRecord */\n      0x00\n        /* \"Nik_MD_project3_1.sol\":1202:1209  _record */\n      dup2\n        /* \"Nik_MD_project3_1.sol\":1185:1210  new StringRecord(_record) */\n      mload(0x40)\n      tag_30\n      swap1\n      tag_31\n      jump\t// in\n    tag_30:\n      tag_32\n      swap2\n      swap1\n      tag_33\n      jump\t// in\n    tag_32:\n      mload(0x40)\n      dup1\n      swap2\n      sub\n      swap1\n      0x00\n      create\n      dup1\n      iszero\n      dup1\n      iszero\n      tag_34\n      jumpi\n      returndatasize\n      0x00\n      dup1\n      returndatacopy\n      revert(0x00, returndatasize)\n    tag_34:\n      pop\n        /* \"Nik_MD_project3_1.sol\":1157:1210  StringRecord stringRecord = new StringRecord(_record) */\n      swap1\n      pop\n        /* \"Nik_MD_project3_1.sol\":1221:1228  records */\n      0x00\n        /* \"Nik_MD_project3_1.sol\":1234:1246  stringRecord */\n      dup2\n        /* \"Nik_MD_project3_1.sol\":1221:1247  records.push(stringRecord) */\n      swap1\n      dup1\n      0x01\n      dup2\n      sload\n      add\n      dup1\n      dup3\n      sstore\n      dup1\n      swap2\n      pop\n      pop\n      0x01\n      swap1\n      sub\n      swap1\n      0x00\n      mstore\n      keccak256(0x00, 0x20)\n      add\n      0x00\n      swap1\n      swap2\n      swap1\n      swap2\n      swap1\n      swap2\n      0x0100\n      exp\n      dup2\n      sload\n      dup2\n      0xffffffffffffffffffffffffffffffffffffffff\n      mul\n      not\n      and\n      swap1\n      dup4\n      0xffffffffffffffffffffffffffffffffffffffff\n      and\n      mul\n      or\n      swap1\n      sstore\n      pop\n        /* \"Nik_MD_project3_1.sol\":1146:1257  {... */\n      pop\n        /* \"Nik_MD_project3_1.sol\":1097:1257  function addRecord(string memory _record) public {... */\n      pop\n      jump\t// out\n    tag_24:\n      dataSize(sub_0)\n      dup1\n      dataOffset(sub_0)\n      dup4\n      codecopy\n      add\n      swap1\n      jump\t// out\n    tag_31:\n      dataSize(sub_1)\n      dup1\n      dataOffset(sub_1)\n      dup4\n      codecopy\n      add\n      swap1\n      jump\t// out\n        /* \"#utility.yul\":7:82   */\n    tag_36:\n        /* \"#utility.yul\":40:46   */\n      0x00\n        /* \"#utility.yul\":73:75   */\n      0x40\n        /* \"#utility.yul\":67:76   */\n      mload\n        /* \"#utility.yul\":57:76   */\n      swap1\n      pop\n        /* \"#utility.yul\":7:82   */\n      swap1\n      jump\t// out\n        /* \"#utility.yul\":88:205   */\n    tag_37:\n        /* \"#utility.yul\":197:198   */\n      0x00\n        /* \"#utility.yul\":194:195   */\n      dup1\n        /* \"#utility.yul\":187:199   */\n      revert\n        /* \"#utility.yul\":211:328   */\n    tag_38:\n        /* \"#utility.yul\":320:321   */\n      0x00\n        /* \"#utility.yul\":317:318   */\n      dup1\n        /* \"#utility.yul\":310:322   */\n      revert\n        /* \"#utility.yul\":334:411   */\n    tag_39:\n        /* \"#utility.yul\":371:378   */\n      0x00\n        /* \"#utility.yul\":400:405   */\n      dup2\n        /* \"#utility.yul\":389:405   */\n      swap1\n      pop\n        /* \"#utility.yul\":334:411   */\n      swap2\n      swap1\n      pop\n      jump\t// out\n        /* \"#utility.yul\":417:539   */\n    tag_40:\n        /* \"#utility.yul\":490:514   */\n      tag_72\n        /* \"#utility.yul\":508:513   */\n      dup2\n        /* \"#utility.yul\":490:514   */\n      tag_39\n      jump\t// in\n    tag_72:\n        /* \"#utility.yul\":483:488   */\n      dup2\n        /* \"#utility.yul\":480:515   */\n      eq\n        /* \"#utility.yul\":470:533   */\n      tag_73\n      jumpi\n        /* \"#utility.yul\":529:530   */\n      0x00\n        /* \"#utility.yul\":526:527   */\n      dup1\n        /* \"#utility.yul\":519:531   */\n      revert\n        /* \"#utility.yul\":470:533   */\n    tag_73:\n        /* \"#utility.yul\":417:539   */\n      pop\n      jump\t// out\n        /* \"#utility.yul\":545:684   */\n    tag_41:\n        /* \"#utility.yul\":591:596   */\n      0x00\n        /* \"#utility.yul\":629:635   */\n      dup2\n        /* \"#utility.yul\":616:636   */\n      calldataload\n        /* \"#utility.yul\":607:636   */\n      swap1\n      pop\n        /* \"#utility.yul\":645:678   */\n      tag_75\n        /* \"#utility.yul\":672:677   */\n      dup2\n        /* \"#utility.yul\":645:678   */\n      tag_40\n      jump\t// in\n    tag_75:\n        /* \"#utility.yul\":545:684   */\n      swap3\n      swap2\n      pop\n      pop\n      jump\t// out\n        /* \"#utility.yul\":690:1019   */\n    tag_8:\n        /* \"#utility.yul\":749:755   */\n      0x00\n        /* \"#utility.yul\":798:800   */\n      0x20\n        /* \"#utility.yul\":786:795   */\n      dup3\n        /* \"#utility.yul\":777:784   */\n      dup5\n        /* \"#utility.yul\":773:796   */\n      sub\n        /* \"#utility.yul\":769:801   */\n      slt\n        /* \"#utility.yul\":766:885   */\n      iszero\n      tag_77\n      jumpi\n        /* \"#utility.yul\":804:883   */\n      tag_78\n      tag_37\n      jump\t// in\n    tag_78:\n        /* \"#utility.yul\":766:885   */\n    tag_77:\n        /* \"#utility.yul\":924:925   */\n      0x00\n        /* \"#utility.yul\":949:1002   */\n      tag_79\n        /* \"#utility.yul\":994:1001   */\n      dup5\n        /* \"#utility.yul\":985:991   */\n      dup3\n        /* \"#utility.yul\":974:983   */\n      dup6\n        /* \"#utility.yul\":970:992   */\n      add\n        /* \"#utility.yul\":949:1002   */\n      tag_41\n      jump\t// in\n    tag_79:\n        /* \"#utility.yul\":939:1002   */\n      swap2\n      pop\n        /* \"#utility.yul\":895:1012   */\n      pop\n        /* \"#utility.yul\":690:1019   */\n      swap3\n      swap2\n      pop\n      pop\n      jump\t// out\n        /* \"#utility.yul\":1025:1151   */\n    tag_42:\n        /* \"#utility.yul\":1062:1069   */\n      0x00\n        /* \"#utility.yul\":1102:1144   */\n      0xffffffffffffffffffffffffffffffffffffffff\n        /* \"#utility.yul\":1095:1100   */\n      dup3\n        /* \"#utility.yul\":1091:1145   */\n      and\n        /* \"#utility.yul\":1080:1145   */\n      swap1\n      pop\n        /* \"#utility.yul\":1025:1151   */\n      swap2\n      swap1\n      pop\n      jump\t// out\n        /* \"#utility.yul\":1157:1217   */\n    tag_43:\n        /* \"#utility.yul\":1185:1188   */\n      0x00\n        /* \"#utility.yul\":1206:1211   */\n      dup2\n        /* \"#utility.yul\":1199:1211   */\n      swap1\n      pop\n        /* \"#utility.yul\":1157:1217   */\n      swap2\n      swap1\n      pop\n      jump\t// out\n        /* \"#utility.yul\":1223:1365   */\n    tag_44:\n        /* \"#utility.yul\":1273:1282   */\n      0x00\n        /* \"#utility.yul\":1306:1359   */\n      tag_83\n        /* \"#utility.yul\":1324:1358   */\n      tag_84\n        /* \"#utility.yul\":1333:1357   */\n      tag_85\n        /* \"#utility.yul\":1351:1356   */\n      dup5\n        /* \"#utility.yul\":1333:1357   */\n      tag_42\n      jump\t// in\n    tag_85:\n        /* \"#utility.yul\":1324:1358   */\n      tag_43\n      jump\t// in\n    tag_84:\n        /* \"#utility.yul\":1306:1359   */\n      tag_42\n      jump\t// in\n    tag_83:\n        /* \"#utility.yul\":1293:1359   */\n      swap1\n      pop\n        /* \"#utility.yul\":1223:1365   */\n      swap2\n      swap1\n      pop\n      jump\t// out\n        /* \"#utility.yul\":1371:1497   */\n    tag_45:\n        /* \"#utility.yul\":1421:1430   */\n      0x00\n        /* \"#utility.yul\":1454:1491   */\n      tag_87\n        /* \"#utility.yul\":1485:1490   */\n      dup3\n        /* \"#utility.yul\":1454:1491   */\n      tag_44\n      jump\t// in\n    tag_87:\n        /* \"#utility.yul\":1441:1491   */\n      swap1\n      pop\n        /* \"#utility.yul\":1371:1497   */\n      swap2\n      swap1\n      pop\n      jump\t// out\n        /* \"#utility.yul\":1503:1642   */\n    tag_46:\n        /* \"#utility.yul\":1566:1575   */\n      0x00\n        /* \"#utility.yul\":1599:1636   */\n      tag_89\n        /* \"#utility.yul\":1630:1635   */\n      dup3\n        /* \"#utility.yul\":1599:1636   */\n      tag_45\n      jump\t// in\n    tag_89:\n        /* \"#utility.yul\":1586:1636   */\n      swap1\n      pop\n        /* \"#utility.yul\":1503:1642   */\n      swap2\n      swap1\n      pop\n      jump\t// out\n        /* \"#utility.yul\":1648:1805   */\n    tag_47:\n        /* \"#utility.yul\":1748:1798   */\n      tag_91\n        /* \"#utility.yul\":1792:1797   */\n      dup2\n        /* \"#utility.yul\":1748:1798   */\n      tag_46\n      jump\t// in\n    tag_91:\n        /* \"#utility.yul\":1743:1746   */\n      dup3\n        /* \"#utility.yul\":1736:1799   */\n      mstore\n        /* \"#utility.yul\":1648:1805   */\n      pop\n      pop\n      jump\t// out\n        /* \"#utility.yul\":1811:2059   */\n    tag_11:\n        /* \"#utility.yul\":1917:1921   */\n      0x00\n        /* \"#utility.yul\":1955:1957   */\n      0x20\n        /* \"#utility.yul\":1944:1953   */\n      dup3\n        /* \"#utility.yul\":1940:1958   */\n      add\n        /* \"#utility.yul\":1932:1958   */\n      swap1\n      pop\n        /* \"#utility.yul\":1968:2052   */\n      tag_93\n        /* \"#utility.yul\":2049:2050   */\n      0x00\n        /* \"#utility.yul\":2038:2047   */\n      dup4\n        /* \"#utility.yul\":2034:2051   */\n      add\n        /* \"#utility.yul\":2025:2031   */\n      dup5\n        /* \"#utility.yul\":1968:2052   */\n      tag_47\n      jump\t// in\n    tag_93:\n        /* \"#utility.yul\":1811:2059   */\n      swap3\n      swap2\n      pop\n      pop\n      jump\t// out\n        /* \"#utility.yul\":2065:2161   */\n    tag_48:\n        /* \"#utility.yul\":2102:2109   */\n      0x00\n        /* \"#utility.yul\":2131:2155   */\n      tag_95\n        /* \"#utility.yul\":2149:2154   */\n      dup3\n        /* \"#utility.yul\":2131:2155   */\n      tag_42\n      jump\t// in\n    tag_95:\n        /* \"#utility.yul\":2120:2155   */\n      swap1\n      pop\n        /* \"#utility.yul\":2065:2161   */\n      swap2\n      swap1\n      pop\n      jump\t// out\n        /* \"#utility.yul\":2167:2289   */\n    tag_49:\n        /* \"#utility.yul\":2240:2264   */\n      tag_97\n        /* \"#utility.yul\":2258:2263   */\n      dup2\n        /* \"#utility.yul\":2240:2264   */\n      tag_48\n      jump\t// in\n    tag_97:\n        /* \"#utility.yul\":2233:2238   */\n      dup2\n        /* \"#utility.yul\":2230:2265   */\n      eq\n        /* \"#utility.yul\":2220:2283   */\n      tag_98\n      jumpi\n        /* \"#utility.yul\":2279:2280   */\n      0x00\n        /* \"#utility.yul\":2276:2277   */\n      dup1\n        /* \"#utility.yul\":2269:2281   */\n      revert\n        /* \"#utility.yul\":2220:2283   */\n    tag_98:\n        /* \"#utility.yul\":2167:2289   */\n      pop\n      jump\t// out\n        /* \"#utility.yul\":2295:2434   */\n    tag_50:\n        /* \"#utility.yul\":2341:2346   */\n      0x00\n        /* \"#utility.yul\":2379:2385   */\n      dup2\n        /* \"#utility.yul\":2366:2386   */\n      calldataload\n        /* \"#utility.yul\":2357:2386   */\n      swap1\n      pop\n        /* \"#utility.yul\":2395:2428   */\n      tag_100\n        /* \"#utility.yul\":2422:2427   */\n      dup2\n        /* \"#utility.yul\":2395:2428   */\n      tag_49\n      jump\t// in\n    tag_100:\n        /* \"#utility.yul\":2295:2434   */\n      swap3\n      swap2\n      pop\n      pop\n      jump\t// out\n        /* \"#utility.yul\":2440:2769   */\n    tag_14:\n        /* \"#utility.yul\":2499:2505   */\n      0x00\n        /* \"#utility.yul\":2548:2550   */\n      0x20\n        /* \"#utility.yul\":2536:2545   */\n      dup3\n        /* \"#utility.yul\":2527:2534   */\n      dup5\n        /* \"#utility.yul\":2523:2546   */\n      sub\n        /* \"#utility.yul\":2519:2551   */\n      slt\n        /* \"#utility.yul\":2516:2635   */\n      iszero\n      tag_102\n      jumpi\n        /* \"#utility.yul\":2554:2633   */\n      tag_103\n      tag_37\n      jump\t// in\n    tag_103:\n        /* \"#utility.yul\":2516:2635   */\n    tag_102:\n        /* \"#utility.yul\":2674:2675   */\n      0x00\n        /* \"#utility.yul\":2699:2752   */\n      tag_104\n        /* \"#utility.yul\":2744:2751   */\n      dup5\n        /* \"#utility.yul\":2735:2741   */\n      dup3\n        /* \"#utility.yul\":2724:2733   */\n      dup6\n        /* \"#utility.yul\":2720:2742   */\n      add\n        /* \"#utility.yul\":2699:2752   */\n      tag_50\n      jump\t// in\n    tag_104:\n        /* \"#utility.yul\":2689:2752   */\n      swap2\n      pop\n        /* \"#utility.yul\":2645:2762   */\n      pop\n        /* \"#utility.yul\":2440:2769   */\n      swap3\n      swap2\n      pop\n      pop\n      jump\t// out\n        /* \"#utility.yul\":2775:2892   */\n    tag_51:\n        /* \"#utility.yul\":2884:2885   */\n      0x00\n        /* \"#utility.yul\":2881:2882   */\n      dup1\n        /* \"#utility.yul\":2874:2886   */\n      revert\n        /* \"#utility.yul\":2898:3015   */\n    tag_52:\n        /* \"#utility.yul\":3007:3008   */\n      0x00\n        /* \"#utility.yul\":3004:3005   */\n      dup1\n        /* \"#utility.yul\":2997:3009   */\n      revert\n        /* \"#utility.yul\":3021:3123   */\n    tag_53:\n        /* \"#utility.yul\":3062:3068   */\n      0x00\n        /* \"#utility.yul\":3113:3115   */\n      0x1f\n        /* \"#utility.yul\":3109:3116   */\n      not\n        /* \"#utility.yul\":3104:3106   */\n      0x1f\n        /* \"#utility.yul\":3097:3102   */\n      dup4\n        /* \"#utility.yul\":3093:3107   */\n      add\n        /* \"#utility.yul\":3089:3117   */\n      and\n        /* \"#utility.yul\":3079:3117   */\n      swap1\n      pop\n        /* \"#utility.yul\":3021:3123   */\n      swap2\n      swap1\n      pop\n      jump\t// out\n        /* \"#utility.yul\":3129:3309   */\n    tag_54:\n        /* \"#utility.yul\":3177:3254   */\n      0x4e487b7100000000000000000000000000000000000000000000000000000000\n        /* \"#utility.yul\":3174:3175   */\n      0x00\n        /* \"#utility.yul\":3167:3255   */\n      mstore\n        /* \"#utility.yul\":3274:3278   */\n      0x41\n        /* \"#utility.yul\":3271:3272   */\n      0x04\n        /* \"#utility.yul\":3264:3279   */\n      mstore\n        /* \"#utility.yul\":3298:3302   */\n      0x24\n        /* \"#utility.yul\":3295:3296   */\n      0x00\n        /* \"#utility.yul\":3288:3303   */\n      revert\n        /* \"#utility.yul\":3315:3596   */\n    tag_55:\n        /* \"#utility.yul\":3398:3425   */\n      tag_110\n        /* \"#utility.yul\":3420:3424   */\n      dup3\n        /* \"#utility.yul\":3398:3425   */\n      tag_53\n      jump\t// in\n    tag_110:\n        /* \"#utility.yul\":3390:3396   */\n      dup2\n        /* \"#utility.yul\":3386:3426   */\n      add\n        /* \"#utility.yul\":3528:3534   */\n      dup2\n        /* \"#utility.yul\":3516:3526   */\n      dup2\n        /* \"#utility.yul\":3513:3535   */\n      lt\n        /* \"#utility.yul\":3492:3510   */\n      0xffffffffffffffff\n        /* \"#utility.yul\":3480:3490   */\n      dup3\n        /* \"#utility.yul\":3477:3511   */\n      gt\n        /* \"#utility.yul\":3474:3536   */\n      or\n        /* \"#utility.yul\":3471:3559   */\n      iszero\n      tag_111\n      jumpi\n        /* \"#utility.yul\":3539:3557   */\n      tag_112\n      tag_54\n      jump\t// in\n    tag_112:\n        /* \"#utility.yul\":3471:3559   */\n    tag_111:\n        /* \"#utility.yul\":3579:3589   */\n      dup1\n        /* \"#utility.yul\":3575:3577   */\n      0x40\n        /* \"#utility.yul\":3568:3590   */\n      mstore\n        /* \"#utility.yul\":3358:3596   */\n      pop\n        /* \"#utility.yul\":3315:3596   */\n      pop\n      pop\n      jump\t// out\n        /* \"#utility.yul\":3602:3731   */\n    tag_56:\n        /* \"#utility.yul\":3636:3642   */\n      0x00\n        /* \"#utility.yul\":3663:3683   */\n      tag_114\n      tag_36\n      jump\t// in\n    tag_114:\n        /* \"#utility.yul\":3653:3683   */\n      swap1\n      pop\n        /* \"#utility.yul\":3692:3725   */\n      tag_115\n        /* \"#utility.yul\":3720:3724   */\n      dup3\n        /* \"#utility.yul\":3712:3718   */\n      dup3\n        /* \"#utility.yul\":3692:3725   */\n      tag_55\n      jump\t// in\n    tag_115:\n        /* \"#utility.yul\":3602:3731   */\n      swap2\n      swap1\n      pop\n      jump\t// out\n        /* \"#utility.yul\":3737:4045   */\n    tag_57:\n        /* \"#utility.yul\":3799:3803   */\n      0x00\n        /* \"#utility.yul\":3889:3907   */\n      0xffffffffffffffff\n        /* \"#utility.yul\":3881:3887   */\n      dup3\n        /* \"#utility.yul\":3878:3908   */\n      gt\n        /* \"#utility.yul\":3875:3931   */\n      iszero\n      tag_117\n      jumpi\n        /* \"#utility.yul\":3911:3929   */\n      tag_118\n      tag_54\n      jump\t// in\n    tag_118:\n        /* \"#utility.yul\":3875:3931   */\n    tag_117:\n        /* \"#utility.yul\":3949:3978   */\n      tag_119\n        /* \"#utility.yul\":3971:3977   */\n      dup3\n        /* \"#utility.yul\":3949:3978   */\n      tag_53\n      jump\t// in\n    tag_119:\n        /* \"#utility.yul\":3941:3978   */\n      swap1\n      pop\n        /* \"#utility.yul\":4033:4037   */\n      0x20\n        /* \"#utility.yul\":4027:4031   */\n      dup2\n        /* \"#utility.yul\":4023:4038   */\n      add\n        /* \"#utility.yul\":4015:4038   */\n      swap1\n      pop\n        /* \"#utility.yul\":3737:4045   */\n      swap2\n      swap1\n      pop\n      jump\t// out\n        /* \"#utility.yul\":4051:4197   */\n    tag_58:\n        /* \"#utility.yul\":4148:4154   */\n      dup3\n        /* \"#utility.yul\":4143:4146   */\n      dup2\n        /* \"#utility.yul\":4138:4141   */\n      dup4\n        /* \"#utility.yul\":4125:4155   */\n      calldatacopy\n        /* \"#utility.yul\":4189:4190   */\n      0x00\n        /* \"#utility.yul\":4180:4186   */\n      dup4\n        /* \"#utility.yul\":4175:4178   */\n      dup4\n        /* \"#utility.yul\":4171:4187   */\n      add\n        /* \"#utility.yul\":4164:4191   */\n      mstore\n        /* \"#utility.yul\":4051:4197   */\n      pop\n      pop\n      pop\n      jump\t// out\n        /* \"#utility.yul\":4203:4628   */\n    tag_59:\n        /* \"#utility.yul\":4281:4286   */\n      0x00\n        /* \"#utility.yul\":4306:4372   */\n      tag_122\n        /* \"#utility.yul\":4322:4371   */\n      tag_123\n        /* \"#utility.yul\":4364:4370   */\n      dup5\n        /* \"#utility.yul\":4322:4371   */\n      tag_57\n      jump\t// in\n    tag_123:\n        /* \"#utility.yul\":4306:4372   */\n      tag_56\n      jump\t// in\n    tag_122:\n        /* \"#utility.yul\":4297:4372   */\n      swap1\n      pop\n        /* \"#utility.yul\":4395:4401   */\n      dup3\n        /* \"#utility.yul\":4388:4393   */\n      dup2\n        /* \"#utility.yul\":4381:4402   */\n      mstore\n        /* \"#utility.yul\":4433:4437   */\n      0x20\n        /* \"#utility.yul\":4426:4431   */\n      dup2\n        /* \"#utility.yul\":4422:4438   */\n      add\n        /* \"#utility.yul\":4471:4474   */\n      dup5\n        /* \"#utility.yul\":4462:4468   */\n      dup5\n        /* \"#utility.yul\":4457:4460   */\n      dup5\n        /* \"#utility.yul\":4453:4469   */\n      add\n        /* \"#utility.yul\":4450:4475   */\n      gt\n        /* \"#utility.yul\":4447:4559   */\n      iszero\n      tag_124\n      jumpi\n        /* \"#utility.yul\":4478:4557   */\n      tag_125\n      tag_52\n      jump\t// in\n    tag_125:\n        /* \"#utility.yul\":4447:4559   */\n    tag_124:\n        /* \"#utility.yul\":4568:4622   */\n      tag_126\n        /* \"#utility.yul\":4615:4621   */\n      dup5\n        /* \"#utility.yul\":4610:4613   */\n      dup3\n        /* \"#utility.yul\":4605:4608   */\n      dup6\n        /* \"#utility.yul\":4568:4622   */\n      tag_58\n      jump\t// in\n    tag_126:\n        /* \"#utility.yul\":4287:4628   */\n      pop\n        /* \"#utility.yul\":4203:4628   */\n      swap4\n      swap3\n      pop\n      pop\n      pop\n      jump\t// out\n        /* \"#utility.yul\":4648:4988   */\n    tag_60:\n        /* \"#utility.yul\":4704:4709   */\n      0x00\n        /* \"#utility.yul\":4753:4756   */\n      dup3\n        /* \"#utility.yul\":4746:4750   */\n      0x1f\n        /* \"#utility.yul\":4738:4744   */\n      dup4\n        /* \"#utility.yul\":4734:4751   */\n      add\n        /* \"#utility.yul\":4730:4757   */\n      slt\n        /* \"#utility.yul\":4720:4842   */\n      tag_128\n      jumpi\n        /* \"#utility.yul\":4761:4840   */\n      tag_129\n      tag_51\n      jump\t// in\n    tag_129:\n        /* \"#utility.yul\":4720:4842   */\n    tag_128:\n        /* \"#utility.yul\":4878:4884   */\n      dup2\n        /* \"#utility.yul\":4865:4885   */\n      calldataload\n        /* \"#utility.yul\":4903:4982   */\n      tag_130\n        /* \"#utility.yul\":4978:4981   */\n      dup5\n        /* \"#utility.yul\":4970:4976   */\n      dup3\n        /* \"#utility.yul\":4963:4967   */\n      0x20\n        /* \"#utility.yul\":4955:4961   */\n      dup7\n        /* \"#utility.yul\":4951:4968   */\n      add\n        /* \"#utility.yul\":4903:4982   */\n      tag_59\n      jump\t// in\n    tag_130:\n        /* \"#utility.yul\":4894:4982   */\n      swap2\n      pop\n        /* \"#utility.yul\":4710:4988   */\n      pop\n        /* \"#utility.yul\":4648:4988   */\n      swap3\n      swap2\n      pop\n      pop\n      jump\t// out\n        /* \"#utility.yul\":4994:5503   */\n    tag_18:\n        /* \"#utility.yul\":5063:5069   */\n      0x00\n        /* \"#utility.yul\":5112:5114   */\n      0x20\n        /* \"#utility.yul\":5100:5109   */\n      dup3\n        /* \"#utility.yul\":5091:5098   */\n      dup5\n        /* \"#utility.yul\":5087:5110   */\n      sub\n        /* \"#utility.yul\":5083:5115   */\n      slt\n        /* \"#utility.yul\":5080:5199   */\n      iszero\n      tag_132\n      jumpi\n        /* \"#utility.yul\":5118:5197   */\n      tag_133\n      tag_37\n      jump\t// in\n    tag_133:\n        /* \"#utility.yul\":5080:5199   */\n    tag_132:\n        /* \"#utility.yul\":5266:5267   */\n      0x00\n        /* \"#utility.yul\":5255:5264   */\n      dup3\n        /* \"#utility.yul\":5251:5268   */\n      add\n        /* \"#utility.yul\":5238:5269   */\n      calldataload\n        /* \"#utility.yul\":5296:5314   */\n      0xffffffffffffffff\n        /* \"#utility.yul\":5288:5294   */\n      dup2\n        /* \"#utility.yul\":5285:5315   */\n      gt\n        /* \"#utility.yul\":5282:5399   */\n      iszero\n      tag_134\n      jumpi\n        /* \"#utility.yul\":5318:5397   */\n      tag_135\n      tag_38\n      jump\t// in\n    tag_135:\n        /* \"#utility.yul\":5282:5399   */\n    tag_134:\n        /* \"#utility.yul\":5423:5486   */\n      tag_136\n        /* \"#utility.yul\":5478:5485   */\n      dup5\n        /* \"#utility.yul\":5469:5475   */\n      dup3\n        /* \"#utility.yul\":5458:5467   */\n      dup6\n        /* \"#utility.yul\":5454:5476   */\n      add\n        /* \"#utility.yul\":5423:5486   */\n      tag_60\n      jump\t// in\n    tag_136:\n        /* \"#utility.yul\":5413:5486   */\n      swap2\n      pop\n        /* \"#utility.yul\":5209:5496   */\n      pop\n        /* \"#utility.yul\":4994:5503   */\n      swap3\n      swap2\n      pop\n      pop\n      jump\t// out\n        /* \"#utility.yul\":5509:5627   */\n    tag_61:\n        /* \"#utility.yul\":5596:5620   */\n      tag_138\n        /* \"#utility.yul\":5614:5619   */\n      dup2\n        /* \"#utility.yul\":5596:5620   */\n      tag_48\n      jump\t// in\n    tag_138:\n        /* \"#utility.yul\":5591:5594   */\n      dup3\n        /* \"#utility.yul\":5584:5621   */\n      mstore\n        /* \"#utility.yul\":5509:5627   */\n      pop\n      pop\n      jump\t// out\n        /* \"#utility.yul\":5633:5855   */\n    tag_26:\n        /* \"#utility.yul\":5726:5730   */\n      0x00\n        /* \"#utility.yul\":5764:5766   */\n      0x20\n        /* \"#utility.yul\":5753:5762   */\n      dup3\n        /* \"#utility.yul\":5749:5767   */\n      add\n        /* \"#utility.yul\":5741:5767   */\n      swap1\n      pop\n        /* \"#utility.yul\":5777:5848   */\n      tag_140\n        /* \"#utility.yul\":5845:5846   */\n      0x00\n        /* \"#utility.yul\":5834:5843   */\n      dup4\n        /* \"#utility.yul\":5830:5847   */\n      add\n        /* \"#utility.yul\":5821:5827   */\n      dup5\n        /* \"#utility.yul\":5777:5848   */\n      tag_61\n      jump\t// in\n    tag_140:\n        /* \"#utility.yul\":5633:5855   */\n      swap3\n      swap2\n      pop\n      pop\n      jump\t// out\n        /* \"#utility.yul\":5861:5960   */\n    tag_62:\n        /* \"#utility.yul\":5913:5919   */\n      0x00\n        /* \"#utility.yul\":5947:5952   */\n      dup2\n        /* \"#utility.yul\":5941:5953   */\n      mload\n        /* \"#utility.yul\":5931:5953   */\n      swap1\n      pop\n        /* \"#utility.yul\":5861:5960   */\n      swap2\n      swap1\n      pop\n      jump\t// out\n        /* \"#utility.yul\":5966:6135   */\n    tag_63:\n        /* \"#utility.yul\":6050:6061   */\n      0x00\n        /* \"#utility.yul\":6084:6090   */\n      dup3\n        /* \"#utility.yul\":6079:6082   */\n      dup3\n        /* \"#utility.yul\":6072:6091   */\n      mstore\n        /* \"#utility.yul\":6124:6128   */\n      0x20\n        /* \"#utility.yul\":6119:6122   */\n      dup3\n        /* \"#utility.yul\":6115:6129   */\n      add\n        /* \"#utility.yul\":6100:6129   */\n      swap1\n      pop\n        /* \"#utility.yul\":5966:6135   */\n      swap3\n      swap2\n      pop\n      pop\n      jump\t// out\n        /* \"#utility.yul\":6141:6387   */\n    tag_64:\n        /* \"#utility.yul\":6222:6223   */\n      0x00\n        /* \"#utility.yul\":6232:6345   */\n    tag_144:\n        /* \"#utility.yul\":6246:6252   */\n      dup4\n        /* \"#utility.yul\":6243:6244   */\n      dup2\n        /* \"#utility.yul\":6240:6253   */\n      lt\n        /* \"#utility.yul\":6232:6345   */\n      iszero\n      tag_146\n      jumpi\n        /* \"#utility.yul\":6331:6332   */\n      dup1\n        /* \"#utility.yul\":6326:6329   */\n      dup3\n        /* \"#utility.yul\":6322:6333   */\n      add\n        /* \"#utility.yul\":6316:6334   */\n      mload\n        /* \"#utility.yul\":6312:6313   */\n      dup2\n        /* \"#utility.yul\":6307:6310   */\n      dup5\n        /* \"#utility.yul\":6303:6314   */\n      add\n        /* \"#utility.yul\":6296:6335   */\n      mstore\n        /* \"#utility.yul\":6268:6270   */\n      0x20\n        /* \"#utility.yul\":6265:6266   */\n      dup2\n        /* \"#utility.yul\":6261:6271   */\n      add\n        /* \"#utility.yul\":6256:6271   */\n      swap1\n      pop\n        /* \"#utility.yul\":6232:6345   */\n      jump(tag_144)\n    tag_146:\n        /* \"#utility.yul\":6379:6380   */\n      0x00\n        /* \"#utility.yul\":6370:6376   */\n      dup5\n        /* \"#utility.yul\":6365:6368   */\n      dup5\n        /* \"#utility.yul\":6361:6377   */\n      add\n        /* \"#utility.yul\":6354:6381   */\n      mstore\n        /* \"#utility.yul\":6203:6387   */\n      pop\n        /* \"#utility.yul\":6141:6387   */\n      pop\n      pop\n      pop\n      jump\t// out\n        /* \"#utility.yul\":6393:6770   */\n    tag_65:\n        /* \"#utility.yul\":6481:6484   */\n      0x00\n        /* \"#utility.yul\":6509:6548   */\n      tag_148\n        /* \"#utility.yul\":6542:6547   */\n      dup3\n        /* \"#utility.yul\":6509:6548   */\n      tag_62\n      jump\t// in\n    tag_148:\n        /* \"#utility.yul\":6564:6635   */\n      tag_149\n        /* \"#utility.yul\":6628:6634   */\n      dup2\n        /* \"#utility.yul\":6623:6626   */\n      dup6\n        /* \"#utility.yul\":6564:6635   */\n      tag_63\n      jump\t// in\n    tag_149:\n        /* \"#utility.yul\":6557:6635   */\n      swap4\n      pop\n        /* \"#utility.yul\":6644:6709   */\n      tag_150\n        /* \"#utility.yul\":6702:6708   */\n      dup2\n        /* \"#utility.yul\":6697:6700   */\n      dup6\n        /* \"#utility.yul\":6690:6694   */\n      0x20\n        /* \"#utility.yul\":6683:6688   */\n      dup7\n        /* \"#utility.yul\":6679:6695   */\n      add\n        /* \"#utility.yul\":6644:6709   */\n      tag_64\n      jump\t// in\n    tag_150:\n        /* \"#utility.yul\":6734:6763   */\n      tag_151\n        /* \"#utility.yul\":6756:6762   */\n      dup2\n        /* \"#utility.yul\":6734:6763   */\n      tag_53\n      jump\t// in\n    tag_151:\n        /* \"#utility.yul\":6729:6732   */\n      dup5\n        /* \"#utility.yul\":6725:6764   */\n      add\n        /* \"#utility.yul\":6718:6764   */\n      swap2\n      pop\n        /* \"#utility.yul\":6485:6770   */\n      pop\n        /* \"#utility.yul\":6393:6770   */\n      swap3\n      swap2\n      pop\n      pop\n      jump\t// out\n        /* \"#utility.yul\":6776:7089   */\n    tag_33:\n        /* \"#utility.yul\":6889:6893   */\n      0x00\n        /* \"#utility.yul\":6927:6929   */\n      0x20\n        /* \"#utility.yul\":6916:6925   */\n      dup3\n        /* \"#utility.yul\":6912:6930   */\n      add\n        /* \"#utility.yul\":6904:6930   */\n      swap1\n      pop\n        /* \"#utility.yul\":6976:6985   */\n      dup2\n        /* \"#utility.yul\":6970:6974   */\n      dup2\n        /* \"#utility.yul\":6966:6986   */\n      sub\n        /* \"#utility.yul\":6962:6963   */\n      0x00\n        /* \"#utility.yul\":6951:6960   */\n      dup4\n        /* \"#utility.yul\":6947:6964   */\n      add\n        /* \"#utility.yul\":6940:6987   */\n      mstore\n        /* \"#utility.yul\":7004:7082   */\n      tag_153\n        /* \"#utility.yul\":7077:7081   */\n      dup2\n        /* \"#utility.yul\":7068:7074   */\n      dup5\n        /* \"#utility.yul\":7004:7082   */\n      tag_65\n      jump\t// in\n    tag_153:\n        /* \"#utility.yul\":6996:7082   */\n      swap1\n      pop\n        /* \"#utility.yul\":6776:7089   */\n      swap3\n      swap2\n      pop\n      pop\n      jump\t// out\n    stop\n\n    sub_0: assembly {\n            /* \"Nik_MD_project3_1.sol\":540:867  contract AddressRecord is Record {... */\n          mstore(0x40, 0x80)\n            /* \"Nik_MD_project3_1.sol\":610:674  constructor(address _record) {... */\n          callvalue\n          dup1\n          iszero\n          tag_1\n          jumpi\n          0x00\n          dup1\n          revert\n        tag_1:\n          pop\n          mload(0x40)\n          sub(codesize, bytecodeSize)\n          dup1\n          bytecodeSize\n          dup4\n          codecopy\n          dup2\n          dup2\n          add\n          0x40\n          mstore\n          dup2\n          add\n          swap1\n          tag_2\n          swap2\n          swap1\n          tag_3\n          jump\t// in\n        tag_2:\n            /* \"Nik_MD_project3_1.sol\":170:185  block.timestamp */\n          timestamp\n            /* \"Nik_MD_project3_1.sol\":153:167  timeOfCreation */\n          0x00\n            /* \"Nik_MD_project3_1.sol\":153:185  timeOfCreation = block.timestamp */\n          dup2\n          swap1\n          sstore\n          pop\n            /* \"Nik_MD_project3_1.sol\":659:666  _record */\n          dup1\n            /* \"Nik_MD_project3_1.sol\":650:656  record */\n          0x01\n          0x00\n            /* \"Nik_MD_project3_1.sol\":650:666  record = _record */\n          0x0100\n          exp\n          dup2\n          sload\n          dup2\n          0xffffffffffffffffffffffffffffffffffffffff\n          mul\n          not\n          and\n          swap1\n          dup4\n          0xffffffffffffffffffffffffffffffffffffffff\n          and\n          mul\n          or\n          swap1\n          sstore\n          pop\n            /* \"Nik_MD_project3_1.sol\":610:674  constructor(address _record) {... */\n          pop\n            /* \"Nik_MD_project3_1.sol\":540:867  contract AddressRecord is Record {... */\n          jump(tag_8)\n            /* \"#utility.yul\":88:205   */\n        tag_10:\n            /* \"#utility.yul\":197:198   */\n          0x00\n            /* \"#utility.yul\":194:195   */\n          dup1\n            /* \"#utility.yul\":187:199   */\n          revert\n            /* \"#utility.yul\":334:460   */\n        tag_12:\n            /* \"#utility.yul\":371:378   */\n          0x00\n            /* \"#utility.yul\":411:453   */\n          0xffffffffffffffffffffffffffffffffffffffff\n            /* \"#utility.yul\":404:409   */\n          dup3\n            /* \"#utility.yul\":400:454   */\n          and\n            /* \"#utility.yul\":389:454   */\n          swap1\n          pop\n            /* \"#utility.yul\":334:460   */\n          swap2\n          swap1\n          pop\n          jump\t// out\n            /* \"#utility.yul\":466:562   */\n        tag_13:\n            /* \"#utility.yul\":503:510   */\n          0x00\n            /* \"#utility.yul\":532:556   */\n          tag_22\n            /* \"#utility.yul\":550:555   */\n          dup3\n            /* \"#utility.yul\":532:556   */\n          tag_12\n          jump\t// in\n        tag_22:\n            /* \"#utility.yul\":521:556   */\n          swap1\n          pop\n            /* \"#utility.yul\":466:562   */\n          swap2\n          swap1\n          pop\n          jump\t// out\n            /* \"#utility.yul\":568:690   */\n        tag_14:\n            /* \"#utility.yul\":641:665   */\n          tag_24\n            /* \"#utility.yul\":659:664   */\n          dup2\n            /* \"#utility.yul\":641:665   */\n          tag_13\n          jump\t// in\n        tag_24:\n            /* \"#utility.yul\":634:639   */\n          dup2\n            /* \"#utility.yul\":631:666   */\n          eq\n            /* \"#utility.yul\":621:684   */\n          tag_25\n          jumpi\n            /* \"#utility.yul\":680:681   */\n          0x00\n            /* \"#utility.yul\":677:678   */\n          dup1\n            /* \"#utility.yul\":670:682   */\n          revert\n            /* \"#utility.yul\":621:684   */\n        tag_25:\n            /* \"#utility.yul\":568:690   */\n          pop\n          jump\t// out\n            /* \"#utility.yul\":696:839   */\n        tag_15:\n            /* \"#utility.yul\":753:758   */\n          0x00\n            /* \"#utility.yul\":784:790   */\n          dup2\n            /* \"#utility.yul\":778:791   */\n          mload\n            /* \"#utility.yul\":769:791   */\n          swap1\n          pop\n            /* \"#utility.yul\":800:833   */\n          tag_27\n            /* \"#utility.yul\":827:832   */\n          dup2\n            /* \"#utility.yul\":800:833   */\n          tag_14\n          jump\t// in\n        tag_27:\n            /* \"#utility.yul\":696:839   */\n          swap3\n          swap2\n          pop\n          pop\n          jump\t// out\n            /* \"#utility.yul\":845:1196   */\n        tag_3:\n            /* \"#utility.yul\":915:921   */\n          0x00\n            /* \"#utility.yul\":964:966   */\n          0x20\n            /* \"#utility.yul\":952:961   */\n          dup3\n            /* \"#utility.yul\":943:950   */\n          dup5\n            /* \"#utility.yul\":939:962   */\n          sub\n            /* \"#utility.yul\":935:967   */\n          slt\n            /* \"#utility.yul\":932:1051   */\n          iszero\n          tag_29\n          jumpi\n            /* \"#utility.yul\":970:1049   */\n          tag_30\n          tag_10\n          jump\t// in\n        tag_30:\n            /* \"#utility.yul\":932:1051   */\n        tag_29:\n            /* \"#utility.yul\":1090:1091   */\n          0x00\n            /* \"#utility.yul\":1115:1179   */\n          tag_31\n            /* \"#utility.yul\":1171:1178   */\n          dup5\n            /* \"#utility.yul\":1162:1168   */\n          dup3\n            /* \"#utility.yul\":1151:1160   */\n          dup6\n            /* \"#utility.yul\":1147:1169   */\n          add\n            /* \"#utility.yul\":1115:1179   */\n          tag_15\n          jump\t// in\n        tag_31:\n            /* \"#utility.yul\":1105:1179   */\n          swap2\n          pop\n            /* \"#utility.yul\":1061:1189   */\n          pop\n            /* \"#utility.yul\":845:1196   */\n          swap3\n          swap2\n          pop\n          pop\n          jump\t// out\n            /* \"Nik_MD_project3_1.sol\":540:867  contract AddressRecord is Record {... */\n        tag_8:\n          dataSize(sub_0)\n          dup1\n          dataOffset(sub_0)\n          0x00\n          codecopy\n          0x00\n          return\n        stop\n\n        sub_0: assembly {\n                /* \"Nik_MD_project3_1.sol\":540:867  contract AddressRecord is Record {... */\n              mstore(0x40, 0x80)\n              callvalue\n              dup1\n              iszero\n              tag_1\n              jumpi\n              0x00\n              dup1\n              revert\n            tag_1:\n              pop\n              jumpi(tag_2, lt(calldatasize, 0x04))\n              shr(0xe0, calldataload(0x00))\n              dup1\n              0x0781f5c9\n              eq\n              tag_3\n              jumpi\n              dup1\n              0x1dcd69ec\n              eq\n              tag_4\n              jumpi\n              dup1\n              0x266cf109\n              eq\n              tag_5\n              jumpi\n              dup1\n              0xc37787d9\n              eq\n              tag_6\n              jumpi\n            tag_2:\n              0x00\n              dup1\n              revert\n                /* \"Nik_MD_project3_1.sol\":682:778  function getRecordType() public pure returns (string memory) {... */\n            tag_3:\n              tag_7\n              tag_8\n              jump\t// in\n            tag_7:\n              mload(0x40)\n              tag_9\n              swap2\n              swap1\n              tag_10\n              jump\t// in\n            tag_9:\n              mload(0x40)\n              dup1\n              swap2\n              sub\n              swap1\n              return\n                /* \"Nik_MD_project3_1.sol\":93:119  uint public timeOfCreation */\n            tag_4:\n              tag_11\n              tag_12\n              jump\t// in\n            tag_11:\n              mload(0x40)\n              tag_13\n              swap2\n              swap1\n              tag_14\n              jump\t// in\n            tag_13:\n              mload(0x40)\n              dup1\n              swap2\n              sub\n              swap1\n              return\n                /* \"Nik_MD_project3_1.sol\":580:601  address public record */\n            tag_5:\n              tag_15\n              tag_16\n              jump\t// in\n            tag_15:\n              mload(0x40)\n              tag_17\n              swap2\n              swap1\n              tag_18\n              jump\t// in\n            tag_17:\n              mload(0x40)\n              dup1\n              swap2\n              sub\n              swap1\n              return\n                /* \"Nik_MD_project3_1.sol\":786:864  function setRecord(address _record) public {... */\n            tag_6:\n              tag_19\n              0x04\n              dup1\n              calldatasize\n              sub\n              dup2\n              add\n              swap1\n              tag_20\n              swap2\n              swap1\n              tag_21\n              jump\t// in\n            tag_20:\n              tag_22\n              jump\t// in\n            tag_19:\n              stop\n                /* \"Nik_MD_project3_1.sol\":682:778  function getRecordType() public pure returns (string memory) {... */\n            tag_8:\n                /* \"Nik_MD_project3_1.sol\":728:741  string memory */\n              0x60\n                /* \"Nik_MD_project3_1.sol\":754:770  return \"address\" */\n              mload(0x40)\n              dup1\n              0x40\n              add\n              0x40\n              mstore\n              dup1\n              0x07\n              dup2\n              mstore\n              0x20\n              add\n              0x6164647265737300000000000000000000000000000000000000000000000000\n              dup2\n              mstore\n              pop\n              swap1\n              pop\n                /* \"Nik_MD_project3_1.sol\":682:778  function getRecordType() public pure returns (string memory) {... */\n              swap1\n              jump\t// out\n                /* \"Nik_MD_project3_1.sol\":93:119  uint public timeOfCreation */\n            tag_12:\n              sload(0x00)\n              dup2\n              jump\t// out\n                /* \"Nik_MD_project3_1.sol\":580:601  address public record */\n            tag_16:\n              0x01\n              0x00\n              swap1\n              sload\n              swap1\n              0x0100\n              exp\n              swap1\n              div\n              0xffffffffffffffffffffffffffffffffffffffff\n              and\n              dup2\n              jump\t// out\n                /* \"Nik_MD_project3_1.sol\":786:864  function setRecord(address _record) public {... */\n            tag_22:\n                /* \"Nik_MD_project3_1.sol\":849:856  _record */\n              dup1\n                /* \"Nik_MD_project3_1.sol\":840:846  record */\n              0x01\n              0x00\n                /* \"Nik_MD_project3_1.sol\":840:856  record = _record */\n              0x0100\n              exp\n              dup2\n              sload\n              dup2\n              0xffffffffffffffffffffffffffffffffffffffff\n              mul\n              not\n              and\n              swap1\n              dup4\n              0xffffffffffffffffffffffffffffffffffffffff\n              and\n              mul\n              or\n              swap1\n              sstore\n              pop\n                /* \"Nik_MD_project3_1.sol\":786:864  function setRecord(address _record) public {... */\n              pop\n              jump\t// out\n                /* \"#utility.yul\":7:106   */\n            tag_25:\n                /* \"#utility.yul\":59:65   */\n              0x00\n                /* \"#utility.yul\":93:98   */\n              dup2\n                /* \"#utility.yul\":87:99   */\n              mload\n                /* \"#utility.yul\":77:99   */\n              swap1\n              pop\n                /* \"#utility.yul\":7:106   */\n              swap2\n              swap1\n              pop\n              jump\t// out\n                /* \"#utility.yul\":112:281   */\n            tag_26:\n                /* \"#utility.yul\":196:207   */\n              0x00\n                /* \"#utility.yul\":230:236   */\n              dup3\n                /* \"#utility.yul\":225:228   */\n              dup3\n                /* \"#utility.yul\":218:237   */\n              mstore\n                /* \"#utility.yul\":270:274   */\n              0x20\n                /* \"#utility.yul\":265:268   */\n              dup3\n                /* \"#utility.yul\":261:275   */\n              add\n                /* \"#utility.yul\":246:275   */\n              swap1\n              pop\n                /* \"#utility.yul\":112:281   */\n              swap3\n              swap2\n              pop\n              pop\n              jump\t// out\n                /* \"#utility.yul\":287:533   */\n            tag_27:\n                /* \"#utility.yul\":368:369   */\n              0x00\n                /* \"#utility.yul\":378:491   */\n            tag_44:\n                /* \"#utility.yul\":392:398   */\n              dup4\n                /* \"#utility.yul\":389:390   */\n              dup2\n                /* \"#utility.yul\":386:399   */\n              lt\n                /* \"#utility.yul\":378:491   */\n              iszero\n              tag_46\n              jumpi\n                /* \"#utility.yul\":477:478   */\n              dup1\n                /* \"#utility.yul\":472:475   */\n              dup3\n                /* \"#utility.yul\":468:479   */\n              add\n                /* \"#utility.yul\":462:480   */\n              mload\n                /* \"#utility.yul\":458:459   */\n              dup2\n                /* \"#utility.yul\":453:456   */\n              dup5\n                /* \"#utility.yul\":449:460   */\n              add\n                /* \"#utility.yul\":442:481   */\n              mstore\n                /* \"#utility.yul\":414:416   */\n              0x20\n                /* \"#utility.yul\":411:412   */\n              dup2\n                /* \"#utility.yul\":407:417   */\n              add\n                /* \"#utility.yul\":402:417   */\n              swap1\n              pop\n                /* \"#utility.yul\":378:491   */\n              jump(tag_44)\n            tag_46:\n                /* \"#utility.yul\":525:526   */\n              0x00\n                /* \"#utility.yul\":516:522   */\n              dup5\n                /* \"#utility.yul\":511:514   */\n              dup5\n                /* \"#utility.yul\":507:523   */\n              add\n                /* \"#utility.yul\":500:527   */\n              mstore\n                /* \"#utility.yul\":349:533   */\n              pop\n                /* \"#utility.yul\":287:533   */\n              pop\n              pop\n              pop\n              jump\t// out\n                /* \"#utility.yul\":539:641   */\n            tag_28:\n                /* \"#utility.yul\":580:586   */\n              0x00\n                /* \"#utility.yul\":631:633   */\n              0x1f\n                /* \"#utility.yul\":627:634   */\n              not\n                /* \"#utility.yul\":622:624   */\n              0x1f\n                /* \"#utility.yul\":615:620   */\n              dup4\n                /* \"#utility.yul\":611:625   */\n              add\n                /* \"#utility.yul\":607:635   */\n              and\n                /* \"#utility.yul\":597:635   */\n              swap1\n              pop\n                /* \"#utility.yul\":539:641   */\n              swap2\n              swap1\n              pop\n              jump\t// out\n                /* \"#utility.yul\":647:1024   */\n            tag_29:\n                /* \"#utility.yul\":735:738   */\n              0x00\n                /* \"#utility.yul\":763:802   */\n              tag_49\n                /* \"#utility.yul\":796:801   */\n              dup3\n                /* \"#utility.yul\":763:802   */\n              tag_25\n              jump\t// in\n            tag_49:\n                /* \"#utility.yul\":818:889   */\n              tag_50\n                /* \"#utility.yul\":882:888   */\n              dup2\n                /* \"#utility.yul\":877:880   */\n              dup6\n                /* \"#utility.yul\":818:889   */\n              tag_26\n              jump\t// in\n            tag_50:\n                /* \"#utility.yul\":811:889   */\n              swap4\n              pop\n                /* \"#utility.yul\":898:963   */\n              tag_51\n                /* \"#utility.yul\":956:962   */\n              dup2\n                /* \"#utility.yul\":951:954   */\n              dup6\n                /* \"#utility.yul\":944:948   */\n              0x20\n                /* \"#utility.yul\":937:942   */\n              dup7\n                /* \"#utility.yul\":933:949   */\n              add\n                /* \"#utility.yul\":898:963   */\n              tag_27\n              jump\t// in\n            tag_51:\n                /* \"#utility.yul\":988:1017   */\n              tag_52\n                /* \"#utility.yul\":1010:1016   */\n              dup2\n                /* \"#utility.yul\":988:1017   */\n              tag_28\n              jump\t// in\n            tag_52:\n                /* \"#utility.yul\":983:986   */\n              dup5\n                /* \"#utility.yul\":979:1018   */\n              add\n                /* \"#utility.yul\":972:1018   */\n              swap2\n              pop\n                /* \"#utility.yul\":739:1024   */\n              pop\n                /* \"#utility.yul\":647:1024   */\n              swap3\n              swap2\n              pop\n              pop\n              jump\t// out\n                /* \"#utility.yul\":1030:1343   */\n            tag_10:\n                /* \"#utility.yul\":1143:1147   */\n              0x00\n                /* \"#utility.yul\":1181:1183   */\n              0x20\n                /* \"#utility.yul\":1170:1179   */\n              dup3\n                /* \"#utility.yul\":1166:1184   */\n              add\n                /* \"#utility.yul\":1158:1184   */\n              swap1\n              pop\n                /* \"#utility.yul\":1230:1239   */\n              dup2\n                /* \"#utility.yul\":1224:1228   */\n              dup2\n                /* \"#utility.yul\":1220:1240   */\n              sub\n                /* \"#utility.yul\":1216:1217   */\n              0x00\n                /* \"#utility.yul\":1205:1214   */\n              dup4\n                /* \"#utility.yul\":1201:1218   */\n              add\n                /* \"#utility.yul\":1194:1241   */\n              mstore\n                /* \"#utility.yul\":1258:1336   */\n              tag_54\n                /* \"#utility.yul\":1331:1335   */\n              dup2\n                /* \"#utility.yul\":1322:1328   */\n              dup5\n                /* \"#utility.yul\":1258:1336   */\n              tag_29\n              jump\t// in\n            tag_54:\n                /* \"#utility.yul\":1250:1336   */\n              swap1\n              pop\n                /* \"#utility.yul\":1030:1343   */\n              swap3\n              swap2\n              pop\n              pop\n              jump\t// out\n                /* \"#utility.yul\":1349:1426   */\n            tag_30:\n                /* \"#utility.yul\":1386:1393   */\n              0x00\n                /* \"#utility.yul\":1415:1420   */\n              dup2\n                /* \"#utility.yul\":1404:1420   */\n              swap1\n              pop\n                /* \"#utility.yul\":1349:1426   */\n              swap2\n              swap1\n              pop\n              jump\t// out\n                /* \"#utility.yul\":1432:1550   */\n            tag_31:\n                /* \"#utility.yul\":1519:1543   */\n              tag_57\n                /* \"#utility.yul\":1537:1542   */\n              dup2\n                /* \"#utility.yul\":1519:1543   */\n              tag_30\n              jump\t// in\n            tag_57:\n                /* \"#utility.yul\":1514:1517   */\n              dup3\n                /* \"#utility.yul\":1507:1544   */\n              mstore\n                /* \"#utility.yul\":1432:1550   */\n              pop\n              pop\n              jump\t// out\n                /* \"#utility.yul\":1556:1778   */\n            tag_14:\n                /* \"#utility.yul\":1649:1653   */\n              0x00\n                /* \"#utility.yul\":1687:1689   */\n              0x20\n                /* \"#utility.yul\":1676:1685   */\n              dup3\n                /* \"#utility.yul\":1672:1690   */\n              add\n                /* \"#utility.yul\":1664:1690   */\n              swap1\n              pop\n                /* \"#utility.yul\":1700:1771   */\n              tag_59\n                /* \"#utility.yul\":1768:1769   */\n              0x00\n                /* \"#utility.yul\":1757:1766   */\n              dup4\n                /* \"#utility.yul\":1753:1770   */\n              add\n                /* \"#utility.yul\":1744:1750   */\n              dup5\n                /* \"#utility.yul\":1700:1771   */\n              tag_31\n              jump\t// in\n            tag_59:\n                /* \"#utility.yul\":1556:1778   */\n              swap3\n              swap2\n              pop\n              pop\n              jump\t// out\n                /* \"#utility.yul\":1784:1910   */\n            tag_32:\n                /* \"#utility.yul\":1821:1828   */\n              0x00\n                /* \"#utility.yul\":1861:1903   */\n              0xffffffffffffffffffffffffffffffffffffffff\n                /* \"#utility.yul\":1854:1859   */\n              dup3\n                /* \"#utility.yul\":1850:1904   */\n              and\n                /* \"#utility.yul\":1839:1904   */\n              swap1\n              pop\n                /* \"#utility.yul\":1784:1910   */\n              swap2\n              swap1\n              pop\n              jump\t// out\n                /* \"#utility.yul\":1916:2012   */\n            tag_33:\n                /* \"#utility.yul\":1953:1960   */\n              0x00\n                /* \"#utility.yul\":1982:2006   */\n              tag_62\n                /* \"#utility.yul\":2000:2005   */\n              dup3\n                /* \"#utility.yul\":1982:2006   */\n              tag_32\n              jump\t// in\n            tag_62:\n                /* \"#utility.yul\":1971:2006   */\n              swap1\n              pop\n                /* \"#utility.yul\":1916:2012   */\n              swap2\n              swap1\n              pop\n              jump\t// out\n                /* \"#utility.yul\":2018:2136   */\n            tag_34:\n                /* \"#utility.yul\":2105:2129   */\n              tag_64\n                /* \"#utility.yul\":2123:2128   */\n              dup2\n                /* \"#utility.yul\":2105:2129   */\n              tag_33\n              jump\t// in\n            tag_64:\n                /* \"#utility.yul\":2100:2103   */\n              dup3\n                /* \"#utility.yul\":2093:2130   */\n              mstore\n                /* \"#utility.yul\":2018:2136   */\n              pop\n              pop\n              jump\t// out\n                /* \"#utility.yul\":2142:2364   */\n            tag_18:\n                /* \"#utility.yul\":2235:2239   */\n              0x00\n                /* \"#utility.yul\":2273:2275   */\n              0x20\n                /* \"#utility.yul\":2262:2271   */\n              dup3\n                /* \"#utility.yul\":2258:2276   */\n              add\n                /* \"#utility.yul\":2250:2276   */\n              swap1\n              pop\n                /* \"#utility.yul\":2286:2357   */\n              tag_66\n                /* \"#utility.yul\":2354:2355   */\n              0x00\n                /* \"#utility.yul\":2343:2352   */\n              dup4\n                /* \"#utility.yul\":2339:2356   */\n              add\n                /* \"#utility.yul\":2330:2336   */\n              dup5\n                /* \"#utility.yul\":2286:2357   */\n              tag_34\n              jump\t// in\n            tag_66:\n                /* \"#utility.yul\":2142:2364   */\n              swap3\n              swap2\n              pop\n              pop\n              jump\t// out\n                /* \"#utility.yul\":2451:2568   */\n            tag_36:\n                /* \"#utility.yul\":2560:2561   */\n              0x00\n                /* \"#utility.yul\":2557:2558   */\n              dup1\n                /* \"#utility.yul\":2550:2562   */\n              revert\n                /* \"#utility.yul\":2697:2819   */\n            tag_38:\n                /* \"#utility.yul\":2770:2794   */\n              tag_71\n                /* \"#utility.yul\":2788:2793   */\n              dup2\n                /* \"#utility.yul\":2770:2794   */\n              tag_33\n              jump\t// in\n            tag_71:\n                /* \"#utility.yul\":2763:2768   */\n              dup2\n                /* \"#utility.yul\":2760:2795   */\n              eq\n                /* \"#utility.yul\":2750:2813   */\n              tag_72\n              jumpi\n                /* \"#utility.yul\":2809:2810   */\n              0x00\n                /* \"#utility.yul\":2806:2807   */\n              dup1\n                /* \"#utility.yul\":2799:2811   */\n              revert\n                /* \"#utility.yul\":2750:2813   */\n            tag_72:\n                /* \"#utility.yul\":2697:2819   */\n              pop\n              jump\t// out\n                /* \"#utility.yul\":2825:2964   */\n            tag_39:\n                /* \"#utility.yul\":2871:2876   */\n              0x00\n                /* \"#utility.yul\":2909:2915   */\n              dup2\n                /* \"#utility.yul\":2896:2916   */\n              calldataload\n                /* \"#utility.yul\":2887:2916   */\n              swap1\n              pop\n                /* \"#utility.yul\":2925:2958   */\n              tag_74\n                /* \"#utility.yul\":2952:2957   */\n              dup2\n                /* \"#utility.yul\":2925:2958   */\n              tag_38\n              jump\t// in\n            tag_74:\n                /* \"#utility.yul\":2825:2964   */\n              swap3\n              swap2\n              pop\n              pop\n              jump\t// out\n                /* \"#utility.yul\":2970:3299   */\n            tag_21:\n                /* \"#utility.yul\":3029:3035   */\n              0x00\n                /* \"#utility.yul\":3078:3080   */\n              0x20\n                /* \"#utility.yul\":3066:3075   */\n              dup3\n                /* \"#utility.yul\":3057:3064   */\n              dup5\n                /* \"#utility.yul\":3053:3076   */\n              sub\n                /* \"#utility.yul\":3049:3081   */\n              slt\n                /* \"#utility.yul\":3046:3165   */\n              iszero\n              tag_76\n              jumpi\n                /* \"#utility.yul\":3084:3163   */\n              tag_77\n              tag_36\n              jump\t// in\n            tag_77:\n                /* \"#utility.yul\":3046:3165   */\n            tag_76:\n                /* \"#utility.yul\":3204:3205   */\n              0x00\n                /* \"#utility.yul\":3229:3282   */\n              tag_78\n                /* \"#utility.yul\":3274:3281   */\n              dup5\n                /* \"#utility.yul\":3265:3271   */\n              dup3\n                /* \"#utility.yul\":3254:3263   */\n              dup6\n                /* \"#utility.yul\":3250:3272   */\n              add\n                /* \"#utility.yul\":3229:3282   */\n              tag_39\n              jump\t// in\n            tag_78:\n                /* \"#utility.yul\":3219:3282   */\n              swap2\n              pop\n                /* \"#utility.yul\":3175:3292   */\n              pop\n                /* \"#utility.yul\":2970:3299   */\n              swap3\n              swap2\n              pop\n              pop\n              jump\t// out\n\n            auxdata: 0xa26469706673582212205e2215336703ce1c970117ad1a0dc9235a91cee7d06c0c5677db0c25f756959964736f6c63430008160033\n        }\n    }\n\n    sub_1: assembly {\n            /* \"Nik_MD_project3_1.sol\":200:536  contract StringRecord is Record {... */\n          mstore(0x40, 0x80)\n            /* \"Nik_MD_project3_1.sol\":268:338  constructor(string memory _record) {... */\n          callvalue\n          dup1\n          iszero\n          tag_1\n          jumpi\n          0x00\n          dup1\n          revert\n        tag_1:\n          pop\n          mload(0x40)\n          sub(codesize, bytecodeSize)\n          dup1\n          bytecodeSize\n          dup4\n          codecopy\n          dup2\n          dup2\n          add\n          0x40\n          mstore\n          dup2\n          add\n          swap1\n          tag_2\n          swap2\n          swap1\n          tag_3\n          jump\t// in\n        tag_2:\n            /* \"Nik_MD_project3_1.sol\":170:185  block.timestamp */\n          timestamp\n            /* \"Nik_MD_project3_1.sol\":153:167  timeOfCreation */\n          0x00\n            /* \"Nik_MD_project3_1.sol\":153:185  timeOfCreation = block.timestamp */\n          dup2\n          swap1\n          sstore\n          pop\n            /* \"Nik_MD_project3_1.sol\":323:330  _record */\n          dup1\n            /* \"Nik_MD_project3_1.sol\":314:320  record */\n          0x01\n            /* \"Nik_MD_project3_1.sol\":314:330  record = _record */\n          swap1\n          dup2\n          tag_8\n          swap2\n          swap1\n          tag_9\n          jump\t// in\n        tag_8:\n          pop\n            /* \"Nik_MD_project3_1.sol\":268:338  constructor(string memory _record) {... */\n          pop\n            /* \"Nik_MD_project3_1.sol\":200:536  contract StringRecord is Record {... */\n          jump(tag_10)\n            /* \"#utility.yul\":7:82   */\n        tag_11:\n            /* \"#utility.yul\":40:46   */\n          0x00\n            /* \"#utility.yul\":73:75   */\n          0x40\n            /* \"#utility.yul\":67:76   */\n          mload\n            /* \"#utility.yul\":57:76   */\n          swap1\n          pop\n            /* \"#utility.yul\":7:82   */\n          swap1\n          jump\t// out\n            /* \"#utility.yul\":88:205   */\n        tag_12:\n            /* \"#utility.yul\":197:198   */\n          0x00\n            /* \"#utility.yul\":194:195   */\n          dup1\n            /* \"#utility.yul\":187:199   */\n          revert\n            /* \"#utility.yul\":211:328   */\n        tag_13:\n            /* \"#utility.yul\":320:321   */\n          0x00\n            /* \"#utility.yul\":317:318   */\n          dup1\n            /* \"#utility.yul\":310:322   */\n          revert\n            /* \"#utility.yul\":334:451   */\n        tag_14:\n            /* \"#utility.yul\":443:444   */\n          0x00\n            /* \"#utility.yul\":440:441   */\n          dup1\n            /* \"#utility.yul\":433:445   */\n          revert\n            /* \"#utility.yul\":457:574   */\n        tag_15:\n            /* \"#utility.yul\":566:567   */\n          0x00\n            /* \"#utility.yul\":563:564   */\n          dup1\n            /* \"#utility.yul\":556:568   */\n          revert\n            /* \"#utility.yul\":580:682   */\n        tag_16:\n            /* \"#utility.yul\":621:627   */\n          0x00\n            /* \"#utility.yul\":672:674   */\n          0x1f\n            /* \"#utility.yul\":668:675   */\n          not\n            /* \"#utility.yul\":663:665   */\n          0x1f\n            /* \"#utility.yul\":656:661   */\n          dup4\n            /* \"#utility.yul\":652:666   */\n          add\n            /* \"#utility.yul\":648:676   */\n          and\n            /* \"#utility.yul\":638:676   */\n          swap1\n          pop\n            /* \"#utility.yul\":580:682   */\n          swap2\n          swap1\n          pop\n          jump\t// out\n            /* \"#utility.yul\":688:868   */\n        tag_17:\n            /* \"#utility.yul\":736:813   */\n          0x4e487b7100000000000000000000000000000000000000000000000000000000\n            /* \"#utility.yul\":733:734   */\n          0x00\n            /* \"#utility.yul\":726:814   */\n          mstore\n            /* \"#utility.yul\":833:837   */\n          0x41\n            /* \"#utility.yul\":830:831   */\n          0x04\n            /* \"#utility.yul\":823:838   */\n          mstore\n            /* \"#utility.yul\":857:861   */\n          0x24\n            /* \"#utility.yul\":854:855   */\n          0x00\n            /* \"#utility.yul\":847:862   */\n          revert\n            /* \"#utility.yul\":874:1155   */\n        tag_18:\n            /* \"#utility.yul\":957:984   */\n          tag_52\n            /* \"#utility.yul\":979:983   */\n          dup3\n            /* \"#utility.yul\":957:984   */\n          tag_16\n          jump\t// in\n        tag_52:\n            /* \"#utility.yul\":949:955   */\n          dup2\n            /* \"#utility.yul\":945:985   */\n          add\n            /* \"#utility.yul\":1087:1093   */\n          dup2\n            /* \"#utility.yul\":1075:1085   */\n          dup2\n            /* \"#utility.yul\":1072:1094   */\n          lt\n            /* \"#utility.yul\":1051:1069   */\n          0xffffffffffffffff\n            /* \"#utility.yul\":1039:1049   */\n          dup3\n            /* \"#utility.yul\":1036:1070   */\n          gt\n            /* \"#utility.yul\":1033:1095   */\n          or\n            /* \"#utility.yul\":1030:1118   */\n          iszero\n          tag_53\n          jumpi\n            /* \"#utility.yul\":1098:1116   */\n          tag_54\n          tag_17\n          jump\t// in\n        tag_54:\n            /* \"#utility.yul\":1030:1118   */\n        tag_53:\n            /* \"#utility.yul\":1138:1148   */\n          dup1\n            /* \"#utility.yul\":1134:1136   */\n          0x40\n            /* \"#utility.yul\":1127:1149   */\n          mstore\n            /* \"#utility.yul\":917:1155   */\n          pop\n            /* \"#utility.yul\":874:1155   */\n          pop\n          pop\n          jump\t// out\n            /* \"#utility.yul\":1161:1290   */\n        tag_19:\n            /* \"#utility.yul\":1195:1201   */\n          0x00\n            /* \"#utility.yul\":1222:1242   */\n          tag_56\n          tag_11\n          jump\t// in\n        tag_56:\n            /* \"#utility.yul\":1212:1242   */\n          swap1\n          pop\n            /* \"#utility.yul\":1251:1284   */\n          tag_57\n            /* \"#utility.yul\":1279:1283   */\n          dup3\n            /* \"#utility.yul\":1271:1277   */\n          dup3\n            /* \"#utility.yul\":1251:1284   */\n          tag_18\n          jump\t// in\n        tag_57:\n            /* \"#utility.yul\":1161:1290   */\n          swap2\n          swap1\n          pop\n          jump\t// out\n            /* \"#utility.yul\":1296:1604   */\n        tag_20:\n            /* \"#utility.yul\":1358:1362   */\n          0x00\n            /* \"#utility.yul\":1448:1466   */\n          0xffffffffffffffff\n            /* \"#utility.yul\":1440:1446   */\n          dup3\n            /* \"#utility.yul\":1437:1467   */\n          gt\n            /* \"#utility.yul\":1434:1490   */\n          iszero\n          tag_59\n          jumpi\n            /* \"#utility.yul\":1470:1488   */\n          tag_60\n          tag_17\n          jump\t// in\n        tag_60:\n            /* \"#utility.yul\":1434:1490   */\n        tag_59:\n            /* \"#utility.yul\":1508:1537   */\n          tag_61\n            /* \"#utility.yul\":1530:1536   */\n          dup3\n            /* \"#utility.yul\":1508:1537   */\n          tag_16\n          jump\t// in\n        tag_61:\n            /* \"#utility.yul\":1500:1537   */\n          swap1\n          pop\n            /* \"#utility.yul\":1592:1596   */\n          0x20\n            /* \"#utility.yul\":1586:1590   */\n          dup2\n            /* \"#utility.yul\":1582:1597   */\n          add\n            /* \"#utility.yul\":1574:1597   */\n          swap1\n          pop\n            /* \"#utility.yul\":1296:1604   */\n          swap2\n          swap1\n          pop\n          jump\t// out\n            /* \"#utility.yul\":1610:1856   */\n        tag_21:\n            /* \"#utility.yul\":1691:1692   */\n          0x00\n            /* \"#utility.yul\":1701:1814   */\n        tag_63:\n            /* \"#utility.yul\":1715:1721   */\n          dup4\n            /* \"#utility.yul\":1712:1713   */\n          dup2\n            /* \"#utility.yul\":1709:1722   */\n          lt\n            /* \"#utility.yul\":1701:1814   */\n          iszero\n          tag_65\n          jumpi\n            /* \"#utility.yul\":1800:1801   */\n          dup1\n            /* \"#utility.yul\":1795:1798   */\n          dup3\n            /* \"#utility.yul\":1791:1802   */\n          add\n            /* \"#utility.yul\":1785:1803   */\n          mload\n            /* \"#utility.yul\":1781:1782   */\n          dup2\n            /* \"#utility.yul\":1776:1779   */\n          dup5\n            /* \"#utility.yul\":1772:1783   */\n          add\n            /* \"#utility.yul\":1765:1804   */\n          mstore\n            /* \"#utility.yul\":1737:1739   */\n          0x20\n            /* \"#utility.yul\":1734:1735   */\n          dup2\n            /* \"#utility.yul\":1730:1740   */\n          add\n            /* \"#utility.yul\":1725:1740   */\n          swap1\n          pop\n            /* \"#utility.yul\":1701:1814   */\n          jump(tag_63)\n        tag_65:\n            /* \"#utility.yul\":1848:1849   */\n          0x00\n            /* \"#utility.yul\":1839:1845   */\n          dup5\n            /* \"#utility.yul\":1834:1837   */\n          dup5\n            /* \"#utility.yul\":1830:1846   */\n          add\n            /* \"#utility.yul\":1823:1850   */\n          mstore\n            /* \"#utility.yul\":1672:1856   */\n          pop\n            /* \"#utility.yul\":1610:1856   */\n          pop\n          pop\n          pop\n          jump\t// out\n            /* \"#utility.yul\":1862:2296   */\n        tag_22:\n            /* \"#utility.yul\":1951:1956   */\n          0x00\n            /* \"#utility.yul\":1976:2042   */\n          tag_67\n            /* \"#utility.yul\":1992:2041   */\n          tag_68\n            /* \"#utility.yul\":2034:2040   */\n          dup5\n            /* \"#utility.yul\":1992:2041   */\n          tag_20\n          jump\t// in\n        tag_68:\n            /* \"#utility.yul\":1976:2042   */\n          tag_19\n          jump\t// in\n        tag_67:\n            /* \"#utility.yul\":1967:2042   */\n          swap1\n          pop\n            /* \"#utility.yul\":2065:2071   */\n          dup3\n            /* \"#utility.yul\":2058:2063   */\n          dup2\n            /* \"#utility.yul\":2051:2072   */\n          mstore\n            /* \"#utility.yul\":2103:2107   */\n          0x20\n            /* \"#utility.yul\":2096:2101   */\n          dup2\n            /* \"#utility.yul\":2092:2108   */\n          add\n            /* \"#utility.yul\":2141:2144   */\n          dup5\n            /* \"#utility.yul\":2132:2138   */\n          dup5\n            /* \"#utility.yul\":2127:2130   */\n          dup5\n            /* \"#utility.yul\":2123:2139   */\n          add\n            /* \"#utility.yul\":2120:2145   */\n          gt\n            /* \"#utility.yul\":2117:2229   */\n          iszero\n          tag_69\n          jumpi\n            /* \"#utility.yul\":2148:2227   */\n          tag_70\n          tag_15\n          jump\t// in\n        tag_70:\n            /* \"#utility.yul\":2117:2229   */\n        tag_69:\n            /* \"#utility.yul\":2238:2290   */\n          tag_71\n            /* \"#utility.yul\":2283:2289   */\n          dup5\n            /* \"#utility.yul\":2278:2281   */\n          dup3\n            /* \"#utility.yul\":2273:2276   */\n          dup6\n            /* \"#utility.yul\":2238:2290   */\n          tag_21\n          jump\t// in\n        tag_71:\n            /* \"#utility.yul\":1957:2296   */\n          pop\n            /* \"#utility.yul\":1862:2296   */\n          swap4\n          swap3\n          pop\n          pop\n          pop\n          jump\t// out\n            /* \"#utility.yul\":2316:2671   */\n        tag_23:\n            /* \"#utility.yul\":2383:2388   */\n          0x00\n            /* \"#utility.yul\":2432:2435   */\n          dup3\n            /* \"#utility.yul\":2425:2429   */\n          0x1f\n            /* \"#utility.yul\":2417:2423   */\n          dup4\n            /* \"#utility.yul\":2413:2430   */\n          add\n            /* \"#utility.yul\":2409:2436   */\n          slt\n            /* \"#utility.yul\":2399:2521   */\n          tag_73\n          jumpi\n            /* \"#utility.yul\":2440:2519   */\n          tag_74\n          tag_14\n          jump\t// in\n        tag_74:\n            /* \"#utility.yul\":2399:2521   */\n        tag_73:\n            /* \"#utility.yul\":2550:2556   */\n          dup2\n            /* \"#utility.yul\":2544:2557   */\n          mload\n            /* \"#utility.yul\":2575:2665   */\n          tag_75\n            /* \"#utility.yul\":2661:2664   */\n          dup5\n            /* \"#utility.yul\":2653:2659   */\n          dup3\n            /* \"#utility.yul\":2646:2650   */\n          0x20\n            /* \"#utility.yul\":2638:2644   */\n          dup7\n            /* \"#utility.yul\":2634:2651   */\n          add\n            /* \"#utility.yul\":2575:2665   */\n          tag_22\n          jump\t// in\n        tag_75:\n            /* \"#utility.yul\":2566:2665   */\n          swap2\n          pop\n            /* \"#utility.yul\":2389:2671   */\n          pop\n            /* \"#utility.yul\":2316:2671   */\n          swap3\n          swap2\n          pop\n          pop\n          jump\t// out\n            /* \"#utility.yul\":2677:3201   */\n        tag_3:\n            /* \"#utility.yul\":2757:2763   */\n          0x00\n            /* \"#utility.yul\":2806:2808   */\n          0x20\n            /* \"#utility.yul\":2794:2803   */\n          dup3\n            /* \"#utility.yul\":2785:2792   */\n          dup5\n            /* \"#utility.yul\":2781:2804   */\n          sub\n            /* \"#utility.yul\":2777:2809   */\n          slt\n            /* \"#utility.yul\":2774:2893   */\n          iszero\n          tag_77\n          jumpi\n            /* \"#utility.yul\":2812:2891   */\n          tag_78\n          tag_12\n          jump\t// in\n        tag_78:\n            /* \"#utility.yul\":2774:2893   */\n        tag_77:\n            /* \"#utility.yul\":2953:2954   */\n          0x00\n            /* \"#utility.yul\":2942:2951   */\n          dup3\n            /* \"#utility.yul\":2938:2955   */\n          add\n            /* \"#utility.yul\":2932:2956   */\n          mload\n            /* \"#utility.yul\":2983:3001   */\n          0xffffffffffffffff\n            /* \"#utility.yul\":2975:2981   */\n          dup2\n            /* \"#utility.yul\":2972:3002   */\n          gt\n            /* \"#utility.yul\":2969:3086   */\n          iszero\n          tag_79\n          jumpi\n            /* \"#utility.yul\":3005:3084   */\n          tag_80\n          tag_13\n          jump\t// in\n        tag_80:\n            /* \"#utility.yul\":2969:3086   */\n        tag_79:\n            /* \"#utility.yul\":3110:3184   */\n          tag_81\n            /* \"#utility.yul\":3176:3183   */\n          dup5\n            /* \"#utility.yul\":3167:3173   */\n          dup3\n            /* \"#utility.yul\":3156:3165   */\n          dup6\n            /* \"#utility.yul\":3152:3174   */\n          add\n            /* \"#utility.yul\":3110:3184   */\n          tag_23\n          jump\t// in\n        tag_81:\n            /* \"#utility.yul\":3100:3184   */\n          swap2\n          pop\n            /* \"#utility.yul\":2903:3194   */\n          pop\n            /* \"#utility.yul\":2677:3201   */\n          swap3\n          swap2\n          pop\n          pop\n          jump\t// out\n            /* \"#utility.yul\":3207:3306   */\n        tag_24:\n            /* \"#utility.yul\":3259:3265   */\n          0x00\n            /* \"#utility.yul\":3293:3298   */\n          dup2\n            /* \"#utility.yul\":3287:3299   */\n          mload\n            /* \"#utility.yul\":3277:3299   */\n          swap1\n          pop\n            /* \"#utility.yul\":3207:3306   */\n          swap2\n          swap1\n          pop\n          jump\t// out\n            /* \"#utility.yul\":3312:3492   */\n        tag_25:\n            /* \"#utility.yul\":3360:3437   */\n          0x4e487b7100000000000000000000000000000000000000000000000000000000\n            /* \"#utility.yul\":3357:3358   */\n          0x00\n            /* \"#utility.yul\":3350:3438   */\n          mstore\n            /* \"#utility.yul\":3457:3461   */\n          0x22\n            /* \"#utility.yul\":3454:3455   */\n          0x04\n            /* \"#utility.yul\":3447:3462   */\n          mstore\n            /* \"#utility.yul\":3481:3485   */\n          0x24\n            /* \"#utility.yul\":3478:3479   */\n          0x00\n            /* \"#utility.yul\":3471:3486   */\n          revert\n            /* \"#utility.yul\":3498:3818   */\n        tag_26:\n            /* \"#utility.yul\":3542:3548   */\n          0x00\n            /* \"#utility.yul\":3579:3580   */\n          0x02\n            /* \"#utility.yul\":3573:3577   */\n          dup3\n            /* \"#utility.yul\":3569:3581   */\n          div\n            /* \"#utility.yul\":3559:3581   */\n          swap1\n          pop\n            /* \"#utility.yul\":3626:3627   */\n          0x01\n            /* \"#utility.yul\":3620:3624   */\n          dup3\n            /* \"#utility.yul\":3616:3628   */\n          and\n            /* \"#utility.yul\":3647:3665   */\n          dup1\n            /* \"#utility.yul\":3637:3718   */\n          tag_85\n          jumpi\n            /* \"#utility.yul\":3703:3707   */\n          0x7f\n            /* \"#utility.yul\":3695:3701   */\n          dup3\n            /* \"#utility.yul\":3691:3708   */\n          and\n            /* \"#utility.yul\":3681:3708   */\n          swap2\n          pop\n            /* \"#utility.yul\":3637:3718   */\n        tag_85:\n            /* \"#utility.yul\":3765:3767   */\n          0x20\n            /* \"#utility.yul\":3757:3763   */\n          dup3\n            /* \"#utility.yul\":3754:3768   */\n          lt\n            /* \"#utility.yul\":3734:3752   */\n          dup2\n            /* \"#utility.yul\":3731:3769   */\n          sub\n            /* \"#utility.yul\":3728:3812   */\n          tag_86\n          jumpi\n            /* \"#utility.yul\":3784:3802   */\n          tag_87\n          tag_25\n          jump\t// in\n        tag_87:\n            /* \"#utility.yul\":3728:3812   */\n        tag_86:\n            /* \"#utility.yul\":3549:3818   */\n          pop\n            /* \"#utility.yul\":3498:3818   */\n          swap2\n          swap1\n          pop\n          jump\t// out\n            /* \"#utility.yul\":3824:3965   */\n        tag_27:\n            /* \"#utility.yul\":3873:3877   */\n          0x00\n            /* \"#utility.yul\":3896:3899   */\n          dup2\n            /* \"#utility.yul\":3888:3899   */\n          swap1\n          pop\n            /* \"#utility.yul\":3919:3922   */\n          dup2\n            /* \"#utility.yul\":3916:3917   */\n          0x00\n            /* \"#utility.yul\":3909:3923   */\n          mstore\n            /* \"#utility.yul\":3953:3957   */\n          0x20\n            /* \"#utility.yul\":3950:3951   */\n          0x00\n            /* \"#utility.yul\":3940:3958   */\n          keccak256\n            /* \"#utility.yul\":3932:3958   */\n          swap1\n          pop\n            /* \"#utility.yul\":3824:3965   */\n          swap2\n          swap1\n          pop\n          jump\t// out\n            /* \"#utility.yul\":3971:4064   */\n        tag_28:\n            /* \"#utility.yul\":4008:4014   */\n          0x00\n            /* \"#utility.yul\":4055:4057   */\n          0x20\n            /* \"#utility.yul\":4050:4052   */\n          0x1f\n            /* \"#utility.yul\":4043:4048   */\n          dup4\n            /* \"#utility.yul\":4039:4053   */\n          add\n            /* \"#utility.yul\":4035:4058   */\n          div\n            /* \"#utility.yul\":4025:4058   */\n          swap1\n          pop\n            /* \"#utility.yul\":3971:4064   */\n          swap2\n          swap1\n          pop\n          jump\t// out\n            /* \"#utility.yul\":4070:4177   */\n        tag_29:\n            /* \"#utility.yul\":4114:4122   */\n          0x00\n            /* \"#utility.yul\":4164:4169   */\n          dup3\n            /* \"#utility.yul\":4158:4162   */\n          dup3\n            /* \"#utility.yul\":4154:4170   */\n          shl\n            /* \"#utility.yul\":4133:4170   */\n          swap1\n          pop\n            /* \"#utility.yul\":4070:4177   */\n          swap3\n          swap2\n          pop\n          pop\n          jump\t// out\n            /* \"#utility.yul\":4183:4576   */\n        tag_30:\n            /* \"#utility.yul\":4252:4258   */\n          0x00\n            /* \"#utility.yul\":4302:4303   */\n          0x08\n            /* \"#utility.yul\":4290:4300   */\n          dup4\n            /* \"#utility.yul\":4286:4304   */\n          mul\n            /* \"#utility.yul\":4325:4422   */\n          tag_92\n            /* \"#utility.yul\":4355:4421   */\n          0xffffffffffffffffffffffffffffffffffffffffffffffffffffffffffffffff\n            /* \"#utility.yul\":4344:4353   */\n          dup3\n            /* \"#utility.yul\":4325:4422   */\n          tag_29\n          jump\t// in\n        tag_92:\n            /* \"#utility.yul\":4443:4482   */\n          tag_93\n            /* \"#utility.yul\":4473:4481   */\n          dup7\n            /* \"#utility.yul\":4462:4471   */\n          dup4\n            /* \"#utility.yul\":4443:4482   */\n          tag_29\n          jump\t// in\n        tag_93:\n            /* \"#utility.yul\":4431:4482   */\n          swap6\n          pop\n            /* \"#utility.yul\":4515:4519   */\n          dup1\n            /* \"#utility.yul\":4511:4520   */\n          not\n            /* \"#utility.yul\":4504:4509   */\n          dup5\n            /* \"#utility.yul\":4500:4521   */\n          and\n            /* \"#utility.yul\":4491:4521   */\n          swap4\n          pop\n            /* \"#utility.yul\":4564:4568   */\n          dup1\n            /* \"#utility.yul\":4554:4562   */\n          dup7\n            /* \"#utility.yul\":4550:4569   */\n          and\n            /* \"#utility.yul\":4543:4548   */\n          dup5\n            /* \"#utility.yul\":4540:4570   */\n          or\n            /* \"#utility.yul\":4530:4570   */\n          swap3\n          pop\n            /* \"#utility.yul\":4259:4576   */\n          pop\n          pop\n            /* \"#utility.yul\":4183:4576   */\n          swap4\n          swap3\n          pop\n          pop\n          pop\n          jump\t// out\n            /* \"#utility.yul\":4582:4659   */\n        tag_31:\n            /* \"#utility.yul\":4619:4626   */\n          0x00\n            /* \"#utility.yul\":4648:4653   */\n          dup2\n            /* \"#utility.yul\":4637:4653   */\n          swap1\n          pop\n            /* \"#utility.yul\":4582:4659   */\n          swap2\n          swap1\n          pop\n          jump\t// out\n            /* \"#utility.yul\":4665:4725   */\n        tag_32:\n            /* \"#utility.yul\":4693:4696   */\n          0x00\n            /* \"#utility.yul\":4714:4719   */\n          dup2\n            /* \"#utility.yul\":4707:4719   */\n          swap1\n          pop\n            /* \"#utility.yul\":4665:4725   */\n          swap2\n          swap1\n          pop\n          jump\t// out\n            /* \"#utility.yul\":4731:4873   */\n        tag_33:\n            /* \"#utility.yul\":4781:4790   */\n          0x00\n            /* \"#utility.yul\":4814:4867   */\n          tag_97\n            /* \"#utility.yul\":4832:4866   */\n          tag_98\n            /* \"#utility.yul\":4841:4865   */\n          tag_99\n            /* \"#utility.yul\":4859:4864   */\n          dup5\n            /* \"#utility.yul\":4841:4865   */\n          tag_31\n          jump\t// in\n        tag_99:\n            /* \"#utility.yul\":4832:4866   */\n          tag_32\n          jump\t// in\n        tag_98:\n            /* \"#utility.yul\":4814:4867   */\n          tag_31\n          jump\t// in\n        tag_97:\n            /* \"#utility.yul\":4801:4867   */\n          swap1\n          pop\n            /* \"#utility.yul\":4731:4873   */\n          swap2\n          swap1\n          pop\n          jump\t// out\n            /* \"#utility.yul\":4879:4954   */\n        tag_34:\n            /* \"#utility.yul\":4922:4925   */\n          0x00\n            /* \"#utility.yul\":4943:4948   */\n          dup2\n            /* \"#utility.yul\":4936:4948   */\n          swap1\n          pop\n            /* \"#utility.yul\":4879:4954   */\n          swap2\n          swap1\n          pop\n          jump\t// out\n            /* \"#utility.yul\":4960:5229   */\n        tag_35:\n            /* \"#utility.yul\":5070:5109   */\n          tag_102\n            /* \"#utility.yul\":5101:5108   */\n          dup4\n            /* \"#utility.yul\":5070:5109   */\n          tag_33\n          jump\t// in\n        tag_102:\n            /* \"#utility.yul\":5131:5222   */\n          tag_103\n            /* \"#utility.yul\":5180:5221   */\n          tag_104\n            /* \"#utility.yul\":5204:5220   */\n          dup3\n            /* \"#utility.yul\":5180:5221   */\n          tag_34\n          jump\t// in\n        tag_104:\n            /* \"#utility.yul\":5172:5178   */\n          dup5\n            /* \"#utility.yul\":5165:5169   */\n          dup5\n            /* \"#utility.yul\":5159:5170   */\n          sload\n            /* \"#utility.yul\":5131:5222   */\n          tag_30\n          jump\t// in\n        tag_103:\n            /* \"#utility.yul\":5125:5129   */\n          dup3\n            /* \"#utility.yul\":5118:5223   */\n          sstore\n            /* \"#utility.yul\":5036:5229   */\n          pop\n            /* \"#utility.yul\":4960:5229   */\n          pop\n          pop\n          pop\n          jump\t// out\n            /* \"#utility.yul\":5235:5308   */\n        tag_36:\n            /* \"#utility.yul\":5280:5283   */\n          0x00\n            /* \"#utility.yul\":5235:5308   */\n          swap1\n          jump\t// out\n            /* \"#utility.yul\":5314:5503   */\n        tag_37:\n            /* \"#utility.yul\":5391:5423   */\n          tag_107\n          tag_36\n          jump\t// in\n        tag_107:\n            /* \"#utility.yul\":5432:5497   */\n          tag_108\n            /* \"#utility.yul\":5490:5496   */\n          dup2\n            /* \"#utility.yul\":5482:5488   */\n          dup5\n            /* \"#utility.yul\":5476:5480   */\n          dup5\n            /* \"#utility.yul\":5432:5497   */\n          tag_35\n          jump\t// in\n        tag_108:\n            /* \"#utility.yul\":5367:5503   */\n          pop\n            /* \"#utility.yul\":5314:5503   */\n          pop\n          pop\n          jump\t// out\n            /* \"#utility.yul\":5509:5695   */\n        tag_38:\n            /* \"#utility.yul\":5569:5689   */\n        tag_110:\n            /* \"#utility.yul\":5586:5589   */\n          dup2\n            /* \"#utility.yul\":5579:5584   */\n          dup2\n            /* \"#utility.yul\":5576:5590   */\n          lt\n            /* \"#utility.yul\":5569:5689   */\n          iszero\n          tag_112\n          jumpi\n            /* \"#utility.yul\":5640:5679   */\n          tag_113\n            /* \"#utility.yul\":5677:5678   */\n          0x00\n            /* \"#utility.yul\":5670:5675   */\n          dup3\n            /* \"#utility.yul\":5640:5679   */\n          tag_37\n          jump\t// in\n        tag_113:\n            /* \"#utility.yul\":5613:5614   */\n          0x01\n            /* \"#utility.yul\":5606:5611   */\n          dup2\n            /* \"#utility.yul\":5602:5615   */\n          add\n            /* \"#utility.yul\":5593:5615   */\n          swap1\n          pop\n            /* \"#utility.yul\":5569:5689   */\n          jump(tag_110)\n        tag_112:\n            /* \"#utility.yul\":5509:5695   */\n          pop\n          pop\n          jump\t// out\n            /* \"#utility.yul\":5701:6244   */\n        tag_39:\n            /* \"#utility.yul\":5802:5804   */\n          0x1f\n            /* \"#utility.yul\":5797:5800   */\n          dup3\n            /* \"#utility.yul\":5794:5805   */\n          gt\n            /* \"#utility.yul\":5791:6237   */\n          iszero\n          tag_115\n          jumpi\n            /* \"#utility.yul\":5836:5874   */\n          tag_116\n            /* \"#utility.yul\":5868:5873   */\n          dup2\n            /* \"#utility.yul\":5836:5874   */\n          tag_27\n          jump\t// in\n        tag_116:\n            /* \"#utility.yul\":5920:5949   */\n          tag_117\n            /* \"#utility.yul\":5938:5948   */\n          dup5\n            /* \"#utility.yul\":5920:5949   */\n          tag_28\n          jump\t// in\n        tag_117:\n            /* \"#utility.yul\":5910:5918   */\n          dup2\n            /* \"#utility.yul\":5906:5950   */\n          add\n            /* \"#utility.yul\":6103:6105   */\n          0x20\n            /* \"#utility.yul\":6091:6101   */\n          dup6\n            /* \"#utility.yul\":6088:6106   */\n          lt\n            /* \"#utility.yul\":6085:6134   */\n          iszero\n          tag_118\n          jumpi\n            /* \"#utility.yul\":6124:6132   */\n          dup2\n            /* \"#utility.yul\":6109:6132   */\n          swap1\n          pop\n            /* \"#utility.yul\":6085:6134   */\n        tag_118:\n            /* \"#utility.yul\":6147:6227   */\n          tag_119\n            /* \"#utility.yul\":6203:6225   */\n          tag_120\n            /* \"#utility.yul\":6221:6224   */\n          dup6\n            /* \"#utility.yul\":6203:6225   */\n          tag_28\n          jump\t// in\n        tag_120:\n            /* \"#utility.yul\":6193:6201   */\n          dup4\n            /* \"#utility.yul\":6189:6226   */\n          add\n            /* \"#utility.yul\":6176:6187   */\n          dup3\n            /* \"#utility.yul\":6147:6227   */\n          tag_38\n          jump\t// in\n        tag_119:\n            /* \"#utility.yul\":5806:6237   */\n          pop\n          pop\n            /* \"#utility.yul\":5791:6237   */\n        tag_115:\n            /* \"#utility.yul\":5701:6244   */\n          pop\n          pop\n          pop\n          jump\t// out\n            /* \"#utility.yul\":6250:6367   */\n        tag_40:\n            /* \"#utility.yul\":6304:6312   */\n          0x00\n            /* \"#utility.yul\":6354:6359   */\n          dup3\n            /* \"#utility.yul\":6348:6352   */\n          dup3\n            /* \"#utility.yul\":6344:6360   */\n          shr\n            /* \"#utility.yul\":6323:6360   */\n          swap1\n          pop\n            /* \"#utility.yul\":6250:6367   */\n          swap3\n          swap2\n          pop\n          pop\n          jump\t// out\n            /* \"#utility.yul\":6373:6542   */\n        tag_41:\n            /* \"#utility.yul\":6417:6423   */\n          0x00\n            /* \"#utility.yul\":6450:6501   */\n          tag_123\n            /* \"#utility.yul\":6498:6499   */\n          0x00\n            /* \"#utility.yul\":6494:6500   */\n          not\n            /* \"#utility.yul\":6486:6491   */\n          dup5\n            /* \"#utility.yul\":6483:6484   */\n          0x08\n            /* \"#utility.yul\":6479:6492   */\n          mul\n            /* \"#utility.yul\":6450:6501   */\n          tag_40\n          jump\t// in\n        tag_123:\n            /* \"#utility.yul\":6446:6502   */\n          not\n            /* \"#utility.yul\":6531:6535   */\n          dup1\n            /* \"#utility.yul\":6525:6529   */\n          dup4\n            /* \"#utility.yul\":6521:6536   */\n          and\n            /* \"#utility.yul\":6511:6536   */\n          swap2\n          pop\n            /* \"#utility.yul\":6424:6542   */\n          pop\n            /* \"#utility.yul\":6373:6542   */\n          swap3\n          swap2\n          pop\n          pop\n          jump\t// out\n            /* \"#utility.yul\":6547:6842   */\n        tag_42:\n            /* \"#utility.yul\":6623:6627   */\n          0x00\n            /* \"#utility.yul\":6769:6798   */\n          tag_125\n            /* \"#utility.yul\":6794:6797   */\n          dup4\n            /* \"#utility.yul\":6788:6792   */\n          dup4\n            /* \"#utility.yul\":6769:6798   */\n          tag_41\n          jump\t// in\n        tag_125:\n            /* \"#utility.yul\":6761:6798   */\n          swap2\n          pop\n            /* \"#utility.yul\":6831:6834   */\n          dup3\n            /* \"#utility.yul\":6828:6829   */\n          0x02\n            /* \"#utility.yul\":6824:6835   */\n          mul\n            /* \"#utility.yul\":6818:6822   */\n          dup3\n            /* \"#utility.yul\":6815:6836   */\n          or\n            /* \"#utility.yul\":6807:6836   */\n          swap1\n          pop\n            /* \"#utility.yul\":6547:6842   */\n          swap3\n          swap2\n          pop\n          pop\n          jump\t// out\n            /* \"#utility.yul\":6847:8242   */\n        tag_9:\n            /* \"#utility.yul\":6964:7001   */\n          tag_127\n            /* \"#utility.yul\":6997:7000   */\n          dup3\n            /* \"#utility.yul\":6964:7001   */\n          tag_24\n          jump\t// in\n        tag_127:\n            /* \"#utility.yul\":7066:7084   */\n          0xffffffffffffffff\n            /* \"#utility.yul\":7058:7064   */\n          dup2\n            /* \"#utility.yul\":7055:7085   */\n          gt\n            /* \"#utility.yul\":7052:7108   */\n          iszero\n          tag_128\n          jumpi\n            /* \"#utility.yul\":7088:7106   */\n          tag_129\n          tag_17\n          jump\t// in\n        tag_129:\n            /* \"#utility.yul\":7052:7108   */\n        tag_128:\n            /* \"#utility.yul\":7132:7170   */\n          tag_130\n            /* \"#utility.yul\":7164:7168   */\n          dup3\n            /* \"#utility.yul\":7158:7169   */\n          sload\n            /* \"#utility.yul\":7132:7170   */\n          tag_26\n          jump\t// in\n        tag_130:\n            /* \"#utility.yul\":7217:7284   */\n          tag_131\n            /* \"#utility.yul\":7277:7283   */\n          dup3\n            /* \"#utility.yul\":7269:7275   */\n          dup3\n            /* \"#utility.yul\":7263:7267   */\n          dup6\n            /* \"#utility.yul\":7217:7284   */\n          tag_39\n          jump\t// in\n        tag_131:\n            /* \"#utility.yul\":7311:7312   */\n          0x00\n            /* \"#utility.yul\":7335:7339   */\n          0x20\n            /* \"#utility.yul\":7322:7339   */\n          swap1\n          pop\n            /* \"#utility.yul\":7367:7369   */\n          0x1f\n            /* \"#utility.yul\":7359:7365   */\n          dup4\n            /* \"#utility.yul\":7356:7370   */\n          gt\n            /* \"#utility.yul\":7384:7385   */\n          0x01\n            /* \"#utility.yul\":7379:7997   */\n          dup2\n          eq\n          tag_133\n          jumpi\n            /* \"#utility.yul\":8041:8042   */\n          0x00\n            /* \"#utility.yul\":8058:8064   */\n          dup5\n            /* \"#utility.yul\":8055:8132   */\n          iszero\n          tag_134\n          jumpi\n            /* \"#utility.yul\":8107:8116   */\n          dup3\n            /* \"#utility.yul\":8102:8105   */\n          dup8\n            /* \"#utility.yul\":8098:8117   */\n          add\n            /* \"#utility.yul\":8092:8118   */\n          mload\n            /* \"#utility.yul\":8083:8118   */\n          swap1\n          pop\n            /* \"#utility.yul\":8055:8132   */\n        tag_134:\n            /* \"#utility.yul\":8158:8225   */\n          tag_135\n            /* \"#utility.yul\":8218:8224   */\n          dup6\n            /* \"#utility.yul\":8211:8216   */\n          dup3\n            /* \"#utility.yul\":8158:8225   */\n          tag_42\n          jump\t// in\n        tag_135:\n            /* \"#utility.yul\":8152:8156   */\n          dup7\n            /* \"#utility.yul\":8145:8226   */\n          sstore\n            /* \"#utility.yul\":8014:8236   */\n          pop\n            /* \"#utility.yul\":7349:8236   */\n          jump(tag_132)\n            /* \"#utility.yul\":7379:7997   */\n        tag_133:\n            /* \"#utility.yul\":7431:7435   */\n          0x1f\n            /* \"#utility.yul\":7427:7436   */\n          not\n            /* \"#utility.yul\":7419:7425   */\n          dup5\n            /* \"#utility.yul\":7415:7437   */\n          and\n            /* \"#utility.yul\":7465:7502   */\n          tag_136\n            /* \"#utility.yul\":7497:7501   */\n          dup7\n            /* \"#utility.yul\":7465:7502   */\n          tag_27\n          jump\t// in\n        tag_136:\n            /* \"#utility.yul\":7524:7525   */\n          0x00\n            /* \"#utility.yul\":7538:7746   */\n        tag_137:\n            /* \"#utility.yul\":7552:7559   */\n          dup3\n            /* \"#utility.yul\":7549:7550   */\n          dup2\n            /* \"#utility.yul\":7546:7560   */\n          lt\n            /* \"#utility.yul\":7538:7746   */\n          iszero\n          tag_139\n          jumpi\n            /* \"#utility.yul\":7631:7640   */\n          dup5\n            /* \"#utility.yul\":7626:7629   */\n          dup10\n            /* \"#utility.yul\":7622:7641   */\n          add\n            /* \"#utility.yul\":7616:7642   */\n          mload\n            /* \"#utility.yul\":7608:7614   */\n          dup3\n            /* \"#utility.yul\":7601:7643   */\n          sstore\n            /* \"#utility.yul\":7682:7683   */\n          0x01\n            /* \"#utility.yul\":7674:7680   */\n          dup3\n            /* \"#utility.yul\":7670:7684   */\n          add\n            /* \"#utility.yul\":7660:7684   */\n          swap2\n          pop\n            /* \"#utility.yul\":7729:7731   */\n          0x20\n            /* \"#utility.yul\":7718:7727   */\n          dup6\n            /* \"#utility.yul\":7714:7732   */\n          add\n            /* \"#utility.yul\":7701:7732   */\n          swap5\n          pop\n            /* \"#utility.yul\":7575:7579   */\n          0x20\n            /* \"#utility.yul\":7572:7573   */\n          dup2\n            /* \"#utility.yul\":7568:7580   */\n          add\n            /* \"#utility.yul\":7563:7580   */\n          swap1\n          pop\n            /* \"#utility.yul\":7538:7746   */\n          jump(tag_137)\n        tag_139:\n            /* \"#utility.yul\":7774:7780   */\n          dup7\n            /* \"#utility.yul\":7765:7772   */\n          dup4\n            /* \"#utility.yul\":7762:7781   */\n          lt\n            /* \"#utility.yul\":7759:7938   */\n          iszero\n          tag_140\n          jumpi\n            /* \"#utility.yul\":7832:7841   */\n          dup5\n            /* \"#utility.yul\":7827:7830   */\n          dup10\n            /* \"#utility.yul\":7823:7842   */\n          add\n            /* \"#utility.yul\":7817:7843   */\n          mload\n            /* \"#utility.yul\":7875:7923   */\n          tag_141\n            /* \"#utility.yul\":7917:7921   */\n          0x1f\n            /* \"#utility.yul\":7909:7915   */\n          dup10\n            /* \"#utility.yul\":7905:7922   */\n          and\n            /* \"#utility.yul\":7894:7903   */\n          dup3\n            /* \"#utility.yul\":7875:7923   */\n          tag_41\n          jump\t// in\n        tag_141:\n            /* \"#utility.yul\":7867:7873   */\n          dup4\n            /* \"#utility.yul\":7860:7924   */\n          sstore\n            /* \"#utility.yul\":7782:7938   */\n          pop\n            /* \"#utility.yul\":7759:7938   */\n        tag_140:\n            /* \"#utility.yul\":7984:7985   */\n          0x01\n            /* \"#utility.yul\":7980:7981   */\n          0x02\n            /* \"#utility.yul\":7972:7978   */\n          dup9\n            /* \"#utility.yul\":7968:7982   */\n          mul\n            /* \"#utility.yul\":7964:7986   */\n          add\n            /* \"#utility.yul\":7958:7962   */\n          dup9\n            /* \"#utility.yul\":7951:7987   */\n          sstore\n            /* \"#utility.yul\":7386:7997   */\n          pop\n          pop\n          pop\n            /* \"#utility.yul\":7349:8236   */\n        tag_132:\n          pop\n            /* \"#utility.yul\":6939:8242   */\n          pop\n          pop\n          pop\n            /* \"#utility.yul\":6847:8242   */\n          pop\n          pop\n          jump\t// out\n            /* \"Nik_MD_project3_1.sol\":200:536  contract StringRecord is Record {... */\n        tag_10:\n          dataSize(sub_0)\n          dup1\n          dataOffset(sub_0)\n          0x00\n          codecopy\n          0x00\n          return\n        stop\n\n        sub_0: assembly {\n                /* \"Nik_MD_project3_1.sol\":200:536  contract StringRecord is Record {... */\n              mstore(0x40, 0x80)\n              callvalue\n              dup1\n              iszero\n              tag_1\n              jumpi\n              0x00\n              dup1\n              revert\n            tag_1:\n              pop\n              jumpi(tag_2, lt(calldatasize, 0x04))\n              shr(0xe0, calldataload(0x00))\n              dup1\n              0x0781f5c9\n              eq\n              tag_3\n              jumpi\n              dup1\n              0x1dcd69ec\n              eq\n              tag_4\n              jumpi\n              dup1\n              0x266cf109\n              eq\n              tag_5\n              jumpi\n              dup1\n              0x3e0a0099\n              eq\n              tag_6\n              jumpi\n            tag_2:\n              0x00\n              dup1\n              revert\n                /* \"Nik_MD_project3_1.sol\":346:441  function getRecordType() public pure returns (string memory) {... */\n            tag_3:\n              tag_7\n              tag_8\n              jump\t// in\n            tag_7:\n              mload(0x40)\n              tag_9\n              swap2\n              swap1\n              tag_10\n              jump\t// in\n            tag_9:\n              mload(0x40)\n              dup1\n              swap2\n              sub\n              swap1\n              return\n                /* \"Nik_MD_project3_1.sol\":93:119  uint public timeOfCreation */\n            tag_4:\n              tag_11\n              tag_12\n              jump\t// in\n            tag_11:\n              mload(0x40)\n              tag_13\n              swap2\n              swap1\n              tag_14\n              jump\t// in\n            tag_13:\n              mload(0x40)\n              dup1\n              swap2\n              sub\n              swap1\n              return\n                /* \"Nik_MD_project3_1.sol\":239:259  string public record */\n            tag_5:\n              tag_15\n              tag_16\n              jump\t// in\n            tag_15:\n              mload(0x40)\n              tag_17\n              swap2\n              swap1\n              tag_10\n              jump\t// in\n            tag_17:\n              mload(0x40)\n              dup1\n              swap2\n              sub\n              swap1\n              return\n                /* \"Nik_MD_project3_1.sol\":449:533  function setRecord(string memory _record) public {... */\n            tag_6:\n              tag_18\n              0x04\n              dup1\n              calldatasize\n              sub\n              dup2\n              add\n              swap1\n              tag_19\n              swap2\n              swap1\n              tag_20\n              jump\t// in\n            tag_19:\n              tag_21\n              jump\t// in\n            tag_18:\n              stop\n                /* \"Nik_MD_project3_1.sol\":346:441  function getRecordType() public pure returns (string memory) {... */\n            tag_8:\n                /* \"Nik_MD_project3_1.sol\":392:405  string memory */\n              0x60\n                /* \"Nik_MD_project3_1.sol\":418:433  return \"string\" */\n              mload(0x40)\n              dup1\n              0x40\n              add\n              0x40\n              mstore\n              dup1\n              0x06\n              dup2\n              mstore\n              0x20\n              add\n              0x737472696e670000000000000000000000000000000000000000000000000000\n              dup2\n              mstore\n              pop\n              swap1\n              pop\n                /* \"Nik_MD_project3_1.sol\":346:441  function getRecordType() public pure returns (string memory) {... */\n              swap1\n              jump\t// out\n                /* \"Nik_MD_project3_1.sol\":93:119  uint public timeOfCreation */\n            tag_12:\n              sload(0x00)\n              dup2\n              jump\t// out\n                /* \"Nik_MD_project3_1.sol\":239:259  string public record */\n            tag_16:\n              0x01\n              dup1\n              sload\n              tag_23\n              swap1\n              tag_24\n              jump\t// in\n            tag_23:\n              dup1\n              0x1f\n              add\n              0x20\n              dup1\n              swap2\n              div\n              mul\n              0x20\n              add\n              mload(0x40)\n              swap1\n              dup2\n              add\n              0x40\n              mstore\n              dup1\n              swap3\n              swap2\n              swap1\n              dup2\n              dup2\n              mstore\n              0x20\n              add\n              dup3\n              dup1\n              sload\n              tag_25\n              swap1\n              tag_24\n              jump\t// in\n            tag_25:\n              dup1\n              iszero\n              tag_26\n              jumpi\n              dup1\n              0x1f\n              lt\n              tag_27\n              jumpi\n              0x0100\n              dup1\n              dup4\n              sload\n              div\n              mul\n              dup4\n              mstore\n              swap2\n              0x20\n              add\n              swap2\n              jump(tag_26)\n            tag_27:\n              dup3\n              add\n              swap2\n              swap1\n              0x00\n              mstore\n              keccak256(0x00, 0x20)\n              swap1\n            tag_28:\n              dup2\n              sload\n              dup2\n              mstore\n              swap1\n              0x01\n              add\n              swap1\n              0x20\n              add\n              dup1\n              dup4\n              gt\n              tag_28\n              jumpi\n              dup3\n              swap1\n              sub\n              0x1f\n              and\n              dup3\n              add\n              swap2\n            tag_26:\n              pop\n              pop\n              pop\n              pop\n              pop\n              dup2\n              jump\t// out\n                /* \"Nik_MD_project3_1.sol\":449:533  function setRecord(string memory _record) public {... */\n            tag_21:\n                /* \"Nik_MD_project3_1.sol\":518:525  _record */\n              dup1\n                /* \"Nik_MD_project3_1.sol\":509:515  record */\n              0x01\n                /* \"Nik_MD_project3_1.sol\":509:525  record = _record */\n              swap1\n              dup2\n              tag_30\n              swap2\n              swap1\n              tag_31\n              jump\t// in\n            tag_30:\n              pop\n                /* \"Nik_MD_project3_1.sol\":449:533  function setRecord(string memory _record) public {... */\n              pop\n              jump\t// out\n                /* \"#utility.yul\":7:106   */\n            tag_32:\n                /* \"#utility.yul\":59:65   */\n              0x00\n                /* \"#utility.yul\":93:98   */\n              dup2\n                /* \"#utility.yul\":87:99   */\n              mload\n                /* \"#utility.yul\":77:99   */\n              swap1\n              pop\n                /* \"#utility.yul\":7:106   */\n              swap2\n              swap1\n              pop\n              jump\t// out\n                /* \"#utility.yul\":112:281   */\n            tag_33:\n                /* \"#utility.yul\":196:207   */\n              0x00\n                /* \"#utility.yul\":230:236   */\n              dup3\n                /* \"#utility.yul\":225:228   */\n              dup3\n                /* \"#utility.yul\":218:237   */\n              mstore\n                /* \"#utility.yul\":270:274   */\n              0x20\n                /* \"#utility.yul\":265:268   */\n              dup3\n                /* \"#utility.yul\":261:275   */\n              add\n                /* \"#utility.yul\":246:275   */\n              swap1\n              pop\n                /* \"#utility.yul\":112:281   */\n              swap3\n              swap2\n              pop\n              pop\n              jump\t// out\n                /* \"#utility.yul\":287:533   */\n            tag_34:\n                /* \"#utility.yul\":368:369   */\n              0x00\n                /* \"#utility.yul\":378:491   */\n            tag_71:\n                /* \"#utility.yul\":392:398   */\n              dup4\n                /* \"#utility.yul\":389:390   */\n              dup2\n                /* \"#utility.yul\":386:399   */\n              lt\n                /* \"#utility.yul\":378:491   */\n              iszero\n              tag_73\n              jumpi\n                /* \"#utility.yul\":477:478   */\n              dup1\n                /* \"#utility.yul\":472:475   */\n              dup3\n                /* \"#utility.yul\":468:479   */\n              add\n                /* \"#utility.yul\":462:480   */\n              mload\n                /* \"#utility.yul\":458:459   */\n              dup2\n                /* \"#utility.yul\":453:456   */\n              dup5\n                /* \"#utility.yul\":449:460   */\n              add\n                /* \"#utility.yul\":442:481   */\n              mstore\n                /* \"#utility.yul\":414:416   */\n              0x20\n                /* \"#utility.yul\":411:412   */\n              dup2\n                /* \"#utility.yul\":407:417   */\n              add\n                /* \"#utility.yul\":402:417   */\n              swap1\n              pop\n                /* \"#utility.yul\":378:491   */\n              jump(tag_71)\n            tag_73:\n                /* \"#utility.yul\":525:526   */\n              0x00\n                /* \"#utility.yul\":516:522   */\n              dup5\n                /* \"#utility.yul\":511:514   */\n              dup5\n                /* \"#utility.yul\":507:523   */\n              add\n                /* \"#utility.yul\":500:527   */\n              mstore\n                /* \"#utility.yul\":349:533   */\n              pop\n                /* \"#utility.yul\":287:533   */\n              pop\n              pop\n              pop\n              jump\t// out\n                /* \"#utility.yul\":539:641   */\n            tag_35:\n                /* \"#utility.yul\":580:586   */\n              0x00\n                /* \"#utility.yul\":631:633   */\n              0x1f\n                /* \"#utility.yul\":627:634   */\n              not\n                /* \"#utility.yul\":622:624   */\n              0x1f\n                /* \"#utility.yul\":615:620   */\n              dup4\n                /* \"#utility.yul\":611:625   */\n              add\n                /* \"#utility.yul\":607:635   */\n              and\n                /* \"#utility.yul\":597:635   */\n              swap1\n              pop\n                /* \"#utility.yul\":539:641   */\n              swap2\n              swap1\n              pop\n              jump\t// out\n                /* \"#utility.yul\":647:1024   */\n            tag_36:\n                /* \"#utility.yul\":735:738   */\n              0x00\n                /* \"#utility.yul\":763:802   */\n              tag_76\n                /* \"#utility.yul\":796:801   */\n              dup3\n                /* \"#utility.yul\":763:802   */\n              tag_32\n              jump\t// in\n            tag_76:\n                /* \"#utility.yul\":818:889   */\n              tag_77\n                /* \"#utility.yul\":882:888   */\n              dup2\n                /* \"#utility.yul\":877:880   */\n              dup6\n                /* \"#utility.yul\":818:889   */\n              tag_33\n              jump\t// in\n            tag_77:\n                /* \"#utility.yul\":811:889   */\n              swap4\n              pop\n                /* \"#utility.yul\":898:963   */\n              tag_78\n                /* \"#utility.yul\":956:962   */\n              dup2\n                /* \"#utility.yul\":951:954   */\n              dup6\n                /* \"#utility.yul\":944:948   */\n              0x20\n                /* \"#utility.yul\":937:942   */\n              dup7\n                /* \"#utility.yul\":933:949   */\n              add\n                /* \"#utility.yul\":898:963   */\n              tag_34\n              jump\t// in\n            tag_78:\n                /* \"#utility.yul\":988:1017   */\n              tag_79\n                /* \"#utility.yul\":1010:1016   */\n              dup2\n                /* \"#utility.yul\":988:1017   */\n              tag_35\n              jump\t// in\n            tag_79:\n                /* \"#utility.yul\":983:986   */\n              dup5\n                /* \"#utility.yul\":979:1018   */\n              add\n                /* \"#utility.yul\":972:1018   */\n              swap2\n              pop\n                /* \"#utility.yul\":739:1024   */\n              pop\n                /* \"#utility.yul\":647:1024   */\n              swap3\n              swap2\n              pop\n              pop\n              jump\t// out\n                /* \"#utility.yul\":1030:1343   */\n            tag_10:\n                /* \"#utility.yul\":1143:1147   */\n              0x00\n                /* \"#utility.yul\":1181:1183   */\n              0x20\n                /* \"#utility.yul\":1170:1179   */\n              dup3\n                /* \"#utility.yul\":1166:1184   */\n              add\n                /* \"#utility.yul\":1158:1184   */\n              swap1\n              pop\n                /* \"#utility.yul\":1230:1239   */\n              dup2\n                /* \"#utility.yul\":1224:1228   */\n              dup2\n                /* \"#utility.yul\":1220:1240   */\n              sub\n                /* \"#utility.yul\":1216:1217   */\n              0x00\n                /* \"#utility.yul\":1205:1214   */\n              dup4\n                /* \"#utility.yul\":1201:1218   */\n              add\n                /* \"#utility.yul\":1194:1241   */\n              mstore\n                /* \"#utility.yul\":1258:1336   */\n              tag_81\n                /* \"#utility.yul\":1331:1335   */\n              dup2\n                /* \"#utility.yul\":1322:1328   */\n              dup5\n                /* \"#utility.yul\":1258:1336   */\n              tag_36\n              jump\t// in\n            tag_81:\n                /* \"#utility.yul\":1250:1336   */\n              swap1\n              pop\n                /* \"#utility.yul\":1030:1343   */\n              swap3\n              swap2\n              pop\n              pop\n              jump\t// out\n                /* \"#utility.yul\":1349:1426   */\n            tag_37:\n                /* \"#utility.yul\":1386:1393   */\n              0x00\n                /* \"#utility.yul\":1415:1420   */\n              dup2\n                /* \"#utility.yul\":1404:1420   */\n              swap1\n              pop\n                /* \"#utility.yul\":1349:1426   */\n              swap2\n              swap1\n              pop\n              jump\t// out\n                /* \"#utility.yul\":1432:1550   */\n            tag_38:\n                /* \"#utility.yul\":1519:1543   */\n              tag_84\n                /* \"#utility.yul\":1537:1542   */\n              dup2\n                /* \"#utility.yul\":1519:1543   */\n              tag_37\n              jump\t// in\n            tag_84:\n                /* \"#utility.yul\":1514:1517   */\n              dup3\n                /* \"#utility.yul\":1507:1544   */\n              mstore\n                /* \"#utility.yul\":1432:1550   */\n              pop\n              pop\n              jump\t// out\n                /* \"#utility.yul\":1556:1778   */\n            tag_14:\n                /* \"#utility.yul\":1649:1653   */\n              0x00\n                /* \"#utility.yul\":1687:1689   */\n              0x20\n                /* \"#utility.yul\":1676:1685   */\n              dup3\n                /* \"#utility.yul\":1672:1690   */\n              add\n                /* \"#utility.yul\":1664:1690   */\n              swap1\n              pop\n                /* \"#utility.yul\":1700:1771   */\n              tag_86\n                /* \"#utility.yul\":1768:1769   */\n              0x00\n                /* \"#utility.yul\":1757:1766   */\n              dup4\n                /* \"#utility.yul\":1753:1770   */\n              add\n                /* \"#utility.yul\":1744:1750   */\n              dup5\n                /* \"#utility.yul\":1700:1771   */\n              tag_38\n              jump\t// in\n            tag_86:\n                /* \"#utility.yul\":1556:1778   */\n              swap3\n              swap2\n              pop\n              pop\n              jump\t// out\n                /* \"#utility.yul\":1784:1859   */\n            tag_39:\n                /* \"#utility.yul\":1817:1823   */\n              0x00\n                /* \"#utility.yul\":1850:1852   */\n              0x40\n                /* \"#utility.yul\":1844:1853   */\n              mload\n                /* \"#utility.yul\":1834:1853   */\n              swap1\n              pop\n                /* \"#utility.yul\":1784:1859   */\n              swap1\n              jump\t// out\n                /* \"#utility.yul\":1865:1982   */\n            tag_40:\n                /* \"#utility.yul\":1974:1975   */\n              0x00\n                /* \"#utility.yul\":1971:1972   */\n              dup1\n                /* \"#utility.yul\":1964:1976   */\n              revert\n                /* \"#utility.yul\":1988:2105   */\n            tag_41:\n                /* \"#utility.yul\":2097:2098   */\n              0x00\n                /* \"#utility.yul\":2094:2095   */\n              dup1\n                /* \"#utility.yul\":2087:2099   */\n              revert\n                /* \"#utility.yul\":2111:2228   */\n            tag_42:\n                /* \"#utility.yul\":2220:2221   */\n              0x00\n                /* \"#utility.yul\":2217:2218   */\n              dup1\n                /* \"#utility.yul\":2210:2222   */\n              revert\n                /* \"#utility.yul\":2234:2351   */\n            tag_43:\n                /* \"#utility.yul\":2343:2344   */\n              0x00\n                /* \"#utility.yul\":2340:2341   */\n              dup1\n                /* \"#utility.yul\":2333:2345   */\n              revert\n                /* \"#utility.yul\":2357:2537   */\n            tag_44:\n                /* \"#utility.yul\":2405:2482   */\n              0x4e487b7100000000000000000000000000000000000000000000000000000000\n                /* \"#utility.yul\":2402:2403   */\n              0x00\n                /* \"#utility.yul\":2395:2483   */\n              mstore\n                /* \"#utility.yul\":2502:2506   */\n              0x41\n                /* \"#utility.yul\":2499:2500   */\n              0x04\n                /* \"#utility.yul\":2492:2507   */\n              mstore\n                /* \"#utility.yul\":2526:2530   */\n              0x24\n                /* \"#utility.yul\":2523:2524   */\n              0x00\n                /* \"#utility.yul\":2516:2531   */\n              revert\n                /* \"#utility.yul\":2543:2824   */\n            tag_45:\n                /* \"#utility.yul\":2626:2653   */\n              tag_94\n                /* \"#utility.yul\":2648:2652   */\n              dup3\n                /* \"#utility.yul\":2626:2653   */\n              tag_35\n              jump\t// in\n            tag_94:\n                /* \"#utility.yul\":2618:2624   */\n              dup2\n                /* \"#utility.yul\":2614:2654   */\n              add\n                /* \"#utility.yul\":2756:2762   */\n              dup2\n                /* \"#utility.yul\":2744:2754   */\n              dup2\n                /* \"#utility.yul\":2741:2763   */\n              lt\n                /* \"#utility.yul\":2720:2738   */\n              0xffffffffffffffff\n                /* \"#utility.yul\":2708:2718   */\n              dup3\n                /* \"#utility.yul\":2705:2739   */\n              gt\n                /* \"#utility.yul\":2702:2764   */\n              or\n                /* \"#utility.yul\":2699:2787   */\n              iszero\n              tag_95\n              jumpi\n                /* \"#utility.yul\":2767:2785   */\n              tag_96\n              tag_44\n              jump\t// in\n            tag_96:\n                /* \"#utility.yul\":2699:2787   */\n            tag_95:\n                /* \"#utility.yul\":2807:2817   */\n              dup1\n                /* \"#utility.yul\":2803:2805   */\n              0x40\n                /* \"#utility.yul\":2796:2818   */\n              mstore\n                /* \"#utility.yul\":2586:2824   */\n              pop\n                /* \"#utility.yul\":2543:2824   */\n              pop\n              pop\n              jump\t// out\n                /* \"#utility.yul\":2830:2959   */\n            tag_46:\n                /* \"#utility.yul\":2864:2870   */\n              0x00\n                /* \"#utility.yul\":2891:2911   */\n              tag_98\n              tag_39\n              jump\t// in\n            tag_98:\n                /* \"#utility.yul\":2881:2911   */\n              swap1\n              pop\n                /* \"#utility.yul\":2920:2953   */\n              tag_99\n                /* \"#utility.yul\":2948:2952   */\n              dup3\n                /* \"#utility.yul\":2940:2946   */\n              dup3\n                /* \"#utility.yul\":2920:2953   */\n              tag_45\n              jump\t// in\n            tag_99:\n                /* \"#utility.yul\":2830:2959   */\n              swap2\n              swap1\n              pop\n              jump\t// out\n                /* \"#utility.yul\":2965:3273   */\n            tag_47:\n                /* \"#utility.yul\":3027:3031   */\n              0x00\n                /* \"#utility.yul\":3117:3135   */\n              0xffffffffffffffff\n                /* \"#utility.yul\":3109:3115   */\n              dup3\n                /* \"#utility.yul\":3106:3136   */\n              gt\n                /* \"#utility.yul\":3103:3159   */\n              iszero\n              tag_101\n              jumpi\n                /* \"#utility.yul\":3139:3157   */\n              tag_102\n              tag_44\n              jump\t// in\n            tag_102:\n                /* \"#utility.yul\":3103:3159   */\n            tag_101:\n                /* \"#utility.yul\":3177:3206   */\n              tag_103\n                /* \"#utility.yul\":3199:3205   */\n              dup3\n                /* \"#utility.yul\":3177:3206   */\n              tag_35\n              jump\t// in\n            tag_103:\n                /* \"#utility.yul\":3169:3206   */\n              swap1\n              pop\n                /* \"#utility.yul\":3261:3265   */\n              0x20\n                /* \"#utility.yul\":3255:3259   */\n              dup2\n                /* \"#utility.yul\":3251:3266   */\n              add\n                /* \"#utility.yul\":3243:3266   */\n              swap1\n              pop\n                /* \"#utility.yul\":2965:3273   */\n              swap2\n              swap1\n              pop\n              jump\t// out\n                /* \"#utility.yul\":3279:3425   */\n            tag_48:\n                /* \"#utility.yul\":3376:3382   */\n              dup3\n                /* \"#utility.yul\":3371:3374   */\n              dup2\n                /* \"#utility.yul\":3366:3369   */\n              dup4\n                /* \"#utility.yul\":3353:3383   */\n              calldatacopy\n                /* \"#utility.yul\":3417:3418   */\n              0x00\n                /* \"#utility.yul\":3408:3414   */\n              dup4\n                /* \"#utility.yul\":3403:3406   */\n              dup4\n                /* \"#utility.yul\":3399:3415   */\n              add\n                /* \"#utility.yul\":3392:3419   */\n              mstore\n                /* \"#utility.yul\":3279:3425   */\n              pop\n              pop\n              pop\n              jump\t// out\n                /* \"#utility.yul\":3431:3856   */\n            tag_49:\n                /* \"#utility.yul\":3509:3514   */\n              0x00\n                /* \"#utility.yul\":3534:3600   */\n              tag_106\n                /* \"#utility.yul\":3550:3599   */\n              tag_107\n                /* \"#utility.yul\":3592:3598   */\n              dup5\n                /* \"#utility.yul\":3550:3599   */\n              tag_47\n              jump\t// in\n            tag_107:\n                /* \"#utility.yul\":3534:3600   */\n              tag_46\n              jump\t// in\n            tag_106:\n                /* \"#utility.yul\":3525:3600   */\n              swap1\n              pop\n                /* \"#utility.yul\":3623:3629   */\n              dup3\n                /* \"#utility.yul\":3616:3621   */\n              dup2\n                /* \"#utility.yul\":3609:3630   */\n              mstore\n                /* \"#utility.yul\":3661:3665   */\n              0x20\n                /* \"#utility.yul\":3654:3659   */\n              dup2\n                /* \"#utility.yul\":3650:3666   */\n              add\n                /* \"#utility.yul\":3699:3702   */\n              dup5\n                /* \"#utility.yul\":3690:3696   */\n              dup5\n                /* \"#utility.yul\":3685:3688   */\n              dup5\n                /* \"#utility.yul\":3681:3697   */\n              add\n                /* \"#utility.yul\":3678:3703   */\n              gt\n                /* \"#utility.yul\":3675:3787   */\n              iszero\n              tag_108\n              jumpi\n                /* \"#utility.yul\":3706:3785   */\n              tag_109\n              tag_43\n              jump\t// in\n            tag_109:\n                /* \"#utility.yul\":3675:3787   */\n            tag_108:\n                /* \"#utility.yul\":3796:3850   */\n              tag_110\n                /* \"#utility.yul\":3843:3849   */\n              dup5\n                /* \"#utility.yul\":3838:3841   */\n              dup3\n                /* \"#utility.yul\":3833:3836   */\n              dup6\n                /* \"#utility.yul\":3796:3850   */\n              tag_48\n              jump\t// in\n            tag_110:\n                /* \"#utility.yul\":3515:3856   */\n              pop\n                /* \"#utility.yul\":3431:3856   */\n              swap4\n              swap3\n              pop\n              pop\n              pop\n              jump\t// out\n                /* \"#utility.yul\":3876:4216   */\n            tag_50:\n                /* \"#utility.yul\":3932:3937   */\n              0x00\n                /* \"#utility.yul\":3981:3984   */\n              dup3\n                /* \"#utility.yul\":3974:3978   */\n              0x1f\n                /* \"#utility.yul\":3966:3972   */\n              dup4\n                /* \"#utility.yul\":3962:3979   */\n              add\n                /* \"#utility.yul\":3958:3985   */\n              slt\n                /* \"#utility.yul\":3948:4070   */\n              tag_112\n              jumpi\n                /* \"#utility.yul\":3989:4068   */\n              tag_113\n              tag_42\n              jump\t// in\n            tag_113:\n                /* \"#utility.yul\":3948:4070   */\n            tag_112:\n                /* \"#utility.yul\":4106:4112   */\n              dup2\n                /* \"#utility.yul\":4093:4113   */\n              calldataload\n                /* \"#utility.yul\":4131:4210   */\n              tag_114\n                /* \"#utility.yul\":4206:4209   */\n              dup5\n                /* \"#utility.yul\":4198:4204   */\n              dup3\n                /* \"#utility.yul\":4191:4195   */\n              0x20\n                /* \"#utility.yul\":4183:4189   */\n              dup7\n                /* \"#utility.yul\":4179:4196   */\n              add\n                /* \"#utility.yul\":4131:4210   */\n              tag_49\n              jump\t// in\n            tag_114:\n                /* \"#utility.yul\":4122:4210   */\n              swap2\n              pop\n                /* \"#utility.yul\":3938:4216   */\n              pop\n                /* \"#utility.yul\":3876:4216   */\n              swap3\n              swap2\n              pop\n              pop\n              jump\t// out\n                /* \"#utility.yul\":4222:4731   */\n            tag_20:\n                /* \"#utility.yul\":4291:4297   */\n              0x00\n                /* \"#utility.yul\":4340:4342   */\n              0x20\n                /* \"#utility.yul\":4328:4337   */\n              dup3\n                /* \"#utility.yul\":4319:4326   */\n              dup5\n                /* \"#utility.yul\":4315:4338   */\n              sub\n                /* \"#utility.yul\":4311:4343   */\n              slt\n                /* \"#utility.yul\":4308:4427   */\n              iszero\n              tag_116\n              jumpi\n                /* \"#utility.yul\":4346:4425   */\n              tag_117\n              tag_40\n              jump\t// in\n            tag_117:\n                /* \"#utility.yul\":4308:4427   */\n            tag_116:\n                /* \"#utility.yul\":4494:4495   */\n              0x00\n                /* \"#utility.yul\":4483:4492   */\n              dup3\n                /* \"#utility.yul\":4479:4496   */\n              add\n                /* \"#utility.yul\":4466:4497   */\n              calldataload\n                /* \"#utility.yul\":4524:4542   */\n              0xffffffffffffffff\n                /* \"#utility.yul\":4516:4522   */\n              dup2\n                /* \"#utility.yul\":4513:4543   */\n              gt\n                /* \"#utility.yul\":4510:4627   */\n              iszero\n              tag_118\n              jumpi\n                /* \"#utility.yul\":4546:4625   */\n              tag_119\n              tag_41\n              jump\t// in\n            tag_119:\n                /* \"#utility.yul\":4510:4627   */\n            tag_118:\n                /* \"#utility.yul\":4651:4714   */\n              tag_120\n                /* \"#utility.yul\":4706:4713   */\n              dup5\n                /* \"#utility.yul\":4697:4703   */\n              dup3\n                /* \"#utility.yul\":4686:4695   */\n              dup6\n                /* \"#utility.yul\":4682:4704   */\n              add\n                /* \"#utility.yul\":4651:4714   */\n              tag_50\n              jump\t// in\n            tag_120:\n                /* \"#utility.yul\":4641:4714   */\n              swap2\n              pop\n                /* \"#utility.yul\":4437:4724   */\n              pop\n                /* \"#utility.yul\":4222:4731   */\n              swap3\n              swap2\n              pop\n              pop\n              jump\t// out\n                /* \"#utility.yul\":4737:4917   */\n            tag_51:\n                /* \"#utility.yul\":4785:4862   */\n              0x4e487b7100000000000000000000000000000000000000000000000000000000\n                /* \"#utility.yul\":4782:4783   */\n              0x00\n                /* \"#utility.yul\":4775:4863   */\n              mstore\n                /* \"#utility.yul\":4882:4886   */\n              0x22\n                /* \"#utility.yul\":4879:4880   */\n              0x04\n                /* \"#utility.yul\":4872:4887   */\n              mstore\n                /* \"#utility.yul\":4906:4910   */\n              0x24\n                /* \"#utility.yul\":4903:4904   */\n              0x00\n                /* \"#utility.yul\":4896:4911   */\n              revert\n                /* \"#utility.yul\":4923:5243   */\n            tag_24:\n                /* \"#utility.yul\":4967:4973   */\n              0x00\n                /* \"#utility.yul\":5004:5005   */\n              0x02\n                /* \"#utility.yul\":4998:5002   */\n              dup3\n                /* \"#utility.yul\":4994:5006   */\n              div\n                /* \"#utility.yul\":4984:5006   */\n              swap1\n              pop\n                /* \"#utility.yul\":5051:5052   */\n              0x01\n                /* \"#utility.yul\":5045:5049   */\n              dup3\n                /* \"#utility.yul\":5041:5053   */\n              and\n                /* \"#utility.yul\":5072:5090   */\n              dup1\n                /* \"#utility.yul\":5062:5143   */\n              tag_123\n              jumpi\n                /* \"#utility.yul\":5128:5132   */\n              0x7f\n                /* \"#utility.yul\":5120:5126   */\n              dup3\n                /* \"#utility.yul\":5116:5133   */\n              and\n                /* \"#utility.yul\":5106:5133   */\n              swap2\n              pop\n                /* \"#utility.yul\":5062:5143   */\n            tag_123:\n                /* \"#utility.yul\":5190:5192   */\n              0x20\n                /* \"#utility.yul\":5182:5188   */\n              dup3\n                /* \"#utility.yul\":5179:5193   */\n              lt\n                /* \"#utility.yul\":5159:5177   */\n              dup2\n                /* \"#utility.yul\":5156:5194   */\n              sub\n                /* \"#utility.yul\":5153:5237   */\n              tag_124\n              jumpi\n                /* \"#utility.yul\":5209:5227   */\n              tag_125\n              tag_51\n              jump\t// in\n            tag_125:\n                /* \"#utility.yul\":5153:5237   */\n            tag_124:\n                /* \"#utility.yul\":4974:5243   */\n              pop\n                /* \"#utility.yul\":4923:5243   */\n              swap2\n              swap1\n              pop\n              jump\t// out\n                /* \"#utility.yul\":5249:5390   */\n            tag_52:\n                /* \"#utility.yul\":5298:5302   */\n              0x00\n                /* \"#utility.yul\":5321:5324   */\n              dup2\n                /* \"#utility.yul\":5313:5324   */\n              swap1\n              pop\n                /* \"#utility.yul\":5344:5347   */\n              dup2\n                /* \"#utility.yul\":5341:5342   */\n              0x00\n                /* \"#utility.yul\":5334:5348   */\n              mstore\n                /* \"#utility.yul\":5378:5382   */\n              0x20\n                /* \"#utility.yul\":5375:5376   */\n              0x00\n                /* \"#utility.yul\":5365:5383   */\n              keccak256\n                /* \"#utility.yul\":5357:5383   */\n              swap1\n              pop\n                /* \"#utility.yul\":5249:5390   */\n              swap2\n              swap1\n              pop\n              jump\t// out\n                /* \"#utility.yul\":5396:5489   */\n            tag_53:\n                /* \"#utility.yul\":5433:5439   */\n              0x00\n                /* \"#utility.yul\":5480:5482   */\n              0x20\n                /* \"#utility.yul\":5475:5477   */\n              0x1f\n                /* \"#utility.yul\":5468:5473   */\n              dup4\n                /* \"#utility.yul\":5464:5478   */\n              add\n                /* \"#utility.yul\":5460:5483   */\n              div\n                /* \"#utility.yul\":5450:5483   */\n              swap1\n              pop\n                /* \"#utility.yul\":5396:5489   */\n              swap2\n              swap1\n              pop\n              jump\t// out\n                /* \"#utility.yul\":5495:5602   */\n            tag_54:\n                /* \"#utility.yul\":5539:5547   */\n              0x00\n                /* \"#utility.yul\":5589:5594   */\n              dup3\n                /* \"#utility.yul\":5583:5587   */\n              dup3\n                /* \"#utility.yul\":5579:5595   */\n              shl\n                /* \"#utility.yul\":5558:5595   */\n              swap1\n              pop\n                /* \"#utility.yul\":5495:5602   */\n              swap3\n              swap2\n              pop\n              pop\n              jump\t// out\n                /* \"#utility.yul\":5608:6001   */\n            tag_55:\n                /* \"#utility.yul\":5677:5683   */\n              0x00\n                /* \"#utility.yul\":5727:5728   */\n              0x08\n                /* \"#utility.yul\":5715:5725   */\n              dup4\n                /* \"#utility.yul\":5711:5729   */\n              mul\n                /* \"#utility.yul\":5750:5847   */\n              tag_130\n                /* \"#utility.yul\":5780:5846   */\n              0xffffffffffffffffffffffffffffffffffffffffffffffffffffffffffffffff\n                /* \"#utility.yul\":5769:5778   */\n              dup3\n                /* \"#utility.yul\":5750:5847   */\n              tag_54\n              jump\t// in\n            tag_130:\n                /* \"#utility.yul\":5868:5907   */\n              tag_131\n                /* \"#utility.yul\":5898:5906   */\n              dup7\n                /* \"#utility.yul\":5887:5896   */\n              dup4\n                /* \"#utility.yul\":5868:5907   */\n              tag_54\n              jump\t// in\n            tag_131:\n                /* \"#utility.yul\":5856:5907   */\n              swap6\n              pop\n                /* \"#utility.yul\":5940:5944   */\n              dup1\n                /* \"#utility.yul\":5936:5945   */\n              not\n                /* \"#utility.yul\":5929:5934   */\n              dup5\n                /* \"#utility.yul\":5925:5946   */\n              and\n                /* \"#utility.yul\":5916:5946   */\n              swap4\n              pop\n                /* \"#utility.yul\":5989:5993   */\n              dup1\n                /* \"#utility.yul\":5979:5987   */\n              dup7\n                /* \"#utility.yul\":5975:5994   */\n              and\n                /* \"#utility.yul\":5968:5973   */\n              dup5\n                /* \"#utility.yul\":5965:5995   */\n              or\n                /* \"#utility.yul\":5955:5995   */\n              swap3\n              pop\n                /* \"#utility.yul\":5684:6001   */\n              pop\n              pop\n                /* \"#utility.yul\":5608:6001   */\n              swap4\n              swap3\n              pop\n              pop\n              pop\n              jump\t// out\n                /* \"#utility.yul\":6007:6067   */\n            tag_56:\n                /* \"#utility.yul\":6035:6038   */\n              0x00\n                /* \"#utility.yul\":6056:6061   */\n              dup2\n                /* \"#utility.yul\":6049:6061   */\n              swap1\n              pop\n                /* \"#utility.yul\":6007:6067   */\n              swap2\n              swap1\n              pop\n              jump\t// out\n                /* \"#utility.yul\":6073:6215   */\n            tag_57:\n                /* \"#utility.yul\":6123:6132   */\n              0x00\n                /* \"#utility.yul\":6156:6209   */\n              tag_134\n                /* \"#utility.yul\":6174:6208   */\n              tag_135\n                /* \"#utility.yul\":6183:6207   */\n              tag_136\n                /* \"#utility.yul\":6201:6206   */\n              dup5\n                /* \"#utility.yul\":6183:6207   */\n              tag_37\n              jump\t// in\n            tag_136:\n                /* \"#utility.yul\":6174:6208   */\n              tag_56\n              jump\t// in\n            tag_135:\n                /* \"#utility.yul\":6156:6209   */\n              tag_37\n              jump\t// in\n            tag_134:\n                /* \"#utility.yul\":6143:6209   */\n              swap1\n              pop\n                /* \"#utility.yul\":6073:6215   */\n              swap2\n              swap1\n              pop\n              jump\t// out\n                /* \"#utility.yul\":6221:6296   */\n            tag_58:\n                /* \"#utility.yul\":6264:6267   */\n              0x00\n                /* \"#utility.yul\":6285:6290   */\n              dup2\n                /* \"#utility.yul\":6278:6290   */\n              swap1\n              pop\n                /* \"#utility.yul\":6221:6296   */\n              swap2\n              swap1\n              pop\n              jump\t// out\n                /* \"#utility.yul\":6302:6571   */\n            tag_59:\n                /* \"#utility.yul\":6412:6451   */\n              tag_139\n                /* \"#utility.yul\":6443:6450   */\n              dup4\n                /* \"#utility.yul\":6412:6451   */\n              tag_57\n              jump\t// in\n            tag_139:\n                /* \"#utility.yul\":6473:6564   */\n              tag_140\n                /* \"#utility.yul\":6522:6563   */\n              tag_141\n                /* \"#utility.yul\":6546:6562   */\n              dup3\n                /* \"#utility.yul\":6522:6563   */\n              tag_58\n              jump\t// in\n            tag_141:\n                /* \"#utility.yul\":6514:6520   */\n              dup5\n                /* \"#utility.yul\":6507:6511   */\n              dup5\n                /* \"#utility.yul\":6501:6512   */\n              sload\n                /* \"#utility.yul\":6473:6564   */\n              tag_55\n              jump\t// in\n            tag_140:\n                /* \"#utility.yul\":6467:6471   */\n              dup3\n                /* \"#utility.yul\":6460:6565   */\n              sstore\n                /* \"#utility.yul\":6378:6571   */\n              pop\n                /* \"#utility.yul\":6302:6571   */\n              pop\n              pop\n              pop\n              jump\t// out\n                /* \"#utility.yul\":6577:6650   */\n            tag_60:\n                /* \"#utility.yul\":6622:6625   */\n              0x00\n                /* \"#utility.yul\":6577:6650   */\n              swap1\n              jump\t// out\n                /* \"#utility.yul\":6656:6845   */\n            tag_61:\n                /* \"#utility.yul\":6733:6765   */\n              tag_144\n              tag_60\n              jump\t// in\n            tag_144:\n                /* \"#utility.yul\":6774:6839   */\n              tag_145\n                /* \"#utility.yul\":6832:6838   */\n              dup2\n                /* \"#utility.yul\":6824:6830   */\n              dup5\n                /* \"#utility.yul\":6818:6822   */\n              dup5\n                /* \"#utility.yul\":6774:6839   */\n              tag_59\n              jump\t// in\n            tag_145:\n                /* \"#utility.yul\":6709:6845   */\n              pop\n                /* \"#utility.yul\":6656:6845   */\n              pop\n              pop\n              jump\t// out\n                /* \"#utility.yul\":6851:7037   */\n            tag_62:\n                /* \"#utility.yul\":6911:7031   */\n            tag_147:\n                /* \"#utility.yul\":6928:6931   */\n              dup2\n                /* \"#utility.yul\":6921:6926   */\n              dup2\n                /* \"#utility.yul\":6918:6932   */\n              lt\n                /* \"#utility.yul\":6911:7031   */\n              iszero\n              tag_149\n              jumpi\n                /* \"#utility.yul\":6982:7021   */\n              tag_150\n                /* \"#utility.yul\":7019:7020   */\n              0x00\n                /* \"#utility.yul\":7012:7017   */\n              dup3\n                /* \"#utility.yul\":6982:7021   */\n              tag_61\n              jump\t// in\n            tag_150:\n                /* \"#utility.yul\":6955:6956   */\n              0x01\n                /* \"#utility.yul\":6948:6953   */\n              dup2\n                /* \"#utility.yul\":6944:6957   */\n              add\n                /* \"#utility.yul\":6935:6957   */\n              swap1\n              pop\n                /* \"#utility.yul\":6911:7031   */\n              jump(tag_147)\n            tag_149:\n                /* \"#utility.yul\":6851:7037   */\n              pop\n              pop\n              jump\t// out\n                /* \"#utility.yul\":7043:7586   */\n            tag_63:\n                /* \"#utility.yul\":7144:7146   */\n              0x1f\n                /* \"#utility.yul\":7139:7142   */\n              dup3\n                /* \"#utility.yul\":7136:7147   */\n              gt\n                /* \"#utility.yul\":7133:7579   */\n              iszero\n              tag_152\n              jumpi\n                /* \"#utility.yul\":7178:7216   */\n              tag_153\n                /* \"#utility.yul\":7210:7215   */\n              dup2\n                /* \"#utility.yul\":7178:7216   */\n              tag_52\n              jump\t// in\n            tag_153:\n                /* \"#utility.yul\":7262:7291   */\n              tag_154\n                /* \"#utility.yul\":7280:7290   */\n              dup5\n                /* \"#utility.yul\":7262:7291   */\n              tag_53\n              jump\t// in\n            tag_154:\n                /* \"#utility.yul\":7252:7260   */\n              dup2\n                /* \"#utility.yul\":7248:7292   */\n              add\n                /* \"#utility.yul\":7445:7447   */\n              0x20\n                /* \"#utility.yul\":7433:7443   */\n              dup6\n                /* \"#utility.yul\":7430:7448   */\n              lt\n                /* \"#utility.yul\":7427:7476   */\n              iszero\n              tag_155\n              jumpi\n                /* \"#utility.yul\":7466:7474   */\n              dup2\n                /* \"#utility.yul\":7451:7474   */\n              swap1\n              pop\n                /* \"#utility.yul\":7427:7476   */\n            tag_155:\n                /* \"#utility.yul\":7489:7569   */\n              tag_156\n                /* \"#utility.yul\":7545:7567   */\n              tag_157\n                /* \"#utility.yul\":7563:7566   */\n              dup6\n                /* \"#utility.yul\":7545:7567   */\n              tag_53\n              jump\t// in\n            tag_157:\n                /* \"#utility.yul\":7535:7543   */\n              dup4\n                /* \"#utility.yul\":7531:7568   */\n              add\n                /* \"#utility.yul\":7518:7529   */\n              dup3\n                /* \"#utility.yul\":7489:7569   */\n              tag_62\n              jump\t// in\n            tag_156:\n                /* \"#utility.yul\":7148:7579   */\n              pop\n              pop\n                /* \"#utility.yul\":7133:7579   */\n            tag_152:\n                /* \"#utility.yul\":7043:7586   */\n              pop\n              pop\n              pop\n              jump\t// out\n                /* \"#utility.yul\":7592:7709   */\n            tag_64:\n                /* \"#utility.yul\":7646:7654   */\n              0x00\n                /* \"#utility.yul\":7696:7701   */\n              dup3\n                /* \"#utility.yul\":7690:7694   */\n              dup3\n                /* \"#utility.yul\":7686:7702   */\n              shr\n                /* \"#utility.yul\":7665:7702   */\n              swap1\n              pop\n                /* \"#utility.yul\":7592:7709   */\n              swap3\n              swap2\n              pop\n              pop\n              jump\t// out\n                /* \"#utility.yul\":7715:7884   */\n            tag_65:\n                /* \"#utility.yul\":7759:7765   */\n              0x00\n                /* \"#utility.yul\":7792:7843   */\n              tag_160\n                /* \"#utility.yul\":7840:7841   */\n              0x00\n                /* \"#utility.yul\":7836:7842   */\n              not\n                /* \"#utility.yul\":7828:7833   */\n              dup5\n                /* \"#utility.yul\":7825:7826   */\n              0x08\n                /* \"#utility.yul\":7821:7834   */\n              mul\n                /* \"#utility.yul\":7792:7843   */\n              tag_64\n              jump\t// in\n            tag_160:\n                /* \"#utility.yul\":7788:7844   */\n              not\n                /* \"#utility.yul\":7873:7877   */\n              dup1\n                /* \"#utility.yul\":7867:7871   */\n              dup4\n                /* \"#utility.yul\":7863:7878   */\n              and\n                /* \"#utility.yul\":7853:7878   */\n              swap2\n              pop\n                /* \"#utility.yul\":7766:7884   */\n              pop\n                /* \"#utility.yul\":7715:7884   */\n              swap3\n              swap2\n              pop\n              pop\n              jump\t// out\n                /* \"#utility.yul\":7889:8184   */\n            tag_66:\n                /* \"#utility.yul\":7965:7969   */\n              0x00\n                /* \"#utility.yul\":8111:8140   */\n              tag_162\n                /* \"#utility.yul\":8136:8139   */\n              dup4\n                /* \"#utility.yul\":8130:8134   */\n              dup4\n                /* \"#utility.yul\":8111:8140   */\n              tag_65\n              jump\t// in\n            tag_162:\n                /* \"#utility.yul\":8103:8140   */\n              swap2\n              pop\n                /* \"#utility.yul\":8173:8176   */\n              dup3\n                /* \"#utility.yul\":8170:8171   */\n              0x02\n                /* \"#utility.yul\":8166:8177   */\n              mul\n                /* \"#utility.yul\":8160:8164   */\n              dup3\n                /* \"#utility.yul\":8157:8178   */\n              or\n                /* \"#utility.yul\":8149:8178   */\n              swap1\n              pop\n                /* \"#utility.yul\":7889:8184   */\n              swap3\n              swap2\n              pop\n              pop\n              jump\t// out\n                /* \"#utility.yul\":8189:9584   */\n            tag_31:\n                /* \"#utility.yul\":8306:8343   */\n              tag_164\n                /* \"#utility.yul\":8339:8342   */\n              dup3\n                /* \"#utility.yul\":8306:8343   */\n              tag_32\n              jump\t// in\n            tag_164:\n                /* \"#utility.yul\":8408:8426   */\n              0xffffffffffffffff\n                /* \"#utility.yul\":8400:8406   */\n              dup2\n                /* \"#utility.yul\":8397:8427   */\n              gt\n                /* \"#utility.yul\":8394:8450   */\n              iszero\n              tag_165\n              jumpi\n                /* \"#utility.yul\":8430:8448   */\n              tag_166\n              tag_44\n              jump\t// in\n            tag_166:\n                /* \"#utility.yul\":8394:8450   */\n            tag_165:\n                /* \"#utility.yul\":8474:8512   */\n              tag_167\n                /* \"#utility.yul\":8506:8510   */\n              dup3\n                /* \"#utility.yul\":8500:8511   */\n              sload\n                /* \"#utility.yul\":8474:8512   */\n              tag_24\n              jump\t// in\n            tag_167:\n                /* \"#utility.yul\":8559:8626   */\n              tag_168\n                /* \"#utility.yul\":8619:8625   */\n              dup3\n                /* \"#utility.yul\":8611:8617   */\n              dup3\n                /* \"#utility.yul\":8605:8609   */\n              dup6\n                /* \"#utility.yul\":8559:8626   */\n              tag_63\n              jump\t// in\n            tag_168:\n                /* \"#utility.yul\":8653:8654   */\n              0x00\n                /* \"#utility.yul\":8677:8681   */\n              0x20\n                /* \"#utility.yul\":8664:8681   */\n              swap1\n              pop\n                /* \"#utility.yul\":8709:8711   */\n              0x1f\n                /* \"#utility.yul\":8701:8707   */\n              dup4\n                /* \"#utility.yul\":8698:8712   */\n              gt\n                /* \"#utility.yul\":8726:8727   */\n              0x01\n                /* \"#utility.yul\":8721:9339   */\n              dup2\n              eq\n              tag_170\n              jumpi\n                /* \"#utility.yul\":9383:9384   */\n              0x00\n                /* \"#utility.yul\":9400:9406   */\n              dup5\n                /* \"#utility.yul\":9397:9474   */\n              iszero\n              tag_171\n              jumpi\n                /* \"#utility.yul\":9449:9458   */\n              dup3\n                /* \"#utility.yul\":9444:9447   */\n              dup8\n                /* \"#utility.yul\":9440:9459   */\n              add\n                /* \"#utility.yul\":9434:9460   */\n              mload\n                /* \"#utility.yul\":9425:9460   */\n              swap1\n              pop\n                /* \"#utility.yul\":9397:9474   */\n            tag_171:\n                /* \"#utility.yul\":9500:9567   */\n              tag_172\n                /* \"#utility.yul\":9560:9566   */\n              dup6\n                /* \"#utility.yul\":9553:9558   */\n              dup3\n                /* \"#utility.yul\":9500:9567   */\n              tag_66\n              jump\t// in\n            tag_172:\n                /* \"#utility.yul\":9494:9498   */\n              dup7\n                /* \"#utility.yul\":9487:9568   */\n              sstore\n                /* \"#utility.yul\":9356:9578   */\n              pop\n                /* \"#utility.yul\":8691:9578   */\n              jump(tag_169)\n                /* \"#utility.yul\":8721:9339   */\n            tag_170:\n                /* \"#utility.yul\":8773:8777   */\n              0x1f\n                /* \"#utility.yul\":8769:8778   */\n              not\n                /* \"#utility.yul\":8761:8767   */\n              dup5\n                /* \"#utility.yul\":8757:8779   */\n              and\n                /* \"#utility.yul\":8807:8844   */\n              tag_173\n                /* \"#utility.yul\":8839:8843   */\n              dup7\n                /* \"#utility.yul\":8807:8844   */\n              tag_52\n              jump\t// in\n            tag_173:\n                /* \"#utility.yul\":8866:8867   */\n              0x00\n                /* \"#utility.yul\":8880:9088   */\n            tag_174:\n                /* \"#utility.yul\":8894:8901   */\n              dup3\n                /* \"#utility.yul\":8891:8892   */\n              dup2\n                /* \"#utility.yul\":8888:8902   */\n              lt\n                /* \"#utility.yul\":8880:9088   */\n              iszero\n              tag_176\n              jumpi\n                /* \"#utility.yul\":8973:8982   */\n              dup5\n                /* \"#utility.yul\":8968:8971   */\n              dup10\n                /* \"#utility.yul\":8964:8983   */\n              add\n                /* \"#utility.yul\":8958:8984   */\n              mload\n                /* \"#utility.yul\":8950:8956   */\n              dup3\n                /* \"#utility.yul\":8943:8985   */\n              sstore\n                /* \"#utility.yul\":9024:9025   */\n              0x01\n                /* \"#utility.yul\":9016:9022   */\n              dup3\n                /* \"#utility.yul\":9012:9026   */\n              add\n                /* \"#utility.yul\":9002:9026   */\n              swap2\n              pop\n                /* \"#utility.yul\":9071:9073   */\n              0x20\n                /* \"#utility.yul\":9060:9069   */\n              dup6\n                /* \"#utility.yul\":9056:9074   */\n              add\n                /* \"#utility.yul\":9043:9074   */\n              swap5\n              pop\n                /* \"#utility.yul\":8917:8921   */\n              0x20\n                /* \"#utility.yul\":8914:8915   */\n              dup2\n                /* \"#utility.yul\":8910:8922   */\n              add\n                /* \"#utility.yul\":8905:8922   */\n              swap1\n              pop\n                /* \"#utility.yul\":8880:9088   */\n              jump(tag_174)\n            tag_176:\n                /* \"#utility.yul\":9116:9122   */\n              dup7\n                /* \"#utility.yul\":9107:9114   */\n              dup4\n                /* \"#utility.yul\":9104:9123   */\n              lt\n                /* \"#utility.yul\":9101:9280   */\n              iszero\n              tag_177\n              jumpi\n                /* \"#utility.yul\":9174:9183   */\n              dup5\n                /* \"#utility.yul\":9169:9172   */\n              dup10\n                /* \"#utility.yul\":9165:9184   */\n              add\n                /* \"#utility.yul\":9159:9185   */\n              mload\n                /* \"#utility.yul\":9217:9265   */\n              tag_178\n                /* \"#utility.yul\":9259:9263   */\n              0x1f\n                /* \"#utility.yul\":9251:9257   */\n              dup10\n                /* \"#utility.yul\":9247:9264   */\n              and\n                /* \"#utility.yul\":9236:9245   */\n              dup3\n                /* \"#utility.yul\":9217:9265   */\n              tag_65\n              jump\t// in\n            tag_178:\n                /* \"#utility.yul\":9209:9215   */\n              dup4\n                /* \"#utility.yul\":9202:9266   */\n              sstore\n                /* \"#utility.yul\":9124:9280   */\n              pop\n                /* \"#utility.yul\":9101:9280   */\n            tag_177:\n                /* \"#utility.yul\":9326:9327   */\n              0x01\n                /* \"#utility.yul\":9322:9323   */\n              0x02\n                /* \"#utility.yul\":9314:9320   */\n              dup9\n                /* \"#utility.yul\":9310:9324   */\n              mul\n                /* \"#utility.yul\":9306:9328   */\n              add\n                /* \"#utility.yul\":9300:9304   */\n              dup9\n                /* \"#utility.yul\":9293:9329   */\n              sstore\n                /* \"#utility.yul\":8728:9339   */\n              pop\n              pop\n              pop\n                /* \"#utility.yul\":8691:9578   */\n            tag_169:\n              pop\n                /* \"#utility.yul\":8281:9584   */\n              pop\n              pop\n              pop\n                /* \"#utility.yul\":8189:9584   */\n              pop\n              pop\n              jump\t// out\n\n            auxdata: 0xa2646970667358221220aa987a126f02963e8548d9b9f40d54a91b6e40214b8665e367f6dffa37e7b50e64736f6c63430008160033\n        }\n    }\n\n    auxdata: 0xa26469706673582212209a85b39c474aeb7b7028eaddc7d552b27164baa4393719aebfaa12ab2bcc78b264736f6c63430008160033\n}\n",
				"bytecode": {
					"linkReferences": {},
					"object": "608060405234801561000f575f80fd5b506117208061001d5f395ff3fe608060405234801562000010575f80fd5b506004361062000044575f3560e01c806334461067146200004857806399b53463146200007e578063d81aa8c4146200009e575b5f80fd5b62000066600480360381019062000060919062000296565b620000be565b6040516200007591906200034c565b60405180910390f35b6200009c6004803603810190620000969190620003a9565b620000f9565b005b620000bc6004803603810190620000b6919062000531565b62000195565b005b5f8181548110620000cd575f80fd5b905f5260205f20015f915054906101000a900473ffffffffffffffffffffffffffffffffffffffff1681565b5f81604051620001099062000231565b62000115919062000591565b604051809103905ff0801580156200012f573d5f803e3d5ffd5b5090505f81908060018154018082558091505060019003905f5260205f20015f9091909190916101000a81548173ffffffffffffffffffffffffffffffffffffffff021916908373ffffffffffffffffffffffffffffffffffffffff1602179055505050565b5f81604051620001a5906200023f565b620001b1919062000630565b604051809103905ff080158015620001cb573d5f803e3d5ffd5b5090505f81908060018154018082558091505060019003905f5260205f20015f9091909190916101000a81548173ffffffffffffffffffffffffffffffffffffffff021916908373ffffffffffffffffffffffffffffffffffffffff1602179055505050565b610443806200065383390190565b610c558062000a9683390190565b5f604051905090565b5f80fd5b5f80fd5b5f819050919050565b62000272816200025e565b81146200027d575f80fd5b50565b5f81359050620002908162000267565b92915050565b5f60208284031215620002ae57620002ad62000256565b5b5f620002bd8482850162000280565b91505092915050565b5f73ffffffffffffffffffffffffffffffffffffffff82169050919050565b5f819050919050565b5f6200030e620003086200030284620002c6565b620002e5565b620002c6565b9050919050565b5f6200032182620002ee565b9050919050565b5f620003348262000315565b9050919050565b620003468162000328565b82525050565b5f602082019050620003615f8301846200033b565b92915050565b5f6200037382620002c6565b9050919050565b620003858162000367565b811462000390575f80fd5b50565b5f81359050620003a3816200037a565b92915050565b5f60208284031215620003c157620003c062000256565b5b5f620003d08482850162000393565b91505092915050565b5f80fd5b5f80fd5b5f601f19601f8301169050919050565b7f4e487b71000000000000000000000000000000000000000000000000000000005f52604160045260245ffd5b6200042982620003e1565b810181811067ffffffffffffffff821117156200044b576200044a620003f1565b5b80604052505050565b5f6200045f6200024d565b90506200046d82826200041e565b919050565b5f67ffffffffffffffff8211156200048f576200048e620003f1565b5b6200049a82620003e1565b9050602081019050919050565b828183375f83830152505050565b5f620004cb620004c58462000472565b62000454565b905082815260208101848484011115620004ea57620004e9620003dd565b5b620004f7848285620004a7565b509392505050565b5f82601f830112620005165762000515620003d9565b5b813562000528848260208601620004b5565b91505092915050565b5f6020828403121562000549576200054862000256565b5b5f82013567ffffffffffffffff8111156200056957620005686200025a565b5b6200057784828501620004ff565b91505092915050565b6200058b8162000367565b82525050565b5f602082019050620005a65f83018462000580565b92915050565b5f81519050919050565b5f82825260208201905092915050565b5f5b83811015620005e5578082015181840152602081019050620005c8565b5f8484015250505050565b5f620005fc82620005ac565b620006088185620005b6565b93506200061a818560208601620005c6565b6200062581620003e1565b840191505092915050565b5f6020820190508181035f8301526200064a8184620005f0565b90509291505056fe608060405234801561000f575f80fd5b50604051610443380380610443833981810160405281019061003191906100db565b425f819055508060015f6101000a81548173ffffffffffffffffffffffffffffffffffffffff021916908373ffffffffffffffffffffffffffffffffffffffff16021790555050610106565b5f80fd5b5f73ffffffffffffffffffffffffffffffffffffffff82169050919050565b5f6100aa82610081565b9050919050565b6100ba816100a0565b81146100c4575f80fd5b50565b5f815190506100d5816100b1565b92915050565b5f602082840312156100f0576100ef61007d565b5b5f6100fd848285016100c7565b91505092915050565b610330806101135f395ff3fe608060405234801561000f575f80fd5b506004361061004a575f3560e01c80630781f5c91461004e5780631dcd69ec1461006c578063266cf1091461008a578063c37787d9146100a8575b5f80fd5b6100566100c4565b60405161006391906101f8565b60405180910390f35b610074610101565b6040516100819190610230565b60405180910390f35b610092610106565b60405161009f9190610288565b60405180910390f35b6100c260048036038101906100bd91906102cf565b61012b565b005b60606040518060400160405280600781526020017f6164647265737300000000000000000000000000000000000000000000000000815250905090565b5f5481565b60015f9054906101000a900473ffffffffffffffffffffffffffffffffffffffff1681565b8060015f6101000a81548173ffffffffffffffffffffffffffffffffffffffff021916908373ffffffffffffffffffffffffffffffffffffffff16021790555050565b5f81519050919050565b5f82825260208201905092915050565b5f5b838110156101a557808201518184015260208101905061018a565b5f8484015250505050565b5f601f19601f8301169050919050565b5f6101ca8261016e565b6101d48185610178565b93506101e4818560208601610188565b6101ed816101b0565b840191505092915050565b5f6020820190508181035f83015261021081846101c0565b905092915050565b5f819050919050565b61022a81610218565b82525050565b5f6020820190506102435f830184610221565b92915050565b5f73ffffffffffffffffffffffffffffffffffffffff82169050919050565b5f61027282610249565b9050919050565b61028281610268565b82525050565b5f60208201905061029b5f830184610279565b92915050565b5f80fd5b6102ae81610268565b81146102b8575f80fd5b50565b5f813590506102c9816102a5565b92915050565b5f602082840312156102e4576102e36102a1565b5b5f6102f1848285016102bb565b9150509291505056fea26469706673582212205e2215336703ce1c970117ad1a0dc9235a91cee7d06c0c5677db0c25f756959964736f6c63430008160033608060405234801562000010575f80fd5b5060405162000c5538038062000c558339818101604052810190620000369190620001da565b425f8190555080600190816200004d919062000460565b505062000544565b5f604051905090565b5f80fd5b5f80fd5b5f80fd5b5f80fd5b5f601f19601f8301169050919050565b7f4e487b71000000000000000000000000000000000000000000000000000000005f52604160045260245ffd5b620000b6826200006e565b810181811067ffffffffffffffff82111715620000d857620000d76200007e565b5b80604052505050565b5f620000ec62000055565b9050620000fa8282620000ab565b919050565b5f67ffffffffffffffff8211156200011c576200011b6200007e565b5b62000127826200006e565b9050602081019050919050565b5f5b838110156200015357808201518184015260208101905062000136565b5f8484015250505050565b5f620001746200016e84620000ff565b620000e1565b9050828152602081018484840111156200019357620001926200006a565b5b620001a084828562000134565b509392505050565b5f82601f830112620001bf57620001be62000066565b5b8151620001d18482602086016200015e565b91505092915050565b5f60208284031215620001f257620001f16200005e565b5b5f82015167ffffffffffffffff81111562000212576200021162000062565b5b6200022084828501620001a8565b91505092915050565b5f81519050919050565b7f4e487b71000000000000000000000000000000000000000000000000000000005f52602260045260245ffd5b5f60028204905060018216806200027857607f821691505b6020821081036200028e576200028d62000233565b5b50919050565b5f819050815f5260205f209050919050565b5f6020601f8301049050919050565b5f82821b905092915050565b5f60088302620002f27fffffffffffffffffffffffffffffffffffffffffffffffffffffffffffffffff82620002b5565b620002fe8683620002b5565b95508019841693508086168417925050509392505050565b5f819050919050565b5f819050919050565b5f62000348620003426200033c8462000316565b6200031f565b62000316565b9050919050565b5f819050919050565b620003638362000328565b6200037b62000372826200034f565b848454620002c1565b825550505050565b5f90565b6200039162000383565b6200039e81848462000358565b505050565b5b81811015620003c557620003b95f8262000387565b600181019050620003a4565b5050565b601f8211156200041457620003de8162000294565b620003e984620002a6565b81016020851015620003f9578190505b620004116200040885620002a6565b830182620003a3565b50505b505050565b5f82821c905092915050565b5f620004365f198460080262000419565b1980831691505092915050565b5f62000450838362000425565b9150826002028217905092915050565b6200046b8262000229565b67ffffffffffffffff8111156200048757620004866200007e565b5b62000493825462000260565b620004a0828285620003c9565b5f60209050601f831160018114620004d6575f8415620004c1578287015190505b620004cd858262000443565b8655506200053c565b601f198416620004e68662000294565b5f5b828110156200050f57848901518255600182019150602085019450602081019050620004e8565b868310156200052f57848901516200052b601f89168262000425565b8355505b6001600288020188555050505b505050505050565b61070380620005525f395ff3fe608060405234801561000f575f80fd5b506004361061004a575f3560e01c80630781f5c91461004e5780631dcd69ec1461006c578063266cf1091461008a5780633e0a0099146100a8575b5f80fd5b6100566100c4565b604051610063919061022f565b60405180910390f35b610074610101565b6040516100819190610267565b60405180910390f35b610092610106565b60405161009f919061022f565b60405180910390f35b6100c260048036038101906100bd91906103bd565b610192565b005b60606040518060400160405280600681526020017f737472696e670000000000000000000000000000000000000000000000000000815250905090565b5f5481565b6001805461011390610431565b80601f016020809104026020016040519081016040528092919081815260200182805461013f90610431565b801561018a5780601f106101615761010080835404028352916020019161018a565b820191905f5260205f20905b81548152906001019060200180831161016d57829003601f168201915b505050505081565b80600190816101a191906105fe565b5050565b5f81519050919050565b5f82825260208201905092915050565b5f5b838110156101dc5780820151818401526020810190506101c1565b5f8484015250505050565b5f601f19601f8301169050919050565b5f610201826101a5565b61020b81856101af565b935061021b8185602086016101bf565b610224816101e7565b840191505092915050565b5f6020820190508181035f83015261024781846101f7565b905092915050565b5f819050919050565b6102618161024f565b82525050565b5f60208201905061027a5f830184610258565b92915050565b5f604051905090565b5f80fd5b5f80fd5b5f80fd5b5f80fd5b7f4e487b71000000000000000000000000000000000000000000000000000000005f52604160045260245ffd5b6102cf826101e7565b810181811067ffffffffffffffff821117156102ee576102ed610299565b5b80604052505050565b5f610300610280565b905061030c82826102c6565b919050565b5f67ffffffffffffffff82111561032b5761032a610299565b5b610334826101e7565b9050602081019050919050565b828183375f83830152505050565b5f61036161035c84610311565b6102f7565b90508281526020810184848401111561037d5761037c610295565b5b610388848285610341565b509392505050565b5f82601f8301126103a4576103a3610291565b5b81356103b484826020860161034f565b91505092915050565b5f602082840312156103d2576103d1610289565b5b5f82013567ffffffffffffffff8111156103ef576103ee61028d565b5b6103fb84828501610390565b91505092915050565b7f4e487b71000000000000000000000000000000000000000000000000000000005f52602260045260245ffd5b5f600282049050600182168061044857607f821691505b60208210810361045b5761045a610404565b5b50919050565b5f819050815f5260205f209050919050565b5f6020601f8301049050919050565b5f82821b905092915050565b5f600883026104bd7fffffffffffffffffffffffffffffffffffffffffffffffffffffffffffffffff82610482565b6104c78683610482565b95508019841693508086168417925050509392505050565b5f819050919050565b5f6105026104fd6104f88461024f565b6104df565b61024f565b9050919050565b5f819050919050565b61051b836104e8565b61052f61052782610509565b84845461048e565b825550505050565b5f90565b610543610537565b61054e818484610512565b505050565b5b81811015610571576105665f8261053b565b600181019050610554565b5050565b601f8211156105b65761058781610461565b61059084610473565b8101602085101561059f578190505b6105b36105ab85610473565b830182610553565b50505b505050565b5f82821c905092915050565b5f6105d65f19846008026105bb565b1980831691505092915050565b5f6105ee83836105c7565b9150826002028217905092915050565b610607826101a5565b67ffffffffffffffff8111156106205761061f610299565b5b61062a8254610431565b610635828285610575565b5f60209050601f831160018114610666575f8415610654578287015190505b61065e85826105e3565b8655506106c5565b601f19841661067486610461565b5f5b8281101561069b57848901518255600182019150602085019450602081019050610676565b868310156106b857848901516106b4601f8916826105c7565b8355505b6001600288020188555050505b50505050505056fea2646970667358221220aa987a126f02963e8548d9b9f40d54a91b6e40214b8665e367f6dffa37e7b50e64736f6c63430008160033a26469706673582212209a85b39c474aeb7b7028eaddc7d552b27164baa4393719aebfaa12ab2bcc78b264736f6c63430008160033",
					"opcodes": "PUSH1 0x80 PUSH1 0x40 MSTORE CALLVALUE DUP1 ISZERO PUSH2 0xF JUMPI PUSH0 DUP1 REVERT JUMPDEST POP PUSH2 0x1720 DUP1 PUSH2 0x1D PUSH0 CODECOPY PUSH0 RETURN INVALID PUSH1 0x80 PUSH1 0x40 MSTORE CALLVALUE DUP1 ISZERO PUSH3 0x10 JUMPI PUSH0 DUP1 REVERT JUMPDEST POP PUSH1 0x4 CALLDATASIZE LT PUSH3 0x44 JUMPI PUSH0 CALLDATALOAD PUSH1 0xE0 SHR DUP1 PUSH4 0x34461067 EQ PUSH3 0x48 JUMPI DUP1 PUSH4 0x99B53463 EQ PUSH3 0x7E JUMPI DUP1 PUSH4 0xD81AA8C4 EQ PUSH3 0x9E JUMPI JUMPDEST PUSH0 DUP1 REVERT JUMPDEST PUSH3 0x66 PUSH1 0x4 DUP1 CALLDATASIZE SUB DUP2 ADD SWAP1 PUSH3 0x60 SWAP2 SWAP1 PUSH3 0x296 JUMP JUMPDEST PUSH3 0xBE JUMP JUMPDEST PUSH1 0x40 MLOAD PUSH3 0x75 SWAP2 SWAP1 PUSH3 0x34C JUMP JUMPDEST PUSH1 0x40 MLOAD DUP1 SWAP2 SUB SWAP1 RETURN JUMPDEST PUSH3 0x9C PUSH1 0x4 DUP1 CALLDATASIZE SUB DUP2 ADD SWAP1 PUSH3 0x96 SWAP2 SWAP1 PUSH3 0x3A9 JUMP JUMPDEST PUSH3 0xF9 JUMP JUMPDEST STOP JUMPDEST PUSH3 0xBC PUSH1 0x4 DUP1 CALLDATASIZE SUB DUP2 ADD SWAP1 PUSH3 0xB6 SWAP2 SWAP1 PUSH3 0x531 JUMP JUMPDEST PUSH3 0x195 JUMP JUMPDEST STOP JUMPDEST PUSH0 DUP2 DUP2 SLOAD DUP2 LT PUSH3 0xCD JUMPI PUSH0 DUP1 REVERT JUMPDEST SWAP1 PUSH0 MSTORE PUSH1 0x20 PUSH0 KECCAK256 ADD PUSH0 SWAP2 POP SLOAD SWAP1 PUSH2 0x100 EXP SWAP1 DIV PUSH20 0xFFFFFFFFFFFFFFFFFFFFFFFFFFFFFFFFFFFFFFFF AND DUP2 JUMP JUMPDEST PUSH0 DUP2 PUSH1 0x40 MLOAD PUSH3 0x109 SWAP1 PUSH3 0x231 JUMP JUMPDEST PUSH3 0x115 SWAP2 SWAP1 PUSH3 0x591 JUMP JUMPDEST PUSH1 0x40 MLOAD DUP1 SWAP2 SUB SWAP1 PUSH0 CREATE DUP1 ISZERO DUP1 ISZERO PUSH3 0x12F JUMPI RETURNDATASIZE PUSH0 DUP1 RETURNDATACOPY RETURNDATASIZE PUSH0 REVERT JUMPDEST POP SWAP1 POP PUSH0 DUP2 SWAP1 DUP1 PUSH1 0x1 DUP2 SLOAD ADD DUP1 DUP3 SSTORE DUP1 SWAP2 POP POP PUSH1 0x1 SWAP1 SUB SWAP1 PUSH0 MSTORE PUSH1 0x20 PUSH0 KECCAK256 ADD PUSH0 SWAP1 SWAP2 SWAP1 SWAP2 SWAP1 SWAP2 PUSH2 0x100 EXP DUP2 SLOAD DUP2 PUSH20 0xFFFFFFFFFFFFFFFFFFFFFFFFFFFFFFFFFFFFFFFF MUL NOT AND SWAP1 DUP4 PUSH20 0xFFFFFFFFFFFFFFFFFFFFFFFFFFFFFFFFFFFFFFFF AND MUL OR SWAP1 SSTORE POP POP POP JUMP JUMPDEST PUSH0 DUP2 PUSH1 0x40 MLOAD PUSH3 0x1A5 SWAP1 PUSH3 0x23F JUMP JUMPDEST PUSH3 0x1B1 SWAP2 SWAP1 PUSH3 0x630 JUMP JUMPDEST PUSH1 0x40 MLOAD DUP1 SWAP2 SUB SWAP1 PUSH0 CREATE DUP1 ISZERO DUP1 ISZERO PUSH3 0x1CB JUMPI RETURNDATASIZE PUSH0 DUP1 RETURNDATACOPY RETURNDATASIZE PUSH0 REVERT JUMPDEST POP SWAP1 POP PUSH0 DUP2 SWAP1 DUP1 PUSH1 0x1 DUP2 SLOAD ADD DUP1 DUP3 SSTORE DUP1 SWAP2 POP POP PUSH1 0x1 SWAP1 SUB SWAP1 PUSH0 MSTORE PUSH1 0x20 PUSH0 KECCAK256 ADD PUSH0 SWAP1 SWAP2 SWAP1 SWAP2 SWAP1 SWAP2 PUSH2 0x100 EXP DUP2 SLOAD DUP2 PUSH20 0xFFFFFFFFFFFFFFFFFFFFFFFFFFFFFFFFFFFFFFFF MUL NOT AND SWAP1 DUP4 PUSH20 0xFFFFFFFFFFFFFFFFFFFFFFFFFFFFFFFFFFFFFFFF AND MUL OR SWAP1 SSTORE POP POP POP JUMP JUMPDEST PUSH2 0x443 DUP1 PUSH3 0x653 DUP4 CODECOPY ADD SWAP1 JUMP JUMPDEST PUSH2 0xC55 DUP1 PUSH3 0xA96 DUP4 CODECOPY ADD SWAP1 JUMP JUMPDEST PUSH0 PUSH1 0x40 MLOAD SWAP1 POP SWAP1 JUMP JUMPDEST PUSH0 DUP1 REVERT JUMPDEST PUSH0 DUP1 REVERT JUMPDEST PUSH0 DUP2 SWAP1 POP SWAP2 SWAP1 POP JUMP JUMPDEST PUSH3 0x272 DUP2 PUSH3 0x25E JUMP JUMPDEST DUP2 EQ PUSH3 0x27D JUMPI PUSH0 DUP1 REVERT JUMPDEST POP JUMP JUMPDEST PUSH0 DUP2 CALLDATALOAD SWAP1 POP PUSH3 0x290 DUP2 PUSH3 0x267 JUMP JUMPDEST SWAP3 SWAP2 POP POP JUMP JUMPDEST PUSH0 PUSH1 0x20 DUP3 DUP5 SUB SLT ISZERO PUSH3 0x2AE JUMPI PUSH3 0x2AD PUSH3 0x256 JUMP JUMPDEST JUMPDEST PUSH0 PUSH3 0x2BD DUP5 DUP3 DUP6 ADD PUSH3 0x280 JUMP JUMPDEST SWAP2 POP POP SWAP3 SWAP2 POP POP JUMP JUMPDEST PUSH0 PUSH20 0xFFFFFFFFFFFFFFFFFFFFFFFFFFFFFFFFFFFFFFFF DUP3 AND SWAP1 POP SWAP2 SWAP1 POP JUMP JUMPDEST PUSH0 DUP2 SWAP1 POP SWAP2 SWAP1 POP JUMP JUMPDEST PUSH0 PUSH3 0x30E PUSH3 0x308 PUSH3 0x302 DUP5 PUSH3 0x2C6 JUMP JUMPDEST PUSH3 0x2E5 JUMP JUMPDEST PUSH3 0x2C6 JUMP JUMPDEST SWAP1 POP SWAP2 SWAP1 POP JUMP JUMPDEST PUSH0 PUSH3 0x321 DUP3 PUSH3 0x2EE JUMP JUMPDEST SWAP1 POP SWAP2 SWAP1 POP JUMP JUMPDEST PUSH0 PUSH3 0x334 DUP3 PUSH3 0x315 JUMP JUMPDEST SWAP1 POP SWAP2 SWAP1 POP JUMP JUMPDEST PUSH3 0x346 DUP2 PUSH3 0x328 JUMP JUMPDEST DUP3 MSTORE POP POP JUMP JUMPDEST PUSH0 PUSH1 0x20 DUP3 ADD SWAP1 POP PUSH3 0x361 PUSH0 DUP4 ADD DUP5 PUSH3 0x33B JUMP JUMPDEST SWAP3 SWAP2 POP POP JUMP JUMPDEST PUSH0 PUSH3 0x373 DUP3 PUSH3 0x2C6 JUMP JUMPDEST SWAP1 POP SWAP2 SWAP1 POP JUMP JUMPDEST PUSH3 0x385 DUP2 PUSH3 0x367 JUMP JUMPDEST DUP2 EQ PUSH3 0x390 JUMPI PUSH0 DUP1 REVERT JUMPDEST POP JUMP JUMPDEST PUSH0 DUP2 CALLDATALOAD SWAP1 POP PUSH3 0x3A3 DUP2 PUSH3 0x37A JUMP JUMPDEST SWAP3 SWAP2 POP POP JUMP JUMPDEST PUSH0 PUSH1 0x20 DUP3 DUP5 SUB SLT ISZERO PUSH3 0x3C1 JUMPI PUSH3 0x3C0 PUSH3 0x256 JUMP JUMPDEST JUMPDEST PUSH0 PUSH3 0x3D0 DUP5 DUP3 DUP6 ADD PUSH3 0x393 JUMP JUMPDEST SWAP2 POP POP SWAP3 SWAP2 POP POP JUMP JUMPDEST PUSH0 DUP1 REVERT JUMPDEST PUSH0 DUP1 REVERT JUMPDEST PUSH0 PUSH1 0x1F NOT PUSH1 0x1F DUP4 ADD AND SWAP1 POP SWAP2 SWAP1 POP JUMP JUMPDEST PUSH32 0x4E487B7100000000000000000000000000000000000000000000000000000000 PUSH0 MSTORE PUSH1 0x41 PUSH1 0x4 MSTORE PUSH1 0x24 PUSH0 REVERT JUMPDEST PUSH3 0x429 DUP3 PUSH3 0x3E1 JUMP JUMPDEST DUP2 ADD DUP2 DUP2 LT PUSH8 0xFFFFFFFFFFFFFFFF DUP3 GT OR ISZERO PUSH3 0x44B JUMPI PUSH3 0x44A PUSH3 0x3F1 JUMP JUMPDEST JUMPDEST DUP1 PUSH1 0x40 MSTORE POP POP POP JUMP JUMPDEST PUSH0 PUSH3 0x45F PUSH3 0x24D JUMP JUMPDEST SWAP1 POP PUSH3 0x46D DUP3 DUP3 PUSH3 0x41E JUMP JUMPDEST SWAP2 SWAP1 POP JUMP JUMPDEST PUSH0 PUSH8 0xFFFFFFFFFFFFFFFF DUP3 GT ISZERO PUSH3 0x48F JUMPI PUSH3 0x48E PUSH3 0x3F1 JUMP JUMPDEST JUMPDEST PUSH3 0x49A DUP3 PUSH3 0x3E1 JUMP JUMPDEST SWAP1 POP PUSH1 0x20 DUP2 ADD SWAP1 POP SWAP2 SWAP1 POP JUMP JUMPDEST DUP3 DUP2 DUP4 CALLDATACOPY PUSH0 DUP4 DUP4 ADD MSTORE POP POP POP JUMP JUMPDEST PUSH0 PUSH3 0x4CB PUSH3 0x4C5 DUP5 PUSH3 0x472 JUMP JUMPDEST PUSH3 0x454 JUMP JUMPDEST SWAP1 POP DUP3 DUP2 MSTORE PUSH1 0x20 DUP2 ADD DUP5 DUP5 DUP5 ADD GT ISZERO PUSH3 0x4EA JUMPI PUSH3 0x4E9 PUSH3 0x3DD JUMP JUMPDEST JUMPDEST PUSH3 0x4F7 DUP5 DUP3 DUP6 PUSH3 0x4A7 JUMP JUMPDEST POP SWAP4 SWAP3 POP POP POP JUMP JUMPDEST PUSH0 DUP3 PUSH1 0x1F DUP4 ADD SLT PUSH3 0x516 JUMPI PUSH3 0x515 PUSH3 0x3D9 JUMP JUMPDEST JUMPDEST DUP2 CALLDATALOAD PUSH3 0x528 DUP5 DUP3 PUSH1 0x20 DUP7 ADD PUSH3 0x4B5 JUMP JUMPDEST SWAP2 POP POP SWAP3 SWAP2 POP POP JUMP JUMPDEST PUSH0 PUSH1 0x20 DUP3 DUP5 SUB SLT ISZERO PUSH3 0x549 JUMPI PUSH3 0x548 PUSH3 0x256 JUMP JUMPDEST JUMPDEST PUSH0 DUP3 ADD CALLDATALOAD PUSH8 0xFFFFFFFFFFFFFFFF DUP2 GT ISZERO PUSH3 0x569 JUMPI PUSH3 0x568 PUSH3 0x25A JUMP JUMPDEST JUMPDEST PUSH3 0x577 DUP5 DUP3 DUP6 ADD PUSH3 0x4FF JUMP JUMPDEST SWAP2 POP POP SWAP3 SWAP2 POP POP JUMP JUMPDEST PUSH3 0x58B DUP2 PUSH3 0x367 JUMP JUMPDEST DUP3 MSTORE POP POP JUMP JUMPDEST PUSH0 PUSH1 0x20 DUP3 ADD SWAP1 POP PUSH3 0x5A6 PUSH0 DUP4 ADD DUP5 PUSH3 0x580 JUMP JUMPDEST SWAP3 SWAP2 POP POP JUMP JUMPDEST PUSH0 DUP2 MLOAD SWAP1 POP SWAP2 SWAP1 POP JUMP JUMPDEST PUSH0 DUP3 DUP3 MSTORE PUSH1 0x20 DUP3 ADD SWAP1 POP SWAP3 SWAP2 POP POP JUMP JUMPDEST PUSH0 JUMPDEST DUP4 DUP2 LT ISZERO PUSH3 0x5E5 JUMPI DUP1 DUP3 ADD MLOAD DUP2 DUP5 ADD MSTORE PUSH1 0x20 DUP2 ADD SWAP1 POP PUSH3 0x5C8 JUMP JUMPDEST PUSH0 DUP5 DUP5 ADD MSTORE POP POP POP POP JUMP JUMPDEST PUSH0 PUSH3 0x5FC DUP3 PUSH3 0x5AC JUMP JUMPDEST PUSH3 0x608 DUP2 DUP6 PUSH3 0x5B6 JUMP JUMPDEST SWAP4 POP PUSH3 0x61A DUP2 DUP6 PUSH1 0x20 DUP7 ADD PUSH3 0x5C6 JUMP JUMPDEST PUSH3 0x625 DUP2 PUSH3 0x3E1 JUMP JUMPDEST DUP5 ADD SWAP2 POP POP SWAP3 SWAP2 POP POP JUMP JUMPDEST PUSH0 PUSH1 0x20 DUP3 ADD SWAP1 POP DUP2 DUP2 SUB PUSH0 DUP4 ADD MSTORE PUSH3 0x64A DUP2 DUP5 PUSH3 0x5F0 JUMP JUMPDEST SWAP1 POP SWAP3 SWAP2 POP POP JUMP INVALID PUSH1 0x80 PUSH1 0x40 MSTORE CALLVALUE DUP1 ISZERO PUSH2 0xF JUMPI PUSH0 DUP1 REVERT JUMPDEST POP PUSH1 0x40 MLOAD PUSH2 0x443 CODESIZE SUB DUP1 PUSH2 0x443 DUP4 CODECOPY DUP2 DUP2 ADD PUSH1 0x40 MSTORE DUP2 ADD SWAP1 PUSH2 0x31 SWAP2 SWAP1 PUSH2 0xDB JUMP JUMPDEST TIMESTAMP PUSH0 DUP2 SWAP1 SSTORE POP DUP1 PUSH1 0x1 PUSH0 PUSH2 0x100 EXP DUP2 SLOAD DUP2 PUSH20 0xFFFFFFFFFFFFFFFFFFFFFFFFFFFFFFFFFFFFFFFF MUL NOT AND SWAP1 DUP4 PUSH20 0xFFFFFFFFFFFFFFFFFFFFFFFFFFFFFFFFFFFFFFFF AND MUL OR SWAP1 SSTORE POP POP PUSH2 0x106 JUMP JUMPDEST PUSH0 DUP1 REVERT JUMPDEST PUSH0 PUSH20 0xFFFFFFFFFFFFFFFFFFFFFFFFFFFFFFFFFFFFFFFF DUP3 AND SWAP1 POP SWAP2 SWAP1 POP JUMP JUMPDEST PUSH0 PUSH2 0xAA DUP3 PUSH2 0x81 JUMP JUMPDEST SWAP1 POP SWAP2 SWAP1 POP JUMP JUMPDEST PUSH2 0xBA DUP2 PUSH2 0xA0 JUMP JUMPDEST DUP2 EQ PUSH2 0xC4 JUMPI PUSH0 DUP1 REVERT JUMPDEST POP JUMP JUMPDEST PUSH0 DUP2 MLOAD SWAP1 POP PUSH2 0xD5 DUP2 PUSH2 0xB1 JUMP JUMPDEST SWAP3 SWAP2 POP POP JUMP JUMPDEST PUSH0 PUSH1 0x20 DUP3 DUP5 SUB SLT ISZERO PUSH2 0xF0 JUMPI PUSH2 0xEF PUSH2 0x7D JUMP JUMPDEST JUMPDEST PUSH0 PUSH2 0xFD DUP5 DUP3 DUP6 ADD PUSH2 0xC7 JUMP JUMPDEST SWAP2 POP POP SWAP3 SWAP2 POP POP JUMP JUMPDEST PUSH2 0x330 DUP1 PUSH2 0x113 PUSH0 CODECOPY PUSH0 RETURN INVALID PUSH1 0x80 PUSH1 0x40 MSTORE CALLVALUE DUP1 ISZERO PUSH2 0xF JUMPI PUSH0 DUP1 REVERT JUMPDEST POP PUSH1 0x4 CALLDATASIZE LT PUSH2 0x4A JUMPI PUSH0 CALLDATALOAD PUSH1 0xE0 SHR DUP1 PUSH4 0x781F5C9 EQ PUSH2 0x4E JUMPI DUP1 PUSH4 0x1DCD69EC EQ PUSH2 0x6C JUMPI DUP1 PUSH4 0x266CF109 EQ PUSH2 0x8A JUMPI DUP1 PUSH4 0xC37787D9 EQ PUSH2 0xA8 JUMPI JUMPDEST PUSH0 DUP1 REVERT JUMPDEST PUSH2 0x56 PUSH2 0xC4 JUMP JUMPDEST PUSH1 0x40 MLOAD PUSH2 0x63 SWAP2 SWAP1 PUSH2 0x1F8 JUMP JUMPDEST PUSH1 0x40 MLOAD DUP1 SWAP2 SUB SWAP1 RETURN JUMPDEST PUSH2 0x74 PUSH2 0x101 JUMP JUMPDEST PUSH1 0x40 MLOAD PUSH2 0x81 SWAP2 SWAP1 PUSH2 0x230 JUMP JUMPDEST PUSH1 0x40 MLOAD DUP1 SWAP2 SUB SWAP1 RETURN JUMPDEST PUSH2 0x92 PUSH2 0x106 JUMP JUMPDEST PUSH1 0x40 MLOAD PUSH2 0x9F SWAP2 SWAP1 PUSH2 0x288 JUMP JUMPDEST PUSH1 0x40 MLOAD DUP1 SWAP2 SUB SWAP1 RETURN JUMPDEST PUSH2 0xC2 PUSH1 0x4 DUP1 CALLDATASIZE SUB DUP2 ADD SWAP1 PUSH2 0xBD SWAP2 SWAP1 PUSH2 0x2CF JUMP JUMPDEST PUSH2 0x12B JUMP JUMPDEST STOP JUMPDEST PUSH1 0x60 PUSH1 0x40 MLOAD DUP1 PUSH1 0x40 ADD PUSH1 0x40 MSTORE DUP1 PUSH1 0x7 DUP2 MSTORE PUSH1 0x20 ADD PUSH32 0x6164647265737300000000000000000000000000000000000000000000000000 DUP2 MSTORE POP SWAP1 POP SWAP1 JUMP JUMPDEST PUSH0 SLOAD DUP2 JUMP JUMPDEST PUSH1 0x1 PUSH0 SWAP1 SLOAD SWAP1 PUSH2 0x100 EXP SWAP1 DIV PUSH20 0xFFFFFFFFFFFFFFFFFFFFFFFFFFFFFFFFFFFFFFFF AND DUP2 JUMP JUMPDEST DUP1 PUSH1 0x1 PUSH0 PUSH2 0x100 EXP DUP2 SLOAD DUP2 PUSH20 0xFFFFFFFFFFFFFFFFFFFFFFFFFFFFFFFFFFFFFFFF MUL NOT AND SWAP1 DUP4 PUSH20 0xFFFFFFFFFFFFFFFFFFFFFFFFFFFFFFFFFFFFFFFF AND MUL OR SWAP1 SSTORE POP POP JUMP JUMPDEST PUSH0 DUP2 MLOAD SWAP1 POP SWAP2 SWAP1 POP JUMP JUMPDEST PUSH0 DUP3 DUP3 MSTORE PUSH1 0x20 DUP3 ADD SWAP1 POP SWAP3 SWAP2 POP POP JUMP JUMPDEST PUSH0 JUMPDEST DUP4 DUP2 LT ISZERO PUSH2 0x1A5 JUMPI DUP1 DUP3 ADD MLOAD DUP2 DUP5 ADD MSTORE PUSH1 0x20 DUP2 ADD SWAP1 POP PUSH2 0x18A JUMP JUMPDEST PUSH0 DUP5 DUP5 ADD MSTORE POP POP POP POP JUMP JUMPDEST PUSH0 PUSH1 0x1F NOT PUSH1 0x1F DUP4 ADD AND SWAP1 POP SWAP2 SWAP1 POP JUMP JUMPDEST PUSH0 PUSH2 0x1CA DUP3 PUSH2 0x16E JUMP JUMPDEST PUSH2 0x1D4 DUP2 DUP6 PUSH2 0x178 JUMP JUMPDEST SWAP4 POP PUSH2 0x1E4 DUP2 DUP6 PUSH1 0x20 DUP7 ADD PUSH2 0x188 JUMP JUMPDEST PUSH2 0x1ED DUP2 PUSH2 0x1B0 JUMP JUMPDEST DUP5 ADD SWAP2 POP POP SWAP3 SWAP2 POP POP JUMP JUMPDEST PUSH0 PUSH1 0x20 DUP3 ADD SWAP1 POP DUP2 DUP2 SUB PUSH0 DUP4 ADD MSTORE PUSH2 0x210 DUP2 DUP5 PUSH2 0x1C0 JUMP JUMPDEST SWAP1 POP SWAP3 SWAP2 POP POP JUMP JUMPDEST PUSH0 DUP2 SWAP1 POP SWAP2 SWAP1 POP JUMP JUMPDEST PUSH2 0x22A DUP2 PUSH2 0x218 JUMP JUMPDEST DUP3 MSTORE POP POP JUMP JUMPDEST PUSH0 PUSH1 0x20 DUP3 ADD SWAP1 POP PUSH2 0x243 PUSH0 DUP4 ADD DUP5 PUSH2 0x221 JUMP JUMPDEST SWAP3 SWAP2 POP POP JUMP JUMPDEST PUSH0 PUSH20 0xFFFFFFFFFFFFFFFFFFFFFFFFFFFFFFFFFFFFFFFF DUP3 AND SWAP1 POP SWAP2 SWAP1 POP JUMP JUMPDEST PUSH0 PUSH2 0x272 DUP3 PUSH2 0x249 JUMP JUMPDEST SWAP1 POP SWAP2 SWAP1 POP JUMP JUMPDEST PUSH2 0x282 DUP2 PUSH2 0x268 JUMP JUMPDEST DUP3 MSTORE POP POP JUMP JUMPDEST PUSH0 PUSH1 0x20 DUP3 ADD SWAP1 POP PUSH2 0x29B PUSH0 DUP4 ADD DUP5 PUSH2 0x279 JUMP JUMPDEST SWAP3 SWAP2 POP POP JUMP JUMPDEST PUSH0 DUP1 REVERT JUMPDEST PUSH2 0x2AE DUP2 PUSH2 0x268 JUMP JUMPDEST DUP2 EQ PUSH2 0x2B8 JUMPI PUSH0 DUP1 REVERT JUMPDEST POP JUMP JUMPDEST PUSH0 DUP2 CALLDATALOAD SWAP1 POP PUSH2 0x2C9 DUP2 PUSH2 0x2A5 JUMP JUMPDEST SWAP3 SWAP2 POP POP JUMP JUMPDEST PUSH0 PUSH1 0x20 DUP3 DUP5 SUB SLT ISZERO PUSH2 0x2E4 JUMPI PUSH2 0x2E3 PUSH2 0x2A1 JUMP JUMPDEST JUMPDEST PUSH0 PUSH2 0x2F1 DUP5 DUP3 DUP6 ADD PUSH2 0x2BB JUMP JUMPDEST SWAP2 POP POP SWAP3 SWAP2 POP POP JUMP INVALID LOG2 PUSH5 0x6970667358 0x22 SLT KECCAK256 0x5E 0x22 ISZERO CALLER PUSH8 0x3CE1C970117AD1A 0xD 0xC9 0x23 GAS SWAP2 0xCE 0xE7 0xD0 PUSH13 0xC5677DB0C25F756959964736F PUSH13 0x63430008160033608060405234 DUP1 ISZERO PUSH3 0x10 JUMPI PUSH0 DUP1 REVERT JUMPDEST POP PUSH1 0x40 MLOAD PUSH3 0xC55 CODESIZE SUB DUP1 PUSH3 0xC55 DUP4 CODECOPY DUP2 DUP2 ADD PUSH1 0x40 MSTORE DUP2 ADD SWAP1 PUSH3 0x36 SWAP2 SWAP1 PUSH3 0x1DA JUMP JUMPDEST TIMESTAMP PUSH0 DUP2 SWAP1 SSTORE POP DUP1 PUSH1 0x1 SWAP1 DUP2 PUSH3 0x4D SWAP2 SWAP1 PUSH3 0x460 JUMP JUMPDEST POP POP PUSH3 0x544 JUMP JUMPDEST PUSH0 PUSH1 0x40 MLOAD SWAP1 POP SWAP1 JUMP JUMPDEST PUSH0 DUP1 REVERT JUMPDEST PUSH0 DUP1 REVERT JUMPDEST PUSH0 DUP1 REVERT JUMPDEST PUSH0 DUP1 REVERT JUMPDEST PUSH0 PUSH1 0x1F NOT PUSH1 0x1F DUP4 ADD AND SWAP1 POP SWAP2 SWAP1 POP JUMP JUMPDEST PUSH32 0x4E487B7100000000000000000000000000000000000000000000000000000000 PUSH0 MSTORE PUSH1 0x41 PUSH1 0x4 MSTORE PUSH1 0x24 PUSH0 REVERT JUMPDEST PUSH3 0xB6 DUP3 PUSH3 0x6E JUMP JUMPDEST DUP2 ADD DUP2 DUP2 LT PUSH8 0xFFFFFFFFFFFFFFFF DUP3 GT OR ISZERO PUSH3 0xD8 JUMPI PUSH3 0xD7 PUSH3 0x7E JUMP JUMPDEST JUMPDEST DUP1 PUSH1 0x40 MSTORE POP POP POP JUMP JUMPDEST PUSH0 PUSH3 0xEC PUSH3 0x55 JUMP JUMPDEST SWAP1 POP PUSH3 0xFA DUP3 DUP3 PUSH3 0xAB JUMP JUMPDEST SWAP2 SWAP1 POP JUMP JUMPDEST PUSH0 PUSH8 0xFFFFFFFFFFFFFFFF DUP3 GT ISZERO PUSH3 0x11C JUMPI PUSH3 0x11B PUSH3 0x7E JUMP JUMPDEST JUMPDEST PUSH3 0x127 DUP3 PUSH3 0x6E JUMP JUMPDEST SWAP1 POP PUSH1 0x20 DUP2 ADD SWAP1 POP SWAP2 SWAP1 POP JUMP JUMPDEST PUSH0 JUMPDEST DUP4 DUP2 LT ISZERO PUSH3 0x153 JUMPI DUP1 DUP3 ADD MLOAD DUP2 DUP5 ADD MSTORE PUSH1 0x20 DUP2 ADD SWAP1 POP PUSH3 0x136 JUMP JUMPDEST PUSH0 DUP5 DUP5 ADD MSTORE POP POP POP POP JUMP JUMPDEST PUSH0 PUSH3 0x174 PUSH3 0x16E DUP5 PUSH3 0xFF JUMP JUMPDEST PUSH3 0xE1 JUMP JUMPDEST SWAP1 POP DUP3 DUP2 MSTORE PUSH1 0x20 DUP2 ADD DUP5 DUP5 DUP5 ADD GT ISZERO PUSH3 0x193 JUMPI PUSH3 0x192 PUSH3 0x6A JUMP JUMPDEST JUMPDEST PUSH3 0x1A0 DUP5 DUP3 DUP6 PUSH3 0x134 JUMP JUMPDEST POP SWAP4 SWAP3 POP POP POP JUMP JUMPDEST PUSH0 DUP3 PUSH1 0x1F DUP4 ADD SLT PUSH3 0x1BF JUMPI PUSH3 0x1BE PUSH3 0x66 JUMP JUMPDEST JUMPDEST DUP2 MLOAD PUSH3 0x1D1 DUP5 DUP3 PUSH1 0x20 DUP7 ADD PUSH3 0x15E JUMP JUMPDEST SWAP2 POP POP SWAP3 SWAP2 POP POP JUMP JUMPDEST PUSH0 PUSH1 0x20 DUP3 DUP5 SUB SLT ISZERO PUSH3 0x1F2 JUMPI PUSH3 0x1F1 PUSH3 0x5E JUMP JUMPDEST JUMPDEST PUSH0 DUP3 ADD MLOAD PUSH8 0xFFFFFFFFFFFFFFFF DUP2 GT ISZERO PUSH3 0x212 JUMPI PUSH3 0x211 PUSH3 0x62 JUMP JUMPDEST JUMPDEST PUSH3 0x220 DUP5 DUP3 DUP6 ADD PUSH3 0x1A8 JUMP JUMPDEST SWAP2 POP POP SWAP3 SWAP2 POP POP JUMP JUMPDEST PUSH0 DUP2 MLOAD SWAP1 POP SWAP2 SWAP1 POP JUMP JUMPDEST PUSH32 0x4E487B7100000000000000000000000000000000000000000000000000000000 PUSH0 MSTORE PUSH1 0x22 PUSH1 0x4 MSTORE PUSH1 0x24 PUSH0 REVERT JUMPDEST PUSH0 PUSH1 0x2 DUP3 DIV SWAP1 POP PUSH1 0x1 DUP3 AND DUP1 PUSH3 0x278 JUMPI PUSH1 0x7F DUP3 AND SWAP2 POP JUMPDEST PUSH1 0x20 DUP3 LT DUP2 SUB PUSH3 0x28E JUMPI PUSH3 0x28D PUSH3 0x233 JUMP JUMPDEST JUMPDEST POP SWAP2 SWAP1 POP JUMP JUMPDEST PUSH0 DUP2 SWAP1 POP DUP2 PUSH0 MSTORE PUSH1 0x20 PUSH0 KECCAK256 SWAP1 POP SWAP2 SWAP1 POP JUMP JUMPDEST PUSH0 PUSH1 0x20 PUSH1 0x1F DUP4 ADD DIV SWAP1 POP SWAP2 SWAP1 POP JUMP JUMPDEST PUSH0 DUP3 DUP3 SHL SWAP1 POP SWAP3 SWAP2 POP POP JUMP JUMPDEST PUSH0 PUSH1 0x8 DUP4 MUL PUSH3 0x2F2 PUSH32 0xFFFFFFFFFFFFFFFFFFFFFFFFFFFFFFFFFFFFFFFFFFFFFFFFFFFFFFFFFFFFFFFF DUP3 PUSH3 0x2B5 JUMP JUMPDEST PUSH3 0x2FE DUP7 DUP4 PUSH3 0x2B5 JUMP JUMPDEST SWAP6 POP DUP1 NOT DUP5 AND SWAP4 POP DUP1 DUP7 AND DUP5 OR SWAP3 POP POP POP SWAP4 SWAP3 POP POP POP JUMP JUMPDEST PUSH0 DUP2 SWAP1 POP SWAP2 SWAP1 POP JUMP JUMPDEST PUSH0 DUP2 SWAP1 POP SWAP2 SWAP1 POP JUMP JUMPDEST PUSH0 PUSH3 0x348 PUSH3 0x342 PUSH3 0x33C DUP5 PUSH3 0x316 JUMP JUMPDEST PUSH3 0x31F JUMP JUMPDEST PUSH3 0x316 JUMP JUMPDEST SWAP1 POP SWAP2 SWAP1 POP JUMP JUMPDEST PUSH0 DUP2 SWAP1 POP SWAP2 SWAP1 POP JUMP JUMPDEST PUSH3 0x363 DUP4 PUSH3 0x328 JUMP JUMPDEST PUSH3 0x37B PUSH3 0x372 DUP3 PUSH3 0x34F JUMP JUMPDEST DUP5 DUP5 SLOAD PUSH3 0x2C1 JUMP JUMPDEST DUP3 SSTORE POP POP POP POP JUMP JUMPDEST PUSH0 SWAP1 JUMP JUMPDEST PUSH3 0x391 PUSH3 0x383 JUMP JUMPDEST PUSH3 0x39E DUP2 DUP5 DUP5 PUSH3 0x358 JUMP JUMPDEST POP POP POP JUMP JUMPDEST JUMPDEST DUP2 DUP2 LT ISZERO PUSH3 0x3C5 JUMPI PUSH3 0x3B9 PUSH0 DUP3 PUSH3 0x387 JUMP JUMPDEST PUSH1 0x1 DUP2 ADD SWAP1 POP PUSH3 0x3A4 JUMP JUMPDEST POP POP JUMP JUMPDEST PUSH1 0x1F DUP3 GT ISZERO PUSH3 0x414 JUMPI PUSH3 0x3DE DUP2 PUSH3 0x294 JUMP JUMPDEST PUSH3 0x3E9 DUP5 PUSH3 0x2A6 JUMP JUMPDEST DUP2 ADD PUSH1 0x20 DUP6 LT ISZERO PUSH3 0x3F9 JUMPI DUP2 SWAP1 POP JUMPDEST PUSH3 0x411 PUSH3 0x408 DUP6 PUSH3 0x2A6 JUMP JUMPDEST DUP4 ADD DUP3 PUSH3 0x3A3 JUMP JUMPDEST POP POP JUMPDEST POP POP POP JUMP JUMPDEST PUSH0 DUP3 DUP3 SHR SWAP1 POP SWAP3 SWAP2 POP POP JUMP JUMPDEST PUSH0 PUSH3 0x436 PUSH0 NOT DUP5 PUSH1 0x8 MUL PUSH3 0x419 JUMP JUMPDEST NOT DUP1 DUP4 AND SWAP2 POP POP SWAP3 SWAP2 POP POP JUMP JUMPDEST PUSH0 PUSH3 0x450 DUP4 DUP4 PUSH3 0x425 JUMP JUMPDEST SWAP2 POP DUP3 PUSH1 0x2 MUL DUP3 OR SWAP1 POP SWAP3 SWAP2 POP POP JUMP JUMPDEST PUSH3 0x46B DUP3 PUSH3 0x229 JUMP JUMPDEST PUSH8 0xFFFFFFFFFFFFFFFF DUP2 GT ISZERO PUSH3 0x487 JUMPI PUSH3 0x486 PUSH3 0x7E JUMP JUMPDEST JUMPDEST PUSH3 0x493 DUP3 SLOAD PUSH3 0x260 JUMP JUMPDEST PUSH3 0x4A0 DUP3 DUP3 DUP6 PUSH3 0x3C9 JUMP JUMPDEST PUSH0 PUSH1 0x20 SWAP1 POP PUSH1 0x1F DUP4 GT PUSH1 0x1 DUP2 EQ PUSH3 0x4D6 JUMPI PUSH0 DUP5 ISZERO PUSH3 0x4C1 JUMPI DUP3 DUP8 ADD MLOAD SWAP1 POP JUMPDEST PUSH3 0x4CD DUP6 DUP3 PUSH3 0x443 JUMP JUMPDEST DUP7 SSTORE POP PUSH3 0x53C JUMP JUMPDEST PUSH1 0x1F NOT DUP5 AND PUSH3 0x4E6 DUP7 PUSH3 0x294 JUMP JUMPDEST PUSH0 JUMPDEST DUP3 DUP2 LT ISZERO PUSH3 0x50F JUMPI DUP5 DUP10 ADD MLOAD DUP3 SSTORE PUSH1 0x1 DUP3 ADD SWAP2 POP PUSH1 0x20 DUP6 ADD SWAP5 POP PUSH1 0x20 DUP2 ADD SWAP1 POP PUSH3 0x4E8 JUMP JUMPDEST DUP7 DUP4 LT ISZERO PUSH3 0x52F JUMPI DUP5 DUP10 ADD MLOAD PUSH3 0x52B PUSH1 0x1F DUP10 AND DUP3 PUSH3 0x425 JUMP JUMPDEST DUP4 SSTORE POP JUMPDEST PUSH1 0x1 PUSH1 0x2 DUP9 MUL ADD DUP9 SSTORE POP POP POP JUMPDEST POP POP POP POP POP POP JUMP JUMPDEST PUSH2 0x703 DUP1 PUSH3 0x552 PUSH0 CODECOPY PUSH0 RETURN INVALID PUSH1 0x80 PUSH1 0x40 MSTORE CALLVALUE DUP1 ISZERO PUSH2 0xF JUMPI PUSH0 DUP1 REVERT JUMPDEST POP PUSH1 0x4 CALLDATASIZE LT PUSH2 0x4A JUMPI PUSH0 CALLDATALOAD PUSH1 0xE0 SHR DUP1 PUSH4 0x781F5C9 EQ PUSH2 0x4E JUMPI DUP1 PUSH4 0x1DCD69EC EQ PUSH2 0x6C JUMPI DUP1 PUSH4 0x266CF109 EQ PUSH2 0x8A JUMPI DUP1 PUSH4 0x3E0A0099 EQ PUSH2 0xA8 JUMPI JUMPDEST PUSH0 DUP1 REVERT JUMPDEST PUSH2 0x56 PUSH2 0xC4 JUMP JUMPDEST PUSH1 0x40 MLOAD PUSH2 0x63 SWAP2 SWAP1 PUSH2 0x22F JUMP JUMPDEST PUSH1 0x40 MLOAD DUP1 SWAP2 SUB SWAP1 RETURN JUMPDEST PUSH2 0x74 PUSH2 0x101 JUMP JUMPDEST PUSH1 0x40 MLOAD PUSH2 0x81 SWAP2 SWAP1 PUSH2 0x267 JUMP JUMPDEST PUSH1 0x40 MLOAD DUP1 SWAP2 SUB SWAP1 RETURN JUMPDEST PUSH2 0x92 PUSH2 0x106 JUMP JUMPDEST PUSH1 0x40 MLOAD PUSH2 0x9F SWAP2 SWAP1 PUSH2 0x22F JUMP JUMPDEST PUSH1 0x40 MLOAD DUP1 SWAP2 SUB SWAP1 RETURN JUMPDEST PUSH2 0xC2 PUSH1 0x4 DUP1 CALLDATASIZE SUB DUP2 ADD SWAP1 PUSH2 0xBD SWAP2 SWAP1 PUSH2 0x3BD JUMP JUMPDEST PUSH2 0x192 JUMP JUMPDEST STOP JUMPDEST PUSH1 0x60 PUSH1 0x40 MLOAD DUP1 PUSH1 0x40 ADD PUSH1 0x40 MSTORE DUP1 PUSH1 0x6 DUP2 MSTORE PUSH1 0x20 ADD PUSH32 0x737472696E670000000000000000000000000000000000000000000000000000 DUP2 MSTORE POP SWAP1 POP SWAP1 JUMP JUMPDEST PUSH0 SLOAD DUP2 JUMP JUMPDEST PUSH1 0x1 DUP1 SLOAD PUSH2 0x113 SWAP1 PUSH2 0x431 JUMP JUMPDEST DUP1 PUSH1 0x1F ADD PUSH1 0x20 DUP1 SWAP2 DIV MUL PUSH1 0x20 ADD PUSH1 0x40 MLOAD SWAP1 DUP2 ADD PUSH1 0x40 MSTORE DUP1 SWAP3 SWAP2 SWAP1 DUP2 DUP2 MSTORE PUSH1 0x20 ADD DUP3 DUP1 SLOAD PUSH2 0x13F SWAP1 PUSH2 0x431 JUMP JUMPDEST DUP1 ISZERO PUSH2 0x18A JUMPI DUP1 PUSH1 0x1F LT PUSH2 0x161 JUMPI PUSH2 0x100 DUP1 DUP4 SLOAD DIV MUL DUP4 MSTORE SWAP2 PUSH1 0x20 ADD SWAP2 PUSH2 0x18A JUMP JUMPDEST DUP3 ADD SWAP2 SWAP1 PUSH0 MSTORE PUSH1 0x20 PUSH0 KECCAK256 SWAP1 JUMPDEST DUP2 SLOAD DUP2 MSTORE SWAP1 PUSH1 0x1 ADD SWAP1 PUSH1 0x20 ADD DUP1 DUP4 GT PUSH2 0x16D JUMPI DUP3 SWAP1 SUB PUSH1 0x1F AND DUP3 ADD SWAP2 JUMPDEST POP POP POP POP POP DUP2 JUMP JUMPDEST DUP1 PUSH1 0x1 SWAP1 DUP2 PUSH2 0x1A1 SWAP2 SWAP1 PUSH2 0x5FE JUMP JUMPDEST POP POP JUMP JUMPDEST PUSH0 DUP2 MLOAD SWAP1 POP SWAP2 SWAP1 POP JUMP JUMPDEST PUSH0 DUP3 DUP3 MSTORE PUSH1 0x20 DUP3 ADD SWAP1 POP SWAP3 SWAP2 POP POP JUMP JUMPDEST PUSH0 JUMPDEST DUP4 DUP2 LT ISZERO PUSH2 0x1DC JUMPI DUP1 DUP3 ADD MLOAD DUP2 DUP5 ADD MSTORE PUSH1 0x20 DUP2 ADD SWAP1 POP PUSH2 0x1C1 JUMP JUMPDEST PUSH0 DUP5 DUP5 ADD MSTORE POP POP POP POP JUMP JUMPDEST PUSH0 PUSH1 0x1F NOT PUSH1 0x1F DUP4 ADD AND SWAP1 POP SWAP2 SWAP1 POP JUMP JUMPDEST PUSH0 PUSH2 0x201 DUP3 PUSH2 0x1A5 JUMP JUMPDEST PUSH2 0x20B DUP2 DUP6 PUSH2 0x1AF JUMP JUMPDEST SWAP4 POP PUSH2 0x21B DUP2 DUP6 PUSH1 0x20 DUP7 ADD PUSH2 0x1BF JUMP JUMPDEST PUSH2 0x224 DUP2 PUSH2 0x1E7 JUMP JUMPDEST DUP5 ADD SWAP2 POP POP SWAP3 SWAP2 POP POP JUMP JUMPDEST PUSH0 PUSH1 0x20 DUP3 ADD SWAP1 POP DUP2 DUP2 SUB PUSH0 DUP4 ADD MSTORE PUSH2 0x247 DUP2 DUP5 PUSH2 0x1F7 JUMP JUMPDEST SWAP1 POP SWAP3 SWAP2 POP POP JUMP JUMPDEST PUSH0 DUP2 SWAP1 POP SWAP2 SWAP1 POP JUMP JUMPDEST PUSH2 0x261 DUP2 PUSH2 0x24F JUMP JUMPDEST DUP3 MSTORE POP POP JUMP JUMPDEST PUSH0 PUSH1 0x20 DUP3 ADD SWAP1 POP PUSH2 0x27A PUSH0 DUP4 ADD DUP5 PUSH2 0x258 JUMP JUMPDEST SWAP3 SWAP2 POP POP JUMP JUMPDEST PUSH0 PUSH1 0x40 MLOAD SWAP1 POP SWAP1 JUMP JUMPDEST PUSH0 DUP1 REVERT JUMPDEST PUSH0 DUP1 REVERT JUMPDEST PUSH0 DUP1 REVERT JUMPDEST PUSH0 DUP1 REVERT JUMPDEST PUSH32 0x4E487B7100000000000000000000000000000000000000000000000000000000 PUSH0 MSTORE PUSH1 0x41 PUSH1 0x4 MSTORE PUSH1 0x24 PUSH0 REVERT JUMPDEST PUSH2 0x2CF DUP3 PUSH2 0x1E7 JUMP JUMPDEST DUP2 ADD DUP2 DUP2 LT PUSH8 0xFFFFFFFFFFFFFFFF DUP3 GT OR ISZERO PUSH2 0x2EE JUMPI PUSH2 0x2ED PUSH2 0x299 JUMP JUMPDEST JUMPDEST DUP1 PUSH1 0x40 MSTORE POP POP POP JUMP JUMPDEST PUSH0 PUSH2 0x300 PUSH2 0x280 JUMP JUMPDEST SWAP1 POP PUSH2 0x30C DUP3 DUP3 PUSH2 0x2C6 JUMP JUMPDEST SWAP2 SWAP1 POP JUMP JUMPDEST PUSH0 PUSH8 0xFFFFFFFFFFFFFFFF DUP3 GT ISZERO PUSH2 0x32B JUMPI PUSH2 0x32A PUSH2 0x299 JUMP JUMPDEST JUMPDEST PUSH2 0x334 DUP3 PUSH2 0x1E7 JUMP JUMPDEST SWAP1 POP PUSH1 0x20 DUP2 ADD SWAP1 POP SWAP2 SWAP1 POP JUMP JUMPDEST DUP3 DUP2 DUP4 CALLDATACOPY PUSH0 DUP4 DUP4 ADD MSTORE POP POP POP JUMP JUMPDEST PUSH0 PUSH2 0x361 PUSH2 0x35C DUP5 PUSH2 0x311 JUMP JUMPDEST PUSH2 0x2F7 JUMP JUMPDEST SWAP1 POP DUP3 DUP2 MSTORE PUSH1 0x20 DUP2 ADD DUP5 DUP5 DUP5 ADD GT ISZERO PUSH2 0x37D JUMPI PUSH2 0x37C PUSH2 0x295 JUMP JUMPDEST JUMPDEST PUSH2 0x388 DUP5 DUP3 DUP6 PUSH2 0x341 JUMP JUMPDEST POP SWAP4 SWAP3 POP POP POP JUMP JUMPDEST PUSH0 DUP3 PUSH1 0x1F DUP4 ADD SLT PUSH2 0x3A4 JUMPI PUSH2 0x3A3 PUSH2 0x291 JUMP JUMPDEST JUMPDEST DUP2 CALLDATALOAD PUSH2 0x3B4 DUP5 DUP3 PUSH1 0x20 DUP7 ADD PUSH2 0x34F JUMP JUMPDEST SWAP2 POP POP SWAP3 SWAP2 POP POP JUMP JUMPDEST PUSH0 PUSH1 0x20 DUP3 DUP5 SUB SLT ISZERO PUSH2 0x3D2 JUMPI PUSH2 0x3D1 PUSH2 0x289 JUMP JUMPDEST JUMPDEST PUSH0 DUP3 ADD CALLDATALOAD PUSH8 0xFFFFFFFFFFFFFFFF DUP2 GT ISZERO PUSH2 0x3EF JUMPI PUSH2 0x3EE PUSH2 0x28D JUMP JUMPDEST JUMPDEST PUSH2 0x3FB DUP5 DUP3 DUP6 ADD PUSH2 0x390 JUMP JUMPDEST SWAP2 POP POP SWAP3 SWAP2 POP POP JUMP JUMPDEST PUSH32 0x4E487B7100000000000000000000000000000000000000000000000000000000 PUSH0 MSTORE PUSH1 0x22 PUSH1 0x4 MSTORE PUSH1 0x24 PUSH0 REVERT JUMPDEST PUSH0 PUSH1 0x2 DUP3 DIV SWAP1 POP PUSH1 0x1 DUP3 AND DUP1 PUSH2 0x448 JUMPI PUSH1 0x7F DUP3 AND SWAP2 POP JUMPDEST PUSH1 0x20 DUP3 LT DUP2 SUB PUSH2 0x45B JUMPI PUSH2 0x45A PUSH2 0x404 JUMP JUMPDEST JUMPDEST POP SWAP2 SWAP1 POP JUMP JUMPDEST PUSH0 DUP2 SWAP1 POP DUP2 PUSH0 MSTORE PUSH1 0x20 PUSH0 KECCAK256 SWAP1 POP SWAP2 SWAP1 POP JUMP JUMPDEST PUSH0 PUSH1 0x20 PUSH1 0x1F DUP4 ADD DIV SWAP1 POP SWAP2 SWAP1 POP JUMP JUMPDEST PUSH0 DUP3 DUP3 SHL SWAP1 POP SWAP3 SWAP2 POP POP JUMP JUMPDEST PUSH0 PUSH1 0x8 DUP4 MUL PUSH2 0x4BD PUSH32 0xFFFFFFFFFFFFFFFFFFFFFFFFFFFFFFFFFFFFFFFFFFFFFFFFFFFFFFFFFFFFFFFF DUP3 PUSH2 0x482 JUMP JUMPDEST PUSH2 0x4C7 DUP7 DUP4 PUSH2 0x482 JUMP JUMPDEST SWAP6 POP DUP1 NOT DUP5 AND SWAP4 POP DUP1 DUP7 AND DUP5 OR SWAP3 POP POP POP SWAP4 SWAP3 POP POP POP JUMP JUMPDEST PUSH0 DUP2 SWAP1 POP SWAP2 SWAP1 POP JUMP JUMPDEST PUSH0 PUSH2 0x502 PUSH2 0x4FD PUSH2 0x4F8 DUP5 PUSH2 0x24F JUMP JUMPDEST PUSH2 0x4DF JUMP JUMPDEST PUSH2 0x24F JUMP JUMPDEST SWAP1 POP SWAP2 SWAP1 POP JUMP JUMPDEST PUSH0 DUP2 SWAP1 POP SWAP2 SWAP1 POP JUMP JUMPDEST PUSH2 0x51B DUP4 PUSH2 0x4E8 JUMP JUMPDEST PUSH2 0x52F PUSH2 0x527 DUP3 PUSH2 0x509 JUMP JUMPDEST DUP5 DUP5 SLOAD PUSH2 0x48E JUMP JUMPDEST DUP3 SSTORE POP POP POP POP JUMP JUMPDEST PUSH0 SWAP1 JUMP JUMPDEST PUSH2 0x543 PUSH2 0x537 JUMP JUMPDEST PUSH2 0x54E DUP2 DUP5 DUP5 PUSH2 0x512 JUMP JUMPDEST POP POP POP JUMP JUMPDEST JUMPDEST DUP2 DUP2 LT ISZERO PUSH2 0x571 JUMPI PUSH2 0x566 PUSH0 DUP3 PUSH2 0x53B JUMP JUMPDEST PUSH1 0x1 DUP2 ADD SWAP1 POP PUSH2 0x554 JUMP JUMPDEST POP POP JUMP JUMPDEST PUSH1 0x1F DUP3 GT ISZERO PUSH2 0x5B6 JUMPI PUSH2 0x587 DUP2 PUSH2 0x461 JUMP JUMPDEST PUSH2 0x590 DUP5 PUSH2 0x473 JUMP JUMPDEST DUP2 ADD PUSH1 0x20 DUP6 LT ISZERO PUSH2 0x59F JUMPI DUP2 SWAP1 POP JUMPDEST PUSH2 0x5B3 PUSH2 0x5AB DUP6 PUSH2 0x473 JUMP JUMPDEST DUP4 ADD DUP3 PUSH2 0x553 JUMP JUMPDEST POP POP JUMPDEST POP POP POP JUMP JUMPDEST PUSH0 DUP3 DUP3 SHR SWAP1 POP SWAP3 SWAP2 POP POP JUMP JUMPDEST PUSH0 PUSH2 0x5D6 PUSH0 NOT DUP5 PUSH1 0x8 MUL PUSH2 0x5BB JUMP JUMPDEST NOT DUP1 DUP4 AND SWAP2 POP POP SWAP3 SWAP2 POP POP JUMP JUMPDEST PUSH0 PUSH2 0x5EE DUP4 DUP4 PUSH2 0x5C7 JUMP JUMPDEST SWAP2 POP DUP3 PUSH1 0x2 MUL DUP3 OR SWAP1 POP SWAP3 SWAP2 POP POP JUMP JUMPDEST PUSH2 0x607 DUP3 PUSH2 0x1A5 JUMP JUMPDEST PUSH8 0xFFFFFFFFFFFFFFFF DUP2 GT ISZERO PUSH2 0x620 JUMPI PUSH2 0x61F PUSH2 0x299 JUMP JUMPDEST JUMPDEST PUSH2 0x62A DUP3 SLOAD PUSH2 0x431 JUMP JUMPDEST PUSH2 0x635 DUP3 DUP3 DUP6 PUSH2 0x575 JUMP JUMPDEST PUSH0 PUSH1 0x20 SWAP1 POP PUSH1 0x1F DUP4 GT PUSH1 0x1 DUP2 EQ PUSH2 0x666 JUMPI PUSH0 DUP5 ISZERO PUSH2 0x654 JUMPI DUP3 DUP8 ADD MLOAD SWAP1 POP JUMPDEST PUSH2 0x65E DUP6 DUP3 PUSH2 0x5E3 JUMP JUMPDEST DUP7 SSTORE POP PUSH2 0x6C5 JUMP JUMPDEST PUSH1 0x1F NOT DUP5 AND PUSH2 0x674 DUP7 PUSH2 0x461 JUMP JUMPDEST PUSH0 JUMPDEST DUP3 DUP2 LT ISZERO PUSH2 0x69B JUMPI DUP5 DUP10 ADD MLOAD DUP3 SSTORE PUSH1 0x1 DUP3 ADD SWAP2 POP PUSH1 0x20 DUP6 ADD SWAP5 POP PUSH1 0x20 DUP2 ADD SWAP1 POP PUSH2 0x676 JUMP JUMPDEST DUP7 DUP4 LT ISZERO PUSH2 0x6B8 JUMPI DUP5 DUP10 ADD MLOAD PUSH2 0x6B4 PUSH1 0x1F DUP10 AND DUP3 PUSH2 0x5C7 JUMP JUMPDEST DUP4 SSTORE POP JUMPDEST PUSH1 0x1 PUSH1 0x2 DUP9 MUL ADD DUP9 SSTORE POP POP POP JUMPDEST POP POP POP POP POP POP JUMP INVALID LOG2 PUSH5 0x6970667358 0x22 SLT KECCAK256 0xAA SWAP9 PUSH27 0x126F02963E8548D9B9F40D54A91B6E40214B8665E367F6DFFA37E7 0xB5 0xE PUSH5 0x736F6C6343 STOP ADDMOD AND STOP CALLER LOG2 PUSH5 0x6970667358 0x22 SLT KECCAK256 SWAP11 DUP6 0xB3 SWAP13 SELFBALANCE 0x4A 0xEB PUSH28 0x7028EADDC7D552B27164BAA4393719AEBFAA12AB2BCC78B264736F6C PUSH4 0x43000816 STOP CALLER "
				},
				"gasEstimates": {
					"creation": {
						"codeDepositCost": "1184000",
						"executionCost": "1225",
						"totalCost": "1185225"
					},
					"external": {
						"addRecord(address)": "infinite",
						"addRecord(string)": "infinite",
						"records(uint256)": "infinite"
					}
				},
				"methodIdentifiers": {
					"addRecord(address)": "99b53463",
					"addRecord(string)": "d81aa8c4",
					"records(uint256)": "34461067"
				}
			},
			"storageLayout": {
				"storage": [
					{
						"astId": 83,
						"contract": "Nik_MD_project3_1.sol:RecordFactory",
						"label": "records",
						"offset": 0,
						"slot": "0",
						"type": "t_array(t_contract(Record)13)dyn_storage"
					}
				],
				"types": {
					"t_array(t_contract(Record)13)dyn_storage": {
						"base": "t_contract(Record)13",
						"encoding": "dynamic_array",
						"label": "contract Record[]",
						"numberOfBytes": "32"
					},
					"t_contract(Record)13": {
						"encoding": "inplace",
						"label": "contract Record",
						"numberOfBytes": "20"
					}
				}
			},
			"userdoc": {
				"kind": "user",
				"methods": {},
				"version": 1
			}
		}
	}
}