{
	"practice45.sol": {
		"Overflow": {
			"abi": [
				{
					"inputs": [
						{
							"internalType": "uint8",
							"name": "_num",
							"type": "uint8"
						}
					],
					"name": "counter",
					"outputs": [
						{
							"internalType": "uint8",
							"name": "",
							"type": "uint8"
						}
					],
					"stateMutability": "nonpayable",
					"type": "function"
				},
				{
					"inputs": [],
					"name": "counter",
					"outputs": [
						{
							"internalType": "uint8",
							"name": "",
							"type": "uint8"
						}
					],
					"stateMutability": "nonpayable",
					"type": "function"
				},
				{
					"inputs": [],
					"name": "newNum",
					"outputs": [
						{
							"internalType": "uint8",
							"name": "",
							"type": "uint8"
						}
					],
					"stateMutability": "view",
					"type": "function"
				}
			],
			"devdoc": {
				"kind": "dev",
				"methods": {},
				"version": 1
			},
			"evm": {
				"assembly": "    /* \"practice45.sol\":64:494  contract Overflow { ... */\n  mstore(0x40, 0x80)\n  callvalue\n  dup1\n  iszero\n  tag_1\n  jumpi\n  0x00\n  dup1\n  revert\ntag_1:\n  pop\n  dataSize(sub_0)\n  dup1\n  dataOffset(sub_0)\n  0x00\n  codecopy\n  0x00\n  return\nstop\n\nsub_0: assembly {\n        /* \"practice45.sol\":64:494  contract Overflow { ... */\n      mstore(0x40, 0x80)\n      callvalue\n      dup1\n      iszero\n      tag_1\n      jumpi\n      0x00\n      dup1\n      revert\n    tag_1:\n      pop\n      jumpi(tag_2, lt(calldatasize, 0x04))\n      shr(0xe0, calldataload(0x00))\n      dup1\n      0x3a830ae3\n      eq\n      tag_3\n      jumpi\n      dup1\n      0x61bc221a\n      eq\n      tag_4\n      jumpi\n      dup1\n      0xe29710fe\n      eq\n      tag_5\n      jumpi\n    tag_2:\n      0x00\n      dup1\n      revert\n        /* \"practice45.sol\":265:385  function counter(uint8 _num) public checker(_num)  returns(uint8)  {... */\n    tag_3:\n      tag_6\n      0x04\n      dup1\n      calldatasize\n      sub\n      dup2\n      add\n      swap1\n      tag_7\n      swap2\n      swap1\n      tag_8\n      jump\t// in\n    tag_7:\n      tag_9\n      jump\t// in\n    tag_6:\n      mload(0x40)\n      tag_10\n      swap2\n      swap1\n      tag_11\n      jump\t// in\n    tag_10:\n      mload(0x40)\n      dup1\n      swap2\n      sub\n      swap1\n      return\n        /* \"practice45.sol\":391:491  function counter() public checker1()  returns(uint8)  {... */\n    tag_4:\n      tag_12\n      tag_13\n      jump\t// in\n    tag_12:\n      mload(0x40)\n      tag_14\n      swap2\n      swap1\n      tag_11\n      jump\t// in\n    tag_14:\n      mload(0x40)\n      dup1\n      swap2\n      sub\n      swap1\n      return\n        /* \"practice45.sol\":88:107  uint8 public newNum */\n    tag_5:\n      tag_15\n      tag_16\n      jump\t// in\n    tag_15:\n      mload(0x40)\n      tag_17\n      swap2\n      swap1\n      tag_11\n      jump\t// in\n    tag_17:\n      mload(0x40)\n      dup1\n      swap2\n      sub\n      swap1\n      return\n        /* \"practice45.sol\":265:385  function counter(uint8 _num) public checker(_num)  returns(uint8)  {... */\n    tag_9:\n        /* \"practice45.sol\":324:329  uint8 */\n      0x00\n        /* \"practice45.sol\":309:313  _num */\n      dup2\n        /* \"practice45.sol\":164:166  25 */\n      0x19\n        /* \"practice45.sol\":160:161  5 */\n      0x05\n        /* \"practice45.sol\":153:157  _num */\n      dup3\n        /* \"practice45.sol\":153:161  _num + 5 */\n      tag_19\n      swap2\n      swap1\n      tag_20\n      jump\t// in\n    tag_19:\n        /* \"practice45.sol\":153:166  _num + 5 < 25 */\n      0xff\n      and\n      lt\n        /* \"practice45.sol\":145:179  require(_num + 5 < 25, \"Overflow\") */\n      tag_21\n      jumpi\n      mload(0x40)\n      0x08c379a000000000000000000000000000000000000000000000000000000000\n      dup2\n      mstore\n      0x04\n      add\n      tag_22\n      swap1\n      tag_23\n      jump\t// in\n    tag_22:\n      mload(0x40)\n      dup1\n      swap2\n      sub\n      swap1\n      revert\n    tag_21:\n        /* \"practice45.sol\":356:357  5 */\n      0x05\n        /* \"practice45.sol\":349:353  _num */\n      dup4\n        /* \"practice45.sol\":349:357  _num + 5 */\n      tag_25\n      swap2\n      swap1\n      tag_20\n      jump\t// in\n    tag_25:\n        /* \"practice45.sol\":339:345  newNum */\n      0x00\n      dup1\n        /* \"practice45.sol\":339:357  newNum =  _num + 5 */\n      0x0100\n      exp\n      dup2\n      sload\n      dup2\n      0xff\n      mul\n      not\n      and\n      swap1\n      dup4\n      0xff\n      and\n      mul\n      or\n      swap1\n      sstore\n      pop\n        /* \"practice45.sol\":371:377  newNum */\n      0x00\n      dup1\n      sload\n      swap1\n      0x0100\n      exp\n      swap1\n      div\n      0xff\n      and\n        /* \"practice45.sol\":364:377  return newNum */\n      swap2\n      pop\n        /* \"practice45.sol\":265:385  function counter(uint8 _num) public checker(_num)  returns(uint8)  {... */\n      pop\n      swap2\n      swap1\n      pop\n      jump\t// out\n        /* \"practice45.sol\":391:491  function counter() public checker1()  returns(uint8)  {... */\n    tag_13:\n        /* \"practice45.sol\":437:442  uint8 */\n      0x00\n        /* \"practice45.sol\":236:238  25 */\n      0x19\n        /* \"practice45.sol\":232:233  1 */\n      0x01\n        /* \"practice45.sol\":223:229  newNum */\n      0x00\n      dup1\n      sload\n      swap1\n      0x0100\n      exp\n      swap1\n      div\n      0xff\n      and\n        /* \"practice45.sol\":223:233  newNum + 1 */\n      tag_27\n      swap2\n      swap1\n      tag_20\n      jump\t// in\n    tag_27:\n        /* \"practice45.sol\":223:238  newNum + 1 < 25 */\n      0xff\n      and\n      lt\n        /* \"practice45.sol\":215:251  require(newNum + 1 < 25, \"Overflow\") */\n      tag_28\n      jumpi\n      mload(0x40)\n      0x08c379a000000000000000000000000000000000000000000000000000000000\n      dup2\n      mstore\n      0x04\n      add\n      tag_29\n      swap1\n      tag_23\n      jump\t// in\n    tag_29:\n      mload(0x40)\n      dup1\n      swap2\n      sub\n      swap1\n      revert\n    tag_28:\n        /* \"practice45.sol\":462:463  1 */\n      0x01\n        /* \"practice45.sol\":452:458  newNum */\n      0x00\n      dup1\n        /* \"practice45.sol\":452:463  newNum += 1 */\n      dup3\n      dup3\n      dup3\n      swap1\n      sload\n      swap1\n      0x0100\n      exp\n      swap1\n      div\n      0xff\n      and\n      tag_31\n      swap2\n      swap1\n      tag_20\n      jump\t// in\n    tag_31:\n      swap3\n      pop\n      0x0100\n      exp\n      dup2\n      sload\n      dup2\n      0xff\n      mul\n      not\n      and\n      swap1\n      dup4\n      0xff\n      and\n      mul\n      or\n      swap1\n      sstore\n      pop\n        /* \"practice45.sol\":477:483  newNum */\n      0x00\n      dup1\n      sload\n      swap1\n      0x0100\n      exp\n      swap1\n      div\n      0xff\n      and\n        /* \"practice45.sol\":470:483  return newNum */\n      swap1\n      pop\n        /* \"practice45.sol\":391:491  function counter() public checker1()  returns(uint8)  {... */\n      swap1\n      jump\t// out\n        /* \"practice45.sol\":88:107  uint8 public newNum */\n    tag_16:\n      0x00\n      dup1\n      sload\n      swap1\n      0x0100\n      exp\n      swap1\n      div\n      0xff\n      and\n      dup2\n      jump\t// out\n        /* \"#utility.yul\":88:205   */\n    tag_33:\n        /* \"#utility.yul\":197:198   */\n      0x00\n        /* \"#utility.yul\":194:195   */\n      dup1\n        /* \"#utility.yul\":187:199   */\n      revert\n        /* \"#utility.yul\":334:420   */\n    tag_35:\n        /* \"#utility.yul\":369:376   */\n      0x00\n        /* \"#utility.yul\":409:413   */\n      0xff\n        /* \"#utility.yul\":402:407   */\n      dup3\n        /* \"#utility.yul\":398:414   */\n      and\n        /* \"#utility.yul\":387:414   */\n      swap1\n      pop\n        /* \"#utility.yul\":334:420   */\n      swap2\n      swap1\n      pop\n      jump\t// out\n        /* \"#utility.yul\":426:544   */\n    tag_36:\n        /* \"#utility.yul\":497:519   */\n      tag_49\n        /* \"#utility.yul\":513:518   */\n      dup2\n        /* \"#utility.yul\":497:519   */\n      tag_35\n      jump\t// in\n    tag_49:\n        /* \"#utility.yul\":490:495   */\n      dup2\n        /* \"#utility.yul\":487:520   */\n      eq\n        /* \"#utility.yul\":477:538   */\n      tag_50\n      jumpi\n        /* \"#utility.yul\":534:535   */\n      0x00\n        /* \"#utility.yul\":531:532   */\n      dup1\n        /* \"#utility.yul\":524:536   */\n      revert\n        /* \"#utility.yul\":477:538   */\n    tag_50:\n        /* \"#utility.yul\":426:544   */\n      pop\n      jump\t// out\n        /* \"#utility.yul\":550:685   */\n    tag_37:\n        /* \"#utility.yul\":594:599   */\n      0x00\n        /* \"#utility.yul\":632:638   */\n      dup2\n        /* \"#utility.yul\":619:639   */\n      calldataload\n        /* \"#utility.yul\":610:639   */\n      swap1\n      pop\n        /* \"#utility.yul\":648:679   */\n      tag_52\n        /* \"#utility.yul\":673:678   */\n      dup2\n        /* \"#utility.yul\":648:679   */\n      tag_36\n      jump\t// in\n    tag_52:\n        /* \"#utility.yul\":550:685   */\n      swap3\n      swap2\n      pop\n      pop\n      jump\t// out\n        /* \"#utility.yul\":691:1016   */\n    tag_8:\n        /* \"#utility.yul\":748:754   */\n      0x00\n        /* \"#utility.yul\":797:799   */\n      0x20\n        /* \"#utility.yul\":785:794   */\n      dup3\n        /* \"#utility.yul\":776:783   */\n      dup5\n        /* \"#utility.yul\":772:795   */\n      sub\n        /* \"#utility.yul\":768:800   */\n      slt\n        /* \"#utility.yul\":765:884   */\n      iszero\n      tag_54\n      jumpi\n        /* \"#utility.yul\":803:882   */\n      tag_55\n      tag_33\n      jump\t// in\n    tag_55:\n        /* \"#utility.yul\":765:884   */\n    tag_54:\n        /* \"#utility.yul\":923:924   */\n      0x00\n        /* \"#utility.yul\":948:999   */\n      tag_56\n        /* \"#utility.yul\":991:998   */\n      dup5\n        /* \"#utility.yul\":982:988   */\n      dup3\n        /* \"#utility.yul\":971:980   */\n      dup6\n        /* \"#utility.yul\":967:989   */\n      add\n        /* \"#utility.yul\":948:999   */\n      tag_37\n      jump\t// in\n    tag_56:\n        /* \"#utility.yul\":938:999   */\n      swap2\n      pop\n        /* \"#utility.yul\":894:1009   */\n      pop\n        /* \"#utility.yul\":691:1016   */\n      swap3\n      swap2\n      pop\n      pop\n      jump\t// out\n        /* \"#utility.yul\":1022:1134   */\n    tag_38:\n        /* \"#utility.yul\":1105:1127   */\n      tag_58\n        /* \"#utility.yul\":1121:1126   */\n      dup2\n        /* \"#utility.yul\":1105:1127   */\n      tag_35\n      jump\t// in\n    tag_58:\n        /* \"#utility.yul\":1100:1103   */\n      dup3\n        /* \"#utility.yul\":1093:1128   */\n      mstore\n        /* \"#utility.yul\":1022:1134   */\n      pop\n      pop\n      jump\t// out\n        /* \"#utility.yul\":1140:1354   */\n    tag_11:\n        /* \"#utility.yul\":1229:1233   */\n      0x00\n        /* \"#utility.yul\":1267:1269   */\n      0x20\n        /* \"#utility.yul\":1256:1265   */\n      dup3\n        /* \"#utility.yul\":1252:1270   */\n      add\n        /* \"#utility.yul\":1244:1270   */\n      swap1\n      pop\n        /* \"#utility.yul\":1280:1347   */\n      tag_60\n        /* \"#utility.yul\":1344:1345   */\n      0x00\n        /* \"#utility.yul\":1333:1342   */\n      dup4\n        /* \"#utility.yul\":1329:1346   */\n      add\n        /* \"#utility.yul\":1320:1326   */\n      dup5\n        /* \"#utility.yul\":1280:1347   */\n      tag_38\n      jump\t// in\n    tag_60:\n        /* \"#utility.yul\":1140:1354   */\n      swap3\n      swap2\n      pop\n      pop\n      jump\t// out\n        /* \"#utility.yul\":1360:1540   */\n    tag_39:\n        /* \"#utility.yul\":1408:1485   */\n      0x4e487b7100000000000000000000000000000000000000000000000000000000\n        /* \"#utility.yul\":1405:1406   */\n      0x00\n        /* \"#utility.yul\":1398:1486   */\n      mstore\n        /* \"#utility.yul\":1505:1509   */\n      0x11\n        /* \"#utility.yul\":1502:1503   */\n      0x04\n        /* \"#utility.yul\":1495:1510   */\n      mstore\n        /* \"#utility.yul\":1529:1533   */\n      0x24\n        /* \"#utility.yul\":1526:1527   */\n      0x00\n        /* \"#utility.yul\":1519:1534   */\n      revert\n        /* \"#utility.yul\":1546:1734   */\n    tag_20:\n        /* \"#utility.yul\":1584:1587   */\n      0x00\n        /* \"#utility.yul\":1603:1621   */\n      tag_63\n        /* \"#utility.yul\":1619:1620   */\n      dup3\n        /* \"#utility.yul\":1603:1621   */\n      tag_35\n      jump\t// in\n    tag_63:\n        /* \"#utility.yul\":1598:1621   */\n      swap2\n      pop\n        /* \"#utility.yul\":1635:1653   */\n      tag_64\n        /* \"#utility.yul\":1651:1652   */\n      dup4\n        /* \"#utility.yul\":1635:1653   */\n      tag_35\n      jump\t// in\n    tag_64:\n        /* \"#utility.yul\":1630:1653   */\n      swap3\n      pop\n        /* \"#utility.yul\":1676:1677   */\n      dup3\n        /* \"#utility.yul\":1673:1674   */\n      dup3\n        /* \"#utility.yul\":1669:1678   */\n      add\n        /* \"#utility.yul\":1662:1678   */\n      swap1\n      pop\n        /* \"#utility.yul\":1699:1703   */\n      0xff\n        /* \"#utility.yul\":1694:1697   */\n      dup2\n        /* \"#utility.yul\":1691:1704   */\n      gt\n        /* \"#utility.yul\":1688:1727   */\n      iszero\n      tag_65\n      jumpi\n        /* \"#utility.yul\":1707:1725   */\n      tag_66\n      tag_39\n      jump\t// in\n    tag_66:\n        /* \"#utility.yul\":1688:1727   */\n    tag_65:\n        /* \"#utility.yul\":1546:1734   */\n      swap3\n      swap2\n      pop\n      pop\n      jump\t// out\n        /* \"#utility.yul\":1740:1909   */\n    tag_40:\n        /* \"#utility.yul\":1824:1835   */\n      0x00\n        /* \"#utility.yul\":1858:1864   */\n      dup3\n        /* \"#utility.yul\":1853:1856   */\n      dup3\n        /* \"#utility.yul\":1846:1865   */\n      mstore\n        /* \"#utility.yul\":1898:1902   */\n      0x20\n        /* \"#utility.yul\":1893:1896   */\n      dup3\n        /* \"#utility.yul\":1889:1903   */\n      add\n        /* \"#utility.yul\":1874:1903   */\n      swap1\n      pop\n        /* \"#utility.yul\":1740:1909   */\n      swap3\n      swap2\n      pop\n      pop\n      jump\t// out\n        /* \"#utility.yul\":1915:2073   */\n    tag_41:\n        /* \"#utility.yul\":2055:2065   */\n      0x4f766572666c6f77000000000000000000000000000000000000000000000000\n        /* \"#utility.yul\":2051:2052   */\n      0x00\n        /* \"#utility.yul\":2043:2049   */\n      dup3\n        /* \"#utility.yul\":2039:2053   */\n      add\n        /* \"#utility.yul\":2032:2066   */\n      mstore\n        /* \"#utility.yul\":1915:2073   */\n      pop\n      jump\t// out\n        /* \"#utility.yul\":2079:2444   */\n    tag_42:\n        /* \"#utility.yul\":2221:2224   */\n      0x00\n        /* \"#utility.yul\":2242:2308   */\n      tag_70\n        /* \"#utility.yul\":2306:2307   */\n      0x08\n        /* \"#utility.yul\":2301:2304   */\n      dup4\n        /* \"#utility.yul\":2242:2308   */\n      tag_40\n      jump\t// in\n    tag_70:\n        /* \"#utility.yul\":2235:2308   */\n      swap2\n      pop\n        /* \"#utility.yul\":2317:2410   */\n      tag_71\n        /* \"#utility.yul\":2406:2409   */\n      dup3\n        /* \"#utility.yul\":2317:2410   */\n      tag_41\n      jump\t// in\n    tag_71:\n        /* \"#utility.yul\":2435:2437   */\n      0x20\n        /* \"#utility.yul\":2430:2433   */\n      dup3\n        /* \"#utility.yul\":2426:2438   */\n      add\n        /* \"#utility.yul\":2419:2438   */\n      swap1\n      pop\n        /* \"#utility.yul\":2079:2444   */\n      swap2\n      swap1\n      pop\n      jump\t// out\n        /* \"#utility.yul\":2450:2869   */\n    tag_23:\n        /* \"#utility.yul\":2616:2620   */\n      0x00\n        /* \"#utility.yul\":2654:2656   */\n      0x20\n        /* \"#utility.yul\":2643:2652   */\n      dup3\n        /* \"#utility.yul\":2639:2657   */\n      add\n        /* \"#utility.yul\":2631:2657   */\n      swap1\n      pop\n        /* \"#utility.yul\":2703:2712   */\n      dup2\n        /* \"#utility.yul\":2697:2701   */\n      dup2\n        /* \"#utility.yul\":2693:2713   */\n      sub\n        /* \"#utility.yul\":2689:2690   */\n      0x00\n        /* \"#utility.yul\":2678:2687   */\n      dup4\n        /* \"#utility.yul\":2674:2691   */\n      add\n        /* \"#utility.yul\":2667:2714   */\n      mstore\n        /* \"#utility.yul\":2731:2862   */\n      tag_73\n        /* \"#utility.yul\":2857:2861   */\n      dup2\n        /* \"#utility.yul\":2731:2862   */\n      tag_42\n      jump\t// in\n    tag_73:\n        /* \"#utility.yul\":2723:2862   */\n      swap1\n      pop\n        /* \"#utility.yul\":2450:2869   */\n      swap2\n      swap1\n      pop\n      jump\t// out\n\n    auxdata: 0xa2646970667358221220e669759e01287ef301fca84f7a23063507d31d9228d84d44e33f5543208bfbc264736f6c63430008160033\n}\n",
				"bytecode": {
					"linkReferences": {},
					"object": "608060405234801561000f575f80fd5b5061038f8061001d5f395ff3fe608060405234801561000f575f80fd5b506004361061003f575f3560e01c80633a830ae31461004357806361bc221a14610073578063e29710fe14610091575b5f80fd5b61005d6004803603810190610058919061022d565b6100af565b60405161006a9190610267565b60405180910390f35b61007b61013d565b6040516100889190610267565b60405180910390f35b6100996101e3565b6040516100a69190610267565b60405180910390f35b5f8160196005826100c091906102ad565b60ff1610610103576040517f08c379a00000000000000000000000000000000000000000000000000000000081526004016100fa9061033b565b60405180910390fd5b60058361011091906102ad565b5f806101000a81548160ff021916908360ff1602179055505f8054906101000a900460ff16915050919050565b5f601960015f8054906101000a900460ff1661015991906102ad565b60ff161061019c576040517f08c379a00000000000000000000000000000000000000000000000000000000081526004016101939061033b565b60405180910390fd5b60015f808282829054906101000a900460ff166101b991906102ad565b92506101000a81548160ff021916908360ff1602179055505f8054906101000a900460ff16905090565b5f8054906101000a900460ff1681565b5f80fd5b5f60ff82169050919050565b61020c816101f7565b8114610216575f80fd5b50565b5f8135905061022781610203565b92915050565b5f60208284031215610242576102416101f3565b5b5f61024f84828501610219565b91505092915050565b610261816101f7565b82525050565b5f60208201905061027a5f830184610258565b92915050565b7f4e487b71000000000000000000000000000000000000000000000000000000005f52601160045260245ffd5b5f6102b7826101f7565b91506102c2836101f7565b9250828201905060ff8111156102db576102da610280565b5b92915050565b5f82825260208201905092915050565b7f4f766572666c6f770000000000000000000000000000000000000000000000005f82015250565b5f6103256008836102e1565b9150610330826102f1565b602082019050919050565b5f6020820190508181035f83015261035281610319565b905091905056fea2646970667358221220e669759e01287ef301fca84f7a23063507d31d9228d84d44e33f5543208bfbc264736f6c63430008160033",
					"opcodes": "PUSH1 0x80 PUSH1 0x40 MSTORE CALLVALUE DUP1 ISZERO PUSH2 0xF JUMPI PUSH0 DUP1 REVERT JUMPDEST POP PUSH2 0x38F DUP1 PUSH2 0x1D PUSH0 CODECOPY PUSH0 RETURN INVALID PUSH1 0x80 PUSH1 0x40 MSTORE CALLVALUE DUP1 ISZERO PUSH2 0xF JUMPI PUSH0 DUP1 REVERT JUMPDEST POP PUSH1 0x4 CALLDATASIZE LT PUSH2 0x3F JUMPI PUSH0 CALLDATALOAD PUSH1 0xE0 SHR DUP1 PUSH4 0x3A830AE3 EQ PUSH2 0x43 JUMPI DUP1 PUSH4 0x61BC221A EQ PUSH2 0x73 JUMPI DUP1 PUSH4 0xE29710FE EQ PUSH2 0x91 JUMPI JUMPDEST PUSH0 DUP1 REVERT JUMPDEST PUSH2 0x5D PUSH1 0x4 DUP1 CALLDATASIZE SUB DUP2 ADD SWAP1 PUSH2 0x58 SWAP2 SWAP1 PUSH2 0x22D JUMP JUMPDEST PUSH2 0xAF JUMP JUMPDEST PUSH1 0x40 MLOAD PUSH2 0x6A SWAP2 SWAP1 PUSH2 0x267 JUMP JUMPDEST PUSH1 0x40 MLOAD DUP1 SWAP2 SUB SWAP1 RETURN JUMPDEST PUSH2 0x7B PUSH2 0x13D JUMP JUMPDEST PUSH1 0x40 MLOAD PUSH2 0x88 SWAP2 SWAP1 PUSH2 0x267 JUMP JUMPDEST PUSH1 0x40 MLOAD DUP1 SWAP2 SUB SWAP1 RETURN JUMPDEST PUSH2 0x99 PUSH2 0x1E3 JUMP JUMPDEST PUSH1 0x40 MLOAD PUSH2 0xA6 SWAP2 SWAP1 PUSH2 0x267 JUMP JUMPDEST PUSH1 0x40 MLOAD DUP1 SWAP2 SUB SWAP1 RETURN JUMPDEST PUSH0 DUP2 PUSH1 0x19 PUSH1 0x5 DUP3 PUSH2 0xC0 SWAP2 SWAP1 PUSH2 0x2AD JUMP JUMPDEST PUSH1 0xFF AND LT PUSH2 0x103 JUMPI PUSH1 0x40 MLOAD PUSH32 0x8C379A000000000000000000000000000000000000000000000000000000000 DUP2 MSTORE PUSH1 0x4 ADD PUSH2 0xFA SWAP1 PUSH2 0x33B JUMP JUMPDEST PUSH1 0x40 MLOAD DUP1 SWAP2 SUB SWAP1 REVERT JUMPDEST PUSH1 0x5 DUP4 PUSH2 0x110 SWAP2 SWAP1 PUSH2 0x2AD JUMP JUMPDEST PUSH0 DUP1 PUSH2 0x100 EXP DUP2 SLOAD DUP2 PUSH1 0xFF MUL NOT AND SWAP1 DUP4 PUSH1 0xFF AND MUL OR SWAP1 SSTORE POP PUSH0 DUP1 SLOAD SWAP1 PUSH2 0x100 EXP SWAP1 DIV PUSH1 0xFF AND SWAP2 POP POP SWAP2 SWAP1 POP JUMP JUMPDEST PUSH0 PUSH1 0x19 PUSH1 0x1 PUSH0 DUP1 SLOAD SWAP1 PUSH2 0x100 EXP SWAP1 DIV PUSH1 0xFF AND PUSH2 0x159 SWAP2 SWAP1 PUSH2 0x2AD JUMP JUMPDEST PUSH1 0xFF AND LT PUSH2 0x19C JUMPI PUSH1 0x40 MLOAD PUSH32 0x8C379A000000000000000000000000000000000000000000000000000000000 DUP2 MSTORE PUSH1 0x4 ADD PUSH2 0x193 SWAP1 PUSH2 0x33B JUMP JUMPDEST PUSH1 0x40 MLOAD DUP1 SWAP2 SUB SWAP1 REVERT JUMPDEST PUSH1 0x1 PUSH0 DUP1 DUP3 DUP3 DUP3 SWAP1 SLOAD SWAP1 PUSH2 0x100 EXP SWAP1 DIV PUSH1 0xFF AND PUSH2 0x1B9 SWAP2 SWAP1 PUSH2 0x2AD JUMP JUMPDEST SWAP3 POP PUSH2 0x100 EXP DUP2 SLOAD DUP2 PUSH1 0xFF MUL NOT AND SWAP1 DUP4 PUSH1 0xFF AND MUL OR SWAP1 SSTORE POP PUSH0 DUP1 SLOAD SWAP1 PUSH2 0x100 EXP SWAP1 DIV PUSH1 0xFF AND SWAP1 POP SWAP1 JUMP JUMPDEST PUSH0 DUP1 SLOAD SWAP1 PUSH2 0x100 EXP SWAP1 DIV PUSH1 0xFF AND DUP2 JUMP JUMPDEST PUSH0 DUP1 REVERT JUMPDEST PUSH0 PUSH1 0xFF DUP3 AND SWAP1 POP SWAP2 SWAP1 POP JUMP JUMPDEST PUSH2 0x20C DUP2 PUSH2 0x1F7 JUMP JUMPDEST DUP2 EQ PUSH2 0x216 JUMPI PUSH0 DUP1 REVERT JUMPDEST POP JUMP JUMPDEST PUSH0 DUP2 CALLDATALOAD SWAP1 POP PUSH2 0x227 DUP2 PUSH2 0x203 JUMP JUMPDEST SWAP3 SWAP2 POP POP JUMP JUMPDEST PUSH0 PUSH1 0x20 DUP3 DUP5 SUB SLT ISZERO PUSH2 0x242 JUMPI PUSH2 0x241 PUSH2 0x1F3 JUMP JUMPDEST JUMPDEST PUSH0 PUSH2 0x24F DUP5 DUP3 DUP6 ADD PUSH2 0x219 JUMP JUMPDEST SWAP2 POP POP SWAP3 SWAP2 POP POP JUMP JUMPDEST PUSH2 0x261 DUP2 PUSH2 0x1F7 JUMP JUMPDEST DUP3 MSTORE POP POP JUMP JUMPDEST PUSH0 PUSH1 0x20 DUP3 ADD SWAP1 POP PUSH2 0x27A PUSH0 DUP4 ADD DUP5 PUSH2 0x258 JUMP JUMPDEST SWAP3 SWAP2 POP POP JUMP JUMPDEST PUSH32 0x4E487B7100000000000000000000000000000000000000000000000000000000 PUSH0 MSTORE PUSH1 0x11 PUSH1 0x4 MSTORE PUSH1 0x24 PUSH0 REVERT JUMPDEST PUSH0 PUSH2 0x2B7 DUP3 PUSH2 0x1F7 JUMP JUMPDEST SWAP2 POP PUSH2 0x2C2 DUP4 PUSH2 0x1F7 JUMP JUMPDEST SWAP3 POP DUP3 DUP3 ADD SWAP1 POP PUSH1 0xFF DUP2 GT ISZERO PUSH2 0x2DB JUMPI PUSH2 0x2DA PUSH2 0x280 JUMP JUMPDEST JUMPDEST SWAP3 SWAP2 POP POP JUMP JUMPDEST PUSH0 DUP3 DUP3 MSTORE PUSH1 0x20 DUP3 ADD SWAP1 POP SWAP3 SWAP2 POP POP JUMP JUMPDEST PUSH32 0x4F766572666C6F77000000000000000000000000000000000000000000000000 PUSH0 DUP3 ADD MSTORE POP JUMP JUMPDEST PUSH0 PUSH2 0x325 PUSH1 0x8 DUP4 PUSH2 0x2E1 JUMP JUMPDEST SWAP2 POP PUSH2 0x330 DUP3 PUSH2 0x2F1 JUMP JUMPDEST PUSH1 0x20 DUP3 ADD SWAP1 POP SWAP2 SWAP1 POP JUMP JUMPDEST PUSH0 PUSH1 0x20 DUP3 ADD SWAP1 POP DUP2 DUP2 SUB PUSH0 DUP4 ADD MSTORE PUSH2 0x352 DUP2 PUSH2 0x319 JUMP JUMPDEST SWAP1 POP SWAP2 SWAP1 POP JUMP INVALID LOG2 PUSH5 0x6970667358 0x22 SLT KECCAK256 0xE6 PUSH10 0x759E01287EF301FCA84F PUSH27 0x23063507D31D9228D84D44E33F5543208BFBC264736F6C63430008 AND STOP CALLER "
				},
				"gasEstimates": {
					"creation": {
						"codeDepositCost": "182200",
						"executionCost": "224",
						"totalCost": "182424"
					},
					"external": {
						"counter()": "infinite",
						"counter(uint8)": "infinite",
						"newNum()": "2485"
					}
				},
				"methodIdentifiers": {
					"counter()": "61bc221a",
					"counter(uint8)": "3a830ae3",
					"newNum()": "e29710fe"
				}
			},
			"storageLayout": {
				"storage": [
					{
						"astId": 3,
						"contract": "practice45.sol:Overflow",
						"label": "newNum",
						"offset": 0,
						"slot": "0",
						"type": "t_uint8"
					}
				],
				"types": {
					"t_uint8": {
						"encoding": "inplace",
						"label": "uint8",
						"numberOfBytes": "1"
					}
				}
			},
			"userdoc": {
				"kind": "user",
				"methods": {},
				"version": 1
			}
		}
	}
}