{
	"practice43.sol": {
		"Overflow": {
			"abi": [
				{
					"inputs": [],
					"name": "add",
					"outputs": [
						{
							"internalType": "uint256",
							"name": "",
							"type": "uint256"
						}
					],
					"stateMutability": "nonpayable",
					"type": "function"
				},
				{
					"inputs": [],
					"name": "counter",
					"outputs": [
						{
							"internalType": "uint256",
							"name": "",
							"type": "uint256"
						}
					],
					"stateMutability": "view",
					"type": "function"
				}
			],
			"devdoc": {
				"kind": "dev",
				"methods": {},
				"version": 1
			},
			"evm": {
				"assembly": "    /* \"practice43.sol\":64:255  contract Overflow {... */\n  mstore(0x40, 0x80)\n    /* \"practice43.sol\":108:109  0 */\n  0x00\n    /* \"practice43.sol\":86:109  uint public counter = 0 */\n  dup1\n  sstore\n    /* \"practice43.sol\":64:255  contract Overflow {... */\n  callvalue\n  dup1\n  iszero\n  tag_1\n  jumpi\n  0x00\n  dup1\n  revert\ntag_1:\n  pop\n  dataSize(sub_0)\n  dup1\n  dataOffset(sub_0)\n  0x00\n  codecopy\n  0x00\n  return\nstop\n\nsub_0: assembly {\n        /* \"practice43.sol\":64:255  contract Overflow {... */\n      mstore(0x40, 0x80)\n      callvalue\n      dup1\n      iszero\n      tag_1\n      jumpi\n      0x00\n      dup1\n      revert\n    tag_1:\n      pop\n      jumpi(tag_2, lt(calldatasize, 0x04))\n      shr(0xe0, calldataload(0x00))\n      dup1\n      0x4f2be91f\n      eq\n      tag_3\n      jumpi\n      dup1\n      0x61bc221a\n      eq\n      tag_4\n      jumpi\n    tag_2:\n      0x00\n      dup1\n      revert\n        /* \"practice43.sol\":114:252  function add() public returns(uint) {... */\n    tag_3:\n      tag_5\n      tag_6\n      jump\t// in\n    tag_5:\n      mload(0x40)\n      tag_7\n      swap2\n      swap1\n      tag_8\n      jump\t// in\n    tag_7:\n      mload(0x40)\n      dup1\n      swap2\n      sub\n      swap1\n      return\n        /* \"practice43.sol\":86:109  uint public counter = 0 */\n    tag_4:\n      tag_9\n      tag_10\n      jump\t// in\n    tag_9:\n      mload(0x40)\n      tag_11\n      swap2\n      swap1\n      tag_8\n      jump\t// in\n    tag_11:\n      mload(0x40)\n      dup1\n      swap2\n      sub\n      swap1\n      return\n        /* \"practice43.sol\":114:252  function add() public returns(uint) {... */\n    tag_6:\n        /* \"practice43.sol\":144:148  uint */\n      0x00\n        /* \"practice43.sol\":169:172  255 */\n      0xff\n        /* \"practice43.sol\":159:166  counter */\n      sload(0x00)\n        /* \"practice43.sol\":159:172  counter > 255 */\n      gt\n        /* \"practice43.sol\":155:223  if (counter > 255) {... */\n      iszero\n      tag_13\n      jumpi\n        /* \"practice43.sol\":179:194  revert('error') */\n      mload(0x40)\n      0x08c379a000000000000000000000000000000000000000000000000000000000\n      dup2\n      mstore\n      0x04\n      add\n      tag_14\n      swap1\n      tag_15\n      jump\t// in\n    tag_14:\n      mload(0x40)\n      dup1\n      swap2\n      sub\n      swap1\n      revert\n        /* \"practice43.sol\":155:223  if (counter > 255) {... */\n    tag_13:\n        /* \"practice43.sol\":222:223  5 */\n      0x05\n        /* \"practice43.sol\":211:218  counter */\n      0x00\n      dup1\n        /* \"practice43.sol\":211:223  counter += 5 */\n      dup3\n      dup3\n      sload\n      tag_17\n      swap2\n      swap1\n      tag_18\n      jump\t// in\n    tag_17:\n      swap3\n      pop\n      pop\n      dup2\n      swap1\n      sstore\n      pop\n        /* \"practice43.sol\":237:244  counter */\n      sload(0x00)\n        /* \"practice43.sol\":230:244  return counter */\n      swap1\n      pop\n        /* \"practice43.sol\":114:252  function add() public returns(uint) {... */\n      swap1\n      jump\t// out\n        /* \"practice43.sol\":86:109  uint public counter = 0 */\n    tag_10:\n      sload(0x00)\n      dup2\n      jump\t// out\n        /* \"#utility.yul\":7:84   */\n    tag_19:\n        /* \"#utility.yul\":44:51   */\n      0x00\n        /* \"#utility.yul\":73:78   */\n      dup2\n        /* \"#utility.yul\":62:78   */\n      swap1\n      pop\n        /* \"#utility.yul\":7:84   */\n      swap2\n      swap1\n      pop\n      jump\t// out\n        /* \"#utility.yul\":90:208   */\n    tag_20:\n        /* \"#utility.yul\":177:201   */\n      tag_28\n        /* \"#utility.yul\":195:200   */\n      dup2\n        /* \"#utility.yul\":177:201   */\n      tag_19\n      jump\t// in\n    tag_28:\n        /* \"#utility.yul\":172:175   */\n      dup3\n        /* \"#utility.yul\":165:202   */\n      mstore\n        /* \"#utility.yul\":90:208   */\n      pop\n      pop\n      jump\t// out\n        /* \"#utility.yul\":214:436   */\n    tag_8:\n        /* \"#utility.yul\":307:311   */\n      0x00\n        /* \"#utility.yul\":345:347   */\n      0x20\n        /* \"#utility.yul\":334:343   */\n      dup3\n        /* \"#utility.yul\":330:348   */\n      add\n        /* \"#utility.yul\":322:348   */\n      swap1\n      pop\n        /* \"#utility.yul\":358:429   */\n      tag_30\n        /* \"#utility.yul\":426:427   */\n      0x00\n        /* \"#utility.yul\":415:424   */\n      dup4\n        /* \"#utility.yul\":411:428   */\n      add\n        /* \"#utility.yul\":402:408   */\n      dup5\n        /* \"#utility.yul\":358:429   */\n      tag_20\n      jump\t// in\n    tag_30:\n        /* \"#utility.yul\":214:436   */\n      swap3\n      swap2\n      pop\n      pop\n      jump\t// out\n        /* \"#utility.yul\":442:611   */\n    tag_21:\n        /* \"#utility.yul\":526:537   */\n      0x00\n        /* \"#utility.yul\":560:566   */\n      dup3\n        /* \"#utility.yul\":555:558   */\n      dup3\n        /* \"#utility.yul\":548:567   */\n      mstore\n        /* \"#utility.yul\":600:604   */\n      0x20\n        /* \"#utility.yul\":595:598   */\n      dup3\n        /* \"#utility.yul\":591:605   */\n      add\n        /* \"#utility.yul\":576:605   */\n      swap1\n      pop\n        /* \"#utility.yul\":442:611   */\n      swap3\n      swap2\n      pop\n      pop\n      jump\t// out\n        /* \"#utility.yul\":617:772   */\n    tag_22:\n        /* \"#utility.yul\":757:764   */\n      0x6572726f72000000000000000000000000000000000000000000000000000000\n        /* \"#utility.yul\":753:754   */\n      0x00\n        /* \"#utility.yul\":745:751   */\n      dup3\n        /* \"#utility.yul\":741:755   */\n      add\n        /* \"#utility.yul\":734:765   */\n      mstore\n        /* \"#utility.yul\":617:772   */\n      pop\n      jump\t// out\n        /* \"#utility.yul\":778:1143   */\n    tag_23:\n        /* \"#utility.yul\":920:923   */\n      0x00\n        /* \"#utility.yul\":941:1007   */\n      tag_34\n        /* \"#utility.yul\":1005:1006   */\n      0x05\n        /* \"#utility.yul\":1000:1003   */\n      dup4\n        /* \"#utility.yul\":941:1007   */\n      tag_21\n      jump\t// in\n    tag_34:\n        /* \"#utility.yul\":934:1007   */\n      swap2\n      pop\n        /* \"#utility.yul\":1016:1109   */\n      tag_35\n        /* \"#utility.yul\":1105:1108   */\n      dup3\n        /* \"#utility.yul\":1016:1109   */\n      tag_22\n      jump\t// in\n    tag_35:\n        /* \"#utility.yul\":1134:1136   */\n      0x20\n        /* \"#utility.yul\":1129:1132   */\n      dup3\n        /* \"#utility.yul\":1125:1137   */\n      add\n        /* \"#utility.yul\":1118:1137   */\n      swap1\n      pop\n        /* \"#utility.yul\":778:1143   */\n      swap2\n      swap1\n      pop\n      jump\t// out\n        /* \"#utility.yul\":1149:1568   */\n    tag_15:\n        /* \"#utility.yul\":1315:1319   */\n      0x00\n        /* \"#utility.yul\":1353:1355   */\n      0x20\n        /* \"#utility.yul\":1342:1351   */\n      dup3\n        /* \"#utility.yul\":1338:1356   */\n      add\n        /* \"#utility.yul\":1330:1356   */\n      swap1\n      pop\n        /* \"#utility.yul\":1402:1411   */\n      dup2\n        /* \"#utility.yul\":1396:1400   */\n      dup2\n        /* \"#utility.yul\":1392:1412   */\n      sub\n        /* \"#utility.yul\":1388:1389   */\n      0x00\n        /* \"#utility.yul\":1377:1386   */\n      dup4\n        /* \"#utility.yul\":1373:1390   */\n      add\n        /* \"#utility.yul\":1366:1413   */\n      mstore\n        /* \"#utility.yul\":1430:1561   */\n      tag_37\n        /* \"#utility.yul\":1556:1560   */\n      dup2\n        /* \"#utility.yul\":1430:1561   */\n      tag_23\n      jump\t// in\n    tag_37:\n        /* \"#utility.yul\":1422:1561   */\n      swap1\n      pop\n        /* \"#utility.yul\":1149:1568   */\n      swap2\n      swap1\n      pop\n      jump\t// out\n        /* \"#utility.yul\":1574:1754   */\n    tag_24:\n        /* \"#utility.yul\":1622:1699   */\n      0x4e487b7100000000000000000000000000000000000000000000000000000000\n        /* \"#utility.yul\":1619:1620   */\n      0x00\n        /* \"#utility.yul\":1612:1700   */\n      mstore\n        /* \"#utility.yul\":1719:1723   */\n      0x11\n        /* \"#utility.yul\":1716:1717   */\n      0x04\n        /* \"#utility.yul\":1709:1724   */\n      mstore\n        /* \"#utility.yul\":1743:1747   */\n      0x24\n        /* \"#utility.yul\":1740:1741   */\n      0x00\n        /* \"#utility.yul\":1733:1748   */\n      revert\n        /* \"#utility.yul\":1760:1951   */\n    tag_18:\n        /* \"#utility.yul\":1800:1803   */\n      0x00\n        /* \"#utility.yul\":1819:1839   */\n      tag_40\n        /* \"#utility.yul\":1837:1838   */\n      dup3\n        /* \"#utility.yul\":1819:1839   */\n      tag_19\n      jump\t// in\n    tag_40:\n        /* \"#utility.yul\":1814:1839   */\n      swap2\n      pop\n        /* \"#utility.yul\":1853:1873   */\n      tag_41\n        /* \"#utility.yul\":1871:1872   */\n      dup4\n        /* \"#utility.yul\":1853:1873   */\n      tag_19\n      jump\t// in\n    tag_41:\n        /* \"#utility.yul\":1848:1873   */\n      swap3\n      pop\n        /* \"#utility.yul\":1896:1897   */\n      dup3\n        /* \"#utility.yul\":1893:1894   */\n      dup3\n        /* \"#utility.yul\":1889:1898   */\n      add\n        /* \"#utility.yul\":1882:1898   */\n      swap1\n      pop\n        /* \"#utility.yul\":1917:1920   */\n      dup1\n        /* \"#utility.yul\":1914:1915   */\n      dup3\n        /* \"#utility.yul\":1911:1921   */\n      gt\n        /* \"#utility.yul\":1908:1944   */\n      iszero\n      tag_42\n      jumpi\n        /* \"#utility.yul\":1924:1942   */\n      tag_43\n      tag_24\n      jump\t// in\n    tag_43:\n        /* \"#utility.yul\":1908:1944   */\n    tag_42:\n        /* \"#utility.yul\":1760:1951   */\n      swap3\n      swap2\n      pop\n      pop\n      jump\t// out\n\n    auxdata: 0xa264697066735822122070e22436b5ee421dbe23e0f8c85ceac1dc06661ee524621c36851310384c300564736f6c63430008160033\n}\n",
				"bytecode": {
					"linkReferences": {},
					"object": "60806040525f8055348015610012575f80fd5b5061021d806100205f395ff3fe608060405234801561000f575f80fd5b5060043610610034575f3560e01c80634f2be91f1461003857806361bc221a14610056575b5f80fd5b610040610074565b60405161004d91906100f6565b60405180910390f35b61005e6100d9565b60405161006b91906100f6565b60405180910390f35b5f60ff5f5411156100ba576040517f08c379a00000000000000000000000000000000000000000000000000000000081526004016100b190610169565b60405180910390fd5b60055f808282546100cb91906101b4565b925050819055505f54905090565b5f5481565b5f819050919050565b6100f0816100de565b82525050565b5f6020820190506101095f8301846100e7565b92915050565b5f82825260208201905092915050565b7f6572726f720000000000000000000000000000000000000000000000000000005f82015250565b5f61015360058361010f565b915061015e8261011f565b602082019050919050565b5f6020820190508181035f83015261018081610147565b9050919050565b7f4e487b71000000000000000000000000000000000000000000000000000000005f52601160045260245ffd5b5f6101be826100de565b91506101c9836100de565b92508282019050808211156101e1576101e0610187565b5b9291505056fea264697066735822122070e22436b5ee421dbe23e0f8c85ceac1dc06661ee524621c36851310384c300564736f6c63430008160033",
					"opcodes": "PUSH1 0x80 PUSH1 0x40 MSTORE PUSH0 DUP1 SSTORE CALLVALUE DUP1 ISZERO PUSH2 0x12 JUMPI PUSH0 DUP1 REVERT JUMPDEST POP PUSH2 0x21D DUP1 PUSH2 0x20 PUSH0 CODECOPY PUSH0 RETURN INVALID PUSH1 0x80 PUSH1 0x40 MSTORE CALLVALUE DUP1 ISZERO PUSH2 0xF JUMPI PUSH0 DUP1 REVERT JUMPDEST POP PUSH1 0x4 CALLDATASIZE LT PUSH2 0x34 JUMPI PUSH0 CALLDATALOAD PUSH1 0xE0 SHR DUP1 PUSH4 0x4F2BE91F EQ PUSH2 0x38 JUMPI DUP1 PUSH4 0x61BC221A EQ PUSH2 0x56 JUMPI JUMPDEST PUSH0 DUP1 REVERT JUMPDEST PUSH2 0x40 PUSH2 0x74 JUMP JUMPDEST PUSH1 0x40 MLOAD PUSH2 0x4D SWAP2 SWAP1 PUSH2 0xF6 JUMP JUMPDEST PUSH1 0x40 MLOAD DUP1 SWAP2 SUB SWAP1 RETURN JUMPDEST PUSH2 0x5E PUSH2 0xD9 JUMP JUMPDEST PUSH1 0x40 MLOAD PUSH2 0x6B SWAP2 SWAP1 PUSH2 0xF6 JUMP JUMPDEST PUSH1 0x40 MLOAD DUP1 SWAP2 SUB SWAP1 RETURN JUMPDEST PUSH0 PUSH1 0xFF PUSH0 SLOAD GT ISZERO PUSH2 0xBA JUMPI PUSH1 0x40 MLOAD PUSH32 0x8C379A000000000000000000000000000000000000000000000000000000000 DUP2 MSTORE PUSH1 0x4 ADD PUSH2 0xB1 SWAP1 PUSH2 0x169 JUMP JUMPDEST PUSH1 0x40 MLOAD DUP1 SWAP2 SUB SWAP1 REVERT JUMPDEST PUSH1 0x5 PUSH0 DUP1 DUP3 DUP3 SLOAD PUSH2 0xCB SWAP2 SWAP1 PUSH2 0x1B4 JUMP JUMPDEST SWAP3 POP POP DUP2 SWAP1 SSTORE POP PUSH0 SLOAD SWAP1 POP SWAP1 JUMP JUMPDEST PUSH0 SLOAD DUP2 JUMP JUMPDEST PUSH0 DUP2 SWAP1 POP SWAP2 SWAP1 POP JUMP JUMPDEST PUSH2 0xF0 DUP2 PUSH2 0xDE JUMP JUMPDEST DUP3 MSTORE POP POP JUMP JUMPDEST PUSH0 PUSH1 0x20 DUP3 ADD SWAP1 POP PUSH2 0x109 PUSH0 DUP4 ADD DUP5 PUSH2 0xE7 JUMP JUMPDEST SWAP3 SWAP2 POP POP JUMP JUMPDEST PUSH0 DUP3 DUP3 MSTORE PUSH1 0x20 DUP3 ADD SWAP1 POP SWAP3 SWAP2 POP POP JUMP JUMPDEST PUSH32 0x6572726F72000000000000000000000000000000000000000000000000000000 PUSH0 DUP3 ADD MSTORE POP JUMP JUMPDEST PUSH0 PUSH2 0x153 PUSH1 0x5 DUP4 PUSH2 0x10F JUMP JUMPDEST SWAP2 POP PUSH2 0x15E DUP3 PUSH2 0x11F JUMP JUMPDEST PUSH1 0x20 DUP3 ADD SWAP1 POP SWAP2 SWAP1 POP JUMP JUMPDEST PUSH0 PUSH1 0x20 DUP3 ADD SWAP1 POP DUP2 DUP2 SUB PUSH0 DUP4 ADD MSTORE PUSH2 0x180 DUP2 PUSH2 0x147 JUMP JUMPDEST SWAP1 POP SWAP2 SWAP1 POP JUMP JUMPDEST PUSH32 0x4E487B7100000000000000000000000000000000000000000000000000000000 PUSH0 MSTORE PUSH1 0x11 PUSH1 0x4 MSTORE PUSH1 0x24 PUSH0 REVERT JUMPDEST PUSH0 PUSH2 0x1BE DUP3 PUSH2 0xDE JUMP JUMPDEST SWAP2 POP PUSH2 0x1C9 DUP4 PUSH2 0xDE JUMP JUMPDEST SWAP3 POP DUP3 DUP3 ADD SWAP1 POP DUP1 DUP3 GT ISZERO PUSH2 0x1E1 JUMPI PUSH2 0x1E0 PUSH2 0x187 JUMP JUMPDEST JUMPDEST SWAP3 SWAP2 POP POP JUMP INVALID LOG2 PUSH5 0x6970667358 0x22 SLT KECCAK256 PUSH17 0xE22436B5EE421DBE23E0F8C85CEAC1DC06 PUSH7 0x1EE524621C3685 SGT LT CODESIZE 0x4C ADDRESS SDIV PUSH5 0x736F6C6343 STOP ADDMOD AND STOP CALLER "
				},
				"gasEstimates": {
					"creation": {
						"codeDepositCost": "108200",
						"executionCost": "5156",
						"totalCost": "113356"
					},
					"external": {
						"add()": "infinite",
						"counter()": "2424"
					}
				},
				"methodIdentifiers": {
					"add()": "4f2be91f",
					"counter()": "61bc221a"
				}
			},
			"storageLayout": {
				"storage": [
					{
						"astId": 4,
						"contract": "practice43.sol:Overflow",
						"label": "counter",
						"offset": 0,
						"slot": "0",
						"type": "t_uint256"
					}
				],
				"types": {
					"t_uint256": {
						"encoding": "inplace",
						"label": "uint256",
						"numberOfBytes": "32"
					}
				}
			},
			"userdoc": {
				"kind": "user",
				"methods": {},
				"version": 1
			}
		}
	}
}