{
	"data": {
		"bytecode": {
			"linkReferences": {},
			"object": "608060405234801561000f575f80fd5b50610b0e8061001d5f395ff3fe60806040526004361062000043575f3560e01c80630c6008af146200004757806341aec538146200008a57806394ca2cb514620000b9578063a5e3875114620000fc575b5f80fd5b34801562000053575f80fd5b506200007260048036038101906200006c9190620002e5565b6200011c565b604051620000819190620003a9565b60405180910390f35b34801562000096575f80fd5b50620000a162000194565b604051620000b09190620003e5565b60405180910390f35b348015620000c5575f80fd5b50620000e46004803603810190620000de919062000577565b6200019b565b604051620000f39190620005ec565b60405180910390f35b6200011a600480360381019062000114919062000607565b620001e5565b005b60605f60405180602001620001319062000265565b6020820181038252601f19601f82011660405250905080836040516020016200015b9190620005ec565b6040516020818303038152906040526040516020016200017d92919062000677565b604051602081830303815290604052915050919050565b5f47905090565b5f8060ff60f81b30848680519060200120604051602001620001c194939291906200078b565b604051602081830303815290604052805190602001209050805f1c91505092915050565b5f815f1b3433604051620001f99062000265565b620002059190620005ec565b82906040518091039083f5905090508015801562000225573d5f803e3d5ffd5b5090507f55ea6c6b31543d8e2ec6a72f71a79c0f4b72ed0d4757172b043d8f4f4cd8484881604051620002599190620005ec565b60405180910390a15050565b6102f880620007e183390190565b5f604051905090565b5f80fd5b5f80fd5b5f73ffffffffffffffffffffffffffffffffffffffff82169050919050565b5f620002af8262000284565b9050919050565b620002c181620002a3565b8114620002cc575f80fd5b50565b5f81359050620002df81620002b6565b92915050565b5f60208284031215620002fd57620002fc6200027c565b5b5f6200030c84828501620002cf565b91505092915050565b5f81519050919050565b5f82825260208201905092915050565b5f5b838110156200034e57808201518184015260208101905062000331565b5f8484015250505050565b5f601f19601f8301169050919050565b5f620003758262000315565b6200038181856200031f565b9350620003938185602086016200032f565b6200039e8162000359565b840191505092915050565b5f6020820190508181035f830152620003c3818462000369565b905092915050565b5f819050919050565b620003df81620003cb565b82525050565b5f602082019050620003fa5f830184620003d4565b92915050565b5f80fd5b5f80fd5b7f4e487b71000000000000000000000000000000000000000000000000000000005f52604160045260245ffd5b620004408262000359565b810181811067ffffffffffffffff8211171562000462576200046162000408565b5b80604052505050565b5f6200047662000273565b905062000484828262000435565b919050565b5f67ffffffffffffffff821115620004a657620004a562000408565b5b620004b18262000359565b9050602081019050919050565b828183375f83830152505050565b5f620004e2620004dc8462000489565b6200046b565b90508281526020810184848401111562000501576200050062000404565b5b6200050e848285620004be565b509392505050565b5f82601f8301126200052d576200052c62000400565b5b81356200053f848260208601620004cc565b91505092915050565b6200055381620003cb565b81146200055e575f80fd5b50565b5f81359050620005718162000548565b92915050565b5f806040838503121562000590576200058f6200027c565b5b5f83013567ffffffffffffffff811115620005b057620005af62000280565b5b620005be8582860162000516565b9250506020620005d18582860162000561565b9150509250929050565b620005e681620002a3565b82525050565b5f602082019050620006015f830184620005db565b92915050565b5f602082840312156200061f576200061e6200027c565b5b5f6200062e8482850162000561565b91505092915050565b5f81905092915050565b5f6200064d8262000315565b62000659818562000637565b93506200066b8185602086016200032f565b80840191505092915050565b5f62000684828562000641565b915062000692828462000641565b91508190509392505050565b5f7fff0000000000000000000000000000000000000000000000000000000000000082169050919050565b5f819050919050565b620006e7620006e1826200069e565b620006c9565b82525050565b5f8160601b9050919050565b5f6200070582620006ed565b9050919050565b5f6200071882620006f9565b9050919050565b620007346200072e82620002a3565b6200070c565b82525050565b5f819050919050565b620007586200075282620003cb565b6200073a565b82525050565b5f819050919050565b5f819050919050565b620007856200077f826200075e565b62000767565b82525050565b5f620007988287620006d2565b600182019150620007aa82866200071f565b601482019150620007bc828562000743565b602082019150620007ce828462000770565b6020820191508190509594505050505056fe60806040526040516102f83803806102f883398181016040528101906100259190610115565b805f806101000a81548173ffffffffffffffffffffffffffffffffffffffff021916908373ffffffffffffffffffffffffffffffffffffffff1602179055507fb03c53b28e78a88e31607a27e1fa48234dce28d5d9d9ec7b295aeb02e674a1e1306100946100b060201b60201c565b6040516100a2929190610167565b60405180910390a15061018e565b5f47905090565b5f80fd5b5f73ffffffffffffffffffffffffffffffffffffffff82169050919050565b5f6100e4826100bb565b9050919050565b6100f4816100da565b81146100fe575f80fd5b50565b5f8151905061010f816100eb565b92915050565b5f6020828403121561012a576101296100b7565b5b5f61013784828501610101565b91505092915050565b610149816100da565b82525050565b5f819050919050565b6101618161014f565b82525050565b5f60408201905061017a5f830185610140565b6101876020830184610158565b9392505050565b61015d8061019b5f395ff3fe608060405234801561000f575f80fd5b5060043610610034575f3560e01c806312065fe0146100385780638da5cb5b14610056575b5f80fd5b610040610074565b60405161004d91906100b6565b60405180910390f35b61005e61007b565b60405161006b919061010e565b60405180910390f35b5f47905090565b5f8054906101000a900473ffffffffffffffffffffffffffffffffffffffff1681565b5f819050919050565b6100b08161009e565b82525050565b5f6020820190506100c95f8301846100a7565b92915050565b5f73ffffffffffffffffffffffffffffffffffffffff82169050919050565b5f6100f8826100cf565b9050919050565b610108816100ee565b82525050565b5f6020820190506101215f8301846100ff565b9291505056fea26469706673582212203525f6878e40f77b4151bec7bfbfcc64650c84ecbb48879e71ecdb22cb5427ea64736f6c63430008160033a2646970667358221220c6b92849516b9286b5d5a22cc4163db7a9a09fcb343184a6a6d0bf510d487d3664736f6c63430008160033",
			"opcodes": "PUSH1 0x80 PUSH1 0x40 MSTORE CALLVALUE DUP1 ISZERO PUSH2 0xF JUMPI PUSH0 DUP1 REVERT JUMPDEST POP PUSH2 0xB0E DUP1 PUSH2 0x1D PUSH0 CODECOPY PUSH0 RETURN INVALID PUSH1 0x80 PUSH1 0x40 MSTORE PUSH1 0x4 CALLDATASIZE LT PUSH3 0x43 JUMPI PUSH0 CALLDATALOAD PUSH1 0xE0 SHR DUP1 PUSH4 0xC6008AF EQ PUSH3 0x47 JUMPI DUP1 PUSH4 0x41AEC538 EQ PUSH3 0x8A JUMPI DUP1 PUSH4 0x94CA2CB5 EQ PUSH3 0xB9 JUMPI DUP1 PUSH4 0xA5E38751 EQ PUSH3 0xFC JUMPI JUMPDEST PUSH0 DUP1 REVERT JUMPDEST CALLVALUE DUP1 ISZERO PUSH3 0x53 JUMPI PUSH0 DUP1 REVERT JUMPDEST POP PUSH3 0x72 PUSH1 0x4 DUP1 CALLDATASIZE SUB DUP2 ADD SWAP1 PUSH3 0x6C SWAP2 SWAP1 PUSH3 0x2E5 JUMP JUMPDEST PUSH3 0x11C JUMP JUMPDEST PUSH1 0x40 MLOAD PUSH3 0x81 SWAP2 SWAP1 PUSH3 0x3A9 JUMP JUMPDEST PUSH1 0x40 MLOAD DUP1 SWAP2 SUB SWAP1 RETURN JUMPDEST CALLVALUE DUP1 ISZERO PUSH3 0x96 JUMPI PUSH0 DUP1 REVERT JUMPDEST POP PUSH3 0xA1 PUSH3 0x194 JUMP JUMPDEST PUSH1 0x40 MLOAD PUSH3 0xB0 SWAP2 SWAP1 PUSH3 0x3E5 JUMP JUMPDEST PUSH1 0x40 MLOAD DUP1 SWAP2 SUB SWAP1 RETURN JUMPDEST CALLVALUE DUP1 ISZERO PUSH3 0xC5 JUMPI PUSH0 DUP1 REVERT JUMPDEST POP PUSH3 0xE4 PUSH1 0x4 DUP1 CALLDATASIZE SUB DUP2 ADD SWAP1 PUSH3 0xDE SWAP2 SWAP1 PUSH3 0x577 JUMP JUMPDEST PUSH3 0x19B JUMP JUMPDEST PUSH1 0x40 MLOAD PUSH3 0xF3 SWAP2 SWAP1 PUSH3 0x5EC JUMP JUMPDEST PUSH1 0x40 MLOAD DUP1 SWAP2 SUB SWAP1 RETURN JUMPDEST PUSH3 0x11A PUSH1 0x4 DUP1 CALLDATASIZE SUB DUP2 ADD SWAP1 PUSH3 0x114 SWAP2 SWAP1 PUSH3 0x607 JUMP JUMPDEST PUSH3 0x1E5 JUMP JUMPDEST STOP JUMPDEST PUSH1 0x60 PUSH0 PUSH1 0x40 MLOAD DUP1 PUSH1 0x20 ADD PUSH3 0x131 SWAP1 PUSH3 0x265 JUMP JUMPDEST PUSH1 0x20 DUP3 ADD DUP2 SUB DUP3 MSTORE PUSH1 0x1F NOT PUSH1 0x1F DUP3 ADD AND PUSH1 0x40 MSTORE POP SWAP1 POP DUP1 DUP4 PUSH1 0x40 MLOAD PUSH1 0x20 ADD PUSH3 0x15B SWAP2 SWAP1 PUSH3 0x5EC JUMP JUMPDEST PUSH1 0x40 MLOAD PUSH1 0x20 DUP2 DUP4 SUB SUB DUP2 MSTORE SWAP1 PUSH1 0x40 MSTORE PUSH1 0x40 MLOAD PUSH1 0x20 ADD PUSH3 0x17D SWAP3 SWAP2 SWAP1 PUSH3 0x677 JUMP JUMPDEST PUSH1 0x40 MLOAD PUSH1 0x20 DUP2 DUP4 SUB SUB DUP2 MSTORE SWAP1 PUSH1 0x40 MSTORE SWAP2 POP POP SWAP2 SWAP1 POP JUMP JUMPDEST PUSH0 SELFBALANCE SWAP1 POP SWAP1 JUMP JUMPDEST PUSH0 DUP1 PUSH1 0xFF PUSH1 0xF8 SHL ADDRESS DUP5 DUP7 DUP1 MLOAD SWAP1 PUSH1 0x20 ADD KECCAK256 PUSH1 0x40 MLOAD PUSH1 0x20 ADD PUSH3 0x1C1 SWAP5 SWAP4 SWAP3 SWAP2 SWAP1 PUSH3 0x78B JUMP JUMPDEST PUSH1 0x40 MLOAD PUSH1 0x20 DUP2 DUP4 SUB SUB DUP2 MSTORE SWAP1 PUSH1 0x40 MSTORE DUP1 MLOAD SWAP1 PUSH1 0x20 ADD KECCAK256 SWAP1 POP DUP1 PUSH0 SHR SWAP2 POP POP SWAP3 SWAP2 POP POP JUMP JUMPDEST PUSH0 DUP2 PUSH0 SHL CALLVALUE CALLER PUSH1 0x40 MLOAD PUSH3 0x1F9 SWAP1 PUSH3 0x265 JUMP JUMPDEST PUSH3 0x205 SWAP2 SWAP1 PUSH3 0x5EC JUMP JUMPDEST DUP3 SWAP1 PUSH1 0x40 MLOAD DUP1 SWAP2 SUB SWAP1 DUP4 CREATE2 SWAP1 POP SWAP1 POP DUP1 ISZERO DUP1 ISZERO PUSH3 0x225 JUMPI RETURNDATASIZE PUSH0 DUP1 RETURNDATACOPY RETURNDATASIZE PUSH0 REVERT JUMPDEST POP SWAP1 POP PUSH32 0x55EA6C6B31543D8E2EC6A72F71A79C0F4B72ED0D4757172B043D8F4F4CD84848 DUP2 PUSH1 0x40 MLOAD PUSH3 0x259 SWAP2 SWAP1 PUSH3 0x5EC JUMP JUMPDEST PUSH1 0x40 MLOAD DUP1 SWAP2 SUB SWAP1 LOG1 POP POP JUMP JUMPDEST PUSH2 0x2F8 DUP1 PUSH3 0x7E1 DUP4 CODECOPY ADD SWAP1 JUMP JUMPDEST PUSH0 PUSH1 0x40 MLOAD SWAP1 POP SWAP1 JUMP JUMPDEST PUSH0 DUP1 REVERT JUMPDEST PUSH0 DUP1 REVERT JUMPDEST PUSH0 PUSH20 0xFFFFFFFFFFFFFFFFFFFFFFFFFFFFFFFFFFFFFFFF DUP3 AND SWAP1 POP SWAP2 SWAP1 POP JUMP JUMPDEST PUSH0 PUSH3 0x2AF DUP3 PUSH3 0x284 JUMP JUMPDEST SWAP1 POP SWAP2 SWAP1 POP JUMP JUMPDEST PUSH3 0x2C1 DUP2 PUSH3 0x2A3 JUMP JUMPDEST DUP2 EQ PUSH3 0x2CC JUMPI PUSH0 DUP1 REVERT JUMPDEST POP JUMP JUMPDEST PUSH0 DUP2 CALLDATALOAD SWAP1 POP PUSH3 0x2DF DUP2 PUSH3 0x2B6 JUMP JUMPDEST SWAP3 SWAP2 POP POP JUMP JUMPDEST PUSH0 PUSH1 0x20 DUP3 DUP5 SUB SLT ISZERO PUSH3 0x2FD JUMPI PUSH3 0x2FC PUSH3 0x27C JUMP JUMPDEST JUMPDEST PUSH0 PUSH3 0x30C DUP5 DUP3 DUP6 ADD PUSH3 0x2CF JUMP JUMPDEST SWAP2 POP POP SWAP3 SWAP2 POP POP JUMP JUMPDEST PUSH0 DUP2 MLOAD SWAP1 POP SWAP2 SWAP1 POP JUMP JUMPDEST PUSH0 DUP3 DUP3 MSTORE PUSH1 0x20 DUP3 ADD SWAP1 POP SWAP3 SWAP2 POP POP JUMP JUMPDEST PUSH0 JUMPDEST DUP4 DUP2 LT ISZERO PUSH3 0x34E JUMPI DUP1 DUP3 ADD MLOAD DUP2 DUP5 ADD MSTORE PUSH1 0x20 DUP2 ADD SWAP1 POP PUSH3 0x331 JUMP JUMPDEST PUSH0 DUP5 DUP5 ADD MSTORE POP POP POP POP JUMP JUMPDEST PUSH0 PUSH1 0x1F NOT PUSH1 0x1F DUP4 ADD AND SWAP1 POP SWAP2 SWAP1 POP JUMP JUMPDEST PUSH0 PUSH3 0x375 DUP3 PUSH3 0x315 JUMP JUMPDEST PUSH3 0x381 DUP2 DUP6 PUSH3 0x31F JUMP JUMPDEST SWAP4 POP PUSH3 0x393 DUP2 DUP6 PUSH1 0x20 DUP7 ADD PUSH3 0x32F JUMP JUMPDEST PUSH3 0x39E DUP2 PUSH3 0x359 JUMP JUMPDEST DUP5 ADD SWAP2 POP POP SWAP3 SWAP2 POP POP JUMP JUMPDEST PUSH0 PUSH1 0x20 DUP3 ADD SWAP1 POP DUP2 DUP2 SUB PUSH0 DUP4 ADD MSTORE PUSH3 0x3C3 DUP2 DUP5 PUSH3 0x369 JUMP JUMPDEST SWAP1 POP SWAP3 SWAP2 POP POP JUMP JUMPDEST PUSH0 DUP2 SWAP1 POP SWAP2 SWAP1 POP JUMP JUMPDEST PUSH3 0x3DF DUP2 PUSH3 0x3CB JUMP JUMPDEST DUP3 MSTORE POP POP JUMP JUMPDEST PUSH0 PUSH1 0x20 DUP3 ADD SWAP1 POP PUSH3 0x3FA PUSH0 DUP4 ADD DUP5 PUSH3 0x3D4 JUMP JUMPDEST SWAP3 SWAP2 POP POP JUMP JUMPDEST PUSH0 DUP1 REVERT JUMPDEST PUSH0 DUP1 REVERT JUMPDEST PUSH32 0x4E487B7100000000000000000000000000000000000000000000000000000000 PUSH0 MSTORE PUSH1 0x41 PUSH1 0x4 MSTORE PUSH1 0x24 PUSH0 REVERT JUMPDEST PUSH3 0x440 DUP3 PUSH3 0x359 JUMP JUMPDEST DUP2 ADD DUP2 DUP2 LT PUSH8 0xFFFFFFFFFFFFFFFF DUP3 GT OR ISZERO PUSH3 0x462 JUMPI PUSH3 0x461 PUSH3 0x408 JUMP JUMPDEST JUMPDEST DUP1 PUSH1 0x40 MSTORE POP POP POP JUMP JUMPDEST PUSH0 PUSH3 0x476 PUSH3 0x273 JUMP JUMPDEST SWAP1 POP PUSH3 0x484 DUP3 DUP3 PUSH3 0x435 JUMP JUMPDEST SWAP2 SWAP1 POP JUMP JUMPDEST PUSH0 PUSH8 0xFFFFFFFFFFFFFFFF DUP3 GT ISZERO PUSH3 0x4A6 JUMPI PUSH3 0x4A5 PUSH3 0x408 JUMP JUMPDEST JUMPDEST PUSH3 0x4B1 DUP3 PUSH3 0x359 JUMP JUMPDEST SWAP1 POP PUSH1 0x20 DUP2 ADD SWAP1 POP SWAP2 SWAP1 POP JUMP JUMPDEST DUP3 DUP2 DUP4 CALLDATACOPY PUSH0 DUP4 DUP4 ADD MSTORE POP POP POP JUMP JUMPDEST PUSH0 PUSH3 0x4E2 PUSH3 0x4DC DUP5 PUSH3 0x489 JUMP JUMPDEST PUSH3 0x46B JUMP JUMPDEST SWAP1 POP DUP3 DUP2 MSTORE PUSH1 0x20 DUP2 ADD DUP5 DUP5 DUP5 ADD GT ISZERO PUSH3 0x501 JUMPI PUSH3 0x500 PUSH3 0x404 JUMP JUMPDEST JUMPDEST PUSH3 0x50E DUP5 DUP3 DUP6 PUSH3 0x4BE JUMP JUMPDEST POP SWAP4 SWAP3 POP POP POP JUMP JUMPDEST PUSH0 DUP3 PUSH1 0x1F DUP4 ADD SLT PUSH3 0x52D JUMPI PUSH3 0x52C PUSH3 0x400 JUMP JUMPDEST JUMPDEST DUP2 CALLDATALOAD PUSH3 0x53F DUP5 DUP3 PUSH1 0x20 DUP7 ADD PUSH3 0x4CC JUMP JUMPDEST SWAP2 POP POP SWAP3 SWAP2 POP POP JUMP JUMPDEST PUSH3 0x553 DUP2 PUSH3 0x3CB JUMP JUMPDEST DUP2 EQ PUSH3 0x55E JUMPI PUSH0 DUP1 REVERT JUMPDEST POP JUMP JUMPDEST PUSH0 DUP2 CALLDATALOAD SWAP1 POP PUSH3 0x571 DUP2 PUSH3 0x548 JUMP JUMPDEST SWAP3 SWAP2 POP POP JUMP JUMPDEST PUSH0 DUP1 PUSH1 0x40 DUP4 DUP6 SUB SLT ISZERO PUSH3 0x590 JUMPI PUSH3 0x58F PUSH3 0x27C JUMP JUMPDEST JUMPDEST PUSH0 DUP4 ADD CALLDATALOAD PUSH8 0xFFFFFFFFFFFFFFFF DUP2 GT ISZERO PUSH3 0x5B0 JUMPI PUSH3 0x5AF PUSH3 0x280 JUMP JUMPDEST JUMPDEST PUSH3 0x5BE DUP6 DUP3 DUP7 ADD PUSH3 0x516 JUMP JUMPDEST SWAP3 POP POP PUSH1 0x20 PUSH3 0x5D1 DUP6 DUP3 DUP7 ADD PUSH3 0x561 JUMP JUMPDEST SWAP2 POP POP SWAP3 POP SWAP3 SWAP1 POP JUMP JUMPDEST PUSH3 0x5E6 DUP2 PUSH3 0x2A3 JUMP JUMPDEST DUP3 MSTORE POP POP JUMP JUMPDEST PUSH0 PUSH1 0x20 DUP3 ADD SWAP1 POP PUSH3 0x601 PUSH0 DUP4 ADD DUP5 PUSH3 0x5DB JUMP JUMPDEST SWAP3 SWAP2 POP POP JUMP JUMPDEST PUSH0 PUSH1 0x20 DUP3 DUP5 SUB SLT ISZERO PUSH3 0x61F JUMPI PUSH3 0x61E PUSH3 0x27C JUMP JUMPDEST JUMPDEST PUSH0 PUSH3 0x62E DUP5 DUP3 DUP6 ADD PUSH3 0x561 JUMP JUMPDEST SWAP2 POP POP SWAP3 SWAP2 POP POP JUMP JUMPDEST PUSH0 DUP2 SWAP1 POP SWAP3 SWAP2 POP POP JUMP JUMPDEST PUSH0 PUSH3 0x64D DUP3 PUSH3 0x315 JUMP JUMPDEST PUSH3 0x659 DUP2 DUP6 PUSH3 0x637 JUMP JUMPDEST SWAP4 POP PUSH3 0x66B DUP2 DUP6 PUSH1 0x20 DUP7 ADD PUSH3 0x32F JUMP JUMPDEST DUP1 DUP5 ADD SWAP2 POP POP SWAP3 SWAP2 POP POP JUMP JUMPDEST PUSH0 PUSH3 0x684 DUP3 DUP6 PUSH3 0x641 JUMP JUMPDEST SWAP2 POP PUSH3 0x692 DUP3 DUP5 PUSH3 0x641 JUMP JUMPDEST SWAP2 POP DUP2 SWAP1 POP SWAP4 SWAP3 POP POP POP JUMP JUMPDEST PUSH0 PUSH32 0xFF00000000000000000000000000000000000000000000000000000000000000 DUP3 AND SWAP1 POP SWAP2 SWAP1 POP JUMP JUMPDEST PUSH0 DUP2 SWAP1 POP SWAP2 SWAP1 POP JUMP JUMPDEST PUSH3 0x6E7 PUSH3 0x6E1 DUP3 PUSH3 0x69E JUMP JUMPDEST PUSH3 0x6C9 JUMP JUMPDEST DUP3 MSTORE POP POP JUMP JUMPDEST PUSH0 DUP2 PUSH1 0x60 SHL SWAP1 POP SWAP2 SWAP1 POP JUMP JUMPDEST PUSH0 PUSH3 0x705 DUP3 PUSH3 0x6ED JUMP JUMPDEST SWAP1 POP SWAP2 SWAP1 POP JUMP JUMPDEST PUSH0 PUSH3 0x718 DUP3 PUSH3 0x6F9 JUMP JUMPDEST SWAP1 POP SWAP2 SWAP1 POP JUMP JUMPDEST PUSH3 0x734 PUSH3 0x72E DUP3 PUSH3 0x2A3 JUMP JUMPDEST PUSH3 0x70C JUMP JUMPDEST DUP3 MSTORE POP POP JUMP JUMPDEST PUSH0 DUP2 SWAP1 POP SWAP2 SWAP1 POP JUMP JUMPDEST PUSH3 0x758 PUSH3 0x752 DUP3 PUSH3 0x3CB JUMP JUMPDEST PUSH3 0x73A JUMP JUMPDEST DUP3 MSTORE POP POP JUMP JUMPDEST PUSH0 DUP2 SWAP1 POP SWAP2 SWAP1 POP JUMP JUMPDEST PUSH0 DUP2 SWAP1 POP SWAP2 SWAP1 POP JUMP JUMPDEST PUSH3 0x785 PUSH3 0x77F DUP3 PUSH3 0x75E JUMP JUMPDEST PUSH3 0x767 JUMP JUMPDEST DUP3 MSTORE POP POP JUMP JUMPDEST PUSH0 PUSH3 0x798 DUP3 DUP8 PUSH3 0x6D2 JUMP JUMPDEST PUSH1 0x1 DUP3 ADD SWAP2 POP PUSH3 0x7AA DUP3 DUP7 PUSH3 0x71F JUMP JUMPDEST PUSH1 0x14 DUP3 ADD SWAP2 POP PUSH3 0x7BC DUP3 DUP6 PUSH3 0x743 JUMP JUMPDEST PUSH1 0x20 DUP3 ADD SWAP2 POP PUSH3 0x7CE DUP3 DUP5 PUSH3 0x770 JUMP JUMPDEST PUSH1 0x20 DUP3 ADD SWAP2 POP DUP2 SWAP1 POP SWAP6 SWAP5 POP POP POP POP POP JUMP INVALID PUSH1 0x80 PUSH1 0x40 MSTORE PUSH1 0x40 MLOAD PUSH2 0x2F8 CODESIZE SUB DUP1 PUSH2 0x2F8 DUP4 CODECOPY DUP2 DUP2 ADD PUSH1 0x40 MSTORE DUP2 ADD SWAP1 PUSH2 0x25 SWAP2 SWAP1 PUSH2 0x115 JUMP JUMPDEST DUP1 PUSH0 DUP1 PUSH2 0x100 EXP DUP2 SLOAD DUP2 PUSH20 0xFFFFFFFFFFFFFFFFFFFFFFFFFFFFFFFFFFFFFFFF MUL NOT AND SWAP1 DUP4 PUSH20 0xFFFFFFFFFFFFFFFFFFFFFFFFFFFFFFFFFFFFFFFF AND MUL OR SWAP1 SSTORE POP PUSH32 0xB03C53B28E78A88E31607A27E1FA48234DCE28D5D9D9EC7B295AEB02E674A1E1 ADDRESS PUSH2 0x94 PUSH2 0xB0 PUSH1 0x20 SHL PUSH1 0x20 SHR JUMP JUMPDEST PUSH1 0x40 MLOAD PUSH2 0xA2 SWAP3 SWAP2 SWAP1 PUSH2 0x167 JUMP JUMPDEST PUSH1 0x40 MLOAD DUP1 SWAP2 SUB SWAP1 LOG1 POP PUSH2 0x18E JUMP JUMPDEST PUSH0 SELFBALANCE SWAP1 POP SWAP1 JUMP JUMPDEST PUSH0 DUP1 REVERT JUMPDEST PUSH0 PUSH20 0xFFFFFFFFFFFFFFFFFFFFFFFFFFFFFFFFFFFFFFFF DUP3 AND SWAP1 POP SWAP2 SWAP1 POP JUMP JUMPDEST PUSH0 PUSH2 0xE4 DUP3 PUSH2 0xBB JUMP JUMPDEST SWAP1 POP SWAP2 SWAP1 POP JUMP JUMPDEST PUSH2 0xF4 DUP2 PUSH2 0xDA JUMP JUMPDEST DUP2 EQ PUSH2 0xFE JUMPI PUSH0 DUP1 REVERT JUMPDEST POP JUMP JUMPDEST PUSH0 DUP2 MLOAD SWAP1 POP PUSH2 0x10F DUP2 PUSH2 0xEB JUMP JUMPDEST SWAP3 SWAP2 POP POP JUMP JUMPDEST PUSH0 PUSH1 0x20 DUP3 DUP5 SUB SLT ISZERO PUSH2 0x12A JUMPI PUSH2 0x129 PUSH2 0xB7 JUMP JUMPDEST JUMPDEST PUSH0 PUSH2 0x137 DUP5 DUP3 DUP6 ADD PUSH2 0x101 JUMP JUMPDEST SWAP2 POP POP SWAP3 SWAP2 POP POP JUMP JUMPDEST PUSH2 0x149 DUP2 PUSH2 0xDA JUMP JUMPDEST DUP3 MSTORE POP POP JUMP JUMPDEST PUSH0 DUP2 SWAP1 POP SWAP2 SWAP1 POP JUMP JUMPDEST PUSH2 0x161 DUP2 PUSH2 0x14F JUMP JUMPDEST DUP3 MSTORE POP POP JUMP JUMPDEST PUSH0 PUSH1 0x40 DUP3 ADD SWAP1 POP PUSH2 0x17A PUSH0 DUP4 ADD DUP6 PUSH2 0x140 JUMP JUMPDEST PUSH2 0x187 PUSH1 0x20 DUP4 ADD DUP5 PUSH2 0x158 JUMP JUMPDEST SWAP4 SWAP3 POP POP POP JUMP JUMPDEST PUSH2 0x15D DUP1 PUSH2 0x19B PUSH0 CODECOPY PUSH0 RETURN INVALID PUSH1 0x80 PUSH1 0x40 MSTORE CALLVALUE DUP1 ISZERO PUSH2 0xF JUMPI PUSH0 DUP1 REVERT JUMPDEST POP PUSH1 0x4 CALLDATASIZE LT PUSH2 0x34 JUMPI PUSH0 CALLDATALOAD PUSH1 0xE0 SHR DUP1 PUSH4 0x12065FE0 EQ PUSH2 0x38 JUMPI DUP1 PUSH4 0x8DA5CB5B EQ PUSH2 0x56 JUMPI JUMPDEST PUSH0 DUP1 REVERT JUMPDEST PUSH2 0x40 PUSH2 0x74 JUMP JUMPDEST PUSH1 0x40 MLOAD PUSH2 0x4D SWAP2 SWAP1 PUSH2 0xB6 JUMP JUMPDEST PUSH1 0x40 MLOAD DUP1 SWAP2 SUB SWAP1 RETURN JUMPDEST PUSH2 0x5E PUSH2 0x7B JUMP JUMPDEST PUSH1 0x40 MLOAD PUSH2 0x6B SWAP2 SWAP1 PUSH2 0x10E JUMP JUMPDEST PUSH1 0x40 MLOAD DUP1 SWAP2 SUB SWAP1 RETURN JUMPDEST PUSH0 SELFBALANCE SWAP1 POP SWAP1 JUMP JUMPDEST PUSH0 DUP1 SLOAD SWAP1 PUSH2 0x100 EXP SWAP1 DIV PUSH20 0xFFFFFFFFFFFFFFFFFFFFFFFFFFFFFFFFFFFFFFFF AND DUP2 JUMP JUMPDEST PUSH0 DUP2 SWAP1 POP SWAP2 SWAP1 POP JUMP JUMPDEST PUSH2 0xB0 DUP2 PUSH2 0x9E JUMP JUMPDEST DUP3 MSTORE POP POP JUMP JUMPDEST PUSH0 PUSH1 0x20 DUP3 ADD SWAP1 POP PUSH2 0xC9 PUSH0 DUP4 ADD DUP5 PUSH2 0xA7 JUMP JUMPDEST SWAP3 SWAP2 POP POP JUMP JUMPDEST PUSH0 PUSH20 0xFFFFFFFFFFFFFFFFFFFFFFFFFFFFFFFFFFFFFFFF DUP3 AND SWAP1 POP SWAP2 SWAP1 POP JUMP JUMPDEST PUSH0 PUSH2 0xF8 DUP3 PUSH2 0xCF JUMP JUMPDEST SWAP1 POP SWAP2 SWAP1 POP JUMP JUMPDEST PUSH2 0x108 DUP2 PUSH2 0xEE JUMP JUMPDEST DUP3 MSTORE POP POP JUMP JUMPDEST PUSH0 PUSH1 0x20 DUP3 ADD SWAP1 POP PUSH2 0x121 PUSH0 DUP4 ADD DUP5 PUSH2 0xFF JUMP JUMPDEST SWAP3 SWAP2 POP POP JUMP INVALID LOG2 PUSH5 0x6970667358 0x22 SLT KECCAK256 CALLDATALOAD 0x25 0xF6 DUP8 DUP15 BLOCKHASH 0xF7 PUSH28 0x4151BEC7BFBFCC64650C84ECBB48879E71ECDB22CB5427EA64736F6C PUSH4 0x43000816 STOP CALLER LOG2 PUSH5 0x6970667358 0x22 SLT KECCAK256 0xC6 0xB9 0x28 0x49 MLOAD PUSH12 0x9286B5D5A22CC4163DB7A9A0 SWAP16 0xCB CALLVALUE BALANCE DUP5 0xA6 0xA6 0xD0 0xBF MLOAD 0xD BASEFEE PUSH30 0x3664736F6C63430008160033000000000000000000000000000000000000 "
		},
		"gasEstimates": {
			"creation": {
				"codeDepositCost": "566000",
				"executionCost": "598",
				"totalCost": "566598"
			},
			"external": {
				"deploy(uint256)": "infinite",
				"getAddress(bytes,uint256)": "infinite",
				"getBalance1()": "334",
				"getBytecode(address)": "infinite"
			}
		},
		"methodIdentifiers": {
			"deploy(uint256)": "a5e38751",
			"getAddress(bytes,uint256)": "94ca2cb5",
			"getBalance1()": "41aec538",
			"getBytecode(address)": "0c6008af"
		}
	},
	"abi": [
		{
			"anonymous": false,
			"inputs": [
				{
					"indexed": false,
					"internalType": "address",
					"name": "_newContract",
					"type": "address"
				}
			],
			"name": "Deploy",
			"type": "event"
		},
		{
			"inputs": [
				{
					"internalType": "uint256",
					"name": "_salt",
					"type": "uint256"
				}
			],
			"name": "deploy",
			"outputs": [],
			"stateMutability": "payable",
			"type": "function"
		},
		{
			"inputs": [
				{
					"internalType": "bytes",
					"name": "bytecode",
					"type": "bytes"
				},
				{
					"internalType": "uint256",
					"name": "_salt",
					"type": "uint256"
				}
			],
			"name": "getAddress",
			"outputs": [
				{
					"internalType": "address",
					"name": "",
					"type": "address"
				}
			],
			"stateMutability": "view",
			"type": "function"
		},
		{
			"inputs": [],
			"name": "getBalance1",
			"outputs": [
				{
					"internalType": "uint256",
					"name": "",
					"type": "uint256"
				}
			],
			"stateMutability": "view",
			"type": "function"
		},
		{
			"inputs": [
				{
					"internalType": "address",
					"name": "_owner",
					"type": "address"
				}
			],
			"name": "getBytecode",
			"outputs": [
				{
					"internalType": "bytes",
					"name": "",
					"type": "bytes"
				}
			],
			"stateMutability": "pure",
			"type": "function"
		}
	]
}