{
	"data": {
		"bytecode": {
			"linkReferences": {},
			"object": "6080604052671bc16d674ec800006001556002805f6101000a81548160ff021916908360ff160217905550670de0b6b3a7640000600455348015610041575f80fd5b50335f806101000a81548173ffffffffffffffffffffffffffffffffffffffff021916908373ffffffffffffffffffffffffffffffffffffffff16021790555060015f60146101000a81548160ff021916908315150217905550611df0806100a85f395ff3fe6080604052600436106100c1575f3560e01c8063753afc6a1161007e57806383197ef01161005857806383197ef01461023857806398ed94bc1461024e578063ad7a672f1461026a578063eae7cddc14610294576100c1565b8063753afc6a146101b35780637f109dd3146101cf578063826dfcb914610210576100c1565b806312065fe0146100c557806324600fc3146100ef5780632cb594a0146100f95780634b162f691461012357806368b64d1f1461014d578063753899e914610189575b5f80fd5b3480156100d0575f80fd5b506100d96102bc565b6040516100e69190611100565b60405180910390f35b6100f7610318565b005b348015610104575f80fd5b5061010d61044c565b60405161011a9190611134565b60405180910390f35b34801561012e575f80fd5b5061013761045e565b6040516101449190611100565b60405180910390f35b348015610158575f80fd5b50610173600480360381019061016e919061129a565b610464565b6040516101809190611320565b60405180910390f35b348015610194575f80fd5b5061019d610501565b6040516101aa9190611353565b60405180910390f35b6101cd60048036038101906101c89190611396565b610513565b005b3480156101da575f80fd5b506101f560048036038101906101f0919061129a565b610949565b6040516102079695949392919061146a565b60405180910390f35b34801561021b575f80fd5b50610236600480360381019061023191906114fa565b610a4a565b005b348015610243575f80fd5b5061024c610b36565b005b61026860048036038101906102639190611396565b610c2e565b005b348015610275575f80fd5b5061027e610fe3565b60405161028b9190611100565b60405180910390f35b34801561029f575f80fd5b506102ba60048036038101906102b59190611525565b610fe9565b005b5f600115155f60149054906101000a900460ff16151514610312576040517f08c379a00000000000000000000000000000000000000000000000000000000081526004016103099061159a565b60405180910390fd5b47905090565b5f8054906101000a900473ffffffffffffffffffffffffffffffffffffffff1673ffffffffffffffffffffffffffffffffffffffff163373ffffffffffffffffffffffffffffffffffffffff16146103a5576040517f08c379a000000000000000000000000000000000000000000000000000000000815260040161039c90611602565b60405180910390fd5b600115155f60149054906101000a900460ff161515146103fa576040517f08c379a00000000000000000000000000000000000000000000000000000000081526004016103f19061159a565b60405180910390fd5b5f3390508073ffffffffffffffffffffffffffffffffffffffff166108fc4790811502906040515f60405180830381858888f19350505050158015610441573d5f803e3d5ffd5b505f60058190555050565b60025f9054906101000a900460ff1681565b60015481565b5f600115155f60149054906101000a900460ff161515146104ba576040517f08c379a00000000000000000000000000000000000000000000000000000000081526004016104b19061159a565b60405180910390fd5b6003826040516104ca919061165a565b90815260200160405180910390205f015f9054906101000a900473ffffffffffffffffffffffffffffffffffffffff169050919050565b5f60149054906101000a900460ff1681565b600115155f60149054906101000a900460ff16151514610568576040517f08c379a000000000000000000000000000000000000000000000000000000000815260040161055f9061159a565b60405180910390fd5b5f73ffffffffffffffffffffffffffffffffffffffff1660038360405161058f919061165a565b90815260200160405180910390205f015f9054906101000a900473ffffffffffffffffffffffffffffffffffffffff1673ffffffffffffffffffffffffffffffffffffffff1614610615576040517f08c379a000000000000000000000000000000000000000000000000000000000815260040161060c906116ba565b60405180910390fd5b6301e1338060038360405161062a919061165a565b90815260200160405180910390206004015f9054906101000a900460ff1660ff166106559190611714565b63ffffffff1660038360405161066b919061165a565b9081526020016040518091039020600101546106879190611750565b42116106c8576040517f08c379a00000000000000000000000000000000000000000000000000000000081526004016106bf906117f3565b60405180910390fd5b6001548160ff166106d99190611811565b6004546106e69190611750565b341015610728576040517f08c379a000000000000000000000000000000000000000000000000000000000815260040161071f906118e8565b60405180910390fd5b60018160ff16101580156107405750600a8160ff1611155b61077f576040517f08c379a000000000000000000000000000000000000000000000000000000000815260040161077690611950565b60405180910390fd5b6040518060c001604052803373ffffffffffffffffffffffffffffffffffffffff1681526020014281526020013481526020018381526020018260ff1681526020016001548360ff166107d29190611811565b6004546107df9190611750565b346107ea919061196e565b8152506003836040516107fd919061165a565b90815260200160405180910390205f820151815f015f6101000a81548173ffffffffffffffffffffffffffffffffffffffff021916908373ffffffffffffffffffffffffffffffffffffffff160217905550602082015181600101556040820151816002015560608201518160030190816108789190611b9b565b506080820151816004015f6101000a81548160ff021916908360ff16021790555060a082015181600501559050506001548160ff166108b79190611811565b6004546108c49190611750565b60055f8282546108d49190611750565b925050819055505f3390508073ffffffffffffffffffffffffffffffffffffffff166108fc600385604051610909919061165a565b90815260200160405180910390206005015490811502906040515f60405180830381858888f19350505050158015610943573d5f803e3d5ffd5b50505050565b6003818051602081018201805184825260208301602085012081835280955050505050505f91509050805f015f9054906101000a900473ffffffffffffffffffffffffffffffffffffffff16908060010154908060020154908060030180546109b1906119ce565b80601f01602080910402602001604051908101604052809291908181526020018280546109dd906119ce565b8015610a285780601f106109ff57610100808354040283529160200191610a28565b820191905f5260205f20905b815481529060010190602001808311610a0b57829003601f168201915b505050505090806004015f9054906101000a900460ff16908060050154905086565b600115155f60149054906101000a900460ff16151514610a9f576040517f08c379a0000000000000000000000000000000000000000000000000000000008152600401610a969061159a565b60405180910390fd5b5f8054906101000a900473ffffffffffffffffffffffffffffffffffffffff1673ffffffffffffffffffffffffffffffffffffffff163373ffffffffffffffffffffffffffffffffffffffff1614610b2c576040517f08c379a0000000000000000000000000000000000000000000000000000000008152600401610b2390611602565b60405180910390fd5b8060018190555050565b5f8054906101000a900473ffffffffffffffffffffffffffffffffffffffff1673ffffffffffffffffffffffffffffffffffffffff163373ffffffffffffffffffffffffffffffffffffffff1614610bc3576040517f08c379a0000000000000000000000000000000000000000000000000000000008152600401610bba90611602565b60405180910390fd5b5f3390508073ffffffffffffffffffffffffffffffffffffffff166108fc4790811502906040515f60405180830381858888f19350505050158015610c0a573d5f803e3d5ffd5b505f6005819055505f8060146101000a81548160ff02191690831515021790555050565b600115155f60149054906101000a900460ff16151514610c83576040517f08c379a0000000000000000000000000000000000000000000000000000000008152600401610c7a9061159a565b60405180910390fd5b3373ffffffffffffffffffffffffffffffffffffffff16600383604051610caa919061165a565b90815260200160405180910390205f015f9054906101000a900473ffffffffffffffffffffffffffffffffffffffff1673ffffffffffffffffffffffffffffffffffffffff1614610d30576040517f08c379a0000000000000000000000000000000000000000000000000000000008152600401610d2790611cda565b60405180910390fd5b60025f9054906101000a900460ff1660ff16600454610d4f9190611811565b6001548260ff16610d609190611811565b610d6a9190611750565b341015610dac576040517f08c379a0000000000000000000000000000000000000000000000000000000008152600401610da390611d68565b60405180910390fd5b60018160ff1610158015610dc45750600a8160ff1611155b610e03576040517f08c379a0000000000000000000000000000000000000000000000000000000008152600401610dfa90611950565b60405180910390fd5b80600383604051610e14919061165a565b90815260200160405180910390206004015f8282829054906101000a900460ff16610e3f9190611d86565b92506101000a81548160ff021916908360ff16021790555060025f9054906101000a900460ff1660ff16600454610e769190611811565b6001548260ff16610e879190611811565b610e919190611750565b34610e9c919061196e565b600383604051610eac919061165a565b90815260200160405180910390206005018190555060025f9054906101000a900460ff1660ff16600454610ee09190611811565b6001548260ff16610ef19190611811565b610efb9190611750565b600383604051610f0b919061165a565b90815260200160405180910390206002015f828254610f2a9190611750565b92505081905550600382604051610f41919061165a565b90815260200160405180910390206005015434610f5e919061196e565b60055f828254610f6e9190611750565b925050819055505f3390508073ffffffffffffffffffffffffffffffffffffffff166108fc600385604051610fa3919061165a565b90815260200160405180910390206005015490811502906040515f60405180830381858888f19350505050158015610fdd573d5f803e3d5ffd5b50505050565b60055481565b600115155f60149054906101000a900460ff1615151461103e576040517f08c379a00000000000000000000000000000000000000000000000000000000081526004016110359061159a565b60405180910390fd5b5f8054906101000a900473ffffffffffffffffffffffffffffffffffffffff1673ffffffffffffffffffffffffffffffffffffffff163373ffffffffffffffffffffffffffffffffffffffff16146110cb576040517f08c379a00000000000000000000000000000000000000000000000000000000081526004016110c290611602565b60405180910390fd5b8060025f6101000a81548160ff021916908360ff16021790555050565b5f819050919050565b6110fa816110e8565b82525050565b5f6020820190506111135f8301846110f1565b92915050565b5f60ff82169050919050565b61112e81611119565b82525050565b5f6020820190506111475f830184611125565b92915050565b5f604051905090565b5f80fd5b5f80fd5b5f80fd5b5f80fd5b5f601f19601f8301169050919050565b7f4e487b71000000000000000000000000000000000000000000000000000000005f52604160045260245ffd5b6111ac82611166565b810181811067ffffffffffffffff821117156111cb576111ca611176565b5b80604052505050565b5f6111dd61114d565b90506111e982826111a3565b919050565b5f67ffffffffffffffff82111561120857611207611176565b5b61121182611166565b9050602081019050919050565b828183375f83830152505050565b5f61123e611239846111ee565b6111d4565b90508281526020810184848401111561125a57611259611162565b5b61126584828561121e565b509392505050565b5f82601f8301126112815761128061115e565b5b813561129184826020860161122c565b91505092915050565b5f602082840312156112af576112ae611156565b5b5f82013567ffffffffffffffff8111156112cc576112cb61115a565b5b6112d88482850161126d565b91505092915050565b5f73ffffffffffffffffffffffffffffffffffffffff82169050919050565b5f61130a826112e1565b9050919050565b61131a81611300565b82525050565b5f6020820190506113335f830184611311565b92915050565b5f8115159050919050565b61134d81611339565b82525050565b5f6020820190506113665f830184611344565b92915050565b61137581611119565b811461137f575f80fd5b50565b5f813590506113908161136c565b92915050565b5f80604083850312156113ac576113ab611156565b5b5f83013567ffffffffffffffff8111156113c9576113c861115a565b5b6113d58582860161126d565b92505060206113e685828601611382565b9150509250929050565b5f81519050919050565b5f82825260208201905092915050565b5f5b8381101561142757808201518184015260208101905061140c565b5f8484015250505050565b5f61143c826113f0565b61144681856113fa565b935061145681856020860161140a565b61145f81611166565b840191505092915050565b5f60c08201905061147d5f830189611311565b61148a60208301886110f1565b61149760408301876110f1565b81810360608301526114a98186611432565b90506114b86080830185611125565b6114c560a08301846110f1565b979650505050505050565b6114d9816110e8565b81146114e3575f80fd5b50565b5f813590506114f4816114d0565b92915050565b5f6020828403121561150f5761150e611156565b5b5f61151c848285016114e6565b91505092915050565b5f6020828403121561153a57611539611156565b5b5f61154784828501611382565b91505092915050565b7f5468617420636f6e7472616374696f6e202d20444541442121210000000000005f82015250565b5f611584601a836113fa565b915061158f82611550565b602082019050919050565b5f6020820190508181035f8301526115b181611578565b9050919050565b7f596f7520617265206e6f742061206d61737465720000000000000000000000005f82015250565b5f6115ec6014836113fa565b91506115f7826115b8565b602082019050919050565b5f6020820190508181035f830152611619816115e0565b9050919050565b5f81905092915050565b5f611634826113f0565b61163e8185611620565b935061164e81856020860161140a565b80840191505092915050565b5f611665828461162a565b915081905092915050565b7f446f6d61696e20697320616c72656164792072656769737465726564000000005f82015250565b5f6116a4601c836113fa565b91506116af82611670565b602082019050919050565b5f6020820190508181035f8301526116d181611698565b9050919050565b5f63ffffffff82169050919050565b7f4e487b71000000000000000000000000000000000000000000000000000000005f52601160045260245ffd5b5f61171e826116d8565b9150611729836116d8565b9250828202611737816116d8565b9150808214611749576117486116e7565b5b5092915050565b5f61175a826110e8565b9150611765836110e8565b925082820190508082111561177d5761177c6116e7565b5b92915050565b7f446f6d61696e20726567697374726174696f6e20686173206e6f7420657870695f8201527f7265640000000000000000000000000000000000000000000000000000000000602082015250565b5f6117dd6023836113fa565b91506117e882611783565b604082019050919050565b5f6020820190508181035f83015261180a816117d1565b9050919050565b5f61181b826110e8565b9150611826836110e8565b9250828202611834816110e8565b9150828204841483151761184b5761184a6116e7565b5b5092915050565b7f496e73756666696369656e742066756e64732e20436f7374203d2066656520665f8201527f6f7220726567697374726174696f6e202b202872656e7420636f7374202a207960208201527f6561727329200000000000000000000000000000000000000000000000000000604082015250565b5f6118d26046836113fa565b91506118dd82611852565b606082019050919050565b5f6020820190508181035f8301526118ff816118c6565b9050919050565b7f496e76616c6964207465726d206f662072656e740000000000000000000000005f82015250565b5f61193a6014836113fa565b915061194582611906565b602082019050919050565b5f6020820190508181035f8301526119678161192e565b9050919050565b5f611978826110e8565b9150611983836110e8565b925082820390508181111561199b5761199a6116e7565b5b92915050565b7f4e487b71000000000000000000000000000000000000000000000000000000005f52602260045260245ffd5b5f60028204905060018216806119e557607f821691505b6020821081036119f8576119f76119a1565b5b50919050565b5f819050815f5260205f209050919050565b5f6020601f8301049050919050565b5f82821b905092915050565b5f60088302611a5a7fffffffffffffffffffffffffffffffffffffffffffffffffffffffffffffffff82611a1f565b611a648683611a1f565b95508019841693508086168417925050509392505050565b5f819050919050565b5f611a9f611a9a611a95846110e8565b611a7c565b6110e8565b9050919050565b5f819050919050565b611ab883611a85565b611acc611ac482611aa6565b848454611a2b565b825550505050565b5f90565b611ae0611ad4565b611aeb818484611aaf565b505050565b5b81811015611b0e57611b035f82611ad8565b600181019050611af1565b5050565b601f821115611b5357611b24816119fe565b611b2d84611a10565b81016020851015611b3c578190505b611b50611b4885611a10565b830182611af0565b50505b505050565b5f82821c905092915050565b5f611b735f1984600802611b58565b1980831691505092915050565b5f611b8b8383611b64565b9150826002028217905092915050565b611ba4826113f0565b67ffffffffffffffff811115611bbd57611bbc611176565b5b611bc782546119ce565b611bd2828285611b12565b5f60209050601f831160018114611c03575f8415611bf1578287015190505b611bfb8582611b80565b865550611c62565b601f198416611c11866119fe565b5f5b82811015611c3857848901518255600182019150602085019450602081019050611c13565b86831015611c555784890151611c51601f891682611b64565b8355505b6001600288020188555050505b505050505050565b7f446f6d61696e20646f6573206e6f742062656c6f6e6720746f207468652073655f8201527f6e64657200000000000000000000000000000000000000000000000000000000602082015250565b5f611cc46024836113fa565b9150611ccf82611c6a565b604082019050919050565b5f6020820190508181035f830152611cf181611cb8565b9050919050565b7f496e73756666696369656e742066756e64732e20436f7374203d2072656e74205f8201527f636f7374202a207965617273202b20666565202a20636f656666696369656e74602082015250565b5f611d526040836113fa565b9150611d5d82611cf8565b604082019050919050565b5f6020820190508181035f830152611d7f81611d46565b9050919050565b5f611d9082611119565b9150611d9b83611119565b9250828201905060ff811115611db457611db36116e7565b5b9291505056fea2646970667358221220587abc6677455127efd7ef8b6e428f80b253b61182136acb6cc50cc91b1cde4c64736f6c63430008160033",
			"opcodes": "PUSH1 0x80 PUSH1 0x40 MSTORE PUSH8 0x1BC16D674EC80000 PUSH1 0x1 SSTORE PUSH1 0x2 DUP1 PUSH0 PUSH2 0x100 EXP DUP2 SLOAD DUP2 PUSH1 0xFF MUL NOT AND SWAP1 DUP4 PUSH1 0xFF AND MUL OR SWAP1 SSTORE POP PUSH8 0xDE0B6B3A7640000 PUSH1 0x4 SSTORE CALLVALUE DUP1 ISZERO PUSH2 0x41 JUMPI PUSH0 DUP1 REVERT JUMPDEST POP CALLER PUSH0 DUP1 PUSH2 0x100 EXP DUP2 SLOAD DUP2 PUSH20 0xFFFFFFFFFFFFFFFFFFFFFFFFFFFFFFFFFFFFFFFF MUL NOT AND SWAP1 DUP4 PUSH20 0xFFFFFFFFFFFFFFFFFFFFFFFFFFFFFFFFFFFFFFFF AND MUL OR SWAP1 SSTORE POP PUSH1 0x1 PUSH0 PUSH1 0x14 PUSH2 0x100 EXP DUP2 SLOAD DUP2 PUSH1 0xFF MUL NOT AND SWAP1 DUP4 ISZERO ISZERO MUL OR SWAP1 SSTORE POP PUSH2 0x1DF0 DUP1 PUSH2 0xA8 PUSH0 CODECOPY PUSH0 RETURN INVALID PUSH1 0x80 PUSH1 0x40 MSTORE PUSH1 0x4 CALLDATASIZE LT PUSH2 0xC1 JUMPI PUSH0 CALLDATALOAD PUSH1 0xE0 SHR DUP1 PUSH4 0x753AFC6A GT PUSH2 0x7E JUMPI DUP1 PUSH4 0x83197EF0 GT PUSH2 0x58 JUMPI DUP1 PUSH4 0x83197EF0 EQ PUSH2 0x238 JUMPI DUP1 PUSH4 0x98ED94BC EQ PUSH2 0x24E JUMPI DUP1 PUSH4 0xAD7A672F EQ PUSH2 0x26A JUMPI DUP1 PUSH4 0xEAE7CDDC EQ PUSH2 0x294 JUMPI PUSH2 0xC1 JUMP JUMPDEST DUP1 PUSH4 0x753AFC6A EQ PUSH2 0x1B3 JUMPI DUP1 PUSH4 0x7F109DD3 EQ PUSH2 0x1CF JUMPI DUP1 PUSH4 0x826DFCB9 EQ PUSH2 0x210 JUMPI PUSH2 0xC1 JUMP JUMPDEST DUP1 PUSH4 0x12065FE0 EQ PUSH2 0xC5 JUMPI DUP1 PUSH4 0x24600FC3 EQ PUSH2 0xEF JUMPI DUP1 PUSH4 0x2CB594A0 EQ PUSH2 0xF9 JUMPI DUP1 PUSH4 0x4B162F69 EQ PUSH2 0x123 JUMPI DUP1 PUSH4 0x68B64D1F EQ PUSH2 0x14D JUMPI DUP1 PUSH4 0x753899E9 EQ PUSH2 0x189 JUMPI JUMPDEST PUSH0 DUP1 REVERT JUMPDEST CALLVALUE DUP1 ISZERO PUSH2 0xD0 JUMPI PUSH0 DUP1 REVERT JUMPDEST POP PUSH2 0xD9 PUSH2 0x2BC JUMP JUMPDEST PUSH1 0x40 MLOAD PUSH2 0xE6 SWAP2 SWAP1 PUSH2 0x1100 JUMP JUMPDEST PUSH1 0x40 MLOAD DUP1 SWAP2 SUB SWAP1 RETURN JUMPDEST PUSH2 0xF7 PUSH2 0x318 JUMP JUMPDEST STOP JUMPDEST CALLVALUE DUP1 ISZERO PUSH2 0x104 JUMPI PUSH0 DUP1 REVERT JUMPDEST POP PUSH2 0x10D PUSH2 0x44C JUMP JUMPDEST PUSH1 0x40 MLOAD PUSH2 0x11A SWAP2 SWAP1 PUSH2 0x1134 JUMP JUMPDEST PUSH1 0x40 MLOAD DUP1 SWAP2 SUB SWAP1 RETURN JUMPDEST CALLVALUE DUP1 ISZERO PUSH2 0x12E JUMPI PUSH0 DUP1 REVERT JUMPDEST POP PUSH2 0x137 PUSH2 0x45E JUMP JUMPDEST PUSH1 0x40 MLOAD PUSH2 0x144 SWAP2 SWAP1 PUSH2 0x1100 JUMP JUMPDEST PUSH1 0x40 MLOAD DUP1 SWAP2 SUB SWAP1 RETURN JUMPDEST CALLVALUE DUP1 ISZERO PUSH2 0x158 JUMPI PUSH0 DUP1 REVERT JUMPDEST POP PUSH2 0x173 PUSH1 0x4 DUP1 CALLDATASIZE SUB DUP2 ADD SWAP1 PUSH2 0x16E SWAP2 SWAP1 PUSH2 0x129A JUMP JUMPDEST PUSH2 0x464 JUMP JUMPDEST PUSH1 0x40 MLOAD PUSH2 0x180 SWAP2 SWAP1 PUSH2 0x1320 JUMP JUMPDEST PUSH1 0x40 MLOAD DUP1 SWAP2 SUB SWAP1 RETURN JUMPDEST CALLVALUE DUP1 ISZERO PUSH2 0x194 JUMPI PUSH0 DUP1 REVERT JUMPDEST POP PUSH2 0x19D PUSH2 0x501 JUMP JUMPDEST PUSH1 0x40 MLOAD PUSH2 0x1AA SWAP2 SWAP1 PUSH2 0x1353 JUMP JUMPDEST PUSH1 0x40 MLOAD DUP1 SWAP2 SUB SWAP1 RETURN JUMPDEST PUSH2 0x1CD PUSH1 0x4 DUP1 CALLDATASIZE SUB DUP2 ADD SWAP1 PUSH2 0x1C8 SWAP2 SWAP1 PUSH2 0x1396 JUMP JUMPDEST PUSH2 0x513 JUMP JUMPDEST STOP JUMPDEST CALLVALUE DUP1 ISZERO PUSH2 0x1DA JUMPI PUSH0 DUP1 REVERT JUMPDEST POP PUSH2 0x1F5 PUSH1 0x4 DUP1 CALLDATASIZE SUB DUP2 ADD SWAP1 PUSH2 0x1F0 SWAP2 SWAP1 PUSH2 0x129A JUMP JUMPDEST PUSH2 0x949 JUMP JUMPDEST PUSH1 0x40 MLOAD PUSH2 0x207 SWAP7 SWAP6 SWAP5 SWAP4 SWAP3 SWAP2 SWAP1 PUSH2 0x146A JUMP JUMPDEST PUSH1 0x40 MLOAD DUP1 SWAP2 SUB SWAP1 RETURN JUMPDEST CALLVALUE DUP1 ISZERO PUSH2 0x21B JUMPI PUSH0 DUP1 REVERT JUMPDEST POP PUSH2 0x236 PUSH1 0x4 DUP1 CALLDATASIZE SUB DUP2 ADD SWAP1 PUSH2 0x231 SWAP2 SWAP1 PUSH2 0x14FA JUMP JUMPDEST PUSH2 0xA4A JUMP JUMPDEST STOP JUMPDEST CALLVALUE DUP1 ISZERO PUSH2 0x243 JUMPI PUSH0 DUP1 REVERT JUMPDEST POP PUSH2 0x24C PUSH2 0xB36 JUMP JUMPDEST STOP JUMPDEST PUSH2 0x268 PUSH1 0x4 DUP1 CALLDATASIZE SUB DUP2 ADD SWAP1 PUSH2 0x263 SWAP2 SWAP1 PUSH2 0x1396 JUMP JUMPDEST PUSH2 0xC2E JUMP JUMPDEST STOP JUMPDEST CALLVALUE DUP1 ISZERO PUSH2 0x275 JUMPI PUSH0 DUP1 REVERT JUMPDEST POP PUSH2 0x27E PUSH2 0xFE3 JUMP JUMPDEST PUSH1 0x40 MLOAD PUSH2 0x28B SWAP2 SWAP1 PUSH2 0x1100 JUMP JUMPDEST PUSH1 0x40 MLOAD DUP1 SWAP2 SUB SWAP1 RETURN JUMPDEST CALLVALUE DUP1 ISZERO PUSH2 0x29F JUMPI PUSH0 DUP1 REVERT JUMPDEST POP PUSH2 0x2BA PUSH1 0x4 DUP1 CALLDATASIZE SUB DUP2 ADD SWAP1 PUSH2 0x2B5 SWAP2 SWAP1 PUSH2 0x1525 JUMP JUMPDEST PUSH2 0xFE9 JUMP JUMPDEST STOP JUMPDEST PUSH0 PUSH1 0x1 ISZERO ISZERO PUSH0 PUSH1 0x14 SWAP1 SLOAD SWAP1 PUSH2 0x100 EXP SWAP1 DIV PUSH1 0xFF AND ISZERO ISZERO EQ PUSH2 0x312 JUMPI PUSH1 0x40 MLOAD PUSH32 0x8C379A000000000000000000000000000000000000000000000000000000000 DUP2 MSTORE PUSH1 0x4 ADD PUSH2 0x309 SWAP1 PUSH2 0x159A JUMP JUMPDEST PUSH1 0x40 MLOAD DUP1 SWAP2 SUB SWAP1 REVERT JUMPDEST SELFBALANCE SWAP1 POP SWAP1 JUMP JUMPDEST PUSH0 DUP1 SLOAD SWAP1 PUSH2 0x100 EXP SWAP1 DIV PUSH20 0xFFFFFFFFFFFFFFFFFFFFFFFFFFFFFFFFFFFFFFFF AND PUSH20 0xFFFFFFFFFFFFFFFFFFFFFFFFFFFFFFFFFFFFFFFF AND CALLER PUSH20 0xFFFFFFFFFFFFFFFFFFFFFFFFFFFFFFFFFFFFFFFF AND EQ PUSH2 0x3A5 JUMPI PUSH1 0x40 MLOAD PUSH32 0x8C379A000000000000000000000000000000000000000000000000000000000 DUP2 MSTORE PUSH1 0x4 ADD PUSH2 0x39C SWAP1 PUSH2 0x1602 JUMP JUMPDEST PUSH1 0x40 MLOAD DUP1 SWAP2 SUB SWAP1 REVERT JUMPDEST PUSH1 0x1 ISZERO ISZERO PUSH0 PUSH1 0x14 SWAP1 SLOAD SWAP1 PUSH2 0x100 EXP SWAP1 DIV PUSH1 0xFF AND ISZERO ISZERO EQ PUSH2 0x3FA JUMPI PUSH1 0x40 MLOAD PUSH32 0x8C379A000000000000000000000000000000000000000000000000000000000 DUP2 MSTORE PUSH1 0x4 ADD PUSH2 0x3F1 SWAP1 PUSH2 0x159A JUMP JUMPDEST PUSH1 0x40 MLOAD DUP1 SWAP2 SUB SWAP1 REVERT JUMPDEST PUSH0 CALLER SWAP1 POP DUP1 PUSH20 0xFFFFFFFFFFFFFFFFFFFFFFFFFFFFFFFFFFFFFFFF AND PUSH2 0x8FC SELFBALANCE SWAP1 DUP2 ISZERO MUL SWAP1 PUSH1 0x40 MLOAD PUSH0 PUSH1 0x40 MLOAD DUP1 DUP4 SUB DUP2 DUP6 DUP9 DUP9 CALL SWAP4 POP POP POP POP ISZERO DUP1 ISZERO PUSH2 0x441 JUMPI RETURNDATASIZE PUSH0 DUP1 RETURNDATACOPY RETURNDATASIZE PUSH0 REVERT JUMPDEST POP PUSH0 PUSH1 0x5 DUP2 SWAP1 SSTORE POP POP JUMP JUMPDEST PUSH1 0x2 PUSH0 SWAP1 SLOAD SWAP1 PUSH2 0x100 EXP SWAP1 DIV PUSH1 0xFF AND DUP2 JUMP JUMPDEST PUSH1 0x1 SLOAD DUP2 JUMP JUMPDEST PUSH0 PUSH1 0x1 ISZERO ISZERO PUSH0 PUSH1 0x14 SWAP1 SLOAD SWAP1 PUSH2 0x100 EXP SWAP1 DIV PUSH1 0xFF AND ISZERO ISZERO EQ PUSH2 0x4BA JUMPI PUSH1 0x40 MLOAD PUSH32 0x8C379A000000000000000000000000000000000000000000000000000000000 DUP2 MSTORE PUSH1 0x4 ADD PUSH2 0x4B1 SWAP1 PUSH2 0x159A JUMP JUMPDEST PUSH1 0x40 MLOAD DUP1 SWAP2 SUB SWAP1 REVERT JUMPDEST PUSH1 0x3 DUP3 PUSH1 0x40 MLOAD PUSH2 0x4CA SWAP2 SWAP1 PUSH2 0x165A JUMP JUMPDEST SWAP1 DUP2 MSTORE PUSH1 0x20 ADD PUSH1 0x40 MLOAD DUP1 SWAP2 SUB SWAP1 KECCAK256 PUSH0 ADD PUSH0 SWAP1 SLOAD SWAP1 PUSH2 0x100 EXP SWAP1 DIV PUSH20 0xFFFFFFFFFFFFFFFFFFFFFFFFFFFFFFFFFFFFFFFF AND SWAP1 POP SWAP2 SWAP1 POP JUMP JUMPDEST PUSH0 PUSH1 0x14 SWAP1 SLOAD SWAP1 PUSH2 0x100 EXP SWAP1 DIV PUSH1 0xFF AND DUP2 JUMP JUMPDEST PUSH1 0x1 ISZERO ISZERO PUSH0 PUSH1 0x14 SWAP1 SLOAD SWAP1 PUSH2 0x100 EXP SWAP1 DIV PUSH1 0xFF AND ISZERO ISZERO EQ PUSH2 0x568 JUMPI PUSH1 0x40 MLOAD PUSH32 0x8C379A000000000000000000000000000000000000000000000000000000000 DUP2 MSTORE PUSH1 0x4 ADD PUSH2 0x55F SWAP1 PUSH2 0x159A JUMP JUMPDEST PUSH1 0x40 MLOAD DUP1 SWAP2 SUB SWAP1 REVERT JUMPDEST PUSH0 PUSH20 0xFFFFFFFFFFFFFFFFFFFFFFFFFFFFFFFFFFFFFFFF AND PUSH1 0x3 DUP4 PUSH1 0x40 MLOAD PUSH2 0x58F SWAP2 SWAP1 PUSH2 0x165A JUMP JUMPDEST SWAP1 DUP2 MSTORE PUSH1 0x20 ADD PUSH1 0x40 MLOAD DUP1 SWAP2 SUB SWAP1 KECCAK256 PUSH0 ADD PUSH0 SWAP1 SLOAD SWAP1 PUSH2 0x100 EXP SWAP1 DIV PUSH20 0xFFFFFFFFFFFFFFFFFFFFFFFFFFFFFFFFFFFFFFFF AND PUSH20 0xFFFFFFFFFFFFFFFFFFFFFFFFFFFFFFFFFFFFFFFF AND EQ PUSH2 0x615 JUMPI PUSH1 0x40 MLOAD PUSH32 0x8C379A000000000000000000000000000000000000000000000000000000000 DUP2 MSTORE PUSH1 0x4 ADD PUSH2 0x60C SWAP1 PUSH2 0x16BA JUMP JUMPDEST PUSH1 0x40 MLOAD DUP1 SWAP2 SUB SWAP1 REVERT JUMPDEST PUSH4 0x1E13380 PUSH1 0x3 DUP4 PUSH1 0x40 MLOAD PUSH2 0x62A SWAP2 SWAP1 PUSH2 0x165A JUMP JUMPDEST SWAP1 DUP2 MSTORE PUSH1 0x20 ADD PUSH1 0x40 MLOAD DUP1 SWAP2 SUB SWAP1 KECCAK256 PUSH1 0x4 ADD PUSH0 SWAP1 SLOAD SWAP1 PUSH2 0x100 EXP SWAP1 DIV PUSH1 0xFF AND PUSH1 0xFF AND PUSH2 0x655 SWAP2 SWAP1 PUSH2 0x1714 JUMP JUMPDEST PUSH4 0xFFFFFFFF AND PUSH1 0x3 DUP4 PUSH1 0x40 MLOAD PUSH2 0x66B SWAP2 SWAP1 PUSH2 0x165A JUMP JUMPDEST SWAP1 DUP2 MSTORE PUSH1 0x20 ADD PUSH1 0x40 MLOAD DUP1 SWAP2 SUB SWAP1 KECCAK256 PUSH1 0x1 ADD SLOAD PUSH2 0x687 SWAP2 SWAP1 PUSH2 0x1750 JUMP JUMPDEST TIMESTAMP GT PUSH2 0x6C8 JUMPI PUSH1 0x40 MLOAD PUSH32 0x8C379A000000000000000000000000000000000000000000000000000000000 DUP2 MSTORE PUSH1 0x4 ADD PUSH2 0x6BF SWAP1 PUSH2 0x17F3 JUMP JUMPDEST PUSH1 0x40 MLOAD DUP1 SWAP2 SUB SWAP1 REVERT JUMPDEST PUSH1 0x1 SLOAD DUP2 PUSH1 0xFF AND PUSH2 0x6D9 SWAP2 SWAP1 PUSH2 0x1811 JUMP JUMPDEST PUSH1 0x4 SLOAD PUSH2 0x6E6 SWAP2 SWAP1 PUSH2 0x1750 JUMP JUMPDEST CALLVALUE LT ISZERO PUSH2 0x728 JUMPI PUSH1 0x40 MLOAD PUSH32 0x8C379A000000000000000000000000000000000000000000000000000000000 DUP2 MSTORE PUSH1 0x4 ADD PUSH2 0x71F SWAP1 PUSH2 0x18E8 JUMP JUMPDEST PUSH1 0x40 MLOAD DUP1 SWAP2 SUB SWAP1 REVERT JUMPDEST PUSH1 0x1 DUP2 PUSH1 0xFF AND LT ISZERO DUP1 ISZERO PUSH2 0x740 JUMPI POP PUSH1 0xA DUP2 PUSH1 0xFF AND GT ISZERO JUMPDEST PUSH2 0x77F JUMPI PUSH1 0x40 MLOAD PUSH32 0x8C379A000000000000000000000000000000000000000000000000000000000 DUP2 MSTORE PUSH1 0x4 ADD PUSH2 0x776 SWAP1 PUSH2 0x1950 JUMP JUMPDEST PUSH1 0x40 MLOAD DUP1 SWAP2 SUB SWAP1 REVERT JUMPDEST PUSH1 0x40 MLOAD DUP1 PUSH1 0xC0 ADD PUSH1 0x40 MSTORE DUP1 CALLER PUSH20 0xFFFFFFFFFFFFFFFFFFFFFFFFFFFFFFFFFFFFFFFF AND DUP2 MSTORE PUSH1 0x20 ADD TIMESTAMP DUP2 MSTORE PUSH1 0x20 ADD CALLVALUE DUP2 MSTORE PUSH1 0x20 ADD DUP4 DUP2 MSTORE PUSH1 0x20 ADD DUP3 PUSH1 0xFF AND DUP2 MSTORE PUSH1 0x20 ADD PUSH1 0x1 SLOAD DUP4 PUSH1 0xFF AND PUSH2 0x7D2 SWAP2 SWAP1 PUSH2 0x1811 JUMP JUMPDEST PUSH1 0x4 SLOAD PUSH2 0x7DF SWAP2 SWAP1 PUSH2 0x1750 JUMP JUMPDEST CALLVALUE PUSH2 0x7EA SWAP2 SWAP1 PUSH2 0x196E JUMP JUMPDEST DUP2 MSTORE POP PUSH1 0x3 DUP4 PUSH1 0x40 MLOAD PUSH2 0x7FD SWAP2 SWAP1 PUSH2 0x165A JUMP JUMPDEST SWAP1 DUP2 MSTORE PUSH1 0x20 ADD PUSH1 0x40 MLOAD DUP1 SWAP2 SUB SWAP1 KECCAK256 PUSH0 DUP3 ADD MLOAD DUP2 PUSH0 ADD PUSH0 PUSH2 0x100 EXP DUP2 SLOAD DUP2 PUSH20 0xFFFFFFFFFFFFFFFFFFFFFFFFFFFFFFFFFFFFFFFF MUL NOT AND SWAP1 DUP4 PUSH20 0xFFFFFFFFFFFFFFFFFFFFFFFFFFFFFFFFFFFFFFFF AND MUL OR SWAP1 SSTORE POP PUSH1 0x20 DUP3 ADD MLOAD DUP2 PUSH1 0x1 ADD SSTORE PUSH1 0x40 DUP3 ADD MLOAD DUP2 PUSH1 0x2 ADD SSTORE PUSH1 0x60 DUP3 ADD MLOAD DUP2 PUSH1 0x3 ADD SWAP1 DUP2 PUSH2 0x878 SWAP2 SWAP1 PUSH2 0x1B9B JUMP JUMPDEST POP PUSH1 0x80 DUP3 ADD MLOAD DUP2 PUSH1 0x4 ADD PUSH0 PUSH2 0x100 EXP DUP2 SLOAD DUP2 PUSH1 0xFF MUL NOT AND SWAP1 DUP4 PUSH1 0xFF AND MUL OR SWAP1 SSTORE POP PUSH1 0xA0 DUP3 ADD MLOAD DUP2 PUSH1 0x5 ADD SSTORE SWAP1 POP POP PUSH1 0x1 SLOAD DUP2 PUSH1 0xFF AND PUSH2 0x8B7 SWAP2 SWAP1 PUSH2 0x1811 JUMP JUMPDEST PUSH1 0x4 SLOAD PUSH2 0x8C4 SWAP2 SWAP1 PUSH2 0x1750 JUMP JUMPDEST PUSH1 0x5 PUSH0 DUP3 DUP3 SLOAD PUSH2 0x8D4 SWAP2 SWAP1 PUSH2 0x1750 JUMP JUMPDEST SWAP3 POP POP DUP2 SWAP1 SSTORE POP PUSH0 CALLER SWAP1 POP DUP1 PUSH20 0xFFFFFFFFFFFFFFFFFFFFFFFFFFFFFFFFFFFFFFFF AND PUSH2 0x8FC PUSH1 0x3 DUP6 PUSH1 0x40 MLOAD PUSH2 0x909 SWAP2 SWAP1 PUSH2 0x165A JUMP JUMPDEST SWAP1 DUP2 MSTORE PUSH1 0x20 ADD PUSH1 0x40 MLOAD DUP1 SWAP2 SUB SWAP1 KECCAK256 PUSH1 0x5 ADD SLOAD SWAP1 DUP2 ISZERO MUL SWAP1 PUSH1 0x40 MLOAD PUSH0 PUSH1 0x40 MLOAD DUP1 DUP4 SUB DUP2 DUP6 DUP9 DUP9 CALL SWAP4 POP POP POP POP ISZERO DUP1 ISZERO PUSH2 0x943 JUMPI RETURNDATASIZE PUSH0 DUP1 RETURNDATACOPY RETURNDATASIZE PUSH0 REVERT JUMPDEST POP POP POP POP JUMP JUMPDEST PUSH1 0x3 DUP2 DUP1 MLOAD PUSH1 0x20 DUP2 ADD DUP3 ADD DUP1 MLOAD DUP5 DUP3 MSTORE PUSH1 0x20 DUP4 ADD PUSH1 0x20 DUP6 ADD KECCAK256 DUP2 DUP4 MSTORE DUP1 SWAP6 POP POP POP POP POP POP PUSH0 SWAP2 POP SWAP1 POP DUP1 PUSH0 ADD PUSH0 SWAP1 SLOAD SWAP1 PUSH2 0x100 EXP SWAP1 DIV PUSH20 0xFFFFFFFFFFFFFFFFFFFFFFFFFFFFFFFFFFFFFFFF AND SWAP1 DUP1 PUSH1 0x1 ADD SLOAD SWAP1 DUP1 PUSH1 0x2 ADD SLOAD SWAP1 DUP1 PUSH1 0x3 ADD DUP1 SLOAD PUSH2 0x9B1 SWAP1 PUSH2 0x19CE JUMP JUMPDEST DUP1 PUSH1 0x1F ADD PUSH1 0x20 DUP1 SWAP2 DIV MUL PUSH1 0x20 ADD PUSH1 0x40 MLOAD SWAP1 DUP2 ADD PUSH1 0x40 MSTORE DUP1 SWAP3 SWAP2 SWAP1 DUP2 DUP2 MSTORE PUSH1 0x20 ADD DUP3 DUP1 SLOAD PUSH2 0x9DD SWAP1 PUSH2 0x19CE JUMP JUMPDEST DUP1 ISZERO PUSH2 0xA28 JUMPI DUP1 PUSH1 0x1F LT PUSH2 0x9FF JUMPI PUSH2 0x100 DUP1 DUP4 SLOAD DIV MUL DUP4 MSTORE SWAP2 PUSH1 0x20 ADD SWAP2 PUSH2 0xA28 JUMP JUMPDEST DUP3 ADD SWAP2 SWAP1 PUSH0 MSTORE PUSH1 0x20 PUSH0 KECCAK256 SWAP1 JUMPDEST DUP2 SLOAD DUP2 MSTORE SWAP1 PUSH1 0x1 ADD SWAP1 PUSH1 0x20 ADD DUP1 DUP4 GT PUSH2 0xA0B JUMPI DUP3 SWAP1 SUB PUSH1 0x1F AND DUP3 ADD SWAP2 JUMPDEST POP POP POP POP POP SWAP1 DUP1 PUSH1 0x4 ADD PUSH0 SWAP1 SLOAD SWAP1 PUSH2 0x100 EXP SWAP1 DIV PUSH1 0xFF AND SWAP1 DUP1 PUSH1 0x5 ADD SLOAD SWAP1 POP DUP7 JUMP JUMPDEST PUSH1 0x1 ISZERO ISZERO PUSH0 PUSH1 0x14 SWAP1 SLOAD SWAP1 PUSH2 0x100 EXP SWAP1 DIV PUSH1 0xFF AND ISZERO ISZERO EQ PUSH2 0xA9F JUMPI PUSH1 0x40 MLOAD PUSH32 0x8C379A000000000000000000000000000000000000000000000000000000000 DUP2 MSTORE PUSH1 0x4 ADD PUSH2 0xA96 SWAP1 PUSH2 0x159A JUMP JUMPDEST PUSH1 0x40 MLOAD DUP1 SWAP2 SUB SWAP1 REVERT JUMPDEST PUSH0 DUP1 SLOAD SWAP1 PUSH2 0x100 EXP SWAP1 DIV PUSH20 0xFFFFFFFFFFFFFFFFFFFFFFFFFFFFFFFFFFFFFFFF AND PUSH20 0xFFFFFFFFFFFFFFFFFFFFFFFFFFFFFFFFFFFFFFFF AND CALLER PUSH20 0xFFFFFFFFFFFFFFFFFFFFFFFFFFFFFFFFFFFFFFFF AND EQ PUSH2 0xB2C JUMPI PUSH1 0x40 MLOAD PUSH32 0x8C379A000000000000000000000000000000000000000000000000000000000 DUP2 MSTORE PUSH1 0x4 ADD PUSH2 0xB23 SWAP1 PUSH2 0x1602 JUMP JUMPDEST PUSH1 0x40 MLOAD DUP1 SWAP2 SUB SWAP1 REVERT JUMPDEST DUP1 PUSH1 0x1 DUP2 SWAP1 SSTORE POP POP JUMP JUMPDEST PUSH0 DUP1 SLOAD SWAP1 PUSH2 0x100 EXP SWAP1 DIV PUSH20 0xFFFFFFFFFFFFFFFFFFFFFFFFFFFFFFFFFFFFFFFF AND PUSH20 0xFFFFFFFFFFFFFFFFFFFFFFFFFFFFFFFFFFFFFFFF AND CALLER PUSH20 0xFFFFFFFFFFFFFFFFFFFFFFFFFFFFFFFFFFFFFFFF AND EQ PUSH2 0xBC3 JUMPI PUSH1 0x40 MLOAD PUSH32 0x8C379A000000000000000000000000000000000000000000000000000000000 DUP2 MSTORE PUSH1 0x4 ADD PUSH2 0xBBA SWAP1 PUSH2 0x1602 JUMP JUMPDEST PUSH1 0x40 MLOAD DUP1 SWAP2 SUB SWAP1 REVERT JUMPDEST PUSH0 CALLER SWAP1 POP DUP1 PUSH20 0xFFFFFFFFFFFFFFFFFFFFFFFFFFFFFFFFFFFFFFFF AND PUSH2 0x8FC SELFBALANCE SWAP1 DUP2 ISZERO MUL SWAP1 PUSH1 0x40 MLOAD PUSH0 PUSH1 0x40 MLOAD DUP1 DUP4 SUB DUP2 DUP6 DUP9 DUP9 CALL SWAP4 POP POP POP POP ISZERO DUP1 ISZERO PUSH2 0xC0A JUMPI RETURNDATASIZE PUSH0 DUP1 RETURNDATACOPY RETURNDATASIZE PUSH0 REVERT JUMPDEST POP PUSH0 PUSH1 0x5 DUP2 SWAP1 SSTORE POP PUSH0 DUP1 PUSH1 0x14 PUSH2 0x100 EXP DUP2 SLOAD DUP2 PUSH1 0xFF MUL NOT AND SWAP1 DUP4 ISZERO ISZERO MUL OR SWAP1 SSTORE POP POP JUMP JUMPDEST PUSH1 0x1 ISZERO ISZERO PUSH0 PUSH1 0x14 SWAP1 SLOAD SWAP1 PUSH2 0x100 EXP SWAP1 DIV PUSH1 0xFF AND ISZERO ISZERO EQ PUSH2 0xC83 JUMPI PUSH1 0x40 MLOAD PUSH32 0x8C379A000000000000000000000000000000000000000000000000000000000 DUP2 MSTORE PUSH1 0x4 ADD PUSH2 0xC7A SWAP1 PUSH2 0x159A JUMP JUMPDEST PUSH1 0x40 MLOAD DUP1 SWAP2 SUB SWAP1 REVERT JUMPDEST CALLER PUSH20 0xFFFFFFFFFFFFFFFFFFFFFFFFFFFFFFFFFFFFFFFF AND PUSH1 0x3 DUP4 PUSH1 0x40 MLOAD PUSH2 0xCAA SWAP2 SWAP1 PUSH2 0x165A JUMP JUMPDEST SWAP1 DUP2 MSTORE PUSH1 0x20 ADD PUSH1 0x40 MLOAD DUP1 SWAP2 SUB SWAP1 KECCAK256 PUSH0 ADD PUSH0 SWAP1 SLOAD SWAP1 PUSH2 0x100 EXP SWAP1 DIV PUSH20 0xFFFFFFFFFFFFFFFFFFFFFFFFFFFFFFFFFFFFFFFF AND PUSH20 0xFFFFFFFFFFFFFFFFFFFFFFFFFFFFFFFFFFFFFFFF AND EQ PUSH2 0xD30 JUMPI PUSH1 0x40 MLOAD PUSH32 0x8C379A000000000000000000000000000000000000000000000000000000000 DUP2 MSTORE PUSH1 0x4 ADD PUSH2 0xD27 SWAP1 PUSH2 0x1CDA JUMP JUMPDEST PUSH1 0x40 MLOAD DUP1 SWAP2 SUB SWAP1 REVERT JUMPDEST PUSH1 0x2 PUSH0 SWAP1 SLOAD SWAP1 PUSH2 0x100 EXP SWAP1 DIV PUSH1 0xFF AND PUSH1 0xFF AND PUSH1 0x4 SLOAD PUSH2 0xD4F SWAP2 SWAP1 PUSH2 0x1811 JUMP JUMPDEST PUSH1 0x1 SLOAD DUP3 PUSH1 0xFF AND PUSH2 0xD60 SWAP2 SWAP1 PUSH2 0x1811 JUMP JUMPDEST PUSH2 0xD6A SWAP2 SWAP1 PUSH2 0x1750 JUMP JUMPDEST CALLVALUE LT ISZERO PUSH2 0xDAC JUMPI PUSH1 0x40 MLOAD PUSH32 0x8C379A000000000000000000000000000000000000000000000000000000000 DUP2 MSTORE PUSH1 0x4 ADD PUSH2 0xDA3 SWAP1 PUSH2 0x1D68 JUMP JUMPDEST PUSH1 0x40 MLOAD DUP1 SWAP2 SUB SWAP1 REVERT JUMPDEST PUSH1 0x1 DUP2 PUSH1 0xFF AND LT ISZERO DUP1 ISZERO PUSH2 0xDC4 JUMPI POP PUSH1 0xA DUP2 PUSH1 0xFF AND GT ISZERO JUMPDEST PUSH2 0xE03 JUMPI PUSH1 0x40 MLOAD PUSH32 0x8C379A000000000000000000000000000000000000000000000000000000000 DUP2 MSTORE PUSH1 0x4 ADD PUSH2 0xDFA SWAP1 PUSH2 0x1950 JUMP JUMPDEST PUSH1 0x40 MLOAD DUP1 SWAP2 SUB SWAP1 REVERT JUMPDEST DUP1 PUSH1 0x3 DUP4 PUSH1 0x40 MLOAD PUSH2 0xE14 SWAP2 SWAP1 PUSH2 0x165A JUMP JUMPDEST SWAP1 DUP2 MSTORE PUSH1 0x20 ADD PUSH1 0x40 MLOAD DUP1 SWAP2 SUB SWAP1 KECCAK256 PUSH1 0x4 ADD PUSH0 DUP3 DUP3 DUP3 SWAP1 SLOAD SWAP1 PUSH2 0x100 EXP SWAP1 DIV PUSH1 0xFF AND PUSH2 0xE3F SWAP2 SWAP1 PUSH2 0x1D86 JUMP JUMPDEST SWAP3 POP PUSH2 0x100 EXP DUP2 SLOAD DUP2 PUSH1 0xFF MUL NOT AND SWAP1 DUP4 PUSH1 0xFF AND MUL OR SWAP1 SSTORE POP PUSH1 0x2 PUSH0 SWAP1 SLOAD SWAP1 PUSH2 0x100 EXP SWAP1 DIV PUSH1 0xFF AND PUSH1 0xFF AND PUSH1 0x4 SLOAD PUSH2 0xE76 SWAP2 SWAP1 PUSH2 0x1811 JUMP JUMPDEST PUSH1 0x1 SLOAD DUP3 PUSH1 0xFF AND PUSH2 0xE87 SWAP2 SWAP1 PUSH2 0x1811 JUMP JUMPDEST PUSH2 0xE91 SWAP2 SWAP1 PUSH2 0x1750 JUMP JUMPDEST CALLVALUE PUSH2 0xE9C SWAP2 SWAP1 PUSH2 0x196E JUMP JUMPDEST PUSH1 0x3 DUP4 PUSH1 0x40 MLOAD PUSH2 0xEAC SWAP2 SWAP1 PUSH2 0x165A JUMP JUMPDEST SWAP1 DUP2 MSTORE PUSH1 0x20 ADD PUSH1 0x40 MLOAD DUP1 SWAP2 SUB SWAP1 KECCAK256 PUSH1 0x5 ADD DUP2 SWAP1 SSTORE POP PUSH1 0x2 PUSH0 SWAP1 SLOAD SWAP1 PUSH2 0x100 EXP SWAP1 DIV PUSH1 0xFF AND PUSH1 0xFF AND PUSH1 0x4 SLOAD PUSH2 0xEE0 SWAP2 SWAP1 PUSH2 0x1811 JUMP JUMPDEST PUSH1 0x1 SLOAD DUP3 PUSH1 0xFF AND PUSH2 0xEF1 SWAP2 SWAP1 PUSH2 0x1811 JUMP JUMPDEST PUSH2 0xEFB SWAP2 SWAP1 PUSH2 0x1750 JUMP JUMPDEST PUSH1 0x3 DUP4 PUSH1 0x40 MLOAD PUSH2 0xF0B SWAP2 SWAP1 PUSH2 0x165A JUMP JUMPDEST SWAP1 DUP2 MSTORE PUSH1 0x20 ADD PUSH1 0x40 MLOAD DUP1 SWAP2 SUB SWAP1 KECCAK256 PUSH1 0x2 ADD PUSH0 DUP3 DUP3 SLOAD PUSH2 0xF2A SWAP2 SWAP1 PUSH2 0x1750 JUMP JUMPDEST SWAP3 POP POP DUP2 SWAP1 SSTORE POP PUSH1 0x3 DUP3 PUSH1 0x40 MLOAD PUSH2 0xF41 SWAP2 SWAP1 PUSH2 0x165A JUMP JUMPDEST SWAP1 DUP2 MSTORE PUSH1 0x20 ADD PUSH1 0x40 MLOAD DUP1 SWAP2 SUB SWAP1 KECCAK256 PUSH1 0x5 ADD SLOAD CALLVALUE PUSH2 0xF5E SWAP2 SWAP1 PUSH2 0x196E JUMP JUMPDEST PUSH1 0x5 PUSH0 DUP3 DUP3 SLOAD PUSH2 0xF6E SWAP2 SWAP1 PUSH2 0x1750 JUMP JUMPDEST SWAP3 POP POP DUP2 SWAP1 SSTORE POP PUSH0 CALLER SWAP1 POP DUP1 PUSH20 0xFFFFFFFFFFFFFFFFFFFFFFFFFFFFFFFFFFFFFFFF AND PUSH2 0x8FC PUSH1 0x3 DUP6 PUSH1 0x40 MLOAD PUSH2 0xFA3 SWAP2 SWAP1 PUSH2 0x165A JUMP JUMPDEST SWAP1 DUP2 MSTORE PUSH1 0x20 ADD PUSH1 0x40 MLOAD DUP1 SWAP2 SUB SWAP1 KECCAK256 PUSH1 0x5 ADD SLOAD SWAP1 DUP2 ISZERO MUL SWAP1 PUSH1 0x40 MLOAD PUSH0 PUSH1 0x40 MLOAD DUP1 DUP4 SUB DUP2 DUP6 DUP9 DUP9 CALL SWAP4 POP POP POP POP ISZERO DUP1 ISZERO PUSH2 0xFDD JUMPI RETURNDATASIZE PUSH0 DUP1 RETURNDATACOPY RETURNDATASIZE PUSH0 REVERT JUMPDEST POP POP POP POP JUMP JUMPDEST PUSH1 0x5 SLOAD DUP2 JUMP JUMPDEST PUSH1 0x1 ISZERO ISZERO PUSH0 PUSH1 0x14 SWAP1 SLOAD SWAP1 PUSH2 0x100 EXP SWAP1 DIV PUSH1 0xFF AND ISZERO ISZERO EQ PUSH2 0x103E JUMPI PUSH1 0x40 MLOAD PUSH32 0x8C379A000000000000000000000000000000000000000000000000000000000 DUP2 MSTORE PUSH1 0x4 ADD PUSH2 0x1035 SWAP1 PUSH2 0x159A JUMP JUMPDEST PUSH1 0x40 MLOAD DUP1 SWAP2 SUB SWAP1 REVERT JUMPDEST PUSH0 DUP1 SLOAD SWAP1 PUSH2 0x100 EXP SWAP1 DIV PUSH20 0xFFFFFFFFFFFFFFFFFFFFFFFFFFFFFFFFFFFFFFFF AND PUSH20 0xFFFFFFFFFFFFFFFFFFFFFFFFFFFFFFFFFFFFFFFF AND CALLER PUSH20 0xFFFFFFFFFFFFFFFFFFFFFFFFFFFFFFFFFFFFFFFF AND EQ PUSH2 0x10CB JUMPI PUSH1 0x40 MLOAD PUSH32 0x8C379A000000000000000000000000000000000000000000000000000000000 DUP2 MSTORE PUSH1 0x4 ADD PUSH2 0x10C2 SWAP1 PUSH2 0x1602 JUMP JUMPDEST PUSH1 0x40 MLOAD DUP1 SWAP2 SUB SWAP1 REVERT JUMPDEST DUP1 PUSH1 0x2 PUSH0 PUSH2 0x100 EXP DUP2 SLOAD DUP2 PUSH1 0xFF MUL NOT AND SWAP1 DUP4 PUSH1 0xFF AND MUL OR SWAP1 SSTORE POP POP JUMP JUMPDEST PUSH0 DUP2 SWAP1 POP SWAP2 SWAP1 POP JUMP JUMPDEST PUSH2 0x10FA DUP2 PUSH2 0x10E8 JUMP JUMPDEST DUP3 MSTORE POP POP JUMP JUMPDEST PUSH0 PUSH1 0x20 DUP3 ADD SWAP1 POP PUSH2 0x1113 PUSH0 DUP4 ADD DUP5 PUSH2 0x10F1 JUMP JUMPDEST SWAP3 SWAP2 POP POP JUMP JUMPDEST PUSH0 PUSH1 0xFF DUP3 AND SWAP1 POP SWAP2 SWAP1 POP JUMP JUMPDEST PUSH2 0x112E DUP2 PUSH2 0x1119 JUMP JUMPDEST DUP3 MSTORE POP POP JUMP JUMPDEST PUSH0 PUSH1 0x20 DUP3 ADD SWAP1 POP PUSH2 0x1147 PUSH0 DUP4 ADD DUP5 PUSH2 0x1125 JUMP JUMPDEST SWAP3 SWAP2 POP POP JUMP JUMPDEST PUSH0 PUSH1 0x40 MLOAD SWAP1 POP SWAP1 JUMP JUMPDEST PUSH0 DUP1 REVERT JUMPDEST PUSH0 DUP1 REVERT JUMPDEST PUSH0 DUP1 REVERT JUMPDEST PUSH0 DUP1 REVERT JUMPDEST PUSH0 PUSH1 0x1F NOT PUSH1 0x1F DUP4 ADD AND SWAP1 POP SWAP2 SWAP1 POP JUMP JUMPDEST PUSH32 0x4E487B7100000000000000000000000000000000000000000000000000000000 PUSH0 MSTORE PUSH1 0x41 PUSH1 0x4 MSTORE PUSH1 0x24 PUSH0 REVERT JUMPDEST PUSH2 0x11AC DUP3 PUSH2 0x1166 JUMP JUMPDEST DUP2 ADD DUP2 DUP2 LT PUSH8 0xFFFFFFFFFFFFFFFF DUP3 GT OR ISZERO PUSH2 0x11CB JUMPI PUSH2 0x11CA PUSH2 0x1176 JUMP JUMPDEST JUMPDEST DUP1 PUSH1 0x40 MSTORE POP POP POP JUMP JUMPDEST PUSH0 PUSH2 0x11DD PUSH2 0x114D JUMP JUMPDEST SWAP1 POP PUSH2 0x11E9 DUP3 DUP3 PUSH2 0x11A3 JUMP JUMPDEST SWAP2 SWAP1 POP JUMP JUMPDEST PUSH0 PUSH8 0xFFFFFFFFFFFFFFFF DUP3 GT ISZERO PUSH2 0x1208 JUMPI PUSH2 0x1207 PUSH2 0x1176 JUMP JUMPDEST JUMPDEST PUSH2 0x1211 DUP3 PUSH2 0x1166 JUMP JUMPDEST SWAP1 POP PUSH1 0x20 DUP2 ADD SWAP1 POP SWAP2 SWAP1 POP JUMP JUMPDEST DUP3 DUP2 DUP4 CALLDATACOPY PUSH0 DUP4 DUP4 ADD MSTORE POP POP POP JUMP JUMPDEST PUSH0 PUSH2 0x123E PUSH2 0x1239 DUP5 PUSH2 0x11EE JUMP JUMPDEST PUSH2 0x11D4 JUMP JUMPDEST SWAP1 POP DUP3 DUP2 MSTORE PUSH1 0x20 DUP2 ADD DUP5 DUP5 DUP5 ADD GT ISZERO PUSH2 0x125A JUMPI PUSH2 0x1259 PUSH2 0x1162 JUMP JUMPDEST JUMPDEST PUSH2 0x1265 DUP5 DUP3 DUP6 PUSH2 0x121E JUMP JUMPDEST POP SWAP4 SWAP3 POP POP POP JUMP JUMPDEST PUSH0 DUP3 PUSH1 0x1F DUP4 ADD SLT PUSH2 0x1281 JUMPI PUSH2 0x1280 PUSH2 0x115E JUMP JUMPDEST JUMPDEST DUP2 CALLDATALOAD PUSH2 0x1291 DUP5 DUP3 PUSH1 0x20 DUP7 ADD PUSH2 0x122C JUMP JUMPDEST SWAP2 POP POP SWAP3 SWAP2 POP POP JUMP JUMPDEST PUSH0 PUSH1 0x20 DUP3 DUP5 SUB SLT ISZERO PUSH2 0x12AF JUMPI PUSH2 0x12AE PUSH2 0x1156 JUMP JUMPDEST JUMPDEST PUSH0 DUP3 ADD CALLDATALOAD PUSH8 0xFFFFFFFFFFFFFFFF DUP2 GT ISZERO PUSH2 0x12CC JUMPI PUSH2 0x12CB PUSH2 0x115A JUMP JUMPDEST JUMPDEST PUSH2 0x12D8 DUP5 DUP3 DUP6 ADD PUSH2 0x126D JUMP JUMPDEST SWAP2 POP POP SWAP3 SWAP2 POP POP JUMP JUMPDEST PUSH0 PUSH20 0xFFFFFFFFFFFFFFFFFFFFFFFFFFFFFFFFFFFFFFFF DUP3 AND SWAP1 POP SWAP2 SWAP1 POP JUMP JUMPDEST PUSH0 PUSH2 0x130A DUP3 PUSH2 0x12E1 JUMP JUMPDEST SWAP1 POP SWAP2 SWAP1 POP JUMP JUMPDEST PUSH2 0x131A DUP2 PUSH2 0x1300 JUMP JUMPDEST DUP3 MSTORE POP POP JUMP JUMPDEST PUSH0 PUSH1 0x20 DUP3 ADD SWAP1 POP PUSH2 0x1333 PUSH0 DUP4 ADD DUP5 PUSH2 0x1311 JUMP JUMPDEST SWAP3 SWAP2 POP POP JUMP JUMPDEST PUSH0 DUP2 ISZERO ISZERO SWAP1 POP SWAP2 SWAP1 POP JUMP JUMPDEST PUSH2 0x134D DUP2 PUSH2 0x1339 JUMP JUMPDEST DUP3 MSTORE POP POP JUMP JUMPDEST PUSH0 PUSH1 0x20 DUP3 ADD SWAP1 POP PUSH2 0x1366 PUSH0 DUP4 ADD DUP5 PUSH2 0x1344 JUMP JUMPDEST SWAP3 SWAP2 POP POP JUMP JUMPDEST PUSH2 0x1375 DUP2 PUSH2 0x1119 JUMP JUMPDEST DUP2 EQ PUSH2 0x137F JUMPI PUSH0 DUP1 REVERT JUMPDEST POP JUMP JUMPDEST PUSH0 DUP2 CALLDATALOAD SWAP1 POP PUSH2 0x1390 DUP2 PUSH2 0x136C JUMP JUMPDEST SWAP3 SWAP2 POP POP JUMP JUMPDEST PUSH0 DUP1 PUSH1 0x40 DUP4 DUP6 SUB SLT ISZERO PUSH2 0x13AC JUMPI PUSH2 0x13AB PUSH2 0x1156 JUMP JUMPDEST JUMPDEST PUSH0 DUP4 ADD CALLDATALOAD PUSH8 0xFFFFFFFFFFFFFFFF DUP2 GT ISZERO PUSH2 0x13C9 JUMPI PUSH2 0x13C8 PUSH2 0x115A JUMP JUMPDEST JUMPDEST PUSH2 0x13D5 DUP6 DUP3 DUP7 ADD PUSH2 0x126D JUMP JUMPDEST SWAP3 POP POP PUSH1 0x20 PUSH2 0x13E6 DUP6 DUP3 DUP7 ADD PUSH2 0x1382 JUMP JUMPDEST SWAP2 POP POP SWAP3 POP SWAP3 SWAP1 POP JUMP JUMPDEST PUSH0 DUP2 MLOAD SWAP1 POP SWAP2 SWAP1 POP JUMP JUMPDEST PUSH0 DUP3 DUP3 MSTORE PUSH1 0x20 DUP3 ADD SWAP1 POP SWAP3 SWAP2 POP POP JUMP JUMPDEST PUSH0 JUMPDEST DUP4 DUP2 LT ISZERO PUSH2 0x1427 JUMPI DUP1 DUP3 ADD MLOAD DUP2 DUP5 ADD MSTORE PUSH1 0x20 DUP2 ADD SWAP1 POP PUSH2 0x140C JUMP JUMPDEST PUSH0 DUP5 DUP5 ADD MSTORE POP POP POP POP JUMP JUMPDEST PUSH0 PUSH2 0x143C DUP3 PUSH2 0x13F0 JUMP JUMPDEST PUSH2 0x1446 DUP2 DUP6 PUSH2 0x13FA JUMP JUMPDEST SWAP4 POP PUSH2 0x1456 DUP2 DUP6 PUSH1 0x20 DUP7 ADD PUSH2 0x140A JUMP JUMPDEST PUSH2 0x145F DUP2 PUSH2 0x1166 JUMP JUMPDEST DUP5 ADD SWAP2 POP POP SWAP3 SWAP2 POP POP JUMP JUMPDEST PUSH0 PUSH1 0xC0 DUP3 ADD SWAP1 POP PUSH2 0x147D PUSH0 DUP4 ADD DUP10 PUSH2 0x1311 JUMP JUMPDEST PUSH2 0x148A PUSH1 0x20 DUP4 ADD DUP9 PUSH2 0x10F1 JUMP JUMPDEST PUSH2 0x1497 PUSH1 0x40 DUP4 ADD DUP8 PUSH2 0x10F1 JUMP JUMPDEST DUP2 DUP2 SUB PUSH1 0x60 DUP4 ADD MSTORE PUSH2 0x14A9 DUP2 DUP7 PUSH2 0x1432 JUMP JUMPDEST SWAP1 POP PUSH2 0x14B8 PUSH1 0x80 DUP4 ADD DUP6 PUSH2 0x1125 JUMP JUMPDEST PUSH2 0x14C5 PUSH1 0xA0 DUP4 ADD DUP5 PUSH2 0x10F1 JUMP JUMPDEST SWAP8 SWAP7 POP POP POP POP POP POP POP JUMP JUMPDEST PUSH2 0x14D9 DUP2 PUSH2 0x10E8 JUMP JUMPDEST DUP2 EQ PUSH2 0x14E3 JUMPI PUSH0 DUP1 REVERT JUMPDEST POP JUMP JUMPDEST PUSH0 DUP2 CALLDATALOAD SWAP1 POP PUSH2 0x14F4 DUP2 PUSH2 0x14D0 JUMP JUMPDEST SWAP3 SWAP2 POP POP JUMP JUMPDEST PUSH0 PUSH1 0x20 DUP3 DUP5 SUB SLT ISZERO PUSH2 0x150F JUMPI PUSH2 0x150E PUSH2 0x1156 JUMP JUMPDEST JUMPDEST PUSH0 PUSH2 0x151C DUP5 DUP3 DUP6 ADD PUSH2 0x14E6 JUMP JUMPDEST SWAP2 POP POP SWAP3 SWAP2 POP POP JUMP JUMPDEST PUSH0 PUSH1 0x20 DUP3 DUP5 SUB SLT ISZERO PUSH2 0x153A JUMPI PUSH2 0x1539 PUSH2 0x1156 JUMP JUMPDEST JUMPDEST PUSH0 PUSH2 0x1547 DUP5 DUP3 DUP6 ADD PUSH2 0x1382 JUMP JUMPDEST SWAP2 POP POP SWAP3 SWAP2 POP POP JUMP JUMPDEST PUSH32 0x5468617420636F6E7472616374696F6E202D2044454144212121000000000000 PUSH0 DUP3 ADD MSTORE POP JUMP JUMPDEST PUSH0 PUSH2 0x1584 PUSH1 0x1A DUP4 PUSH2 0x13FA JUMP JUMPDEST SWAP2 POP PUSH2 0x158F DUP3 PUSH2 0x1550 JUMP JUMPDEST PUSH1 0x20 DUP3 ADD SWAP1 POP SWAP2 SWAP1 POP JUMP JUMPDEST PUSH0 PUSH1 0x20 DUP3 ADD SWAP1 POP DUP2 DUP2 SUB PUSH0 DUP4 ADD MSTORE PUSH2 0x15B1 DUP2 PUSH2 0x1578 JUMP JUMPDEST SWAP1 POP SWAP2 SWAP1 POP JUMP JUMPDEST PUSH32 0x596F7520617265206E6F742061206D6173746572000000000000000000000000 PUSH0 DUP3 ADD MSTORE POP JUMP JUMPDEST PUSH0 PUSH2 0x15EC PUSH1 0x14 DUP4 PUSH2 0x13FA JUMP JUMPDEST SWAP2 POP PUSH2 0x15F7 DUP3 PUSH2 0x15B8 JUMP JUMPDEST PUSH1 0x20 DUP3 ADD SWAP1 POP SWAP2 SWAP1 POP JUMP JUMPDEST PUSH0 PUSH1 0x20 DUP3 ADD SWAP1 POP DUP2 DUP2 SUB PUSH0 DUP4 ADD MSTORE PUSH2 0x1619 DUP2 PUSH2 0x15E0 JUMP JUMPDEST SWAP1 POP SWAP2 SWAP1 POP JUMP JUMPDEST PUSH0 DUP2 SWAP1 POP SWAP3 SWAP2 POP POP JUMP JUMPDEST PUSH0 PUSH2 0x1634 DUP3 PUSH2 0x13F0 JUMP JUMPDEST PUSH2 0x163E DUP2 DUP6 PUSH2 0x1620 JUMP JUMPDEST SWAP4 POP PUSH2 0x164E DUP2 DUP6 PUSH1 0x20 DUP7 ADD PUSH2 0x140A JUMP JUMPDEST DUP1 DUP5 ADD SWAP2 POP POP SWAP3 SWAP2 POP POP JUMP JUMPDEST PUSH0 PUSH2 0x1665 DUP3 DUP5 PUSH2 0x162A JUMP JUMPDEST SWAP2 POP DUP2 SWAP1 POP SWAP3 SWAP2 POP POP JUMP JUMPDEST PUSH32 0x446F6D61696E20697320616C7265616479207265676973746572656400000000 PUSH0 DUP3 ADD MSTORE POP JUMP JUMPDEST PUSH0 PUSH2 0x16A4 PUSH1 0x1C DUP4 PUSH2 0x13FA JUMP JUMPDEST SWAP2 POP PUSH2 0x16AF DUP3 PUSH2 0x1670 JUMP JUMPDEST PUSH1 0x20 DUP3 ADD SWAP1 POP SWAP2 SWAP1 POP JUMP JUMPDEST PUSH0 PUSH1 0x20 DUP3 ADD SWAP1 POP DUP2 DUP2 SUB PUSH0 DUP4 ADD MSTORE PUSH2 0x16D1 DUP2 PUSH2 0x1698 JUMP JUMPDEST SWAP1 POP SWAP2 SWAP1 POP JUMP JUMPDEST PUSH0 PUSH4 0xFFFFFFFF DUP3 AND SWAP1 POP SWAP2 SWAP1 POP JUMP JUMPDEST PUSH32 0x4E487B7100000000000000000000000000000000000000000000000000000000 PUSH0 MSTORE PUSH1 0x11 PUSH1 0x4 MSTORE PUSH1 0x24 PUSH0 REVERT JUMPDEST PUSH0 PUSH2 0x171E DUP3 PUSH2 0x16D8 JUMP JUMPDEST SWAP2 POP PUSH2 0x1729 DUP4 PUSH2 0x16D8 JUMP JUMPDEST SWAP3 POP DUP3 DUP3 MUL PUSH2 0x1737 DUP2 PUSH2 0x16D8 JUMP JUMPDEST SWAP2 POP DUP1 DUP3 EQ PUSH2 0x1749 JUMPI PUSH2 0x1748 PUSH2 0x16E7 JUMP JUMPDEST JUMPDEST POP SWAP3 SWAP2 POP POP JUMP JUMPDEST PUSH0 PUSH2 0x175A DUP3 PUSH2 0x10E8 JUMP JUMPDEST SWAP2 POP PUSH2 0x1765 DUP4 PUSH2 0x10E8 JUMP JUMPDEST SWAP3 POP DUP3 DUP3 ADD SWAP1 POP DUP1 DUP3 GT ISZERO PUSH2 0x177D JUMPI PUSH2 0x177C PUSH2 0x16E7 JUMP JUMPDEST JUMPDEST SWAP3 SWAP2 POP POP JUMP JUMPDEST PUSH32 0x446F6D61696E20726567697374726174696F6E20686173206E6F742065787069 PUSH0 DUP3 ADD MSTORE PUSH32 0x7265640000000000000000000000000000000000000000000000000000000000 PUSH1 0x20 DUP3 ADD MSTORE POP JUMP JUMPDEST PUSH0 PUSH2 0x17DD PUSH1 0x23 DUP4 PUSH2 0x13FA JUMP JUMPDEST SWAP2 POP PUSH2 0x17E8 DUP3 PUSH2 0x1783 JUMP JUMPDEST PUSH1 0x40 DUP3 ADD SWAP1 POP SWAP2 SWAP1 POP JUMP JUMPDEST PUSH0 PUSH1 0x20 DUP3 ADD SWAP1 POP DUP2 DUP2 SUB PUSH0 DUP4 ADD MSTORE PUSH2 0x180A DUP2 PUSH2 0x17D1 JUMP JUMPDEST SWAP1 POP SWAP2 SWAP1 POP JUMP JUMPDEST PUSH0 PUSH2 0x181B DUP3 PUSH2 0x10E8 JUMP JUMPDEST SWAP2 POP PUSH2 0x1826 DUP4 PUSH2 0x10E8 JUMP JUMPDEST SWAP3 POP DUP3 DUP3 MUL PUSH2 0x1834 DUP2 PUSH2 0x10E8 JUMP JUMPDEST SWAP2 POP DUP3 DUP3 DIV DUP5 EQ DUP4 ISZERO OR PUSH2 0x184B JUMPI PUSH2 0x184A PUSH2 0x16E7 JUMP JUMPDEST JUMPDEST POP SWAP3 SWAP2 POP POP JUMP JUMPDEST PUSH32 0x496E73756666696369656E742066756E64732E20436F7374203D206665652066 PUSH0 DUP3 ADD MSTORE PUSH32 0x6F7220726567697374726174696F6E202B202872656E7420636F7374202A2079 PUSH1 0x20 DUP3 ADD MSTORE PUSH32 0x6561727329200000000000000000000000000000000000000000000000000000 PUSH1 0x40 DUP3 ADD MSTORE POP JUMP JUMPDEST PUSH0 PUSH2 0x18D2 PUSH1 0x46 DUP4 PUSH2 0x13FA JUMP JUMPDEST SWAP2 POP PUSH2 0x18DD DUP3 PUSH2 0x1852 JUMP JUMPDEST PUSH1 0x60 DUP3 ADD SWAP1 POP SWAP2 SWAP1 POP JUMP JUMPDEST PUSH0 PUSH1 0x20 DUP3 ADD SWAP1 POP DUP2 DUP2 SUB PUSH0 DUP4 ADD MSTORE PUSH2 0x18FF DUP2 PUSH2 0x18C6 JUMP JUMPDEST SWAP1 POP SWAP2 SWAP1 POP JUMP JUMPDEST PUSH32 0x496E76616C6964207465726D206F662072656E74000000000000000000000000 PUSH0 DUP3 ADD MSTORE POP JUMP JUMPDEST PUSH0 PUSH2 0x193A PUSH1 0x14 DUP4 PUSH2 0x13FA JUMP JUMPDEST SWAP2 POP PUSH2 0x1945 DUP3 PUSH2 0x1906 JUMP JUMPDEST PUSH1 0x20 DUP3 ADD SWAP1 POP SWAP2 SWAP1 POP JUMP JUMPDEST PUSH0 PUSH1 0x20 DUP3 ADD SWAP1 POP DUP2 DUP2 SUB PUSH0 DUP4 ADD MSTORE PUSH2 0x1967 DUP2 PUSH2 0x192E JUMP JUMPDEST SWAP1 POP SWAP2 SWAP1 POP JUMP JUMPDEST PUSH0 PUSH2 0x1978 DUP3 PUSH2 0x10E8 JUMP JUMPDEST SWAP2 POP PUSH2 0x1983 DUP4 PUSH2 0x10E8 JUMP JUMPDEST SWAP3 POP DUP3 DUP3 SUB SWAP1 POP DUP2 DUP2 GT ISZERO PUSH2 0x199B JUMPI PUSH2 0x199A PUSH2 0x16E7 JUMP JUMPDEST JUMPDEST SWAP3 SWAP2 POP POP JUMP JUMPDEST PUSH32 0x4E487B7100000000000000000000000000000000000000000000000000000000 PUSH0 MSTORE PUSH1 0x22 PUSH1 0x4 MSTORE PUSH1 0x24 PUSH0 REVERT JUMPDEST PUSH0 PUSH1 0x2 DUP3 DIV SWAP1 POP PUSH1 0x1 DUP3 AND DUP1 PUSH2 0x19E5 JUMPI PUSH1 0x7F DUP3 AND SWAP2 POP JUMPDEST PUSH1 0x20 DUP3 LT DUP2 SUB PUSH2 0x19F8 JUMPI PUSH2 0x19F7 PUSH2 0x19A1 JUMP JUMPDEST JUMPDEST POP SWAP2 SWAP1 POP JUMP JUMPDEST PUSH0 DUP2 SWAP1 POP DUP2 PUSH0 MSTORE PUSH1 0x20 PUSH0 KECCAK256 SWAP1 POP SWAP2 SWAP1 POP JUMP JUMPDEST PUSH0 PUSH1 0x20 PUSH1 0x1F DUP4 ADD DIV SWAP1 POP SWAP2 SWAP1 POP JUMP JUMPDEST PUSH0 DUP3 DUP3 SHL SWAP1 POP SWAP3 SWAP2 POP POP JUMP JUMPDEST PUSH0 PUSH1 0x8 DUP4 MUL PUSH2 0x1A5A PUSH32 0xFFFFFFFFFFFFFFFFFFFFFFFFFFFFFFFFFFFFFFFFFFFFFFFFFFFFFFFFFFFFFFFF DUP3 PUSH2 0x1A1F JUMP JUMPDEST PUSH2 0x1A64 DUP7 DUP4 PUSH2 0x1A1F JUMP JUMPDEST SWAP6 POP DUP1 NOT DUP5 AND SWAP4 POP DUP1 DUP7 AND DUP5 OR SWAP3 POP POP POP SWAP4 SWAP3 POP POP POP JUMP JUMPDEST PUSH0 DUP2 SWAP1 POP SWAP2 SWAP1 POP JUMP JUMPDEST PUSH0 PUSH2 0x1A9F PUSH2 0x1A9A PUSH2 0x1A95 DUP5 PUSH2 0x10E8 JUMP JUMPDEST PUSH2 0x1A7C JUMP JUMPDEST PUSH2 0x10E8 JUMP JUMPDEST SWAP1 POP SWAP2 SWAP1 POP JUMP JUMPDEST PUSH0 DUP2 SWAP1 POP SWAP2 SWAP1 POP JUMP JUMPDEST PUSH2 0x1AB8 DUP4 PUSH2 0x1A85 JUMP JUMPDEST PUSH2 0x1ACC PUSH2 0x1AC4 DUP3 PUSH2 0x1AA6 JUMP JUMPDEST DUP5 DUP5 SLOAD PUSH2 0x1A2B JUMP JUMPDEST DUP3 SSTORE POP POP POP POP JUMP JUMPDEST PUSH0 SWAP1 JUMP JUMPDEST PUSH2 0x1AE0 PUSH2 0x1AD4 JUMP JUMPDEST PUSH2 0x1AEB DUP2 DUP5 DUP5 PUSH2 0x1AAF JUMP JUMPDEST POP POP POP JUMP JUMPDEST JUMPDEST DUP2 DUP2 LT ISZERO PUSH2 0x1B0E JUMPI PUSH2 0x1B03 PUSH0 DUP3 PUSH2 0x1AD8 JUMP JUMPDEST PUSH1 0x1 DUP2 ADD SWAP1 POP PUSH2 0x1AF1 JUMP JUMPDEST POP POP JUMP JUMPDEST PUSH1 0x1F DUP3 GT ISZERO PUSH2 0x1B53 JUMPI PUSH2 0x1B24 DUP2 PUSH2 0x19FE JUMP JUMPDEST PUSH2 0x1B2D DUP5 PUSH2 0x1A10 JUMP JUMPDEST DUP2 ADD PUSH1 0x20 DUP6 LT ISZERO PUSH2 0x1B3C JUMPI DUP2 SWAP1 POP JUMPDEST PUSH2 0x1B50 PUSH2 0x1B48 DUP6 PUSH2 0x1A10 JUMP JUMPDEST DUP4 ADD DUP3 PUSH2 0x1AF0 JUMP JUMPDEST POP POP JUMPDEST POP POP POP JUMP JUMPDEST PUSH0 DUP3 DUP3 SHR SWAP1 POP SWAP3 SWAP2 POP POP JUMP JUMPDEST PUSH0 PUSH2 0x1B73 PUSH0 NOT DUP5 PUSH1 0x8 MUL PUSH2 0x1B58 JUMP JUMPDEST NOT DUP1 DUP4 AND SWAP2 POP POP SWAP3 SWAP2 POP POP JUMP JUMPDEST PUSH0 PUSH2 0x1B8B DUP4 DUP4 PUSH2 0x1B64 JUMP JUMPDEST SWAP2 POP DUP3 PUSH1 0x2 MUL DUP3 OR SWAP1 POP SWAP3 SWAP2 POP POP JUMP JUMPDEST PUSH2 0x1BA4 DUP3 PUSH2 0x13F0 JUMP JUMPDEST PUSH8 0xFFFFFFFFFFFFFFFF DUP2 GT ISZERO PUSH2 0x1BBD JUMPI PUSH2 0x1BBC PUSH2 0x1176 JUMP JUMPDEST JUMPDEST PUSH2 0x1BC7 DUP3 SLOAD PUSH2 0x19CE JUMP JUMPDEST PUSH2 0x1BD2 DUP3 DUP3 DUP6 PUSH2 0x1B12 JUMP JUMPDEST PUSH0 PUSH1 0x20 SWAP1 POP PUSH1 0x1F DUP4 GT PUSH1 0x1 DUP2 EQ PUSH2 0x1C03 JUMPI PUSH0 DUP5 ISZERO PUSH2 0x1BF1 JUMPI DUP3 DUP8 ADD MLOAD SWAP1 POP JUMPDEST PUSH2 0x1BFB DUP6 DUP3 PUSH2 0x1B80 JUMP JUMPDEST DUP7 SSTORE POP PUSH2 0x1C62 JUMP JUMPDEST PUSH1 0x1F NOT DUP5 AND PUSH2 0x1C11 DUP7 PUSH2 0x19FE JUMP JUMPDEST PUSH0 JUMPDEST DUP3 DUP2 LT ISZERO PUSH2 0x1C38 JUMPI DUP5 DUP10 ADD MLOAD DUP3 SSTORE PUSH1 0x1 DUP3 ADD SWAP2 POP PUSH1 0x20 DUP6 ADD SWAP5 POP PUSH1 0x20 DUP2 ADD SWAP1 POP PUSH2 0x1C13 JUMP JUMPDEST DUP7 DUP4 LT ISZERO PUSH2 0x1C55 JUMPI DUP5 DUP10 ADD MLOAD PUSH2 0x1C51 PUSH1 0x1F DUP10 AND DUP3 PUSH2 0x1B64 JUMP JUMPDEST DUP4 SSTORE POP JUMPDEST PUSH1 0x1 PUSH1 0x2 DUP9 MUL ADD DUP9 SSTORE POP POP POP JUMPDEST POP POP POP POP POP POP JUMP JUMPDEST PUSH32 0x446F6D61696E20646F6573206E6F742062656C6F6E6720746F20746865207365 PUSH0 DUP3 ADD MSTORE PUSH32 0x6E64657200000000000000000000000000000000000000000000000000000000 PUSH1 0x20 DUP3 ADD MSTORE POP JUMP JUMPDEST PUSH0 PUSH2 0x1CC4 PUSH1 0x24 DUP4 PUSH2 0x13FA JUMP JUMPDEST SWAP2 POP PUSH2 0x1CCF DUP3 PUSH2 0x1C6A JUMP JUMPDEST PUSH1 0x40 DUP3 ADD SWAP1 POP SWAP2 SWAP1 POP JUMP JUMPDEST PUSH0 PUSH1 0x20 DUP3 ADD SWAP1 POP DUP2 DUP2 SUB PUSH0 DUP4 ADD MSTORE PUSH2 0x1CF1 DUP2 PUSH2 0x1CB8 JUMP JUMPDEST SWAP1 POP SWAP2 SWAP1 POP JUMP JUMPDEST PUSH32 0x496E73756666696369656E742066756E64732E20436F7374203D2072656E7420 PUSH0 DUP3 ADD MSTORE PUSH32 0x636F7374202A207965617273202B20666565202A20636F656666696369656E74 PUSH1 0x20 DUP3 ADD MSTORE POP JUMP JUMPDEST PUSH0 PUSH2 0x1D52 PUSH1 0x40 DUP4 PUSH2 0x13FA JUMP JUMPDEST SWAP2 POP PUSH2 0x1D5D DUP3 PUSH2 0x1CF8 JUMP JUMPDEST PUSH1 0x40 DUP3 ADD SWAP1 POP SWAP2 SWAP1 POP JUMP JUMPDEST PUSH0 PUSH1 0x20 DUP3 ADD SWAP1 POP DUP2 DUP2 SUB PUSH0 DUP4 ADD MSTORE PUSH2 0x1D7F DUP2 PUSH2 0x1D46 JUMP JUMPDEST SWAP1 POP SWAP2 SWAP1 POP JUMP JUMPDEST PUSH0 PUSH2 0x1D90 DUP3 PUSH2 0x1119 JUMP JUMPDEST SWAP2 POP PUSH2 0x1D9B DUP4 PUSH2 0x1119 JUMP JUMPDEST SWAP3 POP DUP3 DUP3 ADD SWAP1 POP PUSH1 0xFF DUP2 GT ISZERO PUSH2 0x1DB4 JUMPI PUSH2 0x1DB3 PUSH2 0x16E7 JUMP JUMPDEST JUMPDEST SWAP3 SWAP2 POP POP JUMP INVALID LOG2 PUSH5 0x6970667358 0x22 SLT KECCAK256 PC PUSH27 0xBC6677455127EFD7EF8B6E428F80B253B61182136ACB6CC50CC91B SHR 0xDE 0x4C PUSH5 0x736F6C6343 STOP ADDMOD AND STOP CALLER "
		},
		"gasEstimates": {
			"creation": {
				"codeDepositCost": "1532800",
				"executionCost": "118660",
				"totalCost": "1651460"
			},
			"external": {
				"alive()": "2627",
				"cofficient()": "2511",
				"destroy()": "infinite",
				"domain(string)": "infinite",
				"getBalance()": "2650",
				"prolongateRent(string,uint8)": "infinite",
				"regCostYear()": "2492",
				"registerDomain(string,uint8)": "infinite",
				"returnAddress(string)": "infinite",
				"setCofficient(uint8)": "29147",
				"setRegCostYear(uint256)": "26968",
				"totalBalance()": "2491",
				"withdrawFunds()": "infinite"
			}
		},
		"methodIdentifiers": {
			"alive()": "753899e9",
			"cofficient()": "2cb594a0",
			"destroy()": "83197ef0",
			"domain(string)": "7f109dd3",
			"getBalance()": "12065fe0",
			"prolongateRent(string,uint8)": "98ed94bc",
			"regCostYear()": "4b162f69",
			"registerDomain(string,uint8)": "753afc6a",
			"returnAddress(string)": "68b64d1f",
			"setCofficient(uint8)": "eae7cddc",
			"setRegCostYear(uint256)": "826dfcb9",
			"totalBalance()": "ad7a672f",
			"withdrawFunds()": "24600fc3"
		}
	},
	"abi": [
		{
			"inputs": [],
			"stateMutability": "nonpayable",
			"type": "constructor"
		},
		{
			"inputs": [],
			"name": "alive",
			"outputs": [
				{
					"internalType": "bool",
					"name": "",
					"type": "bool"
				}
			],
			"stateMutability": "view",
			"type": "function"
		},
		{
			"inputs": [],
			"name": "cofficient",
			"outputs": [
				{
					"internalType": "uint8",
					"name": "",
					"type": "uint8"
				}
			],
			"stateMutability": "view",
			"type": "function"
		},
		{
			"inputs": [],
			"name": "destroy",
			"outputs": [],
			"stateMutability": "nonpayable",
			"type": "function"
		},
		{
			"inputs": [
				{
					"internalType": "string",
					"name": "",
					"type": "string"
				}
			],
			"name": "domain",
			"outputs": [
				{
					"internalType": "address",
					"name": "userAddress",
					"type": "address"
				},
				{
					"internalType": "uint256",
					"name": "creationTime",
					"type": "uint256"
				},
				{
					"internalType": "uint256",
					"name": "fee",
					"type": "uint256"
				},
				{
					"internalType": "string",
					"name": "message",
					"type": "string"
				},
				{
					"internalType": "uint8",
					"name": "year",
					"type": "uint8"
				},
				{
					"internalType": "uint256",
					"name": "remainder",
					"type": "uint256"
				}
			],
			"stateMutability": "view",
			"type": "function"
		},
		{
			"inputs": [],
			"name": "getBalance",
			"outputs": [
				{
					"internalType": "uint256",
					"name": "",
					"type": "uint256"
				}
			],
			"stateMutability": "view",
			"type": "function"
		},
		{
			"inputs": [
				{
					"internalType": "string",
					"name": "_input",
					"type": "string"
				},
				{
					"internalType": "uint8",
					"name": "_year",
					"type": "uint8"
				}
			],
			"name": "prolongateRent",
			"outputs": [],
			"stateMutability": "payable",
			"type": "function"
		},
		{
			"inputs": [],
			"name": "regCostYear",
			"outputs": [
				{
					"internalType": "uint256",
					"name": "",
					"type": "uint256"
				}
			],
			"stateMutability": "view",
			"type": "function"
		},
		{
			"inputs": [
				{
					"internalType": "string",
					"name": "_input",
					"type": "string"
				},
				{
					"internalType": "uint8",
					"name": "_year",
					"type": "uint8"
				}
			],
			"name": "registerDomain",
			"outputs": [],
			"stateMutability": "payable",
			"type": "function"
		},
		{
			"inputs": [
				{
					"internalType": "string",
					"name": "_input",
					"type": "string"
				}
			],
			"name": "returnAddress",
			"outputs": [
				{
					"internalType": "address",
					"name": "",
					"type": "address"
				}
			],
			"stateMutability": "view",
			"type": "function"
		},
		{
			"inputs": [
				{
					"internalType": "uint8",
					"name": "_newCofficient",
					"type": "uint8"
				}
			],
			"name": "setCofficient",
			"outputs": [],
			"stateMutability": "nonpayable",
			"type": "function"
		},
		{
			"inputs": [
				{
					"internalType": "uint256",
					"name": "_newRegCostYear",
					"type": "uint256"
				}
			],
			"name": "setRegCostYear",
			"outputs": [],
			"stateMutability": "nonpayable",
			"type": "function"
		},
		{
			"inputs": [],
			"name": "totalBalance",
			"outputs": [
				{
					"internalType": "uint256",
					"name": "",
					"type": "uint256"
				}
			],
			"stateMutability": "view",
			"type": "function"
		},
		{
			"inputs": [],
			"name": "withdrawFunds",
			"outputs": [],
			"stateMutability": "payable",
			"type": "function"
		}
	]
}