{
	"data": {
		"bytecode": {
			"linkReferences": {},
			"object": "608060405234801561000f575f80fd5b50610ac58061001d5f395ff3fe608060405234801561000f575f80fd5b506004361061004a575f3560e01c80631eec93af1461004e57806321668a0114610058578063756030b914610089578063f5fccd8f146100a5575b5f80fd5b6100566100d6565b005b610072600480360381019061006d91906103f2565b6101b6565b6040516100809291906104c1565b60405180910390f35b6100a3600480360381019061009e9190610645565b610276565b005b6100bf60048036038101906100ba91906103f2565b6102ed565b6040516100cd9291906104c1565b60405180910390f35b5f5b5f805490508110156101b357600115155f82815481106100fb576100fa61069f565b5b905f5260205f2090600202016001015f9054906101000a900460ff161515036101a65760015f82815481106101335761013261069f565b5b905f5260205f209060020201908060018154018082558091505060019003905f5260205f2090600202015f909190919091505f8201815f01908161017791906108db565b50600182015f9054906101000a900460ff16816001015f6101000a81548160ff02191690831515021790555050505b80806001019150506100d8565b50565b5f81815481106101c4575f80fd5b905f5260205f2090600202015f91509050805f0180546101e3906106f9565b80601f016020809104026020016040519081016040528092919081815260200182805461020f906106f9565b801561025a5780601f106102315761010080835404028352916020019161025a565b820191905f5260205f20905b81548152906001019060200180831161023d57829003601f168201915b505050505090806001015f9054906101000a900460ff16905082565b5f6040518060400160405280848152602001831515815250908060018154018082558091505060019003905f5260205f2090600202015f909190919091505f820151815f0190816102c791906109c0565b506020820151816001015f6101000a81548160ff02191690831515021790555050505050565b600181815481106102fc575f80fd5b905f5260205f2090600202015f91509050805f01805461031b906106f9565b80601f0160208091040260200160405190810160405280929190818152602001828054610347906106f9565b80156103925780601f1061036957610100808354040283529160200191610392565b820191905f5260205f20905b81548152906001019060200180831161037557829003601f168201915b505050505090806001015f9054906101000a900460ff16905082565b5f604051905090565b5f80fd5b5f80fd5b5f819050919050565b6103d1816103bf565b81146103db575f80fd5b50565b5f813590506103ec816103c8565b92915050565b5f60208284031215610407576104066103b7565b5b5f610414848285016103de565b91505092915050565b5f81519050919050565b5f82825260208201905092915050565b5f5b83811015610454578082015181840152602081019050610439565b5f8484015250505050565b5f601f19601f8301169050919050565b5f6104798261041d565b6104838185610427565b9350610493818560208601610437565b61049c8161045f565b840191505092915050565b5f8115159050919050565b6104bb816104a7565b82525050565b5f6040820190508181035f8301526104d9818561046f565b90506104e860208301846104b2565b9392505050565b5f80fd5b5f80fd5b7f4e487b71000000000000000000000000000000000000000000000000000000005f52604160045260245ffd5b61052d8261045f565b810181811067ffffffffffffffff8211171561054c5761054b6104f7565b5b80604052505050565b5f61055e6103ae565b905061056a8282610524565b919050565b5f67ffffffffffffffff821115610589576105886104f7565b5b6105928261045f565b9050602081019050919050565b828183375f83830152505050565b5f6105bf6105ba8461056f565b610555565b9050828152602081018484840111156105db576105da6104f3565b5b6105e684828561059f565b509392505050565b5f82601f830112610602576106016104ef565b5b81356106128482602086016105ad565b91505092915050565b610624816104a7565b811461062e575f80fd5b50565b5f8135905061063f8161061b565b92915050565b5f806040838503121561065b5761065a6103b7565b5b5f83013567ffffffffffffffff811115610678576106776103bb565b5b610684858286016105ee565b925050602061069585828601610631565b9150509250929050565b7f4e487b71000000000000000000000000000000000000000000000000000000005f52603260045260245ffd5b7f4e487b71000000000000000000000000000000000000000000000000000000005f52602260045260245ffd5b5f600282049050600182168061071057607f821691505b602082108103610723576107226106cc565b5b50919050565b5f81549050610737816106f9565b9050919050565b5f819050815f5260205f209050919050565b5f6020601f8301049050919050565b5f82821b905092915050565b5f6008830261079a7fffffffffffffffffffffffffffffffffffffffffffffffffffffffffffffffff8261075f565b6107a4868361075f565b95508019841693508086168417925050509392505050565b5f819050919050565b5f6107df6107da6107d5846103bf565b6107bc565b6103bf565b9050919050565b5f819050919050565b6107f8836107c5565b61080c610804826107e6565b84845461076b565b825550505050565b5f90565b610820610814565b61082b8184846107ef565b505050565b5b8181101561084e576108435f82610818565b600181019050610831565b5050565b601f821115610893576108648161073e565b61086d84610750565b8101602085101561087c578190505b61089061088885610750565b830182610830565b50505b505050565b5f82821c905092915050565b5f6108b35f1984600802610898565b1980831691505092915050565b5f6108cb83836108a4565b9150826002028217905092915050565b8181036108e95750506109be565b6108f282610729565b67ffffffffffffffff81111561090b5761090a6104f7565b5b61091582546106f9565b610920828285610852565b5f601f83116001811461094d575f841561093b578287015490505b61094585826108c0565b8655506109b7565b601f19841661095b8761073e565b96506109668661073e565b5f5b8281101561098d57848901548255600182019150600185019450602081019050610968565b868310156109aa57848901546109a6601f8916826108a4565b8355505b6001600288020188555050505b5050505050505b565b6109c98261041d565b67ffffffffffffffff8111156109e2576109e16104f7565b5b6109ec82546106f9565b6109f7828285610852565b5f60209050601f831160018114610a28575f8415610a16578287015190505b610a2085826108c0565b865550610a87565b601f198416610a368661073e565b5f5b82811015610a5d57848901518255600182019150602085019450602081019050610a38565b86831015610a7a5784890151610a76601f8916826108a4565b8355505b6001600288020188555050505b50505050505056fea264697066735822122022430246730372f1dcb38d7990ec723dd49a33f41c0d838dd2ce8c5883131d9964736f6c63430008160033",
			"opcodes": "PUSH1 0x80 PUSH1 0x40 MSTORE CALLVALUE DUP1 ISZERO PUSH2 0xF JUMPI PUSH0 DUP1 REVERT JUMPDEST POP PUSH2 0xAC5 DUP1 PUSH2 0x1D PUSH0 CODECOPY PUSH0 RETURN INVALID PUSH1 0x80 PUSH1 0x40 MSTORE CALLVALUE DUP1 ISZERO PUSH2 0xF JUMPI PUSH0 DUP1 REVERT JUMPDEST POP PUSH1 0x4 CALLDATASIZE LT PUSH2 0x4A JUMPI PUSH0 CALLDATALOAD PUSH1 0xE0 SHR DUP1 PUSH4 0x1EEC93AF EQ PUSH2 0x4E JUMPI DUP1 PUSH4 0x21668A01 EQ PUSH2 0x58 JUMPI DUP1 PUSH4 0x756030B9 EQ PUSH2 0x89 JUMPI DUP1 PUSH4 0xF5FCCD8F EQ PUSH2 0xA5 JUMPI JUMPDEST PUSH0 DUP1 REVERT JUMPDEST PUSH2 0x56 PUSH2 0xD6 JUMP JUMPDEST STOP JUMPDEST PUSH2 0x72 PUSH1 0x4 DUP1 CALLDATASIZE SUB DUP2 ADD SWAP1 PUSH2 0x6D SWAP2 SWAP1 PUSH2 0x3F2 JUMP JUMPDEST PUSH2 0x1B6 JUMP JUMPDEST PUSH1 0x40 MLOAD PUSH2 0x80 SWAP3 SWAP2 SWAP1 PUSH2 0x4C1 JUMP JUMPDEST PUSH1 0x40 MLOAD DUP1 SWAP2 SUB SWAP1 RETURN JUMPDEST PUSH2 0xA3 PUSH1 0x4 DUP1 CALLDATASIZE SUB DUP2 ADD SWAP1 PUSH2 0x9E SWAP2 SWAP1 PUSH2 0x645 JUMP JUMPDEST PUSH2 0x276 JUMP JUMPDEST STOP JUMPDEST PUSH2 0xBF PUSH1 0x4 DUP1 CALLDATASIZE SUB DUP2 ADD SWAP1 PUSH2 0xBA SWAP2 SWAP1 PUSH2 0x3F2 JUMP JUMPDEST PUSH2 0x2ED JUMP JUMPDEST PUSH1 0x40 MLOAD PUSH2 0xCD SWAP3 SWAP2 SWAP1 PUSH2 0x4C1 JUMP JUMPDEST PUSH1 0x40 MLOAD DUP1 SWAP2 SUB SWAP1 RETURN JUMPDEST PUSH0 JUMPDEST PUSH0 DUP1 SLOAD SWAP1 POP DUP2 LT ISZERO PUSH2 0x1B3 JUMPI PUSH1 0x1 ISZERO ISZERO PUSH0 DUP3 DUP2 SLOAD DUP2 LT PUSH2 0xFB JUMPI PUSH2 0xFA PUSH2 0x69F JUMP JUMPDEST JUMPDEST SWAP1 PUSH0 MSTORE PUSH1 0x20 PUSH0 KECCAK256 SWAP1 PUSH1 0x2 MUL ADD PUSH1 0x1 ADD PUSH0 SWAP1 SLOAD SWAP1 PUSH2 0x100 EXP SWAP1 DIV PUSH1 0xFF AND ISZERO ISZERO SUB PUSH2 0x1A6 JUMPI PUSH1 0x1 PUSH0 DUP3 DUP2 SLOAD DUP2 LT PUSH2 0x133 JUMPI PUSH2 0x132 PUSH2 0x69F JUMP JUMPDEST JUMPDEST SWAP1 PUSH0 MSTORE PUSH1 0x20 PUSH0 KECCAK256 SWAP1 PUSH1 0x2 MUL ADD SWAP1 DUP1 PUSH1 0x1 DUP2 SLOAD ADD DUP1 DUP3 SSTORE DUP1 SWAP2 POP POP PUSH1 0x1 SWAP1 SUB SWAP1 PUSH0 MSTORE PUSH1 0x20 PUSH0 KECCAK256 SWAP1 PUSH1 0x2 MUL ADD PUSH0 SWAP1 SWAP2 SWAP1 SWAP2 SWAP1 SWAP2 POP PUSH0 DUP3 ADD DUP2 PUSH0 ADD SWAP1 DUP2 PUSH2 0x177 SWAP2 SWAP1 PUSH2 0x8DB JUMP JUMPDEST POP PUSH1 0x1 DUP3 ADD PUSH0 SWAP1 SLOAD SWAP1 PUSH2 0x100 EXP SWAP1 DIV PUSH1 0xFF AND DUP2 PUSH1 0x1 ADD PUSH0 PUSH2 0x100 EXP DUP2 SLOAD DUP2 PUSH1 0xFF MUL NOT AND SWAP1 DUP4 ISZERO ISZERO MUL OR SWAP1 SSTORE POP POP POP JUMPDEST DUP1 DUP1 PUSH1 0x1 ADD SWAP2 POP POP PUSH2 0xD8 JUMP JUMPDEST POP JUMP JUMPDEST PUSH0 DUP2 DUP2 SLOAD DUP2 LT PUSH2 0x1C4 JUMPI PUSH0 DUP1 REVERT JUMPDEST SWAP1 PUSH0 MSTORE PUSH1 0x20 PUSH0 KECCAK256 SWAP1 PUSH1 0x2 MUL ADD PUSH0 SWAP2 POP SWAP1 POP DUP1 PUSH0 ADD DUP1 SLOAD PUSH2 0x1E3 SWAP1 PUSH2 0x6F9 JUMP JUMPDEST DUP1 PUSH1 0x1F ADD PUSH1 0x20 DUP1 SWAP2 DIV MUL PUSH1 0x20 ADD PUSH1 0x40 MLOAD SWAP1 DUP2 ADD PUSH1 0x40 MSTORE DUP1 SWAP3 SWAP2 SWAP1 DUP2 DUP2 MSTORE PUSH1 0x20 ADD DUP3 DUP1 SLOAD PUSH2 0x20F SWAP1 PUSH2 0x6F9 JUMP JUMPDEST DUP1 ISZERO PUSH2 0x25A JUMPI DUP1 PUSH1 0x1F LT PUSH2 0x231 JUMPI PUSH2 0x100 DUP1 DUP4 SLOAD DIV MUL DUP4 MSTORE SWAP2 PUSH1 0x20 ADD SWAP2 PUSH2 0x25A JUMP JUMPDEST DUP3 ADD SWAP2 SWAP1 PUSH0 MSTORE PUSH1 0x20 PUSH0 KECCAK256 SWAP1 JUMPDEST DUP2 SLOAD DUP2 MSTORE SWAP1 PUSH1 0x1 ADD SWAP1 PUSH1 0x20 ADD DUP1 DUP4 GT PUSH2 0x23D JUMPI DUP3 SWAP1 SUB PUSH1 0x1F AND DUP3 ADD SWAP2 JUMPDEST POP POP POP POP POP SWAP1 DUP1 PUSH1 0x1 ADD PUSH0 SWAP1 SLOAD SWAP1 PUSH2 0x100 EXP SWAP1 DIV PUSH1 0xFF AND SWAP1 POP DUP3 JUMP JUMPDEST PUSH0 PUSH1 0x40 MLOAD DUP1 PUSH1 0x40 ADD PUSH1 0x40 MSTORE DUP1 DUP5 DUP2 MSTORE PUSH1 0x20 ADD DUP4 ISZERO ISZERO DUP2 MSTORE POP SWAP1 DUP1 PUSH1 0x1 DUP2 SLOAD ADD DUP1 DUP3 SSTORE DUP1 SWAP2 POP POP PUSH1 0x1 SWAP1 SUB SWAP1 PUSH0 MSTORE PUSH1 0x20 PUSH0 KECCAK256 SWAP1 PUSH1 0x2 MUL ADD PUSH0 SWAP1 SWAP2 SWAP1 SWAP2 SWAP1 SWAP2 POP PUSH0 DUP3 ADD MLOAD DUP2 PUSH0 ADD SWAP1 DUP2 PUSH2 0x2C7 SWAP2 SWAP1 PUSH2 0x9C0 JUMP JUMPDEST POP PUSH1 0x20 DUP3 ADD MLOAD DUP2 PUSH1 0x1 ADD PUSH0 PUSH2 0x100 EXP DUP2 SLOAD DUP2 PUSH1 0xFF MUL NOT AND SWAP1 DUP4 ISZERO ISZERO MUL OR SWAP1 SSTORE POP POP POP POP POP JUMP JUMPDEST PUSH1 0x1 DUP2 DUP2 SLOAD DUP2 LT PUSH2 0x2FC JUMPI PUSH0 DUP1 REVERT JUMPDEST SWAP1 PUSH0 MSTORE PUSH1 0x20 PUSH0 KECCAK256 SWAP1 PUSH1 0x2 MUL ADD PUSH0 SWAP2 POP SWAP1 POP DUP1 PUSH0 ADD DUP1 SLOAD PUSH2 0x31B SWAP1 PUSH2 0x6F9 JUMP JUMPDEST DUP1 PUSH1 0x1F ADD PUSH1 0x20 DUP1 SWAP2 DIV MUL PUSH1 0x20 ADD PUSH1 0x40 MLOAD SWAP1 DUP2 ADD PUSH1 0x40 MSTORE DUP1 SWAP3 SWAP2 SWAP1 DUP2 DUP2 MSTORE PUSH1 0x20 ADD DUP3 DUP1 SLOAD PUSH2 0x347 SWAP1 PUSH2 0x6F9 JUMP JUMPDEST DUP1 ISZERO PUSH2 0x392 JUMPI DUP1 PUSH1 0x1F LT PUSH2 0x369 JUMPI PUSH2 0x100 DUP1 DUP4 SLOAD DIV MUL DUP4 MSTORE SWAP2 PUSH1 0x20 ADD SWAP2 PUSH2 0x392 JUMP JUMPDEST DUP3 ADD SWAP2 SWAP1 PUSH0 MSTORE PUSH1 0x20 PUSH0 KECCAK256 SWAP1 JUMPDEST DUP2 SLOAD DUP2 MSTORE SWAP1 PUSH1 0x1 ADD SWAP1 PUSH1 0x20 ADD DUP1 DUP4 GT PUSH2 0x375 JUMPI DUP3 SWAP1 SUB PUSH1 0x1F AND DUP3 ADD SWAP2 JUMPDEST POP POP POP POP POP SWAP1 DUP1 PUSH1 0x1 ADD PUSH0 SWAP1 SLOAD SWAP1 PUSH2 0x100 EXP SWAP1 DIV PUSH1 0xFF AND SWAP1 POP DUP3 JUMP JUMPDEST PUSH0 PUSH1 0x40 MLOAD SWAP1 POP SWAP1 JUMP JUMPDEST PUSH0 DUP1 REVERT JUMPDEST PUSH0 DUP1 REVERT JUMPDEST PUSH0 DUP2 SWAP1 POP SWAP2 SWAP1 POP JUMP JUMPDEST PUSH2 0x3D1 DUP2 PUSH2 0x3BF JUMP JUMPDEST DUP2 EQ PUSH2 0x3DB JUMPI PUSH0 DUP1 REVERT JUMPDEST POP JUMP JUMPDEST PUSH0 DUP2 CALLDATALOAD SWAP1 POP PUSH2 0x3EC DUP2 PUSH2 0x3C8 JUMP JUMPDEST SWAP3 SWAP2 POP POP JUMP JUMPDEST PUSH0 PUSH1 0x20 DUP3 DUP5 SUB SLT ISZERO PUSH2 0x407 JUMPI PUSH2 0x406 PUSH2 0x3B7 JUMP JUMPDEST JUMPDEST PUSH0 PUSH2 0x414 DUP5 DUP3 DUP6 ADD PUSH2 0x3DE JUMP JUMPDEST SWAP2 POP POP SWAP3 SWAP2 POP POP JUMP JUMPDEST PUSH0 DUP2 MLOAD SWAP1 POP SWAP2 SWAP1 POP JUMP JUMPDEST PUSH0 DUP3 DUP3 MSTORE PUSH1 0x20 DUP3 ADD SWAP1 POP SWAP3 SWAP2 POP POP JUMP JUMPDEST PUSH0 JUMPDEST DUP4 DUP2 LT ISZERO PUSH2 0x454 JUMPI DUP1 DUP3 ADD MLOAD DUP2 DUP5 ADD MSTORE PUSH1 0x20 DUP2 ADD SWAP1 POP PUSH2 0x439 JUMP JUMPDEST PUSH0 DUP5 DUP5 ADD MSTORE POP POP POP POP JUMP JUMPDEST PUSH0 PUSH1 0x1F NOT PUSH1 0x1F DUP4 ADD AND SWAP1 POP SWAP2 SWAP1 POP JUMP JUMPDEST PUSH0 PUSH2 0x479 DUP3 PUSH2 0x41D JUMP JUMPDEST PUSH2 0x483 DUP2 DUP6 PUSH2 0x427 JUMP JUMPDEST SWAP4 POP PUSH2 0x493 DUP2 DUP6 PUSH1 0x20 DUP7 ADD PUSH2 0x437 JUMP JUMPDEST PUSH2 0x49C DUP2 PUSH2 0x45F JUMP JUMPDEST DUP5 ADD SWAP2 POP POP SWAP3 SWAP2 POP POP JUMP JUMPDEST PUSH0 DUP2 ISZERO ISZERO SWAP1 POP SWAP2 SWAP1 POP JUMP JUMPDEST PUSH2 0x4BB DUP2 PUSH2 0x4A7 JUMP JUMPDEST DUP3 MSTORE POP POP JUMP JUMPDEST PUSH0 PUSH1 0x40 DUP3 ADD SWAP1 POP DUP2 DUP2 SUB PUSH0 DUP4 ADD MSTORE PUSH2 0x4D9 DUP2 DUP6 PUSH2 0x46F JUMP JUMPDEST SWAP1 POP PUSH2 0x4E8 PUSH1 0x20 DUP4 ADD DUP5 PUSH2 0x4B2 JUMP JUMPDEST SWAP4 SWAP3 POP POP POP JUMP JUMPDEST PUSH0 DUP1 REVERT JUMPDEST PUSH0 DUP1 REVERT JUMPDEST PUSH32 0x4E487B7100000000000000000000000000000000000000000000000000000000 PUSH0 MSTORE PUSH1 0x41 PUSH1 0x4 MSTORE PUSH1 0x24 PUSH0 REVERT JUMPDEST PUSH2 0x52D DUP3 PUSH2 0x45F JUMP JUMPDEST DUP2 ADD DUP2 DUP2 LT PUSH8 0xFFFFFFFFFFFFFFFF DUP3 GT OR ISZERO PUSH2 0x54C JUMPI PUSH2 0x54B PUSH2 0x4F7 JUMP JUMPDEST JUMPDEST DUP1 PUSH1 0x40 MSTORE POP POP POP JUMP JUMPDEST PUSH0 PUSH2 0x55E PUSH2 0x3AE JUMP JUMPDEST SWAP1 POP PUSH2 0x56A DUP3 DUP3 PUSH2 0x524 JUMP JUMPDEST SWAP2 SWAP1 POP JUMP JUMPDEST PUSH0 PUSH8 0xFFFFFFFFFFFFFFFF DUP3 GT ISZERO PUSH2 0x589 JUMPI PUSH2 0x588 PUSH2 0x4F7 JUMP JUMPDEST JUMPDEST PUSH2 0x592 DUP3 PUSH2 0x45F JUMP JUMPDEST SWAP1 POP PUSH1 0x20 DUP2 ADD SWAP1 POP SWAP2 SWAP1 POP JUMP JUMPDEST DUP3 DUP2 DUP4 CALLDATACOPY PUSH0 DUP4 DUP4 ADD MSTORE POP POP POP JUMP JUMPDEST PUSH0 PUSH2 0x5BF PUSH2 0x5BA DUP5 PUSH2 0x56F JUMP JUMPDEST PUSH2 0x555 JUMP JUMPDEST SWAP1 POP DUP3 DUP2 MSTORE PUSH1 0x20 DUP2 ADD DUP5 DUP5 DUP5 ADD GT ISZERO PUSH2 0x5DB JUMPI PUSH2 0x5DA PUSH2 0x4F3 JUMP JUMPDEST JUMPDEST PUSH2 0x5E6 DUP5 DUP3 DUP6 PUSH2 0x59F JUMP JUMPDEST POP SWAP4 SWAP3 POP POP POP JUMP JUMPDEST PUSH0 DUP3 PUSH1 0x1F DUP4 ADD SLT PUSH2 0x602 JUMPI PUSH2 0x601 PUSH2 0x4EF JUMP JUMPDEST JUMPDEST DUP2 CALLDATALOAD PUSH2 0x612 DUP5 DUP3 PUSH1 0x20 DUP7 ADD PUSH2 0x5AD JUMP JUMPDEST SWAP2 POP POP SWAP3 SWAP2 POP POP JUMP JUMPDEST PUSH2 0x624 DUP2 PUSH2 0x4A7 JUMP JUMPDEST DUP2 EQ PUSH2 0x62E JUMPI PUSH0 DUP1 REVERT JUMPDEST POP JUMP JUMPDEST PUSH0 DUP2 CALLDATALOAD SWAP1 POP PUSH2 0x63F DUP2 PUSH2 0x61B JUMP JUMPDEST SWAP3 SWAP2 POP POP JUMP JUMPDEST PUSH0 DUP1 PUSH1 0x40 DUP4 DUP6 SUB SLT ISZERO PUSH2 0x65B JUMPI PUSH2 0x65A PUSH2 0x3B7 JUMP JUMPDEST JUMPDEST PUSH0 DUP4 ADD CALLDATALOAD PUSH8 0xFFFFFFFFFFFFFFFF DUP2 GT ISZERO PUSH2 0x678 JUMPI PUSH2 0x677 PUSH2 0x3BB JUMP JUMPDEST JUMPDEST PUSH2 0x684 DUP6 DUP3 DUP7 ADD PUSH2 0x5EE JUMP JUMPDEST SWAP3 POP POP PUSH1 0x20 PUSH2 0x695 DUP6 DUP3 DUP7 ADD PUSH2 0x631 JUMP JUMPDEST SWAP2 POP POP SWAP3 POP SWAP3 SWAP1 POP JUMP JUMPDEST PUSH32 0x4E487B7100000000000000000000000000000000000000000000000000000000 PUSH0 MSTORE PUSH1 0x32 PUSH1 0x4 MSTORE PUSH1 0x24 PUSH0 REVERT JUMPDEST PUSH32 0x4E487B7100000000000000000000000000000000000000000000000000000000 PUSH0 MSTORE PUSH1 0x22 PUSH1 0x4 MSTORE PUSH1 0x24 PUSH0 REVERT JUMPDEST PUSH0 PUSH1 0x2 DUP3 DIV SWAP1 POP PUSH1 0x1 DUP3 AND DUP1 PUSH2 0x710 JUMPI PUSH1 0x7F DUP3 AND SWAP2 POP JUMPDEST PUSH1 0x20 DUP3 LT DUP2 SUB PUSH2 0x723 JUMPI PUSH2 0x722 PUSH2 0x6CC JUMP JUMPDEST JUMPDEST POP SWAP2 SWAP1 POP JUMP JUMPDEST PUSH0 DUP2 SLOAD SWAP1 POP PUSH2 0x737 DUP2 PUSH2 0x6F9 JUMP JUMPDEST SWAP1 POP SWAP2 SWAP1 POP JUMP JUMPDEST PUSH0 DUP2 SWAP1 POP DUP2 PUSH0 MSTORE PUSH1 0x20 PUSH0 KECCAK256 SWAP1 POP SWAP2 SWAP1 POP JUMP JUMPDEST PUSH0 PUSH1 0x20 PUSH1 0x1F DUP4 ADD DIV SWAP1 POP SWAP2 SWAP1 POP JUMP JUMPDEST PUSH0 DUP3 DUP3 SHL SWAP1 POP SWAP3 SWAP2 POP POP JUMP JUMPDEST PUSH0 PUSH1 0x8 DUP4 MUL PUSH2 0x79A PUSH32 0xFFFFFFFFFFFFFFFFFFFFFFFFFFFFFFFFFFFFFFFFFFFFFFFFFFFFFFFFFFFFFFFF DUP3 PUSH2 0x75F JUMP JUMPDEST PUSH2 0x7A4 DUP7 DUP4 PUSH2 0x75F JUMP JUMPDEST SWAP6 POP DUP1 NOT DUP5 AND SWAP4 POP DUP1 DUP7 AND DUP5 OR SWAP3 POP POP POP SWAP4 SWAP3 POP POP POP JUMP JUMPDEST PUSH0 DUP2 SWAP1 POP SWAP2 SWAP1 POP JUMP JUMPDEST PUSH0 PUSH2 0x7DF PUSH2 0x7DA PUSH2 0x7D5 DUP5 PUSH2 0x3BF JUMP JUMPDEST PUSH2 0x7BC JUMP JUMPDEST PUSH2 0x3BF JUMP JUMPDEST SWAP1 POP SWAP2 SWAP1 POP JUMP JUMPDEST PUSH0 DUP2 SWAP1 POP SWAP2 SWAP1 POP JUMP JUMPDEST PUSH2 0x7F8 DUP4 PUSH2 0x7C5 JUMP JUMPDEST PUSH2 0x80C PUSH2 0x804 DUP3 PUSH2 0x7E6 JUMP JUMPDEST DUP5 DUP5 SLOAD PUSH2 0x76B JUMP JUMPDEST DUP3 SSTORE POP POP POP POP JUMP JUMPDEST PUSH0 SWAP1 JUMP JUMPDEST PUSH2 0x820 PUSH2 0x814 JUMP JUMPDEST PUSH2 0x82B DUP2 DUP5 DUP5 PUSH2 0x7EF JUMP JUMPDEST POP POP POP JUMP JUMPDEST JUMPDEST DUP2 DUP2 LT ISZERO PUSH2 0x84E JUMPI PUSH2 0x843 PUSH0 DUP3 PUSH2 0x818 JUMP JUMPDEST PUSH1 0x1 DUP2 ADD SWAP1 POP PUSH2 0x831 JUMP JUMPDEST POP POP JUMP JUMPDEST PUSH1 0x1F DUP3 GT ISZERO PUSH2 0x893 JUMPI PUSH2 0x864 DUP2 PUSH2 0x73E JUMP JUMPDEST PUSH2 0x86D DUP5 PUSH2 0x750 JUMP JUMPDEST DUP2 ADD PUSH1 0x20 DUP6 LT ISZERO PUSH2 0x87C JUMPI DUP2 SWAP1 POP JUMPDEST PUSH2 0x890 PUSH2 0x888 DUP6 PUSH2 0x750 JUMP JUMPDEST DUP4 ADD DUP3 PUSH2 0x830 JUMP JUMPDEST POP POP JUMPDEST POP POP POP JUMP JUMPDEST PUSH0 DUP3 DUP3 SHR SWAP1 POP SWAP3 SWAP2 POP POP JUMP JUMPDEST PUSH0 PUSH2 0x8B3 PUSH0 NOT DUP5 PUSH1 0x8 MUL PUSH2 0x898 JUMP JUMPDEST NOT DUP1 DUP4 AND SWAP2 POP POP SWAP3 SWAP2 POP POP JUMP JUMPDEST PUSH0 PUSH2 0x8CB DUP4 DUP4 PUSH2 0x8A4 JUMP JUMPDEST SWAP2 POP DUP3 PUSH1 0x2 MUL DUP3 OR SWAP1 POP SWAP3 SWAP2 POP POP JUMP JUMPDEST DUP2 DUP2 SUB PUSH2 0x8E9 JUMPI POP POP PUSH2 0x9BE JUMP JUMPDEST PUSH2 0x8F2 DUP3 PUSH2 0x729 JUMP JUMPDEST PUSH8 0xFFFFFFFFFFFFFFFF DUP2 GT ISZERO PUSH2 0x90B JUMPI PUSH2 0x90A PUSH2 0x4F7 JUMP JUMPDEST JUMPDEST PUSH2 0x915 DUP3 SLOAD PUSH2 0x6F9 JUMP JUMPDEST PUSH2 0x920 DUP3 DUP3 DUP6 PUSH2 0x852 JUMP JUMPDEST PUSH0 PUSH1 0x1F DUP4 GT PUSH1 0x1 DUP2 EQ PUSH2 0x94D JUMPI PUSH0 DUP5 ISZERO PUSH2 0x93B JUMPI DUP3 DUP8 ADD SLOAD SWAP1 POP JUMPDEST PUSH2 0x945 DUP6 DUP3 PUSH2 0x8C0 JUMP JUMPDEST DUP7 SSTORE POP PUSH2 0x9B7 JUMP JUMPDEST PUSH1 0x1F NOT DUP5 AND PUSH2 0x95B DUP8 PUSH2 0x73E JUMP JUMPDEST SWAP7 POP PUSH2 0x966 DUP7 PUSH2 0x73E JUMP JUMPDEST PUSH0 JUMPDEST DUP3 DUP2 LT ISZERO PUSH2 0x98D JUMPI DUP5 DUP10 ADD SLOAD DUP3 SSTORE PUSH1 0x1 DUP3 ADD SWAP2 POP PUSH1 0x1 DUP6 ADD SWAP5 POP PUSH1 0x20 DUP2 ADD SWAP1 POP PUSH2 0x968 JUMP JUMPDEST DUP7 DUP4 LT ISZERO PUSH2 0x9AA JUMPI DUP5 DUP10 ADD SLOAD PUSH2 0x9A6 PUSH1 0x1F DUP10 AND DUP3 PUSH2 0x8A4 JUMP JUMPDEST DUP4 SSTORE POP JUMPDEST PUSH1 0x1 PUSH1 0x2 DUP9 MUL ADD DUP9 SSTORE POP POP POP JUMPDEST POP POP POP POP POP POP JUMPDEST JUMP JUMPDEST PUSH2 0x9C9 DUP3 PUSH2 0x41D JUMP JUMPDEST PUSH8 0xFFFFFFFFFFFFFFFF DUP2 GT ISZERO PUSH2 0x9E2 JUMPI PUSH2 0x9E1 PUSH2 0x4F7 JUMP JUMPDEST JUMPDEST PUSH2 0x9EC DUP3 SLOAD PUSH2 0x6F9 JUMP JUMPDEST PUSH2 0x9F7 DUP3 DUP3 DUP6 PUSH2 0x852 JUMP JUMPDEST PUSH0 PUSH1 0x20 SWAP1 POP PUSH1 0x1F DUP4 GT PUSH1 0x1 DUP2 EQ PUSH2 0xA28 JUMPI PUSH0 DUP5 ISZERO PUSH2 0xA16 JUMPI DUP3 DUP8 ADD MLOAD SWAP1 POP JUMPDEST PUSH2 0xA20 DUP6 DUP3 PUSH2 0x8C0 JUMP JUMPDEST DUP7 SSTORE POP PUSH2 0xA87 JUMP JUMPDEST PUSH1 0x1F NOT DUP5 AND PUSH2 0xA36 DUP7 PUSH2 0x73E JUMP JUMPDEST PUSH0 JUMPDEST DUP3 DUP2 LT ISZERO PUSH2 0xA5D JUMPI DUP5 DUP10 ADD MLOAD DUP3 SSTORE PUSH1 0x1 DUP3 ADD SWAP2 POP PUSH1 0x20 DUP6 ADD SWAP5 POP PUSH1 0x20 DUP2 ADD SWAP1 POP PUSH2 0xA38 JUMP JUMPDEST DUP7 DUP4 LT ISZERO PUSH2 0xA7A JUMPI DUP5 DUP10 ADD MLOAD PUSH2 0xA76 PUSH1 0x1F DUP10 AND DUP3 PUSH2 0x8A4 JUMP JUMPDEST DUP4 SSTORE POP JUMPDEST PUSH1 0x1 PUSH1 0x2 DUP9 MUL ADD DUP9 SSTORE POP POP POP JUMPDEST POP POP POP POP POP POP JUMP INVALID LOG2 PUSH5 0x6970667358 0x22 SLT KECCAK256 0x22 NUMBER MUL CHAINID PUSH20 0x372F1DCB38D7990EC723DD49A33F41C0D838DD2 0xCE DUP13 PC DUP4 SGT SAR SWAP10 PUSH5 0x736F6C6343 STOP ADDMOD AND STOP CALLER "
		},
		"gasEstimates": {
			"creation": {
				"codeDepositCost": "551400",
				"executionCost": "585",
				"totalCost": "551985"
			},
			"external": {
				"addFriend(string,bool)": "infinite",
				"addGuest()": "infinite",
				"friendList(uint256)": "infinite",
				"guestList(uint256)": "infinite"
			}
		},
		"methodIdentifiers": {
			"addFriend(string,bool)": "756030b9",
			"addGuest()": "1eec93af",
			"friendList(uint256)": "21668a01",
			"guestList(uint256)": "f5fccd8f"
		}
	},
	"abi": [
		{
			"inputs": [
				{
					"internalType": "string",
					"name": "_name",
					"type": "string"
				},
				{
					"internalType": "bool",
					"name": "_invited",
					"type": "bool"
				}
			],
			"name": "addFriend",
			"outputs": [],
			"stateMutability": "nonpayable",
			"type": "function"
		},
		{
			"inputs": [],
			"name": "addGuest",
			"outputs": [],
			"stateMutability": "nonpayable",
			"type": "function"
		},
		{
			"inputs": [
				{
					"internalType": "uint256",
					"name": "",
					"type": "uint256"
				}
			],
			"name": "friendList",
			"outputs": [
				{
					"internalType": "string",
					"name": "name",
					"type": "string"
				},
				{
					"internalType": "bool",
					"name": "invited",
					"type": "bool"
				}
			],
			"stateMutability": "view",
			"type": "function"
		},
		{
			"inputs": [
				{
					"internalType": "uint256",
					"name": "",
					"type": "uint256"
				}
			],
			"name": "guestList",
			"outputs": [
				{
					"internalType": "string",
					"name": "name",
					"type": "string"
				},
				{
					"internalType": "bool",
					"name": "invited",
					"type": "bool"
				}
			],
			"stateMutability": "view",
			"type": "function"
		}
	]
}