{
	"data": {
		"bytecode": {
			"linkReferences": {},
			"object": "60806040526040516200080438038062000804833981810160405281019062000029919062000206565b815f81905550806001908162000040919062000498565b5050506200057c565b5f604051905090565b5f80fd5b5f80fd5b5f819050919050565b6200006e816200005a565b811462000079575f80fd5b50565b5f815190506200008c8162000063565b92915050565b5f80fd5b5f80fd5b5f601f19601f8301169050919050565b7f4e487b71000000000000000000000000000000000000000000000000000000005f52604160045260245ffd5b620000e2826200009a565b810181811067ffffffffffffffff82111715620001045762000103620000aa565b5b80604052505050565b5f6200011862000049565b9050620001268282620000d7565b919050565b5f67ffffffffffffffff821115620001485762000147620000aa565b5b62000153826200009a565b9050602081019050919050565b5f5b838110156200017f57808201518184015260208101905062000162565b5f8484015250505050565b5f620001a06200019a846200012b565b6200010d565b905082815260208101848484011115620001bf57620001be62000096565b5b620001cc84828562000160565b509392505050565b5f82601f830112620001eb57620001ea62000092565b5b8151620001fd8482602086016200018a565b91505092915050565b5f80604083850312156200021f576200021e62000052565b5b5f6200022e858286016200007c565b925050602083015167ffffffffffffffff81111562000252576200025162000056565b5b6200026085828601620001d4565b9150509250929050565b5f81519050919050565b7f4e487b71000000000000000000000000000000000000000000000000000000005f52602260045260245ffd5b5f6002820490506001821680620002b957607f821691505b602082108103620002cf57620002ce62000274565b5b50919050565b5f819050815f5260205f209050919050565b5f6020601f8301049050919050565b5f82821b905092915050565b5f60088302620003337fffffffffffffffffffffffffffffffffffffffffffffffffffffffffffffffff82620002f6565b6200033f8683620002f6565b95508019841693508086168417925050509392505050565b5f819050919050565b5f620003806200037a62000374846200005a565b62000357565b6200005a565b9050919050565b5f819050919050565b6200039b8362000360565b620003b3620003aa8262000387565b84845462000302565b825550505050565b5f90565b620003c9620003bb565b620003d681848462000390565b505050565b5b81811015620003fd57620003f15f82620003bf565b600181019050620003dc565b5050565b601f8211156200044c576200041681620002d5565b6200042184620002e7565b8101602085101562000431578190505b620004496200044085620002e7565b830182620003db565b50505b505050565b5f82821c905092915050565b5f6200046e5f198460080262000451565b1980831691505092915050565b5f6200048883836200045d565b9150826002028217905092915050565b620004a3826200026a565b67ffffffffffffffff811115620004bf57620004be620000aa565b5b620004cb8254620002a1565b620004d882828562000401565b5f60209050601f8311600181146200050e575f8415620004f9578287015190505b6200050585826200047b565b86555062000574565b601f1984166200051e86620002d5565b5f5b82811015620005475784890151825560018201915060208501945060208101905062000520565b8683101562000567578489015162000563601f8916826200045d565b8355505b6001600288020188555050505b505050505050565b61027a806200058a5f395ff3fe608060405234801561000f575f80fd5b5060043610610034575f3560e01c80630781f5c914610038578063266cf10914610056575b5f80fd5b610040610074565b60405161004d91906101c7565b60405180910390f35b61005e6100b1565b60405161006b91906101c7565b60405180910390f35b60606040518060400160405280600681526020017f737472696e670000000000000000000000000000000000000000000000000000815250905090565b600180546100be90610214565b80601f01602080910402602001604051908101604052809291908181526020018280546100ea90610214565b80156101355780601f1061010c57610100808354040283529160200191610135565b820191905f5260205f20905b81548152906001019060200180831161011857829003601f168201915b505050505081565b5f81519050919050565b5f82825260208201905092915050565b5f5b83811015610174578082015181840152602081019050610159565b5f8484015250505050565b5f601f19601f8301169050919050565b5f6101998261013d565b6101a38185610147565b93506101b3818560208601610157565b6101bc8161017f565b840191505092915050565b5f6020820190508181035f8301526101df818461018f565b905092915050565b7f4e487b71000000000000000000000000000000000000000000000000000000005f52602260045260245ffd5b5f600282049050600182168061022b57607f821691505b60208210810361023e5761023d6101e7565b5b5091905056fea2646970667358221220116b8216fdc6f87c40d0368b28268c492989d2f71a5825d22cc7da7f6eea98b064736f6c63430008160033",
			"opcodes": "PUSH1 0x80 PUSH1 0x40 MSTORE PUSH1 0x40 MLOAD PUSH3 0x804 CODESIZE SUB DUP1 PUSH3 0x804 DUP4 CODECOPY DUP2 DUP2 ADD PUSH1 0x40 MSTORE DUP2 ADD SWAP1 PUSH3 0x29 SWAP2 SWAP1 PUSH3 0x206 JUMP JUMPDEST DUP2 PUSH0 DUP2 SWAP1 SSTORE POP DUP1 PUSH1 0x1 SWAP1 DUP2 PUSH3 0x40 SWAP2 SWAP1 PUSH3 0x498 JUMP JUMPDEST POP POP POP PUSH3 0x57C JUMP JUMPDEST PUSH0 PUSH1 0x40 MLOAD SWAP1 POP SWAP1 JUMP JUMPDEST PUSH0 DUP1 REVERT JUMPDEST PUSH0 DUP1 REVERT JUMPDEST PUSH0 DUP2 SWAP1 POP SWAP2 SWAP1 POP JUMP JUMPDEST PUSH3 0x6E DUP2 PUSH3 0x5A JUMP JUMPDEST DUP2 EQ PUSH3 0x79 JUMPI PUSH0 DUP1 REVERT JUMPDEST POP JUMP JUMPDEST PUSH0 DUP2 MLOAD SWAP1 POP PUSH3 0x8C DUP2 PUSH3 0x63 JUMP JUMPDEST SWAP3 SWAP2 POP POP JUMP JUMPDEST PUSH0 DUP1 REVERT JUMPDEST PUSH0 DUP1 REVERT JUMPDEST PUSH0 PUSH1 0x1F NOT PUSH1 0x1F DUP4 ADD AND SWAP1 POP SWAP2 SWAP1 POP JUMP JUMPDEST PUSH32 0x4E487B7100000000000000000000000000000000000000000000000000000000 PUSH0 MSTORE PUSH1 0x41 PUSH1 0x4 MSTORE PUSH1 0x24 PUSH0 REVERT JUMPDEST PUSH3 0xE2 DUP3 PUSH3 0x9A JUMP JUMPDEST DUP2 ADD DUP2 DUP2 LT PUSH8 0xFFFFFFFFFFFFFFFF DUP3 GT OR ISZERO PUSH3 0x104 JUMPI PUSH3 0x103 PUSH3 0xAA JUMP JUMPDEST JUMPDEST DUP1 PUSH1 0x40 MSTORE POP POP POP JUMP JUMPDEST PUSH0 PUSH3 0x118 PUSH3 0x49 JUMP JUMPDEST SWAP1 POP PUSH3 0x126 DUP3 DUP3 PUSH3 0xD7 JUMP JUMPDEST SWAP2 SWAP1 POP JUMP JUMPDEST PUSH0 PUSH8 0xFFFFFFFFFFFFFFFF DUP3 GT ISZERO PUSH3 0x148 JUMPI PUSH3 0x147 PUSH3 0xAA JUMP JUMPDEST JUMPDEST PUSH3 0x153 DUP3 PUSH3 0x9A JUMP JUMPDEST SWAP1 POP PUSH1 0x20 DUP2 ADD SWAP1 POP SWAP2 SWAP1 POP JUMP JUMPDEST PUSH0 JUMPDEST DUP4 DUP2 LT ISZERO PUSH3 0x17F JUMPI DUP1 DUP3 ADD MLOAD DUP2 DUP5 ADD MSTORE PUSH1 0x20 DUP2 ADD SWAP1 POP PUSH3 0x162 JUMP JUMPDEST PUSH0 DUP5 DUP5 ADD MSTORE POP POP POP POP JUMP JUMPDEST PUSH0 PUSH3 0x1A0 PUSH3 0x19A DUP5 PUSH3 0x12B JUMP JUMPDEST PUSH3 0x10D JUMP JUMPDEST SWAP1 POP DUP3 DUP2 MSTORE PUSH1 0x20 DUP2 ADD DUP5 DUP5 DUP5 ADD GT ISZERO PUSH3 0x1BF JUMPI PUSH3 0x1BE PUSH3 0x96 JUMP JUMPDEST JUMPDEST PUSH3 0x1CC DUP5 DUP3 DUP6 PUSH3 0x160 JUMP JUMPDEST POP SWAP4 SWAP3 POP POP POP JUMP JUMPDEST PUSH0 DUP3 PUSH1 0x1F DUP4 ADD SLT PUSH3 0x1EB JUMPI PUSH3 0x1EA PUSH3 0x92 JUMP JUMPDEST JUMPDEST DUP2 MLOAD PUSH3 0x1FD DUP5 DUP3 PUSH1 0x20 DUP7 ADD PUSH3 0x18A JUMP JUMPDEST SWAP2 POP POP SWAP3 SWAP2 POP POP JUMP JUMPDEST PUSH0 DUP1 PUSH1 0x40 DUP4 DUP6 SUB SLT ISZERO PUSH3 0x21F JUMPI PUSH3 0x21E PUSH3 0x52 JUMP JUMPDEST JUMPDEST PUSH0 PUSH3 0x22E DUP6 DUP3 DUP7 ADD PUSH3 0x7C JUMP JUMPDEST SWAP3 POP POP PUSH1 0x20 DUP4 ADD MLOAD PUSH8 0xFFFFFFFFFFFFFFFF DUP2 GT ISZERO PUSH3 0x252 JUMPI PUSH3 0x251 PUSH3 0x56 JUMP JUMPDEST JUMPDEST PUSH3 0x260 DUP6 DUP3 DUP7 ADD PUSH3 0x1D4 JUMP JUMPDEST SWAP2 POP POP SWAP3 POP SWAP3 SWAP1 POP JUMP JUMPDEST PUSH0 DUP2 MLOAD SWAP1 POP SWAP2 SWAP1 POP JUMP JUMPDEST PUSH32 0x4E487B7100000000000000000000000000000000000000000000000000000000 PUSH0 MSTORE PUSH1 0x22 PUSH1 0x4 MSTORE PUSH1 0x24 PUSH0 REVERT JUMPDEST PUSH0 PUSH1 0x2 DUP3 DIV SWAP1 POP PUSH1 0x1 DUP3 AND DUP1 PUSH3 0x2B9 JUMPI PUSH1 0x7F DUP3 AND SWAP2 POP JUMPDEST PUSH1 0x20 DUP3 LT DUP2 SUB PUSH3 0x2CF JUMPI PUSH3 0x2CE PUSH3 0x274 JUMP JUMPDEST JUMPDEST POP SWAP2 SWAP1 POP JUMP JUMPDEST PUSH0 DUP2 SWAP1 POP DUP2 PUSH0 MSTORE PUSH1 0x20 PUSH0 KECCAK256 SWAP1 POP SWAP2 SWAP1 POP JUMP JUMPDEST PUSH0 PUSH1 0x20 PUSH1 0x1F DUP4 ADD DIV SWAP1 POP SWAP2 SWAP1 POP JUMP JUMPDEST PUSH0 DUP3 DUP3 SHL SWAP1 POP SWAP3 SWAP2 POP POP JUMP JUMPDEST PUSH0 PUSH1 0x8 DUP4 MUL PUSH3 0x333 PUSH32 0xFFFFFFFFFFFFFFFFFFFFFFFFFFFFFFFFFFFFFFFFFFFFFFFFFFFFFFFFFFFFFFFF DUP3 PUSH3 0x2F6 JUMP JUMPDEST PUSH3 0x33F DUP7 DUP4 PUSH3 0x2F6 JUMP JUMPDEST SWAP6 POP DUP1 NOT DUP5 AND SWAP4 POP DUP1 DUP7 AND DUP5 OR SWAP3 POP POP POP SWAP4 SWAP3 POP POP POP JUMP JUMPDEST PUSH0 DUP2 SWAP1 POP SWAP2 SWAP1 POP JUMP JUMPDEST PUSH0 PUSH3 0x380 PUSH3 0x37A PUSH3 0x374 DUP5 PUSH3 0x5A JUMP JUMPDEST PUSH3 0x357 JUMP JUMPDEST PUSH3 0x5A JUMP JUMPDEST SWAP1 POP SWAP2 SWAP1 POP JUMP JUMPDEST PUSH0 DUP2 SWAP1 POP SWAP2 SWAP1 POP JUMP JUMPDEST PUSH3 0x39B DUP4 PUSH3 0x360 JUMP JUMPDEST PUSH3 0x3B3 PUSH3 0x3AA DUP3 PUSH3 0x387 JUMP JUMPDEST DUP5 DUP5 SLOAD PUSH3 0x302 JUMP JUMPDEST DUP3 SSTORE POP POP POP POP JUMP JUMPDEST PUSH0 SWAP1 JUMP JUMPDEST PUSH3 0x3C9 PUSH3 0x3BB JUMP JUMPDEST PUSH3 0x3D6 DUP2 DUP5 DUP5 PUSH3 0x390 JUMP JUMPDEST POP POP POP JUMP JUMPDEST JUMPDEST DUP2 DUP2 LT ISZERO PUSH3 0x3FD JUMPI PUSH3 0x3F1 PUSH0 DUP3 PUSH3 0x3BF JUMP JUMPDEST PUSH1 0x1 DUP2 ADD SWAP1 POP PUSH3 0x3DC JUMP JUMPDEST POP POP JUMP JUMPDEST PUSH1 0x1F DUP3 GT ISZERO PUSH3 0x44C JUMPI PUSH3 0x416 DUP2 PUSH3 0x2D5 JUMP JUMPDEST PUSH3 0x421 DUP5 PUSH3 0x2E7 JUMP JUMPDEST DUP2 ADD PUSH1 0x20 DUP6 LT ISZERO PUSH3 0x431 JUMPI DUP2 SWAP1 POP JUMPDEST PUSH3 0x449 PUSH3 0x440 DUP6 PUSH3 0x2E7 JUMP JUMPDEST DUP4 ADD DUP3 PUSH3 0x3DB JUMP JUMPDEST POP POP JUMPDEST POP POP POP JUMP JUMPDEST PUSH0 DUP3 DUP3 SHR SWAP1 POP SWAP3 SWAP2 POP POP JUMP JUMPDEST PUSH0 PUSH3 0x46E PUSH0 NOT DUP5 PUSH1 0x8 MUL PUSH3 0x451 JUMP JUMPDEST NOT DUP1 DUP4 AND SWAP2 POP POP SWAP3 SWAP2 POP POP JUMP JUMPDEST PUSH0 PUSH3 0x488 DUP4 DUP4 PUSH3 0x45D JUMP JUMPDEST SWAP2 POP DUP3 PUSH1 0x2 MUL DUP3 OR SWAP1 POP SWAP3 SWAP2 POP POP JUMP JUMPDEST PUSH3 0x4A3 DUP3 PUSH3 0x26A JUMP JUMPDEST PUSH8 0xFFFFFFFFFFFFFFFF DUP2 GT ISZERO PUSH3 0x4BF JUMPI PUSH3 0x4BE PUSH3 0xAA JUMP JUMPDEST JUMPDEST PUSH3 0x4CB DUP3 SLOAD PUSH3 0x2A1 JUMP JUMPDEST PUSH3 0x4D8 DUP3 DUP3 DUP6 PUSH3 0x401 JUMP JUMPDEST PUSH0 PUSH1 0x20 SWAP1 POP PUSH1 0x1F DUP4 GT PUSH1 0x1 DUP2 EQ PUSH3 0x50E JUMPI PUSH0 DUP5 ISZERO PUSH3 0x4F9 JUMPI DUP3 DUP8 ADD MLOAD SWAP1 POP JUMPDEST PUSH3 0x505 DUP6 DUP3 PUSH3 0x47B JUMP JUMPDEST DUP7 SSTORE POP PUSH3 0x574 JUMP JUMPDEST PUSH1 0x1F NOT DUP5 AND PUSH3 0x51E DUP7 PUSH3 0x2D5 JUMP JUMPDEST PUSH0 JUMPDEST DUP3 DUP2 LT ISZERO PUSH3 0x547 JUMPI DUP5 DUP10 ADD MLOAD DUP3 SSTORE PUSH1 0x1 DUP3 ADD SWAP2 POP PUSH1 0x20 DUP6 ADD SWAP5 POP PUSH1 0x20 DUP2 ADD SWAP1 POP PUSH3 0x520 JUMP JUMPDEST DUP7 DUP4 LT ISZERO PUSH3 0x567 JUMPI DUP5 DUP10 ADD MLOAD PUSH3 0x563 PUSH1 0x1F DUP10 AND DUP3 PUSH3 0x45D JUMP JUMPDEST DUP4 SSTORE POP JUMPDEST PUSH1 0x1 PUSH1 0x2 DUP9 MUL ADD DUP9 SSTORE POP POP POP JUMPDEST POP POP POP POP POP POP JUMP JUMPDEST PUSH2 0x27A DUP1 PUSH3 0x58A PUSH0 CODECOPY PUSH0 RETURN INVALID PUSH1 0x80 PUSH1 0x40 MSTORE CALLVALUE DUP1 ISZERO PUSH2 0xF JUMPI PUSH0 DUP1 REVERT JUMPDEST POP PUSH1 0x4 CALLDATASIZE LT PUSH2 0x34 JUMPI PUSH0 CALLDATALOAD PUSH1 0xE0 SHR DUP1 PUSH4 0x781F5C9 EQ PUSH2 0x38 JUMPI DUP1 PUSH4 0x266CF109 EQ PUSH2 0x56 JUMPI JUMPDEST PUSH0 DUP1 REVERT JUMPDEST PUSH2 0x40 PUSH2 0x74 JUMP JUMPDEST PUSH1 0x40 MLOAD PUSH2 0x4D SWAP2 SWAP1 PUSH2 0x1C7 JUMP JUMPDEST PUSH1 0x40 MLOAD DUP1 SWAP2 SUB SWAP1 RETURN JUMPDEST PUSH2 0x5E PUSH2 0xB1 JUMP JUMPDEST PUSH1 0x40 MLOAD PUSH2 0x6B SWAP2 SWAP1 PUSH2 0x1C7 JUMP JUMPDEST PUSH1 0x40 MLOAD DUP1 SWAP2 SUB SWAP1 RETURN JUMPDEST PUSH1 0x60 PUSH1 0x40 MLOAD DUP1 PUSH1 0x40 ADD PUSH1 0x40 MSTORE DUP1 PUSH1 0x6 DUP2 MSTORE PUSH1 0x20 ADD PUSH32 0x737472696E670000000000000000000000000000000000000000000000000000 DUP2 MSTORE POP SWAP1 POP SWAP1 JUMP JUMPDEST PUSH1 0x1 DUP1 SLOAD PUSH2 0xBE SWAP1 PUSH2 0x214 JUMP JUMPDEST DUP1 PUSH1 0x1F ADD PUSH1 0x20 DUP1 SWAP2 DIV MUL PUSH1 0x20 ADD PUSH1 0x40 MLOAD SWAP1 DUP2 ADD PUSH1 0x40 MSTORE DUP1 SWAP3 SWAP2 SWAP1 DUP2 DUP2 MSTORE PUSH1 0x20 ADD DUP3 DUP1 SLOAD PUSH2 0xEA SWAP1 PUSH2 0x214 JUMP JUMPDEST DUP1 ISZERO PUSH2 0x135 JUMPI DUP1 PUSH1 0x1F LT PUSH2 0x10C JUMPI PUSH2 0x100 DUP1 DUP4 SLOAD DIV MUL DUP4 MSTORE SWAP2 PUSH1 0x20 ADD SWAP2 PUSH2 0x135 JUMP JUMPDEST DUP3 ADD SWAP2 SWAP1 PUSH0 MSTORE PUSH1 0x20 PUSH0 KECCAK256 SWAP1 JUMPDEST DUP2 SLOAD DUP2 MSTORE SWAP1 PUSH1 0x1 ADD SWAP1 PUSH1 0x20 ADD DUP1 DUP4 GT PUSH2 0x118 JUMPI DUP3 SWAP1 SUB PUSH1 0x1F AND DUP3 ADD SWAP2 JUMPDEST POP POP POP POP POP DUP2 JUMP JUMPDEST PUSH0 DUP2 MLOAD SWAP1 POP SWAP2 SWAP1 POP JUMP JUMPDEST PUSH0 DUP3 DUP3 MSTORE PUSH1 0x20 DUP3 ADD SWAP1 POP SWAP3 SWAP2 POP POP JUMP JUMPDEST PUSH0 JUMPDEST DUP4 DUP2 LT ISZERO PUSH2 0x174 JUMPI DUP1 DUP3 ADD MLOAD DUP2 DUP5 ADD MSTORE PUSH1 0x20 DUP2 ADD SWAP1 POP PUSH2 0x159 JUMP JUMPDEST PUSH0 DUP5 DUP5 ADD MSTORE POP POP POP POP JUMP JUMPDEST PUSH0 PUSH1 0x1F NOT PUSH1 0x1F DUP4 ADD AND SWAP1 POP SWAP2 SWAP1 POP JUMP JUMPDEST PUSH0 PUSH2 0x199 DUP3 PUSH2 0x13D JUMP JUMPDEST PUSH2 0x1A3 DUP2 DUP6 PUSH2 0x147 JUMP JUMPDEST SWAP4 POP PUSH2 0x1B3 DUP2 DUP6 PUSH1 0x20 DUP7 ADD PUSH2 0x157 JUMP JUMPDEST PUSH2 0x1BC DUP2 PUSH2 0x17F JUMP JUMPDEST DUP5 ADD SWAP2 POP POP SWAP3 SWAP2 POP POP JUMP JUMPDEST PUSH0 PUSH1 0x20 DUP3 ADD SWAP1 POP DUP2 DUP2 SUB PUSH0 DUP4 ADD MSTORE PUSH2 0x1DF DUP2 DUP5 PUSH2 0x18F JUMP JUMPDEST SWAP1 POP SWAP3 SWAP2 POP POP JUMP JUMPDEST PUSH32 0x4E487B7100000000000000000000000000000000000000000000000000000000 PUSH0 MSTORE PUSH1 0x22 PUSH1 0x4 MSTORE PUSH1 0x24 PUSH0 REVERT JUMPDEST PUSH0 PUSH1 0x2 DUP3 DIV SWAP1 POP PUSH1 0x1 DUP3 AND DUP1 PUSH2 0x22B JUMPI PUSH1 0x7F DUP3 AND SWAP2 POP JUMPDEST PUSH1 0x20 DUP3 LT DUP2 SUB PUSH2 0x23E JUMPI PUSH2 0x23D PUSH2 0x1E7 JUMP JUMPDEST JUMPDEST POP SWAP2 SWAP1 POP JUMP INVALID LOG2 PUSH5 0x6970667358 0x22 SLT KECCAK256 GT PUSH12 0x8216FDC6F87C40D0368B2826 DUP13 0x49 0x29 DUP10 0xD2 0xF7 BYTE PC 0x25 0xD2 0x2C 0xC7 0xDA PUSH32 0x6EEA98B064736F6C634300081600330000000000000000000000000000000000 "
		},
		"gasEstimates": {
			"creation": {
				"codeDepositCost": "126800",
				"executionCost": "infinite",
				"totalCost": "infinite"
			},
			"external": {
				"getRecordType()": "infinite",
				"record()": "infinite"
			},
			"internal": {
				"setRecord(string memory)": "infinite"
			}
		},
		"methodIdentifiers": {
			"getRecordType()": "0781f5c9",
			"record()": "266cf109"
		}
	},
	"abi": [
		{
			"inputs": [
				{
					"internalType": "uint256",
					"name": "_timeOfCreation",
					"type": "uint256"
				},
				{
					"internalType": "string",
					"name": "_record",
					"type": "string"
				}
			],
			"stateMutability": "payable",
			"type": "constructor"
		},
		{
			"inputs": [],
			"name": "getRecordType",
			"outputs": [
				{
					"internalType": "string",
					"name": "typeContr",
					"type": "string"
				}
			],
			"stateMutability": "pure",
			"type": "function"
		},
		{
			"inputs": [],
			"name": "record",
			"outputs": [
				{
					"internalType": "string",
					"name": "",
					"type": "string"
				}
			],
			"stateMutability": "view",
			"type": "function"
		}
	]
}